:100000000C9414140C943C140C943C140C943C1458
:100010000C943C140C943C140C943C140C943C1420
:100020000C943C140C943C140C9416280C948828C2
:100030000C943C140C943C140C943C140C943C1400
:100040000C943C140C943C140C943C140C943C14F0
:100050000C943C140C943C140C943C140C949C2B69
:100060000C943C140C943C140C943C140C943C14D0
:100070000C943C140C943C140C943C140C943C14C0
:100080000C94E62B0C943C140C943C140C943C14EF
:100090000C943C140C943C140C943C140C943C14A0
:1000A0000C943C140C943C140C943C149F19DA19D5
:1000B000DA19D119D119CB19CB19C419C419BD1921
:1000C000BD19B519B519B919B919B519B519B919AC
:1000D000B91934335133C6336B356B356B355C35F9
:1000E0006B356B3562356B356E35703574351A2569
:1000F000EE24F024F224F424F624F824FA24FC2438
:10010000FE241B25002502250425062508250A2591
:100110000C250E25102512251B251B25142516251B
:100120001825792579257925962596259625EF2573
:10013000EF25EF25EF25EF252326232623267925F6
:100140007925090FE8D2D9ED76BB4EC7B7DD6EB77A
:10015000DBED7636090FE8D3E974FCDBED76BBDD29
:100160006E6703090F109BCE6EB7DB753A36090F29
:10017000B8B2E9145FD7ABCF85A2ED6CDB590109AA
:100180000FBC92EE55A9A4D2AAAD53E4E9E8B6B3E8
:1001900003090FF8B6CAF55FB9B5EBD436EEED6CCE
:1001A000DB5901090F38B39FEAB397770A4BDBD9C4
:1001B000B6B302090FBC924EA5FAECE554CEC9D9EC
:1001C000D3F9EC367A090FB8B29F6AA2745FBB8E7E
:1001D000773B7B3A5A090F38972ACA6B998E39BDFB
:1001E0001D5B090F5CA73EF54D96DBF5B950B79D39
:1001F0001D0A081800600080002000400000006018
:10020000009000200000000000000080100020800E
:100210000000800000200000000040090FA8D69DCB
:100220002BA2AC932A75BB08B3DBB106090F887605
:100230009D7A995DCBDA756AD46DD7B101090FB893
:10024000969F6AA274D7ABCFCDBC9D753B2B06079A
:10025000A8D2E9743A2E0407723A9D8E0A06077CEA
:100260003A9D4E470704079D4BA7A303030788E564
:10027000030792CC0407B8D2E99C5304077C3A9D4B
:10028000760E0607DE6EB7DBED76070407A59276DD
:10029000BB5D010607B7DBED76BBDD020407A59267
:1002A0006ABBDD020307F8743A0307759A10040766
:1002B000D476BB924A2A0407B7DBAD545201150726
:1002C000A54E472555552A1595F3D99C2293AA2A60
:1002D000958A4AEA745C95032907522E95AA4A9595
:1002E000E272AA9295755452E5B3924AAAAA542A88
:1002F0006EE552A9544E71399F4E392EA9AA52A9C2
:10030000A8A4AA64656B4A550A2907D369A9A293D0
:10031000AA9295ADA9F64A4DEF54252BEBB8944B14
:10032000A5AA52A5B89CAA64651D552A25552A2A56
:10033000E9F24949A94A010E07A54E47E57C36A7CF
:10034000C8A44EC75571011307522E95AA4A95E2CB
:10035000522E954AE51497D4E9A8A44AA5523945E6
:1003600056390F07A5CB67B3924AAAAA542A2AE99D
:10037000F249C9553904050E11110E00121F101251
:100380001915120A11150A06051F04171515090E6D
:10039000151508011905030A15150A12150906197C
:1003A00007EA5455AA2AD59129974AA57215997238
:1003B000A9542AA7B8A4AA64656B2AA9AA52A9B805
:1003C0002A2E20064B000000190075054B00000086
:1003D000190027054B000000190097044B0000008E
:1003E000190017044B0000001900B8074B0000006B
:1003F0001900E0064B000000190010034B0000003C
:100400001900BA024B000000190093024B000000D3
:1004100019004B024B00000019000B024B000000BA
:100420001900DC034B000000190070034B000000B2
:10043000190088014B00000019005D014B0000000D
:1004400019004A014B000000190026014B00000072
:10045000190006014B0000001900EE014B000000DE
:100460001900B8014B0000001900C4004B00000047
:100470001900AF004B0000001900A5004B00000060
:10048000190093004B000000190083004B0000008E
:100490001900F7004B0000001900DC004B000000C1
:1004A000190062004B000000190057004B000000CB
:1004B000190052004B000000190049004B000000D9
:1004C000190041004B00000019007B004B000000A8
:1004D00019006E004B000000190031004B000000B5
:1004E00019002C004B000000190029004B000000EF
:1004F000190025004B000000190021004B000000EE
:1005000019003E004B000000190037004B000000AE
:10051000190000804B024B0000000F004B024B0003
:1005200000000F004B024B0000000F0026014B00A3
:100530000080E0060F0017040F0027050F00008061
:100540008801640000001400DC0364000000140053
:100550004B0264000000280017046400000014002F
:100560002705640000001400200664000000280035
:1005700000800C0E0305061706040E0300000001A0
:10058000000204061606190D050E000B310B28415A
:10059000072105C103612104C10341012101C103F8
:1005A0002A6141270141012704C104614104C103BB
:1005B0004101276129410122A12301410127610550
:1005C000C1034106C10141082961410122A3210162
:1005D000286101C107614104C10B6229410122A1C7
:1005E00023096202C1064106C10961296141012254
:1005F000A3210225026108C1614106C1022102C195
:1006000021026229410122A12304612202621561B3
:100610002101C101613C001A04030B011101020414
:100620000405001600050116010A01100101041954
:1006300004002304220422042204270224022402A8
:10064000240224610222612102226121022161220D
:10065000022161220262032161826101216103C1E1
:100660006121016182612103620224C1612462244B
:1006700061C124026223022261210221612202213E
:10068000612202236222042161C103612103C1614D
:1006900021042262230224622462240223620222B1
:1006A0006121022261210221612202216122026272
:1006B00003216104216103C16121046121036202FC
:1006C0002462246224622402622302226121022124
:1006D000612202216122022362220421610461213C
:1006E0000461210422622302246224622402236220
:1006F00004C1046201C1026204C104623A610017CC
:100700000F040C020E02020919090400001B00006C
:10071000011B010A01100103091809001F192661B4
:100720002461036124612701810461046141614105
:10073000610461058101610125066103C102260191
:1007400062012502216721022601620122C10121E5
:100750000221614561210222C1230162012502219A
:1007600067210226016209870A6205610641066166
:100770000662456104C143C10461466205610445E6
:10078000046106622561034703612662056101C1B8
:1007900049C1016106624561014B01614661C105C4
:1007A000614D6106C100070A03070117060A0E031F
:1007B00000000001000208010D041806090E001FC8
:1007C0001A2A462144214461C1156104612209416C
:1007D00003C104C183C10261256221622802210391
:1007E0002102610421620162210142240961042184
:1007F00062C16221014101240123612461042701B6
:1008000041C12305610461166104610F2161256105
:1008100044612261286123016101C2026104610215
:1008200061086104610142052261026122C1210463
:100830006102230142260161026124046103C102B5
:100840004207613242234461000E0E031700040781
:1008500016080200001B00050718080004C104C1A7
:1008600005C108C1036126612301256123012562B9
:100870000661096109610161066102810461096122
:100880000161066102810181046109610161066102
:1008900081038102610188610161866106810261D3
:1008A0000961086181058161096101260161028197
:1008B0000381026105C101C10161220123026102BC
:1008C00081018102610481234301C103C1016104EB
:1008D0008104610381234322A123026102810181FA
:1008E00002610481234322A12101210161028103CC
:1008F000810261038122C24202C101C103618105FB
:10090000816104814626016104C1046101C102467E
:100910003C000D0E04050807081408160806000020
:100920001B0000011B0100021B0206080908120837
:100930001508020000000000000110000000000087
:100940000000000000000002200000000000000085
:100950006000000060011006000000060021212157
:100960002121213223121212121212000600000657
:1009700000311300600000600032121212121212D5
:10098000212121212121233000600060000110007D
:1009900006000600032121212121213223121212F7
:1009A0001212120000600060003113000600060001
:1009B0000032121212121212212121212121233080
:1009C00006000006000110006000006003212121E4
:1009D0002121213223121212121212006000000093
:1009E00060311306000000060032121212121212B9
:1009F00021212121212123300000000000000000DE
:100A0000000000000312121212121212121212121D
:100A1000121212010E02080E130E0200001B000734
:100A20000E090E120E140E00018701C226C20187A4
:100A3000016107C1236423C1076206C12263026307
:100A400022C10662062262066222066205C1216296
:100A5000086221C10562052261C108C161220562E7
:100A6000052162C108C162210562052161C208C277
:100A700061210562052162C108C16221056205226A
:100A800061C108C161220562062162C106C16221FD
:100A900006620621A162C202C262A121066207A10A
:100AA0002163C26321A107620823642308620A2626
:100AB0000A6129610861286100010F031902070614
:100AC000150F0705000501000203020502000301DE
:100AD00004180204040C07130F0025013604210139
:100AE0002101870C21012203210121C10321612160
:100AF0000B21022501266125C10121612505C18344
:100B0000246128612101290321022161230124613B
:100B10002101220D216123012201216121C1012135
:100B20006127612161C10121612301220121612429
:100B3000610761256123C101210121612201216138
:100B40000924612601216122C12161072105610873
:100B5000610321612361246121412141214121411E
:100B600021412141216121412141612361246126EB
:100B70000225612141214161036104612702246151
:100B80000461286128C1012762086101C1012608AA
:100B900061000207021801090203000003010302B9
:100BA0000A021A03080E170E001C23012409860AE4
:100BB000820F4561036121022561268303210162C1
:100BC000240221C18361852103246121610624035C
:100BD0002361210321C102610161062184618461D5
:100BE00021032181026101610221032161C121C12F
:100BF00061C12161C16121032104C1216122032C52
:100C000004216123016104C12105C104210561049E
:100C100061042203236103210561046102C12101F2
:100C20002106610321C10261250161022102210324
:100C3000C10261032202610661C121032101612613
:100C40006101210121C16106612102C1012101610E
:100C50002102C1012161042161053C000D0E030543
:100C6000041507040F050E000E010E020F020F03FC
:100C700002031903050F170F001F19C11AC12161C3
:100C800001618B0188610161236212C101622561EA
:100C90000161860189610161276201C10E6228A19B
:100CA000610161870184610161A128A121620AC1FA
:100CB000016221A128A12261016183018461016196
:100CC00022A128A1236201C1066223A128A12461D7
:100CD000016182018161016124A128A12562046270
:100CE00025A128A12662026226A128A1276101C1AF
:100CF0006127A128086122610824001501050A0165
:100D00000C010E01080E110E021B001B0103010B4A
:100D1000010D01190100411B4105C412412AA12FF7
:100D2000611B61044101C102C107C106C1410161EA
:100D3000044127A127A1244101611B61064102C191
:100D400004C105C102410361064123A126A1254139
:100D500003611B61074102C105C104C14104610671
:100D6000422E4104611B611B61C414614101612A6F
:100D70004628420161000E0B03020015000F02021B
:100D800006001600010014000E02150F01012404D4
:100D9000230522C1210421C1210522C121042305EB
:100DA0002403820322012105810622012106240653
:100DB000650122C121058104810122C1210722018F
:100DC000810124072201810B810181026A028106CF
:100DD0008109260181082603230424C1210321C19E
:100DE000A10424C12103230424C1210181082681F7
:100DF0000926016602810681072201660722810613
:100E00002403640522C12106230322C1210621C136
:100E100021032406231F0A000A0E031805120703E4
:100E20000A030D000D010D0204021A051307040A3E
:100E3000001C8B13C104C101416104C10C2947612D
:100E400002C1614161052141214121412145034701
:100E5000610F4202C106416102C10288610142255F
:100E60006103422461086101420561052461086152
:100E7000014201286101246101C104C101610142F3
:100E80000121062161012461230321016101420145
:100E90002103C10221610122C121612701610142B7
:100EA00001286101220121610861042102C103219D
:100EB000610421612E016122610127610F6101C17D
:100EC0006108613C00070104140104090A09180BB8
:100ED0000A00031B0300041B04000501051A051B7F
:100EE0000501061A06130103090B09170B0230004E
:100EF00000000000000000000000000330000000BF
:100F000000000000000000000003300021312444F4
:100F100044444442131200030000263020600000C5
:100F2000060203020000002110301120000002110F
:100F30000361120000260030062060000206030153
:100F40006200201110300011200211111301010262
:100F500020000030000020626000030100622000D9
:100F60000031111123121100030110122060003012
:100F700000000300000003000002231111300021D3
:100F80001311120003000132032060300010030629
:100F90000100030002300321103011100300011181
:100FA0000301123003062030200003000062030218
:100FB0006030030001110000030000001110003038
:100FC00011111111111111111111111111110D0E18
:100FD0000305010D021605031A001A011A02040185
:100FE0000C0216021505001F19612A6104C106C111
:100FF00004610A612461042361236101C106C10106
:101000006103416107610361012102230121016143
:10101000C2014161076103610121012302210161D4
:101020004201412A42610121022301210161420C56
:1010300041C1610121012302210161418802C102F4
:1010400041620121C101230121016141C1072461E4
:101050004162012502210161420B61016201280107
:10106000614204C1066122610A61420146046102D3
:10107000614821440B6102611861023C00070502CE
:1010800010030F0F041A001A011A021A0312010E9C
:10109000020105100F0200002000002000002000C7
:1010A000000000020000200000200000200060007E
:1010B0000002000025111120000021111001110271
:1010C00011100000000011130006000006021111AB
:1010D0001111111300031111111101320000000050
:1010E00000030113100060000132131111111113DC
:1010F0000613101111130132144444444113011317
:1011000010100003013210010010611300033010B1
:101110001113013210010010013311113116111396
:1011200001321001061001310000001011130032CD
:1011300010011110013101111010000313321311AD
:10114000001133310161101111111302130002213A
:10115000331100010011600003121300020003119B
:101160005111151111111312131110000300000079
:101170000000000003021A0E0312080509020E0AFD
:1011800010000F0110010E020F020D030E030C04DC
:101190000D040C050E0607070108180A001F1F1F83
:1011A0001F1F1761226118612261C1146127610D3F
:1011B000216104612101C101C1012161012161217C
:1011C000610923612C612361082201C1022401C14C
:1011D0000361C102226107246102C101236101612F
:1011E00022610121610821C12161236101C10161E5
:1011F0000161C12161C12161093261035C000907FC
:101200000308021403190C0417001701170217032F
:10121000090213031708040E000349124109410C87
:1012200042024103C20621610A4201422261284270
:101230006108C142014123612B61224321614522A2
:1012400063218721632184618361412261016121DE
:1012500002C1042161016121086141226101612112
:1012600007216101612101C104C10161412261C104
:101270006124612461C161214106416141296130DC
:1012800061410622632202C104C103C1016141869A
:10129000216201628E614101C104216103610E611D
:1012A0004107610361022B01614404610361012371
:1012B00001C12202C101226141264161C101C16116
:1012C000022D000D0F03060508090D090812001B69
:1012D000001B011B021B031B041B051B0616030539
:1012E0000509090E090007C104C10FC230610922B6
:1012F0000AC102C102611261286102C103C10B610E
:1013000008612805C102C10161156126610BC10890
:101310006106610661296101C10161066106610919
:10132000612361066104C1016107C1016106612396
:1013300061266104612506618804C1026109C10159
:1013400061C10761266103C101276107610661254B
:1013500007610761136102C1046106C10500040E43
:10136000030D0217090B0E051A00180119011A01C5
:1013700018020E0208061809130C005A0121619682
:101380006103216108220C6101C101216102610137
:101390003561216102610123126121610261032132
:1013A000013361026102612103C1022101C10121F6
:1013B00001C1012101C10221610261026122613288
:1013C00061026182610261250125062161026102DB
:1013D000610261042101C1210921610261026102EE
:1013E00061826101246182276102610261026102FE
:1013F000610561022761026102610261026182612D
:1014000002610227610261026102610261026101FF
:1014100021612301C3012161026102610261026154
:10142000026102612361376101C26125000B0E0474
:101430000D001701070207080113000F001801062D
:10144000020808000EC118286105C10BC1096121FD
:1014500061256105C1256107610161056123A12342
:10146000046187610161C104610B610761012701AA
:10147000C1096107610823612761076188C10261B1
:10148000076104C1026107C129022861042407C160
:1014900003C1076108256123A1236102C102610321
:1014A000C10961072E6105611561056101C10AC1AC
:1014B00008613C000D0E040A011101060515050224
:1014C0000C000F000902120205061606000D221874
:1014D000C1612261C11561266113C1612661C1111B
:1014E000612A610FC1612A61C10D612E610BC16169
:1014F00003C80361C10961326107C1613261C1057D
:10150000613661046136610461166104611661042B
:10151000611661023C000B0E0303041A0A130B024E
:10152000030003011A0105020F02100B001F07C17F
:1015300009C106C161A121610461236105612361C3
:1015400021022162022603612561036102C1016259
:10155000C10A61056103240162A1240923612107F5
:10156000620141240722086121016201412505220F
:1015700007612161026201412B04C1036103226101
:1015800001412B032302610561014104230123086A
:101590006104C161014102C1012201C1012208614E
:1015A0000322610141612B61266103226102610B0B
:1015B00061066103226102611261033E00040A03B5
:1015C0000A020F0618060600001B0000011B01009E
:1015D000021B0202020F0218020E06001F1F1661F4
:1015E00023A1366223A1366207228822076203C143
:1015F00003C1216106C12207620722610128022579
:1016000062022302226107220222C122620221C158
:10161000210222610722022562072862220222C1DA
:10162000226202230228622202256202230222068B
:1016300061012207620223022205C161012204C165
:1016400002612A6129612E02C1612601C10161275F
:1016500000140102070C140C0F19001A011B021AC6
:1016600003190418051706160717081809190A1A86
:101670000B1B0C1B0D1B0E060C080C130C150C0081
:101680001F1CA1246226651061032102610FC105A0
:101690006101612102610F21C105622102610E23F6
:1016A000C105612102610D25C104612102610B2880
:1016B00004612102610CC12505612102610E23062E
:1016C000612102610F21076121026117612102611D
:1016D0000C612EA129032F096121013003C661226B
:1016E000000E0A0408011401030518050B00001B75
:1016F0000000011B01000201020202030219021A8A
:10170000021B020701130104051905001F03C10490
:10171000C105C104C10928610361280F6103611279
:10172000612D6106C105C16105C101C10561C10429
:10173000C1276101C101C125C101C1016126076144
:101740000124032401610AC1026106C1066101C1CD
:101750000661366104611661046101C104C161273B
:10176000610661022A610761290A6107610BC107ED
:1017700061076106C10221412141214121412141ED
:101780002141214121412141214121412141214149
:10179000214100100F0306000F000609030200118B
:1017A00000160005000E00140A040F0200000000DD
:1017B0000004000040000004000604300043400024
:1017C0004004034000304003403004030400004064
:1017D00003040030040360304003004004000300B1
:1017E00046300043003400430004400003600430EE
:1017F0000003340004034004400403444444040050
:101800003040004300460400030000003040340430
:1018100000036443004003000000300430404003F4
:1018200044030004030000003004340604034003B2
:101830000400434000003004304300400003000433
:1018400000040000300434030004000300404000A2
:1018500040003004304304004003640004000400EE
:10186000306434030004040340400640004030402C
:10187000304300400043000004040404340000032B
:10188000000006000006000000003000090E040CF5
:101890000017000C0C140C0F1B001B011B021B0378
:1018A0001B041B051B061B071B081B091B0A1B0B24
:1018B0001B0C1B0D1B0E03001500060C180C020060
:1018C000000000000000000000000000005353531F
:1018D00053535353535353535353505353535353DB
:1018E000535353535353535350631303136313030B
:1018F00013631303136310531353135313531353EB
:1019000013531353105313531353135313531353AA
:10191000135310531353135313531353135313539A
:1019200010031303130313631303136313031053FD
:10193000135313531353135313531353105313537A
:10194000135313531353135313531063030303031A
:1019500003030303030303030031111111111111D8
:101960001111111111111030000000006000600011
:101970006000000000322222222222222222222281
:1019800022222036000000000000000000000000BD
:1019900060111111111111111111111111111111E8
:1019A0000E030E061606040A01180003000E0019A5
:1019B00006070A0006C105C10F61316105610361B7
:1019C0000DC10361056102C129612905612B620E08
:1019D00061032762876107610321C101C122620897
:1019E0006102C1046102C1256205612443246123AF
:1019F000056106610B61086106610B61086103C145
:101A000002610B6102C1612B6102C105C102612348
:101A1000610B610129016103610B610B61036106C7
:101A2000C1046106C10461033C00080E0401011AEF
:101A30000103021802010C0303001800030F180F22
:101A400000076116C1046111C102612201C1026176
:101A50000FC1012262022202612401612561032279
:101A600002620B62C1046107620BC162046107621A
:101A70000B62C10C620BC1620C620B62C10C620B87
:101A8000C1620C620B62C10C620BC1620C620B6220
:101A9000C10C620BC1620C620B62C10C620461304A
:101AA00061046100090E02000513060719001901FF
:101AB000190219031104110511060D0001050F0685
:101AC0001906000AC119612702C10DC1036106266A
:101AD000072A6109C1116126012561220C610C618F
:101AE000042A610C6103C12A61274203612E610C43
:101AF00061042A6107C10183610422062261072271
:101B00000361042202C202226105C10661042B6145
:101B1000276103610F6107286104C106610F613C01
:101B200000070F05030208050D051405130F020039
:101B3000000001040209050E051305001D9B61212B
:101B400005210D2105216101250F250161012101DB
:101B5000230F21C123016101250F2501610123010B
:101B600021A131012101610125A12301C12201C16E
:101B700028612101610125A131612101610125A1B6
:101B800031612101610125A1240429612101610143
:101B900025A1240429612101610125A12403C1613A
:101BA00028612101610B2461886102610A450C6191
:101BB00009450D000E0E0605021602020B0F0B1949
:101BC0000B080E040B0010000B0110010202190299
:101BD0000D08040B01036C21032A022103210321B8
:101BE0000421022102C12102C12103C1A10221035A
:101BF00021032104210221032A0221036703A101F9
:101C0000210381058104A12103810581052102624F
:101C100005816521022B0221026AA102210921020C
:101C2000A10221092102A10221092101C1A1022150
:101C3000092102A10221026AA10221022B02210232
:101C400062058165210381058105210381058104E8
:101C5000A121036703A10121032A022103210321FA
:101C60000421022102C12102C12103C1A1022103D9
:101C700021032104210221032A0221036C210009EE
:101C80000E040D0213030205170E030200020102E7
:101C9000020B0216030705180E001F1188146106B7
:101CA0006125612104216123046104C10161056191
:101CB000066104236127056103C1026107610725ED
:101CC0006124026107610C610661076109C102615B
:101CD00003C1026107610722612C610461012401D3
:101CE0006102610C6101C1026101240161026102B2
:101CF000C109618461012101C121016127610C6178
:101D000001256107610C61066107610AC101610675
:101D1000613C000D0B0515010A041308020E140E98
:101D200003120012011202040118010B040E080034
:101D300032012A01C1102103C10322A123612461C0
:101D400008276122A123612E01230261220461027E
:101D5000C107240123026122612961280123026154
:101D6000226103266125C2210123C1016122610391
:101D700026612E612261032104C16104C106C101F3
:101D800021612261032361276127612161226102B0
:101D9000C12361076127612161226122A1210261C2
:101DA0000761022203612161226122A12161256173
:101DB00028C201612161226122A12161256126C120
:101DC00026612261046122C1226104C108613D00D3
:101DD0000F0E041801010504080F0B080900090182
:101DE000090209030904090509060907000112018E
:101DF00004030E03001F0EC10A230D2461270222D3
:101E00000B2203610A220922046107C1022306C1D1
:101E100023046103C1032261240524612361270295
:101E2000610322032203610D61C103226122046167
:101E300005C10561236104610521612261230561FA
:101E400003610E610861036104C1096108610361F6
:101E500027612661256122610B610C6102610B61C2
:101E60000C61023C00120E03060616060E0A020062
:101E70000000010D02030E0D0E180E001D8B1061E7
:101E80000561052101C101210561056101C10263EF
:101E900002C1012501C1026302C101610162026147
:101EA0000262076202610262016101610165016112
:101EB0000761016501610161016102C101C1026146
:101EC0000361036102C101C1026101610261256117
:101ED00003630361256102610365016202610262BD
:101EE00001650361096101650161096104C1046162
:101EF00002C101C1026105C103612661036125615F
:101F000002612761066104650361076106610C6176
:101F10000761066107C10461073C000A0E0307045C
:101F20000F071309031B001B011B020C0113010106
:101F300002190B001C8A05C10C6101C106612A61EE
:101F400007256103610A61470561036106C10361F9
:101F50000C61266125612209C102610661056102E9
:101F600082052461210661056104820761046126FE
:101F700061220682C10461846106610A210461074D
:101F80006129610961076129610523612A03C10390
:101F9000256124612A016123610125612103610B0F
:101FA00061236102C10361013C000C0E03040314B0
:101FB000050408021B041B0513011902010309088B
:101FC0000003C11762422142610BC108620561042E
:101FD00061296101C1036201C103610461096124D6
:101FE000A16221412141216104610961066105610C
:101FF00084618603610661056104610561234662AF
:102000000561046102C102610962056101C10261E9
:102010002561096141234122412241610961236116
:10202000224123410661096103610241C102410667
:1020300061038661036101C12861234405610224B3
:1020400008610C610E610C61063C000E0E03050672
:1020500017060E09041200120112021203010109EF
:102060000110061B06001F01C11727612714618A92
:1020700005C10B610422610327612207610422610B
:102080000A61096104226107C1026102226125041B
:1020900028612702611161096111610729612A61C3
:1020A00010610A610EC101618A6103C107612609DD
:1020B000276104610CC109613C00070F0503020898
:1020C000050D051405130F020000000104020905A7
:1020D0000E051305001D9B612105210D21052161C0
:1020E00001250F250161012101230F21C123016178
:1020F00001250F25016101230121A1310121016188
:102100000125A12301C12201C1286121016101250D
:10211000A131612101610125A13161210161012507
:10212000A1240429612101610125A124042961213F
:1021300001610125A12403C16128612101610B24F2
:1021400061886102610A450C6109450D00D5F08D79
:1021500014A1C881CFD9F1AF20000000F4019C0088
:10216000A5000000A80093009C0000000900E90001
:102170009C0000000900A5009C0000000900F70079
:102180009C0000000900A500A5000000A800E900CF
:10219000A5000000A80083009C0000000900D000FA
:1021A0009C000000090093009C0000000900E90069
:1021B0009C000000090093009C00000009008B00B7
:1021C0009C0000807F37E0C3142E53284C67B7DB98
:1021D000ED76BBDD6EB7DBED3A74A5B3DBED76BB18
:1021E000550E916AEE7476BBDD6EB7DBED76BB0EF5
:1021F000D256A1127D98534A2AA914D6A85232A4C5
:10220000ADA4926A2472AE64285B2AA9E47882A302
:1022100011BA73CE39E79C5352C58538E59C736E6D
:102220009C1D17EE9473CEE191147F5B259554525B
:102230004925B73B082F89C7ED763B7F3ABDE3AF11
:102240009D545249259554524925A552A59454525E
:1022500049E5DC76BB557AAB9454524925955452E6
:102260004925A5525249E59C92DBAD924E3AA9A46C
:10227000924A49E59C924A3A2795944A49259554B1
:1022800052DDEA53EB7C7AABA492CA39E7945452FC
:10229000492595545239A7E4761D6B3ABDDD6EB7DA
:1022A000DBED3ABAEC763B5A0B8D4A2AA9E4385A50
:1022B0002AE74616DE52848853712270E79C422238
:1022C0001FE676CE29EC11AE64285B2AA9E478E2F9
:1022D00053216FE79C734E4925C3660A934A493BD5
:1022E000BEB6CED9A5728AEEB1E79CC3DC8AF29164
:1022F00097E24A21D045F6385B71A5504789BFADBA
:10230000924A2AA9A492DB1DDDE3EEB1BF555249E2
:1023100025955452492595543AD2F4564925955459
:1023200052C9EDEC5B259554524925955472ABA4E6
:10233000924A2AA9A4924A2A9D8E6CABA4924A2A58
:10234000A9A4924A47B65552492595545249259514
:102350008E6CABA4924A2AA9A4D2916D955452498D
:1023600025955452E948D35B2595545249259554F7
:102370005249259554721BED5649259554524925CD
:10238000954E87640A100000000000000000000065
:1023900000000000000000000000EFEFE0EFEFEFB2
:1023A000EF0FEFEF01010101010101000101FFFF4A
:1023B000FFFFFFFFFFFFFF0001010101010101011C
:1023C00001000000FF42424242FF00000000030003
:1023D00000000003000002020202020202020202E6
:1023E00000000000000000000000EFAFE06FEFEF22
:1023F000ED0FEBEF010101010101010001010000FE
:10240000B0B000B0B0000000000001010001010008
:102410000000EFEFE0EEEEEEEE0EEFEF0101010156
:10242000010101000101EEECE0E8E8EAE808ECEE69
:1024300001010101010101000101ECE0C0C088803F
:102440008000E0EC01010101010101000101E080D7
:1024500000000800010086E0010101010101010006
:10246000010100000000000000000000000000006A
:10247000000000000000E08080000000000080E01C
:1024800001010101010101000101ECE0C080808037
:10249000C000E0EC01010101010101000101EFECCC
:1024A000E0E8E8E8E80CECEF0101010101010100BE
:1024B0000101EFEFE0EEEEEEEE0FEFEF01010101B3
:1024C0000101010001013F0FA5AA64656B2AA9AAB9
:1024D00052A9B83A5595AA4A755CCEA7538E4BBA05
:1024E0007C362BA9A4AA4AA5E2562E95AA4A95E2C3
:1024F00072AA92957554D2E5B359492555552A15B6
:10250000D2A5AA64656B2AA9AA52A9B83A5595AA78
:102510004A755CE9B454F13955C9CA3A2AA92A590D
:10252000D99A2A9D962A7EE552A9AA54292EA72A2D
:10253000595947255D3E9B95545255A55221122C61
:1025400007EA5455AA2AD571A5D352C5E754252BBD
:10255000EBA8A4AA64656BAA745AAAF8954BA5AA1D
:1025600052A5B89CAA64651D9554F9ACA492AA2AF8
:10257000954A010207A55336095717A38B2E2E47FC
:10258000175D74D145175D74D145175D721F5D7479
:10259000D145175D74D145175D749129BAE8A28BB6
:1025A0002EBAE8A28B2EBAE8A28B2EBAE8A28B2E06
:1025B000B98F2EB4499D4EC7A55C2A954AA5728A4B
:1025C0002E5795AA4A55E51C9772A9542A954A494F
:1025D0001449974DE71D977255A9AA5455EEA24A82
:1025E000E52A9BAD5C2A2AE752A9543624DDD75749
:1025F0005595AA2A3559AE2A5595AACA392AA9F25B
:10260000CAA525977255A9AA5455AEA35485ACE81E
:10261000A28B2EBAE8A28B2EBAE8A28B2EBAE8A221
:102620008B2EBAE8A28B2EBAE8A28B2EBAE8A28B28
:102630002EBAE8A28B2EBAE8A28B2EBAE8A28B2E75
:10264000BAE8A28B2E32100FB22E954A65E3723E85
:10265000A77CCA9129974AA552A99C829000100F85
:102660009C72A9542A95CA292EE9B2E9BCE352AE5C
:102670002A5595AACA75F010591FA38B2EA764E797
:10268000D29DDCE7D28E2EB66D7ABAD8B6E9E96271
:10269000DBA6A78B6D9B9E2EBAE862DBA6A78B6D8F
:1026A0009B9E2E9B9E6D9BCFA6B7E9E9726947174B
:1026B000DB363D5D4EE96D3EBA6C7A9B8F2E7439E8
:1026C000974EC79C733A2E652B59C9CA756CD94A67
:1026D00056B2728EAB9395AC64652353B69295ACAB
:1026E0005C872BE5D3E95CC7A57C3A9D53648E4B90
:1026F00091392E2BD3E99CE2CB391D97B295AC646E
:10270000E53A2EE5D3D9C894AD64252BD7416FF7B0
:10271000B5AB4AA952A9C97255A9AA5455CE514977
:1027200095572E2DB994AB4A55A5AA721D2C1B5D49
:1027300074D145175D74D145175D74D1C594EB74A0
:102740002EBAE8A28B2EBAE8A28B2EBAE8A28B2E64
:10275000BAE8A28B2EBAE8A28B2EBAE8A28B2EBAC8
:10276000E8A28B2EBAE8A28B09E0061E0000000A40
:1027700000E0061E000080010204081020408008CE
:102780000B00020202010009040000010202000025
:10279000052400100105240101010424020605247A
:1027A0000600010705810310004009040100020A28
:1027B00000000007050202400000070583024000F8
:1027C000000403090412010002EF02014041233614
:1027D0008000010102030141726475696E6F204C33
:1027E0004C430041726475696E6F204C656F6E6179
:1027F00072646F0020066400000014002705640066
:102800000000140017046400000028004B0264005C
:1028100000001400DC036400000014008801640060
:10282000000028000080D23511241FBECFEFDAE06F
:10283000DEBFCDBF11E0A0E0B1E0ECE7FEE602C0F4
:1028400005900D92A03BB107D9F728E0A0EBB1E0CD
:1028500001C01D92A530B207E1F714E1C4E1D4E153
:1028600004C02197FE010E943137C331D107C9F757
:102870000E9490310C943C370C9400002F923F92B0
:102880004F925F926F927F928F929F92AF92BF9280
:10289000CF92DF92EF92FF920F931F93CF93DF932C
:1028A000CDB7DEB764970FB6F894DEBF0FBECDBFCD
:1028B0000E94BA2E882311F40C9489210E94402D85
:1028C0008091D30190E02091E0053091E105821BD9
:1028D000930B05962AE030E0B9010E941D37462E81
:1028E0006E878091D40190E04091E2055091E3051C
:1028F000841B950B0596B9010E941D378B016F87CC
:102900008091B701853091F080918C0790918D076F
:102910006CE070E00E940937892B09F039C490916E
:10292000B00181E089278093B00132C4842D0E94D8
:10293000182DB82EE0908E07F0908F07F094FE20AF
:102940001092D5011092E4058091DA018B3021F0CC
:102950001092D6011092E505602F842D0E94182D4B
:10296000863081F58091D7019091D8014996909356
:10297000D8018093D70140E0602F842D0E94172F4B
:102980008091C706882319F081508093C7068091F3
:10299000C706882329F082E395E00E94EF2212C047
:1029A000D12C8091C806D816B0F7ED2DF0E0EE0FCF
:1029B000FF1FE653F94F43E0618180810E94172F8A
:1029C000D394EFCF8E2D8C708C3069F58091B1014E
:1029D0008F5F8093B101853130F18D3390F08D336D
:1029E00011F583E884BD8FEF87BD81EF8093800070
:1029F0001092880010928A000E947D311092B101DD
:102A000032C320E430E0A901481B5109CA01880FF4
:102A100093E894BD9FEF97BD91EF90938000109243
:102A2000880080938A008F2D84709F2D9870F3FE0C
:102A30002FC081112DC00E941C25882309F47DC060
:102A40008091D30190E02091E0053091E105821B57
:102A5000930B02966AE070E00E941D37462EFF2419
:102A6000FA94F60E602F8F2D0E94182DC82EDD24AB
:102A7000D394D00E6D2D8F2D0E94182D813009F02A
:102A80005CC08FEF8C0D823008F457C084EF2FC0EC
:102A9000882309F452C0911150C00E941C2588233C
:102AA00009F44BC08091D30190E02091E005309172
:102AB000E105821B930B02966AE070E00E941D37CD
:102AC000462EFF24F394F60E602F8F2D0E94182DB2
:102AD000C82EDD24D394D00E6D2D8F2D0E94182D7D
:102AE000813059F58FEF8C0D823038F18CE0809376
:102AF000DA011092D5011092E40547E06D2D8F2D7B
:102B00000E94172F80918807843181F0E82FF0E030
:102B10009F01220F331FE20FF31FE45BF84FF08297
:102B2000D1829CED92838F5F809388070E94402D15
:102B300084E195E00E94EF2296C2E6FED1C0602FAC
:102B4000842D0E94182DB82E2091D30130E0809161
:102B5000E0059091E105B901681B790BCB016AE0B2
:102B600070E00E941D37AA24A394892B19F0A12C90
:102B7000842D02C081E0840D602F0E94182D682EE4
:102B800077247394700EAA2019F081E0840D01C09F
:102B9000842D672D0E94182D882EA11003C08FEF61
:102BA000840D01C0842D672D0E94182D582E862D6E
:102BB0000E945431982E6801DD247FEFC71AD70A8E
:102BC000E42CF12CA601B701852D0E94972C382EFC
:102BD0000E941C259091DA019B3061F4882311F446
:102BE0000C941F213110C9C084E068120C941F217D
:102BF00068E015C00E9481308823A9F08DEF8B0D0D
:102C0000823008F00DC2992011F40C948621311005
:102C10000C94D01E94E0B9120C94D41E6AE087E0A4
:102C20000E942F2541C0AA2019F081E0840D01C027
:102C3000842D602F0E94182D882EAA2019F081E083
:102C4000840D01C0842D672D0E94182D982E62E0FE
:102C5000600FAA2019F081E0840D01C0842D0E942C
:102C6000182D682E892D0E945431982E882D0E948F
:102C70005431882311F40C943521992011F40C94CB
:102C800035214701AFEF8A1A9A0AA601B401862DB1
:102C90000E94972C882311F40C94252164E081E094
:102CA0000E942F251092DA018091E205BAE00B9F75
:102CB000800D11248093D4018091D3018C3310F4C2
:102CC00082E0C4C02091E0053091E10529363F4FF4
:102CD00024F01092D5018EEFC5C087FFF1CF91C1CE
:102CE000E5FEC6C0602F842D0E94182DB82E2091BD
:102CF000D30130E08091E0059091E105A901481BE6
:102D0000590BCA016AE070E00E941D3755245394A4
:102D1000892B19F0512C842D02C08FEF840D602F68
:102D20000E94182D682E99249394900E511003C080
:102D300081E0840D01C0842D692D0E94182D782E0C
:102D4000862D0E945431882E6801DD245FEFC51A5C
:102D5000D50AE42CF12CA601B701872D0E94972CEF
:102D6000A82E0E941C259091DA019B3089F48823BB
:102D700011F40C941F21AA2031F01092DA010E9464
:102D800037220C94862164E066120C941F210CC03B
:102D90000E948130882369F08DEF8B0D823010F016
:102DA0000C94EA1E0C94D81E69EF86EF0E942F2522
:102DB00040C0552019F08FEF840D01C0842D602F85
:102DC0000E94182DA82E552019F08FEF840D01C0F8
:102DD000842D692D0E94182DB82E62E0600F5520B9
:102DE00019F08FEF840D01C0842D0E94182D982EAC
:102DF0008B2D0E945431B82E8A2D0E945431882385
:102E000011F40C948621BB2011F40C94862181E0EE
:102E1000E81AF108A601B701892D0E94972C882392
:102E200011F40C9457216FEF8CEF0E942F25109214
:102E3000DA018091E2059AE0099F800D11248093C8
:102E4000D4018091D3018D3320F08EEF8093D50192
:102E5000D6C02091E0053091E10537FF06C0109201
:102E6000D50182E08093E405CCC08111EECFC9C0CA
:102E7000E7FE89C08091D40190E02091E205309175
:102E8000E305DC01A21BB30BCD0108966AE070E0FC
:102E90000E941D377B01D62E0E941C25182F8823E7
:102EA00019F06FEF6E0D01C06E2D842D0E94182D4C
:102EB000082F112319F0DD24D394DE0C6D2D842D01
:102EC0000E94182D9091DA019530A4F0973044F0CB
:102ED0009B3081F4B4E0BB12B6C71111B0C7B3C7C1
:102EE000112371F1E3E0BE1286C08FEF800F8230B4
:102EF00038F581C00E9437222091D30130E08091C3
:102F0000E0059091E105A901481B590BCA01EAE0CF
:102F1000F0E0BF010E941D37863020F0BF01681B22
:102F20007109CB0105970CF068C073E0B71265C05A
:102F30008FEF800F823008F460C085E08093DA0163
:102F40008091E0059AE0499E800D11248093D30181
:102F50001092D5011092E4058091D401883120F0BF
:102F60008EEF8093D6014FC02091E2053091E305AA
:102F700037FF06C01092D60182E08093E50573C04A
:102F80008111EECF70C0E4FE41C02091D40130E049
:102F90008091E2059091E305281B390BC901089641
:102FA0006AE070E00E941D376B01162F0E941C25FD
:102FB000082F81114FC76FEF6C0D842D0E94182DC3
:102FC000F82E002311F011E01C0D612F842D0E94BA
:102FD000182D182F8091DA018B3009F03DC7A4E03D
:102FE000BA1609F42AC7002309F45BC784EF8F0DD2
:102FF000843008F056C70E9437221092D5011092F3
:10300000E4051092D6011092E5052DC08091D601FD
:10301000823009F4BACF8091E5058E3F21F5B5CF16
:10302000A110B4C6992011F40C947C21A601B7011B
:103030006F5F7F4F882D0E94972C8111B1C6B70119
:103040006F5F7F4FA601882D0E94BD2C8111A8C6FD
:103050001092D5011092E405882399F28BE08093B9
:10306000DA010E94382580918C0780FD4DCC1092AA
:10307000F70610920507109213071092210710927D
:103080002F0710923D0766EF662E66E0762E21E050
:1030900037E03C832B837EEF472E76E0572E43E0CC
:1030A00057E05E834D836FEF76E078876F83D301BF
:1030B0008C9184FF50C012968D919C9113976AE079
:1030C00070E00E9409376B8B6C87F30184819581D6
:1030D0006AE070E00E9409376C8B6D878B890E94D3
:1030E000182DF82EF6E08F1305C0D2018C9188239D
:1030F00009F4E4C6EB81FC818291FB87EA878D505D
:10310000833048F1D30112962D913C911397C90158
:103110006AE070E00E940937892BE9F4F301C4806A
:10312000D580C6016AE070E00E940937892B99F4C6
:10313000AB81BC810C91002309F4E1C6D2018C91D2
:10314000803108F0D2C6F20131971082EB81FC8108
:103150008081815080835EE0650E711C6B817C8173
:10316000625F7F4F7C836B837EE0470E511C8D81B5
:103170009E810E969E838D83AF81B8851E96B887FB
:10318000AF83BAE46B16B7E07B0609F090CFBCCBF7
:103190008091B7018850833060F58091B701982FF6
:1031A0009B7F933009F093C22091B601822F022EAB
:1031B000000C990B2195220F295C40E450E0481B3C
:1031C000590B440FBC010E941D304091B60160E8CC
:1031D00080E00E9404308091B60146E3481B60E81D
:1031E00080E00E9404300091B601E12CF12C10E047
:1031F000FBC1A12CB12C912CC12CD12C00E0E09072
:10320000E005F090E105EC0CFD1C2091E205309109
:10321000E305C70109968938910510F539016A0C53
:103220007B1CC301099689349105D0F4692D802F48
:103230000E94182D182F882339F0282F44E853E2D4
:10324000B301C7010E94022329EF210F243040F46B
:10325000B3016A50710941EF51E0C7010E94022396
:103260000F5FEAE0CE0ED11C0C3149F69394FAE0E0
:10327000AF0EB11C20E19212BFCF8091B701853013
:1032800021F08091B0018823F1F08091DA01082FBC
:10329000001F0027001F082E000C990B97FF03C08A
:1032A000919581959109880F990BFC01E05FFE4F84
:1032B000408151816091D40170E08091D30121E07F
:1032C00090E00E944C2D96EFA92E96E0B92E21E0B9
:1032D000222E27E0322E30E0E32E37E0F32E4CEFA3
:1032E000842E46E0942E6501D6018C9184FFCFC0D8
:1032F00012964D905C9013972091E0053091E10576
:103300003A8329833901640C751C14962D913C91E4
:1033100015978091E2059091E305AC01420F531F90
:103320005C834B83D101EC918E2F90E0833191052A
:1033300008F0A4C0FC01EA5AFF4F0C943137F701A2
:103340008081082F001F0027001F082E000C990BFA
:1033500097FF03C0919581959109880F990BFC0106
:10336000E05FFE4F408151818CC0F1E06F1A71081F
:1033700085C02FEF621A720A81C04B815C81425076
:1033800051095C834B830CC76B817C81645071094C
:103390007C836B830BC08B819C8106979C838B8382
:1033A000FFC6AB81BC811897BC83AB8300E04BE1C7
:1033B00052E067C0EB81FC813A97FC83EB832A5093
:1033C0003109D60115963C932E931497F101108282
:1033D000C2016AE070E00E940937462FC9016AE025
:1033E00070E00E940937162F0FEF040F802F488BD3
:1033F0000E94182D982F31E0310F632F802F3A8BC8
:10340000998B0E94182D082F48894F5F612F842FB8
:10341000488B0E94182D582F3A89632F4889842F92
:10342000588B0E94182D482F2091D30130E06981DC
:103430007A81261B370B588999892415350584F420
:10344000892F0E944031882309F49DC6802F0E9455
:103450004931882309F497C62FEFF70120839DC6D1
:10346000852F488B0E9440314889882309F492C6F1
:10347000842F0E944931811186C68CC600E04DE33D
:1034800052E021E06B817C81C3010E944C2D7EE0E3
:10349000C70ED11C8EE0280E311C9EE0E90EF11CF7
:1034A000AEE08A0E911CBAE4CB16B7E0DB0609F059
:1034B0001BCF8090D301912C8091E0059091E10584
:1034C000881A990A6090D401712C8091E20590913C
:1034D000E305681A790AF501808184FF7BC0828147
:1034E00093819401281B390BC90124813581A301E3
:1034F000421B530B9A01E090D4014E2D50E0421B29
:10350000530B7091D301473F6FEF5607C4F4272F39
:1035100030E0281B390B2F3FAFEF3A070CF444C6BD
:103520002C3731050CF048C691E0970F981B8DE5BC
:10353000C82E82E0D82E43E952E080E039C04533FE
:103540005105C4F0272F30E0281B390B2F3FBFEF68
:103550003B070CF439C62C3731050CF03EC691E020
:10356000970F981B0EE4C02E02E0D02E42E852E0E6
:1035700083E31EC0472F50E0481B590B4C3FEFEF31
:103580005E074CF48E2D821B10E7C12E12E0D12E67
:1035900049EA52E020C64C375105E4F08E2D821BDB
:1035A000BCE6CB2EB2E0DB2E44EA52E09CE702C040
:1035B0009F3F81F0E82EF12C492E512C00E020E0B5
:1035C000B701C2010E944C2D21E0A601B701C20142
:1035D0000E944C2DFEE0AF0EB11C2AE4A21627E09B
:1035E000B20609F078CFD9CD21E0A701B80189E86A
:1035F00097E00E94432432E0E30EF11C42E4E4161B
:10360000F10491F78091B6019FE7981B00E010E06C
:10361000E92EF12C21E0A801B70189E897E00E948A
:1036200043240E5F1F4F02341105A1F78091B701AB
:10363000833029F5D090B601DA940BE110E0A0E4D4
:10364000EA2EF12CD7FC12C08D2D0D2C000C990BFD
:103650009801281B390B220F2F5FA701481B590B1C
:10366000440FBC010E941D30DA94ECCF8091B6016A
:1036700081508093B6018F3F39F584E023C0F12C4F
:10368000FBE1CF2ED12C00E410E08091B601F816BA
:1036900094F48F2D0F2C000C990B9601281B390BDD
:1036A000220F2F5FA801481B590B440FBC010E9439
:1036B0001D30F394EACF8F5F8093B6018C3121F4F3
:1036C0008091DB018093B70100E010E069C098EFC2
:1036D000980F9330C8F78A3049F400E021E049E0C0
:1036E00053E069E170E08AE290E03AC0883029F462
:1036F00000E021E048ED52E02FC01091C606812F76
:1037000064E60E94FD36082F282F45E753E069E163
:1037100070E088E490E00E940223812F54E6059F28
:10372000801911246AE00E94FD36192F282F45E7E1
:1037300053E069E170E08DE490E00E940223212FC4
:1037400045E753E069E170E082E590E00E940223E2
:1037500000E021E04EEB52E069E170E08BE290E0A6
:103760000E944C2D46E167E589E20E94043040E268
:1037700067E589E20E940430A7CF20E0A701B801E5
:1037800089E897E00E9443246FEFE61AF60A70E496
:10379000E716F10491F70F5F1F4F0038110521F074
:1037A000E7E3EE2EF12CE9CF48E360E880E00E94E9
:1037B0000430E090D701F090D80100E021E04FE91B
:1037C00053E06AE370E080E090E00E944C2D20E03E
:1037D00045E753E06AE370E08DE190E00E94022348
:1037E000C70160E177E20E940937262F8C0145E787
:1037F00053E06AE370E082E290E00E940223C80195
:1038000068EE73E00E940937262F8C0145E753E0EC
:103810006AE370E087E290E00E940223C80164E658
:1038200070E00E940937262F8C0145E753E06AE3D8
:1038300070E08CE290E00E940223C8016AE070E030
:103840000E940937262F182F45E753E06AE370E0FE
:1038500081E390E00E940223212F45E753E06AE3D1
:1038600070E086E390E00E9402231091D90100E00D
:1038700021E042E653E06AE370E080E490E00E94D9
:103880004C2D7AE0E72E812F6E2D0E94FD36192FE8
:10389000282F45E753E06AE370E082E590E00E945C
:1038A0000223212F45E753E06AE370E087E590E0CB
:1038B0000E9402238091B701853069F41091C706F8
:1038C00021E047E453E06AE370E080E690E00E9484
:1038D0004C2D812F1FC0F090C60600E021E047E389
:1038E00053E06AE370E080E690E00E944C2D8F2D5B
:1038F00064E60E94FD36182F282F45E753E06AE35F
:1039000070E081E790E00E9402238F2D94E6199FDA
:10391000801911246E2D0E94FD36192F282F45E79E
:1039200053E06AE370E086E790E00E940223212FD3
:1039300045E753E06AE370E08BE790E00E940223E2
:103940008091B701853009F0CAC100918C071091B0
:103950008D0700FD10C08091D501811147C4809171
:10396000D601811143C48091E40581113FC4809147
:10397000E50581113BC403701127012B09F444C0F4
:103980001091D5018091D301180F1093D3010091AC
:10399000D6018091D401080F0093D4018091E405F1
:1039A0002091E0053091E105280F311D87FD3A9502
:1039B0003093E1052093E0058091E5054091E20513
:1039C0005091E305480F511D87FD5A955093E3052B
:1039D0004093E205802F90E0841B950B0596EAE06A
:1039E000F0E0BF010E941D37462F812F90E0821B1F
:1039F000930B0596BF010E941D37862F642F0E94EE
:103A0000182D002319F154C000E017E0D8018C9163
:103A1000F8013A97908194FF12C0F80191819111B9
:103A20000EC093EF980F933008F4E7C3F801349772
:103A300090819111E2C3319690819111DEC3025FB2
:103A40001F4FB7E004351B0709F79ACF833081F584
:103A50001091C6061F5F86E08093B7011093C606DB
:103A6000612F82EC90E00E94CD24193208F4CAC381
:103A70008091D9018A3018F48F5F8093D90181EC4D
:103A800090E00E94DD2411E0180F612F81EC90E09E
:103A90000E94CD24612F86EC90E00E94CD240E94EC
:103AA000662F8DE08093DB0180E495E00E94EF2299
:103AB00080918C0790918D078C010170112780FDFA
:103AC00077C066EFC62E66E0D62EF601808184FFB1
:103AD00050C0F801EA50F94F8681D60112966D91D7
:103AE0007C911397680F711D87FD7A9513967C93CF
:103AF0006E931297878114964D915C911597480F9C
:103B0000511D87FD5A9515965C934E9314972091FD
:103B1000D30130E08091E0059091E105281B390B3D
:103B20008091D401E091E205F091E3057901B2E0E2
:103B3000EB0EF11CDB011896EA16FB06D4F4285FA5
:103B40003F4F6E5F7F4F621773079CF490E08E1BB0
:103B50009F0BBC016E5F7F4F9A01285F3F4F62173A
:103B600073073CF408964E5F5F4F481759070CF4F3
:103B700069C3EEE0CE0ED11C025F1F4F0435110564
:103B800009F0A3CF00E010E0602F812F0E94182DD4
:103B900099EF980F943030F441E0480F602F812F57
:103BA0000E94172F1F5F1C3179F70F5F003159F703
:103BB00080918807882309F4B3C010E00DE080915C
:103BC0008807181708F075C0A12EB12C7501EE0CEE
:103BD000FF1CF701EA0DFB1DE45BF84F828188238F
:103BE00009F463C081508283803189F038F48130D8
:103BF00081F0883009F059C04FE053C0883129F076
:103C0000803209F052C04CE04CC04DE04AC04EE05A
:103C100048C0A091C906B0E0AA0FBB1FA251B94F7E
:103C200086EF96E020E030E04F01BF016F5F7F4FED
:103C3000FC01408144FF19C0F4014081FAE04F9F2C
:103C4000A0011124FC01C280D3804C155D0569F4EC
:103C5000FB014081FAE04F9FA0011124FC01C480C8
:103C6000D5804C155D0509F4CFC20E96225F3F4FFB
:103C700024353105E9F6F701EA0DFB1DE45BF84F49
:103C800080812E85821306C081813F85831302C007
:103C90000E947D31C5018E0D9F1DFC01E45BF84F34
:103CA00041E0618180810E94172F1F5F88CF8823A8
:103CB000B9F180914E07813099F580918807815044
:103CC00080938807ECE4F7E090E0981780F7238171
:103CD000348145812193319341939F5FF6CF909139
:103CE0008F07909520918E079223D1F08B3048F466
:103CF000893050F4873051F0883059F41092B70170
:103D00000FC08D3069F005C082E008C08091DB01F2
:103D100005C010928F0710928E0785E08093B7013F
:103D20008091B101811118C09091B001992349F09F
:103D30009091C706911105C09091B701953009F493
:103D400080E293E894BD809587BD81EF80938000E9
:103D50001092880010928A0064960FB6F894DEBF25
:103D60000FBECDBFDF91CF911F910F91FF90EF90CC
:103D7000DF90CF90BF90AF909F908F907F906F908B
:103D80005F904F903F902F900C94A52EA601B70105
:103D9000852D0E94BD2C811127C0992009F4A7C24E
:103DA00064E081E00C94101666E085E00C94101637
:103DB000882009F4ABC2AA2021F06FEF8CEF0C949D
:103DC000D61674E0B71611F40C94D41666E085E0AC
:103DD0000C94D616552081F0A601B701872D0E94BC
:103DE000BD2C882309F460C28BE08093DA0182EC59
:103DF00093E00E94EF2223C2882009F484C2692D37
:103E0000842D0E94182DA82E8B2D0E9454318823BA
:103E100049F0A601B701615071098A2D0E94972CC3
:103E20008111CBCFB70161507109A6018A2D0E9483
:103E3000BD2C882309F40CC9C0CF002391F187E081
:103E40008093DA01D8C8A70155274F5F5F4F642DD3
:103E500070E02EC06C2DB1C8133069F48091E0057C
:103E6000BAE04B9E800D11248093D3016BEF8AEF53
:103E70000E942F25F6C8812F0E945431811103C062
:103E80001092DA01B8C8111103C08BE08093DA01F7
:103E90008091E005EAE04E9E800D11248093D301CD
:103EA000E0C8A60155274F5F5F4F642D70E0812F5A
:103EB0000E94972C882309F4D4C8E2CF0E9476365A
:103EC0000E9476362AE030E040E050E00E949A36C8
:103ED000DC01CB014496A11DB11DF201808340E0BD
:103EE0006C898B890E94172F05C91C891150612F7D
:103EF0008B890E94182D882309F429C124C96C8953
:103F000061508B89288B3A8B0E94182D89876C8988
:103F10001B891F5F812F0E94182DB82EEC88E39417
:103F20006E2D812F0E94182D982E6E2D1B891150F9
:103F3000812F0E94182D382E6C89812F0E94182DF8
:103F4000282E6E2D8B890E94182D89834091D301D4
:103F50008091E0059091E105841B910928893A89B7
:103F6000280F391F4091D4018091E2059091E3051B
:103F7000841B91098C0D9D1DAF81B8854C91442304
:103F8000F9F01F922F923F928980A92CCB2CE984C3
:103F90000F2DED81FE8120814C896B89C3010E9428
:103FA0005225AF81B8859C9191509C930F900F90B2
:103FB0000F908111D0C8ED81FE813197108162C0D0
:103FC00037FF1EC0181619065CF43195219531098A
:103FD00082179307CCF128173907C4F112E047C0C4
:103FE0000097B1F13195219531099195819591090C
:103FF000281739077CF18217930774F116E037C050
:1040000021153105C1F01816190644F482179307DB
:104010002CF12817390724F11EE029C0009711F16F
:1040200091958195910928173907F4F08217930724
:10403000ECF01AE01CC0392F331F3327331F132F26
:10404000110F110F110F13C013E011C011E00FC0B9
:1040500014E00DC017E00BC015E009C01DE007C05B
:104060001FE005C01CE003C019E001C01BE0EDEF3C
:10407000E10FEC3020F4F0E0E05DFE4F0081ED81D7
:10408000FE810083D2018C91882381F09981915027
:10409000923060F4F1100AC08150F20180838F30B9
:1040A00029F446E06C898B890E94172FF1E0FF9379
:1040B0002F923F928980A92CCB2CE9840F2D212FA0
:1040C0004C896B89C3010E9452250F900F900F906D
:1040D000811141C8D12E38E0DD2011F0DA9402C000
:1040E0005FE0D52E21E02F932F923F928980A92C5B
:1040F000CB2CE9840F2D2D2D4D856C85C3013A8B7A
:104100000E9452250F900F900F903A89811123C879
:104110001F3011F01F5F01C010E041E04F932F925C
:104120003F928980A92CCB2CE9840F2D212F4D851E
:104130006C85C3013A8B0E9452250F900F900F900F
:104140003A8981110C94AB18315031F609C0F20153
:10415000108246E0612F8B890E94172F0C94A318C0
:10416000AA85BB858C918B3011F00C94AB1889819A
:104170000E944931882311F40C94AB18F201319755
:1041800010820C94AB1881E0D7018C9322E0F401EB
:10419000208306C0EFEFD701EC93EEEFD401EC9350
:1041A00000E04CE252E06DC935E6C32E32E0D32E7A
:1041B0004CE952E080E00FC02BE7C22E22E0D22E65
:1041C00046EB52E080E010C096E5C92E92E0D92E71
:1041D0004BE852E082E390E0EDC984E7C82E82E02C
:1041E000D82E4EEA52E082E39BE7E4C98091DA01DF
:1041F0000E94DF248093DA01BECB0E94DF24D80125
:104200008C931DCC89E04ECCCC9011964C9111979B
:10421000EAE0CE9E60011124FC01D382C282FAE062
:104220004F9FA0011124FC0155834483A9014A50EA
:10423000594FFA01028713861682178216CD81E044
:104240000C9428180E947D3194CCAA2081F0A601FC
:10425000B401862D0E94BD2C882311F40C942818DB
:1042600066E085E00E942F251BC0A1104FC0672D7E
:10427000842D0E94182DA82E8B2D0E945431882346
:1042800009F444C0B7016F5F7F4FA6018A2D0E94D9
:10429000BD2C882311F40C9428188BE08093DA014C
:1042A0000E9437220C945416811087CD29C05520C6
:1042B00071F0A601B701892D0E94BD2C882311F44D
:1042C0000C94281866E085E00E942F250CC0A601FA
:1042D000B701892D0E94BD2C882311F40C94281855
:1042E0008BE08093DA010E9437220C941917332057
:1042F00069F01092DA010AC03110FBCF0C941F183C
:10430000A110F7CF03C0A110F4CF79CD80E00C94B9
:10431000281864960FB6F894DEBF0FBECDBFDF91AC
:10432000CF911F910F91FF90EF90DF90CF90BF90B2
:10433000AF909F908F907F906F905F904F903F9045
:104340002F9008958091B50108950895089580E013
:1043500090E00895FC012285261714F0421714F40A
:10436000FC0162870895BF92CF92DF92EF92FF9295
:104370000F931F93CF93DF93FC0166834783842FB2
:10438000880F880F840F30E18302C0011124962F1B
:10439000990F990F960F9F70892B818367FF02C039
:1043A0008CE003C0662311F084E0848747FF02C0DD
:1043B000148604C0442311F088E08487222309F482
:1043C0004CC08185811149C0EF018485811135C0C0
:1043D0001D868A819B812AE030E0B9010E9409375D
:1043E000162F8C819D81B9010E94093700E0FF24BE
:1043F000FA94F60ECC24CA94C10EBB24B394B10E29
:10440000DF2CD01A6D2D812F0E94182D833099F446
:104410006D2D8C2D0E94182DE82E6D2D8B2D0E9458
:10442000182D982F0F5F2DEF2E0D223020F08DEFDD
:10443000890F823060F4098710C00E94763626E02A
:1044400030E040E050E00E949A36698706C0911142
:10445000D7CF91509330A0F6EECFDF91CF911F913F
:104460000F91FF90EF90DF90CF90BF900895E1E71C
:10447000F0E080818D7F808310929100469847986C
:104480001092BD010895CF92DF92EF92FF920F93A9
:104490001F93CF93DF930E94462C811520E892074B
:1044A00051F4DF91CF911F910F91FF90EF90DF902A
:1044B000CF900C94372221E02093BD01813020E879
:1044C000920751F48091BB019091BC019093BF0180
:1044D0008093BE010E94462C97FD05C02091BA0131
:1044E000222309F440C02091B90121113CC021E0F0
:1044F0002093C101EC01DF77209769F481E080937C
:10450000C20146983FE9C32E3FE0D32EE12CF12CA7
:10451000CAEFD0E014C08E0120E030E060E472E425
:104520008FE090E0A90198010E949A3669017A0112
:1045300081E0C81AD108E108F1081092C201E091A7
:104540004A07F0914B070995811103C081E08093E0
:10455000C2018091C101882309F43FC08091C2014A
:1045600081113BC003C01092C101C4CF469935C030
:10457000479A0E94462C009771F09C01DE010E9430
:10458000EE36DC01CB0129E0B595A7959795879587
:104590002A95D1F703C08FEF9FEFDC0110929000B6
:1045A0002AE020939100D0929900C09298008093C5
:1045B000C3019093C401A093C501B093C60180913B
:1045C0007100826080937100DF91CF911F910F91F4
:1045D000FF90EF90DF90CF9008954798CACF9C014D
:1045E000E1E7F0E090819D7F908381E08093C001BE
:1045F0003093BF012093BE013093BC012093BB01D7
:104600000C9443224F925F927F928F929F92AF922F
:10461000BF92CF92DF92EF92FF920F931F93CF93AF
:10462000DF9300D000D0CDB7DEB7DC0141155105D6
:1046300009F4E8C0FA01D490319694914E5F5F4F2F
:104640004D2C512C2223E9F0E92FE695E695E695CD
:10465000EE2EF12CE1E0F0E0892F877011F4E0E01C
:10466000F0E0EE0DFF1D4E9E70014F9EF00C5E9E21
:10467000F00C11242E9DF0012F9DF00D11244E0FF2
:104680005F1F7D01E40CF51C1E141F040CF0BAC062
:10469000A038B1050CF0B6C09B01290F311D1216D0
:1046A00013060CF0AFC0603471050CF0ABC04115BF
:1046B000510509F4A7C09B0177FF04C022273327C7
:1046C000261B370B822F87709B0177FF02C0295F63
:1046D0003F4FE3E035952795EA95E1F7F22F77FF15
:1046E00007C0882329F0FFEFF20F28E0281B822F54
:1046F000B7FF05C0662777276A1B7B0B02C060E007
:1047000070E000E8E016F10424F020E8E22EEA1A56
:1047100001C0ED2CE61A2F2F0F2E000C330BFF3F9C
:104720001CF4C22EC09401C0C12C11E0E92FE77027
:1047300009F410E0969596959695910F290F311DE5
:104740002930310514F098E09F1BFC2CFF0E9D01D1
:104750000F2D10E80103200D311D1124260F371FE6
:10476000CD9C600D711D1124640F751F41E050E058
:10477000082E02C0440F551F0A94E2F7EFEFE49FA2
:10478000D001E59FB00D1124A095B095BC83AB83FB
:104790007C809F0FF916B1F1F901E052FE4F6F01D5
:1047A000A12CB12CAE1440F5FB01EA0DFB1DE491E8
:1047B000E49F4001E59F900C11249A828982F7FCC6
:1047C00007C0F6011081E12FEA238E2AF6018082CC
:1047D000882359F0F6E0FF1544F0F601E058FF4F4A
:1047E000908097208A80982890820FEFA01AB00AB4
:1047F0001FEFC11AD10AD6CFF394640D751D20584E
:104800003F4FC8CF0F900F900F900F90DF91CF9137
:104810001F910F91FF90EF90DF90CF90BF90AF90DE
:104820009F908F907F905F904F900895BC0180E0A3
:1048300090E00C94DD2A8FB12CB193B130E020953B
:10484000309520743327A90123E0559547952A9583
:10485000E1F7292F30E020953095207133273595E9
:10486000279535952795242B8095807F822B089559
:1048700083B7817F83BF83B7816083BF889583B708
:104880008E7F83BF089560387105D0F440345105A0
:10489000B8F4E7E7F7E280E1849FD001A078112423
:1048A000A60F4770E40FF11D8491A052BE4F222342
:1048B00019F06C91862B03C080956C9186238C93A4
:1048C00008951F93CF93DF93DC0120E030E040E0B8
:1048D00050E011E0C1E0D0E02617370791F11496BF
:1048E0008C911497811115C014961C9314971296ED
:1048F0008D919C911397ED91FC911197E80FF91F01
:10490000E4911596EC931597019613969C938E93CC
:10491000129714969C91149715968C91159789234C
:1049200049F0FE01022E02C0EE0FFF1F0A94E2F7CB
:104930004E2B5F2B990F14969C9314972F5F3F4F2C
:10494000CBCFCA01DF91CF911F910895EF92FF92D3
:104950000F931F93CF93DF9300D0CDB7DEB78C01B9
:104960007B01FB0160819A838983CE0101960E94BD
:104970005D31F70161810F5F1F4F1A830983CE01FB
:1049800001960E945D31C7010F900F90DF91CF918A
:104990001F910F91FF90EF900895CF93DF9300D078
:1049A000CDB7DEB79A838983CE0101960E945D312F
:1049B0000F900F90DF91CF9108950C948436482F7B
:1049C000082E000C550B660B770BFA013A96EA316C
:1049D000F10588F5E958FF4F0C94313786EF0895BB
:1049E00087EF089588EF08958BEF08958AEF089573
:1049F0008FEF08958CEF08958DEF08958EEF089551
:104A000082E0089583E0089584E0089581E00895A8
:104A100086E0089585E0089588E0089589E0089586
:104A20008AE0089587E008958EE008958FE0089564
:104A300080E0089589EF08958091D40190E020915D
:104A4000E2053091E305821B930B6AE070E00E945F
:104A50001D379C0181E0232B09F080E0089590919F
:104A6000DA01981714F0691714F48093DA010895A5
:104A70001092D5011092E40582E08093D601109245
:104A8000E5058091D401873160F08091E205909135
:104A9000E30589399F4F2CF01092D6018EEF809359
:104AA000E50508953F924F925F926F927F928F92A9
:104AB0009F92AF92BF92CF92DF92EF92FF920F93AD
:104AC0001F93CF93DF93CDB7DEB7F42E902E3C88A3
:104AD0005D88BE8830E02031310508F02EC1082DF8
:104AE000DC2C7E2D462E3C01F901EF56FF4F0C9435
:104AF0003137EE2029F07350723010F010E001C011
:104B000011E046EF60E0C3010E94AE2F93E09912DE
:104B100014C1112309F411C181110FC146E065E0F0
:104B2000C3010E94AA212B2D4EEF74C040E06AE021
:104B30000E94AE2F11E01827EF2CF12CEFEFEE1AA8
:104B4000FE0A512CA701B201882D0E94EC2CC82E20
:104B5000B2016F5F7F4FA7018A2D0E94EC2CE82ED7
:104B60008D2D0E944031F82E8A2D0E944931F4E0AB
:104B7000DF1205C0112319F04AE067E00DC094E090
:104B8000991211C0FF20C9F0882309F4CDC0112368
:104B900009F4CEC044E061E0C3010E94AA212B2D9C
:104BA00040E062E097C0E3E09E1207C0FF2029F0DA
:104BB000112319F046E065E0EFCFC11091C08823C2
:104BC00021F0FF2009F4B9C006C0FF2009F4B5C0E8
:104BD000EE2009F4B2C0112309F4AFC0DBCF4AE0E4
:104BE00060E00E94AE2F11E018274F2D50E04F5F7C
:104BF0005F4F642D70E0882D0E94EC2C033061F42F
:104C0000112309F49AC04BEF6AEFC3010E94AA2155
:104C10002B2D42E060E05EC0882309F48EC0112392
:104C200009F48BC08BE0F30182872B2D42E060E01A
:104C3000C3010E94B3210750093008F073C08FE10F
:104C4000F30183876FC040E066EF0E94AE2F11E052
:104C50001827EF2CF12CFFEFEF1AFF0AC42CD12CF0
:104C6000A701B601882D0E94EC2CA82EB601615038
:104C70007109A701832D0E94EC2CE82E852D0E943E
:104C80004031F82E832D0E94493194E0591205C01D
:104C9000112319F049EF66EF17C0E4E09E120BC034
:104CA000FF20E1F0882309F44AC0112309F443C02E
:104CB0004FEF6CEF09C0F3E09F1210C0FF2071F0BE
:104CC000112361F046E065E0C3010E94AA212B2D6B
:104CD00040E06EEFC3010E94B32124C0AA20A1F0DE
:104CE0008BE0F30182872B2D42E060E0C3010E943C
:104CF000B32107500930B0F48FE1F301838789E6CF
:104D000097E20E94EF220EC0882329F0FF20A9F02D
:104D1000112399F0CDCFFF2081F0EE2071F0112307
:104D200061F0B8CF81E00EC0CC2009F451CFD8CFCC
:104D3000CC2019F0D5CFA110D3CF80E003C0AA209A
:104D400061F3CECFDF91CF911F910F91FF90EF9044
:104D5000DF90CF90BF90AF909F908F907F906F909B
:104D60005F904F903F9008950F93CF93C82F00E02E
:104D700021E048E756E264E170E083E190E00E94C0
:104D80004C2DC13019F046E456E202C04EE556E221
:104D900000E021E063E270E087E490E00E944C2DA7
:104DA000CF910F910C94A52E4091CE015091CF013F
:104DB0002091CC013091CD0142175307B4F490916A
:104DC000E8009570E1F39091E80092FD19C080939E
:104DD000F1008091CE019091CF0101968F739927B8
:104DE000892B19F48EEF8093E8008091CE01909189
:104DF000CF0101969093CF018093CE0181E0089579
:104E000080E00895DF92EF92FF920F931F93CF936C
:104E1000DF93D82E8A017B01E40EF51EEB01CE153F
:104E2000DF0571F0D7FE03C0FE01849101C08881C7
:104E30000E94D42621968111F2CF8FEF9FEF01C0FF
:104E4000C801DF91CF911F910F91FF90EF90DF90FC
:104E50000895615030F02091F100FC01208301960B
:104E6000F8CF289884E68093D1010895CF92DF92FD
:104E7000EF92FF920F931F93CF93DF936C017A0110
:104E80008B01C0E0D0E0CE15DF0589F0D8016D912F
:104E90008D01D601ED91FC910190F081E02DC601CC
:104EA0000995892B11F47E0102C02196ECCFC70130
:104EB000DF91CF911F910F91FF90EF90DF90CF90F6
:104EC0000895CF93DF931F92CDB7DEB76983DC01DE
:104ED000ED91FC910280F381E02D41E050E0BE01B4
:104EE0006F5F7F4F09950F90DF91CF91089583E019
:104EF0008093E9008091F200882319F08AE380937F
:104F0000E8000895FC018485958597FD0BC09FB747
:104F1000F89482E08093E9008091F2009FBF90E0D6
:104F2000019608959FB7F89482E08093E9008091FC
:104F3000F2009FBF90E008950E9437370F931F93B0
:104F4000CF93DF931F92CDB7DEB782E0898342E42F
:104F500050E06FE777E280E80E9402270E94D63097
:104F6000DC0112960D911C9113970115110569F042
:104F7000D801ED91FC910280F381E02DBE016F5FBD
:104F80007F4FC801099597FF07C089810F90DF9176
:104F9000CF911F910F910895F80100851185E5CFFC
:104FA0000E94C53090E00895CF93DF931F92CDB754
:104FB000DEB7FC018485958597FD05C02FEF3FEF97
:104FC000358724870BC0CE0101960E949B30019744
:104FD00019F4898190E002C08FEF9FEF0F90DF916D
:104FE000CF9108950F931F93CF93DF931F92CDB767
:104FF000DEB78C01FC018485958597FF0EC0CE013C
:1050000001960E949B30019719F4298130E002C07B
:105010002FEF3FEFF80135872487F80184859585C8
:105020000F90DF91CF911F910F9108951F920F92D2
:105030000FB60F9211248F939F938091E10090916E
:10504000E100937F9093E10083FF0FC01092E9008D
:1050500091E09093EB001092EC0092E39093ED00BE
:105060001092D20198E09093F00082FF20C093E06C
:105070009093E9009091F200992319F09AE39093AC
:10508000E8009091D001992339F09091D00191508E
:105090009093D001992389F19091D101992339F00E
:1050A0009091D10191509093D101992341F184FFC6
:1050B00010C08091E2008E7E81608093E20080913A
:1050C000E1008F7E8093E1008091B3018E7E80614C
:1050D00011C080FF16C08091E2008E7E80618093B7
:1050E000E2008091E1008E7E8093E1008091B30127
:1050F0008E7E81608093B30104C05D9ACDCF289AE3
:10510000D6CF9F918F910F900FBE0F901F90189543
:105110001F920F920FB60F921124CF92DF92EF924F
:10512000FF920F931F932F933F934F935F936F9330
:105130007F938F939F93AF93BF93EF93FF93CF93FF
:10514000DF93CDB7DEB76C97DEBFCDBF1092E9001D
:105150008091E80083FFEDC168E0CE0145960E9492
:10516000292782EF8093E8008D8987FF05C0909101
:10517000E80090FFFCCF03C09EEF9093E800982FCB
:10518000907609F0C6C09E892F89188D91110CC0A8
:10519000803829F48091B4018093F10002C010920C
:1051A000F1001092F10048C1422F50E0512B913094
:1051B00051F4811141C14130510509F03DC1809147
:1051C000B4018D7F0BC0933061F4811135C1413042
:1051D000510509F031C18091B40182608093B4011E
:1051E0002BC1953041F48091E80080FFFCCF20680E
:1051F0002093E30021C1963009F05FC0EB8CFC8C5A
:105200001092E9001092CF011092CE01123091F568
:105210001092CD011092CC010E949E2799E0BE0110
:105220006F5F7F4FDB01E92F1D92EA95E9F79983C4
:105230001A8391E09E8390EA98879AEF998720914C
:10524000CE013091CF01275F3F4F3C832B838D836D
:105250001092E9001092CF011092CE01F092CD0190
:10526000E092CC0149E050E080E00E9402270E94D9
:105270009E27E2C0F092CD01E092CC010E94D63090
:10528000DC011296ED90FC901397E114F10409F4FF
:10529000C0C0D701ED91FC910480F581E02DBE01E5
:1052A0006B5E7F4FC7010995009719F00CF0C4C0E1
:1052B000C7C0F701E084F184E8CF973009F4C0C09B
:1052C000983021F481E08093F100B6C0993009F064
:1052D000B3C0837009F0B4C0E1E9F1E081E021E0FE
:1052E00036E39081992361F08093E9002093EB00ED
:1052F00091919093EC003093ED008F5F873089F7A8
:105300008EE78093EA001092EA008F898093D201A1
:1053100093C08B8D9C8D1092E9001092CF0110925A
:10532000CE019093CD018093CC01898D811156C01F
:105330008E899D89913A59F4813209F081C047E004
:1053400050E064E071E080E00E94022775C0913275
:1053500009F076C0833289F4888D90E0982F8827F1
:105360002F89822BA0E0B0E080930001909301018F
:10537000A0930201B09303015FC0803269F4809171
:10538000E80082FFFCCF67E084E091E00E942927DB
:105390008BEF8093E80006C0823209F04DC08F8900
:1053A00080930B018091B201882319F0EEEFFAE0AF
:1053B00002C0E0E0F8E08091040190910501A09125
:1053C0000601B0910701803B9440A105B10509F0A9
:1053D0007BC080910B0180FF93C076C00E94D630C5
:1053E000DC0112960D911C9113970115110541F1E5
:1053F000D801ED91FC910190F081E02DBE016B5E32
:105400007F4FC8010995811117C0F80100851185EA
:10541000ECCF113009F44EC0133091F48F898823FA
:1054200009F445C0823081F440E860E183EE97E200
:105430000E949535882321F08EEF8093E80079C093
:1054400081E28093EB0075C0813029F440E86BE085
:1054500087ED97E2EDCF833099F70E94D630DC01DB
:105460001296ED90FC9013978E010F5F1F4F68010D
:10547000E114F10479F0D701ED91FC910680F781F8
:10548000E02DB801C7010995080F111DF701E0844F
:10549000F184EECFD8011C92F60101900020E9F7CB
:1054A0003197BF016C197D0940E0C601C1CF61ECA5
:1054B00077E202C065EC77E26115710509F2FB0144
:1054C000449150E080E840CF0FB6F894A8958091C1
:1054D0006000886180936000109260000FBEA89504
:1054E000EE3F2AE0F20739F08091FE0A9091FF0A20
:1054F00091838083A1CF1092FF0A1092FE0A9CCF65
:10550000EE3F8AE0F80731F0808191819093FF0AA5
:105510008093FE0A87E797E7918380839BE088E189
:105520000FB6F894A895809360000FBE909360002A
:1055300083CF6C960FB6F894DEBF0FBECDBFDF9160
:10554000CF91FF91EF91BF91AF919F918F917F91FB
:105550006F915F914F913F912F911F910F91FF900C
:10556000EF90DF90CF900F900FBE0F901F90189587
:105570003FB7F8948091C8019091C901A091CA01E8
:10558000B091CB0126B5A89B05C02F3F19F001961D
:10559000A11DB11D3FBFBA2FA92F982F8827820FB9
:1055A000911DA11DB11DBC01CD0142E0660F771F09
:1055B000881F991F4A95D1F708958F929F92AF92B5
:1055C000BF92CF92DF92EF92FF926B017C010E941B
:1055D000B82A4B015C01C114D104E104F104F1F0DB
:1055E0000E94B82ADC01CB0188199909AA09BB09D4
:1055F000883E9340A105B10570F321E0C21AD1089D
:10560000E108F10888EE880E83E0981EA11CB11C09
:10561000C114D104E104F10419F7DDCFFF90EF903C
:10562000DF90CF90BF90AF909F908F9008958F9212
:105630009F92AF92BF92CF92DF92EF92FF920F9321
:105640001F93CF93DF935C016B017A0180910B0173
:10565000882309F45BC08091D201882309F456C0E5
:105660008091B30180FF05C08091E000826080934B
:10567000E000E70110E00AEF83E0882E9AE3992E1C
:105680002097D9F10E94C53081110AC0015009F458
:105690003DC061E070E080E090E00E94DD2AF0CF44
:1056A000282F30E0C217D3070CF48C2F4FB7F89493
:1056B0008092E9009091E80095FF1DC0282F30E00E
:1056C000C21BD30BF601982F915020F0819180934B
:1056D000F100FACFC20ED31E112319F09092E80008
:1056E00009C08091E80085FD06C09092E80011E0B5
:1056F000209709F010E04FBFC3CF1111C3CF5D98C1
:1057000084E68093D0011E141F0444F081E090E0F1
:10571000F5019383828380E090E001C0C701DF91AF
:10572000CF911F910F91FF90EF90DF90CF90BF909E
:10573000AF909F908F9008951F920F920FB60F9287
:1057400011242F933F938F939F93AF93BF93809197
:10575000DC019091DD01A091DE01B091DF0130917B
:10576000C70123E0230F2D3720F40196A11DB11DA1
:1057700005C026E8230F0296A11DB11D2093C70185
:105780008093DC019093DD01A093DE01B093DF01F3
:105790008091C8019091C901A091CA01B091CB013B
:1057A0000196A11DB11D8093C8019093C901A093DA
:1057B000CA01B093CB01BF91AF919F918F913F915F
:1057C0002F910F900FBE0F901F9018951F920F9260
:1057D0000FB60F9211242F933F934F935F936F93C4
:1057E0007F938F939F93AF93BF93EF93FF9380919A
:1057F000C3019091C401A091C501B091C601892B4C
:105800008A2B8B2B81F18091C20181110BC098B141
:1058100080E4892788B98091C101882319F088B173
:10582000805888B98091C3019091C401A091C501AD
:10583000B091C601181619061A061B06B4F4809119
:10584000C3019091C401A091C501B091C601019717
:10585000A109B1098093C3019093C401A093C5012C
:10586000B093C60102C00E944322FF91EF91BF9105
:10587000AF919F918F917F916F915F914F913F91E8
:105880002F910F900FBE0F901F9018958091C0011F
:10589000E091BE01F091BF01882349F0CF0102964B
:1058A0009093BF018093BE01859194910895CF019B
:1058B00002969093BF018093BE01808191810895EB
:1058C0009C01240F311D1216130684F580389105B2
:1058D0006CF5FC0197FF02C0E0E0F0E021383105F3
:1058E00014F020E830E02E1BAB014770552781E013
:1058F00090E001C0880F4A95EAF7809577FF02C0D3
:10590000695F7F4F93E0759567959A95E1F7769576
:10591000762F662777956795E60FF71FE052FE4FC3
:10592000215020F0908198239193FACF08958150CF
:10593000833008F18AE0869F9001879F300D112403
:10594000849FB001859F700D1124E6EFF6E0808101
:1059500084FF0AC0828193818217930729F484818E
:1059600095818617970739F03E9687E0EA34F80765
:1059700071F780E0089581E00895873028F484303D
:1059800038F5882329F126C0803120F58AE0869FEA
:105990009001879F300D1124849FB001859F700D69
:1059A0001124E6EFF6E0808184FF0DC082858B3004
:1059B00051F4828193818217930729F48481958120
:1059C0008617970739F03E9687E0EA34F80759F7CB
:1059D00081E0089580E00895853031F118F488233E
:1059E00019F124C08750893008F58AE0869F90011C
:1059F000879F300D1124849FB001859F700D112465
:105A0000E6EFF6E0808184FF0AC0828193818217ED
:105A1000930729F4848195818617970739F03E967C
:105A200087E0EA34F80771F781E0089580E008958F
:105A30008C3100F56F3F01F1603100F570E0982F77
:105A4000969520E180FD0BC0929FC00111248052E9
:105A50009A4FFC01E60FF71F8681829509C0929F3D
:105A6000C001112480529A4FFC01E60FF71F868176
:105A70008F70089581E0089580E0089582E0089590
:105A8000CF93DF93C9E8D7E08D818E830E941B24DA
:105A90008D83DF91CF9108952F923F924F925F9225
:105AA0006F927F928F929F92AF92BF92CF92DF922E
:105AB000EF92FF920F931F93CF93DF93CDB7DEB793
:105AC00061970FB6F894DEBF0FBECDBF4C017B01CE
:105AD0002A875A8349831C821B821D821E8268E0AA
