:100000000C9431130C9459130C9459130C945913E8
:100010000C9459130C9459130C9459130C945913B0
:100020000C9459130C9459130C9493270C94052891
:100030000C9459130C9459130C9459130C94591390
:100040000C9459130C9459130C9459130C94591380
:100050000C9459130C9459130C9459130C94192B98
:100060000C9459130C9459130C9459130C94591360
:100070000C9459130C9459130C9459130C94591350
:100080000C94632B0C9459130C9459130C9459131E
:100090000C9459130C9459130C9459130C94591330
:1000A0000C9459130C9459130C945913C014FA144A
:1000B000FA14F114F114EB14EB14E514E514DE1446
:1000C000DE14D614D614DA14DA14D614D614DA14CC
:1000D000DA149F32BA322E33B834B834B834B0346C
:1000E000B834B834B634B834BB34BD34C134E32288
:1000F000B722B922BB22BD22BF22C122C322C52200
:10010000C722E422C922CB22CD22CF22D122D32260
:10011000D522D722D922DB22E422E422DD22DF22EB
:10012000E122E324E324E324FF24FF24FF245C25CD
:100130005C255C255C255C258F258F258F25E32498
:10014000E324090FE8D2D9ED76BB4EC7B7DD6EB711
:10015000DBED7636090FE8D3E974FCDBED76BBDD29
:100160006E6703090F109BCE6EB7DB753A36090F29
:10017000B8B2E9145FD7ABCF85A2ED6CDB590109AA
:100180000FBC92EE55A9A4D2AAAD53E4E9E8B6B3E8
:1001900003090FF8B6CAF55FB9B5EBD436EEED6CCE
:1001A000DB5901090F38B39FEAB397770A4BDBD9C4
:1001B000B6B302090FBC924EA5FAECE554CEC9D9EC
:1001C000D3F9EC367A090FB8B29F6AA2745FBB8E7E
:1001D000773B7B3A5A090F38972ACA6B998E39BDFB
:1001E0001D5B090F5CA73EF54D96DBF5B950B79D39
:1001F0001D0A081800600080002000400000006018
:10020000009000200000000000000080100020800E
:100210000000800000200000000040090FA8D69DCB
:100220002BA2AC932A75BB08B3DBB106090F887605
:100230009D7A995DCBDA756AD46DD7B101090FB893
:10024000969F6AA274D7ABCFCDBC9D753B2B15078B
:10025000A54E472555552A1595F3D99C2293AA2AD0
:10026000958A4AEA745C95032907522E95AA4A9505
:10027000E272AA9295755452E5B3924AAAAA542AF8
:100280006EE552A9544E71399F4E392EA9AA52A932
:10029000A8A4AA64656B4A550A2907D369A9A29341
:1002A000AA9295ADA9F64A4DEF54252BEBB8944B85
:1002B000A5AA52A5B89CAA64651D552A25552A2AC7
:1002C000E9F24949A94A010E07A54E47E57C36A740
:1002D000C8A44EC75571011307522E95AA4A95E23C
:1002E000522E954AE51497D4E9A8A44AA552394557
:1002F00056390F07A5CB67B3924AAAAA542A2AE90E
:10030000F249C9553904050E11110E00121F1012C1
:100310001915120A11150A06051F04171515090EDD
:10032000151508011905030A15150A1215090619EC
:1003300007EA5455AA2AD59129974AA572159972A8
:10034000A9542AA7B8A4AA64656B2AA9AA52A9B875
:100350002A2E20064B000000190075054B000000F6
:10036000190027054B000000190097044B000000FE
:10037000190017044B0000001900B8074B000000DB
:100380001900E0064B000000190010034B000000AC
:100390001900BA024B000000190093024B00000044
:1003A00019004B024B00000019000B024B0000002B
:1003B0001900DC034B000000190070034B00000023
:1003C000190088014B00000019005D014B0000007E
:1003D00019004A014B000000190026014B000000E3
:1003E000190006014B0000001900EE014B0000004F
:1003F0001900B8014B0000001900C4004B000000B8
:100400001900AF004B0000001900A5004B000000D0
:10041000190093004B000000190083004B000000FE
:100420001900F7004B0000001900DC004B00000031
:10043000190062004B000000190057004B0000003B
:10044000190052004B000000190049004B00000049
:10045000190041004B00000019007B004B00000018
:1004600019006E004B000000190031004B00000025
:1004700019002C004B000000190029004B0000005F
:10048000190025004B000000190021004B0000005E
:1004900019003E004B000000190037004B0000001F
:1004A000190000804B024B0000000F004B024B0074
:1004B00000000F004B024B0000000F0026014B0014
:1004C0000080E0060F0017040F0027050F000080D2
:1004D0008801640000001400DC03640000001400C4
:1004E0004B026400000028001704640000001400A0
:1004F00027056400000014002006640000002800A6
:1005000000800C0E0305061706040E030000000110
:100510000002000B310B2841072105C103612104B2
:10052000C10341012101C1032A6141270141012782
:1005300004C104614104C103410127612941012231
:10054000A123014101276105C1034106C101410801
:100550002961410122A32101286101C107614104F0
:10056000C10B6229410122A123096202C106410691
:10057000C109612961410122A3210225026108C14B
:10058000614106C1022102C121026229410122A169
:1005900023046122026215612101C101613C001A3C
:1005A00004030B01110102040405001600050116E5
:1005B000010023042204220422042702240224022C
:1005C000240224610222612102226121022161228E
:1005D000022161220262032161826101216103C162
:1005E0006121016182612103620224C161246224CC
:1005F00061C12402622302226121022161220221BF
:10060000612202236222042161C103612103C161CD
:100610002104226223022462246224022362022231
:1006200061210222612102216122022161220262F2
:1006300003216104216103C161210461210362027C
:1006400024622462246224026223022261210221A4
:1006500061220221612202236222042161046121BC
:1006600004612104226223022462246224022362A0
:1006700004C1046201C1026204C104623A6100174C
:100680000F040C020E02020919090400001B0000ED
:10069000011B01001F1926612461036124612701E8
:1006A000810461046141614161046105810161016D
:1006B00025066103C102260162012502216721028C
:1006C0002601620122C1012102216145612102222C
:1006D000C1230162012502216721022601620987E7
:1006E0000A620561064106610662456104C143C1B3
:1006F00004614662056104450461066225610347A1
:1007000003612662056101C149C10161066245615B
:10071000014B01614661C105614D6106C100070AD7
:1007200003070117060A0E03000000010002001F64
:100730001A2A462144214461C115610461220941FC
:1007400003C104C183C10261256221622802210321
:100750002102610421620162210142240961042114
:1007600062C1622101410124012361246104270146
:1007700041C12305610461166104610F2161256196
:1007800044612261286123016101C20261046102A6
:1007900061086104610142052261026122C12104F4
:1007A0006102230142260161026124046103C10246
:1007B0004207613242234461000E0E031700040712
:1007C00016080200001B000004C104C105C108C1D5
:1007D0000361266123012561230125620661096108
:1007E00009610161066102810461096101610661BB
:1007F0000281018104610961016106618103810255
:100800006101886101618661068102610961086197
:100810008105816109610126016102810381026113
:1008200005C101C10161220123026102810181022E
:10083000610481234301C103C10161048104610397
:1008400081234322A123026102810181026104818B
:10085000234322A12101210161028103810261035D
:100860008122C24202C101C103618105816104810B
:100870004626016104C1046101C102463C000D0E1F
:100880000405080708140816080600001B000001EC
:100890001B0100021B02020000000000000110000A
:1008A0000000000000000000000000022000000026
:1008B000000000006000000060011006000000065B
:1008C00000212121212121322312121212121200A1
:1008D00006000006003113006000006000321212B2
:1008E00012121212212121212121233000600060E7
:1008F00000011000060006000321212121212132E0
:100900002312121212121200006000600031130054
:1009100006000600003212121212121221212121A9
:100920002121233006000006000110006000006055
:10093000032121212121213223121212121212002D
:100940006000000060311306000000060032121241
:100950001212121221212121212123300000000036
:100960000000000000000000031212121212121206
:1009700012121212121212010E02080E130E0200AF
:10098000001B0000018701C226C20187016107C167
:10099000236423C1076206C12263026322C1066287
:1009A000062262066222066205C12162086221C136
:1009B0000562052261C108C161220562052162C18B
:1009C00008C162210562052161C208C26121056278
:1009D000052162C108C162210562052261C108C109
:1009E00061220562062162C106C1622106620621FA
:1009F000A162C202C262A121066207A12163C26391
:100A000021A107620823642308620A260A6129617A
:100A10000861286100010F0319020706150F070579
:100A20000005010002030205020003010400250184
:100A3000360421012101870C21012203210121C15A
:100A4000032161210B21022501266125C1012161BC
:100A50002505C18324612861210129032102216127
:100A6000230124612101220D216123012201216141
:100A700021C101216127612161C10121612301227D
:100A800001216124610761256123C10121012161E7
:100A9000220121610924612601216122C12161070E
:100AA0002105610861032161236124612141214104
:100AB00021412141214121412161214121416123E4
:100AC00061246126022561214121416103610461A4
:100AD000270224610461286128C10127620861019D
:100AE000C101260861000207021801090203000083
:100AF00003010302001C23012409860A820F4561B9
:100B0000036121022561268303210162240221C1A0
:100B1000836185210324612161062403236121036C
:100B200021C1026101610621846184612103218167
:100B3000026101610221032161C121C161C1216101
:100B4000C16121032104C1216122032C04216123FD
:100B5000016104C12105C10421056104610422036E
:100B6000236103210561046102C1210121066103A2
:100B700021C102612501610221022103C102610339
:100B80002202610661C12103210161266101210167
:100B900021C16106612102C1012101612102C1015E
:100BA0002161042161053C000D0E030504150704B5
:100BB0000F050E000E010E020F020F03001F19C1D8
:100BC0001AC1216101618B0188610161236212C137
:100BD000016225610161860189610161276201C1AC
:100BE0000E6228A1610161870184610161A128A1D0
:100BF00021620AC1016221A128A122610161830150
:100C00008461016122A128A1236201C1066223A19E
:100C100028A12461016182018161016124A128A1CF
:100C20002562046225A128A12662026226A128A1CC
:100C3000276101C16127A1280861226108240015EC
:100C400001050A010C010E01080E110E021B001B0A
:100C50000100411B4105C412412AA12F611B6104FF
:100C60004101C102C107C106C1410161044127A17F
:100C700027A1244101611B61064102C104C105C1D4
:100C800002410361064123A126A1254103611B61A5
:100C9000074102C105C104C141046106422E41045D
:100CA000611B611B61C414614101612A4628420134
:100CB00061000E0B03020015000F02020600160071
:100CC00001012404230522C1210421C1210522C1DF
:100CD0002104230524038203220121058106220128
:100CE00021062406650122C121058104810122C15A
:100CF00021072201810124072201810B8101810248
:100D00006A0281068109260181082603230424C181
:100D1000210321C1A10424C12103230424C12101F1
:100D20008108268109260166028106810722016663
:100D3000072281062403640522C12106230322C160
:100D4000210621C121032406231F0A000A0E0318CD
:100D5000051207030A030D000D010D02001C8B1381
:100D6000C104C101416104C10C29476102C1614153
:100D7000610521412141214121450347610F420283
:100D8000C106416102C1028861014225610342241A
:100D90006108610142056105246108610142012881
:100DA0006101246101C104C10161014201210621E7
:100DB0006101246123032101610142012103C10278
:100DC00021610122C12161270161014201286101E4
:100DD000220121610861042102C103216104216112
:100DE0002E016122610127610F6101C16108613C2F
:100DF00000070104140104090A09180B0A00031B67
:100E00000300041B04000501051A051B0501061A51
:100E10000602300000000000000000000000000397
:100E2000300000000000000000000000000330005F
:100E3000213124444444444213120003000026306C
:100E40002060000006020302000000211030112083
:100E5000000002110361120000260030062060002D
:100E6000020603016200201110300011200211114E
:100E70001301010220000030000020626000030125
:100E80000062200000311111231211000301101221
:100E90002060003000000300000003000002231166
:100EA00011300021131112000300013203206030C1
:100EB000001003060100030002300321103011105E
:100EC000030001110301123003062030200003004B
:100ED0000062030260300300011100000300000003
:100EE00011100030111111111111111111111111E5
:100EF00011110D0E0305010D021605031A001A014A
:100F00001A02001F19612A6104C106C104610A6145
:100F10002461042361236101C106C10161034161B0
:100F2000076103610121022301210161C2014161C5
:100F30000761036101210123022101614201412A6C
:100F400042610121022301210161420C41C1610181
:100F500021012302210161418802C1024162012174
:100F6000C101230121016141C107246141620125C1
:100F700002210161420B610162012801614204C149
:100F8000066122610A61420146046102614821440E
:100F90000B6102611861023C0007050210030F0F8C
:100FA000041A001A011A021A03020000200000208D
:100FB00000002000000000020000200000200000CF
:100FC0002000600000020000251111200000211106
:100FD00010011102111000000000111300060000A2
:100FE0000602111111111113000311111111013217
:100FF0000000000000030113100060000132131113
:101000001111111306131011111301321444444429
:10101000411301131010000301321001001061137D
:1010200000033010111301321001001001331111AF
:1010300031161113013210010610013100000010A9
:1010400011130032100111100131011110100003B1
:1010500013321311001133310161101111111302F8
:10106000130002213311000100116000031213006C
:101070000200031151111511111113121311100057
:10108000030000000000000003021A0E031208050E
:1010900009020E0A10000F0110010E020F020D03CB
:1010A0000E030C040D040C05001F1F1F1F1F1761EA
:1010B000226118612261C1146127610D21610461FF
:1010C0002101C101C1012161012161216109236166
:1010D0002C612361082201C1022401C10361C10204
:1010E000226107246102C1012361016122610121A2
:1010F000610821C12161236101C101610161C12137
:1011000061C12161093261035C000907030802140F
:1011100003190C04170017011702170300034912E3
:101120004109410C42024103C20621610A420142C7
:10113000226128426108C142014123612B6122439F
:1011400021614522632187216321846183614122DA
:101150006101612102C10421610161210861412213
:101160006101612107216101612101C104C10161A6
:10117000412261C16124612461C161214106416153
:101180004129613061410622632202C104C103C1C9
:1011900001614186216201628E614101C1042161C8
:1011A00003610E614107610361022B016144046127
:1011B0000361012301C12202C10122614126416173
:1011C000C101C161022D000D0F03060508090D09BB
:1011D0000812001B001B011B021B031B041B051B29
:1011E000060007C104C10FC2306109220AC102C151
:1011F00002611261286102C103C10B610861280507
:10120000C102C10161156126610BC1086106610659
:1012100061296101C10161066106610961236106FD
:101220006104C1016107C101610661236126610496
:10123000612506618804C1026109C10161C10761BC
:10124000266103C101276107610661250761076106
:10125000136102C1046106C10500040E030D0217EB
:10126000090B0E051A00180119011A011802005A7B
:10127000012161966103216108220C6101C10121F4
:101280006102610135612161026101231261216105
:1012900002610321013361026102612103C1022164
:1012A00001C1012101C1012101C1022161026102CB
:1012B000612261326102618261026125012506219C
:1012C00061026102610261042101C12109216102FF
:1012D000610261026182610124618227610261020F
:1012E00061026102610561022761026102610261BE
:1012F0000261826102610227610261026102610290
:101300006102610121612301C30121610261026166
:1013100002610261026102612361376101C26125DC
:10132000000B0E040D00170107020708011300004F
:101330000EC118286105C10BC10961216125610534
:10134000C1256107610161056123A12304618761F2
:101350000161C104610B610761012701C1096107D6
:10136000610823612761076188C10261076104C1C7
:10137000026107C129022861042407C103C1076172
:1013800008256123A1236102C1026103C10961072C
:101390002E6105611561056101C10AC108613C004A
:1013A0000D0E040A01110106051505020C000F00BF
:1013B000000D2218C1612261C11561266113C1614E
:1013C0002661C111612A610FC1612A61C10D612EBF
:1013D000610BC16103C80361C10961326107C16169
:1013E0003261C105613661046136610461166104D0
:1013F00061166104611661023C000B0E0303041ABE
:101400000A130B0203000301001F07C109C106C133
:1014100061A12161046123610561236121022162CF
:10142000022603612561036102C10162C10A6105EF
:101430006103240162A1240923612107620141247F
:10144000072208612101620141250522076121610E
:10145000026201412B04C1036103226101412B039C
:101460002302610561014104230123086104C16174
:10147000014102C1012201C101220861032261016F
:1014800041612B61266103226102610B61066103E8
:10149000226102611261033E00040A030A020F0680
:1014A00018060600001B0000011B0100021B0200C1
:1014B0001F1F166123A1366223A1366207228822EC
:1014C000076203C103C1216106C1220762072261CD
:1014D0000128022562022302226107220222C12280
:1014E000620221C1210222610722022562072862CD
:1014F000220222C122620223022862220225620203
:101500002302220661012207620223022205C16131
:10151000012204C102612A6129612E02C1612601F2
:10152000C101612700140102070C140C0F19001AE5
:10153000011B021A031904180517061607170818C5
:1015400009190A1A0B1B0C1B0D1B0E001F1CA124D2
:101550006226651061032102610FC10561016121ED
:1015600002610F21C105622102610E23C1056121C3
:1015700002610D25C104612102610B280461210271
:10158000610CC12505612102610E23066121026102
:101590000F21076121026117612102610C612EA1F7
:1015A00029032F096121013003C66122000E0A04BC
:1015B00008011401030518050B00001B0000011BA6
:1015C00001000201020202030219021A021B0200B8
:1015D0001F03C104C105C104C10928610361280FAB
:1015E00061036112612D6106C105C16105C101C1BF
:1015F0000561C104C1276101C101C125C101C1014A
:10160000612607610124032401610AC1026106C148
:10161000066101C10661366104611661046101C1A0
:1016200004C16127610661022A610761290A610715
:10163000610BC10761076106C102214121412141BE
:10164000214121412141214121412141214121418A
:1016500021412141214100100F0003020011001619
:10166000000200000000000400004000000400062A
:101670000430004340004004034000304003403049
:1016800004030400004003040030040360304003FE
:1016900000400400030046300043003400430004CF
:1016A000400003600430000334000403400440049D
:1016B0000344444404003040004300460400030057
:1016C0000000304034040003644300400300000085
:1016D00030043040400344030004030000003004A1
:1016E0003406040340030400434000003004304348
:1016F0000040000300040004000030043403000430
:101700000003004040004000300430430400400328
:101710006400040004003064340300040403404007
:1017200006400040304030430040004300000404C5
:10173000040434000003000006000006000000005E
:101740003000090E040C0017000C0C140C0F1B00C9
:101750001B011B021B031B041B051B061B071B088D
:101760001B091B0A1B0B1B0C1B0D1B0E0200000090
:1017700000000000000000000000005353535353CA
:10178000535353535353535350535353535353532C
:10179000535353535353506313031363130313638C
:1017A000130313631053135313531353135313534C
:1017B00013531053135313531353135313531353FC
:1017C000105313531353135313531353135310033F
:1017D00013031303136313031363130310531353FC
:1017E00013531353135313531353105313531353CC
:1017F00013531353135313531063030303030303CC
:10180000030303030303003111111111111111110D
:101810001111111110300000000060006000600024
:1018200000000032222222222222222222222222EE
:1018300020360000000000000000000000006011E1
:1018400011111111111111111111111111110E0399
:101850000E061606040A0118000006C105C10F6134
:101860003161056103610DC10361056102C1296137
:101870002905612B620E61032762876107610321DD
:10188000C101C12262086102C1046102C125620571
:10189000612443246123056106610B6108610661CF
:1018A0000B61086103C102610B6102C1612B61021E
:1018B000C105C1026123610B610129016103610B53
:1018C000610B61036106C1046106C10461033C0050
:1018D000080E0401011A0103021802010C0300079B
:1018E0006116C1046111C102612201C102610FC10F
:1018F0000122620222026124016125610322026247
:101900000B62C1046107620BC162046107620B6272
:10191000C10C620BC1620C620B62C10C620BC16232
:101920000C620B62C10C620BC1620C620B62C10CD7
:10193000620BC1620C620B62C10C62046130610413
:101940006100090E020005130607190019011902AA
:101950001903110411051106000AC119612702C1FA
:101960000DC103610626072A6109C11161260125FF
:1019700061220C610C61042A610C6103C12A612798
:101980004203612E610C61042A6107C10183610475
:101990002206226107220361042202C2022261059B
:1019A000C10661042B61276103610F61072861048F
:1019B000C106610F613C00070F05030208050D0514
:1019C0001405130F0200000001001D9B6121052179
:1019D0000D2105216101250F250161012101230F41
:1019E00021C123016101250F25016101230121A1ED
:1019F00031012101610125A12301C12201C1286119
:101A00002101610125A131612101610125A131611E
:101A10002101610125A1240429612101610125A180
:101A2000240429612101610125A12403C1612861E8
:101A30002101610B2461886102610A450C6109453D
:101A40000D000E0E0605021602020B0F0B190B08F5
:101A50000E040B0010000B01100101036C21032A7E
:101A60000221032103210421022102C12102C121FB
:101A700003C1A102210321032104210221032A021F
:101A800021036703A101210381058104A1210381B1
:101A900005810521026205816521022B0221026A6E
:101AA000A10221092102A10221092102A102210989
:101AB0002101C1A10221092102A10221026AA10280
:101AC00021022B0221026205816521038105810526
:101AD000210381058104A121036703A10121032AB8
:101AE0000221032103210421022102C12102C1217B
:101AF00003C1A102210321032104210221032A029F
:101B000021036C2100090E040D0213030205170EB8
:101B100003020002010202001F1188146106612500
:101B2000612104216123046104C101610561066131
:101B300004236127056103C1026107610725612450
:101B4000026107610C610661076109C1026103C19D
:101B5000026107610722612C6104610124016102B5
:101B6000610C6101C1026101240161026102C109CC
:101B7000618461012101C121016127610C6101259D
:101B80006107610C61066107610AC1016106613C80
:101B9000000D0B0515010A041308020E140E0312A2
:101BA00000120112020032012A01C1102103C103F7
:101BB00022A12361246108276122A123612E012330
:101BC000026122046102C10724012302612261290A
:101BD000612801230261226103266125C2210123BC
:101BE000C1016122610326612E612261032104C1CA
:101BF0006104C106C10121612261032361276127BC
:101C0000612161226102C123610761276121612293
:101C10006122A12102610761022203612161226127
:101C200022A12161256128C201612161226122A1D5
:101C30002161256126C126612261046122C12261E0
:101C400004C108613D000F0E041801010504080FCE
:101C50000B0809000901090209030904090509061D
:101C60000907001F0EC10A230D24612702220B223F
:101C700003610A220922046107C1022306C1230469
:101C80006103C103226124052461236127026103EA
:101C900022032203610D61C103226122046105C197
:101CA00005612361046105216122612305610361EE
:101CB0000E610861036104C1096108610361276164
:101CC0002661256122610B610C6102610B610C616F
:101CD000023C00120E03060616060E0A0200000061
:101CE00001001D8B10610561052101C10121056104
:101CF000056101C1026302C1012501C1026302C184
:101D000001610162026102620762026102620161B5
:101D100001610165016107610165016101610161A5
:101D200002C101C102610361036102C101C102611B
:101D3000016102612561036303612561026103653D
:101D4000016202610262016503610961016501616D
:101D5000096104C1046102C101C1026105C10361DD
:101D600026610361256102612761066104650361E3
:101D7000076106610C610761066107C10461073CE8
:101D8000000A0E0307040F071309031B001B011BA6
:101D900002001C8A05C10C6101C106612A61072588
:101DA0006103610A61470561036106C103610C615A
:101DB000266125612209C102610661056102820571
:101DC00024612106610561048207610461266122A4
:101DD0000682C10461846106610A210461076129E8
:101DE000610961076129610523612A03C103256136
:101DF00024612A016123610125612103610B6123B3
:101E00006102C10361013C000C0E030403140504CC
:101E100008021B041B050003C11762422142610B2B
:101E2000C1086205610461296101C1036201C10346
:101E3000610461096124A1622141214121610461A0
:101E400009610661056184618603610661056104BB
:101E50006105612346620561046102C10261096294
:101E6000056101C1026125610961412341224122CD
:101E700041610961236122412341066109610361D6
:101E80000241C102410661038661036101C128610B
:101E900023440561022408610C610E610C61063C5B
:101EA000000E0E03050617060E0904120012011299
:101EB000021203001F01C11727612714618A05C19F
:101EC0000B610422610327612207610422610A6118
:101ED000096104226107C1026102226125042861AF
:101EE0002702611161096111610729612A6110618D
:101EF0000A610EC101618A6103C107612609276178
:101F000004610CC109613C00D5F08D14A1C881CFDA
:101F1000D9F1AF20007F37E0C3142E53284C67B7A8
:101F2000DBED76BBDD6EB7DBED3A74A5B3DBED76AA
:101F3000BB550E916AEE7476BBDD6EB7DBED76BBFA
:101F40000ED256A1127D98534A2AA914D6A852320D
:101F5000A4ADA4926A2472AE64285B2AA9E47882B4
:101F6000A311BA73CE39E79C5352C58538E59C73EB
:101F70006E9C1D17EE9473CEE191147F5B259554F2
:101F8000524925B73B082F89C7ED763B7F3ABDE321
:101F9000AF9D545249259554524925A552A59454B4
:101FA0005249E5DC76BB557AAB9454524925955499
:101FB000524925A5525249E59C92DBAD924E3AA971
:101FC000A4924A49E59C924A3A2795944A49259514
:101FD0005452DDEA53EB7C7AABA492CA39E79454AD
:101FE00052492595545239A7E4761D6B3ABDDD6EF2
:101FF000B7DBED3ABAEC763B5A0B8D4A2AA9E438A6
:102000005A2AE74616DE52848853712270E79C42B2
:10201000221FE676CE29EC11AE64285B2AA9E4786B
:10202000E253216FE79C734E4925C3660A934A49E0
:102030003BBEB6CED9A5728AEEB1E79CC3DC8AF26C
:102040009197E24A21D045F6385B71A5504789BF88
:10205000AD924A2AA9A492DB1DDDE3EEB1BF555231
:102060004925955452492595543AD2F45649259517
:102070005452C9EDEC5B259554524925955472ABE9
:10208000A4924A2AA9A4924A2A9D8E6CABA4924A91
:102090002AA9A4924A47B655524925955452492532
:1020A000958E6CABA4924A2AA9A4D2916D955452F4
:1020B0004925955452E948D35B25955452492595B5
:1020C000545249259554721BED5649259554524951
:1020D00025954E87640A10000000000000000000F3
:1020E0000000000000000000000000EFEFE0EFEF54
:1020F000EFEF0FEFEF01010101010101000101FF0D
:10210000FFFFFFFFFFFFFFFF0001010101010101D0
:102110000101000000FF42424242FF0000000003B4
:10212000000000000300000202020202020202029A
:102130000200000000000000000000EFAFE06FEFC1
:10214000EFED0FEBEF0101010101010100010100C1
:1021500000B0B000B0B000000000000101000101BB
:10216000000000EFEFE0EEEEEEEE0EEFEF0101010A
:1021700001010101000101EEECE0E8E8EAE808EC09
:10218000EE01010101010101000101ECE0C0C08884
:10219000808000E0EC01010101010101000101E08A
:1021A0008000000800010086E00101010101010139
:1021B000000101000000000000000000000000001D
:1021C00000000000000000E08080000000000080AF
:1021D000E001010101010101000101ECE0C080808A
:1021E00080C000E0EC01010101010101000101EFEB
:1021F000ECE0E8E8E8E80CECEF0101010101010185
:10220000000101EFEFE0EEEEEEEE0FEFEF01010166
:10221000010101010001013F0FA5AA64656B2AA914
:10222000AA52A9B83A5595AA4A755CCEA7538E4BC7
:10223000BA7C362BA9A4AA4AA5E2562E95AA4A959D
:10224000E272AA92957554D2E5B359492555552A9B
:1022500015D2A5AA64656B2AA9AA52A9B83A5595C0
:10226000AA4A755CE9B454F13955C9CA3A2AA92A6F
:1022700059D99A2A9D962A7EE552A9AA54292EA7B1
:102280002A595947255D3E9B95545255A552211216
:102290002C07EA5455AA2AD571A5D352C5E754256F
:1022A0002BEBA8A4AA64656BAA745AAAF8954BA54F
:1022B000AA52A5B89CAA64651D9554F9ACA492AA2B
:1022C0002A954A010207A55336095717A38B2E2ECC
:1022D00047175D74D145175D74D145175D721F5D59
:1022E00074D145175D74D145175D749129BAE8A280
:1022F0008B2EBAE8A28B2EBAE8A28B2EBAE8A28B5C
:102300002EB98F2EB4499D4EC7A55C2A954AA57259
:102310008A2E5795AA4A55E51C9772A9542A954AC0
:10232000491449974DE71D977255A9AA5455EEA235
:102330004AE52A9BAD5C2A2AE752A9543624DDD708
:10234000575595AA2A3559AE2A5595AACA392AA9A8
:10235000F2CAA525977255A9AA5455AEA35485ACC7
:10236000E8A28B2EBAE8A28B2EBAE8A28B2EBAE88E
:10237000A28B2EBAE8A28B2EBAE8A28B2EBAE8A2C4
:102380008B2EBAE8A28B2EBAE8A28B2EBAE8A28BCB
:102390002EBAE8A28B2E322006640000001400271B
:1023A0000564000000140017046400000028004BBE
:1023B00002640000001400DC0364000000140088C4
:1023C000016400000028000080100FB22E954A65BD
:1023D000E3723EA77CCA9129974AA552A99C829094
:1023E00000100F9C72A9542A95CA292EE9B2E9BCA3
:1023F000E352AE2A5595AACA75F010591FA38B2E29
:10240000A764E7D29DDCE7D28E2EB66D7ABAD8B635
:10241000E9E962DBA6A78B6D9B9E2EBAE862DBA67C
:10242000A78B6D9B9E2E9B9E6D9BCFA6B7E9E972F5
:10243000694717DB363D5D4EE96D3EBA6C7A9B8F7E
:102440002E7439974EC79C733A2E652B59C9CA759D
:102450006CD94A56B2728EAB9395AC64652353B671
:102460009295AC5C872BE5D3E95CC7A57C3A9D537C
:10247000648E4B91392E2BD3E99CE2CB391D97B258
:1024800095AC64E53A2EE5D3D9C894AD64252BD735
:10249000416FF7B5AB4AA952A9C97255A9AA5455BB
:1024A000CE514995572E2DB994AB4A55A5AA721D08
:1024B0002C1B5D74D145175D74D145175D74D1C572
:1024C00094EB742EBAE8A28B2EBAE8A28B2EBAE84F
:1024D000A28B2EBAE8A28B2EBAE8A28B2EBAE8A263
:1024E0008B2EBAE8A28B2EBAE8A28B09E0061E005A
:1024F00000000A00E0061E000080030788A453368F
:1025000007030788E50307545639C904030792CC2B
:102510000607A8D2E9743A2E060788D25B25B7B120
:10252000010407723A9D8E0A040756761D2504079A
:10253000B8D2E99C53040738B34BA50006077C3A90
:102540009D4E4707060798B24B65D7910104079D3A
:102550004BA7A30304077C3A9D760E0407F8D25BD1
:102560002501040795DC460B0307757AE9940203FD
:1025700007564EAED3010307759A100607DE6EB7F5
:10258000DBED76070607B74A3AE79C734A6E01040B
:1025900007A59276BB5D010407A57352D9750A049D
:1025A00007D476BB924A2A0407DC5239A7E47606A0
:1025B00007B7DBED76BBDD0206075E2AE79C734EAC
:1025C0002ABB030407A5926ABBDD020407B7DBAD93
:1025D0005452010407D35B259D930A0407A5724E4C
:1025E000C96D1A0102040810204080080B00020285
:1025F000020100090400000102020000052400108D
:102600000105240101010424020605240600010736
:1026100005810310004009040100020A00000007C0
:102620000502024000000705830240000004030980
:102630000412010002EF0201404123368000010133
:1026400002030141726475696E6F204C4C43004176
:10265000726475696E6F204C656F6E6172646F0095
:10266000273511241FBECFEFDAE0DEBFCDBF11E06A
:10267000A0E0B1E0ECE1FDE602C005900D92A23AC7
:10268000B107D9F727E0A2EAB1E001C01D92A83E48
:10269000B207E1F713E1C1E3D3E104C02197FE01E2
:1026A0000E948636C033D107C9F70E94FF300C94D0
:1026B0008C360C9400002F923F924F925F926F9253
:1026C0007F928F929F92AF92BF92CF92DF92EF92C2
:1026D000FF920F931F93CF93DF93CDB7DEB7609731
:1026E0000FB6F894DEBF0FBECDBF0E94472E8823E1
:1026F00011F40C94C31F0E94C22C8091C50190E07C
:102700002091D2053091D305821B930B05962AE0C8
:1027100030E0B9010E947236462E6A878091C60168
:1027200090E04091D4055091D505841B950B0596FA
:10273000B9010E9472368B016B878091A9018530A7
:1027400091F080916F07909170076CE070E00E94AB
:102750005E36892B09F06FC09091A20181E0892734
:102760008093A20168C0842D0E949C2CC82E1092D8
:10277000C7011092D6058091CC018B3021F01092C8
:10278000C8011092D705602F842D0E949C2C8630A2
:1027900061F58091C9019091CA0149969093CA014F
:1027A0008093C90140E0602F842D0E94A42E809167
:1027B000B90681508093B906882329F082EC94E011
:1027C0000E94B82012C0F12C8091BA06F816B0F71A
:1027D000EF2DF0E0EE0FFF1FE554F94F43E061816C
:1027E00080810E94A42EF394EFCF0E94E42183FF06
:1027F00015C00E94E42182FF11C08091A3018F5F68
:102800008093A301853150F08D3308F073C566E0E5
:102810000E945236933008F46BC52E9A88E00E94CD
:10282000272EF82E882309F464C684E00E94272E00
:1028300081115FC668C58091A9018850833008F472
:102840006BC1A12CB12C912CC12CD12C00E0E090BB
:10285000D205F090D305EC0CFD1C2091D4053091ED
:10286000D505C70109968938910510F539016A0C1B
:102870007B1CC301099689349105D0F4692D802F02
:102880000E949C2C182F882339F0282F45ED50E208
:10289000B301C7010E94CB2029EF210F243040F45F
:1028A000B3016A50710941EF51E0C7010E94CB208A
:1028B0000F5F8AE0C80ED11C0C3149F693949AE060
:1028C000A90EB11CA0E19A12BFCF8091A901853059
:1028D00021F08091A2018823F1F08091CC01082F92
:1028E000001F0027001F082E000C990B97FF03C044
:1028F000919581959109880F990BFC01E05FFE4F3E
:10290000408151816091C60170E08091C50121E054
:1029100090E00E94CE2C6FEDE62E66E0F62E7BEE68
:10292000672E76E0772EEAEECE2EE6E0DE2EF5EE8E
:10293000AF2EF6E0BF2EF701808184FFD5C0228044
:1029400033804090D2055090D3054101840C951CF2
:10295000248135818091D4059091D505AC01420F39
:10296000531F5F834E83D301EC918E2F90E0833110
:10297000910508F0B0C0FC01EA5AFF4F0C9486366E
:10298000F6018081082F001F0027001F082E000C71
:10299000990B97FF03C0919581959109880F990B29
:1029A000FC01E05FFE4F4081518198C0F1E08F1A39
:1029B000910891C02FEF821A920A8DC04E815F81DB
:1029C000425051095F834E8382C08E819F8104975C
:1029D0009F838E830BC0AE81BF811697BF83AE836A
:1029E00076C0EE81FF813897FF83EE8300E04BE1F4
:1029F00052E074C04E815F814A5051095F834E831B
:102A00002A503109D70115963C932E931497F30160
:102A10001082C1016AE070E00E945E36462FC90153
:102A20006AE070E00E945E36162F0FEF040F802FD1
:102A30004C870E949C2C982F31E0310F632F802F00
:102A40003E879D870E949C2C082F4C854F5F612FED
:102A5000842F4C870E949C2C582F3E85632F4C85D9
:102A6000842F5C870E949C2C482F2091C50130E068
:102A7000241935095C859D85221533056CF4892F51
:102A80000E94CD308823B1F00130A0F00430C8F0AE
:102A90000750093078F415C0852F4C870E94CD303F
:102AA0004C85882371F0413060F0443018F0475075
:102AB000493038F481E0D6018C9322E0F50120837F
:102AC00006C0EFEFD601EC93EEEFD501EC9300E0FA
:102AD0004CE252E003C000E04DE352E021E06E81A1
:102AE0007F81C4010E94CE2CFDE0EF0EF11C2DE091
:102AF000620E711C4DE0C40ED11C5DE0A50EB11C30
:102B00006DE2E61667E0F60609F015CF81E00E9457
:102B1000F82280E00E94F8228091A901982F9B7FE3
:102B2000933009F097C02091A801822F022E000C4B
:102B3000990B2195220F295C40E450E0481B590B6A
:102B4000440FBC010E94AA2F4091A80160E880E0D8
:102B50000E94912F8091A80146E3481B60E880E025
:102B60000E94912F0091A801E12CF12C10E021E0AE
:102B7000A701B8018CE697E00E940C2282E0E80EE3
:102B8000F11C92E4E916F10491F78091A8019FE706
:102B9000981B00E010E0E92EF12C21E0A801B7011C
:102BA0008CE697E00E940C220E5F1F4F0234110545
:102BB000A1F78091A901833029F5D090A801DA947A
:102BC0000BE110E050E4E52EF12CD7FC12C08D2D66
:102BD0000D2C000C990B9801281B390B220F2F5F2D
:102BE000A701481B590B440FBC010E94AA2FDA947D
:102BF000ECCF8091A80181508093A8018F3F39F5D7
:102C000084E023C0F12C4BE1C42ED12C00E410E071
:102C10008091A801F81694F48F2D0F2C000C990BBD
:102C20009601281B390B220F2F5FA801481B590B57
:102C3000440FBC010E94AA2FF394EACF8F5F8093C8
:102C4000A8018C3121F48091CD018093A90100E08D
:102C500010E069C098EF980F9330C8F78A3049F4B4
:102C600000E021E049E952E069E170E08AE290E0A9
:102C70003AC0883029F400E021E048E652E02FC055
:102C80001091B806812F64E60E945236082F282F33
:102C900045E053E069E170E088E490E00E94CB20D9
:102CA000812FA4E60A9F801911246AE00E945236FF
:102CB000192F282F45E053E069E170E08DE490E0A2
:102CC0000E94CB20212F45E053E069E170E082E5CE
:102CD00090E00E94CB2000E021E04EE452E069E168
:102CE00070E08BE290E00E94CE2C46E167E589E23D
:102CF0000E94912F40E267E589E20E94912FA7CFC1
:102D000020E0A701B8018CE697E00E940C22BFEFFB
:102D1000EB1AFB0AE0E4EE16F10491F70F5F1F4F88
:102D20000038110521F037E3E32EF12CE9CF48E319
:102D300060E880E00E94912FE090C901F090CA0104
:102D400000E021E04FE253E06AE370E080E090E0D1
:102D50000E94CE2C20E045E053E06AE370E08DE174
:102D600090E00E94CB20C70160E177E20E945E36CE
:102D7000262F8C0145E053E06AE370E082E290E0A8
:102D80000E94CB20C80168EE73E00E945E36262FB9
:102D90008C0145E053E06AE370E087E290E00E9436
:102DA000CB20C80164E670E00E945E36262F8C01BD
:102DB00045E053E06AE370E08CE290E00E94CB20B3
:102DC000C8016AE070E00E945E36262F182F45E0A9
:102DD00053E06AE370E081E390E00E94CB20212F72
:102DE00045E053E06AE370E086E390E00E94CB2088
:102DF0001091CB0100E021E042EF52E06AE370E085
:102E000080E490E00E94CE2C2AE0E22E812F6E2DED
:102E10000E945236192F282F45E053E06AE370E0F4
:102E200082E590E00E94CB20212F45E053E06AE349
:102E300070E087E590E00E94CB208091A901853069
:102E400069F41091B90621E047ED52E06AE370E0C1
:102E500080E690E00E94CE2C812F1FC0F090B80633
:102E600000E021E047EC52E06AE370E080E690E0A9
:102E70000E94CE2C8F2D64E60E945236182F282FE8
:102E800045E053E06AE370E081E790E00E94CB20E8
:102E90008F2DF4E61F9F801911246E2D0E9452364B
:102EA000192F282F45E053E06AE370E086E790E0B1
:102EB0000E94CB20212F45E053E06AE370E08BE7CE
:102EC00090E00E94CB201091A901153009F0D2C1E9
:102ED00000916F071091700700FD10C08091C7012D
:102EE0008111A7C78091C8018111A3C78091D60520
:102EF00081119FC78091D70581119BC7037011274E
:102F0000012B09F444C02091C7018091C501280F0D
:102F10002093C501F090C8018091C601F80EF0928F
:102F2000C6018091D6050091D2051091D305080FF6
:102F3000111D87FD1A951093D3050093D20580913A
:102F4000D7054091D4055091D505480F511D87FDF7
:102F50005A955093D5054093D4058F2D90E0841B4E
:102F6000950B0596EAE0F0E0BF010E947236362F1D
:102F7000822F90E0801B910B0596BF010E94723654
:102F8000862F632F0E949C2CFF2021F14EC00AEE59
:102F900016E0F8013B97808184FF15C0D801119697
:102FA0008C91811110C0D8018C9193EF980F9330C0
:102FB00008F446C7F80135979081911141C73196C1
:102FC000908191113DC7035F1F4FF7E008331F0742
:102FD00001F799CF833049F51091B8061F5F86E05D
:102FE0008093A9011093B806612F82EC90E00E94B3
:102FF0009622193208F429C781EC90E00E94A6229B
:1030000011E0180F612F81EC90E00E949622612F51
:1030100086EC90E00E9496220E94F32E8DE0809331
:10302000CD0180ED94E00E94B82080916F079091CF
:1030300070079C012170332780FF05C09FEDE92EAA
:1030400096E0F92E4BC0EFEDF6E0808184FF18C0CA
:10305000D901A152B94F16964C911697828193814E
:10306000840F911D47FD9A959383828317964C9107
:1030700084819581840F911D47FD9A959583848362
:103080003D96235F3F4F2E343105F9F6D7CF20917F
:10309000C50130E08091D2059091D305281B390BF2
:1030A0008091C601E091D405F091D50512966D91FD
:1030B0007C91139714964D915C91159789010E5F41
:1030C0001F4FDB0118960A171B076CF0BDE0EB0ED3
:1030D000F11CEDE2EE16E7E0FE0609F1D7018C9156
:1030E00084FFF4CFD4CF285F3F4F6E5F7F4F6217CE
:1030F000730764F790E08E1B9F0BBC016E5F7F4FE0
:103100009A01285F3F4F6217730704F708964E5FD6
:103110005F4F48175907D4F60E943D26D7CF8091BC
:103120006F0780FD16C000E010E0602F812F0E9425
:103130009C2C99EF980F943030F441E0480F602FA9
:10314000812F0E94A42E1F5F1C3179F70F5F003181
:1031500059F780916B07882309F4B0C010E00DE0A7
:1031600080916B07181708F06FC0C12ED12C760123
:10317000EE0CFF1CF701EC0DFD1DE15DF84F8281A7
:10318000882309F45CC081508283803189F038F44F
:10319000813081F0883009F052C04FE04CC0883156
:1031A00029F0803209F04BC04CE045C04DE043C0EF
:1031B0004EE041C0ABEEB6E08FED96E05F01AF01AF
:1031C0004F5F5F4FFC01208124FF19C0F501208172
:1031D000FAE02F9F90011124FC0162817381261770
:1031E000370769F4FA012081FAE02F9F900111243A
:1031F000FC01648175812617370709F428C60D96EE
:103200001D96F7E08D329F07E9F6F701EC0DFD1DE5
:10321000E15DF84F80812A85821306C081814B854C
:10322000841302C00E943D26C6018E0D9F1DFC0125
:10323000E15DF84F41E0618180810E94A42E1F5F13
:103240008FCF882309F43AC0809131078130B1F5DE
:1032500080916B07815080936B07EFE2F7E090E07D
:10326000981778F7238134814581219331934193D5
:103270009F5FF6CF88E00E94272E81110FC684E061
:103280000E94272E81110AC680E80E94272E8111F4
:1032900005C680E40E94272E811100C680E10E94AD
:1032A000272E8111FBC580E20E94272E8111F6C5D1
:1032B00005C0183009F005C61092A90160960FB636
:1032C000F894DEBF0FBECDBFDF91CF911F910F915C
:1032D000FF90EF90DF90CF90BF90AF909F908F9036
:1032E0007F906F905F904F903F902F900C94322E74
:1032F0002E9894CA8D3309F091CA2E9A0E943D26C9
:103300001092A30151C00E94E522882309F41DC137
:103310008091C50190E02091D2053091D305821BA8
:10332000930B02966AE070E00E947236462EFF24EC
:10333000FA94F60E602F8F2D0E949C2CD82EEE242E
:10334000E394E00E6E2D8F2D0E949C2C813009F0AD
:10335000FCC08FEF8D0D823008F4F7C084EF8093AE
:10336000CC011092C7011092D60547E06E2D8F2D2B
:103370000E94A42E80916B07843181F0E82FF0E049
:103380009F01220F331FE20FF31FE15DF84FF08220
:10339000E1829FEA92838F5F80936B070E94C22C29
:1033A00084EA94E00E94B82080916F0780FDC9C92B
:1033B0001092E0061092ED061092FA06109207079E
:1033C0001092140710922107AFEDB6E0B88BAF87CB
:1033D000BBEE4B2EB6E05B2E17EE612E16E0712E83
:1033E000EF85F889808184FF72C0828193816AE0D1
:1033F00070E00E945E367B01848195816AE070E016
:103400000E945E368B018E2D0E949C2C863029F402
:10341000D3018C91882309F4E7C3F2018291FF83E1
:10342000EE838B3031F0E4F08D50833008F44FC0E0
:1034300017C0602F8E2D0E949C2CD82E61E0600F4B
:103440008E2D0E949C2CFBE0DF1651F0A801552721
:103450004F5F5F4FB70177270E94702C811137C0F3
:10346000AF85B88912962D903C901397C1016AE000
:1034700070E00E945E36F62E892B49F5EF85F889BB
:1034800084809580C4016AE070E00E945E36162F49
:10349000892BE9F4F88669878F2D0E949C2CD82E01
:1034A000D2018C91882309F4B6C3D3018C91803169
:1034B00038F01C926FEF610F46E08F2D0E94A42E12
:1034C000F30131971082F201808181508083AF85B2
:1034D000B8891D96B88BAF87BDE04B0E511CEDE04F
:1034E0006E0E711C4F8558894D52574009F078CFA8
:1034F00028C984E00E94272E882339F1F11025C0C5
:103500000E94E522882309F18091C50190E0209175
:10351000D2053091D305821B930B02966AE070E0CE
:103520000E947236462EFF24F394F60E602F8F2DE4
:103530000E949C2CD82EEE24E394E00E6E2D8F2D4D
:103540000E949C2C813009F475C20E94E42186FF00
:10355000C9C0602F842D0E949C2CB82E2091C501DB
:1035600030E08091D2059091D305A901481B590BF9
:10357000CA016AE070E00E94723633243394892BCA
:1035800019F0312C842D02C081E0840D602F0E943F
:103590009C2C682EAA24A394A00E332019F081E05D
:1035A000840D01C0842D6A2D0E949C2C782E311030
:1035B00003C08FEF840D01C0842D6A2D0E949C2CC6
:1035C000582E862D0E94D630882E6801DD245FEFAC
:1035D000C51AD50AE42CF12CA601B701852D0E944D
:1035E000142C982E0E94E5229091CC019B3051F42E
:1035F000882309F46CC49110C3C064E0661267C4E8
:1036000068E012C00E940E30882391F08DEF8B0D80
:10361000823008F032C2882009F4B3C4911042C24B
:1036200084E0B81242C26AE087E00E949D243EC056
:10363000332019F081E0840D01C0842D602F0E9499
:103640009C2C882E332019F081E0840D01C0842D3C
:103650006A2D0E949C2C982E62E0600F332019F096
:1036600081E0840D01C0842D0E949C2C782E892D30
:103670000E94D630982E882D0E94D630882309F4D7
:103680003AC4992009F437C447019FEF891A990A6F
:10369000A601B401872D0E94142C882309F41CC4B0
:1036A00064E081E00E949D241092CC018091D405B9
:1036B000AAE00A9F800D11248093C6018091C50164
:1036C0008C3310F482E0BEC02091D2053091D30536
:1036D00029363F4F24F01092C7018EEFBFC087FFFD
:1036E000F1CF8CC10E94E42185FFBEC0602F842DE4
:1036F0000E949C2CB82E2091C50130E08091D2050B
:103700009091D305F901E81BF90BCF016AE070E055
:103710000E94723655245394892B19F0512C842D14
:1037200002C08FEF840D602F0E949C2C682E99247C
:103730009394900E511003C081E0840D01C0842D3C
:10374000692D0E949C2C782E862D0E94D630882EC2
:103750006801DD24FFEFCF1ADF0AE42CF12CA6016B
:10376000B701872D0E94142CA82E0E94E52290916B
:10377000CC019B3071F4882309F4A9C3AA2029F055
:103780001092CC010E940020FCC324E062129FC36F
:103790000AC00E940E30882359F08DEF8B0D8230C5
:1037A00008F0AEC1B7C169EF86EF0E949D243DC00D
:1037B000552019F08FEF840D01C0842D602F0E94D9
:1037C0009C2CA82E552019F08FEF840D01C0842D5C
:1037D000692D0E949C2CB82E62E0600F552019F0D4
:1037E0008FEF840D01C0842D0E949C2C982E8B2D70
:1037F0000E94D630B82E8A2D0E94D630882309F434
:10380000C0C3BB2009F4BDC351E0E51AF108A6010D
:10381000B701892D0E94142C882309F48BC36FEF04
:103820008CEF0E949D241092CC018091D4056AE017
:10383000069F800D11248093C6018091C5018D33B0
:1038400020F08EEF8093C701D7C02091D205309130
:10385000D30537FF06C01092C70182E08093D605DA
:10386000CDC08111EECFCAC00E94E42187FF85C080
:103870008091C60190E02091D4053091D505821B3E
:10388000930B08966AE070E00E9472368B01D62E88
:103890000E94E522E82E882319F06FEF600F01C027
:1038A000602F842D0E949C2CF82EEE2019F0DD2430
:1038B000D394D00E6D2D842D0E949C2C9091CC0120
:1038C0009530A4F0973044F09B3081F494E0C91215
:1038D0005FC1E11059C15CC1EE2061F1A3E0CA12E1
:1038E00087C08FEF8F0D823028F582C00E940020A4
:1038F0008091C50190E02091D2053091D305821BC3
:10390000930B2AE030E0B9010E947236863020F035
:10391000F901E81BF109CF0105970CF06BC0F3E04A
:10392000CF1268C08FEF8F0D823008F463C085E03E
:103930008093CC018091D2052AE0429E800D112413
:103940008093C5011092C7011092D6058091C601DF
:10395000883120F08EEF8093C80152C02091D405A9
:103960003091D50537FF06C01092C80182E08093E0
:10397000D7051ACD8111EECF17CD0E94E42184FF27
:1039800042C02091C60130E08091D4059091D505C8
:10399000281B390BC90108966AE070E00E94723654
:1039A0008B01F62E0E94E522E82E8111F8C06FEF00
:1039B000600F842D0E949C2CD82EEE2019F0FF243D
:1039C000F394F00E6F2D842D0E949C2CF82E809184
:1039D000CC018B3009F082C044E0C41609F4D2C097
:1039E000EE2009F4F4C084EF8D0D843008F0EFC0B0
:1039F0000E9400201092C7011092D6051092C801B3
:103A00001092D705D1CC0E94E42186FDCDCC0E9436
:103A1000E42185FDC9CC0E94E42187FDC5CC8091BD
:103A2000C801823009F4ADCF8091D7058E3F09F0EF
:103A3000BBCCA7CF8FEF8D0D823008F486CD8CE004
:103A40008093CC011092C7011092D60547E06E2DED
:103A50008F2D0E94A42E80916B07843109F49ECC97
:103A6000E82FF0E09F01220F331FE20FF31FE15D0B
:103A7000F84FF082E18294E68DCC332041F0A6012C
:103A8000B701852D0E94412C811153C022C288208C
:103A900079F0A601B7016F5F7F4F872D0E94142C2C
:103AA000882341F064E081E0C0CD66E085E0BDCDD3
:103AB00091105FC2B7016F5F7F4FA601872D0E94F3
:103AC000412C8111EFCF1092C7011092D6058823A7
:103AD00009F494CF8BE08093CC010FC053E0F51232
:103AE00060C08091D2056AE0469E800D11248093CB
:103AF000C5016BEF8AEF0E949D240E94A62454CC3E
:103B00005520F9F0A601B701872D0E94412C8111A3
:103B100010C00DC2882009F434C2AA2019F06FEF3A
:103B20008CEF43CE44E0B41609F43DCE66E085E068
:103B30003CCE8BE08093CC0182E593E00E94B820DC
:103B4000C6C1882009F418C2692D842D0E949C2CBE
:103B5000A82E8B2D0E94D630882349F0A601B701EC
:103B6000615071098A2D0E94142C8111D8CFB701A0
:103B700061507109A6018A2D0E94412C882309F405
:103B8000A2CFCDCFEE2019F187E08093CC0130CFCA
:103B9000A80155274F5F5F4F642D70E01FC0602F55
:103BA00008CF8F2D0E94D630811103C01092CC0116
:103BB0001FCFF11003C08BE08093CC018091D20520
:103BC0009AE0499E800D11248093C50196CFA801EB
:103BD00055274F5F5F4F642D70E08F2D0E94142C8E
:103BE000882309F48ACFE2CF0E94CB350E94CB35DF
:103BF0002AE030E040E050E00E94EF35DC01CB01EC
:103C00004496A11DB11DF301808340E0602F8E2DED
:103C10000E94A42E02CC6FEF610F8F2D0E949C2C6E
:103C20008983612F01E00F0D802F0E949C2C8A83D5
:103C3000EE24E394E10E6E2D802F0E949C2C8C8349
:103C40006E2D0FEF0F0D802F0E949C2C8B83612F08
:103C5000802F0E949C2C8D836E2D8F2D0E949C2C7A
:103C6000B82E2091C5018091D2059091D305821B79
:103C70009109280E391E2091C6018091D40590919A
:103C8000D505821B9109880D991D37FE1EC0181697
:103C900019065CF431942194310882159305C4F11E
:103CA00028163906BCF132E046C00097A9F13194DC
:103CB000219431089195819591092816390674F15E
:103CC000821593056CF136E036C021143104C1F041
:103CD0001816190644F48215930524F1281639069E
:103CE0001CF13EE028C0009709F19195819591095A
:103CF00028163906ECF082159305E4F03AE01BC073
:103D0000392F331F3327331F330F330F330F13C0B4
:103D100031E011C033E00FC034E00DC035E00BC01E
:103D200037E009C03DE007C03FE005C03CE003C00C
:103D300039E001C03BE0D3018C91882391F09FEFE3
:103D40009B0D923070F4D1100CC08150F301808330
:103D50008F3039F446E0612F8F2D3E870E94A42ECC
:103D60003E855D815F935B815F938B2CAC80CA80C5
:103D7000E9800D2D232F412F6F2D8F8598893E8748
:103D80000E94C0240F900F903E858111A0CB132F6D
:103D9000A8E0FA2E112311F0115001C01FE05D813F
:103DA0005F935B815F938B2CAC80CA80E9800D2D83
:103DB000212F498568858F8598893E870E94C02478
:103DC0000F900F903E85811182CB3F3011F03F5F05
:103DD00001C030E05D815F935B815F938B2CAC8091
:103DE000CA80E9800D2D232F498568858F859889A4
:103DF0003E870E94C0240F900F903E85811167CBB3
:103E0000FA94F110C7CFEE81FF8180818B3009F0E9
:103E10005ECB61E0B61608F45ACB83E08B1528F42C
:103E200089EF8B0D893008F052CBF3013197108266
:103E30004ECB8091CC010E94A8228093CC015EC819
:103E40000E94A822F8018083BEC889E0E8C89D01CD
:103E500023503109F9012081FAE02F9F90011124AC
:103E6000FC01338322839D0122503109F901208115
:103E7000FAE02F9F90011124FC01358324839D01DA
:103E800021503109F90100831C9225503109F901B3
:103E900010822F5F3F4FF9011082B1C9193011F420
:103EA00082E007C01A3040F4173009F002CA80914E
:103EB000CD018093A90102CA1A3091F31D3009F493
:103EC000FDC9109272071092710785E0F2CF81E070
:103ED000FACD8110E7CD4BC0332079F0A601B401B3
:103EE000872D0E94412C882309F4EDCD66E085E002
:103EF0000E949D2419C0311044C06A2D842D0E9457
:103F00009C2CA82E8B2D0E94D6308823D1F1B7018E
:103F10006F5F7F4FA6018A2D0E94412C882309F4F0
:103F2000D2CD8BE08093CC010E940020BFCB8110CA
:103F3000F6CD25C0552069F0A601B701892D0E9454
:103F4000412C882309F4BFCD66E085E00E949D24C2
:103F50000BC0A601B701892D0E94412C882309F4CA
:103F6000B2CD8BE08093CC010E9400205ECC9920E2
:103F700041F01092CC0105C0A110FBCFE5CDA110FE
:103F8000F8CF80E0A0CD60960FB6F894DEBF0FBEEC
:103F9000CDBFDF91CF911F910F91FF90EF90DF90F8
:103FA000CF90BF90AF909F908F907F906F905F90D9
:103FB0004F903F902F9008958091A7010895089504
:103FC000089580E090E00895FC012385261714F001
:103FD000421714F4FC0163870895FC01668347834C
:103FE000842F880F880F480F80E14802A001112418
:103FF000862F880F880F680F6F70462B41830895B6
:10400000E1E7F0E080818D7F8083109291004698F7
:1040100047981092AF010895CF92DF92EF92FF92EE
:104020000F931F93CF93DF930E94C32B811520E83A
:10403000920751F4DF91CF911F910F91FF90EF9074
:10404000DF90CF900C94002021E02093AF018130CD
:1040500020E8920751F48091AD019091AE019093C8
:10406000B1018093B0010E94C32B97FD05C0209140
:10407000AC01222309F440C02091AB0121113CC0C6
:1040800021E02093B301EC01DF77209769F481E010
:104090008093B40146983FE9C32E3FE0D32EE12C34
:1040A000F12CCAEFD0E014C08E0120E030E060E4D3
:1040B00072E48FE090E0A90198010E94EF35690158
:1040C0007A0181E0C81AD108E108F1081092B40120
:1040D000E0912D07F0912E070995811103C081E031
:1040E0008093B4018091B301882309F43FC080918B
:1040F000B40181113BC003C01092B301C4CF4699F3
:1041000035C0479A0E94C32B009771F09C01DE01D5
:104110000E944336DC01CB0129E0B595A795979520
:1041200087952A95D1F703C08FEF9FEFDC0110929E
:1041300090002AE020939100D0929900C0929800BC
:104140008093B5019093B601A093B701B093B801E5
:1041500080917100826080937100DF91CF911F91F7
:104160000F91FF90EF90DF90CF9008954798CACFBE
:104170009C01E1E7F0E090819D7F908381E0809356
:10418000B2013093B1012093B0013093AE0120937E
:10419000AD010C940C204F925F927F928F929F9270
:1041A000AF92BF92CF92DF92EF92FF920F931F9345
:1041B000CF93DF9300D000D0CDB7DEB7DC0141153F
:1041C000510509F4E8C0FA01D490319694914E5FFC
:1041D0005F4F4D2C512C2223E9F0E92FE695E6950F
:1041E000E695EE2EF12CE1E0F0E0892F877011F4D6
:1041F000E0E0F0E0EE0DFF1D4E9E70014F9EF00CD2
:104200005E9EF00C11242E9DF0012F9DF00D1124C7
:104210004E0F5F1F7D01E40CF51C1E141F040CF0F3
:10422000BAC0A038B1050CF0B6C09B01290F311DF2
:10423000121613060CF0AFC0603471050CF0ABC061
:104240004115510509F4A7C09B0177FF04C022273F
:104250003327261B370B822F87709B0177FF02C005
:10426000295F3F4FE3E035952795EA95E1F7F22F77
:1042700077FF07C0882329F0FFEFF20F28E0281B03
:10428000822FB7FF05C0662777276A1B7B0B02C00A
:1042900060E070E000E8E016F10424F020E8E22E8F
:1042A000EA1A01C0ED2CE61A2F2F0F2E000C330B4B
:1042B000FF3F1CF4C22EC09401C0C12C11E0E92FB5
:1042C000E77009F410E0969596959695910F290F51
:1042D000311D2930310514F098E09F1BFC2CFF0E96
:1042E0009D010F2D10E80103200D311D1124260F13
:1042F000371FCD9C600D711D1124640F751F41E0A7
:1043000050E0082E02C0440F551F0A94E2F7EFEF69
:10431000E49FD001E59FB00D1124A095B095BC831A
:10432000AB837C809F0FF916B1F1F901EE52FE4F7D
:104330006F01A12CB12CAE1440F5FB01EA0DFB1D61
:10434000E491E49F4001E59F900C11249A828982B8
:10435000F7FC07C0F6011081E12FEA238E2AF6014F
:104360008082882359F0F6E0FF1544F0F601E0580A
:10437000FF4F908097208A80982890820FEFA01A94
:10438000B00A1FEFC11AD10AD6CFF394640D751D80
:1043900020583F4FC8CF0F900F900F900F90DF9194
:1043A000CF911F910F91FF90EF90DF90CF90BF9032
:1043B000AF909F908F907F905F904F900895BC0139
:1043C00080E090E00C945A2A8FB12CB193B130E088
:1043D0002095309520743327A90123E05595479502
:1043E0002A95E1F7292F30E0209530952071332769
:1043F0003595279535952795242B8095807F822BA1
:10440000089583B7817F83BF83B7816083BF889519
:1044100083B78E7F83BF089560387105D0F4403430
:104420005105B8F4E3EEF5E280E1849FD001A07875
:104430001124A60F4770E40FF11D8491AE52BE4FB8
:10444000222319F06C91862B03C080956C918623F2
:104450008C9308951F93CF93DF93DC0120E030E02D
:1044600040E050E011E0C1E0D0E02617370791F1BD
:1044700014968C911497811115C014961C9314975F
:1044800012968D919C911397ED91FC911197E80FE5
:10449000F91FE4911596EC931597019613969C934A
:1044A0008E93129714969C91149715968C9115974C
:1044B000892349F0FE01022E02C0EE0FFF1F0A946D
:1044C000E2F74E2B5F2B990F14969C9314972F5F56
:1044D0003F4FCBCFCA01DF91CF911F910895EF924B
:1044E000FF920F931F93CF93DF9300D0CDB7DEB72A
:1044F0008C017B01FB0160819A838983CE01019647
:104500000E94DF30F70161810F5F1F4F1A8309831B
:10451000CE0101960E94DF30C7010F900F90DF910E
:10452000CF911F910F91FF90EF900895CF93DF935C
:1045300000D0CDB7DEB79A838983CE0101960E9461
:10454000DF300F900F90DF91CF9108950C94D93503
:10455000482F082E000C550B660B770BFA013A9684
:10456000EA31F10588F5E958FF4F0C94863686EF5D
:10457000089587EF089588EF08958BEF08958AEFE7
:1045800008958FEF08958CEF08958DEF08958EEFC5
:10459000089582E0089583E0089584E0089581E01D
:1045A000089586E0089585E0089588E0089589E0FB
:1045B00008958AE0089587E008958EE008958FE0D9
:1045C000089580E0089589EF08958091C60190E0F4
:1045D0002091D4053091D505821B930B6AE070E0E1
:1045E0000E9472369C0181E0232B09F080E008953F
:1045F0006F927F928F929F92AF92BF92CF92DF92F3
:10460000EF92FF920F931F93CF93DF93182FC090D9
:10461000C501D12C8091D2059091D305C81AD90A31
:10462000A090C601B12C8091D4059091D505A81A0F
:10463000B90A2FEDE22E26E0F22ED7018C9184FFED
:1046400026C11296ED91FC91139796012E1B3F0BFC
:1046500014960D90BC91A02DA5014A1B5B0B609197
:10466000D2057091D305121613063CF488279927BA
:10467000861B970B8E1B9F0B05C060587109CB01E1
:104680008E0F9F1FE091D405F091D50514161506E5
:104690003CF4662777276E1B7F0B6A1B7B0B04C0DD
:1046A000F897BF016A0F7B1F8090C601E82DF0E0EC
:1046B000E41BF50BC091C501E73FBFEFFB070CF012
:1046C0004CC04C2F50E0421B530B4F3FDFEF5D07B8
:1046D00094F4112341F0459708F4D9C06531710570
:1046E00008F0EDC0D4C0459708F0D1C06531710520
:1046F00008F4ECC0CCC04C37510594F0112341F0C4
:104700000B9708F4C4C06531710508F0E7C0BFC05D
:104710000B9708F0BCC06531710508F4E6C0B7C05E
:10472000112369F06531710508F4B1C0CF5FC21B78
:104730009CE3692E95E2792E4FEA55E20CC0643174
:10474000710508F0A4C0CF5FC21B84E4682E85E227
:10475000782E48EB55E280E089C0F5970CF44CC008
:104760004C2F50E0421B530B4F3FEFEF5E0794F48A
:10477000112341F0459708F48AC06B30710508F0A9
:10478000BCC085C0459708F082C06B30710508F445
:10479000BBC07DC04C37510594F0112341F00B97FD
:1047A00008F475C06B30710508F0B7C070C00B9786
:1047B00008F06DC06B30710508F4B6C068C01123F5
:1047C00069F06B30710508F462C0CF5FC21B00E175
:1047D000602E05E2702E4BE755E20CC06B30710580
:1047E00008F055C0CF5FC21BD8E16D2ED5E27D2EFB
:1047F00044E855E283E33AC0D0E0C21BD30BCC3F80
:10480000FFEFDF07CCF4112361F0459708F43FC0B8
:10481000882D841BBCE06B2EB5E27B2E46E755E26B
:104820007AC04597A0F5882D841BA5E06A2EA5E2E5
:104830007A2E4FE655E26FC0CC37D10544F11123F3
:1048400049F00B9720F1882D841BF1E06F2EF5E2E3
:104850007F2E08C00B97D8F4882D841BEAEF6E2EAC
:10486000E4E27E2E48E655E2CCE702C0CF3F79F085
:10487000882E912CD0E000E020E0B401CE010E940F
:10488000CE2C21E0A301B401CE010E94CE2C2DE05C
:10489000E20EF11C8DE2E81687E0F80609F0CDCEB5
:1048A000DF91CF911F910F91FF90EF90DF90CF900C
:1048B000BF90AF909F908F907F906F9008957DE410
:1048C000672E75E2772E43EC55E206C062E6662E4F
:1048D00065E2762E4BED55E280E01DC054E5652E75
:1048E00055E2752E4BEC55E206C04BE5642E45E2D1
:1048F000742E43ED55E280E01EC031E2632E35E2B6
:10490000732E4FE855E206C028E2622E25E2722E91
:1049100047E955E282E3C0E0ABCF9EE2692E95E223
:10492000792E4FE955E206C085E3682E85E2782EA0
:1049300047EA55E282E3CBE79BCF9091CC019817F1
:1049400014F0691714F48093CC0108951092C701F4
:104950001092D60582E08093C8011092D70580910D
:10496000C601873160F08091D4059091D5058939D1
:104970009F4F2CF01092C8018EEF8093D7050895B9
:104980004F925F926F927F928F929F92AF92BF925F
:10499000CF92DF92EF92FF920F931F93CF93DF930B
:1049A000CDB7DEB7F42EB02E9B8830E02031310534
:1049B00008F031C1082D7E2D162F3C01F901EF566C
:1049C000FF4F0C948636EE2029F07350723010F0B1
:1049D00010E001C011E046EF60E0C3010E943B2FF0
:1049E00033E0B31218C1112309F415C1811113C1A9
:1049F00046E065E0C3010E94E41F4EEF78C040E04E
:104A00006AE00E943B2F91E0D82ED926EF2CF12CA2
:104A10008FEFE81AF80A412E512CA701B201882D18
:104A20000E94702C182FB2016F5F7F4FA7018A2D53
:104A30000E94702CF82E8C2D0E94CD309FEF9A0D85
:104A4000933010F020E001C021E094E0C91205C0CD
:104A5000DD2019F04AE067E00DC0E4E0BE1210C0AE
:104A60008823C1F0222309F4CDC0DD2009F4D1C090
:104A700044E061E0C3010E94E41F40E062E099C0AD
:104A8000F3E0BF1207C0882329F0DD2019F046E0CB
:104A900065E0F0CF111193C0222321F0882309F49F
:104AA000BAC006C0882309F4B6C0FF2009F4B3C019
:104AB000DD2009F4B0C0DCCF4AE060E00E943B2F6B
:104AC00091E0D82ED9264F2D50E04F5F5F4F612FD8
:104AD00070E0882D0E94702C033059F4DD2009F419
:104AE0009AC04BEF6AEFC3010E94E41F42E060E00E
:104AF00060C0882309F48FC0DD2009F48CC08BE0EE
:104B0000F301838742E060E0C3010E94ED1F07507C
:104B1000093008F075C08FE1F301848771C040E06F
:104B200066EF0E943B2F91E0D82ED926EF2CF12C76
:104B3000FFEFEF1AFF0A412E512CA701B201882D79
:104B40000E94702C182FB20161507109A701892DA4
:104B50000E94702CF82E8C890E94CD302FEF290DE9
:104B6000233010F020E001C021E03C89343029F4EA
:104B7000DD2019F049EF66EF17C094E0B9120BC0C1
:104B80008823D9F0222309F441C0DD2009F441C073
:104B90004FEF6CEF09C0E3E0BE120FC0882369F04D
:104BA000DD2059F046E065E0C3010E94E41F40E0CB
:104BB0006EEFC3010E94ED1F23C0112399F08BE01B
:104BC000F301838742E060E0C3010E94ED1F0750BC
:104BD0000930B0F48FE1F30184878CEE94E20E94F7
:104BE000B8200EC0222329F08823A9F0DD2099F0F7
:104BF000CFCF882381F0FF2071F0DD2061F0BACFA4
:104C000081E00AC0112309F450CFD9CF112399F3C1
:104C1000D6CF1111D4CF80E0DF91CF911F910F91AA
:104C2000FF90EF90DF90CF90BF90AF909F908F90CC
:104C30007F906F905F904F9008950F93CF93C82F00
:104C400000E021E04BEF53E264E170E083E190E0AB
:104C50000E94CE2CC13019F049EC53E202C041EE63
:104C600053E200E021E063E270E087E490E00E941C
:104C7000CE2CCF910F910C94322E8091CB0181508C
:104C80008093CB01882329F086E08093A9018AE0F4
:104C900004C086E08093A90188E08093CD0187E974
:104CA00093E20C94B8204091C0015091C101209131
:104CB000BE013091BF0142175307B4F49091E80050
:104CC0009570E1F39091E80092FD19C08093F10096
:104CD0008091C0019091C10101968F739927892B12
:104CE00019F48EEF8093E8008091C0019091C1018A
:104CF00001969093C1018093C00181E0089580E006
:104D00000895DF92EF92FF920F931F93CF93DF935B
:104D1000D82E8A017B01E40EF51EEB01CE15DF05CE
:104D200071F0D7FE03C0FE01849101C088810E940A
:104D3000532621968111F2CF8FEF9FEF01C0C8015A
:104D4000DF91CF911F910F91FF90EF90DF90089529
:104D5000615030F02091F100FC0120830196F8CFE2
:104D6000289884E68093C3010895CF92DF92EF9252
:104D7000FF920F931F93CF93DF936C017A018B0106
:104D8000C0E0D0E0CE15DF0589F0D8016D918D012E
:104D9000D601ED91FC910190F081E02DC6010995BD
:104DA000892B11F47E0102C02196ECCFC701DF915F
:104DB000CF911F910F91FF90EF90DF90CF900895CA
:104DC000CF93DF931F92CDB7DEB76983DC01ED91FE
:104DD000FC910280F381E02D41E050E0BE016F5F65
:104DE0007F4F09950F90DF91CF91089583E08093D5
:104DF000E9008091F200882319F08AE38093E800AB
:104E00000895FC018485958597FD0BC09FB7F894A4
:104E100082E08093E9008091F2009FBF90E00196CC
:104E200008959FB7F89482E08093E9008091F200A2
:104E30009FBF90E008950F931F93CF93DF931F922E
:104E4000CDB7DEB782E0898342E450E06BEE75E2D5
:104E500080E80E9481260E946330DC0112960D9149
:104E60001C9113970115110569F0D801ED91FC9182
:104E70000280F381E02DBE016F5F7F4FC80109956D
:104E800097FF07C089810F90DF91CF911F910F91FC
:104E90000895F80100851185E5CF0E94523090E019
:104EA0000895CF93DF931F92CDB7DEB7FC018485C1
:104EB000958597FD05C02FEF3FEF358724870BC001
:104EC000CE0101960E942830019719F4898190E063
:104ED00002C08FEF9FEF0F90DF91CF9108950F9356
:104EE0001F93CF93DF931F92CDB7DEB78C01FC01E8
:104EF0008485958597FF0EC0CE0101960E942830CB
:104F0000019719F4298130E002C02FEF3FEFF8013B
:104F100035872487F801848595850F90DF91CF919F
:104F20001F910F9108951F920F920FB60F921124A7
:104F30008F939F938091E1009091E100937F9093F4
:104F4000E10083FF0FC01092E90091E09093EB0025
:104F50001092EC0092E39093ED001092C40198E05F
:104F60009093F00082FF20C093E09093E90090912D
:104F7000F200992319F09AE39093E8009091C2010E
:104F8000992339F09091C20191509093C2019923D5
:104F900089F19091C301992339F09091C301915007
:104FA0009093C301992341F184FF10C08091E200E6
:104FB0008E7E81608093E2008091E1008F7E8093FD
:104FC000E1008091A5018E7E806111C080FF16C036
:104FD0008091E2008E7E80618093E2008091E1000A
:104FE0008E7E8093E1008091A5018E7E816080930A
:104FF000A50104C05D9ACDCF289AD6CF9F918F91FD
:105000000F900FBE0F901F9018951F920F920FB622
:105010000F921124CF92DF92EF92FF920F931F9382
:105020002F933F934F935F936F937F938F939F93B0
:10503000AF93BF93EF93FF93CF93DF93CDB7DEB7DB
:105040006C97DEBFCDBF1092E9008091E80083FF2E
:10505000EDC168E0CE0145960E94A82682EF8093BC
:10506000E8008D8987FF05C09091E80090FFFCCF94
:1050700003C09EEF9093E800982F907609F0C6C089
:105080009E892F89188D91110CC0803829F4809148
:10509000A6018093F10002C01092F1001092F1007D
:1050A00048C1422F50E0512B913051F4811141C140
:1050B0004130510509F03DC18091A6018D7F0BC0A3
:1050C000933061F4811135C14130510509F031C18E
:1050D0008091A60182608093A6012BC1953041F496
:1050E0008091E80080FFFCCF20682093E30021C17D
:1050F000963009F05FC0EB8CFC8C1092E9001092A6
:10510000C1011092C001123091F51092BF011092AE
:10511000BE010E941B2799E0BE016F5F7F4FDB013C
:10512000E92F1D92EA95E9F799831A8391E09E830E
:1051300090EA98879AEF99872091C0013091C10138
:10514000275F3F4F3C832B838D831092E9001092A1
:10515000C1011092C001F092BF01E092BE0149E08E
:1051600050E080E00E9481260E941B27E2C0F0925E
:10517000BF01E092BE010E946330DC011296ED9007
:10518000FC901397E114F10409F4C0C0D701ED912C
:10519000FC910480F581E02DBE016B5E7F4FC7015D
:1051A0000995009719F00CF0C4C0C7C0F701E0845E
:1051B000F184E8CF973009F4C0C0983021F481E041
:1051C0008093F100B6C0993009F0B3C0837009F044
:1051D000B4C0E3E8F1E081E021E036E39081992377
:1051E00061F08093E9002093EB0091919093EC00A3
:1051F0003093ED008F5F873089F78EE78093EA0068
:105200001092EA008F898093C40193C08B8D9C8D8E
:105210001092E9001092C1011092C0019093BF0159
:105220008093BE01898D811156C08E899D89913AE6
:1052300059F4813209F081C047E050E064E071E048
:1052400080E00E94812675C0913209F076C08332D9
:1052500089F4888D90E0982F88272F89822BA0E0F1
:10526000B0E08093000190930101A0930201B093FC
:1052700003015FC0803269F48091E80082FFFCCFB7
:1052800067E084E091E00E94A8268BEF8093E8001D
:1052900006C0823209F04DC08F8980930B01809146
:1052A000A401882319F0EEEFFAE002C0E0E0F8E094
:1052B0008091040190910501A0910601B091070130
:1052C000803B9440A105B10509F07BC080910B01A2
:1052D00080FF93C076C00E946330DC0112960D916E
:1052E0001C9113970115110541F1D801ED91FC9125
:1052F0000190F081E02DBE016B5E7F4FC8010995E2
:10530000811117C0F80100851185ECCF113009F427
:105310004EC0133091F48F89882309F445C0823040
:1053200081F440E860E18FE496E20E94EA34882349
:1053300021F08EEF8093E80079C081E28093EB004A
:1053400075C0813029F440E86BE083E496E2EDCF4C
:10535000833099F70E946330DC011296ED90FC9047
:1053600013978E010F5F1F4F6801E114F10479F06C
:10537000D701ED91FC910680F781E02DB801C701BE
:105380000995080F111DF701E084F184EECFD801D3
:105390001C92F60101900020E9F73197BF016C19CA
:1053A0007D0940E0C601C1CF6DE276E202C061E353
:1053B00076E26115710509F2FB01449150E080E845
:1053C00040CF0FB6F894A8958091600088618093D3
:1053D0006000109260000FBEA895EE3F2AE0F20731
:1053E00039F08091FE0A9091FF0A91838083A1CFCA
:1053F0001092FF0A1092FE0A9CCFEE3F8AE0F80757
:1054000031F0808191819093FF0A8093FE0A87E7B3
:1054100097E7918380839BE088E10FB6F894A89585
:10542000809360000FBE9093600083CF6C960FB6A0
:10543000F894DEBF0FBECDBFDF91CF91FF91EF910A
:10544000BF91AF919F918F917F916F915F914F919C
:105450003F912F911F910F91FF90EF90DF90CF9090
:105460000F900FBE0F901F9018953FB7F894809142
:10547000BA019091BB01A091BC01B091BD0126B5CC
:10548000A89B05C02F3F19F00196A11DB11D3FBF7C
:10549000BA2FA92F982F8827820F911DA11DB11D0A
:1054A000BC01CD0142E0660F771F881F991F4A9506
:1054B000D1F708958F929F92AF92BF92CF92DF92D1
:1054C000EF92FF926B017C010E94352A4B015C0137
:1054D000C114D104E104F104F1F00E94352ADC0189
:1054E000CB0188199909AA09BB09883E9340A105F7
:1054F000B10570F321E0C21AD108E108F10888EE85
:10550000880E83E0981EA11CB11CC114D104E104D3
:10551000F10419F7DDCFFF90EF90DF90CF90BF90AF
:10552000AF909F908F9008958F929F92AF92BF926D
:10553000CF92DF92EF92FF920F931F93CF93DF935F
:105540005C016B017A0180910B01882309F45BC037
:105550008091C401882309F456C08091A50180FF81
:1055600005C08091E00082608093E000E70110E0D8
:105570000AEF83E0882E9AE3992E2097D9F10E94B2
:10558000523081110AC0015009F43DC061E070E061
:1055900080E090E00E945A2AF0CF282F30E0C21716
:1055A000D3070CF48C2F4FB7F8948092E9009091B8
:1055B000E80095FF1DC0282F30E0C21BD30BF60179
:1055C000982F915020F081918093F100FACFC20E74
:1055D000D31E112319F09092E80009C08091E800D1
:1055E00085FD06C09092E80011E0209709F010E0D8
:1055F0004FBFC3CF1111C3CF5D9884E68093C20122
:105600001E141F0444F081E090E0F501938382832F
:1056100080E090E001C0C701DF91CF911F910F9111
:10562000FF90EF90DF90CF90BF90AF909F908F90C2
:1056300008951F920F920FB60F9211242F933F934C
:105640008F939F93AF93BF938091CE019091CF01A1
:10565000A091D001B091D1013091B90123E0230F85
:105660002D3720F40196A11DB11D05C026E8230F9A
:105670000296A11DB11D2093B9018093CE01909394
:10568000CF01A093D001B093D1018091BA01909144
:10569000BB01A091BC01B091BD010196A11DB11D3E
:1056A0008093BA019093BB01A093BC01B093BD015C
:1056B000BF91AF919F918F913F912F910F900FBE0E
:1056C0000F901F9018951F920F920FB60F921124F2
:1056D0002F933F934F935F936F937F938F939F93FA
:1056E000AF93BF93EF93FF938091B5019091B60173
:1056F000A091B701B091B801892B8A2B8B2B81F136
:105700008091B40181110BC098B180E4892788B9D8
:105710008091B301882319F088B1805888B98091AD
:10572000B5019091B601A091B701B091B8011816DA
:1057300019061A061B06B4F48091B5019091B601C2
:10574000A091B701B091B8010197A109B109809367
:10575000B5019093B601A093B701B093B80102C010
:105760000E940C20FF91EF91BF91AF919F918F917B
:105770007F916F915F914F913F912F910F900FBE4D
:105780000F901F9018958091B201E091B001F091B7
:10579000B101882349F0CF0102969093B101809323
:1057A000B001859194910895CF0102969093B10133
:1057B0008093B0018081918108959C01240F311D57
:1057C0001216130684F5803891056CF5FC0197FFDD
:1057D00002C0E0E0F0E02138310514F020E830E0CC
:1057E0002E1BAB014770552781E090E001C0880F68
:1057F0004A95EAF7809577FF02C0695F7F4F93E093
:10580000759567959A95E1F77695762F6627779542
:105810006795E60FF71FEE52FE4F215020F0908162
:1058200098239193FACF0895813038F1843038F17C
:105830008750893010F58AE0869F9001879F300D50
:105840001124849FB001859F700D1124EFEDF6E0C7
:10585000808184FF0DC083858B3051F482819381D8
:105860008217930729F4848195818617970739F069
:105870003D9687E0ED32F80759F780E0089581E022
:105880000895873028F4843038F5882329F126C01C
:10589000803120F58AE0869F9001879F300D11248A
:1058A000849FB001859F700D1124EFEDF6E080819B
:1058B00084FF0DC083858B3051F4828193818217E0
:1058C000930729F4848195818617970739F03D96CF
:1058D00087E0ED32F80759F781E0089580E00895F8
:1058E000853031F118F4882319F124C087508930AC
:1058F00008F58AE0869F9001879F300D1124849FD0
:10590000B001859F700D1124EFEDF6E0808184FFDA
:105910000AC0828193818217930729F4848195813B
:105920008617970739F03D9687E0ED32F80771F753
:1059300081E0089580E008958C3110F56F3FF1F01B
:105940006031F0F470E0982F969520E180FD0BC057
:10595000929FC00111248E529A4FFC01E60FF71F4F
:105960008681829509C0929FC00111248E529A4F60
:10597000FC01E60FF71F86818F70089580E008957F
:1059800081E00895CF93DF93CCE6D7E08D818E83BD
:105990000E94E4218D83DF91CF9108952F923F9251
:1059A0004F925F926F927F928F929F92AF92BF922F
:1059B000CF92DF92EF92FF920F931F93CF93DF93DB
:1059C000CDB7DEB761970FB6F894DEBF0FBECDBF7F
:1059D0004C017B012A875A8349831C821B821D82CA
:1059E0001E8268E070E0CE0101960E942A223C01EE
:1059F000AC014F5F5F4F5987488768E070E0CE0188
:105A000001960E942A226C0161E070E0CE010196AD
:105A10000E942A2228853985280D391D37FDFEC0B0
:105A200050E8851691040CF0F9C096012F5F3F4FA6
:105A3000A701420F531F57FDF1C060E4E616F104C1
:105A40000CF0ECC06701F7FE04C0CC24DD24CE18B6
:105A5000DF0877E0C722DD24A701F7FE02C0495F17
:105A60005F4F2A0153E0559447945A95E1F7F7FEAA
:105A700009C091E0491A510848E050E0FA01EC19D8
:105A8000FD096F01A90137FF02C0495F5F4F1A018D
:105A900043E0359427944A95E1F727703327232B69
:105AA00019F0FFEF2F1A3F0A002311F0730102C013
:105AB000E12CF12C8F8321E010E0A12CB12C88E0A7
:105AC00090E0AC014C195D095C874B87A214B304CC
:105AD0000CF0A4C041E050E061E070E0CE0101961E
