:100000000C94CA140C94F2140C94F2140C94F21480
:100010000C94F2140C94F2140C94F2140C94F21448
:100020000C94F2140C94F2140C94BD2C0C942C2D02
:100030000C94F2140C94F2140C94F2140C94F21428
:100040000C94F2140C94F2140C94F2140C94F21418
:100050000C94F2140C94F2140C94F2140C945E2F81
:100060000C94F2140C94F2140C94F2140C94F214F8
:100070000C94F2140C94F2140C94F2140C94F214E8
:100080000C94A82F0C94F2140C94F2140C94F21407
:100090000C94F2140C94F2140C94F2140C94F214C8
:1000A0000C94F2140C94F2140C94F214090FE8D28C
:1000B000D9ED76BB4EC7B7DD6EB7DBED7636090FEF
:1000C000E8D3E974FCDBED76BBDD6E6703090F1046
:1000D0009BCE6EB7DB753A36090FB8B2E9145FD71D
:1000E000ABCF85A2ED6CDB5901090FBC92EE55A98F
:1000F000A4D2AAAD53E4E9E8B6B303090FF8B6CA2F
:10010000F55FB9B5EBD436EEED6CDB5901090F386C
:10011000B39FEAB397770A4BDBD9B6B302090FBC9A
:10012000924EA5FAECE554CEC9D9D3F9EC367A094A
:100130000FB8B29F6AA2745FBB8E773B7B3A5A09B5
:100140000F38972ACA6B998E39BD1D5B090F5CA7C2
:100150003EF54D96DBF5B950B79D1D0C0A0318040A
:100160000207010A030D000D010D0214040005062B
:1001700007080A001F1F0361106104266103618CD8
:1001800061042102C101216103610C610421042188
:1001900061036146224222432142214221422142FF
:1001A00061218521A123022101C102C105C1026192
:1001B00021016103218201210228A1256121016120
:1001C00021C221C1216121C10121018C6121016173
:1001D00024A12161210221610C61210161C10382FD
:1001E0006322612C61266101C1026102610C61061A
:1001F00061220264C12501C10123612201C10121E3
:100200006121C18202622201C10125C10161012572
:100210006122C10122613461022500030803120436
:100220000A0A160E04180018011802180301011416
:10023000030A04100E001FC11861412215426241D9
:10024000C12201C110C242620221C1230C276202F5
:100250002101210223C1052301C10562820221C1BE
:100260000121022102C10122C101440362022603CD
:1002700023A12106234162C10F2143612101C10253
:10028000624489076123C10162034106C406610219
:10029000246101C10141C1024A036101C14102C19E
:1002A00061250F612242226184618609610B610F21
:1002B000610B610333000E0B0311011706010801E6
:1002C000100000010A0113011B01009110C10A6115
:1002D0000FC308630EC308630DC209620DC201C3D8
:1002E000056201630288C201C202C20262016202A7
:1002F000620B62096206650463086305C501640157
:10030000620464016204650662096204C50662094A
:10031000620465012C612F0C611B610F3C00090612
:1003200004070115011607060E021B001B0101013F
:100330001A0104061408000C2311C104C10243056C
:10034000C103C103612E612C618A014361176123DE
:10035000610289028A614361C10A6201C1028403A8
:100360002607C16126042161014605C1612302817E
:100370000121042161012603C16127C161210421FA
:1003800061014601C16127C122612104216185010A
:10039000C1612BC16121042161014301614BC12273
:1003A000612101C2012161012301610B22C161248C
:1003B000A12161014301612A61C122610661C1235A
:1003C000C16121C108612C43234A000104041602C3
:1003D0000207090E190E090200110017000201118F
:1003E000011701020211021702080215020407197F
:1003F0000A021101212121212210101201101111D4
:1004000011011111121223202021010000311200CC
:100410000000012003000006000000311115113416
:100420004444431151111111113100060036312697
:10043000030200212001003111111311321200605A
:100440002000020444310021032032221221020044
:1004500044444131600003003001444444444206B6
:10046000113115211300362216012600200110310A
:100470002502030062122160214443100031001064
:1004800003062066602600200300003034444362E7
:1004900003121002600013111111303002244300C6
:1004A000000020060302222230312166034430037B
:1004B000011113002001303606116066344300112B
:1004C000230000611111111111113063611111111B
:1004D00011110408031A09020A0A09021B001B0170
:1004E0001A010C0107081809001C880121610CC1C0
:1004F00001C105C121C10261216121412141214187
:1005000021412141A141214121412102C12101215A
:10051000C10161216104C103C1028601C12103211E
:10052000C1612241214121412141214121610561D6
:10053000012105A161214B61056108618A6123A147
:100540002361136121066102C102C10D61210662AE
:10055000276103C102C103612101C102C10162021D
:10056000C102C1016121412141214121412141219A
:10057000422141A1412162276126C1012307620274
:10058000C101C102612801220762276129012107F7
:100590006203C101C101612A02C102C102613C00C2
:1005A0000D0E04020E060E160E1A0E04090012009D
:1005B000090F120F00001B000A0E110E000783091D
:1005C0008204820226C18161286181C124C1810225
:1005D00027C1612861C126C1022861286128022340
:1005E000012461230561230322022302236123C323
:1005F000026123C382022302236126026126C18194
:1006000002230223612602610126C1022302236123
:100610002602610226022301C1236123056105230D
:100620000223C1246123C56122C3230228612861FA
:1006300022A1250227016128610121A124032602AC
:1006400061286102A1230C610861092D622D001A45
:10065000020604030A031508180B040E130E040007
:1006600000000112060A0E05030C031604170E0003
:10067000E11F182F6122196122A1214761C1026B7C
:1006800001610B6121C101610268016101C101C108
:1006900001C125610121C1610261086101230126B7
:1006A000610221610261C101C101C101C102610197
:1006B0002108610321C1016121A121A121A1210101
:1006C0006106A101C101C161042101610961042127
:1006D0006124610661016101610161026106610BD2
:1006E00061096105610C61016101610361062561B8
:1006F00008610161016103610A6109C22103610BA3
:10070000613C000A0403100102030A08031A0214E0
:100710000915090800160101030906001546618E36
:100720000D620C6147016121016221610261416139
:1007300007618561012161012161024561416141DA
:100740000A6102220221A1618461016121A1234386
:100750000122610122610221A16104610161210183
:10076000C12103C10361012101612182A1610661EF
:100770002102C12401426101C16121C101C261069E
:1007800061210225036101216121032161A1C105CC
:10079000210125C10142642161236101210521015B
:1007A000C12501C10161022101612201610221040F
:1007B00021012601614161012361012261032103BD
:1007C000216101C121C10121016101610221016198
:1007D0002101C161042103612601614161012101FF
:1007E0002201226107210A61082243294421412173
:1007F000432143000E0B03020319030D0B030C00EE
:100800000D000E0003030B0310031803001F086400
:100810001A6219640C8B6696668B018A668A048854
:100820006688088666860D83668308C101C101C19A
:1008300001C101C1026602C101C101C101C101C101
:100840000B6202620B2B622262366222622B01C1B2
:1008500001C101C101C10461026104C101C101C141
:1008600001C1013C0002060404010D09190A0B0E26
:100870000A1400150018001B001B011B021B031BA0
:10088000041B051B0603010E09180A020E0006418F
:10089000870283032303C104C14186C1220362226C
:1008A00062032361224105C12203622262C1066103
:1008B000024104C12203622262C10143C1026101FB
:1008C000C14103C12203622262C1014202236122AB
:1008D0004102C12203622262C1014206610241015A
:1008E000C12203622262C1014201C3236101C141ED
:1008F000C12203622262C1014201612201236122FD
:10090000412203622262C101420261C20121C1216E
:1009100061024101C102620262C10142016124011E
:10092000236101C1412B61410261C102C101C122A8
:100930006122418B614101612501236101C141C1F6
:1009400001C1026106410161C103C10121462302C7
:1009500061012401410161250D6122C22241016131
:10096000C103C1012C4126410127001B06040800D8
:100970001200080E120E06000001000900110019F5
:10098000001A0002001800080C120C0200011111DC
:1009900000222022200111110002323306033233DB
:1009A000333332330603323363231313230113111A
:1009B00003231313236110323332301033301032DB
:1009C0003332301301332323310300030133232354
:1009D000310031033333013011103103333301312E
:1009E0003130000031310601313000003130310347
:1009F00033330130111031033333013101332323F9
:100A000031030003013323233100503233323010DD
:100A10003330103233323013032313132361131195
:100A200063231313236132330603323333333233F8
:100A30000603323323011111032223222301111152
:100A40000322230306030322333223030603032274
:100A500023031313033233323303131303223232CB
:100A6000333232333333323233323233000303140E
:100A7000070E0A060F0F1B001B010F021B020F03BC
:100A80001B030F041B040F051B050F061B060F0796
:100A90000F081B0901030D030E03190302111111A5
:100AA0001111110000111111221110144444444479
:100AB00044444444444401101010311111111130C8
:100AC000001444443444400036366660003000165A
:100AD0000066300060113111112111300011131125
:100AE00015131010333330200630001603444443EE
:100AF0000016002630066130001203022203601146
:100B0000111115111130001603000663231006267B
:100B10006020013000111111311113100222202028
:100B20000134431600003006601066606626013608
:100B3000031260003011131311151111311111112D
:100B40001131111113134444444431110444443409
:100B50002044431306006660300630606030236036
:100B60006111311321311151311215111113110677
:100B7000366300300000300000000663660C00029F
:100B8000010E1A0E0200001B000102040217021AD5
:100B90000200E189078B6104840127028404620456
:100BA00083012A018304620482012C01820462040D
:100BB000810125C425018104620481012E01810483
:100BC00062053005620522C424C422056205300591
:100BD000620526C4260562062E06620481012E01E6
:100BE00081046204810221C422C4210281046204BE
:100BF00082022A0282046201C383C1022602618347
:100C0000C301612961C8612900120A030E03050AA4
:100C1000120C040C000C010C020C0302021503065A
:100C20000A190B02222222222222000222000000A4
:100C300002121111111211220001120000000121F3
:100C40000006001212120002120000000100321110
:100C500015100002000012000000610631111000A2
:100C60004444311212511111320331061044421220
:100C7000310000521111310331114440021231444C
:100C800044521111321331144400000032000006A6
:100C90000112311331446000112131000051122141
:100CA0003113344014444444300044444011301360
:100CB0000002100060023511200060003113115154
:100CC0002110211235112212212000031151200080
:100CD00000023500000060211111115124444444E8
:100CE000351100111120060111000006000230002C
:100CF0000000000111111211112113003003111213
:100D0000111111111401040E010609170B110C0F1A
:100D10001B001B011B021B031B041B051B061B07DF
:100D20001B081B091B0A1B0B1B0C1B0D1B0E0301B5
:100D30001101190105080024423701C1024105C112
:100D40000E23612161014121A1216126A1280123F6
:100D50006122610121A1216222C188C103236101B5
:100D6000226101A1226222C103C102C122610123C9
:100D70006102226101236222C104C1220161216258
:100D8000216202226101226322C102C12202642186
:100D900063C10121620121612162220222022162DA
:100DA0002364026121610161226221A12202216387
:100DB00023C164016122622362A1210263C1612314
:100DC00062C10262012261012361A101C121642685
:100DD0006124C10122610122610221630162236851
:100DE00002216201620163C102622361016201C1E9
:100DF0000261026121632162256123C101612161D8
:100E000024610563C10561022564C16125622A0070
:100E1000130E030C000505040E0F1B001B011B0223
:100E20001B031B041B051B061B071B081B091B0AB6
:100E30001B0B1B0C1B0D1B0E0F0015000201030EDC
:100E4000001F01C111C107612361042261220461F5
:100E5000236104612101C101216222652262210115
:100E6000C101216102216125612267216126612280
:100E70000964C1640A29692A0122C1220321672168
:100E80000222C12205230521652104230721072110
:100E9000632106211121612119216121192161217B
:100EA000192161211A610E3C00050B05000B110B85
:100EB0001B0B170F190F051700180C180D180E181B
:100EC0000F000106010C011201009806C104C105C2
:100ED000C105C10361042402240223A10222A1212D
:100EE000016109C104C106C1056104210221A122D9
:100EF0000222A12102A1230221016105C106C10331
:100F0000C106C10361042402240223A10222A121FB
:100F1000016108C105C105C1066104210222A121A8
:100F20000221A12202A1230221016106C105C105FE
:100F3000C104C10361042402240223A10222A121CD
:100F400001611B61043F3F3005370521000B0E0393
:100F50000603040A1A0C010D000101050310031A0F
:100F60000300890B850C61046104610B866101C17A
:100F7000036103610A6101C1042303610461096122
:100F8000012406610183026101C28203610A6103D7
:100F9000C10361014205618403C101610441026131
:100FA00006C1076101220161066107210761056130
:100FB00005432341220761066101820DC101C10180
:100FC0006107610941014102240161840361034712
:100FD0000141C108C2036101C106C101C10142084A
:100FE000220261022102290D610E254329432800B6
:100FF000030E04010203050E0E190E0200001B0071
:101000000E0103021902010501E1622102632102BE
:1010100063210321022102210221022102C12101B7
:10102000C12101C12101C12102210321022102218B
:101030000221022103632102632102210F21016E9B
:10104000210129C12501C125C124C1230123C124B6
:10105000C124C121012DC121016E2103810381031E
:101060008103210381038103810321038103810320
:101070008103210381038103810321038103810310
:10108000810321016E210126C1280123C123C1242E
:10109000C12201C128C1250122C128C123016E211D
:1010A0000F210363210263210221032101C12101D8
:1010B000C1210221022102C1210221022101C121FB
:1010C0000222622102632102632100150E05110034
:1010D00013001500020812090217001B000E020A75
:1010E0000406060108001682136126016123610FC0
:1010F00061210421016123610B6126032101612328
:10110000610B612104210321016123610761260331
:1011100021C32101612361076121042103250161AC
:1011200023610361260321C321056123610361213A
:101130000421032501612761260321C321056121C3
:101140000422612104210325016126032261210477
:1011500021C32105612104210322612104250161AC
:101160002501C321C3226121C421056121462143F8
:10117000214361260161250E6107613400140605D3
:1011800013010B0405061806170F011B00100106BA
:10119000061606130F00028306C102C10483024132
:1011A0000124022161046124610261032241026180
:1011B000012201216103612A610122410121612291
:1011C00002216125C122C125610121C1412261C1E4
:1011D00022C121610E6105216131A1296103C1058F
:1011E000C1116150612B018D0141610B61068106C6
:1011F0006141618A0161058101810561412201220C
:10120000012201226204810121018104614C6203F7
:10121000810123018103618C620281012501810228
:1012200061A121A121A121A121A121A121A16101CE
:10123000810122C32201810161410C6181012901E7
:101240008161410C000E050314060708150E0A0102
:10125000000101010201030104010501060107016A
:10126000080109040017060608140E004219470178
:10127000492149C14304C103C18403886143076113
:101280002202250522614305C1016107C121022116
:1012900001C121C1614304236102C104220221A1D1
:1012A0002241614302C104612561022107614301BA
:1012B000230361210321610221836124430761210A
:1012C000C10221610221036183014303612961237A
:1012D000036102C1014223016121C1012101C10257
:1012E0002103210361012342C1012261290321035A
:1012F0006101210242246183C241C221C102224311
:1013000061412242032161022341256121046102DE
:10131000C14201C101216104C10662046121610170
:101320004125612C612900160E02080F130F070DCD
:10133000000E00130014001500160017000A021119
:10134000021A0200070108C161260881C16125084F
:101350008101C16124088102C16123088103C16147
:1013600022088104C16121088105C16108810F81C2
:101370000F810562036B42026123C122C122C12396
:1013800001612347220334472242816123A82102BD
:1013900082612241C142C142C12382016B42820C5F
:1013A000640FC1610EC1610C6201C1610B226E2329
:1013B00001C16102C16102C16101C1236D2301C18B
:1013C0006102C16102C16101C1236D2100160804DF
:1013D00004000D000805170E07000002000C001B9A
:1013E00000110C110D110E05000E0018000905006A
:1013F000E182052503C103240461016124612461A4
:10140000260127620161246102C1016123C1220119
:1014100024C12262016121C221612B0424620125C1
:1014200061058E6205216109C102C1076102216166
:1014300001216125A1276101C101C1026102216170
:101440000121618501856148220121610121610439
:10145000C101C1046103C101C105C161012161254F
:10146000A1256127612261420121618B610761220F
:101470006103C16104C105412661016122612F41FF
:1014800004C101610161C12161210E4125A1210138
:101490006122612105C104C1034108613C001A08B1
:1014A0000314030906010303020002010202000300
:1014B0000B06130310030104A62604450129620448
:1014C00081016322048103C18162022204810462DA
:1014D00002C12204810481038162046603810581C3
:1014E000012AC1042C028101A2016722028101228A
:1014F0008101C1052202810122012301A1210122D2
:101500000281022101240121C1210381088102629B
:1015100003690829072BC1038104C105220381093E
:10152000C1A2042BC104290665C109810481680296
:1015300081012301A124012202810124A12401228D
:10154000028101A202C1220322028101220322029E
:10155000C122026221096121000E0F0317040B064C
:101560000A0B080F000F010F020F030F040F050FE6
:10157000060F07020016040A060C0B026001111187
:1015800011111110111111111111314440000400F9
:10159000061010000000000131610111101111103E
:1015A000131113111131316101001000601013117A
:1015B0001311113131610166111111101300130063
:1015C0006131316101111111111011131311113118
:1015D000316100600000000000131311113131610E
:1015E0001111311116000613130000313161000092
:1015F00030001111111311111131316131116113C9
:10160000060000130006013131613106001111118D
:101610001311111111313161303113060000130023
:1016200000600131316111111111111311111111EA
:101630003131316160010601060300100060313173
:1016400031513131313131111113111111313060FA
:101650003136313631006003006000310D0504027F
:10166000011901070F140F040D000E000D010E01EA
:1016700002001900060F150F011F046203630823FF
:10168000C1A2630565416604620962036E02620AD3
:10169000620265416905840964216208C121012152
:1016A00001236206C121012101260621C121012356
:1016B000A2C1062101210123A2C105C1210121C12D
:1016C0002605C1210121012362076421620C8408DF
:1016D00065416901620A62026E0262096203654144
:1016E000660623C1A263076203631F06000D0E0492
:1016F000160109051A0A000E091800180118021827
:10170000031804180518061807180816000103091D
:1017100004190A001F0CC105210123086183612BF4
:10172000012302C1018461042106C10221012302B7
:101730002161092104260123022261082104C10636
:101740002302236105C101210585012302246101D2
:101750008521C102C121046106466104260461831A
:101760000961042604610125066104260461012142
:10177000C109610426046101246106610E610561ED
:101780000482610E61056102C121026102C10B6127
:1017900005612402612D0161022400120C030A0379
:1017A0001203160C030E000E010E020A00120007AF
:1017B0000C150C001F1F1786066121610686066145
:1017C000836121C1612161C121618361066121C100
:1017D0000121610361276103612101C1216101616F
:1017E000240461816121012161816104246101621C
:1017F0002207612361072262026122076121012120
:10180000610722610361220761236107226103618D
:1018100022076121012161072261036122076123FF
:1018200061072261036122076121012161072261B1
:10183000036129612361296101C101612203C102A0
:10184000216101C101612102C1032261C15C00105B
:101850000F030C03140E0D0F0316001601160203DE
:10186000010E031A0E0C0F001F0582086109C10644
:1018700082016105826102C20524618203610483E1
:1018800021A1226121610761024121A1216102831D
:10189000C121C10261216103A2236102C1026181F0
:1018A00061420141266103A1C10361024104610358
:1018B0004401826104A1C1026106C16101C10561E7
:1018C000410721C1016121A12261466121A141613C
:1018D00041076121C161046102C1036103614107E4
:1018E0006101A16141036121A1246122416141079C
:1018F0006101816103C16102C1036102416141076C
:10190000614101C103416124A121610141C161C162
:101910004106610241046102C10361014261420664
:1019200061076122A123610361062A6106612A0021
:1019300003020413020408120B150E120100110118
:101940001201130114011A021A031A041A050406DB
:101950001A0604071A07090A0A0A0B0A0C0A0D0AD2
:10196000140204041407120E022012221221121172
:10197000221202212211212333333232122102306A
:10198000000322111123000632306660003000038C
:10199000060001232121323121123132111311119C
:1019A00001230600323066603030611311120123CA
:1019B00021233230111030302263611601233300AD
:1019C0006230000036300123212201230001123051
:1019D0000600323006034444012360030230111034
:1019E00032300123006211231111323001003630F0
:1019F00001030116012300203230000032300103C0
:101A00000002322300203444444444360103266655
:101A100031230026321111306231111111111123BD
:101A200000213200011111212444444431230600D5
:101A30003006000600000000066631211111121266
:101A4000222222222222222231020F03140008081D
:101A5000150E040000110016001B0013000B0107F7
:101A600008140E01E16F81082541018101A60125BD
:101A700041018101A60123C12141018101A3C1A22C
:101A80000123C12141018101A3C1A201254101819D
:101A900001A6012541018101A601254101810825F9
:101AA00041012DC1410321016221016221016241F5
:101AB00003210121012101210121012141016101B4
:101AC000C1210121C121C121C121C1220121022144
:101AD0000121012101210121012141012102622174
:101AE000016221016221410121024C01210A2141AF
:101AF00001410122692141C141012101214A0141E4
:101B0000C1210121016A4101210121014901410154
:101B1000210121082141C14101226921410141C125
:101B2000210A2143012101280122C121012107C1EC
:101B300021012401210127A1012401226E2100009D
:101B40000E030E0E130E1A0E0201000201100117F1
:101B5000010D0E140E001F1A61C104C16106C1619E
:101B600005C16105C1610461C10661C10561C105AD
:101B700061C104C16106C16105C16105C161046142
:101B8000C10661C10561C10561C104C16106C161D0
:101B900005C16105C1610461C10661C10561C1057D
:101BA00061C104C16106C16105C16105C161046112
:101BB000C10661C10561C10561C104C16106C161A0
:101BC00005C16105C1610461C10661C10561C1054D
:101BD00061C104C16106C16105C16105C1610461E2
:101BE000C10661C10561C10561C104C16106C16170
:101BF00005C161043C00070B02010E0A0E0400003F
:101C00001B0000011B011502020B0F0B090E00E166
:101C10001C9B6218630221A1220423A12202260236
:101C2000620221022203210421022104A102620294
:101C30002103220221072107620221042102210738
:101C4000210762022103C121022104C1022107628E
:101C50000221032202210322022104C10262022185
:101C6000C10122032103C1210221C102C12102625B
:101C700002240423A1220222A12302621A6201612A
:101C800026022602216124026201612103C1210290
:101C9000266101216122C121026201612104210228
:101CA0002201C1226102612402613C00130E031370
:101CB0000707040E000112000D00060415070501B8
:101CC0000011C212C10226612101C10B23A124050A
:101CD0006125A12107210621056121052107210296
:101CE000C103210561210521032801C10121C10290
:101CF000216125C22103210623A125610421A124FC
:101D00000121062107216102C1048101210121066F
:101D10002104612B016121012103C101C121046161
:101D20002109C10161210121022504612101C102B2
:101D30006121610161240124032101C12161240287
:101D40006123A121072101C1012461032101C16196
:101D5000210B250221610323A12113610F412141A0
:101D60002141214121412141214121412141214163
:101D7000214121412141214121000F0E0400020C8B
:101D8000061508080A0316001601160201020D06C0
:101D90001408070A001F1F02C121C10C21C103251D
:101DA00061286121612A61C103216101C1066121AC
:101DB0006104210561236125612A61216125C10238
:101DC0006105610A61216104C121612E612BC1613C
:101DD00022C1022106C121610621C10329612961B5
:101DE0002A61066123C101220261022202C123612C
:101DF00024612961236126C1016124612101C1257A
:101E0000C161236104246124612961266125610384
:101E10002161052103610221036102C13C00190017
:101E20000303050C090E0E0F1B001B011B021B03F5
:101E30001B041B051B061B071B081B091B0A1B0B8E
:101E40001B0C1B0D1B0E02050A070D080F0E0001CF
:101E500084C110C101C101220521610E6126052145
:101E6000610D61A1260521610C6121A122022205DB
:101E700021610B6122A122C1012201C10321610A5A
:101E80006121C121A122A2260221610861210161F3
:101E900021A1220222C10321C10121610661210188
:101EA000C16121A122022561012102226103612475
:101EB0006121A1220222C10221610121C10121610E
:101EC000C101612101C101C16121A122022461017D
:101ED00021610121022261266121A1220222C10188
:101EE00021610121610121C101216101C101C10201
:101EF0006121A122022361012161012161012101EE
:101F0000216125016121A122A2220121610121611A
:101F10000121610A6121A1220661026102610A6157
:101F2000083C000D090405081508090B110B090DE3
:101F3000000D010D020D030D040D050D060D070D1D
:101F400008080B0A0B100B120B004C034E88612182
:101F50004183412161894206C101612185216101DD
:101F6000C1074203C1022261820382612202C104CD
:101F70004202C122A181622141234121628121A12A
:101F80002101C1024201C12282618121A1816381BB
:101F9000A12181618223C10142C1228261856385C1
:101FA000618322C14121A183618663866184A1226C
:101FB00083610186638601618422036126A1610138
:101FC00061A12661042201C101610723076102C1E9
:101FD00001216103610721C121076104628361213D
:101FE000A12561016125A12161846201C10261060F
:101FF000610161066102C10262046102C103610103
:102000006102C1036105613C000C0E020B03150364
:1020100002000000010A030C031403160300E11F71
:102020001847610F614407610F610B612743256108
:10203000072103610F6106210282610F6106210100
:10204000C101C16104C121C105C36106210121C1D2
:102050002161820221012101C30123618203210246
:1020600021C12161C101C182C12101230121C121FD
:1020700061C101C181012102236121C12101C1216D
:10208000C101C301236121C1210221042161C121B8
:10209000C1012301230121C12161C121C101210508
:1020A000216121C12109236121C121086181610DC3
:1020B00061816109610F61042343294429002006DD
:1020C0004B000000190075054B00000019002705A2
:1020D0004B000000190097044B0000001900170482
:1020E0004B0000001900B8074B0000001900E00683
:1020F0004B000000190010034B0000001900BA0249
:102100004B000000190093024B00000019004B0225
:102110004B00000019000B024B0000001900DC030B
:102120004B000000190070034B00000019008801EB
:102130004B00000019005D014B00000019004A012E
:102140004B000000190026014B0000001900060199
:102150004B0000001900EE014B0000001900B8010F
:102160004B0000001900C4004B0000001900AF0034
:102170004B0000001900A5004B000000190093005F
:102180004B000000190083004B0000001900F7000D
:102190004B0000001900DC004B0000001900620039
:1021A0004B000000190057004B00000019005200BE
:1021B0004B000000190049004B00000019004100CD
:1021C0004B00000019007B004B00000019006E005E
:1021D0004B000000190031004B00000019002C00DA
:1021E0004B000000190029004B00000019002500D9
:1021F0004B000000190021004B00000019003E00B8
:102200004B000000190037004B000000190000804F
:102210004B024B0000000F004B024B0000000F0070
:102220004B024B0000000F0026014B000080E0062F
:102230000F0017040F0027050F0000800A08180080
:10224000600080002000400000006000900020003E
:1022500000000000000080100020800000800000CE
:10226000200000000040090FA8D69D2BA2AC932AA5
:1022700075BB08B3DBB106090F88769D7A995DCBF3
:10228000DA756AD46DD7B101090FB8969F6AA27446
:10229000D7ABCFCDBC9D753B2B0607A8D2E9743ACE
:1022A0002E0407723A9D8E0A06077C3A9D4E470718
:1022B00004079D4BA7A303030788E5030792CC04FB
:1022C00007B8D2E99C5304077C3A9D760E0607DED8
:1022D0006EB7DBED76070407A59276BB5D010607B6
:1022E000B7DBED76BBDD020407A5926ABBDD020316
:1022F00007F8743A0307759A100407D476BB924A1C
:102300002A0407B7DBAD5452011507A54E472555E2
:10231000552A1595F3D99C2293AA2A958A4AEA74DC
:102320005C95032907522E95AA4A95E272AA9295C6
:10233000755452E5B3924AAAAA542A6EE552A9549A
:102340004E71399F4E392EA9AA52A9A8A4AA646534
:102350006B4A550A2907D369A9A293AA9295ADA9F8
:10236000F64A4DEF54252BEBB8944BA5AA52A5B8CD
:102370009CAA64651D552A25552A2AE9F24949A9CE
:102380004A010E07A54E47E57C36A7C8A44EC7559F
:1023900071011307522E95AA4A95E2522E954AE5ED
:1023A0001497D4E9A8A44AA552394556390F07A570
:1023B000CB67B3924AAAAA542A2AE9F249C95539E5
:1023C00004050E11110E00121F10121915120A1118
:1023D000150A06051F04171515090E15150801190C
:1023E00005030A15150A121509061907EA5455AA14
:1023F0002AD59129974AA572159972A9542AA7B886
:10240000A4AA64656B2AA9AA52A9B82A2EF4F5F9E0
:10241000F6F7F8FBFAFFFCFDFE00020304010605D7
:1024200008090A070B0C0E0F008801640000001455
:1024300000DC036400000014004B0264000000286C
:102440000017046400000014002705640000001455
:1024500000200664000000280000802006640000C0
:102460000014002705640000001400170464000035
:102470000028004B02640000001400DC036400002C
:1024800000140088016400000028000080E0061E9F
:102490000000000A00E0061E000080D5F08D14A1A7
:1024A000C881CFD9F1AF20005717A38B2E2E471725
:1024B0005D74D145175D74D145175D721F5D74D190
:1024C00045175D74D145175D749129BAE8A28B2E2A
:1024D000BAE8A28B2EBAE8A28B2EBAE8A28B2EB94C
:1024E0008F2EB4499D4EC7A55C2A954AA5728A2EA7
:1024F0005795AA4A55E51C9772A9542A954A49143A
:1025000049974DE71D977255A9AA5455EEA24AE581
:102510002A9BAD5C2A2AE752A9543624DDD75755A9
:1025200095AA2A3559AE2A5595AACA392AA9F2CAB6
:10253000A525977255A9AA5455AEA35485ACE8A217
:102540008B2EBAE8A28B2EBAE8A28B2EBAE8A28B09
:102550002EBAE8A28B2EBAE8A28B2EBAE8A28B2E56
:10256000BAE8A28B2EBAE8A28B2EBAE8A28B2EBABA
:10257000E8A28B2E321B07B22E954A653BAD5D3625
:102580009D7754D265D3F9E894AB4A55A5AA721D3C
:10259000977255A9AA5455AE031007B22E954A65F5
:1025A000E3723EA77CCA9129974AA552A99C2202B0
:1025B00010079C72A9542A95CA292EE9B2E9BCE3F6
:1025C00052AE2A5595AACA75591FA38B2EA764E748
:1025D000D29DDCE7D28E2EB66D7ABAD8B6E9E96222
:1025E000DBA6A78B6D9B9E2EBAE862DBA6A78B6D40
:1025F0009B9E2E9B9E6D9BCFA6B7E9E972694717FC
:10260000DB363D5D4EE96D3EBA6C7A9B8F2E743998
:10261000974EC79C733A2E652B59C9CA756CD94A17
:1026200056B2728EAB9395AC64652353B69295AC5B
:102630005C872BE5D3E95CC7A57C3A9D53648E4B40
:1026400091392E2BD3E99CE2CB391D97B295AC641E
:10265000E53A2EE5D3D9C894AD64252BD7416FF761
:10266000B5AB4AA952A9C97255A9AA5455CE514928
:1026700095572E2DB994AB4A55A5AA721D2C1B5DFA
:1026800074D145175D74D145175D74D1C594EB7451
:102690002EBAE8A28B2EBAE8A28B2EBAE8A28B2E15
:1026A000BAE8A28B2EBAE8A28B2EBAE8A28B2EBA79
:1026B000E8A28B2EBAE8A28B090A100000000000E5
:1026C000000000000000000000000000000000EF1B
:1026D000EFE0EFEFEFEF0FEFEF010101010101017B
:1026E000000101FFFFFFFFFFFFFFFFFF00010101EE
:1026F000010101010101000000FF42424242FF00CE
:1027000000000003000000000300000202020202B9
:10271000020202020200000000000000000000EFC0
:10272000AFE06FEFEFED0FEBEF01010101010101F0
:102730000001010000B0B000B0B0000000000001D6
:1027400001000101000000EFEFE0EEEEEEEE0EEF13
:10275000EF01010101010101000101EEECE0E8E8F7
:10276000EAE808ECEE01010101010101000101ECC0
:10277000E0C0C088808000E0EC010101010101019E
:10278000000101E08000000800010086E001010175
:102790000101010100010100000000000000000033
:1027A0000000000000000000000000E08080000049
:1027B00000000080E001010101010101000101ECC4
:1027C000E0C0808080C000E0EC0101010101010156
:1027D000000101EFECE0E8E8E8E80CECEF010101B2
:1027E00001010101000101EFEFE0EEEEEEEE0FEF6F
:1027F000EF010101010101010001013F0FA5AA64E0
:10280000656B2AA9AA52A9B83A5595AA4A755CCE11
:10281000A7538E4BBA7C362BA9A4AA4AA5E2562E02
:1028200095AA4A95E272AA92957554D2E5B3594990
:102830002555552A15D2A5AA64656B2AA9AA52A9BD
:10284000B83A5595AA4A755CE9B454F13955C9CAE4
:102850003A2AA92A59D99A2A9D962A7EE552A9AAE6
:1028600054292EA72A595947255D3E9B9554525508
:10287000A55221122C07EA5455AA2AD571A5D35284
:10288000C5E754252BEBA8A4AA64656BAA745AAAC1
:10289000F8954BA5AA52A5B89CAA64651D9554F954
:1028A000ACA492AA2A954A010207A5533609000052
:1028B000F4019C00A5000000A80093009C0000000B
:1028C0000900E9009C0000000900A5009C00000030
:1028D0000900F7009C0000000900A500A500000009
:1028E000A800E900A5000000A80083009C000000EB
:1028F0000900D0009C000000090093009C0000002B
:102900000900E9009C000000090093009C00000001
:1029100009008B009C000000D0070180080B00021A
:102920000202010009040000010202000005240067
:1029300010010524010101042402060524060001FA
:102940000705810310004009040100020A0000008D
:10295000070502024000000705830240000004034F
:10296000090412010002EF020140412336800001F8
:102970000102030141726475696E6F204C4C430083
:1029800041726475696E6F204C656F6E6172646F21
:102990000000093011241FBECFEFDAE0DEBFCDBF4B
:1029A00011E0A0E0B1E0E2E2FCE602C005900D9289
:1029B000AE3AB107D9F727E0AEEAB1E001C01D9207
:1029C000AC3FB207E1F714E1CAECD4E104C02197AF
:1029D000FE010E940936C93CD107C9F70E94553053
:1029E0000C940F360C9400008091C301089581501F
:1029F000833008F18AE0869F9001879F300D112473
:102A0000849FB001859F700D1124E0E0F3E0808188
:102A100084FF0AC0828193818217930729F48481FD
:102A200095818617970739F03E9683E0E435F807DD
:102A300071F780E0089581E00895873030F48430A4
:102A400040F5882331F180E008958031E0F78AE095
:102A5000869F9001879F300D1124849FB001859F30
:102A6000700D1124E0E0F3E0808184FF0DC08285C9
:102A70008B3051F4828193818217930729F48481EA
:102A8000958186179707F9F23E9683E0E435F807BB
:102A900059F781E00895853039F120F4882321F138
:102AA00080E0089587508830D8F78AE0869F9001AB
:102AB000879F300D1124849FB001859F700D1124D4
:102AC000E0E0F3E0808184FF0AC082819381821775
:102AD000930729F4848195818617970709F33E9619
:102AE00083E0E435F80771F781E00895982F8C3181
:102AF00098F46F3F99F0603198F4E82FE69580E103
:102B0000E89FF0011124E651FE4FE60FF11D86818A
:102B100090FF82958F70089581E0089580E0089578
:102B200082E00895E82FE69590E1E99FF0011124F5
:102B3000E651FE4FE60FF11D968180FD08C09F70A3
:102B400080E1489FA0011124942B96830895907FE3
:102B5000492B46830895AF92BF92CF92DF92EF92B6
:102B6000FF920F931F93CF93DF93E0E0F3E0062EE5
:102B7000000C770B042E000C550B208124FD07C0A0
:102B80003E9623E0E435F207C1F780E037C02F70AE
:102B9000DC013C913F70231799F32181022F0F70C4
:102BA000A281B3810A0F1B2F111DE480F580DC0187
:102BB0001296CD91DC911397C60FD71F1496AD9046
:102BC000BC906801BAE0CB0ED11CCC15DD05C4F673
:102BD0002A960C171D07A4F622952F702E0D3F2D57
:102BE000311DD501A40FB51FE9012A96AC17BD0709
:102BF0003CF61A962A173B071CF681E0DF91CF912D
:102C00001F910F91FF90EF90DF90CF90BF90AF900A
:102C10000895480F592F511D1416150694F5803844
:102C200091057CF597FF02C090E080E041385105A6
:102C300014F040E850E0481BFB01E770FF2721E05B
:102C400030E001C0220FEA95EAF7209577FF02C035
:102C5000695F7F4FFB0133E0F595E7953A95E1F722
:102C6000F695FE2FEE27F795E795E80FF91FEC5A3A
:102C7000FC4F415030F08191DF01119782238C93FA
:102C8000F8CF08958091E20190E02091EC0130911D
:102C9000ED01821B930B2AE030E0B9010E948A34D7
:102CA000863020F0A901481B5109CA0121E005978F
:102CB0000CF020E0822F0895CF92DF92EF92809166
:102CC000F007282F30E0F901EE0FFF1FE20FF31F8E
:102CD000EC54F84F20813181428181508093F0077C
:102CE000E4EBF7E090E0981740F4C380D480E580EF
:102CF000C192D192E1929F5FF6CF842FB901EF90FC
:102D0000DF90CF900895FC018091E001882311F1BC
:102D10003FB7F89482E08093E9002091F200822F7F
:102D200090E01816190614F481E090E0882339F039
:102D3000289844E64093DF014091F100408322232C
:102D400039F02091F200211103C02BE62093E80016
:102D50003FBF08958FEF9FEF08952FB7F89483E05A
:102D60008093E9009091E800892F807295FF04C05C
:102D70009091F20080E4891B2FBF08958091D701C4
:102D800081110DC082E08093D30184E08093D4014F
:102D90001092D6011092D50181E08093D70183ED86
:102DA00091E00895CF93DF931F92CDB7DEB769838B
:102DB000DC01ED91FC910280F381E02D41E050E0D7
:102DC000BE016F5F7F4F09950F90DF91CF910895FE
:102DD00083E08093E9008091F200882319F08AE370
:102DE0008093E80008950E94AD1690E00895CF9377
:102DF000DF931F92CDB7DEB7FC018485958597FDE3
:102E000008C02FEF3FEF358724870F90DF91CF91D8
:102E10000895CE0101960E948316019719F48981C5
:102E200090E0F3CF8FEF9FEFF0CF0F931F93CF93EF
:102E3000DF931F92CDB7DEB78C01FC0184859585A9
:102E400097FF0BC0CE0101960E948316019771F483
:102E5000898190E0F80195878487F80184859585BC
:102E60000F90DF91CF911F910F9108958FEF9FEFFA
:102E7000F1CFFC018485958597FD0BC09FB7F89431
:102E800082E08093E9008091F2009FBF90E001967C
:102E900008959FB7F89482E08093E9008091F20052
:102EA0009FBF90E008954091CD015091CE012091B7
:102EB000CB013091CC0142175307B4F49091E80054
:102EC0009570E1F39091E80092FD19C08093F100B4
:102ED0008091CD019091CE0101968F739927892B16
:102EE00019F48EEF8093E8008091CD019091CE018E
:102EF00001969093CE018093CD0181E0089580E00A
:102F00000895EF92FF920F931F93CF93DF93F82EC4
:102F1000192FE62E042F81E0860F880F0E94531789
:102F200083E00E945317CF2DD12FEC0EFD2EF11C04
:102F3000CE15DF05B9F007FF13C0FE0184910E9492
:102F40005317182F80E00E94531781232196811177
:102F5000EFCFDF91CF911F910F91FF90EF900895E8
:102F60008881EDCF81E0F5CFDF92EF92FF920F9352
:102F70001F93CF93DF93D82E8A01EB017B01E40EE0
:102F8000F51ECE15DF0559F0D7FE12C0FE01849163
:102F90000E94531721968111F4CF0FEF1FEFC80144
:102FA000DF91CF911F910F91FF90EF90DF900895E7
:102FB0008881EECF0F931F93CF93DF931F92CDB7EE
:102FC000DEB782E0898342E450E06CE179E280E898
:102FD0000E94B4170E94BE16DC0112960D911C913E
:102FE0000115110589F0D801ED91FC910280F38162
:102FF000E02DBE016F5F7F4FC801099597FD04C0AA
:10300000F80100851185ECCF89810F90DF91CF9178
:103010001F910F910895615030F02091F100FC0153
:1030200020830196F8CF289884E68093DF010895E5
:103030003FB7F8948091BF019091C001A091C10168
:10304000B091C20126B5A89B05C02F3F19F001968B
:10305000A11DB11D3FBFBA2FA92F982F8827BC01F2
:10306000CD01620F711D811D911D42E0660F771F1A
:10307000881F991F4A95D1F708958F929F92AF921A
:10308000BF92CF92DF92EF92FF926B017C010E9480
:1030900018184B015C01C114D104E104F104B9F02A
:1030A0000E941818681979098A099B09683E7340BB
:1030B0008105910580F321E0C21AD108E108F108E9
:1030C00088EE880E83E0981EA11CB11CE4CFFF900F
:1030D000EF90DF90CF90BF90AF909F908F9008952A
:1030E0008F929F92AF92BF92CF92DF92EF92FF9218
:1030F0000F931F93CF93DF936C017B018A01809123
:103100000C01882309F45CC08091E001882309F454
:1031100057C08091D20180FF05C08091E00082609D
:103120008093E000E801B12C8AEFA82E93E0892E6D
:103130002AE3922E209711F4BB20D9F10E94AD16FC
:1031400081110AC0AA94AA20D9F161E070E080E060
:1031500090E00E943D18EECF8C171D0611F00CF088
:103160008C2F9FB7F8948092E9002091E80025FD0C
:1031700002C09FBFDFCF282F30E0C21BD30BF70167
:10318000815020F041914093F100FACFE20EF31EFE
:10319000BB2021F09092E800B12CEBCF8091E800A9
:1031A00085FDE7CF9092E800BB24B394209709F304
:1031B000F3CF5D9884E68093D101101611063CF0A0
:1031C00081E090E0F6019383828310E000E0C80183
:1031D000DF91CF911F910F91FF90EF90DF90CF90F3
:1031E000BF90AF909F908F9008952091B701E0918C
:1031F000B501F091B601CF0102969093B60180938C
:10320000B501222319F085919491089580819181CF
:103210000895E1E7F0E080818D7F80831092910036
:10322000469847981092C9010895CF92DF92EF9285
:10323000FF92CF93DF930E94F518811520E8920743
:1032400041F4DF91CF91FF90EF90DF90CF900C94FD
:10325000091921E02093C901813020E8920751F437
:103260008091B3019091B4019093B6018093B50120
:103270000E94F51897FD05C02091B201222309F4A0
:103280005BC02091B101211157C021E02093B8010A
:10329000EC01DF77209709F052C081E08093B901FB
:1032A00046983FE9C32E3FE0D32EE12CF12CCAEF24
:1032B000D0E0E091B207F091B3070995811103C006
:1032C00081E08093B9018091B801882329F0809131
:1032D000B901882309F446C047980E94F518009761
:1032E00009F444C09C01DE010E94EE35DC01CB01F3
:1032F00029E0B595A795979587952A95D1F71092CE
:1033000090002AE020939100D0929900C0929800FA
:103310008093BA019093BB01A093BC01B093BD010F
:1033200080917100826080937100DF91CF91FF9056
:10333000EF90DF90CF9008951092B801A9CF9E0131
:1033400050E040E060E472E48FE090E00E949A3543
:1033500069017A0181E0C81AD108E108F1081092E8
:10336000B901A7CF4699B8CF479AB7CF8FEF9FEF54
:10337000DC01C5CF9C01E1E7F0E090819D7F908367
:1033800081E08093B7013093B6012093B50130936B
:10339000B4012093B3010C9415197F928F929F92E0
:1033A000AF92BF92CF92DF92EF92FF920F931F9353
:1033B000CF93DF93DC01FA01D490319694914E5F64
:1033C0005F4FCD2DD0E02223E1F001E010E0892F06
:1033D000877011F410E000E0E92FE695E695E69598
:1033E000E00FF12FF11DEC9F8001ED9F100DFC9F70
:1033F000100D1124209FF001219FF00D11244E0F7C
:103400005F1F7E01EA0EFB1E1E141F040CF0A6C0F7
:10341000A038B1050CF0A2C09B01290F311D121676
:1034200013060CF09BC0603471050CF097C0411579
:10343000510509F493C0062F07709B0177FF02C066
:10344000295F3F4F83E0359527958A95E1F7F22F65
:1034500077FF04C0002311F0FFEFF20F222733277C
:103460002A1B3B0BB7FD02C030E020E010E81A1B1E
:10347000712E10E8E116F1040CF47D2C721A6F2FF6
:103480000F2E000C770BF62EF094FF3F0CF0F12C72
:10349000E1E0892F877009F4E0E09695969596957E
:1034A0009E0F690F711D6930710514F098E09F1B24
:1034B0009F2C9F0E692D70E8670350011124AA0DFF
:1034C000BB1DA20FB31FDF9C200D311D1124420F25
:1034D000531FC02E002E000CDD082FEF30E0002E11
:1034E00002C0220F331F0A94E2F720953095832EF5
:1034F0009F0F991599F1FD01EC5AFC4F7F01B12CFA
:10350000A12CA71428F5FA01EA0DFB1D649170E0C7
:103510000C2C02C0660F771F0A94E2F797FC05C0D7
:10352000F70180818223862B8083002351F0F6E00F
:10353000F9153CF0F701E058FF4F80818821872B77
:1035400080831FEFA11AB10A6FEFE61AF60AD9CFEE
:1035500093944C0F5D1FA058BF4FCBCFDF91CF91FD
:103560001F910F91FF90EF90DF90CF90BF90AF90A1
:103570009F908F907F900895BC0190E080E00C9424
:103580003D188FB18095807F669B88601C9B84600E
:10359000089580389105B8F460347105A0F420E1F5
:1035A00091E061FD94E060FD990F62FD9295687F66
:1035B000269FD0011124A80FAC5ABC4F8C914423F4
:1035C00019F0892B8C93089590958923FBCF8F92C6
:1035D0009F92AF92BF92CF92DF92EF92FF920F93A2
:1035E0001F93CF93DF935C01EB01042FE22E603435
:1035F000710510F40E940916EC0EFD2EF11CB701A6
:10360000615071096034710520F4402FC5010E949A
:103610000916D7FF02C0D0E0C0E04E01670181E487
:10362000E816F1041CF080E4C82ED12C8C149D0403
:103630004CF440E0B401C5010E94C91A8FEF881A0A
:10364000980AECCF0A0D1B2D111D01501109CC1544
:10365000DD053CF440E0BE01C8010E94C91A219674
:10366000F6CFDF91CF911F910F91FF90EF90DF90F8
:10367000CF90BF90AF909F908F90089508951F9323
:10368000CF93DF93DC0130E020E050E040E011E038
:10369000C1E0D0E02617370791F114968C9114976A
:1036A000811115C014961C93149712968D919C91BC
:1036B0001397ED91FC911197E80FF91FE49115967E
:1036C000EC931597019613969C938E9312971496EC
:1036D0009C91149715968C911597892349F0FE01BA
:1036E000022E02C0EE0FFF1F0A94E2F74E2B5F2B53
:1036F000990F14969C9314972F5F3F4FCBCFCA011D
:10370000DF91CF911F9108952F923F924F925F9238
:103710006F927F928F929F92AF92BF92CF92DF92E1
:10372000EF92FF920F931F93CF93DF93CDB7DEB746
:103730002F970FB6F894DEBF0FBECDBF4C017B01B3
:103740002C870D875A8349831C821B821D821E820F
:1037500068E070E0CE0101960E943F1B1C019C01B5
:103760002F5F3F4F3B872A8768E070E0CE010196CC
:103770000E943F1B8C0161E070E0CE0101960E9427
:103780003F1B2A853B85280D391D37FDF5C030E8E4
:10379000831691040CF0F0C00F5F1F4F98012E0D9F
:1037A0003F1D37FDE9C040E4E416F1040CF0E4C02D
:1037B0006701F7FE04C0CC24DD24CE18DF0857E0F3
:1037C000C522DD242701F7FE03C097E0490E511CF6
:1037D00073E0559447947A95E1F7F7FE09C021E02C
:1037E000421A510828E030E0A9014C195D096A012C
:1037F000980117FF02C0295F3F4FA90163E055956B
:1038000047956A95E1F758874F8307701127012B79
:1038100021F04F5F5F4F58874F830D857101011174
:1038200002C0F12CE12C898701E010E0B12CA12C21
:1038300088E090E09C012C193D093F872E874F813D
:103840005885A416B5060CF097C066246394712CB5
:1038500061E070E0CE0101960E943F1B892B21F4AC
:1038600052E0650E711CF4CFB301CE0101960E94A7
:103870003F1B01963C0170E060E06615770508F09B
:1038800071C089858111102BA02FAA0F09F067C084
:10389000A2014A0D5B1DCA0101960997D0F5C4012A
:1038A0008E0D9F1D80389105A0F5CA019695982F21
:1038B000882797958795880D991D8E0D9F1D4F3FE1
:1038C000540709F454C0212F0C2C01C0220F0A9474
:1038D000EAF7FC01EC5AFC4FB0810C85002371F132
:1038E0002B2B2083C114D104A1F04730510589F05E
:1038F000212F30E00E8402C0359527950A94E2F717
:10390000FC01EC52FC4F10814C854423D1F0212B5B
:1039100020830D85011118C02FEFE21AF20A4A85A3
:103920005B85E416F506CCF05FEFA51AB50A01E059
:10393000F12CE12C6F5F7F4F1A2F9FCF20952B2307
:10394000D0CF20952123E4CF81E0E81AF108F7FEDB
:1039500004C09FEFA91AB90A710101E0EBCF0A2F49
:10396000A12FE8CF298531E02327298768CFC1140B
:10397000D10409F0BDCFCDCF2F960FB6F894DEBF9E
:103980000FBECDBFDF91CF911F910F91FF90EF90B0
:10399000DF90CF90BF90AF909F908F907F906F906F
:1039A0005F904F903F902F9008958091E20190E0BA
:1039B0002091EC013091ED01821B930B6AE070E0E5
:1039C0000E948A349C0181E0232B09F080E0089555
:1039D0009091E801981714F0691714F48093E801A6
:1039E00008951092E3011092EE0182E08093E401C9
:1039F0001092EF018091E201873160F08091EC013B
:103A00009091ED0189399F4F2CF01092E4018EEFD7
:103A10008093EF010895FC012285261714F04217C8
:103A200014F4FC01628708958091E701815080932E
:103A3000E70196E090930001882339F08AE08093B3
:103A4000E9018BE594E20C94BA1988E0F8CF882359
:103A500029F083508D3010F080E0089581E00895C2
:103A6000813028F0843028F08750893010F080E0D1
:103A7000089581E00895CF93DF9382EB90E00E9458
:103A800056358093D00283EB90E00E945635C1EE0C
:103A9000D1E08E8384EB90E00E945E359D838C8321
:103AA000DF91CF910895CF93DF93D82F8FEA90E0E5
:103AB0000E945635C82F80EB90E00E945635D111F8
:103AC00004C0CC3411F4823539F16CE48FEA90E013
:103AD0000E94643562E580EB90E00E94643586EBDD
:103AE00090E00E945635682F81EB90E00E9464358B
:103AF00087EB90E00E945635682F82EB90E00E94A1
:103B0000643588EB90E00E945635682F83EB90E097
:103B1000DF91CF910C946435DF91CF9108951F937D
:103B2000CF93DF93C091D0026C2F82EB90E00E9484
:103B300064356C2F87EB90E00E946435C1EED1E0D4
:103B40001E81612F83EB90E00E946435612F88EB2A
:103B500090E00E9464350C80DD81C02DBE0184EBB5
:103B600090E00E947635BE0189EB90E0DF91CF9125
:103B70001F910C947635BF92CF92DF92EF92FF9215
:103B80000F931F93CF93DF93EC016E834F83862FA8
:103B9000880F880F860F8F70A42FAA0FAA0FA40F6B
:103BA00090E1A902D00111248A2B89838CE067FD62
:103BB00003C0662311F084E08C8747FF44C01C8655
:103BC0002223B9F11985111134C08C85811141C0AE
:103BD0001D868A819B812AE030E0B9010E949E34D3
:103BE000062F8C819D81B9010E949E34FF24FA9496
:103BF000F60ECC24CA94C00EBB24B394B00EDF2CB6
:103C0000D11A6D2D802F0E947615833089F46D2D89
:103C10008C2D0E947615E82E6D2D8B2D0E94761529
:103C20001F5F9DEF9E0D923018F08350823038F761
:103C30001987DF91CF911F910F91FF90EF90DF9047
:103C4000CF90BF900895442309F4BACF88E08C87C1
:103C5000B7CF0E94FE3426E030E040E050E00E9402
:103C60009A356987E6CF4F925F926F927F928F92DB
:103C70009F92AF92BF92CF92DF92EF92FF920F93FB
:103C80001F93CF93DF93CDB7DEB73C01502E4B8807
:103C90009C88BD88203108F0BDC0082D9E2D842E43
:103CA000E62EE22FF0E0E95AF14E0C940936671E39
:103CB000671E671E831E831E831E0C1F0C1F0C1F96
:103CC0000C1F0C1F3F1F3F1F3F1F671E671E9923BE
:103CD00021F0935010E0923008F411E046EF60E0DC
:103CE000C3010E94AB1593E0591294C01123E1F176
:103CF000811190C046E065E0C3010E940B1D2B2D91
:103D00004EEF60E02EC040E06AE0C3010E94AB15B8
:103D100011E01827912CEFEF8E1A9E0AF12CA401C6
:103D2000B701802F0E944B15D82EB7016F5F7F4FD0
:103D3000A4018A2D0E944B15E82E8C2D0E94271D70
:103D4000F82E8A2D0E94301DF4E0CF121FC01123DF
:103D5000E9F04AE067E0C3010E940B1D2B2D40E013
:103D600062E0C3010E94BB1D812FDF91CF911F91A3
:103D70000F91FF90EF90DF90CF90BF90AF909F900A
:103D80008F907F906F905F904F90089594E05912BC
:103D900014C0FF20D9F0882309F4D1C0112309F4FD
:103DA000D5C044E061E0C3010E940B1D2B2D40E013
:103DB00062E0C3010E94BB1D17C0E3E05E1206C0B3
:103DC000FF2021F046E065E01111C5CFDD20B1F004
:103DD0008BE0F30182872B2D42E060E0C3010E945B
:103DE000BB1D0750093010F011E0BECF8FE1F30189
:103DF00083878DE894E20E94BA19F6CF882331F0C8
:103E0000FF2041F0112309F4AFCFCBCFFF2011F0F9
:103E1000E110F8CF10E0A8CF4AE060E0C3010E94B3
:103E2000AB1511E01827482D50E04F5F5F4F6E2D06
:103E300070E0802F0E944B15033059F4112309F4D0
:103E400093CF4BEF6AEFC3010E940B1D2B2D42E075
:103E500058CF8823F9F2112309F486CF8BE0F301C0
:103E600082872B2D42E060E0C3010E94BB1D0750FA
:103E7000093008F0B9CF8FE1F301838775CF40E0B7
:103E800066EFC3010E94AB1511E01827C82CD12C96
:103E9000FFEFCF1ADF0AF12CA601B701802F0E9495
:103EA0004B15A82EB70161507109A601842D0E94FF
:103EB0004B15E82E892D0E94271DF82E842D0E9477
:103EC000301D94E099120BC0112349F049EF66EFC1
:103ED000C3010E940B1D2B2D40E06EEF6ACFE4E082
:103EE0005E1209C0FF20B9F0882369F1112391F116
:103EF0004FEF6CEFEDCFF3E05F120DC0FF2059F0F4
:103F0000112349F046E065E0C3010E940B1D2B2DF3
:103F100040E06EEF26CFA1105BCF882339F0FF2061
:103F200009F478CF112309F41FCFE2CFFF2009F461
:103F300071CFEE2009F46ECF1111C8CF15CFDD205F
:103F400009F466CF45CFAA20A1F342CFDD2009F4C2
:103F50000BCF3ECFAA2009F407CF3ACF2F923F9242
:103F60004F925F926F927F928F929F92AF92BF9289
:103F7000CF92DF92EF92FF920F931F93CF93DF9335
:103F8000CDB7DEB72E970FB6F894DEBF0FBECDBF0C
:103F90008091E10190E02091EA013091EB01821BD8
:103FA000930B05962AE030E0B9010E948A34162F5F
:103FB0006E878091E20190E04091EC015091ED011B
:103FC000841B950B0596B9010E948A347B016D878D
:103FD00080910001853009F077C1812F0E9476150C
:103FE000082FC090F607D090F707D094DC201092ED
:103FF000E3011092EE018091E8018B3021F01092E4
:10400000E4011092EF016E2D812F0E94761586300B
:1040100071F58091E5019091E60149969093E60152
:104020008093E50140E06E2D812F0E9492158091D2
:10403000D102882319F081508093D102B090D1022F
:10404000B11011C08091D202B81668F4EB2DF0E0E7
:10405000EE0FFF1FEC52FD4F43E0618180810E9413
:104060009215B394EFCF8EE292E20E94BA1980913A
:10407000AF019C2D9C709C3009F0E4C18F5F809350
:10408000AF01853130F08D3308F469C08D3309F408
:1040900079C08D2D8470D3FC02C00C945E2C8111EC
:1040A0000C94612C0E94D51C882311F40C94612C73
:1040B0008091E10190E02091EA013091EB01821BB7
:1040C000930B02966AE070E00E948A34162FDD247A
:1040D000DA94D60E6E2D8D2D0E947615A82EBB2457
:1040E000B394BE0C6B2D8D2D0E947615813011F08E
:1040F0000C94612C8FEF8A0D823010F40C94612C9B
:1041000053E0A51611F40C94612C84EF8093E80120
:104110001092E3011092EE0147E06B2D8D2D0E946D
:1041200092158091F007843169F093E0899FF00146
:104130001124EC54F84FD082B1829CED92838F5FB2
:104140008093F0078091F6078093F7070E94C11AC9
:104150008093F60780E192E20E94BA1922C020E41F
:1041600030E0A901481B5109CA01880F93E894BDAA
:104170009FEF97BD91EF90938000109288008093FD
:104180008A0087CF1092AF0183E884BD8FEF87BD8F
:1041900081EF809380001092880010928A000E9424
:1041A000141D8091F40780FD8FC0109201031092BE
:1041B0000F0310921D0310922B03109239031092DB
:1041C0004703F0E06F2EF3E07F2EF301808184FF40
:1041D00072C0828193816AE070E00E949E34D62E84
:1041E0006987848195816AE070E00E949E34F62E92
:1041F0006A878D2D0E947615B82EEE24E394EF0C7D
:104200006E2D8D2D0E947615982EF6E0BF121AC0E5
:10421000D30118968C91811115C00E94FE340E9422
:10422000FE342AE030E040E050E00E949A356C5EB7
:104230007F4F8F4F9F4FF301608740E06F2D8D2D93
:104240000E949215D3011A968C911A978D309CF585
:104250001296ED91FC91FC87EB87CF016AE070E04C
:104260000E949E34892B39F5D30114960D911C912F
:10427000C8016AE070E00E949E34892BE1F4F301EA
:104280008385882309F416C48085882379F0FA94FD
:104290006F2D8D2D0E947615811108C0D3011896BF
:1042A0001C9246E06F2D8D2D0E949215F30117820E
:1042B000838581508387FEE06F0E711C24E56216B2
:1042C00023E0720609F081CF8091F4079091F50701
:1042D0006CE070E00E949E34892B31F48091AE0135
:1042E00091E089278093AE011091000188EF810F42
:1042F000833010F40C946C2AB12CA12C712C612CFD
:10430000912C812CC090EA01D090EB01C80CD91CF3
:10431000C60109968938910528F5E090EC01F090E6
:10432000ED01EA0CFB1CC701099689349105D0F414
:10433000672D862D0E947615082F882339F0282FA7
:1043400049EB56E2B701C6010E94CD1929EF200FB3
:10435000243040F4B7016A5071094CE352E2C601BF
:104360000E94CD1963943AE0830E911C4CE16412D3
:10437000C9CF73945AE0A50EB11C80E17812BFCF6B
:10438000153021F08091AE018823F1F08091E80191
:10439000082F001F0027001F082E000C990B97FF05
:1043A00003C0919581959109880F990BFC01E35EFB
:1043B000FE4F408151816091E20170E08091E10106
:1043C00021E090E00E94841B70E0272E73E0372EDE
:1043D0002101D2018C9184FFA9C4E091EA01F091FE
:1043E000EB01F887EF8312968D909C9013976F01E5
:1043F000C80CD91C14962D913C911597E090EC01B6
:10440000F090ED01E20EF31E1B96EC911B97E33149
:1044100008F06DC5F0E0E15FFD4D0C9409367C2697
:1044200095279527912791278D278D2786278627E2
:104430007F277F27742774277B277B277427742780
:104440007B277B27882309F424CE83E884BD8FEF64
:1044500087BD81EF809380001092880010928A00BF
:104460001092AF0116CE0E94D51C882311F40C9433
:10447000612C8091E10190E02091EA013091EB0103
:10448000821B930B02966AE070E00E948A34162F1A
:10449000DD24D394D60E6E2D8D2D0E947615B82E68
:1044A000AA24A394AE0C6A2D8D2D0E94761581301E
:1044B00011F00C94612C8FEF8B0D823010F40C9462
:1044C000612CA3E0BA1611F40C94612C8CE080935B
:1044D000E8011092E3011092EE0147E06A2D8D2D64
:1044E0000E9492158091F007843109F42BCEB3E03D
:1044F0008B9FF0011124EC54F84FD082A1821DCE85
:10450000F4E02F1621F02F81243009F0CDC168E0AE
:1045100087E00E94E81C0E94091999C00E94421677
:10452000882309F455C08F818350823010F18114A3
:10453000910481F1011141C0511060C1892811F429
:104540000C94BA2CB6016F5F7F4FA501862D0E9497
:104550001D15082F811111C01092E3011092EE0178
:10456000002309F4A1C08BE08093E8010E94F11CB4
:1045700018CE002389F3552029F064E081E00E94E1
:10458000E81C65C03F816AE087E03430C1F366E033
:1045900085E0F5CFA501B601832D0E941D15182FCA
:1045A000882311F40C94592C8BE08093E8018EEB56
:1045B00090E20E94BA19012FCFCFA501B6016F5F1B
:1045C0007F4F862D0E94F714882309F4BBCFD5CFE7
:1045D00062E06E0D872D0E947615382E862D0E9482
:1045E000271D002311F40C944E2C882311F40C94F5
:1045F000492C36014FEF641A740AA501B301832DCB
:104600000E94F71481111DC0892899F1642D812F12
:104610000E947615182F8F810E94271D082F88234E
:1046200009F49ACFB6016F5F7F4FA501812F0E94D9
:104630001D15082F882309F48FCF8BE08093E801A4
:104640006ACF64E081E00E94E81C1092E80180914A
:10465000EC015AE0E59E800D11248093E2018091E7
:10466000E1018C3390F482E08093E3011092EE013B
:104670001BC0A501B301832D0E941D15082F88239F
:1046800009F46ACF66E085E044CF2091EA013091D9
:10469000EB0129363F4F34F01092E3018EEF809307
:1046A000EE0102C087FFDFCF1092E40181C1C5FE99
:1046B000FDC06E2D812F0E947615782E8091E1012C
:1046C00090E02091EA013091EB01821B930B6AE0AC
:1046D00070E00E948A344C0155245A94510E892B63
:1046E00009F0512E6E2D852D0E947615282E44241A
:1046F00043944E0C642D852D0E9476158F8381E0A6
:10470000810F8114910409F4812F642D0E94761584
:10471000382E822D0E94271D082F5701BB24AFEF92
:10472000AA1ABA0AC12ED12CA501B601832D0E9466
:10473000F714682E0E94D51C9091E8019B3091F4EB
:10474000882309F4AFC061100C94B62CB4E02B168A
:1047500011F07B12A9C069EF86EF0E94E81C0E944D
:1047600009197FC00E944216882309F44BC08DEFBF
:10477000870D823020F18928A1F1011102C061105A
:104780003DC0642D812F0E947615182F872D0E9421
:10479000271DF1E0CF1AD108882339F0A501B60111
:1047A000812F0E94F71481110FC0A501B601812F3E
:1047B0000E941D15082F882309F4CECE05C00023C2
:1047C00009F4CACE662029F06FEF8CEF0E94E81C36
:1047D00048C0E4E069EF86EF7E16C1F366E085E04D
:1047E000F5CFA501B601832D0E941D15182F81114B
:1047F000DBCE0111E9CF662009F4AECE1092E801BC
:104800000C94BA2C62E06E0D852D0E947615182F3F
:104810008F810E94271D002309F49ECE882311F466
:104820000C94BA2C21E0C21AD108A501B601812F3F
:104830000E94F71481110FC0A501B601812F0E94BB
:104840001D15082F8928D9F0882309F485CE8BE01F
:104850008093E80184CF6FEF8CEF0E94E81C1092E8
:10486000E8018091EC013AE0E39E800D11248093F1
:10487000E2018091E1018D3340F08EEFF5CE882387
:1048800009F46ACE66E085E068CF2091EA013091B4
:10489000EB0137FF04C01092E30182E000CF8111E9
:1048A000ECCF02CF01E058CE082F56CEC7FE92C003
:1048B0008091E20190E02091EC013091ED01821BAA
:1048C000930B08966AE070E00E948A347B01B62E52
:1048D0000E94D51CC82E6FEF6E0D811101C06E2D88
:1048E000812F0E947615D82ECC2019F0BB24B394CA
:1048F000BE0C6B2D812F0E9476159091E8019530AA
:104900001CF19730A4F09B30F9F4043011F4C1107D
:1049100099C0A70155274F5F5F4F612F70E00E943C
:10492000F714882309F422CE1092E80108C0CC20A5
:1049300061F1033021F48FEF8D0D823030F50E944C
:1049400009191092E30192CE0E9409198091E101A8
:1049500090E02091EA013091EB01821B930B2AE059
:1049600030E0B9010E948A34863020F0A901481B4A
:104970005109CA0105972CF7033019F78FEF8D0DF8
:104980008230F8F285E08093E8018091EA015AE0F4
:10499000159F800D11248093E1011092E301109284
:1049A000EE018091E201883130F08EEF8093E401D6
:1049B0001092EF01F6CB2091EC013091ED0137FF21
:1049C00006C01092E40182E08093EF01EACB8111EE
:1049D000ECCFE7CBC4FC09C08091E401823029F020
:1049E0008091EF018E3F09F0DCCB8091E20190E0F5
:1049F0002091EC013091ED01821B930B08966AE047
:104A000070E00E948A347B01B62E0E94D51CD82EFD
:104A10006FEF6E0D81116E2D812F0E947615C82EBD
:104A2000DD2019F0BB24B394BE0C6B2D812F0E94A6
:104A30007615B82E8091E8018B30C1F4043031F442
:104A4000DD2031F087E08093E80179CFD11008C0F4
:104A5000A70155274F5F5F4F612F70E08B2D5FCF10
:104A600084EF8C0D843008F46ACFF2CF83E0B81263
:104A70000DC08091EA019AE0199F800D1124809366
:104A8000E1016BEF8AEF0E94E81C70CD8B2D0E9434
:104A9000271D882309F448CFB11003C08BE0809311
:104AA000E8018091EA01AAE01A9F800D1124809309
:104AB000E1015CCD6FEF6F0D8D2D0E9476158F8318
:104AC0006F2DCC24C394CD0C8C2D0E947615582EBE
:104AD0006E2D8C2D0E947615482E6E2DEE24EA94B4
:104AE000ED0C8E2D0E947615382E6F2D8E2D0E9486
:104AF0007615282ED30119968C911997882309F4DD
:104B00006BC01F922F923F92892CA42CC52CEF8052
:104B10000B2D1D962C914F2D6D2DC3010E94331E20
:104B2000F3019185915091870F900F900F90811113
:104B3000C2CB1485F3018085882379F09FEF990D0E
:104B4000923058F4B11009C081508087811105C09E
:104B500046E06F2D8D2D0E949215F1E0FF932F926C
:104B60003F92892CA42CC52CEF800B2D212F4F2D8B
:104B70006D2DC3010E94331E0F900F900F90811175
:104B80009ACBF12EE8E0DE2E112309F49AC01150E1
:104B900021E02F932F923F92892CA42CC52CEF80DB
:104BA0000B2D212F4A856985C3010E94331E0F906A
:104BB0000F900F90882309F477C6D3011A968C9131
:104BC0008B3009F078CB892D0E94301D882309F4A1
:104BD00072CBF30117826FCB8091E10190E02091BD
:104BE000EA013091EB01821B930B2B853C85281B3E
:104BF000390BC9012091E20130E04091EC01509164
:104C0000ED01241B350B021B130B97FF25C010165B
:104C10001106BCF491958195910908171907DCF1EB
:104C200080179107D4F511E0EDEFE10F80E0EC3053
:104C300020F4F0E0EF5EFE4F8081D3011D968C934F
:104C400079CF0115110559F10817190754F180178B
:104C500091074CF515E0E8CF0097C9F01016110642
:104C600044F4081719070CF18017910704F51FE0A9
:104C7000DBCF01151105E9F0119501951109801798
:104C80009107CCF008171907C4F41BE0CDCF17FF2C
:104C900016C018E0C9CF13E0C7CF12E0C5CF14E0AB
:104CA000C3CF17E0C1CF16E0BFCF1DE0BDCF1EE0E0
:104CB000BBCF1CE0B9CF19E0B7CF1AE0B5CF10E0F9
:104CC000B3CF1FE065CFF39431E03F932F923F9233
:104CD000892CA42CC52CEF800B2D2F2D4A8569859E
:104CE000C3010E94331E0F900F900F90811165CF6A
:104CF000DA94D11049CF61CF1A968C91082F001FFA
:104D00000027001F082E000C990B97FF03C09195F8
:104D100081959109880F990BFC01E35EFE4F40815C
:104D2000518121E0B701C6010E94841BFEE04F0EB5
:104D3000511C24E533E02415350509F04ACB809059
:104D4000E101912C8091EA019091EB01881A990A76
:104D50006090E201712C8091EC019091ED01681A54
:104D6000790AD1018C9184FF34C012968D919C9167
:104D70001397A401481B590B14968D919C91B30174
:104D8000681B790BC090E2012C2D30E0261B370BFD
:104D9000E090E1018E2D90E0841B950B273FBFEF43
:104DA0003B070CF023C18F3FEFEF9E070CF461C16E
:104DB0008C3791050CF065C1E3948E2D841B68EA55
:104DC000A62E62E2B62E4EED52E290E08F3F09F041
:104DD0003FC13EE0230E311C4214530411F6812FD3
:104DE0008B7F833009F06CC10091CA01802F002EA7
:104DF000000C990B302F330F27E3231B40E450E0C6
:104E0000481B590B440FBC010E94E71AF12CE12CFE
:104E1000C02ED12C41E0B601C7010E94C91A42E060
:104E2000E40EF11C52E8E516F104A1F7B6E3EB2E0F
:104E3000E01AB12CA12CF12C41E0B701C5010E9470
:104E4000C91A82E0A80EB11C92E8A916B104A1F714
:104E5000F12CE12C41E0B701C6010E94C91AA2E081
:104E6000EA0EF11CB2E4EB16F104A1F7AFE7EA2E6B
:104E7000E01AD12CC12CF12C41E0B601C7010E94EF
:104E8000C91AE2E0CE0ED11CF2E4CF16D104A1F78C
:104E9000133009F005C30150E02E002E000CFF086E
:104EA0008BE190E08E199F09880F20E430E02E19E5
:104EB0003F09B22EBB0C902EA12CD12CC12C11E09D
:104EC000180F97FCF7C0C7018C199D09212F2A0DD7
:104ED0004B2D4A0DBC010E94E71A9A942FEFC21A7B
:104EE000D20AA394A394EDCFB1E0CB1AD10800E08D
:104EF00048E852E216CFEFEFCE1ADE0AF8CFF2E022
:104F0000EF1AF10800E047E752E20BCF24E0E21A83
:104F1000F10800E046E652E204CF36E0E31AF10879
:104F2000F1CF48E0E41AF108F4CF5AE0E51AF108AD
:104F30002A50310915963C932E9314971B961C9278
:104F4000C4016AE070E00E949E34062FC9016AE045
:104F500070E00E949E34B62E77247A94700E872DCE
:104F60000E947615682EAA24A394AB0C6A2D872D77
:104F70000E947615782E0F5F6B2D802F0E9476157C
:104F8000B82E6A2D802F0E947615082F8091E1019E
:104F900090E0EF81F8858E1B9F0B881599059CF496
:104FA000862D0E94271D8823C1F0872D0E94301D69
:104FB000882399F0EFEFD2011A96EC931A97FEEF3F
:104FC0001696FC939FCF8B2D0E94271D882391F36B
:104FD000802F0E94301D882369F381E0D2011A9648
:104FE0008C931A97E2E01696EC938CCF253331051B
:104FF000A4F08F3FFFEF9F070CF44CC08C37910556
:105000000CF050C0E3948E2D841B59E9A52E52E27A
:10501000B52E4DEC52E293E3D9CE8C3F2FEF9207A1
:1050200054F49C2D961B4BEBA42E42E2B42E44EF7D
:1050300052E280E00DC08C3791050CF4CACE9C2D55
:10504000961B37EBA32E32E2B32E4FEE52E28CE7E3
:10505000C92ED12CE82EF12C00E020E0B601C701CA
:105060000E94841B21E0A501B601C7010E94841B98
:10507000B0CE20EBA22E22E2B22E47EE52E290E01A
:10508000D8CF96ECA92E92E2B92E41E053E290E0FF
:105090008BE7DECF81EAA82E82E2B82E46ED52E2FF
:1050A00092E3C7CF0FEBA02E02E2B02E49EF52E2FF
:1050B00092E3EECF0093CA0184E00F3F09F409C2E6
:1050C00010E000E0F7E3EF2EF12C40E0B701C8015B
:1050D0000E94C91A5FEFE51AF50A80E4E816F104A8
:1050E000A1F70F5F1F4F0038110561F710E000E0D6
:1050F00041E068E370E0C8010E94C91A0E5F1F4FCB
:1051000002381105A9F78091E5019091E601FE01B1
:10511000319626E0DF011D922A95E9F77F019E0175
:10512000295F3F4F0AE010E0B8010E949E3481934E
:10513000CB012E173F07C1F700E021E04AEE53E212
:105140006AE370E090E080E00E94841B06E310E0D8
:10515000F70121917F0140EC53E26AE370E0C8015E
:105160000E94CD19055011090831110589F71091D8
:10517000E70100E021E04DEA53E26AE370E080E4F9
:1051800090E00E94841BEAE0FE2E812F6F2D0E948A
:10519000FD35192F282F40EC53E26AE370E082E5D9
:1051A00090E00E94CD19212F40EC53E26AE370E0B9
:1051B00087E590E00E94CD1910910001153009F0AB
:1051C000ECC11091D10221E042E953E26AE370E0C0
:1051D00080E690E00E94841B812F6F2D0E94FD3598
:1051E000192F282F40EC53E26AE370E086E790E045
:1051F0000E94CD19212F40EC53E26AE370E08BE767
:1052000090E00E94CD194091F4075091F5078091EC
:10521000E3017091E4016091EE013091EF0140FFF4
:1052200014C243705527452B01F5A0E0B3E044E5D7
:1052300053E09C9194FF15C01B969C911B97911174
:1052400010C01A96EC911A9793EF9E0F933008F0C6
:1052500012C2E45FF0E0E35FFB4DE4911A96EC9339
:105260001A971E964A175B0721F72091E101280F34
:105270002093E1011091E201170F1093E201E090F9
:10528000EA01F090EB01E60EF11C67FDFA94F09252
:10529000EB01E092EA014091EC015091ED01430FE6
:1052A000511D37FD5A955093ED014093EC01812F2C
:1052B00090E0841B950B0596EAE0F0E0BF010E94A8
:1052C0008A34362F822F90E08E199F090596BF01F0
:1052D0000E948A34862F632F0E9476151230A8F51B
:1052E000833099F51091D0021F5F8091E7018A30D9
:1052F00018F48F5F8093E70186E08093000110939C
:10530000D002612F82EB90E00E94643589E019376A
:10531000B0F081EB90E00E945635843008F0BDC1BA
:1053200011E0180F612F81EB90E00E946435612F2E
:1053300086EB90E00E9464350E948F1D8EE0809382
:10534000E90189E294E20E94BA198091F40780FD94
:1053500077C000E013E074E5E72E73E0F72ED80184
:105360008C9184FF51C016968C91169712966D9170
:105370007C911397680F711D87FD7A9513967C9326
:105380006E93129717968C91179714964D915C9186
:105390001597480F511D87FD5A9515965C934E93AE
:1053A00014972091E10130E08091EA019091EB01A6
:1053B000281B390B8091E201E091EC01F091ED01A5
:1053C0006901B2E0CB0ED11CDB011896CA16DB06D0
:1053D000DCF46E5F7F4F285F3F4F62177307A4F4C2
:1053E00090E08E1B9F0BBC016E5F7F4F9A01285F80
:1053F0003F4F6217730744F44E5F5F4F089648179C
:10540000590714F40E94141D025F1F4FE016F106A5
:1054100009F0A5CF10E000E0612F802F0E947615E3
:1054200099EF980F943030F441E0480F612F802FAE
:105430000E9492150F5F0C3179F71F5F103159F7F9
:105440008091F007882309F4A2C1F12C4DE0942E3D
:1054500054E5A52E53E0B52E6AE0E62E8091F007C4
:10546000F81608F08AC1CF2CD12C8601000F111F2D
:10547000F801EC0DFD1DEC54F84F8281882371F08A
:1054800081508283803109F417C108F008C181304E
:1054900009F414C14FE0883009F407C1F394DECF5A
:1054A00010E8F12CE12CE01664F427EB210F412FDA
:1054B000B701C7010E94E71A3FEFE31AF30A12503F
:1054C000F2CF0F5F0093CA010C3109F0F9CD809142
:1054D000E90180930001F4CD1A3029F500E021E0C4
:1054E00044E553E269E170E08AE290E00E94841BA7
:1054F00009E210E041E066E170E0C8010E94C91ACB
:105500000E5F1F4F09351105A9F709E210E041E0D0
:1055100060E270E0C8010E94C91A0E5F1F4F093592
:105520001105A9F7CDCD00E021E043E253E21830A8
:1055300079F11091D002812F64E60E94FD35082F89
:10554000282F40EC53E269E170E088E490E00E948B
:10555000CD19812F4CE9049F800D11246AE00E942F
:10556000FD35192F282F40EC53E269E170E08DE4FE
:1055700090E00E94CD19212F40EC53E269E170E0E8
:1055800082E590E00E94CD1900E021E049E053E27D
:1055900069E170E08BE290E0A9CFE090D00200E0FA
:1055A00021E042E853E26AE370E080E690E00E9486
:1055B000841B64E670E08E2D90E00E948A34262FD2
:1055C000082F40EC53E26AE370E081E790E00E942C
:1055D000CD19802F6F2D0E94FD35092F282F40EC0B
:1055E00053E26AE370E086E790E00E94CD19202F35
:1055F00040EC53E26AE370E08BE790E00E94CD1943
:105600002091F6078091F70780958223143009F0E6
:1056100026C19091B00122FF10C19E3208F0ECC06B
:10562000993208F4F5C083E884BD8FEF87BD81EF20
:105630008093800080E48093880010928A0080919B
:10564000B0018F5F8093B001A2C0811107C07111BA
:1056500005C0611103C0332309F4E3CD9091E80143
:10566000ECE0E90FEC3120F4F0E0E35FFB4D9491C6
:105670009093E801D6CD16969C911697911106C08D
:1056800017969C911797992309F4EBCD9CE09E0FF8
:105690009C3108F0E3CDE92FDDCD8FE050CE88318D
:1056A00049F04CE0803209F0F9CE618180810E949E
:1056B0009215F4CE4DE0F9CF4EE0F7CF8091D302B2
:1056C00090E0880F991F88509D4FA0E0B3E03F0104
:1056D000AF014F5F5F4F2C9124FF35C0F301208154
:1056E0002E9D9001112412966D917C91139726178F
:1056F000370749F5FA0120812E9D90011124149657
:105700006D917C91159726173707E9F4FC012181EB
:1057100060816E9DB001112413967C936E93129755
:105720002E9D9001112415963C932E9314971A9652
:105730009C921A971B961C921B9716961C92169772
:1057400017961C9217971E96AA16BB0621F6F8010B
:10575000EC0DFD1DEC54F84F80812E85821306C0A0
:1057600081813D85831302C00E94141D0C0D1D1DF7
:10577000F801EC54F84F41E098CF8091B6078130A2
:1057800031F40E945C168091F0078111F6CF809170
:10579000AF01811118C08091B001811114C08091B6
:1057A000D102811174C090910001953009F480E21A
:1057B00093E894BD809587BD81EF8093800010921F
:1057C000880010928A002E960FB6F894DEBF0FBEA6
:1057D000CDBFDF91CF911F910F91FF90EF90DF90A0
:1057E000CF90BF90AF909F908F907F906F905F9081
:1057F0004F903F902F900895933370F09091D00286
:1058000087FF14C0983790F49F5F9093D002BFCF6A
:105810009F5F9093B001BBCF83E884BD8FEF87BDBE
:1058200081EF809380001092880007CF84FFAFCF74
:10583000923508F4ACCF9150E8CF992391F093338F
:1058400040F092E0909300011092B001882309F497
:105850009ECF1092F7071092F60785E011C01092C4
:10586000B001882309F493CF1B3068F482E019302B
:1058700038F48091E901173019F081E0183049F7C8
:105880008093000184CF1E3009F481CFE2CF80E005
:105890008FCF892811F00C9406236CC0892811F44D
:1058A0000C94AC220C9406234FE0F4120CCAF12C99
:1058B0000BCA01110C94BD220C949C2281110C94F2
:1058C0003322C6FC02C00C9457236E2D812F0E94F8
:1058D00076158F838091E10190E02091EA0130916B
:1058E000EB01821B930B6AE070E00E948A344C014A
:1058F00077247394710E892B09F0712E6E2D872DEC
:105900000E947615282E442443944E0C642D872D36
:105910000E947615682E8FEF810F8114910409F48F
:10592000812F642D0E947615382E822D0E94271D0E
:10593000082F5701BB24EFEFAE1ABE0AC12ED12C9F
:10594000A501B601832D0E94F714582E0E94D51C84
:105950009091E8019B3011F00C948E22882311F471
:105960000C945224552011F40C9480221092E801DA
:105970000E94091900E00C94AC221F920F920FB6FE
:105980000F9211248F939F938091E1009091E100F9
:10599000937F9093E10083FF0FC01092E90091E0A4
:1059A0009093EB001092EC0092E39093ED00109234
:1059B000E00198E09093F00082FF22C093E0909382
:1059C000E9009091F200992319F09AE39093E8008E
:1059D0009091D101992341F09091D10191509093F0
:1059E000D101911101C05D9A9091DF01992341F09D
:1059F0009091DF0191509093DF01911101C0289A9D
:105A000084FF18C08091E2008E7E81608093E20066
:105A10008091E1008F7E8093E1008091D2018E7EA3
:105A200080618093D2019F918F910F900FBE0F9054
:105A30001F90189580FFF7CF8091E2008E7E8061E5
:105A40008093E2008091E1008E7E8093E10080915E
:105A5000D2018E7E8160E5CF1F920F920FB60F921A
:105A60001124CF92DF92EF92FF920F931F932F9307
:105A70003F934F935F936F937F938F939F93AF93D6
:105A8000BF93EF93FF93CF93DF93CDB7DEB76C97C0
:105A9000DEBFCDBF1092E9008091E80083FF25C0F2
:105AA00068E0CE0145960E940B1882EF8093E800D3
:105AB0008D8987FF39C09091E80090FFFCCF982F27
:105AC000907609F034C19E894F89588D2F89F88CC2
:105AD000911131C0803861F58091D0018093F1003F
