:100000000C94A7130C94CF130C94CF130C94CF1310
:100010000C94CF130C94CF130C94CF130C94CF13D8
:100020000C94CF130C94CF130C947B2B0C94EA2BD1
:100030000C94CF130C94CF130C94CF130C94CF13B8
:100040000C94CF130C94CF130C94CF130C94CF13A8
:100050000C94CF130C94CF130C94CF130C941C2E30
:100060000C94CF130C94CF130C94CF130C94CF1388
:100070000C94CF130C94CF130C94CF130C94CF1378
:100080000C94662E0C94CF130C94CF130C94CF13B6
:100090000C94CF130C94CF130C94CF130C94CF1358
:1000A0000C94CF130C94CF130C94CF13090FE8D2F8
:1000B000D9ED76BB4EC7B7DD6EB7DBED7636090FEF
:1000C000E8D3E974FCDBED76BBDD6E6703090F1046
:1000D0009BCE6EB7DB753A36090FB8B2E9145FD71D
:1000E000ABCF85A2ED6CDB5901090FBC92EE55A98F
:1000F000A4D2AAAD53E4E9E8B6B303090FF8B6CA2F
:10010000F55FB9B5EBD436EEED6CDB5901090F386C
:10011000B39FEAB397770A4BDBD9B6B302090FBC9A
:10012000924EA5FAECE554CEC9D9D3F9EC367A094A
:100130000FB8B29F6AA2745FBB8E773B7B3A5A09B5
:100140000F38972ACA6B998E39BD1D5B090F5CA7C2
:100150003EF54D96DBF5B950B79D1D0C0E03050617
:100160001706040E0300000001000204061606191B
:100170000D050E00010A31010A2841018621010402
:10018000C103612104C1034161012101C1022A614E
:100190004127014161012604C104614104C10341B9
:1001A0006101266129410122A123014161012661EA
:1001B00005C1034106C1014161072961410122A333
:1001C0002101286101C107614104C10B622941017C
:1001D00022A123096202C1064106C10961296141C8
:1001E0000122A3210225026108C1614106C1022149
:1001F00002C121026229410122A12304612202627B
:1002000015612101C101613C001A04030B011101B8
:1002100002040405001600050116010A011001017F
:1002200004190400230422042204220427022402C5
:10023000240224010124610222612102226121029F
:100240002161220221612202620321618261012176
:100250006103C16121016182612103620224C161E4
:1002600024622461C12402622302226121022161ED
:10027000220221612202236222042161C103612141
:1002800003C1612104226223022462246224022326
:100290006202226121022261210221612202216186
:1002A00022026203216104216103C16121046121F1
:1002B0000362022462246224622402622302226115
:1002C0002102216122022161220223622204216192
:1002D0000461210461210422622302246224622435
:1002E00002236204C1046201C1026204C104623AD1
:1002F0006100170F040C020E020209190904000024
:100300001B0000011B010A0110010309180900016B
:100310001F1826612461036124612701810461049F
:10032000614161416104610581016101250661034B
:10033000C102260162012502216721022601620114
:1003400022C101210221614561210222C1230162F2
:100350000125022167210226016209870A620561DF
:10036000064106610662456104C143C104614662FB
:100370000561044504610662256103470361266245
:10038000056101C149C1016106624561014B01611D
:100390004661C105614D6106C100070A03070117E7
:1003A000060A0E0300000001000208010D041806F1
:1003B000090E00011F192A462144214461C115611B
:1003C000046122094103C104C183C1026125622184
:1003D000622802210321026104216201622101429B
:1003E000240961042162C1622101410124012361C8
:1003F000246104270141C123056104611661046180
:100400000F2161256144612261286123016101C2DC
:100410000261046102610861046101420522610216
:100420006122C1210461022301422601610261248B
:10043000046103C1024207613242234461000E0E8F
:10044000031700040716080200001B000307050736
:1004500018081A08000103C104C105C108C10361DD
:100460002661230125612301256206610961096175
:100470000161066102810461096101610661028115
:1004800001810461096101610661810381026101E9
:1004900088610161866106810261096108618105E7
:1004A000816109610126016102810381026105C147
:1004B00001C1016122012302610281018102610403
:1004C00081234301C103C1016104810461038123CC
:1004D0004322A1230261028101810261048123433D
:1004E00022A1210121016102810381026103812294
:1004F000C24202C101C103618105816104814626B6
:10050000016104C1046101C102463C000D0E0405F5
:10051000080708140816080600001B0000011B014C
:1005200000021B0206080908120815080200000054
:1005300000000001100000000000000000000000AA
:1005400000022000000000000000600000006001C8
:100550001006000000060021212121212132231252
:100560001212121212000600000600311300600081
:1005700000600032121212121212212121212121B7
:100580002330006000600001100006000600032117
:100590002121212121322312121212121200006095
:1005A0000060003113000600060000321212121221
:1005B00012122121212121212330060000060001F1
:1005C000100060000060032121212121213223122B
:1005D00012121212120060000000603113060000B7
:1005E00000060032121212121212212121212121A1
:1005F0002330000000000000000000000000031293
:1006000012121212121212121212121212010E02EF
:10061000080E130E0200001B00070E090E120E1426
:100620000E000188C226C288016107C1236423C16C
:10063000076206C12263026322C1066206226206C5
:100640006222066205C12162086221C1056205229B
:1006500061C108C161220562052162C108C1622130
:100660000562052161C208C261210562052162C1DE
:1006700008C162210562052261C108C161220562CB
:10068000062162C106C1622106620621A162C20280
:10069000C262A121066207A12163C26321A1076290
:1006A0000823642308620A260A6129610861286117
:1006B00000010F0319020706150F070500050100C9
:1006C000020302050200030104180204040C0713CC
:1006D0000F002501360421012101870C210122018F
:1006E00002210121C1032161210B210101250126E4
:1006F0006125C1012161250104C183246128612193
:1007000001290321022161230124612101220D21FC
:100710006123012201216121C10121612761216140
:10072000C101216123012201216124610761256149
:1007300023C10121012161220121610924612601D6
:10074000216122C121610721056108610321612323
:100750006124612141214121412141214121412146
:1007600061214121416123612461260225612141EA
:100770002141610361046127022461046128612829
:10078000C1012762086101C1012608610002070258
:1007900018010902030000030103020A021A0308F8
:1007A0000E170E00011B23012409860A820F4561E2
:1007B000036121022561268303210162240221C1F4
:1007C00083618521032461216106240323612103C0
:1007D00021C10261016106218461846121032181BB
:1007E000026101610221032161C121C161C1216155
:1007F000C1612103210361C1216122032C04216114
:1008000023016104C12105C10421056104610422A1
:1008100003236103210561046102C12101210661F5
:100820000321C102612501610221022103C102618C
:10083000032202610661C1210321016126610121B8
:100840000121C16106612102C1012101612102C1B1
:10085000012161042161053C000D0E03050415070B
:10086000040F050E000E010E020F020F0302031902
:1008700003050F170F001F19C11AC1216101618BF8
:100880000188610161236212C101622561016186F3
:100890000189610161276201C10E6228A1610161C4
:1008A000870184610161A128A121620AC10162213D
:1008B000A128A12261016183018461016122A12833
:1008C000A1236201C1066223A128A12461016182E2
:1008D000018161016124A128A12562046225A1286A
:1008E000A12662026226A128A1276101C16127A178
:1008F00028086122610824001501050A010C010E77
:1009000001080E110E021B001B0103010B010D015A
:10091000190100411B4105C412412AA12F611B612D
:10092000044101C102C107C106C14101610441275F
:10093000A127A1244101611B61064102C104C10537
:10094000C102410361064123A126A1254103611B88
:1009500061074102C105C104C141046106422E4143
:1009600004611B611B61C414614101612A46284274
:100970000161000E0B03020015000F0202060016B3
:1009800000010014000E02150F01012404230522AA
:10099000C1210421C1210522C12104230524038290
:1009A00003220181058106220181062406650122B8
:1009B000C121058104810122C12107220181012475
:1009C000072201810B810181026A028106810926C9
:1009D0000181082603230424C1210321C1A1042489
:1009E000C12103230424C121018108268109260194
:1009F00066028106810722016607228106240364BC
:100A00000522C12106230322C1210621C12103247D
:100A100006231F0A000A0E0318051207030A030D16
:100A2000000D010D0204021A051307040A001C8BB5
:100A300013C104C101416104C10C29476102C161B4
:100A400041610521412141214121450347610F4277
:100A500002C106416102C10288610142256103426F
:100A600024610861014205610524610861014201B8
:100A7000286101246101C104C10161014201210613
:100A8000216101246123032101610142012103C18C
:100A90000221610122C12161270161014201286116
:100AA00001220121610861042102C10321610421A5
:100AB000612E016122610127610F6101C16108613D
:100AC0003C00070104140104090A09180B0A000379
:100AD0001B0300041B04000501051A051B05010684
:100AE0001A06130103090B09170B00611A621A6237
:100AF0000341216121418A412161214103610103B7
:100B000041C161014101C106C101410161014106CB
:100B1000412201610122410641220161C1224104B9
:100B200041C1026102C14101C1044101C101610130
:100B300021C14101014101230161032241024125FB
:100B4000610121012101420561054101C141C10449
:100B500061012102C14205612541612141220361F8
:100B6000012201214201C103610661076105426161
:100B70002461034122612341036103216141016139
:100B80004101C101610321026101C101210361032E
:100B9000416102614122016101230261032301617C
:100BA00001224161026101C141016101410461040D
:100BB000C14101610141C101610261032305610677
:100BC000230361013C000D0E0305010D0216050310
:100BD0001A001A011A0204010C0216021505001F60
:100BE00019612A6104C106C104610A6124610423F8
:100BF00061236101C106C1016103416107610361B4
:100C00000121022301210161C201416107610361E8
:100C100001210123022101614201412A4261012196
:100C2000022301210161420C41C161012101230222
:100C3000210161418802C10241620121C1012301F8
:100C400021016141C1072461416201250221016145
:100C5000420B610162012801614204C10661226107
:100C60000A61420146046102614821440B6102614C
:100C70001861023C0007050210030F0F041A001A46
:100C8000011A021A0312010E020105100F0004419D
:100C9000054105410A4104410541054103C10641A1
:100CA0000441A12441054124022301412309236178
:100CB00003C105C101412B61036128012161410B81
:100CC000610122612103C104216141216129610186
:100CD000C121612101256101216141218822610138
:100CE00022612101210461012161412102210221AE
:100CF00001C12261036201210123610121614121BE
:100D000002210221022162246122C12361012161A9
:100D10004121022101C1210221612106210123611A
:100D20000261412102240221612101240121046187
:100D3000216241216122022263210121C122012776
:100D40006101412161034221622203210222C10487
:100D500061214121610341036122A124A127612175
:100D60004121612304610F610141001A0E03120841
:100D70000509020E0A10000F0110010E020F020DEC
:100D8000030E030C040D040C050E060707010818DA
:100D90000A001F1F1F1F01011F1561226118612218
:100DA00061C1146127610D216104612101C101C18B
:100DB00001216101216121610923612C6123610805
:100DC0002201C1022401C10361C102226107246121
:100DD00002C1012361016122610121610821C12158
:100DE00061236101C101610161C12161C121610909
:100DF0003261035C0009070308021403190C04178D
:100E000000170117021703090213031708040E0045
:100E10000349124109410C42024103C20621610A01
:100E2000420142226128426108C142014123612BF3
:100E300061224321614522632187216321846183EB
:100E40006141226101612102C10421610161210826
:100E50006141226101612107216101612101C10418
:100E6000C10161412261C16124612461C1612141EB
:100E70000641614129613061410622632202C104B9
:100E8000C103C101614186216201628E614101C1DC
:100E900004216103610E614107610361022B01615D
:100EA0004404610361012301C12202C101226141A5
:100EB000264161C101C161022D000D0F0306050825
:100EC000090D090812001B001B011B021B031B0458
:100ED0001B051B061603050509090E090007C104B9
:100EE000C10FC2306109220AC102C1026112612828
:100EF0006102C103C10B610861280104C102C10183
:100F000061156126610BC1086106610661296101F5
:100F1000C101610661066109612361066104C101C5
:100F20006107C101610661236126610461250661D3
:100F30008804C1026109C10161C10761266103C161
:100F4000012761076106612507610761136102C11D
:100F5000046106C10500040E030D0217090B0E05FE
:100F60001A00180119011A0118020E0208061809C0
:100F7000130C005A012161966101010121610822CF
:100F80000C6101C1012161026101356121610261D0
:100F900001231261216102610321013361026102B7
:100FA000612103C1022101C1012101C1012101C14E
:100FB0000221610261026122613261026182610289
:100FC000612501250621610261026102610421019E
:100FD000C121092161026102610261826101246112
:100FE000822761026102610261026105610227617B
:100FF0000261026102610261826102610227610293
:101000006102610261026102610121612301C30188
:101010002161026102610261026102610261236178
:10102000376101C26125000B0E040D001701070294
:1010300007080113000F00180106020808000EC17E
:1010400018286105C10BC109612161256105C12510
:101050006107610161056123A12304618761016169
:10106000C104610B610761012701C10961076108C2
:1010700023612761076188C10261076104C10261C0
:1010800007C129022861042407C103C1076108259B
:101090006123A1236102C1026103C10961072E61BD
:1010A00005611561056101C10AC108613C000D0EB1
:1010B000040A01110106051505020C000F000902C2
:1010C000120205061606000D220117C1612261C138
:1010D0001561266113C1612661C111612A610FC1C9
:1010E000612A61C10D612E610BC16103C80361C139
:1010F0000961326107C1613261C105613661046114
:101100003661046116610461166104611661023C76
:10111000000B0E0303041A0A130B02030003011A47
:101120000105020F02100B001F0106C109C106C113
:1011300061A12161046123610561236121022162B2
:10114000022603612561036102C10162C10A6105D2
:101150006103240162A12409236121076201412462
:1011600007220861210162014125052207612161F1
:10117000026201412B04C1036103226101412B037F
:101180002302610561014104230123086104C16157
:10119000014102C1012201C1012208610322610152
:1011A00041612B61266103226102610B61066103CB
:1011B000226102611261033E00040A030A020F0663
:1011C00018060600001B0000011B0100021B0202A2
:1011D000020F0218020E0600011F1F156123A1361F
:1011E0006223A1366207228822076203C103C1215C
:1011F0006106C122076207226101280225620223DB
:1012000002226107220222C122620221C12102229E
:10121000610722022562072862220222C12262029D
:101220002302286222022562022302220661012291
:1012300007620223022205C161012204C102612A60
:101240006129612E02C1612601C1016127001401DB
:1012500002070C140C0F19001A011B021A031904BF
:1012600018051706160717081809190A1A0B1B0C78
:101270001B0D1B0E060C080C130C150C001F1CA1DB
:10128000246226651061032102610FC105610161BD
:101290002102610F21C105622102610E23C1056196
:1012A0002102610D25C104612102610B2804612125
:1012B00002610CC12505612102610E230661210234
:1012C000610F21076121026117612102610C612E0A
:1012D000A129032F096121013003C66122000E0AF2
:1012E0000408011401030518050B00001B00000190
:1012F0001B01000201020202030219021A021B0270
:10130000070113010405190500011F02C104C105ED
:10131000C104C10928610361280101010C61036155
:1013200012612D6106C105C16105C101C10561C11F
:1013300004C1276101C101C125C101C101612607A5
:10134000610124032401610AC1026106C106610131
:10135000C10661366104611661046101C104C161A5
:1013600027610661022A610761290A6107610BC1D1
:101370000761076106C1022141214121412141212B
:10138000412141214121412141214121412141214D
:1013900041214100100F0306000F0006090302005F
:1013A0001100160005000E00140A040F010281C18D
:1013B000016A02810381018101810181018103644C
:1013C000018101810181018101810581028101C1C8
:1013D0006603810481098102810381028104810203
:1013E00081018103810381026901810181038103FC
:1013F0008101C182028105810482048101C10381CE
:101400000282068101810382C1680281028206C1D3
:1014100081058102810281028105810481038101AC
:1014200081038103810281018104C18108810181DD
:1014300005690281C181028102C1810381038104A6
:101440008102810481038104810181058107C182B8
:101450000681018102648107810281048108810281
:1014600081046A0281028108810481028105C181AF
:1014700002C16402860300090E040C0017000C0C64
:10148000140C0F1B001B011B021B031B041B051B61
:10149000061B071B081B091B0A1B0B1B0C1B0D1B28
:1014A0000E03001500060C180C02000000000000DE
:1014B0000000000000000000535353535353535394
:1014C00053535353535053535353535353535353EF
:1014D000535353506313031363130313631303131F
:1014E00063105313531353135313531353135310C2
:1014F00053135313531353135313531353105313BF
:10150000531353135313531353135310031303134E
:10151000031363130313631303105313531353136E
:10152000531353135313531053135313531353138E
:1015300053135313531063030303030303030303FE
:1015400003030300311111111111111111111111A6
:10155000111030000000006000600060000000001A
:10156000322222222222222222222222222036005B
:1015700000000000000000000000006011111111C7
:1015800011111111111111111111110E030E061665
:1015900006040A01180003000E001906070A0006D7
:1015A000C105C10F613161056103610DC1036105B1
:1015B0006102C129612905612B620E6103276287DF
:1015C0006107610321C101C12262086102C1046196
:1015D00002C1256205612443246123056106610B74
:1015E00061086106610B61086103C102610B610260
:1015F000C1612B6102C105C1026123610B61012937
:10160000016103610B610B61036106C1046106C1E5
:101610000461033C00080E0401011A0103021802D0
:10162000010C0303001800030F180F00076116C117
:10163000046111C102612201C102610FC101226274
:10164000022202612401612561032202620B62C150
:10165000046107620BC162046107620B62C10C6224
:101660000BC1620C620B62C10C620BC1620C620B9B
:1016700062C10C620BC1620C620B62C10C620BC1D5
:10168000620C620B62C10C6204613061046100098A
:101690000E0200051306071900190119021903119A
:1016A00004110511060D0001050F061906000AC1F7
:1016B00019612702C10DC103610626072A6109C10C
:1016C000116126012561220C610C61042A610C6103
:1016D00003C12A61274203612E610C61042A61075C
:1016E000C1018361042206226107220361042202F0
:1016F000C202226105C10661042B61276103610FEB
:101700006107286104C106610F613C00070F0503F2
:101710000208050D051405130F0400000001010D5A
:10172000070D040206021702190200011C9B612129
:1017300005210D2105216101250F250161012101EF
:10174000230F21C123016101250F2501610123011F
:1017500021A131012101610125A12301C12201C182
:1017600028612101610125A131612101610125A1CA
:1017700031612101610125A1240429612101610157
:1017800025A1240429612101610125A12403C1614E
:101790002861210161018501842461886102610A57
:1017A000450C6109450D000E0E0605021602020BDE
:1017B0000F0B190B080E040B0010000B0110010297
:1017C0000219020D08040B01036C21032A022103F4
:1017D0002103210421022102C12102C12103C1A14F
:1017E00002210321032104210221032A022103678C
:1017F00003A101210381058104A121038105810544
:1018000021026205816521022B022101016AA102E8
:1018100021092102A10221092102A102210921019C
:10182000C1A10221092102A1022101016AA1022113
:10183000022B0221026205816521038105810521B8
:101840000381058104A121036703A10121032A0269
:1018500021032103210421022102C12102C121030C
:10186000C1A102210321032104210221032A022113
:10187000036C2100090E040D0213030205170E0369
:101880000200020102020B0216030705180E001FD8
:10189000118814610661256121042161230461041A
:1018A000C101610561066104236127056103C1026D
:1018B00061076107256124026107610C6106610708
:1018C0006109C1026103C1026107610722612C61E4
:1018D00004610124016102610C6101C10261012402
:1018E0000161026102C109618461012101C121011B
:1018F0006127610C6101256107610C610661076167
:101900000AC1016106613C000D0B0515010A0413B3
:1019100008020E140E031200120112020401180133
:101920000B040E080032012A01C1102103C1032259
:10193000A12361246108276122A123612E012302D2
:101940006122046102C1072401230261226129612D
:101950002801230261226103266125C2210123C1DE
:10196000016122610326612E612261032104C161AC
:1019700004C106C10121612261032361276127613E
:101980002161226102C12361076127612161226116
:1019900022A12102610761022203612161226122E9
:1019A000A12161256128C201612161226122A12159
:1019B00061256126C126612261046122C122610480
:1019C000C108613D000F0E041801010504080F0B4A
:1019D00008090009010902090309040905090609A2
:1019E000070001120104030E03001F0EC10A230D9C
:1019F00024612702220B2203610A220922046107C3
:101A0000C1022306C123046103C10322612405240A
:101A10006123612702610322032203610D61C10377
:101A2000226122046105C105612361046105216110
:101A3000226123056103610E610861036104C1092C
:101A4000610861036127612661256122610B610CD8
:101A50006102610B610C61023C00120E0306061666
:101A6000060E0A02000000010D02030E0D0E180EF4
:101A700000011C8B10610561052101C10121056177
:101A8000056101C1026302C1012501C1026302C1F6
:101A90000161016202610262076202610262016128
:101AA0000161016501610761016501610161016118
:101AB00002C101C102610361036102C101C102618E
:101AC00001610261256103630361256102610365B0
:101AD00001620261026201650361096101650161E0
:101AE000096104C1046102C101C1026105C1036150
:101AF0002661036125610261276106610465036156
:101B0000076106610C610761066107C10461073C5A
:101B1000000A0E0307040F071309031B001B011B18
:101B2000020C0113010102190B001C8A05C10C6192
:101B300001C106612A6107256103610A61470561E8
:101B4000036106C103610C61266125612209C1029E
:101B50006106610561028205246121066105610457
:101B600082076104612661220682C10461846106E4
:101B7000610A210461076129610961076129610521
:101B800023612A03C103256124612A0161236101C4
:101B900025612103610B61236102C10361013C00E6
:101BA0000C0E03040314050408021B041B05130197
:101BB0001902010309080003C11762422142610BA7
:101BC000C1086205610461296101C1036201C103A9
:101BD000610461096124A162214121412161046103
:101BE000096106610561846186036106610561041E
:101BF0006105612346620561046102C102610962F7
:101C0000056101C10261256109614123412241222F
:101C10004161096123612241234106610961036138
:101C20000241C102410661038661036101C128616D
:101C300023440561022408610C610E610C61063CBD
:101C4000000E0E03050617060E09041200120112FB
:101C50000212030101090110061B06001F01C11732
:101C600027612714618A0104C10B610422610327E3
:101C7000612207610422610A61096104226107C1CE
:101C80000261022261250428612702611161096154
:101C900011610729612A6110610A610EC101618A1F
:101CA0006103C107612609276104610CC109613C18
:101CB0000020064B000000190075054B00000019BC
:101CC0000027054B000000190097044B0000001985
:101CD0000017044B0000001900B8074B0000001962
:101CE00000E0064B000000190010034B0000001933
:101CF00000BA024B000000190093024B00000019CB
:101D0000004B024B00000019000B024B00000019B1
:101D100000DC034B000000190070034B00000019A9
:101D20000088014B00000019005D014B0000001904
:101D3000004A014B000000190026014B0000001969
:101D40000006014B0000001900EE014B00000019D5
:101D500000B8014B0000001900C4004B000000193E
:101D600000AF004B0000001900A5004B0000001957
:101D70000093004B000000190083004B0000001985
:101D800000F7004B0000001900DC004B00000019B8
:101D90000062004B000000190057004B00000019C2
:101DA0000052004B000000190049004B00000019D0
:101DB0000041004B00000019007B004B000000199F
:101DC000006E004B000000190031004B00000019AC
:101DD000002C004B000000190029004B00000019E6
:101DE0000025004B000000190021004B00000019E5
:101DF000003E004B000000190037004B00000019A6
:101E00000000804B024B0000000F004B024B000013
:101E1000000F004B024B0000000F0026014B00009A
:101E200080E0060F0017040F0027050F0000800A4E
:101E30000818006000800020004000000060009052
:101E40000020000000000000008010002080000042
:101E5000800000200000000040090FA8D69D2BA2A2
:101E6000AC932A75BB08B3DBB106090F88769D7A5F
:101E7000995DCBDA756AD46DD7B101090FB8969F19
:101E80006AA274D7ABCFCDBC9D753B2B0607A8D2F9
:101E9000E9743A2E0407723A9D8E0A06077C3A9D31
:101EA0004E470704079D4BA7A303030788E50307D5
:101EB00092CC0407B8D2E99C5304077C3A9D760E75
:101EC0000607DE6EB7DBED76070407A59276BB5DED
:101ED000010607B7DBED76BBDD020407A5926ABBFE
:101EE000DD020307F8743A0307759A100407D476E5
:101EF000BB924A2A0407B7DBAD5452011507A54E21
:101F0000472555552A1595F3D99C2293AA2A958AD7
:101F10004AEA745C95032907522E95AA4A95E27203
:101F2000AA9295755452E5B3924AAAAA542A6EE52C
:101F300052A9544E71399F4E392EA9AA52A9A8A46C
:101F4000AA64656B4A550A2907D369A9A293AA9284
:101F500095ADA9F64A4DEF54252BEBB8944BA5AAA5
:101F600052A5B89CAA64651D552A25552A2AE9F26E
:101F70004949A94A010E07A54E47E57C36A7C8A4E2
:101F80004EC75571011307522E95AA4A95E2522E5B
:101F9000954AE51497D4E9A8A44AA552394556397B
:101FA0000F07A5CB67B3924AAAAA542A2AE9F24995
:101FB000C9553904050E11110E00121F1012191502
:101FC000120A11150A06051F04171515090E151515
:101FD00008011905030A15150A121509061907EA59
:101FE0005455AA2AD59129974AA572159972A954D0
:101FF0002AA7B8A4AA64656B2AA9AA52A9B82A2E4E
:10200000F4F5F9F6F7F8FBFAFFFCFDFE0002030415
:1020100001060508090A070B0C0E0F008801640071
:1020200000001400DC036400000014004B02640094
:102030000000280017046400000014002705640055
:102040000000140020066400000028000080200624
:102050006400000014002705640000001400170449
:102060006400000028004B02640000001400DC0340
:102070006400000014008801640000002800008053
:10208000E0061E0000000A00E0061E000080D5F0F9
:102090008D14A1C881CFD9F1AF20005717A38B2E83
:1020A0002E47175D74D145175D74D145175D721FBA
:1020B0005D74D145175D74D145175D749129BAE8F7
:1020C000A28B2EBAE8A28B2EBAE8A28B2EBAE8A277
:1020D0008B2EB98F2EB4499D4EC7A55C2A954AA573
:1020E000728A2E5795AA4A55E51C9772A9542A95CB
:1020F0004A491449974DE71D977255A9AA5455EEC0
:10210000A24AE52A9BAD5C2A2AE752A9543624DD6F
:10211000D7575595AA2A3559AE2A5595AACA392AAC
:10212000A9F2CAA525977255A9AA5455AEA35485FC
:10213000ACE8A28B2EBAE8A28B2EBAE8A28B2EBAFC
:10214000E8A28B2EBAE8A28B2EBAE8A28B2EBAE8B0
:10215000A28B2EBAE8A28B2EBAE8A28B2EBAE8A2E6
:102160008B2EBAE8A28B2E321B07B22E954A653B06
:10217000AD5D369D7754D265D3F9E894AB4A55A549
:10218000AA721D977255A9AA5455AE031007B22E14
:10219000954A65E3723EA77CCA9129974AA552A940
:1021A0009C220210079C72A9542A95CA292EE9B2D2
:1021B000E9BCE352AE2A5595AACA75591FA38B2EC6
:1021C000A764E7D29DDCE7D28E2EB66D7ABAD8B678
:1021D000E9E962DBA6A78B6D9B9E2EBAE862DBA6BF
:1021E000A78B6D9B9E2E9B9E6D9BCFA6B7E9E97238
:1021F000694717DB363D5D4EE96D3EBA6C7A9B8FC1
:102200002E7439974EC79C733A2E652B59C9CA75DF
:102210006CD94A56B2728EAB9395AC64652353B6B3
:102220009295AC5C872BE5D3E95CC7A57C3A9D53BE
:10223000648E4B91392E2BD3E99CE2CB391D97B29A
:1022400095AC64E53A2EE5D3D9C894AD64252BD777
:10225000416FF7B5AB4AA952A9C97255A9AA5455FD
:10226000CE514995572E2DB994AB4A55A5AA721D4A
:102270002C1B5D74D145175D74D145175D74D1C5B4
:1022800094EB742EBAE8A28B2EBAE8A28B2EBAE891
:10229000A28B2EBAE8A28B2EBAE8A28B2EBAE8A2A5
:1022A0008B2EBAE8A28B2EBAE8A28B090A10000086
:1022B000000000000000000000000000000000001E
:1022C0000000EFEFE0EFEFEFEF0FEFEF01010101A3
:1022D000010101000101FFFFFFFFFFFFFFFFFF0002
:1022E000010101010101010101000000FF42424220
:1022F00042FF000000000300000000030000020293
:1023000002020202020202020000000000000000BD
:102310000000EFAFE06FEFEFED0FEBEF0101010118
:102320000101010001010000B0B000B0B0000000E8
:1023300000000101000101000000EFEFE0EEEEEE11
:10234000EE0EEFEF01010101010101000101EEECD0
:10235000E0E8E8EAE808ECEE010101010101010012
:102360000101ECE0C0C088808000E0EC01010101C7
:10237000010101000101E08000000800010086E089
:102380000101010101010100010100000000000044
:102390000000000000000000000000000000E080DD
:1023A00080000000000080E0010101010101010046
:1023B0000101ECE0C0808080C000E0EC010101017F
:1023C000010101000101EFECE0E8E8E8E80CECEFC6
:1023D00001010101010101000101EFEFE0EEEEEE6C
:1023E000EE0FEFEF010101010101010001013F0FBB
:1023F000A5AA64656B2AA9AA52A9B83A5595AA4A12
:10240000755CCEA7538E4BBA7C362BA9A4AA4AA5DD
:10241000E2562E95AA4A95E272AA92957554D2E593
:10242000B359492555552A15D2A5AA64656B2AA921
:10243000AA52A9B83A5595AA4A755CE9B454F1393B
:1024400055C9CA3A2AA92A59D99A2A9D962A7EE5B7
:1024500052A9AA54292EA72A595947255D3E9B9572
:10246000545255A55221122C07EA5455AA2AD57167
:10247000A5D352C5E754252BEBA8A4AA64656BAA83
:10248000745AAAF8954BA5AA52A5B89CAA64651DD2
:102490009554F9ACA492AA2A954A010207A553368D
:1024A000097F37E0C3142E53284C67B7DBED76BBAA
:1024B000DD6EB7DBED3A74A5B3DBED76BB550E915F
:1024C0006AEE7476BBDD6EB7DBED76BB0ED256A13D
:1024D000127D98534A2AA914D6A85232A4ADA492C8
:1024E0006A2472AE64285B2AA9E47882A311BA73C5
:1024F000CE39E79C5352C58538E59C736E9C1D17F9
:10250000EE9473CEE191147F5B259554524925B723
:102510003B082F89C7ED763B7F3ABDE3AF9D545210
:1025200049259554524925A552A594545249E5DCB4
:1025300076BB557AAB94545249259554524925A5FA
:10254000525249E59C92DBAD924E3AA9A4924A4977
:10255000E59C924A3A2795944A4925955452DDEADA
:1025600053EB7C7AABA492CA39E79454524925952F
:10257000545239A7E4761D6B3ABDDD6EB7DBED3AF8
:10258000BAEC763B5A0B8D4A2AA9E4385A2AE74618
:1025900016DE52848853712270E79C42221FE67631
:1025A000CE29EC11AE64285B2AA9E478E253216FAE
:1025B000E79C734E4925C3660A934A493BBEB6CE93
:1025C000D9A5728AEEB1E79CC3DC8AF29197E24A00
:1025D00021D045F6385B71A5504789BFAD924A2A94
:1025E000A9A492DB1DDDE3EEB1BF555249259554F8
:1025F00052492595543AD2F4564925955452C9ED7D
:10260000EC5B259554524925955472ABA4924A2A05
:10261000A9A4924A2A9D8E6CABA4924A2AA9A4929C
:102620004A47B6555249259554524925958E6CAB6B
:10263000A4924A2AA9A4D2916D9554524925955441
:1026400052E948D35B259554524925955452492562
:102650009554721BED5649259554524925954E8740
:10266000640000F4019C00A5000000A80093009CF9
:102670000000000900E9009C0000000900A5009C82
:102680000000000900F7009C0000000900A500A55B
:10269000000000A800E900A5000000A80083009C3D
:1026A0000000000900D0009C000000090093009C7D
:1026B0000000000900E9009C000000090093009C54
:1026C00000000009008B009C000000D0070180087A
:1026D0000B000202020100090400000102020000D6
:1026E000052400100105240101010424020605242B
:1026F0000600010705810310004009040100020AD9
:1027000000000007050202400000070583024000A8
:10271000000403090412010002EF020140412336C4
:102720008000010102030141726475696E6F204CE3
:102730004C430041726475696E6F204C656F6E6129
:1027400072646F000102040810204080C72E11241B
:102750001FBECFEFDAE0DEBFCDBF11E0A0E0B1E0F9
:10276000EEEAF9E602C005900D92AE3AB107D9F74C
:1027700027E0AEEAB1E001C01D92AD3FB207E1F73C
:1027800013E1C7EAD3E104C02197FE010E94CF34D0
:10279000C63AD107C9F70E94132F0C94D5340C9474
:1027A00000008091C30108958150833008F18AE0D0
:1027B000869F9001879F300D1124849FB001859FD3
:1027C000700D1124E1E0F3E0808184FF0AC0828172
:1027D00093818217930729F484819581861797073F
:1027E00039F03E9683E0E535F80771F780E008950B
:1027F00081E00895873030F4843040F5882331F14A
:1028000080E008958031E0F78AE0869F9001879FFD
:10281000300D1124849FB001859F700D1124E1E0DB
:10282000F3E0808184FF0DC082858B3051F482817A
:1028300093818217930729F48481958186179707DE
:10284000F9F23E9683E0E535F80759F781E00895FF
:10285000853039F120F4882321F180E008958750F4
:102860008830D8F78AE0869F9001879F300D112429
:10287000849FB001859F700D1124E1E0F3E0808119
:1028800084FF0AC0828193818217930729F484818F
:1028900095818617970709F33E9683E0E535F8079B
:1028A00071F781E00895982F8C3198F46F3F99F07B
:1028B000603198F4E82FE69580E1E89FF00111245B
:1028C000E551FE4FE60FF11D868190FF82958F70D6
:1028D000089581E0089580E0089582E00895E82F4A
:1028E000E69590E1E99FF0011124E551FE4FE60FD6
:1028F000F11D968180FD08C09F7080E1489FA00176
:102900001124942B96830895907F492B4683089534
:102910000F931F93CF93DF93EC01E1E0F3E0062EDA
:10292000000C770B042E000C550B808184FF05C032
:102930008F7098819F70891307C03E9683E0E535BC
:10294000F80799F780E02BC02181822F8F70A28138
:10295000B3818A0F9B2F911DAA81BB81A60FB71F40
:102960008C01065F1F4FA017B1073CF71A968A1714
:102970009B071CF722952F7084819581280F392F92
:10298000311DAC81BD81A40FB51FC9010A96A817DE
:10299000B9079CF61A962A173B077CF681E0DF916F
:1029A000CF911F910F91089580389105B0F4603454
:1029B000710598F4E4E4F7E290E1969FD001A078E5
:1029C0001124A80F6770E60FF11D9491AB5ABC4F0C
:1029D000442321F08C91982B9C93089590958C9191
:1029E0009823FACF0F931F93CF93DF93C82FD62F3F
:1029F000042F10E041E0B8018C2F90E00E94D41425
:102A0000CE5FDC17B8F7DF91CF911F910F9108953A
:102A1000480F592F511D1416150694F5803891054D
:102A20007CF597FF02C090E080E04138510514F03A
:102A300040E850E0481BFB01E770FF2721E030E051
:102A400001C0220FEA95EAF7209577FF02C0695F7F
:102A50007F4FFB0133E0F595E7953A95E1F7F69561
:102A6000FE2FEE27F795E795E80FF91FEB5AFC4F7D
:102A7000415030F08191DF01119782238C93F8CF80
:102A800008958F929F92AF92BF92CF92DF92EF9272
:102A9000FF920F931F93CF93DF935C01EB01042F01
:102AA000E22E6034710510F40E940815EC0EFD2E24
:102AB000F11CB701615071096034710520F4402F99
:102AC000C5010E940815D7FF02C0D0E0C0E04E014A
:102AD000670181E4E816F1041CF080E4C82ED12CD3
:102AE0008C149D044CF440E0B401C5010E94D41440
:102AF0008FEF881A980AECCF0A0D1B2D111D01507B
:102B00001109CC15DD053CF440E0BE01C8010E946E
:102B1000D4142196F6CFDF91CF911F910F91FF90A2
:102B2000EF90DF90CF90BF90AF909F908F900895DF
:102B30008091E30190E02091ED013091EE01821B44
:102B4000930B2AE030E0B9010E945033863020F028
:102B5000A901481B5109CA0121E005970CF020E0AA
:102B6000822F0895CF92DF92EF928091F107282F64
:102B700030E0F901EE0FFF1FE20FF31FEB54F84FA7
:102B800020813181428181508093F107E5EBF7E0AC
:102B900090E0981740F4C380D480E580C192D19230
:102BA000E1929F5FF6CF842FB901EF90DF90CF9035
:102BB0000895FC018091E101882311F13FB7F89459
:102BC00082E08093E9002091F200822F90E01816B5
:102BD000190614F481E090E0882339F0289844E63F
:102BE0004093E0014091F1004083222339F020918D
:102BF000F200211103C02BE62093E8003FBF0895A7
:102C00008FEF9FEF08952FB7F89483E08093E9004A
:102C10009091E800892F807295FF04C09091F20096
:102C200080E4891B2FBF08958091D80181110DC0C8
:102C300082E08093D40184E08093D5011092D70183
:102C40001092D60181E08093D80184ED91E008953F
:102C5000CF93DF931F92CDB7DEB76983DC01ED918F
:102C6000FC910280F381E02D41E050E0BE016F5FF6
:102C70007F4F09950F90DF91CF91089583E0809366
:102C8000E9008091F200882319F08AE38093E8003C
:102C900008950E94031690E00895CF93DF931F924A
:102CA000CDB7DEB7FC018485958597FD08C02FEF71
:102CB0003FEF358724870F90DF91CF910895CE01A4
:102CC00001960E94D915019719F4898190E0F3CFFC
:102CD0008FEF9FEFF0CF0F931F93CF93DF931F9250
:102CE000CDB7DEB78C01FC018485958597FF0BC0BD
:102CF000CE0101960E94D915019771F4898190E067
:102D0000F80195878487F801848595850F90DF9178
:102D1000CF911F910F9108958FEF9FEFF1CFFC019D
:102D20008485958597FD0BC09FB7F89482E08093CA
:102D3000E9008091F2009FBF90E0019608959FB74F
:102D4000F89482E08093E9008091F2009FBF90E0C8
:102D500008954091CE015091CF012091CC01309146
:102D6000CD0142175307B4F49091E8009570E1F358
:102D70009091E80092FD19C08093F1008091CE01FE
:102D80009091CF0101968F739927892B19F48EEFBB
:102D90008093E8008091CE019091CF0101969093AD
:102DA000CF018093CE0181E0089580E00895EF92F5
:102DB000FF920F931F93CF93DF93F82E192FE62ED8
:102DC000042F81E0860F880F0E94A91683E00E94DD
:102DD000A916CF2DD12FEC0EFD2EF11CCE15DF053F
:102DE000B9F007FF13C0FE0184910E94A916182FA5
:102DF00080E00E94A916812321968111EFCFDF91F7
:102E0000CF911F910F91FF90EF9008958881EDCFA2
:102E100081E0F5CFDF92EF92FF920F931F93CF9354
:102E2000DF93D82E8A01EB017B01E40EF51ECE154F
:102E3000DF0559F0D7FE12C0FE0184910E94A91649
:102E400021968111F4CF0FEF1FEFC801DF91CF91D1
:102E50001F910F91FF90EF90DF9008958881EECF42
:102E60000F931F93CF93DF931F92CDB7DEB782E00E
:102E7000898342E450E06FEC76E280E80E940A1712
:102E80000E941416DC0112960D911C91011511057A
:102E900089F0D801ED91FC910280F381E02DBE0113
:102EA0006F5F7F4FC801099597FD04C0F801008549
:102EB0001185ECCF89810F90DF91CF911F910F91F8
:102EC0000895615030F02091F100FC0120830196BB
:102ED000F8CF289884E68093E00108953FB7F894EE
:102EE0008091BF019091C001A091C101B091C20138
:102EF00026B5A89B05C02F3F19F00196A11DB11D55
:102F00003FBFBA2FA92F982F8827BC01CD01620F90
:102F1000711D811D911D42E0660F771F881F991F4B
:102F20004A95D1F708958F929F92AF92BF92CF9218
:102F3000DF92EF92FF926B017C010E946E174B01B2
:102F40005C01C114D104E104F104B9F00E946E17D0
:102F5000681979098A099B09683E734081059105C2
:102F600080F321E0C21AD108E108F10888EE880E4A
:102F700083E0981EA11CB11CE4CFFF90EF90DF907E
:102F8000CF90BF90AF909F908F9008958F929F9217
:102F9000AF92BF92CF92DF92EF92FF920F931F9367
:102FA000CF93DF936C017B018A0180910B01882311
:102FB00009F45CC08091E101882309F457C0809135
:102FC000D30180FF05C08091E00082608093E00023
:102FD000E801B12C8AEFA82E93E0892E2AE3922EE5
:102FE000209711F4BB20D9F10E94031681110AC069
:102FF000AA94AA20D9F161E070E080E090E00E94FC
:103000009317EECF8C171D0611F00CF08C2F9FB785
:10301000F8948092E9002091E80025FD02C09FBF4E
:10302000DFCF282F30E0C21BD30BF701815020F0F7
:1030300041914093F100FACFE20EF31EBB2021F044
:103040009092E800B12CEBCF8091E80085FDE7CFAE
:103050009092E800BB24B394209709F3F3CF5D98D6
:1030600084E68093D201101611063CF081E090E0D6
:10307000F6019383828310E000E0C801DF91CF91D5
:103080001F910F91FF90EF90DF90CF90BF90AF9086
:103090009F908F9008952091B701E091B501F09134
:1030A000B601CF0102969093B6018093B501222319
:1030B00019F0859194910895808191810895E1E7B7
:1030C000F0E080818D7F8083109291004698479830
:1030D0001092C9010895CF92DF92EF92FF92CF93A1
:1030E000DF930E944B18811520E8920741F4DF918D
:1030F000CF91FF90EF90DF90CF900C945F1821E07C
:103100002093C901813020E8920751F48091B301E6
:103110009091B4019093B6018093B5010E944B1831
:1031200097FD05C02091B201222309F45BC02091D4
:10313000B101211157C021E02093B801EC01DF77E4
:10314000209709F052C081E08093B90146983FE989
:10315000C32E3FE0D32EE12CF12CCAEFD0E0E0915A
:10316000B307F091B4070995811103C081E0809302
:10317000B9018091B801882329F08091B901882391
:1031800009F446C047980E944B18009709F444C0C0
:103190009C01DE010E94B434DC01CB0129E0B5952D
:1031A000A795979587952A95D1F7109290002AE0D8
:1031B00020939100D0929900C09298008093BA0118
:1031C0009093BB01A093BC01B093BD0180917100AD
:1031D000826080937100DF91CF91FF90EF90DF903C
:1031E000CF9008951092B801A9CF9E0150E040E021
:1031F00060E472E48FE090E00E94603469017A013B
:1032000081E0C81AD108E108F1081092B901A7CFEE
:103210004699B8CF479AB7CF8FEF9FEFDC01C5CF64
:103220009C01E1E7F0E090819D7F908381E08093B5
:10323000B7013093B6012093B5013093B4012093C8
:10324000B3010C946B187F928F929F92AF92BF92B2
:10325000CF92DF92EF92FF920F931F93CF93DF9362
:10326000DC01FA01D490319694914E5F5F4FCD2DE1
:10327000D0E02223E1F001E010E0892F877011F403
:1032800010E000E0E92FE695E695E695E00FF12FD6
:10329000F11DEC9F8001ED9F100DFC9F100D11247E
:1032A000209FF001219FF00D11244E0F5F1F7E0122
:1032B000EA0EFB1E1E141F040CF0A6C0A038B105B8
:1032C0000CF0A2C09B01290F311D121613060CF041
:1032D0009BC0603471050CF097C04115510509F48D
:1032E00093C0062F07709B0177FF02C0295F3F4FF5
:1032F00083E0359527958A95E1F7F22F77FF04C093
:10330000002311F0FFEFF20F222733272A1B3B0B7C
:10331000B7FD02C030E020E010E81A1B712E10E863
:10332000E116F1040CF47D2C721A6F2F0F2E000C95
:10333000770BF62EF094FF3F0CF0F12CE1E0892F93
:10334000877009F4E0E09695969596959E0F690F23
:10335000711D6930710514F098E09F1B9F2C9F0E22
:10336000692D70E8670350011124AA0DBB1DA20F3F
:10337000B31FDF9C200D311D1124420F531FC02E9F
:10338000002E000CDD082FEF30E0002E02C0220FCF
:10339000331F0A94E2F720953095832E9F0F9915DD
:1033A00099F1FD01EB5AFC4F7F01B12CA12CA71420
:1033B00028F5FA01EA0DFB1D649170E00C2C02C0A7
:1033C000660F771F0A94E2F797FC05C0F70180812A
:1033D0008223862B8083002351F0F6E0F9153CF020
:1033E000F701E058FF4F80818821872B80831FEFF2
:1033F000A11AB10A6FEFE61AF60AD9CF93944C0FCF
:103400005D1FA058BF4FCBCFDF91CF911F910F9180
:10341000FF90EF90DF90CF90BF90AF909F908F90F4
:103420007F900895BC0190E080E00C9493178FB1D9
:103430008095807F669B88601C9B846008950895BA
:103440001F93CF93DF93DC0130E020E050E040E0B9
:1034500011E0C1E0D0E02617370791F114968C9166
:103460001497811115C014961C93149712968D9180
:103470009C911397ED91FC911197E80FF91FE4913E
:103480001596EC931597019613969C938E9312972D
:1034900014969C91149715968C911597892349F051
:1034A000FE01022E02C0EE0FFF1F0A94E2F74E2B20
:1034B0005F2B990F14969C9314972F5F3F4FCBCFA0
:1034C000CA01DF91CF911F9108952F923F924F92A1
:1034D0005F926F927F928F929F92AF92BF92CF92A4
:1034E000DF92EF92FF920F931F93CF93DF93CDB7AD
:1034F000DEB72F970FB6F894DEBF0FBECDBF4C01DD
:103500007B012C870D875A8349831C821B821D8275
:103510001E8268E070E0CE0101960E94201A1C0114
:103520009C012F5F3F4F3B872A8768E070E0CE0108
:1035300001960E94201A8C0161E070E0CE01019694
:103540000E94201A2A853B85280D391D37FDF5C0BC
:1035500030E8831691040CF0F0C00F5F1F4F980104
:103560002E0D3F1D37FDE9C040E4E416F1040CF0D8
:10357000E4C06701F7FE04C0CC24DD24CE18DF08C8
:1035800057E0C522DD242701F7FE03C097E0490E6E
:10359000511C73E0559447947A95E1F7F7FE09C002
:1035A00021E0421A510828E030E0A9014C195D09D8
:1035B0006A01980117FF02C0295F3F4FA90163E02C
:1035C000559547956A95E1F758874F8307701127FE
:1035D000012B21F04F5F5F4F58874F830D8571019D
:1035E000011102C0F12CE12C898701E010E0B12C1F
:1035F000A12C88E090E09C012C193D093F872E8783
:103600004F815885A416B5060CF097C066246394C4
:10361000712C61E070E0CE0101960E94201A892B86
:1036200021F452E0650E711CF4CFB301CE01019676
:103630000E94201A01963C0170E060E06615770553
:1036400008F071C089858111102BA02FAA0F09F0F5
:1036500067C0A2014A0D5B1DCA0101960997D0F50A
:10366000C4018E0D9F1D80389105A0F5CA01969565
:10367000982F882797958795880D991D8E0D9F1DEA
:103680004F3F540709F454C0212F0C2C01C0220FC6
:103690000A94EAF7FC01EB5AFC4FB0810C85002339
:1036A00071F12B2B2083C114D104A1F047305105B7
:1036B00089F0212F30E00E8402C0359527950A94B9
:1036C000E2F7FC01EB52FC4F10814C854423D1F012
:1036D000212B20830D85011118C02FEFE21AF20A69
:1036E0004A855B85E416F506CCF05FEFA51AB50AAE
:1036F00001E0F12CE12C6F5F7F4F1A2F9FCF2095B7
:103700002B23D0CF20952123E4CF81E0E81AF108C4
:10371000F7FE04C09FEFA91AB90A710101E0EBCFCF
:103720000A2FA12FE8CF298531E02327298768CFE9
:10373000C114D10409F0BDCFCDCF2F960FB6F894A8
:10374000DEBF0FBECDBFDF91CF911F910F91FF90D4
:10375000EF90DF90CF90BF90AF909F908F907F9031
:103760006F905F904F903F902F9008958091E3016C
:1037700090E02091ED013091EE01821B930B6AE005
:1037800070E00E9450339C0181E0232B09F080E01F
:1037900008959091E901981714F0691714F4809333
:1037A000E90108951092E4011092EF0182E0809304
:1037B000E5011092F0018091E301873160F0809182
:1037C000ED019091EE0189399F4F2CF01092E501A7
:1037D0008EEF8093F0010895FC012285261714F0E6
:1037E000421714F4FC01628708958091E80181502A
:1037F0008093E80196E09093CB01882339F08AE02A
:103800008093EA018EE490E20C94101988E0F8CFDE
:10381000882329F083508D3010F080E0089581E0F6
:103820000895813028F0843028F08750893010F0D6
:1038300080E0089581E00895CF93DF9382EB90E0DC
:103840000E941C348093D10283EB90E00E941C34D0
:10385000C2EED1E08E8384EB90E00E9424349D83FD
:103860008C83DF91CF9108951F93CF93DF93C09105
:10387000D1026C2F82EB90E00E942A346C2F87EBF0
:1038800090E00E942A34C2EED1E01E81612F83EBCA
:1038900090E00E942A34612F88EB90E00E942A3445
:1038A0000C80DD81C02DBE0184EB90E00E943C3491
:1038B000BE0189EB90E0DF91CF911F910C943C34D5
:1038C000CF93DF93D82F8FEA90E00E941C34C82F4B
:1038D00080EB90E00E941C34D11104C0CC3411F470
:1038E000823581F16CE48FEA90E00E942A3462E52F
:1038F00080EB90E00E942A3461E081EB90E00E942E
:103900002A3461E082EB90E00E942A3465E083EB88
:1039100090E00E942A3461E086EB90E00E942A3415
:1039200061E087EB90E00E942A3465E088EB90E04C
:103930000E942A3470E060E089EB90E0DF91CF9143
:103940000C943C34DF91CF910895BF92CF92DF92D7
:10395000EF92FF920F931F93CF93DF93EC016E834F
:103960004F83862F880F880F860F8F70A42FAA0F82
:10397000AA0FA40F90E1A902D00111248A2B8983F8
:103980008CE067FD03C0662311F084E08C8747FF5D
:1039900044C01C862223B9F11985111134C08C85CD
:1039A000811141C01D868A819B812AE030E0B901E6
:1039B0000E946433062F8C819D81B9010E9464337B
:1039C000FF24FA94F60ECC24CA94C00EBB24B39400
:1039D000B00EDF2CD11A6D2D802F0E94531483302E
:1039E00089F46D2D8C2D0E945314E82E6D2D8B2D96
:1039F0000E9453141F5F9DEF9E0D923018F083506C
:103A0000823038F71987DF91CF911F910F91FF9086
:103A1000EF90DF90CF90BF900895442309F4BACF80
:103A200088E08C87B7CF0E94C43326E030E040E0C6
:103A300050E00E9460346987E6CF4F925F926F92A8
:103A40007F928F929F92AF92BF92CF92DF92EF922E
:103A5000FF920F931F93CF93DF93CDB7DEB73C0157
:103A6000502E4B889C88BD88203108F0BDC0082DA1
:103A70009E2D842EE62EE22FF0E0EF5BF24E0C94AA
:103A8000CF34511D511D511D6D1D6D1D6D1DF61D38
:103A9000F61DF61DF61DF61D291E291E291E511D97
:103AA000511D992321F0935010E0923008F411E059
:103AB00046EF60E0C3010E94881493E0591294C05D
:103AC0001123E1F1811190C046E065E0C3010E943D
:103AD000EC1B2B2D4EEF60E02EC040E06AE0C301EE
:103AE0000E94881411E01827912CEFEF8E1A9E0A7D
:103AF000F12CA401B701802F0E942814D82EB70101
:103B00006F5F7F4FA4018A2D0E942814E82E8C2D10
:103B10000E94081CF82E8A2D0E94111CF4E0CF127E
:103B20001FC01123E9F04AE067E0C3010E94EC1BCB
:103B30002B2D40E062E0C3010E94A51C812FDF9184
:103B4000CF911F910F91FF90EF90DF90CF90BF909A
:103B5000AF909F908F907F906F905F904F9008955F
:103B600094E0591214C0FF20D9F0882309F4D1C081
:103B7000112309F4D5C044E061E0C3010E94EC1BAD
:103B80002B2D40E062E0C3010E94A51C17C0E3E0BA
:103B90005E1206C0FF2021F046E065E01111C5CF9E
:103BA000DD20B1F08BE0F30182872B2D42E060E055
:103BB000C3010E94A51C0750093010F011E0BECFD0
:103BC0008FE1F301838780E890E20E941019F6CF1D
:103BD000882331F0FF2041F0112309F4AFCFCBCF80
:103BE000FF2011F0E110F8CF10E0A8CF4AE060E02C
:103BF000C3010E94881411E01827482D50E04F5F40
:103C00005F4F6E2D70E0802F0E942814033059F40E
:103C1000112309F493CF4BEF6AEFC3010E94EC1B11
:103C20002B2D42E058CF8823F9F2112309F486CFD7
:103C30008BE0F30182872B2D42E060E0C3010E94FC
:103C4000A51C0750093008F0B9CF8FE1F301838735
:103C500075CF40E066EFC3010E94881411E0182779
:103C6000C82CD12CFFEFCF1ADF0AF12CA601B70127
:103C7000802F0E942814A82EB70161507109A60157
:103C8000842D0E942814E82E892D0E94081CF82EED
:103C9000842D0E94111C94E099120BC0112349F04D
:103CA00049EF66EFC3010E94EC1B2B2D40E06EEF45
:103CB0006ACFE4E05E1209C0FF20B9F0882369F101
:103CC000112391F14FEF6CEFEDCFF3E05F120DC0D8
:103CD000FF2059F0112349F046E065E0C3010E943E
:103CE000EC1B2B2D40E06EEF26CFA1105BCF88237D
:103CF00039F0FF2009F478CF112309F41FCFE2CF68
:103D0000FF2009F471CFEE2009F46ECF1111C8CF56
:103D100015CFDD2009F466CF45CFAA20A1F342CF0D
:103D2000DD2009F40BCF3ECFAA2009F407CF3ACF0C
:103D30002F923F924F925F926F927F928F929F92BB
:103D4000AF92BF92CF92DF92EF92FF920F931F93A9
:103D5000CF93DF93CDB7DEB72E970FB6F894DEBFC3
:103D60000FBECDBF8091E20190E02091EB01309138
:103D7000EC01821B930B05962AE030E0B9010E940A
:103D80005033162F6E878091E30190E04091ED0152
:103D90005091EE01841B950B0596B9010E9450339A
:103DA0007B016D878091CB01853009F077C1812F30
:103DB0000E945314082FC090F707D090F807D094B2
:103DC000DC201092E4011092EF018091E9018B3028
:103DD00021F01092E5011092F0016E2D812F0E94CA
:103DE0005314863071F58091E6019091E701499670
:103DF0009093E7018093E60140E06E2D812F0E94B1
:103E00006F148091D202882319F081508093D202DE
:103E1000B090D202B11011C08091D302B81668F4EC
:103E2000EB2DF0E0EE0FFF1FEB52FD4F43E0618101
:103E300080810E946F14B394EFCF81E29EE10E94D3
:103E400010198091AF019C2D9C709C3009F0E4C149
:103E50008F5F8093AF01853130F08D3308F469C0F6
:103E60008D3309F479C08D2D8470D3FC02C00C947D
:103E70001C2B81110C941F2B0E94B61B882311F45C
:103E80000C941F2B8091E20190E02091EB01309186
:103E9000EC01821B930B02966AE070E00E945033A3
:103EA000162FDD24DA94D60E6E2D8D2D0E9453141C
:103EB000A82EBB24B394BE0C6B2D8D2D0E945314E1
:103EC000813011F00C941F2B8FEF8A0D823010F48B
:103ED0000C941F2B53E0A51611F40C941F2B84EFA8
:103EE0008093E9011092E4011092EF0147E06B2DFD
:103EF0008D2D0E946F148091F107843169F093E059
:103F0000899FF0011124EB54F84FD082B1829CEDCF
:103F100092838F5F8093F1078091F7078093F80772
:103F20000E94171A8093F70783E09EE10E94101900
:103F300022C020E430E0A901481B5109CA01880FC2
:103F400093E894BD9FEF97BD91EF909380001092FE
:103F5000880080938A0087CF1092AF0183E884BDE8
:103F60008FEF87BD81EF80938000109288001092C0
:103F70008A000E94F51B8091F50780FD8FC010928A
:103F800002031092100310921E0310922C03109241
:103F90003A0310924803E1E06E2EE3E07E2EF30137
:103FA000808184FF72C0828193816AE070E00E9408
:103FB0006433D62E6987848195816AE070E00E941F
:103FC0006433F62E6A878D2D0E945314B82EEE248A
:103FD000E394EF0C6E2D8D2D0E945314982EF6E075
:103FE000BF121AC0D30118968C91811115C00E947E
:103FF000C4330E94C4332AE030E040E050E00E9425
:1040000060346C5E7F4F8F4F9F4FF301608740E0BD
:104010006F2D8D2D0E946F14D3011A968C911A97D3
:104020008D309CF51296ED91FC91FC87EB87CF01CA
:104030006AE070E00E946433892B39F5D30114964D
:104040000D911C91C8016AE070E00E946433892BD5
:10405000E1F4F3018385882309F416C4808588235D
:1040600079F0FA946F2D8D2D0E945314811108C0A0
:10407000D30118961C9246E06F2D8D2D0E946F146F
:10408000F3011782838581508387FEE06F0E711CD8
:1040900025E5621623E0720609F081CF8091F507CD
:1040A0009091F6076CE070E00E946433892B31F444
:1040B0008091AE0191E089278093AE011091CB01F0
:1040C00088EF810F833010F40C943729B12CA12C88
:1040D000712C912C812C612CC090EB01D090EC01C3
:1040E000C80CD91CC60109968938910528F5E090BD
:1040F000ED01F090EE01EA0CFB1CC7010996893432
:104100009105D0F4672D862D0E945314082F882323
:1041100039F0282F4CEA52E2B701C6010E94231958
:1041200029EF200F243040F4B7016A5071094FE2A3
:104130005EE1C6010E94231963943AE0830E911C4C
:104140004CE16412C9CF73945AE0A50EB11C80E112
:104150007812BFCF153021F08091AE018823F1F0A5
:104160008091E901082F001F0027001F082E000C76
:10417000990B97FF03C0919581959109880F990B31
:10418000FC01E45EFE4F408151816091E30170E0EB
:104190008091E20121E090E00E94651A61E0262E04
:1041A00063E0362E2101D2018C9184FFA9C4E091F5
:1041B000EB01F091EC01F887EF8312968D909C90C3
:1041C00013976F01C80CD91C14962D913C9115972B
:1041D000E090ED01F090EE01E20EF31E1B96EC91E3
:1041E0001B97E33108F058C5F0E0E750FF4D0C9401
:1041F000CF3466256A266A266626662662266226E9
:104200005B265B26542654264926492650265026EE
:104210004926492650265026882309F424CE83E8CF
:1042200084BD8FEF87BD81EF80938000109288005E
:1042300010928A001092AF0116CE0E94B61B8823FE
:1042400011F40C941F2B8091E20190E02091EB017E
:104250003091EC01821B930B02966AE070E00E94A1
:104260005033162FDD24D394D60E6E2D8D2D0E9443
:104270005314B82EAA24A394AE0C6A2D8D2D0E943F
:104280005314813011F00C941F2B8FEF8B0D823063
:1042900010F40C941F2BA3E0BA1611F40C941F2BEE
:1042A0008CE08093E9011092E4011092EF0147E065
:1042B0006A2D8D2D0E946F148091F107843109F4CD
:1042C0002BCEB3E08B9FF0011124EB54F84FD0823A
:1042D000A1821DCEF4E02F1621F02F81243009F0A9
:1042E000CDC168E087E00E94C91B0E945F1899C099
:1042F0000E949815882309F455C08F81835082301D
:1043000010F18114910481F1011141C0511060C17B
:10431000892811F40C94782BB6016F5F7F4FA501AB
:10432000862D0E94FA13082F811111C01092E4010A
:104330001092EF01002309F4A1C08BE08093E90102
:104340000E94D21B18CE002389F3552029F064E087
:1043500081E00E94C91B65C03F816AE087E034307C
:10436000C1F366E085E0F5CFA501B601832D0E947B
:10437000FA13182F882311F40C94172B8BE08093D9
:10438000E90181EB9CE10E941019012FCFCFA5011B
:10439000B6016F5F7F4F862D0E94D413882309F4E6
:1043A000BBCFD5CF62E06E0D872D0E945314382EFF
:1043B000862D0E94081C002311F40C940C2B8823DA
:1043C00011F40C94072B36014FEF641A740AA501FF
:1043D000B301832D0E94D41381111DC0892899F146
:1043E000642D812F0E945314182F8F810E94081C66
:1043F000082F882309F49ACFB6016F5F7F4FA5017C
:10440000812F0E94FA13082F882309F48FCF8BE0A5
:104410008093E9016ACF64E081E00E94C91B109299
:10442000E9018091ED015AE0E59E800D1124809311
:10443000E3018091E2018C3390F482E08093E40107
:104440001092EF011BC0A501B301832D0E94FA1346
:10445000082F882309F46ACF66E085E044CF2091D5
:10446000EB013091EC0129363F4F34F01092E4011A
:104470008EEF8093EF0102C087FFDFCF1092E5013E
:1044800081C1C5FEFDC06E2D812F0E945314782E70
:104490008091E20190E02091EB013091EC01821BD0
:1044A000930B6AE070E00E9450334C0155245A94FB
:1044B000510E892B09F0512E6E2D852D0E9453141B
:1044C000282E442443944E0C642D852D0E945314B1
:1044D0008F8381E0810F8114910409F4812F642D71
:1044E0000E945314382E822D0E94081C082F570159
:1044F000BB24AFEFAA1ABA0AC12ED12CA501B6016E
:10450000832D0E94D413682E0E94B61B9091E9015E
:104510009B3091F4882309F4AFC061100C94742B84
:10452000B4E02B1611F07B12A9C069EF86EF0E9450
:10453000C91B0E945F187FC00E949815882309F448
:104540004BC08DEF870D823020F18928A1F1011138
:1045500002C061103DC0642D812F0E945314182F9A
:10456000872D0E94081CF1E0CF1AD108882339F06A
:10457000A501B601812F0E94D41381110FC0A5019E
:10458000B601812F0E94FA13082F882309F4CECE9A
:1045900005C0002309F4CACE662029F06FEF8CEF26
:1045A0000E94C91B48C0E4E069EF86EF7E16C1F3A4
:1045B00066E085E0F5CFA501B601832D0E94FA13D0
:1045C000182F8111DBCE0111E9CF662009F4AECEA0
:1045D0001092E9010C94782B62E06E0D852D0E94FB
:1045E0005314182F8F810E94081C002309F49ECEBB
:1045F000882311F40C94782B21E0C21AD108A5016C
:10460000B601812F0E94D41381110FC0A501B601FC
:10461000812F0E94FA13082F8928D9F0882309F4E2
:1046200085CE8BE08093E90184CF6FEF8CEF0E9401
:10463000C91B1092E9018091ED013AE0E39E800DE3
:1046400011248093E3018091E2018D3340F08EEFDD
:10465000F5CE882309F46ACE66E085E068CF209124
:10466000EB013091EC0137FF04C01092E40182E0CD
:1046700000CF8111ECCF02CF01E058CE082F56CEEB
:10468000C7FE92C08091E30190E02091ED0130914E
:10469000EE01821B930B08966AE070E00E94503393
:1046A0007B01B62E0E94B61BC82E6FEF6E0D8111D6
:1046B00001C06E2D812F0E945314D82ECC2019F0EA
:1046C000BB24B394BE0C6B2D812F0E945314909188
:1046D000E90195301CF19730A4F09B30F9F40430D7
:1046E00011F4C11099C0A70155274F5F5F4F612F8B
:1046F00070E00E94D413882309F422CE1092E901BD
:1047000008C0CC2061F1033021F48FEF8D0D823091
:1047100030F50E945F181092E40192CE0E945F185B
:104720008091E20190E02091EB013091EC01821B3D
:10473000930B2AE030E0B9010E945033863020F01C
:10474000A901481B5109CA0105972CF7033019F735
:104750008FEF8D0D8230F8F285E08093E901809132
:10476000EB015AE0159F800D11248093E201109215
:10477000E4011092EF018091E301883130F08EEF77
:104780008093E5011092F001F6CB2091ED0130917C
:10479000EE0137FF06C01092E50182E08093F00140
:1047A000EACB8111ECCFE7CBC4FC09C08091E501D5
:1047B000823029F08091F0018E3F09F0DCCB8091AE
:1047C000E30190E02091ED013091EE01821B930B0B
:1047D00008966AE070E00E9450337B01B62E0E947A
:1047E000B61BD82E6FEF6E0D81116E2D812F0E949A
:1047F0005314C82EDD2019F0BB24B394BE0C6B2DCE
:10480000812F0E945314B82E8091E9018B30C1F49E
:10481000043031F4DD2031F087E08093E90179CF75
:10482000D11008C0A70155274F5F5F4F612F70E07F
:104830008B2D5FCF84EF8C0D843008F46ACFF2CFDC
:1048400083E0B8120DC08091EB019AE0199F800DB2
:1048500011248093E2016BEF8AEF0E94C91B70CD97
:104860008B2D0E94081C882309F448CFB11003C087
:104870008BE08093E9018091EB01AAE01A9F800D03
:1048800011248093E2015CCD6FEF6F0D8D2D0E949E
:1048900053148F836F2DCC24C394CD0C8C2D0E9488
:1048A0005314582E6E2D8C2D0E945314482E6E2DAD
:1048B000EE24EA94ED0C8E2D0E945314382E6F2DA9
:1048C0008E2D0E945314282ED30119968C9119977E
:1048D000882309F46BC01F922F923F92892CA42C3D
:1048E000C52CEF800B2D1D962C914F2D6D2DC301E6
:1048F0000E941D1DF3019185915091870F900F909B
:104900000F908111C2CB1485F3018085882379F043
:104910009FEF990D923058F4B11009C081508087F3
:10492000811105C046E06F2D8D2D0E946F14F1E0BE
:10493000FF932F923F92892CA42CC52CEF800B2D36
:10494000212F4F2D6D2DC3010E941D1D0F900F9023
:104950000F9081119ACBF12E78E0D72E112309F414
:104960009AC0115021E02F932F923F92892CA42CB2
:10497000C52CEF800B2D212F4A856985C3010E942C
:104980001D1D0F900F900F90882309F44BC6D30183
:104990001A968C918B3009F078CB892D0E94111CCE
:1049A000882309F472CBF30117826FCB8091E20167
:1049B00090E02091EB013091EC01821B930B2B8551
:1049C0003C85281B390BC9012091E30130E040915F
:1049D000ED015091EE01241B350B021B130B97FFC9
:1049E00025C010161106BCF4919581959109081700
:1049F0001907DCF180179107D4F511E0EDEFE10F15
:104A000080E0EC3020F4F0E0E05FFE4F8081D301E5
:104A10001D968C9379CF0115110559F108171907C7
:104A200054F1801791074CF515E0E8CF0097C9F0D5
:104A30001016110644F4081719070CF18017910796
:104A400004F51FE0DBCF01151105E9F01195019583
:104A5000110980179107CCF008171907C4F41BE05F
:104A6000CDCF17FF16C018E0C9CF13E0C7CF12E0B3
:104A7000C5CF14E0C3CF17E0C1CF16E0BFCF1DE014
:104A8000BDCF1EE0BBCF1CE0B9CF19E0B7CF1AE015
:104A9000B5CF10E0B3CF1FE065CFF39431E03F9383
:104AA0002F923F92892CA42CC52CEF800B2D2F2DFB
:104AB0004A856985C3010E941D1D0F900F900F90BC
:104AC000811165CFDA94D11049CF61CF1A968C91BC
:104AD000082F001F0027001F082E000C990B97FFBE
:104AE00003C0919581959109880F990BFC01E45EB3
:104AF000FE4F4081518121E0B701C6010E94651A35
:104B0000FEE04F0E511C25E533E02415350509F074
:104B10004ACB8090E201912C8091EB019091EC01C5
:104B2000881A990A6090E301712C8091ED019091AF
:104B3000EE01681A790AD1018C9184FF34C0129673
:104B40008D919C911397A401481B590B14968D913C
:104B50009C91B301681B790BC090E3012C2D30E0D0
:104B6000261B370BE090E2018E2D90E0841B950B05
:104B7000273FBFEF3B070CF00EC18F3FEFEF9E07C3
:104B80000CF44CC18C3791050CF050C1E3948E2D80
:104B9000841B5BE9A52E5EE1B52E41ED5EE190E060
:104BA0008F3F09F02AC13EE0230E311C421453040A
:104BB00011F6812F8B7F833009F057C10091CA0114
:104BC000802F002E000C990B302F330F27E3231B6F
:104BD00040E450E0481B590B440FBC010E944115B2
:104BE000402F60E880E00E94F21446E3401B60E83A
:104BF00080E00E94F214F12CE12CC02ED12C41E077
:104C0000B701C6010E94D41442E0E40EF11C52E444
:104C1000E516F104A1F7AFE7EA2EE01AD12CC12C7A
:104C2000F12C41E0B601C7010E94D41482E0C80E05
:104C3000D11C92E4C916D104A1F7133009F0FBC2CC
:104C40000150E02E002E000CFF088BE190E08E1941
:104C50009F09880F20E430E02E193F09B22EBB0CCB
:104C6000902EA12CD12CC12C11E0180F97FCF7C06D
:104C7000C7018C199D09212F2A0D4B2D4A0DBC010E
:104C80000E9441159A94AFEFCA1ADA0AA394A3942A
:104C9000EDCFB1E0CB1AD10800E04BE75EE12BCFBE
:104CA000EFEFCE1ADE0AF8CFF2E0EF1AF10800E0DB
:104CB0004AE65EE120CF24E0E21AF10800E049E58F
:104CC0005EE119CF36E0E31AF108F1CF48E0E41ACB
:104CD000F108F4CF5AE0E51AF1082A503109159687
:104CE0003C932E9314971B961C92C4016AE070E0CB
:104CF0000E946433062FC9016AE070E00E946433A9
:104D0000B62E77247A94700E872D0E945314682E45
:104D1000AA24A394AB0C6A2D872D0E945314782EDD
:104D20000F5F6B2D802F0E945314B82E6A2D802F99
:104D30000E945314082F8091E20190E0EF81F885E2
:104D40008E1B9F0B881599059CF4862D0E94081CCC
:104D50008823C1F0872D0E94111C882399F0EFEF62
:104D6000D2011A96EC931A97FEEF1696FC939FCFFA
:104D70008B2D0E94081C882391F3802F0E94111C08
:104D8000882369F381E0D2011A968C931A97E2E0A6
:104D90001696EC938CCF25333105A4F08F3FFFEFAF
:104DA0009F070CF44CC08C3791050CF050C0E39475
:104DB0008E2D841B4CE8A42E4EE1B42E40EC5EE117
:104DC00093E3EECE8C3F2FEF920754F49C2D961B6D
:104DD0003EEAA32E3EE1B32E47EE5EE180E00DC039
:104DE0008C3791050CF4DFCE9C2D961B2AEAA22E5F
:104DF0002EE1B22E42EE5EE18CE7C92ED12CE82ED8
:104E0000F12C00E020E0B601C7010E94651A21E004
:104E1000A501B601C7010E94651AC5CE93EAA92E65
:104E20009EE1B92E4AED5EE190E0D8CF89EBA82E45
:104E30008EE1B82E44EF5EE190E08BE7DECF04E92F
:104E4000A02E0EE1B02E49EC5EE192E3C7CFB2EBAB
:104E5000AB2EBEE1BB2E4CEE5EE192E3EECF0093B3
:104E6000CA0184E00F3F09F4FFC110E000E0F7E35E
:104E7000EF2EF12C40E0B701C8010E94D414FFEFDF
:104E8000EF1AFF0A20E4E216F104A1F70F5F1F4FAB
:104E90000038110561F748E360E880E00E94F214F1
:104EA0008091E6019091E701FE01319626E0DF0155
:104EB0001D922A95E9F77F019E01295F3F4F0AE085
:104EC00010E0B8010E9464338193CB012E173F0795
:104ED000C1F700E021E04DED5FE16AE370E090E0B2
:104EE00080E00E94651A06E310E0F70121917F013E
:104EF00043EB5FE16AE370E0C8010E9423190550AB
:104F000011090831110589F71091E80100E021E04D
:104F100040EA5FE16AE370E080E490E00E94651A95
:104F2000EAE0FE2E812F6F2D0E94C334192F282F07
:104F300043EB5FE16AE370E082E590E00E942319B1
:104F4000212F43EB5FE16AE370E087E590E00E9488
:104F500023191091CB01153009F0DAC11091D2025A
:104F600021E045E85FE16AE370E080E690E00E94BE
:104F7000651A812F6F2D0E94C334192F282F43EB00
:104F80005FE16AE370E086E790E00E942319212F39
:104F900043EB5FE16AE370E08BE790E00E94231946
:104FA0004091F5075091F6078091E4017091E50179
:104FB0006091EF013091F00140FF02C2437055272C
:104FC000452B01F5A1E0B3E045E553E09C9194FF4A
:104FD00015C01B969C911B97911110C01A96EC91CD
:104FE0001A9793EF9E0F933008F000C2E45FF0E051
:104FF000E050F04EE4911A96EC931A971E964A17D9
:105000005B0721F72091E201280F2093E201109124
:10501000E301170F1093E301E090EB01F090EC0136
:10502000E60EF11C67FDFA94F092EC01E092EB01C0
:105030004091ED015091EE01430F511D37FD5A95FE
:105040005093EE014093ED01812F90E0841B950B6E
:105050000596EAE0F0E0BF010E945033362F822F20
:1050600090E08E199F090596BF010E945033862F4C
:10507000632F0E9453141230A8F5833099F51091D4
:10508000D1021F5F8091E8018A3018F48F5F80930E
:10509000E80186E08093CB011093D102612F82EB6F
:1050A00090E00E942A3489E01932B0F081EB90E060
:1050B0000E941C34843008F0ABC111E0180F612F3E
:1050C00081EB90E00E942A34612F86EB90E00E94F1
:1050D0002A340E94341C8EE08093EA018CE190E235
:1050E0000E9410198091F50780FD75C001E013E062
:1050F00075E5E72E73E0F72ED8018C9184FF4FC041
:1051000016968C91169712964D915C911397480FB5
:10511000511D87FD5A9513965C934E9312971796DF
:105120008C91179714962D913C911597280F311D4E
:1051300087FD3A9515963C932E9314978091E20142
:1051400090E06091EB017091EC01861B970BFC01E4
:105150003296BA01685F7F4FE617F70704F54E5F96
:105160005F4F089648175907D4F48091E30190E007
:105170004091ED015091EE01841B950BBC016E5FD7
:105180007F4FA901485F5F4F6417750744F42E5F96
:105190003F4F08962817390714F40E94F51B025F49
:1051A0001F4FE016F10609F0A7CF10E000E0612FD5
:1051B000802F0E94531499EF980F943030F441E0FF
:1051C000480F612F802F0E946F140F5F0C3179F709
:1051D0001F5F103159F78091F107882309F492C1BC
:1051E000F12C4DE0942E55E5A52E53E0B52E6AE046
:1051F000E62E8091F107F81608F07AC1CF2CD12C59
:105200008601000F111FF801EC0DFD1DEB54F84F46
:105210008281882371F081508283803109F407C133
:1052200008F0F8C0813009F404C14FE0883009F477
:10523000F7C0F394DECF10E8F12CE12CE01664F413
:1052400027EB210F412FB701C7010E944115BFEF86
:10525000EB1AFB0A1250F2CF0F5F0093CA010C3118
:1052600009F003CE8091EA018093CB01FECD1A3084
:10527000A9F400E021E047E45FE169E170E08AE23F
:1052800090E00E94651A46E167E589E20E94F21407
:1052900040E267E589E20E94F214E7CD00E021E0F8
:1052A00046E15FE1183079F11091D102812F64E677
:1052B0000E94C334082F282F43EB5FE169E170E0BF
:1052C00088E490E00E942319812FECE90E9F800D65
:1052D00011246AE00E94C334192F282F43EB5FE1A9
:1052E00069E170E08DE490E00E942319212F43EBE7
:1052F0005FE169E170E082E590E00E94231900E03F
:1053000021E04CEF5EE169E170E08BE290E0B9CF23
:10531000E090D10200E021E045E75FE16AE370E060
:1053200080E690E00E94651A64E670E08E2D90E0C1
:105330000E945033262F082F43EB5FE16AE370E0B1
:1053400081E790E00E942319802F6F2D0E94C334C3
:10535000092F282F43EB5FE16AE370E086E790E0D6
:105360000E942319202F43EB5FE16AE370E08BE793
:1053700090E00E9423192091F7078091F80780950B
:105380008223143009F026C19091B00122FF10C190
:105390009E3208F0ECC0993208F4F5C083E884BD71
:1053A0008FEF87BD81EF8093800080E48093880039
:1053B00010928A008091B0018F5F8093B001A2C0EB
:1053C000811107C0711105C0611103C0332309F4B5
:1053D000F5CD9091E901ECE0E90FEC3120F4F0E03B
:1053E000E050F04E94919093E901E8CD16969C918F
:1053F0001697911106C017969C911797992309F457
:10540000FDCD9CE09E0F9C3108F0F5CDE92FEFCD4E
:105410008FE062CE883149F04CE0803209F009CF4C
:10542000618180810E946F1404CF4DE0F9CF4EE07E
:10543000F7CF8091D40290E0880F991F87509D4F3D
:10544000A1E0B3E03F01AF014F5F5F4F2C9124FF1C
:1054500035C0F30120812E9D9001112412966D918B
:105460007C9113972617370749F5FA0120812E9D65
:105470009001112414966D917C911597261737078A
:10548000E9F4FC01218160816E9DB0011124139625
:105490007C936E9312972E9D9001112415963C9348
:1054A0002E9314971A969C921A971B961C921B97F0
:1054B00016961C92169717961C9217971E96AA1668
:1054C000BB0621F6F801EC0DFD1DEB54F84F808171
:1054D0002E85821306C081813D85831302C00E9400
:1054E000F51B0C0D1D1DF801EB54F84F41E098CF52
:1054F0008091B707813031F40E94B2158091F10795
:105500008111F6CF8091AF01811118C08091B00157
:10551000811114C08091D202811177C09091CB018A
:10552000953009F480E293E894BD809587BD81EFC2
:10553000809380001092880010928A002E960FB6F9
:10554000F894DEBF0FBECDBFDF91CF911F910F91B9
:10555000FF90EF90DF90CF90BF90AF909F908F9093
:105560007F906F905F904F903F902F90089593336E
:1055700070F09091D10287FF14C0983290F49F5F31
:105580009093D102BFCF9F5F9093B001BBCF83E8D0
:1055900084BD8FEF87BD81EF8093800010928800DB
:1055A00007CF84FFAFCF923008F4ACCF9150E8CF53
:1055B000992391F0933340F092E09093CB011092B5
:1055C000B001882309F49ECF1092F8071092F707D4
:1055D00085E015C01092B001882309F493CF1B30E9
:1055E00048F4193058F4173069F0183069F7109200
:1055F000CB0188CF1E3009F485CFE6CF82E08093BF
:10560000CB0180CF8091EA01FACF80E08CCF89284E
:1056100011F00C94F0216CC0892811F40C9496219F
:105620000C94F0214FE0F41238CAF12C37CA011162
:105630000C94A7210C94862181110C941D21C6FC89
:1056400002C00C9441226E2D812F0E9453148F832F
:105650008091E20190E02091EB013091EC01821BFE
:10566000930B6AE070E00E9450334C0177247394EE
:10567000710E892B09F0712E6E2D872D0E94531407
:10568000282E442443944E0C642D872D0E945314DD
:10569000682E8FEF810F8114910409F4812F642DFE
:1056A0000E945314382E822D0E94081C082F570187
:1056B000BB24EFEFAE1ABE0AC12ED12CA501B60154
:1056C000832D0E94D413582E0E94B61B9091E9019D
:1056D0009B3011F00C947821882311F40C943C2316
:1056E000552011F40C946A211092E9010E945F1870
:1056F00000E00C9496211F920F920FB60F92112486
:105700008F939F938091E1009091E100937F90931C
:10571000E10083FF0FC01092E90091E09093EB004D
:105720001092EC0092E39093ED001092E10198E06A
:105730009093F00082FF22C093E09093E900909153
:10574000F200992319F09AE39093E8009091D20126
:10575000992341F09091D20191509093D2019111EF
:1057600001C05D9A9091E001992341F09091E00190
:1057700091509093E001911101C0289A84FF18C0C4
:105780008091E2008E7E81608093E2008091E10052
:105790008F7E8093E1008091D3018E7E8061809323
:1057A000D3019F918F910F900FBE0F901F9018956E
:1057B00080FFF7CF8091E2008E7E80618093E200CF
:1057C0008091E1008E7E8093E1008091D3018E7EF6
:1057D0008160E5CF1F920F920FB60F921124CF92E6
:1057E000DF92EF92FF920F931F932F933F934F936C
:1057F0005F936F937F938F939F93AF93BF93EF9339
:10580000FF93CF93DF93CDB7DEB76C97DEBFCDBFED
:105810001092E9008091E80083FF25C068E0CE0186
:1058200045960E94611782EF8093E8008D8987FF7B
:1058300039C09091E80090FFFCCF982F907609F046
:1058400034C19E894F89588D2F89F88C911131C0B0
:10585000803861F58091D1018093F1001092F100C0
:105860008EEF8093E8006C960FB6F894DEBF0FBE03
:10587000CDBFDF91CF91FF91EF91BF91AF919F91FC
:105880008F917F916F915F914F913F912F911F91D8
:105890000F91FF90EF90DF90CF900F900FBE0F9081
:1058A0001F9018959EEF9093E800C7CF1092F100DB
:1058B000D5CF913059F48111D3CF4130510581F6C4
:1058C0008091D1018D7F8093D101CACF933049F46B
:1058D0008111C6CF4130510519F68091D101826006
:1058E000F2CF953041F48091E80080FFFCCF206832
:1058F0002093E300B5CF963009F0A9C00B8D1C8D25
:1059000022E01092E9001092CF011092CE01F21223
:105910002EC01092CD011092CC010E9430171F8230
:1059200099E09983FA8291E09E8390EA98879AEFB2
:1059300099872091CE013091CF01275F3F4F3C8363
:105940002B838D831092E9001092CF011092CE012B
:105950001093CD010093CC0149E050E0BE016F5F90
:105960007F4F80E00E940A170E94301779CF109372
:10597000CD010093CC010E941416DC0112960D910A
:105980001C910115110509F451C1D801ED91FC914B
:105990000480F581E02DBE016B5E7F4FC801099543
:1059A000009709F03EC1F80100851185EACFF3E0C8
:1059B000FF120EC08F89882309F440C0823061F441
:1059C00040E860E183E397E20E94D716811148CF57
:1059D00081E28093EB0047CF813029F440E86BE00F
:1059E00087E297E2F1CF833099F70E941416DC0129
:1059F0001296ED90FC908E010F5F1F4F6801E1142D
:105A0000F10479F0D701ED91FC910680F781E02D4A
:105A1000B801C7010995080F111DF701E084F18451
:105A2000EECFD8011C92F60101900020E9F73197E2
:105A3000BF016C197D0940E0C601C6CF61E177E284
:105A4000FB01449150E080E80E940A1709CF97308B
:105A500009F4BECF983021F481E08093F10000CFAB
:105A6000993009F0FDCE837009F0B2CFEFE8F1E094
:105A700081E031E096E32191222371F08093E900E7
:105A80003093EB00DF0111972C912093EC00909361
:105A9000ED008F5F873079F78EE78093EA001092F0
:105AA000EA008F898093E101DBCE8B8D9C8D109273
:105AB000E9001092CF011092CE019093CD01809316
:105AC000CC01898D811192C08E899D89913A49F4CA
:105AD000813209F07DCF47E050E064E071E080E082
