:100000000C9493140C94BB140C94BB140C94BB145C
:100010000C94BB140C94BB140C94BB140C94BB1424
:100020000C94BB140C94BB140C9444280C94B62868
:100030000C94BB140C94BB140C94BB140C94BB1404
:100040000C94BB140C94BB140C94BB140C94BB14F4
:100050000C94BB140C94BB140C94BB140C94FA2297
:100060000C94BB140C94BB140C94BB140C94BB14D4
:100070000C94BB140C94BB140C94BB140C94BB14C4
:100080000C94FC230C94BB140C94BB140C94BB1464
:100090000C94BB140C94BB140C94BB140C94BB14A4
:1000A0000C94BB140C94BB140C94BB14061A371A92
:1000B000371A301A301A2C1A2C1A281A281A241A0D
:1000C000241A1C1A1C1A201A201A1C1A1C1A201A6C
:1000D000201A0D3381332835283528352035283529
:1000E0002835263528352B352B352B354A350F2F1E
:1000F0000F2F0F2F302F302F302F8A2F8A2F8A2F3C
:100100008A2F8A2FBF2FBF2FBF2F0F2F0F2F090F1F
:10011000E8D2D9ED76BB4EC7B7DD6EB7DBED7636EC
:10012000090FE8D3E974FCDBED76BBDD6E670309EC
:100130000F109BCE6EB7DB753A36090FB8B2E914D3
:100140005FD7ABCF85A2ED6CDB5901090FBC92EEF6
:1001500055A9A4D2AAAD53E4E9E8B6B303090FF850
:10016000B6CAF55FB9B5EBD436EEED6CDB590109D3
:100170000F38B39FEAB397770A4BDBD9B6B30209BE
:100180000FBC924EA5FAECE554CEC9D9D3F9EC36A2
:100190007A090FB8B29F6AA2745FBB8E773B7B3A35
:1001A0005A090F38972ACA6B998E39BD1D5B090F02
:1001B0005CA73EF54D96DBF5B950B79D1D20064B6B
:1001C000000000190075054B000000190027054BC1
:1001D000000000190097044B000000190017044BA1
:1001E0000000001900B8074B0000001900E0064BA2
:1001F000000000190010034B0000001900BA024B68
:10020000000000190093024B00000019004B024B44
:1002100000000019000B024B0000001900DC034B2A
:10022000000000190070034B000000190088014B0A
:1002300000000019005D014B00000019004A014B4D
:10024000000000190026014B000000190006014BB8
:100250000000001900EE014B0000001900B8014B2E
:100260000000001900C4004B0000001900AF004B53
:100270000000001900A5004B000000190093004B7E
:10028000000000190083004B0000001900F7004B2C
:100290000000001900DC004B000000190062004B58
:1002A000000000190057004B000000190052004BDD
:1002B000000000190049004B000000190041004BEC
:1002C00000000019007B004B00000019006E004B7D
:1002D000000000190031004B00000019002C004BF9
:1002E000000000190029004B000000190025004BF8
:1002F000000000190021004B00000019003E004BD7
:10030000000000190037004B000000190000804B6E
:10031000024B0000000F004B024B0000000F004B8F
:10032000024B0000000F0026014B000080E0060F8A
:100330000017040F0027050F0000800A081800604E
:1003400000800020004000000060009000200000BD
:1003500000000000008010002080000080000020CD
:100360000000000040090FA8D69D2BA2AC932A756F
:10037000BB08B3DBB106090F88769D7A995DCBDAAD
:10038000756AD46DD7B101090FB8969F6AA274D768
:10039000ABCFCDBC9D753B2B0607A8D2E9743A2E96
:1003A0000407723A9D8E0A06077C3A9D4E47070461
:1003B000079D4BA7A303030788E5030792CC040717
:1003C000B8D2E99C5304077C3A9D760E0607DE6E90
:1003D000B7DBED76070407A59276BB5D010607B78C
:1003E000DBED76BBDD020407A5926ABBDD020307E5
:1003F000F8743A0307759A100407D476BB924A2A18
:100400000407B7DBAD5452011507A54E47255555D6
:100410002A1595F3D99C2293AA2A958A4AEA745CF4
:1004200095032907522E95AA4A95E272AA929575CC
:100430005452E5B3924AAAAA542A6EE552A9544EE0
:1004400071399F4E392EA9AA52A9A8A4AA64656B36
:100450004A550A2907D369A9A293AA9295ADA9F68C
:100460004A4DEF54252BEBB8944BA5AA52A5B89C46
:10047000AA64651D552A25552A2AE9F24949A94A3F
:10048000010E07A54E47E57C36A7C8A44EC7557197
:10049000011307522E95AA4A95E2522E954AE51469
:1004A00097D4E9A8A44AA552394556390F07A5CBD8
:1004B00067B3924AAAAA542A2AE9F249C9553904CB
:1004C000050E11110E00121F10121915120A111526
:1004D0000A06051F04171515090E1515080119053B
:1004E000030A15150A121509061907EA5455AA2A0E
:1004F000D59129974AA572159972A9542AA7B8A42B
:10050000AA64656B2AA9AA52A9B82A2EF4F5F9F6AD
:10051000F7F8FBFAFFFCFDFE0002030401060508E4
:10052000090A070B0C0E0F0088016400000014007C
:10053000DC036400000014004B026400000028008B
:100540001704640000001400270564000000140074
:10055000200664000000280000800C0E020B03152A
:100560000302000000010A030C031403160300E158
:100570001F1847610F614407610F610B6127432515
:1005800061072103610F6106210282610F6106216B
:1005900001C101C16104C121C105C361062101215D
:1005A000C12161820221012101C301236182032152
:1005B0000221C12161C101C182C12101230121C1E7
:1005C0002161C101C181012102236121C12101C138
:1005D00021C101C301236121C1210221042161C183
:1005E00021C1012301230121C12161C121C10121B7
:1005F00005216121C12109236121C1210861816196
:100600000D61816109610F610423432944290012AE
:100610000E0613031705150606080B080F0E011921
:10062000001403140607080C0800068CC1094603D1
:1006300022062146216102418602C206210621616D
:100640000241610623A1052105C12161024161C268
:1006500004C102C10526A121610244610321A14216
:100660000C62066107C104C10482016106610521B3
:100670004A218201610661C102C1012107C1022133
:1006800003610661246127A124036107210221611E
:100690000F6107210221610F610721C221610F61F2
:1006A0000722A121610F610B610F610223452345E0
:1006B0002343234300050703040119010C04081513
:1006C0000015011502150315041505150615070378
:1006D0000118010D050C0E001F0D410AC1614501F5
:1006E00047614203236124610783036141C12261A1
:1006F000236126612201220261210261012361231B
:100700006122C12102610222C12101610121016135
:1007100022026123612461210324A161022161027B
:1007200061256104610961032102612104246228B9
:10073000012101C12102C1612161276228A121019A
:100740002102246122056228A12105C1226102261D
:100750006122C10322A121846121012161860261FC
:100760002203C122A1216103210221C1042101210F
:100770006228A1216102276123C121620322C104F1
:1007800061012206610223622A612B0461000C0BC5
:10079000030A0113020A040F1B001B011B021B03A7
:1007A0001B041B051B061B071B081B091B0A1B0B35
:1007B0001B0C1B0D1B0E090114020904160B002152
:1007C000192306C1078AC12F6206C1026127096287
:1007D0002B022502C105620822032D6202C10423F7
:1007E000610227066228026105C1022202C102627B
:1007F0000523A1216102612C6201C1022204610270
:1008000061220121012403622501C1036102610209
:100810006121612101C12202620225A122610243FC
:100820006101612161240162012201C1056102456A
:100830006101612101236225A12461024763210135
:1008400021622109610B61016101620A61023C00C0
:10085000170F0201041A040200001B000103020327
:1008600019031A0300E18406C70585610432046296
:100870000143324301620432046201216101320109
:10088000612101614221610121042104210423012C
:1008900061214203610121C421C421C423016106F5
:1008A00061013201610661013201610661013201BB
:1008B0006106610123042104210421016106610113
:1008C00023C421C421C421016106610132016106F2
:1008D0006101320161066101320161066114610347
:1008E000000B0403040418041307031B001B011B63
:1008F000020604190412070E0E002F0D210D210D02
:1009000021018C6227C104210D6121052101218370
:100910006121C101C10A6121052101210361216118
:1009200026614621420361022201612161052161A4
:100930000623036105612161C104216187052161ED
:100940000461216103224161062761036122610282
:1009500022C1416104230521612661022102416116
:1009600002C122C12101C2022161220123612203AD
:100970004161022202276121012101226121C1037B
:100980004161012203218521612201236105632147
:10099000042102C102216121C121012261056121DD
:1009A000610B216122013E001A08040C050C0B03A7
:1009B0000C170C0704000C0014001B0004011401A8
:1009C0001B010D04040C0D0C180C000AC103C10F0F
:1009D000C103C10322612203C103C103C202226118
:1009E000220561052261220221612104610661085C
:1009F00061056106610661086103610661086108BD
:100A00006103610461086108610183016104610699
:100A10006108610561066106610186016103610685
:100A2000610185026108610322036103C203610859
:100A3000610A610222026108610C610661086106B7
:100A400026AF271C3C000D03031403190B080E04EA
:100A5000050005010502050315030605180B090E1F
:100A6000001F0E566184610A420A6104610A412531
:100A70006138610261026123042406236225612337
:100A80000122012D612601612201C12101230122E0
:100A9000022201226121012301216122012201237D
:100AA00001C12301C10122612201C101226122048D
:100AB00023012201C122012261276129A1296102AA
:100AC000210121C101620F61226127016128612694
:100AD00061226101C123036106226106612261086E
:100AE0006103C102226103C102613D000D000404E3
:100AF0000217020E0C0C0E05060009000C000E0079
:100B00001600180103020D0C0D0E001F0367016192
:100B100007610E6104620562014105C161C10461A2
:100B200005620362014303C163C10361066201629E
:100B3000014501C165C102610763014767026102A6
:100B4000C102C1026184630561042C046105C141D5
:100B5000C1032101C106C10121046104C143C102D5
:100B6000210188012104610445022101610661011E
:100B70002104610543032101610661012104610330
:100B80006125610121C1610661C121046103610523
:100B900061012C0461036105610261076106610363
:100BA0006125622B62266100050E04060213040211
:100BB0000B170E020000000107021804020E160EA9
:100BC00000E11F0392236104C10A610A216122A18D
:100BD0002408610A21610621086101C10161012225
:100BE00001C101216101C10161022101C1038361D0
:100BF000236127612361022501C1026103610B6149
:100C00002AA161036106C16103612202C10124A11D
:100C10006101C1216185226123612AA161236101F2
:100C2000C101610122610521096121C12161A12266
:100C300061012261C10161022105C10361236103D8
:100C400061012561022103C1012202612361036167
:100C500001220361022101C10122046123610361B8
:100C600001220361022404C1016123610361013E89
:100C700000000E0413010A031809100B03040004FA
:100C800001040214010B0315090F0B001F1F0B6158
:100C9000256105C16124612161076121032161048E
:100CA0002161256125612261266123612161044161
:100CB0006101C102416101416102412101216102E1
:100CC000C161216101234161014121014161014172
:100CD0006101C14121012161012261216101C12222
:100CE000416103C141610141610121012101216192
:100CF0000122612161012341610121012141610141
:100D000041610142022161012261216103C141610E
:100D100001410361C121610122C101216102C1615F
:100D2000216125612561A1216126612361C161875E
:100D300001C2016104220541C161436104224322D1
:100D4000614221C105C14161036123012145216146
:100D5000466144610361210122C60161C10561044C
:100D6000614624472B00040F021502110F031B00DC
:100D70001B011B02140309050B0F120F0104C121F3
:100D80000E6C03C1210E810FC1210E8110C1210EF5
:100D90008111C1210E8112C12111C1210E8101C118
:100DA000210DC1210BC12101810D6507C1210181E7
:100DB0000D630AC121810E620CC121810C6403C143
:100DC00024610281C123C101C12461A102C12501A5
:100DD000C12361A12102C122C12201C12261A1223C
:100DE00002C12501C12161A1230281C123C102C128
:100DF000A12764090003080402000A050608140C70
:100E0000010000030014010905150C00E103220A8A
:100E10008C61250722610C61250722610121412196
:100E20004121412141214121612507226101C10167
:100E3000C101C101C101C101C16122C122072261F9
:100E400021A121A121A121A121A121A1612501C1CE
:100E500005226121A121A121A121A121A121A1611D
:100E60002E618C612E61034101410141014101412B
:100E7000611221A121A121A123612861286105A17D
:100E8000236128610325612461A12361286122C1B6
:100E90000223612461A12361286124C1022161042C
:100EA00061A12309612602612461A12304C101C15A
:100EB000026128612461A1356101C20161A12300A1
:100EC0001107040A0112041A06070F0E1600160174
:100ED00016020C0316030C040A050C050A060C0680
:100EE0000A070C070A080A090B011A03150C080F58
:100EF000015104C101694103210441064103210458
:100F0000418104C1410341044181016441016741C0
:100F1000810145012106A18101A103410141062171
:100F200081C1410341012106418101410341012168
:100F300002C16341810145014107816541014101D0
:100F4000644301450127034101C121410163240399
:100F500041022141014222062441022103C10463CE
:100F600021410241250223012141022104240121C2
:100F70000142022101410721014202412A0121418E
:100F800002418108A101214102218108210125811D
:100F900005C102410141048107C1210121048106EB
:100FA000220122048103C121012101C1220481C146
:100FB0000125024121500002040309011301170118
:100FC00007000000010002110212021402150208BB
:100FD000010F051906110E020000000000000000BC
:100FE00000000000000000000100000100000000FF
:100FF000000000000444444631301131100100115A
:101000003000300000013013103106106100300054
:1010100030000000100103103100100030001111E9
:10102000100001103100100100003000000010001D
:1010300061031061001044403000000100001033D3
:10104000301000010011111306100061001331006F
:101050001100500000031100001061031001001086
:1010600001000003100061001031001000010016A3
:10107000000300001061031061003100160100033D
:10108000006100103100100030100100100300104A
:1010900061031001000030016010010301001033F2
:1010A0000000060030001000001300000031111194
:1010B00011111111111110030D0E040D020E020970
:1010C0000E120E02070014000B0310030A0E110E7D
:1010D00000288D2D620C622B6205210221056229F8
:1010E00062048101240181046227620481012601D6
:1010F00081046225628501280185622362048101E1
:1011000024C224018104622162062C066221620449
:10111000810124C224018104622362048101280127
:101120008104622562048101260181046227620430
:101130008101240181046229620481048104622BFB
:10114000620C622D620A623F2400080E0411010C39
:10115000050106060B0A11001201130214031504FF
:1011600016051706180719081A080B010206170AB0
:10117000100E0013270289C10A260261076121614E
:10118000840626620661A121A16101C161C1062513
:10119000620661A121A1610123610624620661A1A9
:1011A00021A16101236107236206650123610822F1
:1011B0006121850141A161A14101236109216122D0
:1011C000C102610141A161A14104610A6123C10120
:1011D000610141A161A141016182618A6124C16112
:1011E0000141A161A14101610E25610141A161A1FE
:1011F000410161876122C12305610141A161A141D2
:1012000001610661412605610141A161A1410161C0
:10121000056141270561036103610561413F2400C8
:10122000100E03040117011B0E1101000D001A001E
:1012300001010D011A010D020D030D040D050D062E
:101240000D070D080D090D0A0D0B0D0C03011801FA
:10125000040E190E0042194303D2045D06C101C1F8
:101260000AC102C109416144074161450961C101E7
:10127000C10961C102C1084661410547614109C117
:1012800001C16109C102C16106416148034161496F
:10129000056102C101C1076102C102C1064A614D77
:1012A000614107C102C1016106C103C1026103417D
:1012B000614C614B03611B6103C102C108C103C1E1
:1012C000053C000D0604120002020C0E170F031B52
:1012D000001B011B02110003020B0E180F0200007D
:1012E00000000000000000000000000011111111BA
:1012F00011111111111111111110600000001000D5
:1013000000006001060000001113101313111111E9
:1013100011013101131111131313131006000101F0
:1013200031011311111313101310111101013100A8
:1013300003031613131313131001010131011113C9
:1013400010031313131311010101310130030313AF
:101350001313131300610101310131113111031312
:101360001311111101013101300331101313130650
:101370000000010130411113300413131111111138
:10138000110131013003311013130000000000017E
:1013900031013111441013111111111111113101C9
:1013A00030030000030000000000000031011113B1
:1013B00011111111111111111111110000030E0E53
:1013C0000504010B030D08050E170E0A02000700A5
:1013D0000D0013001900020107010D01130119018D
:1013E00005010A030E08060E003D02C10DC103C12E
:1013F00005226128A124A12A61226121C108C10816
:10140000C1032161226125A128A1276121612261F7
:10141000210DC106216121612261216124A124A144
:1014200025A12261216121612261216121102161B7
:101430002161216122612161216121C10BC1012151
:10144000612161216122612161216123A122A12306
:10145000A125612161216122612161216103C1080E
:10146000C10361216121612261216123A12CA1239A
:101470006121612261216103C109C10661216122EB
:101480006123A124A124A126A12361226107C10A0D
:10149000C105613D0018020303021208060E020A8C
:1014A000000A0104021408070E190E001F1AC103D6
:1014B000C10341614103880561412342210141612A
:1014C000C10A240261410741614104C10AC161416D
:1014D000840341614102248306624106C1416141A6
:1014E00002C109C1026202C1412342614123066176
:1014F0002401624121420441614107C1016121048B
:10150000624107C16141032804624104C102416193
:101510004103C108C1026241034123416141822468
:1015200082026122026241C10641614108C101613A
:10153000046241220541614106250462096110618E
:101540004123412444234124422243000A04041439
:101550000110021504090E0600001B0000011B010A
:1015600000020003170111021803030E01E46B21AE
:1015700003810B210381032103210321038101A1A5
:10158000C121C121C1A1C121012103610121032187
:1015900003210121028102A1C1A1C121C1A1C1A1D7
:1015A0000121028104210321032102810221C1A121
:1015B000C1A1C121C1A10121028102210321032175
:1015C000012102610C210181032B018102C1210B48
:1015D0008103210128028102220121096101C12127
:1015E00002210126018103210122C121068102225B
:1015F000012102A101240181022102A10122C121B4
:101600000221018101C121012201A1022101C12187
:101610000181022101A101C121012202210322C174
:10162000210121A1C12502C1210221C1210266029D
:1016300021012201280321C1A1026901C121012B3D
:101640000321016C022D036E000E0E040C02120326
:1016500007040A060302000F001800130206030322
:101660000E180E00038201C10981C104C107610285
:101670002208610122032261056108C1036108613A
:1016800002C101C16182062201C16103C104622459
:10169000610261C1062261022203C1016105C1012B
:1016A0006122076106220161042201618101820138
:1016B000C18361096104C10461022204C103C181C3
:1016C0000361C102220461072202220161C1612279
:1016D0000581026102C10B612206610122610222C1
:1016E00003C1066106C1016105C1042201C1046193
:1016F000C1046122610422072203612203611B618C
:101700001B3C000201040908190A160C110F0A13E8
:10171000061A0613071A0713081A081A09130D13D5
:101720000E130F013105C12405210101016622C1FB
:1017300022410164012102642202240122012301C9
:101740002181022102210145012281C1012102A141
:1017500001220122014121810221022101220122D3
:1017600001412101624101C1410122C12201412106
:1017700042012102210122012201412142012102D3
:101780002101220122C14121012101C14122012265
:1017900001220141210121022142012201220141B4
:1017A000210121410123014721C121410565422138
:1017B00001230165024123012103236102C141028A
:1017C00021016401C1A10441022101652702210216
:1017D000C105640321016527042104210364036A10
:1017E0000121062102210321012302692103210B8A
:1017F000210321660465311F0700010F030A090355
:101800000D140D0E01000101010201030104010587
:101810000106010701080109010A010B010C010D74
:101820000E031009050D160D003E980124432143B7
:101830002143214221416121418321612404C104CA
:10184000C103C1026103C161216123C161546141CE
:1018500061246121904101C161216123C1612101A4
:10186000502461246121014101CC03C121C16123C4
:10187000C161210141234621456123612461211178
:1018800061C121C16123C161214B22446121014118
:10189000612461920261216124422242614221411C
:1018A0002142614661C1612307610142046105C1B2
:1018B000612161224321412344614221412142228D
:1018C000422161210D610C612100090E02030E14F9
:1018D0000E010A0005011701050E160E00C384C78C
:1018E0008BC323042361230B26042361230B2604CB
:1018F00023612304C3042604236123042304260450
:1019000023612304230426042361230423042604DF
:10191000236123042304260423612304230426C112
:1019200082C1236123C182C123C182C127C2246134
:1019300024C225C22E61310128016101260128033C
:10194000260261022502260C61113C0001060318E3
:10195000060708120E070C000C010C020C030C0405
:101960000C050C0607061A060F08160E002D012F8F
:101970008921042189210321C1026102C12106219B
:10198000C1026102C1210521C1016101C1210821FA
:10199000C1016101C1210721C161C1210A21C161C8
:1019A000C1210921612106452261210A2161210607
:1019B0004103C101416121062361216126A1276103
:1019C0002661036101610E610662224121612E617F
:1019D00021412561832161218C216121066101C1A1
:1019E000210161012109C121016101210561C1219B
:1019F00001C161C1012107C12102610221046121EC
:101A000001C1216121C1012103612303610321017E
:101A1000C1016101C12261C12162214161214121D4
:101A2000046102C1012C61026101C12D00150E0586
:101A300007040B04070A090A0C0A02000000010847
:101A4000040A04060A110A00E10E2E02C105C105AE
:101A50003B6102C10A3B6105C107C10D623B6108E0
:101A6000C10AC1073B6104C108C106C106623B61EE
:101A700003C10DC1093B6103C106C106C106C10214
:101A8000623B6105C10BC1093C000F0E0309010F48
:101A9000010809021B001B0108010E0119010709B9
:101AA000001F15C101C206612E0261240661012CCE
:101AB00002612561260221C122C122C122026126C2
:101AC00061270C6127612DA129046128C101C1048E
:101AD000C101C12501C2016129A123A12D6112C14A
:101AE0002602610261256125610281612402C162D1
:101AF00002610261026102610261032302C161228B
:101B0000610261C261C261C261C261032102C1613D
:101B1000246102612561256104C161266112612889
:101B2000613B000B0F03150104061409010902169D
:101B30000105061509150F0009611B6106C10B841B
:101B40000B4C62024711620985028501614461897B
:101B5000086104611661210361046152210344623A
:101B6000196306C10F41026101442244610121420F
:101B7000214802610B610F610B610F6101614A0134
:101B8000480661016113866101611B00150D030F99
:101B90000B0B0D150F051300130113021303130490
:101BA0000305100B0A0D140F0021412142210E41A3
:101BB000214223412242220E21422342034121415C
:101BC0002102C106C1032141054161210341224196
:101BD00023416122410321410121416101416121F0
:101BE0004102412142234161012201C241022141BE
:101BF0006102612205412242610221412301C1218A
:101C0000416102614122C1042142216108224161F6
:101C1000C162214124034122610921426301422121
:101C20004122C10221416101C107214102620561D6
:101C300022034221422141042141026141234261A8
:101C400041220CC1214102612141214361214122F4
:101C5000C108C12341026103C102614223A146A11F
:101C600023426122612141234211614121614123CB
:101C70004102612242214222412142224321610349
:101C8000C103611041214100080E04130210080332
:101C90000B150E0200001700080211021708020BB4
:101CA00000E1028213846104611161014102610457
:101CB0006111610141C26101C102612401C103C11D
:101CC0006125A1216123612202610329066221A10C
:101CD0006104611362A1610561936305611462058A
:101CE0006101C10BC105C1620525614A22A12262C1
:101CF0008307610A8307C1066109610629610161E1
:101D000003C105618103C10925614361240121C12A
:101D100023C10C61036105326103612A00110703CD
:101D200018030609130A020C0015001A0303070A18
:101D300007100A0005810583068201C102C10181E5
:101D40000381018103810161018104810161260117
:101D500081018103810181026102810281026108A6
:101D600081058103610382036108C102C102C103CD
:101D70006103810461456147A146618105614101BB
:101D8000C10141610E410661416141C141610DC125
:101D90004104C10161416141C141622A6121426145
:101DA000248161416141C141620A61226205614150
:101DB0006141C1416204220461226103C1034161A6
:101DC00041C1416201230223016122422561416137
:101DD000846101230223016122076106610123C29C
:101DE000230161210582C1610124016101C101C199
:101DF00022C101C101612202612102216122C23E90
:101E0000000B00030E06040E140E0600000D001653
:101E10000000011601160202041205050E170E003D
:101E2000E10BC20F870124610E610AC1016104C187
:101E300006C102610861440127612561086101C191
:101E40000A6105612661012461086105610661037B
:101E5000C1016101612B62066101614401614B6254
:101E600004C161210161C104614105C103416204F2
:101E70006121022461016141614761416202C161E6
:101E80002106C161016141614103C10261416202F8
:101E900061210421440161416149620161210521FF
:101EA00001C10361416104C1046321062461016130
:101EB0004C620B6101610C3C000F020201010A013E
:101EC000071B001B011B041B051B081B091B0E0223
:101ED000010B01080B140E0220000000000000009E
:101EE00022222222222020000000000000002006E2
:101EF0000200000022444444111113002032023237
:101F00001113211111000600111220320232111397
:101F100020000111111000000032023200001113E4
:101F2000000000111130603202320600101112134D
:101F3000000000311122023211131006001121306D
:101F40000030000202321113111110000111213072
:101F50000002023200001060123100000112113242
:101F6000023266001110003112210060023202328A
:101F7000111310121130000111221232023211130A
:101F80001000111211300000023202320113103120
:101F900010006111221312320232001310310000BE
:101FA00000000003063200300060163121111211CA
:101FB00011121122112111110D0E0311010A09181C
:101FC0000B0315001501170F10010909170B050E5A
:101FD0000001C11A246119C101610A61266103C1AE
:101FE000012861266105270861066101C108C10653
:101FF000C1026106612D61266103C102610D6103A9
:10200000C10261466106C10521612661062561267E
:1020100061086106C10461066101C106612361278F
:1020200048236125036102C106C108610761296176
:10203000260361876108610A61106105C1013C00E6
:102040000D0A03020111040C0E0411001101030218
:10205000110204011204180D0D0E004F0449036112
:10206000066183056106C10144224521A121440185
:102070006144016141214182610761846102610320
:102080002541026107C10121C1216102610622C10E
:1020900001A16107610441216101422441214121E3
:1020A000A16187618541618761412102A1076103C7
:1020B000C1614306612142A12104C36104614184DD
:1020C00002C10162410A610461416105A1214161CE
:1020D00023A12205610461416101C106612161847E
:1020E000016141234122A1426108612161C10321B3
:1020F0006108612161024124016121614182236102
:1021000007614161022103410161216102234121F3
:102110006106610161032142214325442E412300D0
:10212000020203180202051805071B001B011B020F
:102130001B031B041B051B061702010517050B06D5
:10214000003D0373032303610163046103620361C0
:10215000032661016301620161016201610163267D
:102160000361016301620161016201610361032393
:102170000361016301620161016201610163032680
:10218000610361046103620361257D01C101610195
:10219000C1016101C1026102C1016101C1016101AD
:1021A000C1017F036101610161016201610162019D
:1021B0006103610363016101610161016102610108
:1021C00061026101610163016101630262016101F8
:1021D00061016102610161026103610264016101E7
:1021E00061016101610162016101620161016301DB
:1021F00061016301610161036101620161016201C9
:102200006103610161017E000F0E04100311050BD3
:102210000911090402001A0002011A010F030F0537
:10222000070917090200000000000000000000007C
:10223000000000000000000000000000000000009E
:102240000000311111111111111111111111300072
:10225000303110006000600060001130300031113A
:1022600031111111111111113111300030303011B3
:1022700010600060113030303000113111303111F8
:102280001111303111311000303030303031113017
:102290003030303030003111311130306030311198
:1022A0003111306030303030303222303030303028
:1022B00036111131113632322232363111311111CB
:1022C000303030323232223232303030311131104F
:1022D0003232323222323232301131113032323235
:1022E000323222323232323031113230303030300C
:1022F0000030303030323111111111111131613192
:1023000011111111111A0E0307041705170C030000
:102310000010001B0006041505160C070F00E10154
:10232000C107C10AC104C2612304612304612A6296
:1023300001C103C1016105C1016101C104C10362A1
:10234000236123610325412241234123610361036A
:1023500061038F012461266106C103C10461046128
:102360000661014124462361046145016101410682
:10237000C102C1036121036102C101410161014147
:102380000349016121C2432341016101410341022B
:10239000C101C102410161234323410161014101A6
:1023A000C101410161246141016102C102C10561B4
:1023B0000142A142016104614101612902610141BF
:1023C0000561046141016102C101C1034102610172
:1023D00041274501612661014424410A6124C1214C
:1023E000610B612900D5F08D14A1C881CFD9F1AF5F
:1023F00020005717A38B2E2E47175D74D145175D0C
:1024000074D145175D721F5D74D145175D74D14558
:10241000175D749129BAE8A28B2EBAE8A28B2EBA66
:10242000E8A28B2EBAE8A28B2EB98F2EB4499D4E0E
:10243000C7A55C2A954AA5728A2E5795AA4A55E5E2
:102440001C9772A9542A954A491449974DE71D973C
:102450007255A9AA5455EEA24AE52A9BAD5C2A2AD8
:10246000E752A9543624DDD7575595AA2A3559AED7
:102470002A5595AACA392AA9F2CAA525977255A93B
:10248000AA5455AEA35485ACE8A28B2EBAE8A28B11
:102490002EBAE8A28B2EBAE8A28B2EBAE8A28B2E17
:1024A000BAE8A28B2EBAE8A28B2EBAE8A28B2EBA7B
:1024B000E8A28B2EBAE8A28B2EBAE8A28B2E321B92
:1024C00007B22E954A653BAD5D369D7754D265D3F4
:1024D000F9E894AB4A55A5AA721D977255A9AA545A
:1024E00055AE031007B22E954A65E3723EA77CCA2B
:1024F0009129974AA552A99C220210079C72A954BF
:102500002A95CA292EE9B2E9BCE352AE2A5595AA0A
:10251000CA75591FA38B2EA764E7D29DDCE7D28E24
:102520002EB66D7ABAD8B6E9E962DBA6A78B6D9BA9
:102530009E2EBAE862DBA6A78B6D9B9E2E9B9E6D9E
:102540009BCFA6B7E9E972694717DB363D5D4EE9D7
:102550006D3EBA6C7A9B8F2E7439974EC79C733A36
:102560002E652B59C9CA756CD94A56B2728EAB9377
:1025700095AC64652353B69295AC5C872BE5D3E9A3
:102580005CC7A57C3A9D53648E4B91392E2BD3E9C1
:102590009CE2CB391D97B295AC64E53A2EE5D3D9D0
:1025A000C894AD64252BD7416FF7B5AB4AA952A9A2
:1025B000C97255A9AA5455CE514995572E2DB99493
:1025C000AB4A55A5AA721D2C1B5D74D145175D74CD
:1025D000D145175D74D1C594EB742EBAE8A28B2E49
:1025E000BAE8A28B2EBAE8A28B2EBAE8A28B2EBA3A
:1025F000E8A28B2EBAE8A28B2EBAE8A28B2EBAE8FC
:10260000A28B090A1000000000000000000000007A
:10261000000000000000000000EFEFE0EFEFEFEF40
:102620000FEFEF01010101010101000101FFFFFFB7
:10263000FFFFFFFFFFFF0001010101010101010197
:10264000000000FF42424242FF0000000003000081
:102650000000030000020202020202020202020063
:10266000000000000000000000EFAFE06FEFEFEDB2
:102670000FEBEF010101010101010001010000B0B8
:10268000B000B0B000000000000101000101000036
:1026900000EFEFE0EEEEEEEE0EEFEF0101010101D3
:1026A0000101000101EEECE0E8E8EAE808ECEE01E7
:1026B000010101010101000101ECE0C0C08880803E
:1026C00000E0EC01010101010101000101E08000D5
:1026D000000800010086E001010101010101000183
:1026E00001000000000000000000000000000000E9
:1026F0000000000000E08080000000000080E00199
:10270000010101010101000101ECE0C0808080C0F5
:1027100000E0EC01010101010101000101EFECE029
:10272000E8E8E8E80CECEF0101010101010100011A
:1027300001EFEFE0EEEEEEEE0FEFEF010101010130
:1027400001010001013F0FA5AA64656B2AA9AA52E5
:10275000A9B83A5595AA4A755CCEA7538E4BBA7C58
:10276000362BA9A4AA4AA5E2562E95AA4A95E2724A
:10277000AA92957554D2E5B359492555552A15D2D3
:10278000A5AA64656B2AA9AA52A9B83A5595AA4A7E
:10279000755CE9B454F13955C9CA3A2AA92A59D9FC
:1027A0009A2A9D962A7EE552A9AA54292EA72A592B
:1027B0005947255D3E9B95545255A55221122C0731
:1027C000EA5455AA2AD571A5D352C5E754252BEB57
:1027D000A8A4AA64656BAA745AAAF8954BA5AA5234
:1027E000A5B89CAA64651D9554F9ACA492AA2A9533
:1027F0004A010207A55336090000F4019C00A50018
:102800000000A80093009C0000000900E9009C0063
:1028100000000900A5009C0000000900F7009C00D2
:1028200000000900A500A5000000A800E900A5001F
:102830000000A80083009C0000000900D0009C005C
:102840000000090093009C0000000900E9009C00C2
:102850000000090093009C00000009008B009C0010
:102860000000D00701800102040810204080080BFE
:10287000000202020100090400000102020000053A
:102880002400100105240101010424020605240688
:1028900000010705810310004009040100020A003D
:1028A0000000070502024000000705830240000007
:1028B0000403090412010002EF02014041233680A3
:1028C00000010102030141726475696E6F204C4C76
:1028D000430041726475696E6F204C656F6E617262
:1028E000646F0020066400000014002705640000E7
:1028F00000140017046400000028004B026400006C
:10290000001400DC0364000000140088016400006F
:102910000028000080E0061E0000000A00E0061EFD
:1029200000008000B23511241FBECFEFDAE0DEBF19
:10293000CDBF11E0A0E0B1E0ECE2FEE602C0059000
:102940000D92AE3AB107D9F727E0AEEAB1E001C087
:102950001D92AC3FB207E1F714E1C3E9D4E104C032
:102960002197FE010E940937C239D107C9F70E9499
:1029700019310C9414370C9400002F923F924F920F
:102980005F926F927F928F929F92AF92BF92CF92FF
:10299000DF92EF92FF920F931F93CF93DF93CDB708
:1029A000DEB76A970FB6F894DEBF0FBECDBF809139
:1029B000D50190E02091DE053091DF05821B930B5D
:1029C00005962AE030E0B9010E940036162F6C8B84
:1029D0008091D60190E04091E0055091E105841B83
:1029E000950B0596B9010E9400367B016D8B809195
:1029F0000001853091F080918A0790918B076CE0FF
:102A000070E00E941436892B09F02CC49091AE011D
:102A100081E089278093AE0125C4812F0E949E2BDF
:102A2000082FD0908C07C0908D07C094CD201092B5
:102A3000D7011092E2058091DC018B3021F01092D9
:102A4000D8011092E3056E2D812F0E949E2B8630B7
:102A500081F58091D9019091DA0149969093DA013C
:102A60008093D90140E06E2D812F0E941F2D80910F
:102A7000C506882319F081508093C5068091C5064C
:102A8000882329F08DE293E00E945C2412C0B12CCF
:102A90008091C606B816B0F7EB2DF0E0EE0FFF1FE1
:102AA000E853F94F43E0618180810E941F2DB39468
:102AB000EFCF9091AF018D2D8C708C3061F59F5FC1
:102AC0009093AF019531B0F19D3390F09D3391F526
:102AD0001092AF0183E884BD8FEF87BD81EF8093B3
:102AE00080001092880010928A000E9452301FC30A
:102AF00020E430E0A901491B5109CA01880F93E87D
:102B000094BD9FEF97BD91EF909380001092880045
:102B100080938A000FC0992369F083E884BD8FEF0A
:102B200087BD81EF809380001092880010928A0008
:102B30001092AF018C2D84709C2D9870C3FE2DC017
:102B400081112BC00E942226882309F454C0809151
:102B5000D50190E02091DE053091DF05821B930BBB
:102B600002966AE070E00E940036162FBB24BA94E9
:102B7000B60E6E2D8B2D0E949E2BA82ECC24C394B6
:102B8000CE0C6C2D8B2D0E949E2B8130A1F58FEFEA
:102B90008A0D823008F09BC22EC0882361F191110A
:102BA0002AC00E942226882331F18091D50190E02D
:102BB0002091DE053091DF05821B930B02966AE0BF
:102BC00070E00E940036162FBB24B394B60E6E2D13
:102BD0008B2D0E949E2BA82ECC24C394CE0C6C2D42
:102BE0008B2D0E949E2B813031F48FEF8A0D823025
:102BF00010F00C94351FD6FEC5C06E2D812F0E949B
:102C00009E2B982E8091D50190E02091DE05309189
:102C1000DF05821B930B6AE070E00E94003601E042
:102C2000892B19F000E0812F02C081E0810F6E2D09
:102C30000E949E2B382E882483948E0C002319F03A
:102C400081E0810F01C0812F682D0E949E2B582E9C
:102C5000011103C08FEF810F01C0812F682D0E94E9
:102C60009E2B482E832D0E94B530682E5701BB2421
:102C70005FEFA51AB50AC12ED12CA501B601842D8E
:102C80000E941D2B782E0E9422269091DC019B3001
:102C900081F4882311F40C941F227110C0C064E0E9
:102CA000361619F096120C941F2268E087E00C94F7
:102CB000991F0E947E2E882341F08DEF890D82306E
:102CC00010F00C94501F0C943C1F002319F081E06D
:102CD000810F01C0812F6E2D0E949E2B682E002334
:102CE00019F081E0810F01C0812F682D0E949E2B79
:102CF000582E62E06E0D002319F081E0810F01C0B3
:102D0000812F0E949E2B782E852D0E94B530582E43
:102D1000862D0E94B530882311F40C949C1F5520F9
:102D200011F40C949C1F26019FEF491A590AA50122
:102D3000B201872D0E941D2B882311F40C948E1F45
:102D400064E081E00E9435261092DC018091E0056C
:102D5000AAE0EA9E800D11248093D6018091D501CE
:102D60008C3310F482E0C4C02091DE053091DF0581
:102D700029363F4F24F01092D7018EEFC5C087FF50
:102D8000F1CF98C1D5FEC6C06E2D812F0E949E2B1B
:102D9000982E2091D50130E08091DE059091DF05DD
:102DA000F901E81BF90BCF016AE070E00E940036E0
:102DB00077247394892B19F0712C812F02C08FEF27
:102DC000810F6E2D0E949E2B482E552453945E0C2D
:102DD000711003C081E0810F01C0812F652D0E9419
:102DE0009E2B682E842D0E94B530882E5701BB245F
:102DF000FFEFAF1ABF0AC12ED12CA501B601862D57
:102E00000E941D2B082F0E9422269091DC019B30EE
:102E1000B1F4882311F40C941F22002331F0109296
:102E2000DC010E9444230C94312224E0421619F064
:102E300092120C941F2269EF86EF0C940D200E94D1
:102E40007E2E882341F08DEF890D823010F00C9496
:102E5000BA1F0C94C41F772019F08FEF810F01C0A7
:102E6000812F6E2D0E949E2B982E772019F08FEFC8
:102E7000810F01C0812F652D0E949E2B082F62E0DB
:102E80006E0D772019F08FEF810F01C0812F0E9406
:102E90009E2B182F802F0E94B530082F892D0E945D
:102EA000B530882311F40C943122002311F40C94D2
:102EB000312241E0C41AD108A501B601812F0E9438
:102EC0001D2B882311F40C9401206FEF8CEF0E94CE
:102ED00035261092DC018091E0055AE0E59E800DD8
:102EE00011248093D6018091D5018D3320F08EEF8F
:102EF0008093D701DDC02091DE053091DF0537FFDB
:102F000006C01092D70182E08093E205D3C0811100
:102F1000EECFD0C0D7FE8CC08091D60190E020913A
:102F2000E0053091E105821B930B08966AE070E0A2
:102F30000E9400366B01B62E0E942226F82E8823AE
:102F400019F06FEF6C0D01C06C2D812F0E949E2B2C
:102F5000E82EFF2019F0BB24B394BC0C6B2D812FFD
:102F60000E949E2B9091DC019530BCF097305CF074
:102F70009B3099F4043011F00C942520F1100C943E
:102F800021200C942520FF2071F1033009F08CC022
:102F90008FEF8E0D823038F587C00E944423209138
:102FA000D50130E08091DE059091DF05D901A81BA5
:102FB000B90BCD01EAE0F0E0BF010E940036863097
:102FC00020F09F01281B3109C90105970CF06EC044
:102FD000033009F06BC08FEF8E0D823008F466C0AD
:102FE00085E08093DC018091DE053AE0139F800D3F
:102FF00011248093D5011092D7011092E20580919F
:10300000D601883130F08EEF8093D8011092E3051D
:103010008EC02091E0053091E10537FF06C0109287
:10302000D80182E08093E30582C08111ECCF7FC09C
:10303000D4FE43C08091D60190E02091E00530910C
:10304000E105DC01A21BB30BCD0108966AE070E03C
:103050000E9400367B01D62E0E942226C82E8111A6
:103060000C942C206FEF6E0D812F0E949E2BB82E9A
:10307000CC2019F0DD24D394DE0C6D2D812F0E941D
:103080009E2BD82E8091DC018B3009F035C704309F
:1030900009F4D5C7CC2011F40C94452084EF8B0D96
:1030A000843010F00C9445200E9444231092D701E4
:1030B0001092E2051092D801A9CF8091D8018230F8
:1030C00009F4B8CF8091E3058E3F89F5B3CF43E093
:1030D000A41609F490CD84EF8093DC011092D701FF
:1030E0001092E20547E06C2D8B2D0E941F2D9091D0
:1030F0008607943181F0E92FF0E09F01220F331F02
:10310000E20FF31FE65BF84FB082C1828CED828341
:103110009F5F9093860780918C0780938D070E9414
:103120007E2580938C078FE093E00E945C24809141
:103130008A0780FD60CC1092F5061092030710926A
:10314000110710921F0710922D0710923B0754EFA2
:10315000652E56E0752E8FEF96E098878F836CEF83
:10316000462E66E0562EA1E0B7E0BB87AA87EDEFBA
:10317000F6E0FD87EC87D3018C9184FF55C0129651
:103180008D919C9113976AE070E00E941436F62EA0
:103190006A8BF301848195816AE070E00E941436A5
:1031A000162F6B8B8F2D0E949E2BD82E01E0010FC6
:1031B000602F8F2D0E949E2BB82EF6E0DF1205C0E7
:1031C000D2018C91882309F46DC7EF81F885829133
:1031D000F98BE88B8D3044F5D30112962D913C91FB
:1031E0001397C9016AE070E00E941436892BE1F45C
:1031F000F30184809580C4016AE070E00E94143677
:10320000892B91F4AF81B885EC90EE2009F46AC760
:10321000D2018C9181115DC7F20131971082EF814B
:10322000F885808181508083EEE06E0E711C2F81C5
:103230003885225F3F4F38872F833EE0430E511C75
:103240004A855B85425F5F4F5B874A878C859D859A
:103250000E969D878C8798E4691697E0790609F0A9
:103260008ACFC9CB809100018850833060F580916E
:103270000001982F9B7F933009F087C22091B701FE
:10328000822F022E000C990B2195220F295C40E41D
:1032900050E0481B590B440FBC010E941A2E40916C
:1032A000B70160E880E00E94012E8091B70146E3FB
:1032B000481B60E880E00E94012EE090B70100E02A
:1032C00010E0F12CEFC1812C912C712CA12CB12C90
:1032D000E12CC090DE05D090DF05CA0CDB1C00910C
:1032E000E0051091E105C60109968938910508F5B8
:1032F000080D191DC801099689349105D0F4672D70
:103300008E2D0E949E2BF82E882339F0282F43E023
:1033100056E2B801C6010E946F2429EF2F0D243018
:1033200040F4B8016A5071094BE353E0C6010E94B2
:103330006F24E394AAE0AA0EB11CBCE1EB12C9CF42
:103340007394EAE08E0E911CF0E17F12BFCF809162
:103350000001853021F08091AE018823F1F0809149
:10336000DC01082F001F0027001F082E000C990BFE
:1033700097FF03C0919581959109880F990BFC01E6
:10338000E35EFE4F408151816091D60170E08091F3
:10339000D50121E090E00E94C62B84EF482E86E004
:1033A000582E9FEF292E96E0392E2EEFC22E26E0C2
:1033B000D22E3AEF632E36E0732E5201D5018C9156
:1033C00084FFBFC012962D913C9113974091DE056A
:1033D0005091DF0558874F834A01820E931E149641
:1033E0008D919C911597E090E005F090E105E80E35
:1033F000F91ED101EC914E2F50E04331510508F0F8
:1034000098C0FA01EA5AFF4F0C940937F6018081FF
:10341000082F001F0027001F082E000C990B97FF94
:1034200003C0919581959109880F990BFC01E35E8A
:10343000FE4F4081518180C0F1E08F1A910879C020
:103440002FEF821A920A75C032E0E31AF1089AC788
:1034500044E0E41AF10807C056E0E51AF10892C703
:1034600068E0E61AF10800E045E653E065C0AAE02E
:10347000EA1AF108FC013A97D5011596FC93EE93F0
:103480001497D1011C92C9016AE070E00E941436C1
:10349000462FCF016AE070E00E941436162F0FEF1E
:1034A000040F802F298F3A8F488F0E949E2B782FF0
:1034B00051E0510F652F802F5E8B7F8B0E949E2BDA
:1034C000082F488D4F5F612F842F488F0E949E2BBD
:1034D000982F5E89652F488D842F9E8B0E949E2B8E
:1034E000482FE091D501F0E0AF81B885EA1BFB0BD6
:1034F000298D3A8D7F899E89E217F30764F4872F1F
:103500000E94A130882309F437C7802F0E94AA3077
:1035100081112BC731C7892F488F0E94A130488D58
:10352000882309F422C7842F0E94AA30811124C75E
:103530001CC700E047E853E021E0B701C4010E9446
:10354000C62BBEE0AB0EB11CEEE02E0E311CFEE031
:10355000CF0ED11C2EE0620E711C38E4A31637E0AA
:10356000B30609F02BCF8090D501912C8091DE0518
:103570009091DF05881A990A6090D601712C80918C
:10358000E0059091E105681A790AD2018C9184FFD7
:103590007FC012968D919C911397F401E81BF90B53
:1035A00014962D913C911597A301421B530B9A0140
:1035B000C090D6014C2D50E0421B530BE090D5013A
:1035C000473F6FEF5607C4F42E2D30E02E1B3F0B04
:1035D0002F3FAFEF3A070CF4D9C62C3731050CF06A
:1035E000DDC6E394EE1A8E2D07EAA02E03E0B02E7E
:1035F0004DED53E090E03AC045335105C4F02E2D17
:1036000030E02E1B3F0B2F3FBFEF3B070CF4CEC625
:103610002C3731050CF0D3C6E394EE1A8E2D18E941
:10362000A12E13E0B12E4CEC53E093E31FC0F12C1C
:10363000EE1AFF0AECEFEE16EFEFFE064CF49C2DAF
:10364000921BBAEBAB2EB3E0BB2E43EF53E0B5C6F3
:10365000FCE7EF16F104E4F09C2D921BA6EBAA2EDA
:10366000A3E0BA2E4EEE53E08CE702C08F3F81F00C
:10367000C92ED12CE82EF12C00E020E0B601C701C4
:103680000E94C62B21E0A501B601C7010E94C62BEE
:103690002EE0420E511C38E4431637E0530609F081
:1036A00074CFE5CD21E0A801B70187E897E00E943B
:1036B00086250E5F1F4F02341105A1F78091B701D7
:1036C0000FE7081BE12CF12C10E021E0A701B80165
:1036D00087E897E00E94862542E0E40EF11C52E460
:1036E000E516F10491F780910001833031F51091D6
:1036F000B7011150EBE1EE2EF12CF0E4CF2ED12CDE
:1037000017FD12C0812F012E000C990B9701281B69
:10371000390B220F2F5FA601481B590B440FBC0128
:103720000E941A2E1150ECCF8091B70181508093E6
:10373000B7018F3F39F584E023C0D12C0BE110E0B5
:1037400070E4E72EF12C8091B701D81694F48D2DFA
:103750000D2C000C990B9801281B390B220F2F5FA1
:10376000A701481B590B440FBC010E941A2ED39489
:10377000EACF8F5F8093B7018C3121F48091DD0116
:1037800080930001E12CF12C56C098EF980F9330F4
:10379000C8F78A3049F400E021E043E554E069E1EC
:1037A00070E08AE290E03AC0883029F400E021E03D
:1037B00042E254E02FC01091C406812F64E60E94BB
:1037C000FD36082F282F4FEB54E069E170E088E4C4
:1037D00090E00E946F24812F64E6069F80191124D7
:1037E0006AE00E94FD36192F282F4FEB54E069E163
:1037F00070E08DE490E00E946F24212F4FEB54E0A5
:1038000069E170E082E590E00E946F2400E021E031
:1038100048E054E069E170E08BE290E00E94C62B42
:1038200046E167E589E20E94012E40E267E589E210
:103830000E94012EA7CF07E310E020E0A801B70106
:1038400087E897E00E9486250F5F1F4F003411051F
:10385000A1F78FEFE81AF80A90E8E916F10459F792
:1038600048E360E880E00E94012E8091D9019091A8
:10387000DA01FE01319626E0DF011D922A95E9F773
:103880007F012AE030E046E04E0FB9010E94143675
:103890008193CB014E13F9CF00E021E049EE54E0D3
:1038A0006AE370E080E090E00E94C62B06E310E03F
:1038B000F70121917F014FEB54E06AE370E0C8010A
:1038C0000E946F24055011090831110589F7F09005
:1038D000DB0100E021E04CEA54E06AE370E080E4C0
:1038E00090E00E94C62B1AE08F2D612F0E94FD36BA
:1038F000092F282F4FEB54E06AE370E082E590E057
:103900000E946F24202F4FEB54E06AE370E087E5BC
:1039100090E00E946F2480910001853071F4F09056
:10392000C50600E021E041E954E06AE370E080E68A
:1039300090E00E94C62B8F2D1DC0F090C40600E0C1
:1039400021E041E854E06AE370E080E690E00E9404
:10395000C62B64E670E08F2D90E00E940036262F83
:10396000082F4FEB54E06AE370E081E790E00E949B
:103970006F24802F612F0E94FD36192F282F4FEBC7
:1039800054E06AE370E086E790E00E946F24212F04
:103990004FEB54E06AE370E08BE790E00E946F2405
:1039A00080910001853009F0DAC180918A079091F9
:1039B0008B0780FD1CC02091D70121110CC02091E4
:1039C000D801211108C02091E205211104C02091E5
:1039D000E305222361F02091DC01ECE0E20FEC3101
:1039E00020F4F0E0E45FFA4F24912093DC0183702F
:1039F0009927892B09F445C04091D7018091D501C1
:103A0000480F4093D5011091D8018091D601180F2D
:103A10001093D6018091E205E091DE05F091DF057B
:103A2000E80FF11D87FDFA95F093DF05E093DE05C1
:103A30008091E3052091E0053091E105280F311DCB
:103A400087FD3A953093E1052093E005812F90E0C2
:103A5000821B930B05962AE030E0B9010E940036E4
:103A6000062F842F90E08E1B9F0B0596B9010E94B4
:103A70000036862F602F0E949E2B123008F056C011
:103A800020C0AEEFB6E02C91CD010A97FC018081F9
:103A900084FF11C011968C91119781110CC083EF96
:103AA000820F833008F094C4ECE0E20FF0E0E45FB2
:103AB000FA4FE491EC931E96F7E0A235BF0719F791
:103AC0009BCF833099F51091C4061F5F8091DB0175
:103AD0008A3018F48F5F8093DB0186E080930001C9
:103AE0001093C406612F82EC90E00E9410261135DD
:103AF00008F488C481EC90E00E942026843008F00D
:103B00007FC411E0180F612F81EC90E00E94102615
:103B1000612F86EC90E00E9410260E946E2D8EE0B0
:103B20008093DD0188E295E00E945C2480918A0701
:103B300090918B077C0121E0E222FF2480FD76C07A
:103B400004EF16E0D8018C9184FF50C0F701EC50CF
:103B5000F94F868112966D917C911397680F711DB4
:103B600087FD7A9513967C936E93129787811496AE
:103B70004D915C911597480F511D87FD5A951596EB
:103B80005C934E9314972091D50130E08091DE052F
:103B90009091DF05281B390B8091D601E091E0055B
:103BA000F091E1056901B2E0CB0ED11CDB01189662
:103BB000CA16DB06DCF4285F3F4F6E5F7F4F62174B
:103BC0007307A4F490E08E1B9F0BBC016E5F7F4FC8
:103BD0009A01285F3F4F6217730744F408964E5FBF
:103BE0005F4F4817590714F40E945230025F1F4F6D
:103BF000EEE0EE0EF11CF4E5EF16F10409F0A2CFB1
:103C000000E010E0602F812F0E949E2B99EF980F0B
:103C1000943030F441E0480F602F812F0E941F2D17
:103C20001F5F1C3179F70F5F003159F780918607CC
:103C3000882309F4FBC0F12C4DE0E42E8091860727
:103C4000F81608F075C00F2D10E06801CC0CDD1CD3
:103C5000F601E00FF11FE65BF84F8281882309F43B
:103C600062C081508283803189F038F4813081F0E4
:103C7000883009F058C04FE052C0883129F08032B6
:103C800009F051C04CE04BC04DE049C04EE047C088
:103C9000A091C706B0E0AA0FBB1FA451B94F84EF93
:103CA00096E020E030E04F01BF016F5F7F4FFC01E5
:103CB000408144FF19C0F4014081FAE04F9FA00108
:103CC0001124FC01A280B3804A155B0569F4FB0155
:103CD0004081FAE04F9FA0011124FC01A480B5802F
:103CE0004A155B0509F490C30E96225F3F4F2435B9
:103CF0003105E9F6F601E00FF11FE65BF84F808130
:103D00002C89821306C081813D89831302C00E94E1
:103D100052300C0D1D1DF801E65BF84F41E061814A
:103D200080810E941F2DF39489CF882309F47EC0DF
:103D300080914C07813009F079C0809186078150CD
:103D400080938607EAE4F7E090E0981770F7238104
:103D5000348145812193319341939F5FF6CF209128
:103D60008C0790918D0790959223843009F03FC085
:103D70008091B00122FF32C08E3268F48932D0F0D7
:103D800083E884BD8FEF87BD81EF8093800080E45E
:103D9000809388000BC0833388F483E884BD8FEF61
:103DA00087BD81EF809380001092880010928A0076
:103DB0008091B0018F5F8093B00138C08091C406BC
:103DC00097FF04C0803510F48F5F05C094FF2EC0AC
:103DD0008A3260F181508093C40628C0882349F05C
:103DE000833348F0883218F082E08093000110920B
:103DF000B0019923D9F0809100018B3040F48930D3
:103E000048F4873049F0883051F481E00DC08E309D
:103E100069F005C082E008C08091DD0105C0109204
:103E20008D0710928C0785E0809300018091AF018F
:103E3000811119C38091B001811115C38091C5060C
:103E4000811106C090910001953019F480E201C003
:103E500080E093E894BD809587BD81EF80938000DA
:103E60001092880010928A00FEC253E0A51611F449
:103E70000C94FB158CE030C9662009F4F2C277205F
:103E800019F064E081E005C084E0981206C06AE0A1
:103E900087E00E9435260C94A61666E085E0F9CFEF
:103EA000002341F0A501B601842D0E94432B81110E
:103EB0007FC0C7C2662051F0A501B6016F5F7F4F7A
:103EC000852D0E941D2B8111DCCF02C07110C1C253
:103ED000B6016F5F7F4FA501852D0E94432B811195
:103EE000D0CF1092D7011092E205882309F4E2C8DE
:103EF0008BE08093DC010FC043E0D412B0C080910E
:103F0000DE055AE0159F800D11248093D5016BEFDB
:103F10008AEF0E9435260E943E2609C9002371F0CF
:103F2000A501B201872D0E94432B8823D1F266E0C0
:103F300085E00E9435261AC0011193C2682D812F99
:103F40000E949E2B182F892D0E94B530882309F4DA
:103F500088C2B6016F5F7F4FA501812F0E94432B5E
:103F6000882309F4BECF8BE08093DC010E944423B8
:103F70000C94A616772021F1A501B601862D0E948A
:103F8000432B811115C060C2882009F46AC2002346
:103F900019F06FEF8CEF05C034E0931206C069EFA3
:103FA00086EF0E9435260C946B1766E085E0F9CF0A
:103FB0008BE08093DC018DEB91E00E945C243FC29A
:103FC000882009F449C2652D812F0E949E2B182F4D
:103FD000892D0E94B530882349F0A501B6016150B2
:103FE0007109812F0E941D2B8111D3CFB601615021
:103FF0007109A501812F0E94432B882309F471CFF9
:10400000C8CF772069F0A501B601812F0E94432B0C
:10401000882309F466CF66E085E00E9435260BC050
:10402000A501B601812F0E94432B882309F459CFA3
:104030008BE08093DC010E9444230C946B17CC200E
:1040400021F187E08093DC012FC8A60155274F5F3F
:104050005F4F612F70E020C06E2D0C9434188D2DB1
:104060000E94B530811103C01092DC011DC8D1102F
:1040700003C08BE08093DC018091DE056AE0169F2F
:10408000800D11248093D50146CFA70155274F5F9E
:104090005F4F612F70E08D2D0E941D2B882309F446
:1040A0003ACFE2CF0E9476360E9476362AE030E0A0
:1040B00040E050E00E949A36DC01CB014496A11DFD
:1040C000B11DF201808340E0612F8F2D0E941F2DD2
:1040D0007CC81150612F8F2D0E949E2B882309F4DC
:1040E0003BC19AC86FEF610F8F2D298F3A8F0E94C5
:1040F0009E2B8E87612FCC24C394CF0C8C2D0E94D5
:104100009E2B8987602F8C2D0E949E2B8F87602F7E
:104110000FEF0F0D802F0E949E2B382E612F802FC6
:104120000E949E2B282E4091D5018091DE05909112
:10413000DF05841B9109298D3A8D280F391F409185
:10414000D6018091E0059091E105841B9109880DCD
:10415000991DAC85BD854C914423F9F01F922F9297
:104160003F928B2CAF84C984EE840D2DEA85FB85AC
:104170002081412F6F2DC3010E94E72EAC85BD85A4
:104180009C9191509C930F900F900F9081114CC86F
:10419000EA85FB853197308161C037FF1EC0181654
:1041A00019065CF431952195310982179307C4F102
:1041B00028173907BCF132E046C00097A9F13195C4
:1041C000219531099195819591092817390774F145
:1041D000821793076CF136E036C021153105C1F026
:1041E0001816190644F48217930724F12817390783
:1041F0001CF13EE028C0009709F191958195910945
:1042000028173907ECF082179307E4F03AE01BC057
:10421000392F331F3327331F330F330F330F13C09F
:1042200033E011C031E00FC034E00DC037E00BC007
:1042300035E009C03DE007C03FE005C03CE003C0F9
:1042400039E001C03BE0EDEFE30FEC3020F4F0E0AB
:10425000EF5EFE4FE080EA85FB85E082D2018C9123
:10426000882391F09FEF9B0D923070F4D1100CC019
:104270008150F2018083811107C046E0612F8F2DAC
:104280003A8F0E941F2D3A8DF1E0FF932F923F92BB
:104290008B2CAF84C984EE840D2D232F412F6F2DDD
:1042A000C3013A8F0E94E72E0F900F900F903A8D26
:1042B00081110C941419132F48E0F42E332311F0BC
:1042C000315001C03FE021E02F932F923F928B2C81
:1042D000AF84C984EE840D2D232F4B896A89C301D5
:1042E0003A8F0E94E72E0F900F900F903A8D8823FF
:1042F00041F0A889B9898C918B3011F00C94141974
:104300001FC01F3011F01F5F01C010E0B1E0BF936C
:104310002F923F928B2CAF84C984EE840D2D212FD8
:104320004B896A89C3013A8F0E94E72E0F900F9044
:104330000F903A8D8111DDCFFA94F110BFCFD9CF14
:104340008B2D0E94AA30882311F40C941419F201C9
:10435000319710820C941419F201108246E0612FFB
:104360008F2D0E941F2D0C940C19EFEFD601EC93AA
:10437000EEEFD301EC9306C081E0D6018C9322E0EE
:10438000F301208300E046E753E0D6C83FEAA32EBE
:1043900033E0B32E46EE53E090E00FC025ECA22EA2
:1043A00023E0B22E40E054E090E010C090EAA92E45
:1043B00093E0B92E45ED53E092E380E059C98EEBCE
:1043C000A82E83E0B82E48EF53E092E38BE750C964
:1043D000CD010497FC018081811107C0CD010397B5
:1043E000FC018081882309F466CB8CE0820F8C313C
:1043F00028F4E82FF0E0E45FFA4F24912C935BCB94
:104400008FE08ECB89E08CCBAC9011964C911197BC
:104410005AE0A59E50011124FC01B382A282FAE069
:104420004F9FA0011124FC0155834483A9014C50E6
:10443000594FFA01E28613861682178255CC81E025
:1044400050CD61101ECD03C08110A3CD08C07720D0
:1044500041F01092DC0105C00111FBCFB4CD011178
:10446000F8CF80E03ECD6A960FB6F894DEBF0FBE5F
:10447000CDBFDF91CF911F910F91FF90EF90DF9013
:10448000CF90BF90AF909F908F907F906F905F90F4
:104490004F903F902F900895CF92DF92EF92FF922E
:1044A0000F931F93CF93DF936C017A018B01C0E0D0
:1044B000D0E0CE15DF0589F0D8016D918D01D601D0
:1044C000ED91FC910190F081E02DC6010995892BB9
:1044D00011F47E0102C02196ECCFC701DF91CF918C
:1044E0001F910F91FF90EF90DF90CF9008958091F2
:1044F000BF01E091BD01F091BE01882349F0CF01D9
:1045000002969093BE018093BD0185919491089588
:10451000CF0102969093BE018093BD01808191816D
:1045200008958091B10108950895089580E090E084
:1045300008950E940F373FB7F8948091C70190917A
:10454000C801A091C901B091CA0126B5A89B05C0B8
:104550002F3F19F00196A11DB11D3FBFBA2FA92F02
:10456000982F8827820F911DA11DB11DBC01CD017F
:1045700042E0660F771F881F991F4A95D1F708956B
:104580008F929F92AF92BF92CF92DF92EF92FF9263
:104590006B017C010E949B224B015C01C114D10480
:1045A000E104F104F1F00E949B22DC01CB018819A7
:1045B0009909AA09BB09883E9340A105B10570F38A
:1045C00021E0C21AD108E108F10888EE880E83E0E4
:1045D000981EA11CB11CC114D104E104F10419F707
:1045E000DDCFFF90EF90DF90CF90BF90AF909F9086
:1045F0008F9008951F920F920FB60F9211242F9350
:104600003F938F939F93AF93BF938091B20190910B
:10461000B301A091B401B091B5013091C60123E07E
:10462000230F2D3720F40196A11DB11D05C026E8EA
:10463000230F0296A11DB11D2093C6018093B201E4
:104640009093B301A093B401B093B5018091C701D9
:104650009091C801A091C901B091CA010196A11D14
:10466000B11D8093C7019093C801A093C901B09375
:10467000CA01BF91AF919F918F913F912F910F9060
:104680000FBE0F901F901895E1E7F0E080818D7FBD
:10469000808310929100469847981092B601089531
:1046A000CF92DF92EF92FF920F931F93CF93DF93FE
:1046B0000E947722811520E8920751F4DF91CF9173
:1046C0001F910F91FF90EF90DF90CF900C944423B7
:1046D00021E02093B601813020E8920751F48091C7
:1046E000BB019091BC019093BE018093BD010E94DB
:1046F000772297FD05C02091BA01222309F440C01A
:104700002091B90121113CC021E02093C001EC01AE
:10471000DF77209769F481E08093C10146983FE9F3
:10472000C32E3FE0D32EE12CF12CCAEFD0E014C011
:104730008E0120E030E060E472E48FE090E0A901B7
:1047400098010E949A3669017A0181E0C81AD1085D
:10475000E108F1081092C101E0914807F091490782
:104760000995811103C081E08093C1018091C0014E
:10477000882309F43FC08091C10181113BC003C06F
:104780001092C001C4CF469935C0479A0E94772243
:10479000009771F09C01DE010E94EE36DC01CB0136
:1047A00029E0B595A795979587952A95D1F703C0E8
:1047B0008FEF9FEFDC01109290002AE02093910090
:1047C000D0929900C09298008093C2019093C30147
:1047D000A093C401B093C501809171008260809361
:1047E0007100DF91CF911F910F91FF90EF90DF90BB
:1047F000CF9008954798CACF1F920F920FB60F928D
:1048000011242F933F934F935F936F937F938F93D5
:104810009F93AF93BF93EF93FF938091C2019091C9
:10482000C301A091C401B091C501892B8A2B8B2BA8
:1048300081F18091C10181110BC098B180E4892779
:1048400088B98091C001882319F088B1805888B94F
:104850008091C2019091C301A091C401B091C501A2
:10486000181619061A061B06B4F48091C20190911D
:10487000C301A091C401B091C5010197A109B1097B
:104880008093C2019093C301A093C401B093C5016A
:1048900002C00E945023FF91EF91BF91AF919F9171
:1048A0008F917F916F915F914F913F912F910F90D9
:1048B0000FBE0F901F9018959C01E1E7F0E09081EA
:1048C0009D7F908381E08093BF013093BE01209350
:1048D000BD013093BC012093BB010C9450234F9237
:1048E0005F927F928F929F92AF92BF92CF92DF9210
:1048F000EF92FF920F931F93CF93DF9300D000D0DE
:10490000CDB7DEB7DC014115510509F4DEC0FA016F
:10491000D490319694914E5F5F4F4D2C512C2223B1
:10492000E9F0E92FE695E695E695EE2EF12CE1E02B
:10493000F0E0892F877011F4E0E0F0E0EE0DFF1D4C
:104940004E9E70014F9EF00C5E9EF00C11242E9D29
:10495000F0012F9DF00D11244E0F5F1F5D01A40C7F
:10496000B51C1A141B040CF0B0C0A038B1050CF033
:10497000ACC09B01290F311D121613060CF0A5C007
:10498000603471050CF0A1C04115510509F49DC0BA
:10499000F62FF770EF2E9B0177FF02C0295F3F4F84
:1049A00083E0359527958A95E1F7F22F77FF04C0CC
:1049B000EE2011F0FFEFF20FB7FF05C06627772753
:1049C0006A1B7B0B02C060E070E000E8A016B10437
:1049D00024F080E8F82EFA1A01C0FD2CF61A2F2FC9
:1049E0000F2E000C330BFF3F1CF4C22EC09401C0ED
:1049F000C12CE1E0892F877009F4E0E09695969547
:104A000096959E0F290F311D2930310514F098E03D
:104A10009F1B8C2D8F0F9D01182F00E81003200D78
:104A2000311D1124260F371FCD9C600D711D1124DF
:104A3000640F751F41E050E00E2C02C0440F551F5B
:104A40000A94E2F7EFEFE49FD001E59FB00D112447
:104A5000A095B095BC83AB837C809F0F8917A9F18B
:104A6000F901E252FE4F6F01A12CB12CAF1438F5C1
:104A7000FB01EA0DFB1DE491E49F4001E59F900CD2
:104A800011249A82898287FD07C0F6011081E12FE7
:104A9000EA238E2AF6018082EE2051F0873044F41A
:104AA000F601E058FF4F908097208A8098289082E6
:104AB000FFEFAF1ABF0A0FEFC01AD00AD7CF8F5F30
:104AC000640D751D20583F4FC9CF0F900F900F9068
:104AD0000F90DF91CF911F910F91FF90EF90DF909A
:104AE000CF90BF90AF909F908F907F905F904F90AE
:104AF0000895BC0180E090E00C94C0228FB18095B5
:104B0000807F669B88601C9B846008956038710577
:104B1000D0F440345105B8F4E6E6F8E280E1849F31
:104B2000D001A0781124A60F4770E40FF11D8491E5
:104B3000A252BE4F222319F06C91862B03C08095A0
:104B40006C9186238C9308951F93CF93DF93DC01A0
:104B500020E030E040E050E011E0C1E0D0E0261776
:104B6000370791F114968C911497811115C0149602
:104B70001C93149712968D919C911397ED91FC9133
:104B80001197E80FF91FE4911596EC93159701968C
:104B900013969C938E93129714969C911497159646
:104BA0008C911597892349F0FE01022E02C0EE0F69
:104BB000FF1F0A94E2F74E2B5F2B990F14969C93DC
:104BC00014972F5F3F4FCBCFCA01DF91CF911F9139
:104BD0000895EF92FF920F931F93CF93DF9300D02E
:104BE000CDB7DEB78C017B01FB0160819A8389839D
:104BF000CE0101960E94BE30F70161810F5F1F4F09
:104C00001A830983CE0101960E94BE30C7010F901E
:104C10000F90DF91CF911F910F91FF90EF9008952A
:104C2000CF93DF9300D0CDB7DEB79A838983CE01CF
:104C300001960E94BE300F900F90DF91CF910895A2
:104C40000C9484368091D60190E02091E00530915B
:104C5000E105821B930B6AE070E00E9400369C0124
:104C600081E0232B09F080E008959091DC019817F2
:104C700014F0691714F48093DC0108951092D701A1
:104C80001092E20582E08093D8011092E3058091B2
:104C9000D601873160F08091E0059091E105893976
:104CA0009F4F2CF01092D8018EEF8093E30508956A
:104CB000FC012285261714F0421714F4FC016287C8
:104CC0000895BF92CF92DF92EF92FF920F931F93BE
:104CD000CF93DF93FC0166834783842F880F880F6F
:104CE000840F30E18302C0011124962F990F990F90
:104CF000960F9F70892B818367FF02C08CE003C0F1
:104D0000662311F084E0848747FF02C0148604C044
:104D1000442311F088E08487222309F44CC0818564
:104D2000811149C0EF018485811135C01D868A81BA
:104D30009B812AE030E0B9010E941436162F8C8145
:104D40009D81B9010E94143600E0FF24FA94F60E0A
:104D5000CC24CA94C10EBB24B394B10EDF2CD01A5C
:104D60006D2D812F0E949E2B833099F46D2D8C2DFB
:104D70000E949E2BE82E6D2D8B2D0E949E2B982F2E
:104D80000F5F2DEF2E0D223020F08DEF890F823036
:104D900060F4098710C00E94763626E030E040E0DB
:104DA00050E00E949A36698706C09111D7CF915082
:104DB0009330A0F6EECFDF91CF911F910F91FF902E
:104DC000EF90DF90CF90BF900895CF93DF931F9225
:104DD000CDB7DEB76983DC01ED91FC910280F381F0
:104DE000E02D41E050E0BE016F5F7F4F09950F90CD
:104DF000DF91CF91089583E08093E9008091F200E4
:104E0000882319F08AE38093E8000895FC018485E3
:104E1000958597FD0BC09FB7F89482E08093E900D9
:104E20008091F2009FBF90E0019608959FB7F8949B
:104E300082E08093E9008091F2009FBF90E00895A6
:104E40008F929F92AF92BF92CF92DF92EF92FF929A
:104E50000F931F93CF93DF935C016B017A018091D5
:104E60000C01882309F45BC08091D401882309F4E4
:104E700056C08091D10180FF05C08091E000826022
:104E80008093E000E70110E00AEF83E0882E9AE3C8
:104E9000992E2097D9F10E94C22E81110AC001508B
:104EA00009F43DC061E070E080E090E00E94C02223
:104EB000F0CF282F30E0C217D3070CF48C2F4FB758
:104EC000F8948092E9009091E80095FF1DC0282F8A
:104ED00030E0C21BD30BF601982F915020F0819146
:104EE0008093F100FACFC20ED31E112319F09092D5
:104EF000E80009C08091E80085FD06C09092E800B6
:104F000011E0209709F010E04FBFC3CF1111C3CFBC
:104F10005D9884E68093D2011E141F0444F081E062
:104F200090E0F5019383828380E090E001C0C701A7
:104F3000DF91CF911F910F91FF90EF90DF90CF9075
:104F4000BF90AF909F908F9008950E94C22E90E0E6
:104F500008950F931F93CF93DF931F92CDB7DEB7C2
:104F60008C01FC018485958597FF0EC0CE010196CA
:104F70000E94982E019719F4298130E002C02FEF8A
:104F80003FEFF80135872487F801848595850F90D8
:104F9000DF91CF911F910F910895CF93DF931F92CF
:104FA000CDB7DEB7FC018485958597FD05C02FEF51
:104FB0003FEF358724870BC0CE0101960E94982EC3
:104FC000019719F4898190E002C08FEF9FEF0F9055
:104FD000DF91CF910895DF92EF92FF920F931F938D
:104FE000CF93DF93D82E8A017B01E40EF51EEB01EF
:104FF000CE15DF0571F0D7FE03C0FE01849101C01C
:1050000088810E94DE3021968111F2CF8FEF9FEFD1
:1050100001C0C801DF91CF911F910F91FF90EF90D8
:10502000DF9008950F931F93CF93DF931F92CDB717
:10503000DEB782E0898342E450E06EE678E280E801
:105040000E94EB270E94D32EDC0112960D911C9139
:1050500013970115110569F0D801ED91FC910280BB
:10506000F381E02DBE016F5F7F4FC801099597FF67
:1050700007C089810F90DF91CF911F910F91089503
:10508000F80100851185E5CF1F920F920FB60F92A0
:1050900011248F939F938091E1009091E100937F81
:1050A0009093E10083FF0FC01092E90091E090938C
:1050B000EB001092EC0092E39093ED001092D4017B
:1050C00098E09093F00082FF20C093E09093E90075
:1050D0009091F200992319F09AE39093E80090914F
:1050E000D201992339F09091D20191509093D2013D
:1050F000992389F19091D301992339F09091D301AB
:1051000091509093D301992341F184FF10C0809175
:10511000E2008E7E81608093E2008091E1008F7ECC
:105120008093E1008091D1018E7E806111C080FF6B
:1051300016C08091E2008E7E80618093E2008091B3
:10514000E1008E7E8093E1008091D1018E7E8160AE
:105150008093D10104C05D9ACDCF289AD6CF9F917C
:105160008F910F900FBE0F901F9018951F920F9266
:105170000FB60F921124CF92DF92EF92FF920F930E
:105180001F932F933F934F935F936F937F938F93CF
:105190009F93AF93BF93EF93FF93CF93DF93CDB7DD
:1051A000DEB76C97DEBFCDBF1092E9008091E800BA
:1051B00083FFEDC168E0CE0145960E940C3182EF7D
:1051C0008093E8008D8987FF05C09091E80090FFEB
:1051D000FCCF03C09EEF9093E800982F907609F0E3
:1051E000C6C09E892F89188D91110CC0803829F472
:1051F0008091D0018093F10002C01092F1001092D2
:10520000F10048C1422F50E0512B913051F48111EF
:1052100041C14130510509F03DC18091D0018D7FE0
:105220000BC0933061F4811135C14130510509F053
:1052300031C18091D00182608093D0012BC1953023
:1052400041F48091E80080FFFCCF20682093E300C8
:1052500021C1963009F05FC0EB8CFC8C1092E90004
:105260001092CE011092CD01123091F51092CC0126
:105270001092CB010E94122899E0BE016F5F7F4F10
:10528000DB01E92F1D92EA95E9F799831A8391E0F2
:105290009E8390EA98879AEF99872091CD0130916B
:1052A000CE01275F3F4F3C832B838D831092E90013
:1052B0001092CE011092CD01F092CC01E092CB0180
:1052C00049E050E080E00E94EB270E941228E2C0F3
:1052D000F092CC01E092CB010E94D32EDC01129619
:1052E000ED90FC901397E114F10409F4C0C0D701CC
:1052F000ED91FC910480F581E02DBE016B5E7F4F46
:10530000C7010995009719F00CF0C4C0C7C0F70198
:10531000E084F184E8CF973009F4C0C0983021F4DC
:1053200081E08093F100B6C0993009F0B3C083707A
:1053300009F0B4C0E0E9F1E081E021E036E39081DA
:10534000992361F08093E9002093EB009191909371
:10535000EC003093ED008F5F873089F78EE7809304
:10536000EA001092EA008F898093D40193C08B8D5C
:105370009C8D1092E9001092CE011092CD01909375
:10538000CC018093CB01898D811156C08E899D8976
:10539000913A59F4813209F081C047E050E065E06C
:1053A00071E080E00E94EB2775C0913209F076C071
:1053B000833289F4888D90E0982F88272F89822B5B
:1053C000A0E0B0E08093010190930201A09303015B
:1053D000B09304015FC0803269F48091E80082FFDD
:1053E000FCCF67E085E091E00E940C318BEF809369
:1053F000E80006C0823209F04DC08F8980930C010D
:105400008091CF01882319F0EEEFFAE002C0E0E0CE
:10541000F8E08091050190910601A0910701B091FB
:105420000801803B9440A105B10509F07BC0809143
:105430000C0180FF93C076C00E94D32EDC0112962F
:105440000D911C9113970115110541F1D801ED91B2
:10545000FC910190F081E02DBE016B5E7F4FC80191
:105460000995811117C0F80100851185ECCF113025
:1054700009F44EC0133091F48F89882309F445C094
:10548000823081F440E860E182ED98E20E94753557
:10549000882321F08EEF8093E80079C081E2809329
:1054A000EB0075C0813029F440E86BE086EC98E2AF
:1054B000EDCF833099F70E94D32EDC011296ED9048
:1054C000FC9013978E010F5F1F4F6801E114F104E8
:1054D00079F0D701ED91FC910680F781E02DB801BC
:1054E000C7010995080F111DF701E084F184EECF83
:1054F000D8011C92F60101900020E9F73197BF0115
:105500006C197D0940E0C601C1CF60EB78E202C0B2
:1055100064EB78E26115710509F2FB01449150E0FA
:1055200080E840CF0FB6F894A8958091600088611C
:1055300080936000109260000FBEA895EE3F2AE0B5
:10554000F20739F08091FE0A9091FF0A91838083DF
:10555000A1CF1092FF0A1092FE0A9CCFEE3F8AE084
:10556000F80731F0808191819093FF0A8093FE0AC1
:1055700087E797E7918380839BE088E10FB6F894F3
:10558000A895809360000FBE9093600083CF6C96C7
:105590000FB6F894DEBF0FBECDBFDF91CF91FF9164
:1055A000EF91BF91AF919F918F917F916F915F919B
:1055B0004F913F912F911F910F91FF90EF90DF90AE
:1055C000CF900F900FBE0F901F9018959C01240F45
:1055D000311D1216130684F5803891056CF5FC0117
:1055E00097FF02C0E0E0F0E02138310514F020E838
:1055F00030E02E1BAB014770552781E090E001C0E1
:10560000880F4A95EAF7809577FF02C0695F7F4F60
:1056100093E0759567959A95E1F77695762F6627CD
:1056200077956795E60FF71FE252FE4F215020F065
:10563000908198239193FACF08958150833008F197
:105640008AE0869F9001879F300D1124849FB001CE
:10565000859F700D1124E4EFF6E0808184FF0AC07D
:10566000828193818217930729F48481958186171B
:10567000970739F03E9687E0E834F80771F780E045
:10568000089581E00895873028F4843038F5882320
:1056900029F126C0803120F58AE0869F9001879FFE
:1056A000300D1124849FB001859F700D1124E4EF0B
:1056B000F6E0808184FF0DC082858B3051F48281B9
:1056C00093818217930729F4848195818617970720
:1056D00039F03E9687E0E834F80759F781E00895FD
:1056E00080E00895853031F118F4882319F124C041
:1056F0008750883008F58AE0869F9001879F300D9B
:105700001124849FB001859F700D1124E4EFF6E011
:10571000808184FF0AC0828193818217930729F4D4
:10572000848195818617970739F03E9687E0E834A3
:10573000F80771F781E0089580E008958C3100F555
:105740006F3F01F1603100F570E0982F969520E1F0
:1057500080FD0BC0929FC001112482529A4FFC0120
:10576000E60FF71F8681829509C0929FC001112420
:1057700082529A4FFC01E60FF71F86818F700895C1
:1057800081E0089580E0089582E008952F923F928D
:105790004F925F926F927F928F929F92AF92BF9241
:1057A000CF92DF92EF92FF920F931F93CF93DF93ED
:1057B000CDB7DEB761970FB6F894DEBF0FBECDBF91
:1057C0004C017B012A875A8349831C821B821D82DC
:1057D0001E8268E070E0CE0101960E94A4253C0183
:1057E000AC014F5F5F4F5987488768E070E0CE019A
:1057F00001960E94A4256C0161E070E0CE01019643
:105800000E94A42528853985280D391D37FDFEC045
:1058100050E8851691040CF0F9C096012F5F3F4FB8
:10582000A701420F531F57FDF1C060E4E616F104D3
:105830000CF0ECC06701F7FE04C0CC24DD24CE18C8
:10584000DF0877E0C722DD24A701F7FE02C0495F29
:105850005F4F2A0153E0559447945A95E1F7F7FEBC
:1058600009C091E0491A510848E050E0FA01EC19EA
:10587000FD096F01A90137FF02C0495F5F4F1A019F
:1058800043E0359427944A95E1F727703327232B7B
:1058900019F0FFEF2F1A3F0A002311F0730102C025
:1058A000E12CF12C8F8321E010E0A12CB12C88E0B9
:1058B00090E0AC014C195D095C874B87A214B304DE
:1058C0000CF0A4C041E050E061E070E0CE01019630
:1058D0002F874D875E870E94A4252F854D855E8585
:1058E000892B19F44E5F5F4FEFCFBA01CE010196BD
:1058F0000E94A425DC01119640E050E02F854A1754
:105900005B0708F07AC06F816111122B220F09F03A
:1059100071C0C2018A0D9B1D9C012F5F3F4F293032
:10592000310508F04AC09701280D391D203831058E
:1059300008F043C0BC017695762F6627779567956A
:10594000680D791D6E0D7F1D8F3FEFEF9E0709F4E7
:1059500059C0212F30E0F9010C2C02C0EE0FFF1FBF
:105960000A94E2F7F98BE88BFB01E252FE4F2A859D
:10597000222321F030812889232B04C028892095F7
:10598000308123232083C114D104B9F00797A9F0F3
:10599000812F90E00B8402C0959587950A94E2F7D9
:1059A000FB01E25AFD4F2A85222319F01081812B39
:1059B00003C08095108181238083011110C06FEF97
:1059C000E61AF60A88859985E816F9068CF09FEFA5
:1059D000A91AB90A21E010E0E12CF12C0BC0E1E09A
:1059E000EE1AF108F7FE04C0FFEFAF1ABF0A730109
:1059F00021E010E04F5F5F4F82CF4F8151E045279C
:105A00004F835CCFC114D10419F6D7CF61960FB67E
:105A1000F894DEBF0FBECDBFDF91CF911F910F91E4
:105A2000FF90EF90DF90CF90BF90AF909F908F90BE
:105A30007F906F905F904F903F902F900895E82F48
:105A4000E695262F30E080FD0FC080E1E89FF00151
:105A50001124E252FA4FE20FF31F86818F7090E11A
:105A6000499FA00111240AC080E1E89FF0011124A0
:105A7000E252FA4FE20FF31F8681807F482B468364
:105A800008950F931F93CF93DF9300D0CDB7DEB768
:105A90001A82198282EC90E00E9420268093C4062C
:105AA00083EC90E00E94202605ED11E0F80186834A
:105AB00084EC90E00E948436898385EC90E00E941B
:105AC00084368A8389819A81F801958384830F9033
:105AD0000F90DF91CF911F910F910895FF920F9337
