:100000000C94D9130C9401140C9401140C94011445
:100010000C9401140C9401140C9401140C9401140C
:100020000C9401140C9401140C9452270C94C427C2
:100030000C9401140C9401140C9401140C940114EC
:100040000C9401140C9401140C9401140C940114DC
:100050000C9401140C9401140C9401140C9441227E
:100060000C9401140C9401140C9401140C940114BC
:100070000C9401140C9401140C9401140C940114AC
:100080000C9443230C9401140C9401140C9401144B
:100090000C9401140C9401140C9401140C9401148C
:1000A0000C9401140C9401140C9401144C197D1936
:1000B0007D1976197619721972196E196E196A19E5
:1000C0006A19621962196619661962196219661944
:1000D0006619EA31063274322634263426341E3448
:1000E0002634263424342634293429342934493416
:1000F000F72DF72DF72D182E182E182E722E722E82
:10010000722E722E722EA72EA72EA72EF72DF72D48
:10011000090FE8D2D9ED76BB4EC7B7DD6EB7DBED80
:100120007636090FE8D3E974FCDBED76BBDD6E674C
:1001300003090F109BCE6EB7DB753A36090FB8B2C4
:10014000E9145FD7ABCF85A2ED6CDB5901090FBC79
:1001500092EE55A9A4D2AAAD53E4E9E8B6B30309D7
:100160000FF8B6CAF55FB9B5EBD436EEED6CDB59D6
:1001700001090F38B39FEAB397770A4BDBD9B6B3BF
:1001800002090FBC924EA5FAECE554CEC9D9D3F9B9
:10019000EC367A090FB8B29F6AA2745FBB8E773BC8
:1001A0007B3A5A090F38972ACA6B998E39BD1D5B65
:1001B000090F5CA73EF54D96DBF5B950B79D1D20A4
:1001C000064B000000190075054B000000190027C0
:1001D000054B000000190097044B000000190017A0
:1001E000044B0000001900B8074B0000001900E0A4
:1001F000064B000000190010034B0000001900BA64
:10020000024B000000190093024B00000019004B44
:10021000024B00000019000B024B0000001900DC2B
:10022000034B000000190070034B00000019008808
:10023000014B00000019005D014B00000019004A4D
:10024000014B000000190026014B000000190006B8
:10025000014B0000001900EE014B0000001900B82E
:10026000014B0000001900C4004B0000001900AF52
:10027000004B0000001900A5004B0000001900937E
:10028000004B000000190083004B0000001900F72C
:10029000004B0000001900DC004B00000019006258
:1002A000004B000000190057004B000000190052DD
:1002B000004B000000190049004B000000190041EC
:1002C000004B00000019007B004B00000019006E7D
:1002D000004B000000190031004B00000019002CF9
:1002E000004B000000190029004B000000190025F8
:1002F000004B000000190021004B00000019003ED7
:10030000004B000000190037004B000000190000EE
:10031000804B024B0000000F004B024B0000000F0F
:10032000004B024B0000000F0026014B000080E054
:10033000060F0017040F0027050F0000800A081899
:10034000006000800020004000000060009000205D
:1003500000000000000000801000208000008000ED
:1003600000200000000040090FA8D69D2BA2AC93EE
:100370002A75BB08B3DBB106090F88769D7A995DB3
:10038000CBDA756AD46DD7B101090FB8969F6AA20E
:1003900074D7ABCFCDBC9D753B2B0607A8D2E974B3
:1003A0003A2E0407723A9D8E0A06077C3A9D4E4704
:1003B0000704079D4BA7A303030788E5030792CC17
:1003C0000407B8D2E99C5304077C3A9D760E0607D1
:1003D000DE6EB7DBED76070407A59276BB5D0106FE
:1003E00007B7DBED76BBDD020407A5926ABBDD0231
:1003F0000307F8743A0307759A100407D476BB9282
:100400004A2A0407B7DBAD5452011507A54E47250C
:1004100055552A1595F3D99C2293AA2A958A4AEA1A
:10042000745C95032907522E95AA4A95E272AA9206
:1004300095755452E5B3924AAAAA542A6EE552A978
:10044000544E71399F4E392EA9AA52A9A8A4AA6464
:10045000656B4A550A2907D369A9A293AA9295AD5B
:10046000A9F64A4DEF54252BEBB8944BA5AA52A5FB
:10047000B89CAA64651D552A25552A2AE9F24949DE
:10048000A94A010E07A54E47E57C36A7C8A44EC76A
:100490005571011307522E95AA4A95E2522E954A9C
:1004A000E51497D4E9A8A44AA552394556390F074F
:1004B000A5CB67B3924AAAAA542A2AE9F249C95598
:1004C0003904050E11110E00121F10121915120A0F
:1004D00011150A06051F04171515090E1515080133
:1004E0001905030A15150A121509061907EA5455C4
:1004F000AA2AD59129974AA572159972A9542AA7B3
:10050000B8A4AA64656B2AA9AA52A9B82A2EF4F540
:10051000F9F6F7F8FBFAFFFCFDFE00020304010602
:100520000508090A070B0C0E0F0088016400000083
:100530001400DC036400000014004B02640000009F
:100540002800170464000000140027056400000060
:100550001400200664000000280000800C0E030533
:10056000061706040E03000000010002040616062A
:10057000190D050E00E10A31E10A2841018621E149
:1005800004C103612104C1034161012101C1022AA7
:10059000614127014161012604C104614104C10395
:1005A000416101266129410122A123014161012606
:1005B0006105C1034106C101416107296141012271
:1005C000A32101286101C107614104C10B622941D6
:1005D0000122A123096202C1064106C10961296104
:1005E000410122A3210225026108C1614106C10225
:1005F0002102C121026229410122A12304612202B8
:100600006215612101C101613C001A04030B011153
:100610000102040405001600050116010A0110017B
:1006200001041904002304220422042204270224C2
:1006300002240224E10124610222612102226121BB
:100640000221612202216122026203216182610191
:10065000216103C16121016182612103620224C120
:100660006124622461C124026223022261210221E9
:1006700061220221612202236222042161C10361FD
:100680002103C16121042262230224622462240224
:1006900023620222612102226121022161220221C0
:1006A0006122026203216104216103C161210461AD
:1006B0002103620224622462246224026223022251
:1006C000612102216122022161220223622204218E
:1006D00061046121046121042262230224622462F4
:1006E0002402236204C1046201C1026204C10462E3
:1006F0003A6100170F040C020E02020919090400E6
:10070000001B0000011B010A011001030918090068
:10071000E11F1826612461036124612701810461BE
:100720000461416141610461058101610125066146
:1007300003C102260162012502216721022601620E
:100740000122C101210221614561210222C123014F
:10075000620125022167210226016209870A6205DA
:1007600061064106610662456104C143C1046146F8
:100770006205610445046106622561034703612641
:1007800062056101C149C1016106624561014B0118
:10079000614661C105614D6106C100070A03070199
:1007A00017060A0E0300000001000208010D0418DC
:1007B00006090E00E11F192A462144214461C11592
:1007C00061046122094103C104C183C10261256240
:1007D00021622802210321026104216201622101B8
:1007E00042240961042162C16221014101240123E3
:1007F00061246104270141C123056104611661047C
:10080000610F216125614461226128612301610139
:10081000C202610461026108610461014205226152
:10082000026122C1210461022301422601610261A9
:1008300024046103C1024207613242234461000E75
:100840000E031700040716080200001B000307052B
:100850000718081A0800E103C104C105C108C10353
:100860006126612301256123012562066109610971
:100870006101610661028104610961016106610231
:100880008101810461096101610661810381026165
:1008900001886101618661068102610961086181E7
:1008A00005816109610126016102810381026105FF
:1008B000C101C10161220123026102810181026142
:1008C0000481234301C103C10161048104610381E7
:1008D000234322A123026102810181026104812359
:1008E0004322A1210121016102810381026103816F
:1008F00022C24202C101C1036181058161048146B6
:1009000026016104C1046101C102463C000D0E04D0
:1009100005080708140816080600001B0000011B44
:100920000100021B0206080908120815080200004F
:1009300000000000011000000000000000000000A6
:1009400000000220000000000000006000000060C5
:10095000011006000000060021212121212132235F
:10096000121212121212000600000600311300606B
:1009700000006000321212121212122121212121D4
:100980002123300060006000011000060006000313
:1009900021212121212132231212121212120000D0
:1009A00060006000311300060006000032121212CF
:1009B00012121221212121212123300600000600DC
:1009C0000110006000006003212121212121322338
:1009D00012121212121200600000006031130600A1
:1009E00000000600321212121212122121212121BE
:1009F0002123300000000000000000000000000380
:100A00001212121212121212121212121212010EDB
:100A100002080E130E0200001B00070E090E120E34
:100A2000140E00E188C226C288E16107C123642355
:100A3000C1076206C12263026322C1066206226206
:100A4000066222066205C12162086221C1056205B3
:100A50002261C108C161220562052162C108C1622B
:100A6000210562052161C208C2612105620521627A
:100A7000C108C162210562052261C108C161220568
:100A800062062162C106C1622106620621A162C21C
:100A900002C262A121066207A12163C26321A107EC
:100AA000620823642308620A260A61296108612812
:100AB0006100010F0319020706150F070500050164
:100AC00000020302050200030104180204040C07DB
:100AD000130F0025E1360421E12101870C21E122D9
:100AE000E102210121C1032161210B21E101250145
:100AF000266125C101216125E104C18324612861AA
:100B00002101290321022161230124612101220DF8
:100B1000216123012201216121C10121612761217C
:100B200061C1012161230122012161246107612545
:100B30006123C10121012161220121610924612672
:100B400001216122C1216107210561086103216141
:100B50002361246121412141214121412141214140
:100B60002161214121416123612461260225612106
:100B7000412141610361046127022461046128610C
:100B800028C1012762086101C1012608610002072E
:100B90000218010902030000030103020A021A03FA
:100BA000080E170E00E11B23E12409860A820F4577
:100BB0006103612102256126830321016224022150
:100BC000C1836185210324612161062403236121FE
:100BD0000321C10261016106218461846121032135
:100BE00081026101610221032161C121C161C12131
:100BF00061C1612103210361C1216122032C042110
:100C00006123016104C12105C1042105610461045E
:100C10002203236103210561046102C12101210630
:100C2000610321C102612501610221022103C10288
:100C300061032202610661C1210321016126610174
:100C4000210121C16106612102C10121016121024D
:100C5000C1012161042161053C000D0E030504154D
:100C600007040F050E000E010E020F020F03020310
:100C70001903050F170F001F19C11AC12161016166
:100C80008BE188610161236212C10162256101610A
:100C9000860189610161276201C10E6228A161019B
:100CA00061870184610161A128A121620AC10162F9
:100CB00021A128A12261016183018461016122A136
:100CC00028A1236201C1066223A128A12461016138
:100CD00082018161016124A128A12562046225A10C
:100CE00028A12662026226A128A1276101C16127ED
:100CF000A128086122610824001501050A010C01E0
:100D00000E01080E110E021B001B0103010B010D49
:100D100001190100411B4105C412412AA12F611B89
:100D200061044101C102C107C106C1410161044121
:100D300027A127A1244101611B61064102C104C111
:100D400005C102410361064123A126A1254103619A
:100D50001B61074102C105C104C141046106422E65
:100D60004104611B611B61C414614101612A462871
:100D7000420161000E0B03020015000F0202060083
:100D80001600010014000E02150F010124042305B2
:100D900022C1210421C1210522C1210423052403EC
:100DA0008203220181058106220181062406650154
:100DB00022C121058104810122C121072201810173
:100DC00024072201810B810181026A0281068109C7
:100DD000260181082603230424C1210321C1A10483
:100DE00024C12103230424C121018108268109266D
:100DF000016602810681072201660722810624031B
:100E0000640522C12106230322C1210621C1210339
:100E10002406231F0A000A0E0318051207030A03FB
:100E20000D000D010D0204021A051307040A001C2F
:100E30008B13C104C101416104C10C29476102C186
:100E40006141610521412141214121450347610F54
:100E50004202C106416102C102886101422561036B
:100E60004224610861014205610524610861014273
:100E700001286101246101C104C101610142012114
:100E80000621610124612303210161014201210343
:100E9000C10221610122C1216127016101420128B2
:100EA0006101220121610861042102C10321610461
:100EB00021612E016122610127610F6101C1610879
:100EC000613C00070104140104090A09180B0A0017
:100ED000031B0300041B04000501051A051B050183
:100EE000061A06130103090B09170B00611A621A8F
:100EF000620341216121418A41216121410361E174
:100F00000341C161014101C106C1014101610141CA
:100F100006412201610122410641220161C12241B3
:100F20000441C1026102C14101C1044101C1016129
:100F30000121C141E1E141E123016103224102417B
:100F4000256101210121E1420561054101C141C144
:100F50000461012102C14205612541612141220351
:100F600061012201214201C103610661076105425D
:100F70006124610341226123410361032161410135
:100F8000614101C101610321026101C101210361CC
:100F900003416102614122016101230261032301D6
:100FA0006101224161026101C141016101410461AC
:100FB00004C14101610141C1016102610323056175
:100FC00006230361013C000D0E0305010D02160509
:100FD000031A001A011A0204010C02160215050078
:100FE0001F19612A6104C106C104610A61246104F8
:100FF0002361236101C106C10161034161076103EE
:10100000610121022301210161C2014161076103E4
:101010006101210123022101614201412A42610152
:1010200021022301210161420C41C16101210123FF
:1010300002210161418802C10241620121C10123F3
:101040000121016141C107246141620125022101A1
:1010500061420B610162012801614204C106612203
:10106000610A61420146046102614821440B610248
:10107000611861023C0007050210030F0F041A00FB
:101080001A011A021A0312010E020105100F0004C0
:1010900041054105410A4104410541054103C1069D
:1010A000410441A124410541240223E141230923B4
:1010B0006103C105C1E1412B610361280121614147
:1010C0000B610122612103C1042161412161296178
:1010D00001C1216121012561012161412188226134
:1010E00001226121012104610121614121022102CA
:1010F0002101C122610362012101236101216141BA
:101100002102210221022162246122C123610121E5
:10111000614121022101C121022161210621012316
:101120006102614121022402216121012401210483
:1011300061216241216122022263210121C1220138
:10114000276101412161034221622203210222C160
:101150000461214121610341036122A124A127618E
:10116000214121612304610F610141001A0E031224
:10117000080509020E0A10000F0110010E020F02ED
:101180000D030E030C040D040C050E0607070108E1
:10119000180A001F1F1F1FE1E11F1561226118615E
:1011A0002261C1146127610D216104612101C10126
:1011B000C101216101216121610923612C61236148
:1011C000082201C1022401C10361C1022261072476
:1011D0006102C1012361016122610121610821C114
:1011E0002161236101C101610161C12161C12161ED
:1011F000093261035C0009070308021403190C0497
:101200001700170117021703090213031708040E2A
:10121000000349124109410C42024103C206216107
:101220000A420142226128426108C1420141236110
:101230002B6122432161452263218721632184613F
:10124000836141226101612102C1042161016121A7
:10125000086141226101612107216101612101C110
:1012600004C10161412261C16124612461C1612124
:10127000410641614129613061410622632202C178
:1012800004C103C101614186216201628E61410195
:10129000C104216103610E614107610361022B01F9
:1012A000614404610361012301C12202C101226181
:1012B00041264161C101C161022D000D0F030605E8
:1012C00008090D090812001B001B011B021B031B50
:1012D000041B051B061603050509090E090007C1B5
:1012E00004C10FC2306109220AC102C10261126148
:1012F000286102C103C10B61086128E104C102C178
:101300000161156126610BC10861066106612961F1
:1013100001C101610661066109612361066104C1C1
:10132000016107C10161066123612661046125062F
:10133000618804C1026109C10161C10761266103BD
:10134000C101276107610661250761076113610219
:10135000C1046106C10500040E030D0217090B0E3E
:10136000051A00180119011A0118020E02080618C0
:1013700009130C005AE121619661E1E1E121610864
:10138000220C61E1C101216102610135612161022B
:101390006101231261216102610321013361026154
:1013A00002612103C1022101C1012101C101210109
:1013B000C1022161026102612261326102618261C6
:1013C0000261250125062161026102610261042199
:1013D00001C121092161026102610261826101246E
:1013E0006182276102610261026102610561022777
:1013F0006102610261026102618261026102276130
:10140000026102610261026102610121612301C383
:1014100001216102610261026102610261026123D4
:1014200061376101C26125000B0E040D0017010731
:101430000207080113000F00180106020808000E39
:10144000C118286105C10BC109612161256105C170
:10145000256107610161056123A1230461876101A1
:1014600061C104610B610761012701C10961076165
:101470000823612761076188C10261076104C10215
:101480006107C129022861042407C103C10761085B
:10149000256123A1236102C1026103C10961072EF5
:1014A0006105611561056101C10AC108613C000D5A
:1014B0000E040A01110106051505020C000F0009B2
:1014C00002120205061606000D22E117C161226113
:1014D000C11561266113C1612661C111612A610FC5
:1014E000C1612A61C10D612E610BC16103C8036135
:1014F000C10961326107C1613261C10561366104B0
:10150000613661046116610461166104611661024D
:101510003C000B0E0303041A0A130B020300030121
:101520001A0105020F02100B001FE106C109C106D6
:10153000C161A1216104612361056123612102214F
:1015400062022603612561036102C10162C10A6171
:10155000056103240162A12409236121076201417D
:10156000240722086121016201412505220761212A
:1015700061026201412B04C1036103226101412B1D
:10158000032302610561014104230123086104C1B1
:1015900061014102C1012201C101220861032261EE
:1015A0000141612B61266103226102610B610661C9
:1015B00003226102611261033E00040A030A020F62
:1015C0000618060600001B0000011B0100021B029A
:1015D00002020F0218020E0600E11F1F156123A16F
:1015E000366223A1366207228822076203C103C143
:1015F000216106C1220762072261012802256202D9
:101600002302226107220222C122620221C1210299
:1016100022610722022562072862220222C1226279
:1016200002230228622202256202230222066101AD
:101630002207620223022205C161012204C1026164
:101640002A6129612E02C1612601C10161270014AE
:101650000102070C140C0F19001A011B021A0319BE
:101660000418051706160717081809190A1A0B1B7C
:101670000C1B0D1B0E060C080C130C150C001F1C6C
:10168000A1246226651061032102610FC105610179
:10169000612102610F21C105622102610E23C10592
:1016A000612102610D25C104612102610B280461E1
:1016B0002102610CC12505612102610E2306612111
:1016C00002610F21076121026117612102610C6132
:1016D0002EA129032F096121E13003C66122000EEA
:1016E0000A0408011401030518050B00001B000083
:1016F000011B01000201020202030219021A021B6D
:1017000002070113010405190500E11F02C104C10C
:1017100005C104C1092861036128E1E1E10C61030D
:101720006112612D6106C105C16105C101C105617B
:10173000C104C1276101C101C125C101C1016126E7
:1017400007610124032401610AC1026106C1066127
:1017500001C10661366104611661046101C104C101
:101760006127610661022A610761290A6107610B2D
:10177000C10761076106C102214121412141214187
:101780002141214121412141214121412141214149
:101790002141214100100F0306000F00060903023A
:1017A000001100160005000E00140A040F0102814A
:1017B000C1016A02810381018101810181018103EB
:1017C0006401810181018101810181058102810121
:1017D000C166038104810981028103810281048140
:1017E00002810181038103810269018101810381F9
:1017F000038101C182028105810482048101C10348
:10180000810282068101810382C16802810282060F
:10181000C1810581028102810281058104810381E8
:101820000181038103810281018104C18108810159
:101830008105690281C181028102C1810381038125
:10184000048102810481038104810181058107C132
:1018500082068101810264810781028104810881FD
:101860000281046A0281028108810481028105C12A
:101870008102C16402860300090E040C0017000CEB
:101880000C140C0F1B001B011B021B031B041B056C
:101890001B061B071B081B091B0A1B0B1B0C1B0D24
:1018A0001B0E03001500060C180C020000000000BF
:1018B00000000000000000000053535353535353E3
:1018C00053535353535350535353535353535353EB
:1018D00053535353506313031363130313631303DB
:1018E00013631053135313531353135313531353BB
:1018F00010531353135313531353135313531053BE
:10190000135313531353135313531353100313034A
:10191000130313631303136313031053135313536A
:10192000135313531353135310531353135313538A
:1019300013531353135310630303030303030303EA
:1019400003030303003111111111111111111111B0
:101950001111103000000000600060006000000005
:101960000032222222222222222222222222203657
:1019700000000000000000000000000060111111D4
:101980001111111111111111111111110E030E0666
:101990001606040A01180003000E001906070A00C3
:1019A00006C105C10F613161056103610DC10361AC
:1019B000056102C129612905612B620E610327625D
:1019C000876107610321C101C12262086102C1046C
:1019D0006102C1256205612443246123056106611A
:1019E0000B61086106610B61086103C102610B6153
:1019F00002C1612B6102C105C1026123610B61015A
:101A000029016103610B610B61036106C104610679
:101A1000C10461033C00080E0401011A010302180D
:101A200002010C0303001800030F180F00076116D2
:101A3000C1046111C102612201C102610FC1012211
:101A4000620222026124E1612561032202620B62CB
:101A5000C1046107620BC162046107620B62C10CC1
:101A6000620BC1620C620B62C10C620BC1620C6240
:101A70000B62C10C620BC1620C620B62C10C620B87
:101A8000C1620C620B62C10C6204613061046100CE
:101A9000090E02000513060719001901190219039E
:101AA0001104110511060D0001050F061906000AA3
:101AB000C119612702C10DC103610626072A610908
:101AC000C1116126E12561220C610C61042A610CBF
:101AD0006103C12A61274203612E610C61042A61FE
:101AE00007C10183610422062261072203610422E7
:101AF00002C202226105C10661042B6127610361F4
:101B00000F6107286104C106610F613C00070F05E2
:101B1000030208050D051405130F04000000010160
:101B20000D070D040206021702190200E11C9B6159
:101B30002105210D2105216101250F2501610121CB
:101B400001230F21C123016101250F25016101231B
:101B50000121A131012101610125A12301C122013E
:101B6000C128612101610125A131612101610125A6
:101B7000A131612101610125A124042961210161B3
:101B80000125A1240429612101610125A12403C1AA
:101B9000612861210161E185E1842461886102613C
:101BA0000A450C6109450D000E0E060502160202DB
:101BB0000B0F0B190B080E040B0010000B0110018A
:101BC000020219020D08040B01036C21032A0221F1
:101BD000032103210421022102C12102C12103C1E9
:101BE000A102210321032104210221032A0221034E
:101BF0006703A101210381058104A12103810581DE
:101C00000521026205816521022B0221E1E16AA121
:101C10000221092102A10221092102A10221092197
:101C200001C1A10221092102A10221E1E16AA1026F
:101C300021022B02210262058165210381058105B4
:101C4000210381058104A121036703A10121032A46
:101C50000221032103210421022102C12102C12109
:101C600003C1A102210321032104210221032A022D
:101C700021036C2100090E040D0213030205170E47
:101C8000030200020102020B0216030705180E00F0
:101C90001F118814610661256121042161230461FB
:101CA00004C101610561066104236127056103C167
:101CB0000261076107256124026107610C61066109
:101CC000076109C1026103C1026107610722612C3A
:101CD0006104610124016102610C6101C1026101C1
:101CE000240161026102C109618461012101C121F4
:101CF000016127610C6101256107610C61066107C3
:101D0000610AC1016106613C000D0B0515010A0461
:101D10001308020E140E031200120112020401181D
:101D2000010B040E080032E12A01C1102103C10396
:101D300022A12361246108276122A123612E0123AE
:101D4000026122046102C107240123026122612988
:101D5000612801230261226103266125C22101233A
:101D6000C1016122610326612E612261032104C148
:101D70006104C106C101216122610323612761273A
:101D8000612161226102C123610761276121612212
:101D90006122A121026107610222036121612261A6
:101DA00022A12161256128C201612161226122A154
:101DB0002161256126C126612261046122C122615F
:101DC00004C108613D000F0E041801010504080F4D
:101DD0000B0809000901090209030904090509069C
:101DE00009070001120104030E03001F0EC10A239C
:101DF0000D24612702220B2203610A2209220461B9
:101E000007C1022306C123046103C1032261240523
:101E1000246123612702610322032203610D61C152
:101E200003226122046105C105612361046105216A
:101E300061226123056103610E610861036104C1D0
:101E400009610861036127612661256122610B61D7
:101E50000C6102610B610C61023C00120E0306066C
:101E600016060E0A02000000010D02030E0D0E18E8
:101E70000E00E11C8B10610561052101C1012105E6
:101E800061056101C1026302C1012501C102630252
:101E9000C1016101620261026207620261026201C4
:101EA0006101610165016107610165016101610114
:101EB0006102C101C102610361036102C101C1028A
:101EC00061016102612561036303612561026103B0
:101ED00065016202610262016503610961016501D8
:101EE00061096104C1046102C101C1026105C1034C
:101EF0006126610361256102612761066104650352
:101F000061076106610C610761066107C104610731
:101F10003C000A0E0307040F071309031B001B01F3
:101F20001B020C0113010102190B001C8A05C10CD4
:101F30006101C106612A6107256103610A614705E4
:101F400061036106C103610C61266125612209C13B
:101F50000261066105610282052461210661056155
:101F60000482076104612661220682C104618461E2
:101F700006610A210461076129610961076129611C
:101F80000523612A03C103256124612A01612361BC
:101F90000125612103610B61236102C10361013CE1
:101FA000000C0E03040314050408021B041B051394
:101FB000011902010309080003C1176242214261AD
:101FC0000BC1086205610461296101C1036201C19D
:101FD00003610461096124A162214121412161045D
:101FE00061096106610561846186036106610561BD
:101FF000046105612346620561046102C102610951
:1020000062056101C10261256109614123412241EB
:102010002241610961236122412341066109610373
:10202000610241C102410661038661036101C12869
:102030006123440561022408610C610E610C610694
:102040003C000E0E03050617060E090412001201CD
:10205000120212030101090110061B06001F01C133
:102060001727612714618AE104C10B61042261030F
:1020700027612207610422610A6109610422610764
:10208000C1026102226125042861270261116109F0
:102090006111610729612A6110610A610EC1016144
:1020A0008A6103C107612609276104610CC10961C6
:1020B0003C00D5F08D14A1C881CFD9F1AF200057D5
:1020C00017A38B2E2E47175D74D145175D74D1452C
:1020D000175D721F5D74D145175D74D145175D742E
:1020E0009129BAE8A28B2EBAE8A28B2EBAE8A28B6D
:1020F0002EBAE8A28B2EB98F2EB4499D4EC7A55C8F
:102100002A954AA5728A2E5795AA4A55E51C9772B8
:10211000A9542A954A491449974DE71D977255A924
:10212000AA5455EEA24AE52A9BAD5C2A2AE752A999
:10213000543624DDD7575595AA2A3559AE2A5595D8
:10214000AACA392AA9F2CAA525977255A9AA54552F
:10215000AEA35485ACE8A28B2EBAE8A28B2EBAE8C7
:10216000A28B2EBAE8A28B2EBAE8A28B2EBAE8A2D6
:102170008B2EBAE8A28B2EBAE8A28B2EBAE8A28BDD
:102180002EBAE8A28B2EBAE8A28B2E321B07B22EF3
:10219000954A653BAD5D369D7754D265D3F9E89499
:1021A000AB4A55A5AA721D977255A9AA5455AE03FC
:1021B0001007B22E954A65E3723EA77CCA91299713
:1021C0004AA552A99C220210079C72A9542A95CABA
:1021D000292EE9B2E9BCE352AE2A5595AACA75592F
:1021E0001FA38B2EA764E7D29DDCE7D28E2EB66D9F
:1021F0007ABAD8B6E9E962DBA6A78B6D9B9E2EBAA8
:10220000E862DBA6A78B6D9B9E2E9B9E6D9BCFA647
:10221000B7E9E972694717DB363D5D4EE96D3EBAB5
:102220006C7A9B8F2E7439974EC79C733A2E652B10
:1022300059C9CA756CD94A56B2728EAB9395AC64C3
:10224000652353B69295AC5C872BE5D3E95CC7A5B3
:102250007C3A9D53648E4B91392E2BD3E99CE2CB73
:10226000391D97B295AC64E53A2EE5D3D9C894AD43
:1022700064252BD7416FF7B5AB4AA952A9C972554E
:10228000A9AA5455CE514995572E2DB994AB4A550C
:10229000A5AA721D2C1B5D74D145175D74D145171D
:1022A0005D74D1C594EB742EBAE8A28B2EBAE8A265
:1022B0008B2EBAE8A28B2EBAE8A28B2EBAE8A28B9C
:1022C0002EBAE8A28B2EBAE8A28B2EBAE8A28B090E
:1022D0000A100000000000000000000000000000E4
:1022E000000000000000EFEFE0EFEFEFEF0FEFEF87
:1022F00001010101010101000101FFFFFFFFFFFFDB
:10230000FFFFFF00010101010101010101000000C7
:10231000FF42424242FF00000000030000000003B1
:102320000000020202020202020202020000000099
:10233000000000000000EFAFE06FEFEFED0FEBEFFC
:10234000010101010101010001010000B0B000B074
:10235000B000000000000101000101000000EFEFEB
:10236000E0EEEEEEEE0EEFEF0101010101010100E2
:102370000101EEECE0E8E8EAE808ECEE0101010119
:10238000010101000101ECE0C0C088808000E0ECA8
:1023900001010101010101000101E08000000800CC
:1023A000010086E0010101010101010001010000BD
:1023B000000000000000000000000000000000001D
:1023C0000000E08080000000000080E001010101C9
:1023D000010101000101ECE0C0808080C000E0EC60
:1023E00001010101010101000101EFECE0E8E8E871
:1023F000E80CECEF01010101010101000101EFEF27
:10240000E0EEEEEEEE0FEFEF010101010101010040
:1024100001013F0FA5AA64656B2AA9AA52A9B83A7F
:102420005595AA4A755CCEA7538E4BBA7C362BA91C
:10243000A4AA4AA5E2562E95AA4A95E272AA9295B6
:102440007554D2E5B359492555552A15D2A5AA6424
:10245000656B2AA9AA52A9B83A5595AA4A755CE9AA
:10246000B454F13955C9CA3A2AA92A59D99A2A9D88
:10247000962A7EE552A9AA54292EA72A59594725FA
:102480005D3E9B95545255A55221122C07EA545596
:10249000AA2AD571A5D352C5E754252BEBA8A4AA27
:1024A00064656BAA745AAAF8954BA5AA52A5B89C64
:1024B000AA64651D9554F9ACA492AA2A954A010212
:1024C00007A55336097F37E0C3142E53284C67B74E
:1024D000DBED76BBDD6EB7DBED3A74A5B3DBED76F5
:1024E000BB550E916AEE7476BBDD6EB7DBED76BB45
:1024F0000ED256A1127D98534A2AA914D6A8523258
:10250000A4ADA4926A2472AE64285B2AA9E47882FE
:10251000A311BA73CE39E79C5352C58538E59C7335
:102520006E9C1D17EE9473CEE191147F5B2595543C
:10253000524925B73B082F89C7ED763B7F3ABDE36B
:10254000AF9D545249259554524925A552A59454FE
:102550005249E5DC76BB557AAB94545249259554E3
:10256000524925A5525249E59C92DBAD924E3AA9BB
:10257000A4924A49E59C924A3A2795944A4925955E
:102580005452DDEA53EB7C7AABA492CA39E79454F7
:1025900052492595545239A7E4761D6B3ABDDD6E3C
:1025A000B7DBED3ABAEC763B5A0B8D4A2AA9E438F0
:1025B0005A2AE74616DE52848853712270E79C42FD
:1025C000221FE676CE29EC11AE64285B2AA9E478B6
:1025D000E253216FE79C734E4925C3660A934A492B
:1025E0003BBEB6CED9A5728AEEB1E79CC3DC8AF2B7
:1025F0009197E24A21D045F6385B71A5504789BFD3
:10260000AD924A2AA9A492DB1DDDE3EEB1BF55527B
:102610004925955452492595543AD2F45649259561
:102620005452C9EDEC5B259554524925955472AB33
:10263000A4924A2AA9A4924A2A9D8E6CABA4924ADB
:102640002AA9A4924A47B65552492595545249257C
:10265000958E6CABA4924A2AA9A4D2916D9554523E
:102660004925955452E948D35B25955452492595FF
:10267000545249259554721BED564925955452499B
:1026800025954E87640000F4019C00A5000000A879
:102690000093009C0000000900E9009C0000000974
:1026A00000A5009C0000000900F7009C0000000944
:1026B00000A500A5000000A800E900A5000000A8F2
:1026C0000083009C0000000900D0009C000000096D
:1026D0000093009C0000000900E9009C0000000934
:1026E0000093009C00000009008B009C000000D0BB
:1026F0000701800102040810204080080B0002023C
:10270000020100090400000102020000052400107B
:102710000105240101010424020605240600010725
:1027200005810310004009040100020A00000007AF
:10273000050202400000070583024000000403096F
:102740000412010002EF0201404123368000010122
:1027500002030141726475696E6F204C4C43004165
:10276000726475696E6F204C656F6E6172646F0084
:102770002006640000001400270564000000140017
:1027800017046400000028004B02640000001400DD
:10279000DC036400000014008801640000002800CD
:1027A0000080E0061E0000000A00E0061E00008017
:1027B000B33411241FBECFEFDAE0DEBFCDBF11E08E
:1027C000A0E0B1E0EAE8FCE602C005900D92AE3A66
:1027D000B107D9F727E0AEEAB1E001C01D92AD3FE5
:1027E000B207E1F713E1C9EDD3E104C02197FE017F
:1027F0000E943836C83DD107C9F70E94F02F0C94CB
:1028000043360C9400002F923F924F925F926F924A
:102810007F928F929F92AF92BF92CF92DF92EF9270
:10282000FF920F931F93CF93DF93CDB7DEB76A97D5
:102830000FB6F894DEBF0FBECDBF8091D60190E0F9
:102840002091DF053091E005821B930B05962AE06D
:1028500030E0B9010E940135162F6C8B8091D701B1
:1028600090E04091E1055091E205841B950B05969F
:10287000B9010E9401357B016D8B8091B8018530D3
:1028800091F080918B0790918C076CE070E00E9432
:102890001535892B09F02CC49091AE0181E0892770
:1028A0008093AE0125C4812F0E94AC2A082FD090BE
:1028B0008D07C0908E07C094CD201092D801109241
:1028C000E3058091DD018B3021F01092D901109247
:1028D000E4056E2D812F0E94AC2A863081F580910F
:1028E000DA019091DB0149969093DB018093DA0144
:1028F00040E06E2D812F0E942D2C8091C6068823EA
:1029000019F081508093C6068091C606882329F06D
:102910008FE293E00E94A32312C0B12C8091C706DE
:10292000B816B0F7EB2DF0E0EE0FFF1FE753F94FAD
:1029300043E0618180810E942D2CB394EFCF909170
:10294000AF018D2D8C708C3061F59F5F9093AF013E
:102950009531B0F19D3390F09D3391F51092AF0118
:1029600083E884BD8FEF87BD81EF80938000109254
:10297000880010928A000E943A2F1FC320E430E0A2
:10298000A901491B5109CA01880F93E894BD9FEF23
:1029900097BD91EF909380001092880080938A00F9
:1029A0000FC0992369F083E884BD8FEF87BD81EF65
:1029B000809380001092880010928A001092AF01DC
:1029C0008C2D84709C2D9870C3FE2DC081112BC05E
:1029D0000E943025882309F454C08091D60190E0EC
:1029E0002091DF053091E005821B930B02966AE08F
:1029F00070E00E940135162FBB24BA94B60E6E2DDE
:102A00008B2D0E94AC2AA82ECC24C394CE0C6C2D06
:102A10008B2D0E94AC2A8130A1F58FEF8A0D823078
:102A200008F09BC22EC0882361F191112AC00E9438
:102A30003025882331F18091D60190E02091DF0587
:102A40003091E005821B930B02966AE070E00E94D1
:102A50000135162FBB24B394B60E6E2D8B2D0E941C
:102A6000AC2AA82ECC24C394CE0C6C2D8B2D0E94A6
:102A7000AC2A813031F48FEF8A0D823010F00C9443
:102A80007C1ED6FEC5C06E2D812F0E94AC2A982ECA
:102A90008091D60190E02091DF053091E005821B06
:102AA000930B6AE070E00E94013501E0892B19F078
:102AB00000E0812F02C081E0810F6E2D0E94AC2AC0
:102AC000382E882483948E0C002319F081E0810F26
:102AD00001C0812F682D0E94AC2A582E011103C01D
:102AE0008FEF810F01C0812F682D0E94AC2A482EE4
:102AF000832D0E94AC2F682E5701BB245FEFA51ACF
:102B0000B50AC12ED12CA501B601842D0E942B2A15
:102B1000782E0E9430259091DD019B3081F488232E
:102B200011F40C9466217110C0C064E0361619F0DF
:102B300096120C94662168E087E00C94E01E0E94D7
:102B4000662D882341F08DEF890D823010F00C94B2
:102B5000971E0C94831E002319F081E0810F01C0A1
:102B6000812F6E2D0E94AC2A682E002319F081E07F
:102B7000810F01C0812F682D0E94AC2A582E62E07F
:102B80006E0D002319F081E0810F01C0812F0E949A
:102B9000AC2A782E852D0E94AC2F582E862D0E94AF
:102BA000AC2F882311F40C94E31E552011F40C94DF
:102BB000E31E26019FEF491A590AA501B201872D8C
:102BC0000E942B2A882311F40C94D51E64E081E026
:102BD0000E9443251092DD018091E105AAE0EA9E62
:102BE000800D11248093D7018091D6018C3310F48D
:102BF00082E0C4C02091DF053091E00529363F4FC7
:102C000024F01092D8018EEFC5C087FFF1CF98C194
:102C1000D5FEC6C06E2D812F0E94AC2A982E209121
:102C2000D60130E08091DF059091E005F901E81BC5
:102C3000F90BCF016AE070E00E94013577247394AC
:102C4000892B19F0712C812F02C08FEF810F6E2D0F
:102C50000E94AC2A482E552453945E0C711003C078
:102C600081E0810F01C0812F652D0E94AC2A682E62
:102C7000842D0E94AC2F882E5701BB24FFEFAF1A82
:102C8000BF0AC12ED12CA501B601862D0E942B2A88
:102C9000082F0E9430259091DD019B30B1F48823EC
:102CA00011F40C946621002331F01092DD010E9492
:102CB0008B220C94782124E0421619F092120C9485
:102CC000662169EF86EF0C94541F0E94662D8823BD
:102CD00041F08DEF890D823010F00C94011F0C949F
:102CE0000B1F772019F08FEF810F01C0812F6E2D00
:102CF0000E94AC2A982E772019F08FEF810F01C027
:102D0000812F652D0E94AC2A082F62E06E0D77207E
:102D100019F08FEF810F01C0812F0E94AC2A182F6C
:102D2000802F0E94AC2F082F892D0E94AC2F882362
:102D300011F40C947821002311F40C94782141E0D3
:102D4000C41AD108A501B601812F0E942B2A88231D
:102D500011F40C94481F6FEF8CEF0E9443251092E2
:102D6000DD018091E1055AE0E59E800D11248093FC
:102D7000D7018091D6018D3320F08EEF8093D8015A
:102D8000DDC02091DF053091E00537FF06C01092CD
:102D9000D80182E08093E305D3C08111EECFD0C08B
:102DA000D7FE8CC08091D70190E02091E105309151
:102DB000E205821B930B08966AE070E00E940135E1
:102DC0006B01B62E0E943025F82E882319F06FEF84
:102DD0006C0D01C06C2D812F0E94AC2AE82EFF20C3
:102DE00019F0BB24B394BC0C6B2D812F0E94AC2A2C
:102DF0009091DD019530BCF097305CF09B3099F4F8
:102E0000043011F00C946C1FF1100C94681F0C949A
:102E10006C1FFF2071F1033009F08CC08FEF8E0D15
:102E2000823038F587C00E948B222091D60130E095
:102E30008091DF059091E005D901A81BB90BCD0168
:102E4000EAE0F0E0BF010E940135863020F09F01EA
:102E5000281B3109C90105970CF06EC0033009F039
:102E60006BC08FEF8E0D823008F466C085E08093D2
:102E7000DD018091DF053AE0139F800D11248093DE
:102E8000D6011092D8011092E3058091D7018831C4
:102E900030F08EEF8093D9011092E4058EC020911E
:102EA000E1053091E20537FF06C01092D90182E0BA
:102EB0008093E40582C08111ECCF7FC0D4FE43C073
:102EC0008091D70190E02091E1053091E205DC018D
:102ED000A21BB30BCD0108966AE070E00E94013599
:102EE0007B01D62E0E943025C82E81110C94731FB1
:102EF0006FEF6E0D812F0E94AC2AB82ECC2019F0F6
:102F0000DD24D394DE0C6D2D812F0E94AC2AD82EA7
:102F10008091DD018B3009F036C7043009F4D6C743
:102F2000CC2011F40C948C1F84EF8B0D843010F0A6
:102F30000C948C1F0E948B221092D8011092E305F2
:102F40001092D901A9CF8091D901823009F4B8CF6C
:102F50008091E4058E3F89F5B3CF43E0A41609F4D0
:102F600090CD84EF8093DD011092D8011092E3059B
:102F700047E06C2D8B2D0E942D2C9091870794316A
:102F800081F0E92FF0E09F01220F331FE20FF31FC2
:102F9000E55BF84FB082C1828CED82839F5F909396
:102FA000870780918D0780938E070E94C5248093A8
:102FB0008D0781E193E00E94A32380918B0780FD20
:102FC00060CC1092F606109204071092120710922D
:102FD000200710922E0710923C0755EF652E56E001
:102FE000752E80E097E098878F836DEF462E66E020
:102FF000562EA2E0B7E0BB87AA87EEEFF6E0FD878A
:10300000EC87D3018C9184FF55C012968D919C91D1
:1030100013976AE070E00E941535F62E6A8BF30173
:10302000848195816AE070E00E941535162F6B8BC4
:103030008F2D0E94AC2AD82E01E0010F602F8F2D1A
:103040000E94AC2AB82EF6E0DF1205C0D2018C91A6
:10305000882309F46EC7EF81F8858291F98BE88B9C
:103060008D3044F5D30112962D913C911397C901EF
:103070006AE070E00E941535892BE1F4F301848049
:103080009580C4016AE070E00E941535892B91F4A7
:10309000AF81B885EC90EE2009F46BC7D2018C911A
:1030A00081115EC7F20131971082EF81F88580812E
:1030B00081508083EEE06E0E711C2F813885225F77
:1030C0003F4F38872F833EE0430E511C4A855B8576
:1030D000425F5F4F5B874A878C859D850E969D87F3
:1030E0008C8799E4691697E0790609F08ACFC9CBF5
:1030F0008091B8018850833060F58091B801982F95
:103100009B7F933009F087C22091B701822F022E56
:10311000000C990B2195220F295C40E450E0481BDC
:10312000590B440FBC010E94022D4091B70160E889
:1031300080E00E94E92C8091B70146E3481B60E8DB
:1031400080E00E94E92CE090B70100E010E0F12C53
:10315000EFC1812C912C712CA12CB12CE12CC090B1
:10316000DF05D090E005CA0CDB1C0091E105109151
:10317000E205C60109968938910508F5080D191D63
:10318000C801099689349105D0F4672D8E2D0E94CF
:10319000AC2AF82E882339F0282F40ED52E2B801EE
:1031A000C6010E94B62329EF2F0D243040F4B80148
:1031B0006A5071094DE353E0C6010E94B623E394BF
:1031C000AAE0AA0EB11CBCE1EB12C9CF7394EAE0ED
:1031D0008E0E911CF0E17F12BFCF8091B801853037
:1031E00021F08091AE018823F1F08091DD01082F5C
:1031F000001F0027001F082E000C990B97FF03C02B
:10320000919581959109880F990BFC01E45EFE4F21
:10321000408151816091D70170E08091D60121E019
:1032200090E00E94D42A85EF482E86E0582E90E048
:10323000292E97E0392E2FEFC22E26E0D22E3BEF1B
:10324000632E36E0732E5201D5018C9184FFBFC0EE
:1032500012962D913C9113974091DF055091E00516
:1032600058874F834A01820E931E14968D919C912C
:103270001597E090E105F090E205E80EF91ED10106
:10328000EC914E2F50E04331510508F098C0FA01FF
:10329000EA5AFF4F0C943836F6018081082F001F40
:1032A0000027001F082E000C990B97FF03C0919573
:1032B00081959109880F990BFC01E45EFE4F4081D6
:1032C000518180C0F1E08F1A910879C02FEF821AE6
:1032D000920A75C032E0E31AF1089BC744E0E41A91
:1032E000F10807C056E0E51AF10893C768E0E61A4E
:1032F000F10800E047E653E065C0AAE0EA1AF108E9
:10330000FC013A97D5011596FC93EE931497D101E1
:103310001C92C9016AE070E00E941535462FCF016A
:103320006AE070E00E941535162F0FEF040F802F12
:10333000298F3A8F488F0E94AC2A782F51E0510F85
:10334000652F802F5E8B7F8B0E94AC2A082F488DC3
:103350004F5F612F842F488F0E94AC2A982F5E897F
:10336000652F488D842F9E8B0E94AC2A482FE091B8
:10337000D601F0E0AF81B885EA1BFB0B298D3A8DB1
:103380007F899E89E217F30764F4872F0E94982FA4
:10339000882309F438C7802F0E94A12F81112CC7E0
:1033A00032C7892F488F0E94982F488D882309F4AF
:1033B00023C7842F0E94A12F811125C71DC700E0BC
:1033C00049E853E021E0B701C4010E94D42ABEE0DD
:1033D000AB0EB11CEEE02E0E311CFEE0CF0ED11C68
:1033E0002EE0620E711C39E4A31637E0B30609F033
:1033F0002BCF8090D601912C8091DF059091E00534
:10340000881A990A6090D701712C8091E1059091FA
:10341000E205681A790AD2018C9184FF7FC0129666
:103420008D919C911397F401E81BF90B14962D9143
:103430003C911597A301421B530B9A01C090D701F1
:103440004C2D50E0421B530BE090D601473F6FEFED
:103450005607C4F42E2D30E02E1B3F0B2F3FAFEF4D
:103460003A070CF4DAC62C3731050CF0DEC6E394CB
:10347000EE1A8E2D09EAA02E03E0B02E4FED53E098
:1034800090E03AC045335105C4F02E2D30E02E1B9C
:103490003F0B2F3FBFEF3B070CF4CFC62C37310556
:1034A0000CF0D4C6E394EE1A8E2D1AE9A12E13E087
:1034B000B12E4EEC53E093E31FC0F12CEE1AFF0A3D
:1034C000ECEFEE16EFEFFE064CF49C2D921BBCEBDE
:1034D000AB2EB3E0BB2E45EF53E0B6C6FCE7EF16CC
:1034E000F104E4F09C2D921BA8EBAA2EA3E0BA2EC7
:1034F00040EF53E08CE702C08F3F81F0C92ED12C02
:10350000E82EF12C00E020E0B601C7010E94D42A89
:1035100021E0A501B601C7010E94D42A2EE0420E87
:10352000511C39E4431637E0530609F074CFE5CD5A
:1035300021E0A801B70188E897E00E94CD240E5F42
:103540001F4F02341105A1F78091B7010FE7081B47
:10355000E12CF12C10E021E0A701B80188E897E008
:103560000E94CD2442E0E40EF11C52E4E516F10481
:1035700091F78091B801833031F51091B701115066
:10358000EBE1EE2EF12CF0E4CF2ED12C17FD12C082
:10359000812F012E000C990B9701281B390B220F4C
:1035A0002F5FA601481B590B440FBC010E94022D3E
:1035B0001150ECCF8091B70181508093B7018F3FBC
:1035C00039F584E023C0D12C0BE110E070E4E72E44
:1035D000F12C8091B701D81694F48D2D0D2C000C90
:1035E000990B9801281B390B220F2F5FA701481B4D
:1035F000590B440FBC010E94022DD394EACF8F5F78
:103600008093B7018C3121F48091DE018093B80161
:10361000E12CF12C56C098EF980F9330C8F78A3000
:1036200049F400E021E045E554E069E170E08AE218
:1036300090E03AC0883029F400E021E044E254E010
:103640002FC01091C506812F64E60E942C36082FEA
:10365000282F41EC54E069E170E088E490E00E949A
:10366000B623812F64E6069F801911246AE00E9428
:103670002C36192F282F41EC54E069E170E08DE4DD
:1036800090E00E94B623212F41EC54E069E170E004
:1036900082E590E00E94B62300E021E04AE054E099
:1036A00069E170E08BE290E00E94D42A46E167E590
:1036B00089E20E94E92C40E267E589E20E94E92C58
:1036C000A7CF07E310E020E0A801B70188E897E062
:1036D0000E94CD240F5F1F4F00341105A1F78FEF1B
:1036E000E81AF80A90E8E916F10459F748E360E8A7
:1036F00080E00E94E92C8091DA019091DB01FE01CB
:10370000319626E0DF011D922A95E9F77F012AE034
:1037100030E046E04E0FB9010E9415358193CB0190
:103720004E13F9CF00E021E04BEE54E06AE370E085
:1037300080E090E00E94D42A06E310E0F701219196
:103740007F0141EC54E06AE370E0C8010E94B623B7
:10375000055011090831110589F7F090DC0100E0EE
:1037600021E04EEA54E06AE370E080E490E00E94D9
:10377000D42A1AE08F2D612F0E942C36092F282F72
:1037800041EC54E06AE370E082E590E00E94B623E9
:10379000202F41EC54E06AE370E087E590E00E945E
:1037A000B6238091B801853071F4F090C60600E030
:1037B00021E043E954E06AE370E080E690E00E9493
:1037C000D42A8F2D1DC0F090C50600E021E043E80B
:1037D00054E06AE370E080E690E00E94D42A64E658
:1037E00070E08F2D90E00E940135262F082F41ECCC
:1037F00054E06AE370E081E790E00E94B623802FF6
:10380000612F0E942C36192F282F41EC54E06AE3D7
:1038100070E086E790E00E94B623212F41EC54E04F
:103820006AE370E08BE790E00E94B6238091B801D4
:10383000853009F0DAC180918B0790918C0780FD6B
:103840001CC02091D80121110CC02091D901211157
:1038500008C02091E305211104C02091E405222332
:1038600061F02091DD01ECE0E20FEC3120F4F0E0BA
:10387000E25FFA4F24912093DD0183709927892B11
:1038800009F445C04091D8018091D601480F40937A
:10389000D6011091D9018091D701180F1093D7014B
:1038A0008091E305E091DF05F091E005E80FF11D5F
:1038B00087FDFA95F093E005E093DF058091E4053C
:1038C0002091E1053091E205280F311D87FD3A95E1
:1038D0003093E2052093E105812F90E0821B930B4A
:1038E00005962AE030E0B9010E940135062F842FA9
:1038F00090E08E1B9F0B0596B9010E940135862F23
:10390000602F0E94AC2A123008F056C020C0AFEFE2
:10391000B6E02C91CD010A97FC01808184FF11C093
:1039200011968C91119781110CC083EF820F833017
:1039300008F095C4ECE0E20FF0E0E25FFA4FE491AA
:10394000EC931E96F7E0A335BF0719F79BCF8330A2
:1039500099F51091C5061F5F8091DC018A3018F43B
:103960008F5F8093DC0186E08093B8011093C506D9
:10397000612F82EB90E00E949335193208F489C4DC
:1039800081EB90E00E948535843008F080C411E01E
:10399000180F612F81EB90E00E949335612F85EB2A
:1039A00090E00E9493350E94672C8EE08093DE01A8
:1039B0008AE295E00E94A32380918B0790918C0767
:1039C0007C0121E0E222FF2480FD76C005EF16E0B5
:1039D000D8018C9184FF50C0F701EB50F94F8681DC
:1039E00012966D917C911397680F711D87FD7A95E2
:1039F00013967C936E931297878114964D915C91E8
:103A00001597480F511D87FD5A9515965C934E9357
:103A100014972091D60130E08091DF059091E00568
:103A2000281B390B8091D701E091E105F091E20567
:103A30006901B2E0CB0ED11CDB011896CA16DB0679
:103A4000DCF4285F3F4F6E5F7F4F62177307A4F46B
:103A500090E08E1B9F0BBC016E5F7F4F9A01285F29
:103A60003F4F6217730744F408964E5F5F4F481745
:103A7000590714F40E943A2F025F1F4FEEE0EE0E3A
:103A8000F11CF4E5EF16F10409F0A2CF00E010E01C
:103A9000602F812F0E94AC2A99EF980F943030F458
:103AA00041E0480F602F812F0E942D2C1F5F1C3199
:103AB00079F70F5F003159F780918707882309F460
:103AC000FCC0F12C4DE0E42E80918707F81608F039
:103AD00075C00F2D10E06801CC0CDD1CF601E00F65
:103AE000F11FE55BF84F8281882309F462C08150A1
:103AF0008283803189F038F4813081F0883009F098
:103B000058C04FE052C0883129F0803209F051C0CE
:103B10004CE04BC04DE049C04EE047C0A091C80604
:103B2000B0E0AA0FBB1FA351B94F85EF96E020E08C
:103B300030E04F01BF016F5F7F4FFC01408144FFC8
:103B400019C0F4014081FAE04F9FA0011124FC014B
:103B5000A280B3804A155B0569F4FB014081FAE05D
:103B60004F9FA0011124FC01A480B5804A155B057C
:103B700009F491C30E96225F3F4F24353105E9F6D3
:103B8000F601E00FF11FE55BF84F80812C8982136D
:103B900006C081813D89831302C00E943A2F0C0D1B
:103BA0001D1DF801E55BF84F41E0618180810E94B5
:103BB0002D2CF39489CF882309F47FC080914D0781
:103BC000813009F07AC08091870781508093870700
:103BD000EBE4F7E090E0981770F72381348145819A
:103BE0002193319341939F5FF6CF20918D07909160
:103BF0008E0790959223843009F03FC08091B001E8
:103C000022FF32C08E3268F48932D0F083E884BD5E
:103C10008FEF87BD81EF8093800080E480938800E0
:103C20000BC0833388F483E884BD8FEF87BD81EFB9
:103C3000809380001092880010928A008091B001D9
:103C40008F5F8093B00139C08091C50697FF04C093
:103C5000883210F48F5F05C094FF2FC0823068F166
:103C600081508093C50629C0882349F0833348F0EA
:103C7000883218F082E08093B8011092B001992345
:103C8000E1F08091B8018B3048F4893050F48730EE
:103C900051F0883059F41092B8010FC08E3069F09D
:103CA00005C082E008C08091DE0105C010928E0739
:103CB00010928D0785E08093B8018091AF0181114A
:103CC00019C38091B001811115C38091C60681117D
:103CD00006C09091B801953019F480E201C080E0EF
:103CE00093E894BD809587BD81EF8093800010920A
:103CF000880010928A00FEC253E0A51611F40C94BD
:103D000041158CE02FC9662009F4F2C2772019F022
:103D100064E081E005C084E0981206C06AE087E0B4
:103D20000E9443250C94EC1566E085E0F9CF002352
:103D300041F0A501B601842D0E94512A81117FC056
:103D4000C7C2662051F0A501B6016F5F7F4F852D78
:103D50000E942B2A8111DCCF02C07110C1C2B601B2
:103D60006F5F7F4FA501852D0E94512A8111D0CF11
:103D70001092D8011092E305882309F4E1C88BE082
:103D80008093DD010FC043E0D412B0C08091DF0505
:103D90005AE0159F800D11248093D6016BEF8AEFB6
:103DA0000E9443250E944C2508C9002371F0A501FB
:103DB000B201872D0E94512A8823D1F266E085E066
:103DC0000E9443251AC0011193C2682D812F0E94C1
:103DD000AC2A182F892D0E94AC2F882309F488C2A1
:103DE000B6016F5F7F4FA501812F0E94512A882362
:103DF00009F4BECF8BE08093DD010E948B220C94EE
:103E0000EC15772021F1A501B601862D0E94512ADB
:103E1000811115C060C2882009F46AC2002319F01C
:103E20006FEF8CEF05C034E0931206C069EF86EFA8
:103E30000E9443250C94B11666E085E0F9CF8BE033
:103E40008093DD018FEB91E00E94A3233FC2882085
:103E500009F449C2652D812F0E94AC2A182F892DA3
:103E60000E94AC2F882349F0A501B6016150710969
:103E7000812F0E942B2A8111D3CFB6016150710985
:103E8000A501812F0E94512A882309F471CFC8CF40
:103E9000772069F0A501B601812F0E94512A88235D
:103EA00009F466CF66E085E00E9443250BC0A501BA
:103EB000B601812F0E94512A882309F459CF8BE043
:103EC0008093DD010E948B220C94B116CC2021F14D
:103ED00087E08093DD012EC8A60155274F5F5F4F15
:103EE000612F70E020C06E2D0C947A178D2D0E94EA
:103EF000AC2F811103C01092DD011CC8D11003C08A
:103F00008BE08093DD018091DF056AE0169F800DD4
:103F100011248093D60146CFA70155274F5F5F4FED
:103F2000612F70E08D2D0E942B2A882309F43ACF4F
:103F3000E2CF0E9477350E9477352AE030E040E0FA
:103F400050E00E94C935DC01CB014496A11DB11D92
:103F5000F201808340E0612F8F2D0E942D2C7BC8C1
:103F60001150612F8F2D0E94AC2A882309F43BC188
:103F700099C86FEF610F8F2D298F3A8F0E94AC2A5D
:103F80008E87612FCC24C394CF0C8C2D0E94AC2A39
:103F90008987602F8C2D0E94AC2A8F87602F0FEFAE
:103FA0000F0D802F0E94AC2A382E612F802F0E9487
:103FB000AC2A282E4091D6018091DF059091E00532
:103FC000841B9109298D3A8D280F391F4091D70103
:103FD0008091E1059091E205841B9109880D991D5E
:103FE000AC85BD854C914423F9F01F922F923F92EE
:103FF0008B2CAF84C984EE840D2DEA85FB8520814E
:10400000412F6F2DC3010E94CF2DAC85BD859C91A2
:1040100091509C930F900F900F9081114BC8EA859F
:10402000FB853197308161C037FF1EC01816190615
:104030005CF431952195310982179307C4F1281753
:104040003907BCF132E046C00097A9F131952195BE
:1040500031099195819591092817390774F18217D3
:1040600093076CF136E036C021153105C1F0181602
:10407000190644F48217930724F1281739071CF115
:104080003EE028C0009709F1919581959109281784
:104090003907ECF082179307E4F03AE01BC0392FA0
:1040A000331F3327331F330F330F330F13C033E066
:1040B00011C031E00FC034E00DC037E00BC035E077
:1040C00009C03DE007C03FE005C03CE003C039E067
:1040D00001C03BE0EDEFE30FEC3020F4F0E0E05FF7
:1040E000FE4FE080EA85FB85E082D2018C91882337
:1040F00091F09FEF9B0D923070F4D1100CC0815065
:10410000F2018083811107C046E0612F8F2D3A8F25
:104110000E942D2C3A8DF1E0FF932F923F928B2C31
:10412000AF84C984EE840D2D232F412F6F2DC30141
:104130003A8F0E94CF2D0F900F900F903A8D8111E2
:104140000C945A18132F48E0F42E332311F03150F9
:1041500001C03FE021E02F932F923F928B2CAF8440
:10416000C984EE840D2D232F4B896A89C3013A8FB0
:104170000E94CF2D0F900F900F903A8D882341F021
:10418000A889B9898C918B3011F00C945A181FC0F2
:104190001F3011F01F5F01C010E0B1E0BF932F92FC
:1041A0003F928B2CAF84C984EE840D2D212F4B8937
:1041B0006A89C3013A8F0E94CF2D0F900F900F9004
:1041C0003A8D8111DDCFFA94F110BFCFD9CF8B2D6D
:1041D0000E94A12F882311F40C945A18F2013197F0
:1041E00010820C945A18F201108246E0612F8F2D34
:1041F0000E942D2C0C945218EFEFD601EC93EEEFA9
:10420000D301EC9306C081E0D6018C9322E0F30148
:10421000208300E048E753E0D5C831EBA32E33E01C
:10422000B32E48EE53E090E00FC027ECA22E23E01F
:10423000B22E42E054E090E010C092EAA92E93E042
:10424000B92E47ED53E092E380E058C980ECA82EE8
:1042500083E0B82E4AEF53E092E38BE74FC9CD01DC
:104260000497FC018081811107C0CD010397FC01F7
:104270008081882309F465CB8CE0820F8C3128F48F
:10428000E82FF0E0E25FFA4F24912C935ACB8FE0B5
:104290008DCB89E08BCBAC9011964C9111975AE065
:1042A000A59E50011124FC01B382A282FAE04F9F27
:1042B000A0011124FC0155834483A9014B50594F9F
:1042C000FA01E28613861682178254CC81E050CD23
:1042D00061101ECD03C08110A3CD08C0772041F02E
:1042E0001092DD0105C00111FBCFB4CD0111F8CF53
:1042F00080E03ECD6A960FB6F894DEBF0FBECDBF0C
:10430000DF91CF911F910F91FF90EF90DF90CF90B1
:10431000BF90AF909F908F907F906F905F904F90E5
:104320003F902F900895CF92DF92EF92FF920F93DC
:104330001F93CF93DF936C017A018B01C0E0D0E033
:10434000CE15DF0589F0D8016D918D01D601ED9173
:10435000FC910190F081E02DC6010995892B11F4A3
:104360007E0102C02196ECCFC701DF91CF911F9152
:104370000F91FF90EF90DF90CF9008958091C00152
:10438000E091BE01F091BF01882349F0CF01029670
:104390009093BF018093BE01859194910895CF01C0
:1043A00002969093BF018093BE0180819181089510
:1043B0008091B10108950895089580E090E00895F6
:1043C0000E943E363FB7F8948091C8019091C90190
:1043D000A091CA01B091CB0126B5A89B05C02F3F83
:1043E00019F00196A11DB11D3FBFBA2FA92F982F1B
:1043F0008827820F911DA11DB11DBC01CD0142E096
:10440000660F771F881F991F4A95D1F708958F92DD
:104410009F92AF92BF92CF92DF92EF92FF926B0189
:104420007C010E94E2214B015C01C114D104E10432
:10443000F104F1F00E94E221DC01CB018819990915
:10444000AA09BB09883E9340A105B10570F321E09C
:10445000C21AD108E108F10888EE880E83E0981EA0
:10446000A11CB11CC114D104E104F10419F7DDCF82
:10447000FF90EF90DF90CF90BF90AF909F908F9084
:1044800008951F920F920FB60F9211242F933F930E
:104490008F939F93AF93BF938091B2019091B3019B
:1044A000A091B401B091B5013091C70123E0230F71
:1044B0002D3720F40196A11DB11D05C026E8230F5C
:1044C0000296A11DB11D2093C7018093B201909364
:1044D000B301A093B401B093B5018091C80190914C
:1044E000C901A091CA01B091CB010196A11DB11DD6
:1044F0008093C8019093C901A093CA01B093CB01E6
:10450000BF91AF919F918F913F912F910F900FBECF
:104510000F901F901895E1E7F0E080818D7F8083F8
:1045200010929100469847981092B6010895CF9244
:10453000DF92EF92FF920F931F93CF93DF930E942E
:10454000BE21811520E8920751F4DF91CF911F9190
:104550000F91FF90EF90DF90CF900C948B2221E091
:104560002093B601813020E8920751F48091BC017C
:104570009091BD019093BF018093BE010E94BE2126
:1045800097FD05C02091BB01222309F440C0209172
:10459000BA0121113CC021E02093C101EC01DF7779
:1045A000209769F481E08093C20146983FE9C32EC9
:1045B0003FE0D32EE12CF12CCAEFD0E014C08E01E5
:1045C00020E030E060E472E48FE090E0A90198011F
:1045D0000E94C93569017A0181E0C81AD108E10851
:1045E000F1081092C201E0914907F0914A0709953C
:1045F000811103C081E08093C2018091C1018823B1
:1046000009F43FC08091C20181113BC003C01092E8
:10461000C101C4CF469935C0479A0E94BE21009778
:1046200071F09C01DE010E941D36DC01CB0129E006
:10463000B595A795979587952A95D1F703C08FEFE4
:104640009FEFDC01109290002AE020939100D0921D
:104650009900C09298008093C3019093C401A093E5
:10466000C501B093C6018091710082608093710092
:10467000DF91CF911F910F91FF90EF90DF90CF903E
:1046800008954798CACF1F920F920FB60F92112428
:104690002F933F934F935F936F937F938F939F934A
:1046A000AF93BF93EF93FF938091C3019091C401A7
:1046B000A091C501B091C601892B8A2B8B2B81F16A
:1046C0008091C20181110BC098B180E4892788B91B
:1046D0008091C101882319F088B1805888B98091F0
:1046E000C3019091C401A091C501B091C6011816F3
:1046F00019061A061B06B4F48091C3019091C401F7
:10470000A091C501B091C6010197A109B10980939B
:10471000C3019093C401A093C501B093C60102C028
:104720000E949722FF91EF91BF91AF919F918F913E
:104730007F916F915F914F913F912F910F900FBE9D
:104740000F901F9018959C01E1E7F0E090819D7F0C
:10475000908381E08093C0013093BF012093BE011C
:104760003093BD012093BC010C9497224F925F922D
:104770007F928F929F92AF92BF92CF92DF92EF92F1
:10478000FF920F931F93CF93DF9300D000D0CDB74C
:10479000DEB7DC014115510509F4DEC0FA01D49001
:1047A000319694914E5F5F4F4D2C512C2223E9F0AE
:1047B000E92FE695E695E695EE2EF12CE1E0F0E0A6
:1047C000892F877011F4E0E0F0E0EE0DFF1D4E9EA2
:1047D00070014F9EF00C5E9EF00C11242E9DF00196
:1047E0002F9DF00D11244E0F5F1F5D01A40CB51C11
:1047F0001A141B040CF0B0C0A038B1050CF0ACC00A
:104800009B01290F311D121613060CF0A5C0603450
:1048100071050CF0A1C04115510509F49DC0F62F9A
:10482000F770EF2E9B0177FF02C0295F3F4F83E0B7
:10483000359527958A95E1F7F22F77FF04C0EE2092
:1048400011F0FFEFF20FB7FF05C0662777276A1B4D
:104850007B0B02C060E070E000E8A016B10424F019
:1048600080E8F82EFA1A01C0FD2CF61A2F2F0F2E11
:10487000000C330BFF3F1CF4C22EC09401C0C12CAE
:10488000E1E0892F877009F4E0E09695969596957A
:104890009E0F290F311D2930310514F098E09F1B20
:1048A0008C2D8F0F9D01182F00E81003200D311D56
:1048B0001124260F371FCD9C600D711D1124640F2C
:1048C000751F41E050E00E2C02C0440F551F0A94A2
:1048D000E2F7EFEFE49FD001E59FB00D1124A09522
:1048E000B095BC83AB837C809F0F8917A9F1F90138
:1048F000E152FE4F6F01A12CB12CAF1438F5FB0132
:10490000EA0DFB1DE491E49F4001E59F900C11240A
:104910009A82898287FD07C0F6011081E12FEA2380
:104920008E2AF6018082EE2051F0873044F4F601A1
:10493000E058FF4F908097208A8098289082FFEF60
:10494000AF1ABF0A0FEFC01AD00AD7CF8F5F640D1E
:10495000751D20583F4FC9CF0F900F900F900F90AB
:10496000DF91CF911F910F91FF90EF90DF90CF904B
:10497000BF90AF909F908F907F905F904F900895E1
:10498000BC0180E090E00C9407228FB18095807F7D
:10499000669B88601C9B8460089560387105D0F424
:1049A00040345105B8F4E3EFF6E280E1849FD00192
:1049B000A0781124A60F4770E40FF11D8491A15235
:1049C000BE4F222319F06C91862B03C080956C9109
:1049D00086238C9308951F93CF93DF93DC0120E00F
:1049E00030E040E050E011E0C1E0D0E026173707AA
:1049F00091F114968C911497811115C014961C9303
:104A0000149712968D919C911397ED91FC911197AB
:104A1000E80FF91FE4911596EC93159701961396FC
:104A20009C938E93129714969C91149715968C9143
:104A30001597892349F0FE01022E02C0EE0FFF1FD9
:104A40000A94E2F74E2B5F2B990F14969C931497C0
:104A50002F5F3F4FCBCFCA01DF91CF911F910895B8
:104A60008091D70190E02091E1053091E205821B11
:104A7000930B6AE070E00E9401359C0181E0232BDA
:104A800009F080E008959091DD01981714F06917FE
:104A900014F48093DD0108951092D8011092E3057B
:104AA00082E08093D9011092E4058091D70187318B
:104AB00060F08091E1059091E20589399F4F2CF0DB
:104AC0001092D9018EEF8093E4050895FC012285B0
:104AD000261714F0421714F4FC0162870895BF9260
:104AE000CF92DF92EF92FF920F931F93CF93DF93BA
:104AF000FC0166834783842F880F880F840F30E181
:104B00008302C0011124962F990F990F960F9F7061
:104B1000892B818367FF02C08CE003C0662311F0FC
:104B200084E0848747FF02C0148604C0442311F048
:104B300088E08487222309F44CC08185811149C013
:104B4000EF018485811135C01D868A819B812AE011
:104B500030E0B9010E941535162F8C819D81B90175
:104B60000E94153500E0FF24FA94F60ECC24CA9476
:104B7000C10EBB24B394B10EDF2CD01A6D2D812F42
:104B80000E94AC2A833099F46D2D8C2D0E94AC2AA2
:104B9000E82E6D2D8B2D0E94AC2A982F0F5F2DEFE4
:104BA0002E0D223020F08DEF890F823060F40987BE
:104BB00010C00E94773526E030E040E050E00E94CF
:104BC000C935698706C09111D7CF91509330A0F6AF
:104BD000EECFDF91CF911F910F91FF90EF90DF907B
:104BE000CF90BF900895CF93DF931F92CDB7DEB7DC
:104BF0006983DC01ED91FC910280F381E02D41E0BD
:104C000050E0BE016F5F7F4F09950F90DF91CF910C
:104C1000089583E08093E9008091F200882319F0E1
:104C20008AE38093E8000895FC018485958597FDCB
:104C30000BC09FB7F89482E08093E9008091F20066
:104C40009FBF90E0019608959FB7F89482E080930B
:104C5000E9008091F2009FBF90E008958F929F92AB
:104C6000AF92BF92CF92DF92EF92FF920F931F937A
:104C7000CF93DF935C016B017A0180910B01882354
:104C800009F45BC08091D501882309F456C0809156
:104C9000D20180FF05C08091E00082608093E00037
:104CA000E70110E00AEF83E0882E9AE3992E20971F
:104CB000D9F10E94AA2D81110AC0015009F43DC00A
:104CC00061E070E080E090E00E940722F0CF282FA2
:104CD00030E0C217D3070CF48C2F4FB7F8948092B2
:104CE000E9009091E80095FF1DC0282F30E0C21B1D
:104CF000D30BF601982F915020F081918093F10011
:104D0000FACFC20ED31E112319F09092E80009C009
:104D10008091E80085FD06C09092E80011E02097A0
:104D200009F010E04FBFC3CF1111C3CF5D9884E6E7
:104D30008093D3011E141F0444F081E090E0F5013C
:104D40009383828380E090E001C0C701DF91CF911F
:104D50001F910F91FF90EF90DF90CF90BF90AF9099
:104D60009F908F9008950E94AA2D90E008950F9330
:104D70001F93CF93DF931F92CDB7DEB78C01FC0159
:104D80008485958597FF0EC0CE0101960E94802DE7
:104D9000019719F4298130E002C02FEF3FEFF801AD
:104DA00035872487F801848595850F90DF91CF9111
:104DB0001F910F910895CF93DF931F92CDB7DEB768
:104DC000FC018485958597FD05C02FEF3FEF358762
:104DD00024870BC0CE0101960E94802D019719F403
:104DE000898190E002C08FEF9FEF0F90DF91CF910C
:104DF0000895DF92EF92FF920F931F93CF93DF936B
:104E0000D82E8A017B01E40EF51EEB01CE15DF05DD
:104E100071F0D7FE03C0FE01849101C088810E9419
:104E2000B52F21968111F2CF8FEF9FEF01C0C801FE
:104E3000DF91CF911F910F91FF90EF90DF90089538
:104E40000F931F93CF93DF931F92CDB7DEB782E00E
:104E5000898342E450E06BEF76E280E80E94F92615
:104E60000E94BB2DDC0112960D911C911397011528
:104E7000110569F0D801ED91FC910280F381E02DDC
:104E8000BE016F5F7F4FC801099597FF07C08981F9
:104E90000F90DF91CF911F910F910895F801008538
:104EA0001185E5CF1F920F920FB60F9211248F93A9
:104EB0009F938091E1009091E100937F9093E100B6
:104EC00083FF0FC01092E90091E09093EB001092E5
:104ED000EC0092E39093ED001092D50198E090934E
:104EE000F00082FF20C093E09093E9009091F200DF
:104EF000992319F09AE39093E8009091D3019923B4
:104F000039F09091D30191509093D301992389F175
:104F10009091D401992339F09091D40191509093BC
:104F2000D401992341F184FF10C08091E2008E7E6C
:104F300081608093E2008091E1008F7E8093E100A8
:104F40008091D2018E7E806111C080FF16C0809159
:104F5000E2008E7E80618093E2008091E1008E7E8F
:104F60008093E1008091D2018E7E81608093D20196
:104F700004C05D9ACDCF289AD6CF9F918F910F9084
:104F80000FBE0F901F9018951F920F920FB60F92A1
:104F90001124CF92DF92EF92FF920F931F932F93E2
:104FA0003F934F935F936F937F938F939F93AF93B1
:104FB000BF93EF93FF93CF93DF93CDB7DEB76C979B
:104FC000DEBFCDBF1092E9008091E80083FFEDC104
:104FD00068E0CE0145960E94E32F82EF8093E800BF
:104FE0008D8987FF05C09091E80090FFFCCF03C03A
:104FF0009EEF9093E800982F907609F0C6C09E89A6
:105000002F89188D91110CC0803829F48091D1011D
:105010008093F10002C01092F1001092F10048C19B
:10502000422F50E0512B913051F4811141C1413058
:10503000510509F03DC18091D1018D7F0BC09330A6
:1050400061F4811135C14130510509F031C18091C0
:10505000D10182608093D1012BC1953041F48091C0
:10506000E80080FFFCCF20682093E30021C1963048
:1050700009F05FC0EB8CFC8C1092E9001092CF011C
:105080001092CE01123091F51092CD011092CC0108
:105090000E94202799E0BE016F5F7F4FDB01E92F5F
:1050A0001D92EA95E9F799831A8391E09E8390EA2D
:1050B00098879AEF99872091CE013091CF01275F91
:1050C0003F4F3C832B838D831092E9001092CF01D8
:1050D0001092CE01F092CD01E092CC0149E050E077
:1050E00080E00E94F9260E942027E2C0F092CD01C4
:1050F000E092CC010E94BB2DDC011296ED90FC9059
:105100001397E114F10409F4C0C0D701ED91FC91AB
:105110000480F581E02DBE016B5E7F4FC7010995CC
:10512000009719F00CF0C4C0C7C0F701E084F18407
:10513000E8CF973009F4C0C0983021F481E0809323
:10514000F100B6C0993009F0B3C0837009F0B4C063
:10515000EFE8F1E081E021E036E39081992361F00E
:105160008093E9002093EB0091919093EC003093B1
:10517000ED008F5F873089F78EE78093EA00109209
:10518000EA008F898093D50193C08B8D9C8D1092FE
:10519000E9001092CF011092CE019093CD0180933F
:1051A000CC01898D811156C08E899D89913A59F41F
:1051B000813209F081C047E050E064E071E080E0B6
:1051C0000E94F92675C0913209F076C0833289F4C5
:1051D000888D90E0982F88272F89822BA0E0B0E05F
:1051E0008093000190930101A0930201B093030109
:1051F0005FC0803269F48091E80082FFFCCF67E0F5
:1052000084E091E00E94E32F8BEF8093E80006C0DA
:10521000823209F04DC08F8980930B018091D001BB
:10522000882319F0EEEFFAE002C0E0E0F8E08091A8
:10523000040190910501A0910601B0910701803B06
:105240009440A105B10509F07BC080910B0180FF5E
:1052500093C076C00E94BB2DDC0112960D911C916B
:1052600013970115110541F1D801ED91FC910190C1
:10527000F081E02DBE016B5E7F4FC8010995811161
:1052800017C0F80100851185ECCF113009F44EC02C
:10529000133091F48F89882309F445C0823081F45A
:1052A00040E860E18FE597E20E947634882321F0A0
:1052B0008EEF8093E80079C081E28093EB0075C0A7
:1052C000813029F440E86BE083E597E2EDCF83304D
:1052D00099F70E94BB2DDC011296ED90FC9013977C
:1052E0008E010F5F1F4F6801E114F10479F0D701BF
:1052F000ED91FC910680F781E02DB801C701099579
:10530000080F111DF701E084F184EECFD8011C9243
:10531000F60101900020E9F73197BF016C197D0972
:1053200040E0C601C1CF6DE377E202C061E477E2FD
:105330006115710509F2FB01449150E080E840CF0E
:105340000FB6F894A8958091600088618093600002
:10535000109260000FBEA895EE3F2AE0F20739F0E8
:105360008091FE0A9091FF0A91838083A1CF1092D1
:10537000FF0A1092FE0A9CCFEE3F8AE0F80731F058
:10538000808191819093FF0A8093FE0A87E797E7D7
:10539000918380839BE088E10FB6F894A895809371
:1053A00060000FBE9093600083CF6C960FB6F894A8
:1053B000DEBF0FBECDBFDF91CF91FF91EF91BF91C7
:1053C000AF919F918F917F916F915F914F913F919D
:1053D0002F911F910F91FF90EF90DF90CF900F9042
:1053E0000FBE0F901F9018959C01240F311D1216AF
:1053F000130684F5803891056CF5FC0197FF02C017
:10540000E0E0F0E02138310514F020E830E02E1B18
:10541000AB014770552781E090E001C0880F4A95A5
:10542000EAF7809577FF02C0695F7F4F93E075953B
:1054300067959A95E1F77695762F66277795679524
:10544000E60FF71FE152FE4F215020F09081982384
:105450009193FACF08958150833008F18AE0869FB6
:105460009001879F300D1124849FB001859F700D9E
:105470001124E5EFF6E0808184FF0AC082819381E8
:105480008217930729F4848195818617970739F04D
:105490003E9687E0E934F80771F780E0089581E0EF
:1054A0000895873028F4843038F5882329F126C000
:1054B000803120F58AE0869F9001879F300D11246E
:1054C000849FB001859F700D1124E5EFF6E0808187
:1054D00084FF0DC082858B3051F4828193818217C5
:1054E000930729F4848195818617970739F03E96B2
:1054F00087E0E934F80759F781E0089580E00895DE
:10550000853031F118F4882319F124C08750883090
:1055100008F58AE0869F9001879F300D1124849FB3
:10552000B001859F700D1124E5EFF6E0808184FFC6
:105530000AC0828193818217930729F4848195811F
:105540008617970739F03E9687E0E934F80771F738
:1055500081E0089580E008958C3100F56F3F01F1FE
:10556000603100F570E0982F969520E180FD0BC02A
:10557000929FC001112481529A4FFC01E60FF71F40
:105580008681829509C0929FC001112481529A4F51
:10559000FC01E60FF71F86818F70089581E0089562
:1055A00080E0089582E008952F923F924F925F929B
:1055B0006F927F928F929F92AF92BF92CF92DF9223
:1055C000EF92FF920F931F93CF93DF93CDB7DEB788
:1055D00061970FB6F894DEBF0FBECDBF4C017B01C3
:1055E0002A875A8349831C821B821D821E8268E09F
:1055F00070E0CE0101960E94EB243C01AC014F5FAC
:105600005F4F5987488768E070E0CE0101960E949D
:10561000EB246C0161E070E0CE0101960E94EB2466
:1056200028853985280D391D37FDFEC050E88516BF
:1056300091040CF0F9C096012F5F3F4FA701420F74
:10564000531F57FDF1C060E4E616F1040CF0ECC006
:105650006701F7FE04C0CC24DD24CE18DF0877E014
:10566000C722DD24A701F7FE02C0495F5F4F2A0170
:1056700053E0559447945A95E1F7F7FE09C091E03D
:10568000491A510848E050E0FA01EC19FD096F0190
:10569000A90137FF02C0495F5F4F1A0143E035940B
:1056A00027944A95E1F727703327232B19F0FFEF52
:1056B0002F1A3F0A002311F0730102C0E12CF12CD4
:1056C0008F8321E010E0A12CB12C88E090E0AC01A8
:1056D0004C195D095C874B87A214B3040CF0A4C07D
:1056E00041E050E061E070E0CE0101962F874D87E8
:1056F0005E870E94EB242F854D855E85892B19F4EA
:105700004E5F5F4FEFCFBA01CE0101960E94EB24AE
:10571000DC01119640E050E02F854A175B0708F046
:105720007AC06F816111122B220F09F071C0C20182
:105730008A0D9B1D9C012F5F3F4F2930310508F0DA
:105740004AC09701280D391D2038310508F043C0A3
:10575000BC017695762F662777956795680D791D3C
:105760006E0D7F1D8F3FEFEF9E0709F459C0212F6B
:1057700030E0F9010C2C02C0EE0FFF1F0A94E2F793
:10578000F98BE88BFB01E152FE4F2A85222321F0A1
:1057900030812889232B04C0288920953081232338
:1057A0002083C114D104B9F00797A9F0812F90E0AC
:1057B0000B8402C0959587950A94E2F7FB01E15AA4
:1057C000FD4F2A85222319F01081812B03C080957B
:1057D000108181238083011110C06FEFE61AF60A51
:1057E00088859985E816F9068CF09FEFA91AB90A01
:1057F00021E010E0E12CF12C0BC0E1E0EE1AF10801
:10580000F7FE04C0FFEFAF1ABF0A730121E010E0FA
:105810004F5F5F4F82CF4F8151E045274F835CCF71
:10582000C114D10419F6D7CF61960FB6F894DEBF34
:105830000FBECDBFDF91CF911F910F91FF90EF90E1
:10584000DF90CF90BF90AF909F908F907F906F90A0
:105850005F904F903F902F900895E82FE695262F68
:1058600030E080FD0FC080E1E89FF0011124E1529B
:10587000FA4FE20FF31F86818F7090E1499FA001DC
:1058800011240AC080E1E89FF0011124E152FA4F8F
:10589000E20FF31F8681807F482B46830895CF93C4
:1058A000DF9382EB90E00E9485358093C50683EB01
:1058B00090E00E948535C6EDD1E08E8384EB90E0C8
:1058C0000E948D359D838C83DF91CF9108951F9326
:1058D000CF93DF93C091C5066C2F82EB90E00E94BE
:1058E00093356C2F86EB90E00E949335C6EDD1E0A6
:1058F0001E81612F83EB90E00E949335612F87EB2F
:1059000090E00E9493350C80DD81C02DBE0184EBB8
:1059100090E00E94A535BE0188EB90E0DF91CF9129
:105920001F910C94A535CF92DF92EF92FF920F93C7
:105930001F93CF93DF93EC01E5EFF6E0062E000C0A
:10594000770B042E000C550B808184FF20C08F70D4
:1059500098819F708917D9F09181892F8F70A281CA
:10596000B381A80FB11D048115812A813B81260FC7
:10597000371FEC80FD806D018AE0C80ED11C2C150C
:105980003D052CF4265F3F4FA217B3073CF03E962F
:1059900087E0E934F807C1F680E012C092959F7065
:1059A000090F111D9701240F351FC8010A962817EA
:1059B00039076CF7265F3F4F0217130744F781E062
:1059C000DF91CF911F910F91FF90EF90DF90CF90DB
:1059D00008950F931F93CF93DF93C82FD62F042FD3
:1059E00010E0DC1750F06C2F70E021E0A80188E88F
:1059F00097E00E94CD24CE5FF4CFDF91CF911F912D
:105A00000F9108956F927F929F92AF92BF92CF9223
:105A1000DF92EF92FF920F931F93CF93DF931F922A
:105A2000CDB7DEB78C013B01942E6034710528F4AC
:105A3000C80129830E94F42929815301A20EB11CB7
:105A4000B501615071096034710520F4492DC80118
:105A50000E94F42977FE02C0612C712C730165014C
:105A600081E4A816B1041CF080E4C82ED12CEC14FB
:105A7000FD045CF420E0A701B80188E897E00E94EB
:105A8000CD248FEFE81AF80AEACF090D111D015055
:105A900011096C147D045CF420E0A301B80188E8CE
:105AA00097E00E94CD248FEF681A780AF2CF0F900A
:105AB000DF91CF911F910F91FF90EF90DF90CF90EA
:105AC000BF90AF909F907F906F9008958091D70185
:105AD00090E02091E1053091E205821B930B2AE0D2
