:100000000C94AA140C94D2140C94D2140C94D21400
:100010000C94D2140C94D2140C94D2140C94D214C8
:100020000C94D2140C94D2140C945B280C94CD280C
:100030000C94D2140C94D2140C94D2140C94D214A8
:100040000C94D2140C94D2140C94D2140C94D21498
:100050000C94D2140C94D2140C94D2140C9411233A
:100060000C94D2140C94D2140C94D2140C94D21478
:100070000C94D2140C94D2140C94D2140C94D21468
:100080000C9413240C94D2140C94D2140C94D21407
:100090000C94D2140C94D2140C94D2140C94D21448
:1000A0000C94D2140C94D2140C94D2141D1A4E1A1F
:1000B0004E1A471A471A431A431A3F1A3F1A3B1A55
:1000C0003B1A331A331A371A371A331A331A371AB4
:1000D000371A243398333F353F353F3537353F3571
:1000E0003F353D353F354235423542356135262F66
:1000F000262F262F472F472F472FA12FA12FA12F84
:10010000A12FA12FD62FD62FD62F262F262F090F7E
:10011000E8D2D9ED76BB4EC7B7DD6EB7DBED7636EC
:10012000090FE8D3E974FCDBED76BBDD6E670309EC
:100130000F109BCE6EB7DB753A36090FB8B2E914D3
:100140005FD7ABCF85A2ED6CDB5901090FBC92EEF6
:1001500055A9A4D2AAAD53E4E9E8B6B303090FF850
:10016000B6CAF55FB9B5EBD436EEED6CDB590109D3
:100170000F38B39FEAB397770A4BDBD9B6B30209BE
:100180000FBC924EA5FAECE554CEC9D9D3F9EC36A2
:100190007A090FB8B29F6AA2745FBB8E773B7B3A35
:1001A0005A090F38972ACA6B998E39BD1D5B090F02
:1001B0005CA73EF54D96DBF5B950B79D1D20064B6B
:1001C000000000190075054B000000190027054BC1
:1001D000000000190097044B000000190017044BA1
:1001E0000000001900B8074B0000001900E0064BA2
:1001F000000000190010034B0000001900BA024B68
:10020000000000190093024B00000019004B024B44
:1002100000000019000B024B0000001900DC034B2A
:10022000000000190070034B000000190088014B0A
:1002300000000019005D014B00000019004A014B4D
:10024000000000190026014B000000190006014BB8
:100250000000001900EE014B0000001900B8014B2E
:100260000000001900C4004B0000001900AF004B53
:100270000000001900A5004B000000190093004B7E
:10028000000000190083004B0000001900F7004B2C
:100290000000001900DC004B000000190062004B58
:1002A000000000190057004B000000190052004BDD
:1002B000000000190049004B000000190041004BEC
:1002C00000000019007B004B00000019006E004B7D
:1002D000000000190031004B00000019002C004BF9
:1002E000000000190029004B000000190025004BF8
:1002F000000000190021004B00000019003E004BD7
:10030000000000190037004B000000190000804B6E
:10031000024B0000000F004B024B0000000F004B8F
:10032000024B0000000F0026014B000080E0060F8A
:100330000017040F0027050F0000800A081800604E
:1003400000800020004000000060009000200000BD
:1003500000000000008010002080000080000020CD
:100360000000000040090FA8D69D2BA2AC932A756F
:10037000BB08B3DBB106090F88769D7A995DCBDAAD
:10038000756AD46DD7B101090FB8969F6AA274D768
:10039000ABCFCDBC9D753B2B0607A8D2E9743A2E96
:1003A0000407723A9D8E0A06077C3A9D4E47070461
:1003B000079D4BA7A303030788E5030792CC040717
:1003C000B8D2E99C5304077C3A9D760E0607DE6E90
:1003D000B7DBED76070407A59276BB5D010607B78C
:1003E000DBED76BBDD020407A5926ABBDD020307E5
:1003F000F8743A0307759A100407D476BB924A2A18
:100400000407B7DBAD5452011507A54E47255555D6
:100410002A1595F3D99C2293AA2A958A4AEA745CF4
:1004200095032907522E95AA4A95E272AA929575CC
:100430005452E5B3924AAAAA542A6EE552A9544EE0
:1004400071399F4E392EA9AA52A9A8A4AA64656B36
:100450004A550A2907D369A9A293AA9295ADA9F68C
:100460004A4DEF54252BEBB8944BA5AA52A5B89C46
:10047000AA64651D552A25552A2AE9F24949A94A3F
:10048000010E07A54E47E57C36A7C8A44EC7557197
:10049000011307522E95AA4A95E2522E954AE51469
:1004A00097D4E9A8A44AA552394556390F07A5CBD8
:1004B00067B3924AAAAA542A2AE9F249C9553904CB
:1004C000050E11110E00121F10121915120A111526
:1004D0000A06051F04171515090E1515080119053B
:1004E000030A15150A121509061907EA5455AA2A0E
:1004F000D59129974AA572159972A9542AA7B8A42B
:10050000AA64656B2AA9AA52A9B82A2EF4F5F9F6AD
:10051000F7F8FBFAFFFCFDFE0002030401060508E4
:10052000090A070B0C0E0F0088016400000014007C
:10053000DC036400000014004B026400000028008B
:100540001704640000001400270564000000140074
:1005500020066400000028000080120E0613031716
:1005600005150606080B080F0E01190014031406E2
:1005700007080C0800068CC1094603220621462103
:100580006102418602C20621062161024161062301
:10059000A1052105C12161024161C204C102C10559
:1005A00026A121610244610321A1420C6206610778
:1005B000C104C104820161066105214A21820161F1
:1005C0000661C102C1012107C10221036106612444
:1005D0006127A124036107210221610F6107210224
:1005E00021610F610721C221610F610722A12161F1
:1005F0000F610B610F610223452345234323430011
:10060000050703040119010C040815001501150262
:1006100015031504150515061507030118010D0529
:100620000C0E001F0D410AC16145014761420323C1
:100630006124610783036141C12261236126612234
:1006400001220261210261012361236122C1210291
:10065000610222C121016101210161220261236144
:100660002461210324A161022161026125610461E9
:100670000961032102612104246228012101C121B1
:1006800002C1612161276228A12101210224612286
:10069000056228A12105C1226102266122C103222F
:1006A000A1218461210121618602612203C122A16D
:1006B000216103210221C1042101216228A12161BC
:1006C00002276123C121620322C104610122066164
:1006D0000223622A612B0461000C0B030A0113023E
:1006E0000A040F1B001B011B021B031B041B051B21
:1006F000061B071B081B091B0A1B0B1B0C1B0D1BD6
:100700000E090114020904160B0021192306C10762
:100710008AC12F6206C102612709622B022502C12C
:1007200005620822032D6202C104236102270662CA
:1007300028026105C1022202C102620523A12161D2
:1007400002612C6201C102220461026122012101C5
:100750002403622501C1036102610261216121015B
:10076000C12202620225A12261024361016121616D
:10077000240162012201C10561024561016121017B
:10078000236225A1246102476321012162210961BD
:100790000B61016101620A61023C00170F02010452
:1007A0001A040200001B000103020319031A0300CC
:1007B000E18406C7058561043204620143324301C6
:1007C000620432046201216101320161210161424E
:1007D00021610121042104210423016121420361DB
:1007E0000121C421C421C4230161066101320161D8
:1007F0000661013201610661013201610661012376
:10080000042104210421016106610123C421C421C2
:10081000C421016106610132016106610132016199
:100820000661013201610661146103000B040304D7
:100830000418041307031B001B011B020604190400
:1008400012070E0E002F0D210D210D21018C6227A4
:10085000C104210D612105210121836121C101C153
:100860000A6121052101210361216126614621429E
:1008700003610222016121610521610623036105F3
:10088000612161C104216187052161046121610346
:10089000224161062761036122610222C141610494
:1008A000230521612661022102416102C122C12189
:1008B00001C202216122012361220341610222025D
:1008C000276121012101226121C10341610122032C
:1008D0002185216122012361056321042102C102D6
:1008E000216121C121012261056121610B21612268
:1008F000013E001A08040C050C0B030C170C07042E
:10090000000C0014001B00040114011B010D040461
:100910000C0D0C180C000AC103C10FC103C1032246
:10092000612203C103C103C20222612205610522C3
:10093000612202216121046106610861056106618D
:100940000661086103610661086108610361046171
:100950000861086101830161046106610861056144
:10096000066106610186016103610661018502611C
:1009700008610322036103C2036108610A61022264
:10098000026108610C61066108610626AF271C3C04
:10099000000D03031403190B080E040500050105DF
:1009A00002050315030605180B090E001F0E5661FC
:1009B00084610A420A6104610A4125613861026169
:1009C00002612304240623622561230122012D6193
:1009D0002601612201C1210123012202220122619B
:1009E000210123012161220122012301C12301C12F
:1009F0000122612201C1012261220423012201C1DD
:100A000022012261276129A1296102210121C1015D
:100A1000620F61226127016128612661226101C1A3
:100A200023036106226106612261086103C102227B
:100A30006103C102613D000D0004040217020E0CA7
:100A40000C0E05060009000C000E0016001801032C
:100A5000020D0C0D0E001F0367016107610E61049A
:100A6000620562014105C161C10461056203620161
:100A70004303C163C1036106620162014501C165AF
:100A8000C102610763014767026102C102C10261DD
:100A900084630561042C046105C141C1032101C1C6
:100AA00006C10121046104C143C102210188012161
:100AB00004610445022101610661012104610543CD
:100AC00003210161066101210461036125610121A6
:100AD000C1610661C121046103610561012C0461EA
:100AE00003610561026107610661036125622B6292
:100AF000266100050E0406021304020B170E020005
:100B000000000107021804020E160E00E11F0392F6
:100B1000236104C10A610A216122A12408610A211A
:100B2000610621086101C10161012201C101216148
:100B300001C10161022101C1038361236127612396
:100B400061022501C1026103610B612AA161036198
:100B500006C16103612202C10124A16101C12161B9
:100B600085226123612AA161236101C10161012202
:100B7000610521096121C12161A12261012261C1B7
:100B80000161022105C10361236103610125610245
:100B90002103C10122026123610361012203610279
:100BA0002101C10122046123610361012203610269
:100BB0002404C1016123610361013E00000E04139E
:100BC000010A031809100B030400040104021401B4
:100BD0000B0315090F0B001F1F0B61256105C16178
:100BE00024612161076121032161042161256125BF
:100BF00061226126612361216104416101C10241D9
:100C00006101416102412101216102C16121610152
:100C100023416101412101416101416101C1412142
:100C2000012161012261216101C122416103C141B0
:100C300061014161012101210121610122612161E3
:100C40000123416101210121416101416101420210
:100C50002161012261216103C1416101410361C13F
:100C600021610122C101216102C16121612561254A
:100C700061A1216126612361C1618701C201610413
:100C8000220541C161436104224322614221C10521
:100C9000C141610361230121452161466144610332
:100CA00061210122C60161C1056104614624472B0F
:100CB00000040F021502110F031B001B011B02147D
:100CC0000309050B0F120F0104C1210E6C03C12192
:100CD0000E810FC1210E8110C1210E8111C1210E83
:100CE0008112C12111C1210E8101C1210DC1210B30
:100CF000C12101810D6507C12101810D630AC12157
:100D0000810E620CC121810C6403C124610281C186
:100D100023C101C12461A102C12501C12361A12117
:100D200002C122C12201C12261A12202C12501C149
:100D30002161A1230281C123C102C1A1276409004D
:100D400003080402000A050608140C010000030051
:100D500014010905150C00E103220A8C6125072204
:100D6000610C61250722610121412141214121417D
:100D7000214121612507226101C101C101C101C1D8
:100D800001C101C16122C12207226121A121A1214A
:100D9000A121A121A121A1612501C105226121A1DA
:100DA00021A121A121A121A121A1612E618C612E6E
:100DB0006103410141014101410141611221A12130
:100DC000A121A123612861286105A1236128610374
:100DD00025612461A12361286122C102236124616C
:100DE000A12361286124C10221610461A123096159
:100DF0002602612461A12304C101C102612861248A
:100E000061A1356101C20161A123001107040A013A
:100E100012041A06070F0E1600160116020C03160E
:100E2000030C040A050C050A060C060A070C070A3F
:100E3000080A090B011A03150C080F015104C1011E
:100E40006941032104410641032104418104C14158
:100E50000341044181016441016741810145012150
:100E600006A18101A103410141062181C141034144
:100E7000012106418101410341012102C1634181F8
:100E8000014501410781654101410164430145017B
:100E900027034101C1214101632403410221410192
:100EA0004222062441022103C1046321410241255B
:100EB00002230121410221042401210142022101D6
:100EC000410721014202412A01214102418108A139
:100ED000012141022181082101258105C102410131
:100EE00041048107C12101210481062201220481DC
:100EF00003C121012101C1220481C1012502412137
:100F0000500002040309011301170107000000014A
:100F10000002110212021402150208010F0519063F
:100F2000110E0200000000000000000000000000A0
:100F300000000001000001000000000000000004AB
:100F400044444631301131100100113000300000AE
:100F50000130131031061061003000300000001025
:100F60000103103100100030001111100001103188
:100F7000001001000030000000100061031061004B
:100F80001044403000000100001033301000010018
:100F90001111130610006100133100110050000000
:100FA0000311000010610310010010010000031084
:100FB0000061001031001000010016000300001055
:100FC000610310610031001601000300610010315F
:100FD0000010003010010010030010610310010028
:100FE00000300160100103010010330000060030E2
:100FF0000010000013000000311111111111111126
:101000001110030D0E040D020E02090E120E02073E
:101010000014000B0310030A0E110E00288D2D6220
:101020000C622B62052102210562296204810124E0
:101030000181046227620481012601810462256224
:10104000850128018562236204810124C224018173
:1010500004622162062C0662216204810124C224FA
:1010600001810462236204810128018104622562F6
:101070000481012601810462276204810124018127
:10108000046229620481048104622B620C622D6275
:101090000A623F2400080E0411010C050106060B2C
:1010A0000A1100120113021403150416051706187D
:1010B0000719081A080B010206170A100E00132759
:1010C0000289C10A2602610761216184062662063F
:1010D00061A121A16101C161C10625620661A12151
:1010E000A1610123610624620661A121A16101239E
:1010F00061072362066501236108226121850141A0
:10110000A161A14101236109216122C10261014163
:10111000A161A14104610A6123C101610141A16191
:10112000A141016182618A6124C1610141A161A182
:101130004101610E25610141A161A1410161876108
:1011400022C12305610141A161A141016106614103
:101150002605610141A161A14101610561412705A8
:1011600061036103610561413F2400100E03040126
:1011700017011B0E1101000D001A0001010D011ACB
:10118000010D020D030D040D050D060D070D080DD3
:10119000090D0A0D0B0D0C03011801040E190E00A8
:1011A00042194303D2045D06C101C10AC102C1094B
:1011B000416144074161450961C101C10961C10241
:1011C000C1084661410547614109C101C16109C1C9
:1011D00002C1610641614803416149056102C101E3
:1011E000C1076102C102C1064A614D614107C102E6
:1011F000C1016106C103C102610341614C614B033E
:10120000611B6103C102C108C103C1053C000D0699
:1012100004120002020C0E170F031B001B011B021D
:10122000110003020B0E180F020000000000000066
:101230000000000000000011111111111111111115
:101240001111111110600000001000000060010673
:1012500000000011131013131111111101310113AA
:101260001111131313131006000101310113111191
:10127000131310131011110101310003031613137E
:101280001313131001010131011113100313131370
:101290001311010101310130030313131313130060
:1012A00061010131013111311103131311111101C8
:1012B0000131013003311013131306000001013016
:1012C00041111330041313111111111101310130A7
:1012D00003311013130000000000013101311144EB
:1012E00010131111111111111131013003000003FC
:1012F0000000000000000031011113111111111143
:101300001111111111110000030E0E0504010B0340
:101310000D08050E170E0A020007000D0013001934
:1013200000020107010D011301190105010A030E55
:1013300008060E003D02C10DC103C105226128A1AE
:1013400024A12A61226121C108C108C103216122AF
:101350006125A128A1276121612261210DC10621FA
:101360006121612261216124A124A125A1226121A1
:1013700061216122612161211021612161216122AC
:10138000612161216121C10BC101216121612161C3
:1013900022612161216123A122A123A12561216173
:1013A000216122612161216103C108C103612161C1
:1013B00021612261216123A12CA12361216122618C
:1013C000216103C109C106612161226123A124A118
:1013D00024A126A12361226107C10AC105613D0044
:1013E00018020303021208060E020A000A01040290
:1013F0001408070E190E001F1AC103C103416141F1
:101400000388056141234221014161C10A2402612F
:10141000410741614104C10AC16141840341614105
:1014200002248306624106C141614102C109C10231
:101430006202C141234261412306612401624121CC
:10144000420441614107C101612104624107C16158
:1014500041032804624104C10241614103C108C142
:1014600002624103412341614182248202612202DE
:101470006241C10641614108C10161046241220526
:101480004161410625046209611061412341244400
:10149000234124422243000A0404140110021504CB
:1014A000090E0600001B0000011B010002000317CB
:1014B0000111021803030E01E46B2103810B2103C8
:1014C00081032103210321038101A1C121C121C184
:1014D000A1C1210121036101210321032101210275
:1014E0008102A1C1A1C121C1A1C1A1012102810427
:1014F000210321032102810221C1A1C1A1C121C176
:10150000A101210281022103210321012102610C99
:10151000210181032B018102C1210B8103210128BB
:10152000028102220121096101C12102210126015A
:101530008103210122C12106810222012102A10190
:10154000240181022102A10122C121022101810184
:10155000C121012201A1022101C121018102210138
:10156000A101C121012202210322C1210121A1C126
:101570002502C1210221C121026602210122012886
:101580000321C1A1026901C121012B0321016C02C8
:101590002D036E000E0E040C02120307040A06034C
:1015A00002000F00180013020603030E180E0003BA
:1015B0008201C10981C104C10761022208610122BF
:1015C000032261056108C10361086102C101C161B3
:1015D00082062201C16103C1046224610261C10665
:1015E0002261022203C1016105C101612207610676
:1015F0002201610422016181018201C183610961CB
:1016000004C10461022204C103C1810361C1022239
:101610000461072202220161C16122058102610287
:10162000C10B61220661012261022203C10661062B
:10163000C1016105C1042201C10461C104612261CB
:101640000422072203612203611B611B3C0002018B
:10165000040908190A160C110F0A13061A061307B3
:101660001A0713081A081A09130D130E130F013164
:1016700005C12405210101016622C1224101640145
:10168000210264220224012201230121810221027C
:10169000210145012281C1012102A1012201220172
:1016A0004121810221022101220122014121016205
:1016B0004101C1410122C1220141214201210221F6
:1016C00001220122014121420121022101220122A4
:1016D000C14121012101C1412201220122014121F7
:1016E0000121022142012201220141210121410166
:1016F00023014721C12141056542210123016502E2
:101700004123012103236102C1410221016401C17E
:10171000A104410221016527022102C105640321C0
:10172000016527042104210364036A0121062102C3
:10173000210321012302692103210B2103216604D6
:1017400065311F0700010F030A09030D140D0E0177
:101750000001010102010301040105010601070165
:10176000080109010A010B010C010D0E0310090506
:101770000D160D003E9801244321432143214221AF
:10178000416121418321612404C104C103C102617B
:1017900003C161216123C1615461416124612190D0
:1017A0004101C161216123C1612101502461246192
:1017B00021014101CC03C121C16123C1612101414A
:1017C000234621456123612461211161C121C16149
:1017D00023C161214B2244612101416124619202B4
:1017E00061216124422242614221412142614661DC
:1017F000C1612307610142046105C1612161224386
:101800002141234461422141214222422161210D93
:10181000610C612100090E02030E140E010A00057D
:10182000011701050E160E00C384C78BC3230423C2
:1018300061230B26042361230B260423612304C3A5
:1018400004260423612304230426042361230423A0
:101850000426042361230423042604236123042390
:1018600004260423612304230426C182C1236123A7
:10187000C182C123C182C127C2246124C225C22ED4
:101880006131012801610126012803260261022538
:1018900002260C61113C0001060318060708120E0F
:1018A000070C000C010C020C030C040C050C0607C1
:1018B000061A060F08160E002D012F892104218912
:1018C000210321C1026102C1210621C1026102C1BD
:1018D000210521C1016101C1210821C1016101C1AD
:1018E000210721C161C1210A21C161C121092161F1
:1018F0002106452261210A216121064103C10141DE
:101900006121062361216126A1276126610361010E
:10191000610E610662224121612E612141256183B0
:101920002161218C216121066101C1210161012117
:1019300009C121016101210561C12101C161C1010B
:101940002107C1210261022104612101C12161211C
:10195000C101210361230361032101C1016101C1AF
:101960002261C12162214161214121046102C10141
:101970002C61026101C12D00150E0507040B04073F
:101980000A090A0C0A020000000108040A04060AF7
:10199000110A00E10E2E02C105C1053B6102C10A18
:1019A0003B6105C107C10D623B6108C10AC1073B2C
:1019B0006104C108C106C106623B6103C10DC109D2
:1019C0003B6103C106C106C106C102623B6105C19C
:1019D0000BC1093C000F0E0309010F010809021B8E
:1019E000001B0108010E0119010709001F15C101A3
:1019F000C206612E0261240661012C026125612666
:101A00000221C122C122C12202612661270C612765
:101A1000612DA129046128C101C104C101C12501B1
:101A2000C2016129A123A12D6112C12602610261B7
:101A3000256125610281612402C1620261026102A5
:101A40006102610261032302C16122610261C2611C
:101A5000C261C261C261032102C1612461026125C8
:101A600061256104C1612661126128613B000B0F91
:101A700003150104061409010902160105061509DA
:101A8000150F0009611B6106C10B840B4C620247F4
:101A9000116209850285016144618908610461164A
:101AA0006121036104615221034462196306C10F7D
:101AB0004102610144224461012142214802610B3B
:101AC000610F610B610F6101614A014806610161AB
:101AD00013866101611B00150D030F0B0B0D150F14
:101AE00005130013011302130313040305100B0A5B
:101AF0000D140F0021412142210E41214223412298
:101B000042220E21422342034121412102C106C14A
:101B100003214105416121034122412341612241C9
:101B200003214101214161014161214102412142E1
:101B3000234161012201C24102214161026122056A
:101B4000412242610221412301C1214161026141DF
:101B500022C1042142216108224161C16221412444
:101B600003412261092142630142214122C1022134
:101B7000416101C107214102620561220342214204
:101B8000214104214102614123426141220CC121D2
:101B90004102612141214361214122C108C1234108
:101BA000026103C102614223A146A1234261226175
:101BB00021412342116141216141234102612242BD
:101BC0002142224121422243216103C1036110418C
:101BD000214100080E0413021008030B150E020029
:101BE000001700080211021708020B00E10282131D
:101BF000846104611161014102610461116101416B
:101C0000C26101C102612401C103C16125A1216139
:101C100023612202610329066221A161046113622A
:101C2000A1610561936305611462056101C10BC186
:101C300005C1620525614A22A122628307610A83E8
:101C400007C106610961062961016103C10561815E
:101C500003C10925614361240121C123C10C610332
:101C60006105326103612A00110703180306091395
:101C70000A020C0015001A0303070A07100A0005E0
:101C8000810583068201C102C101810381018103B3
:101C9000810161018104810161260181018103814A
:101CA0000181026102810281026108810581036173
:101CB0000382036108C102C102C10361038104619F
:101CC000456147A146618105614101C10141610E44
:101CD000410661416141C141610DC14104C10161E0
:101CE000416141C141622A612142612481614161B6
:101CF00041C141620A6122620561416141C14162A3
:101D000004220461226103C103416141C1416201B6
:101D10002302230161224225614161846101230282
:101D200023016122076106610123C22301612105AC
:101D300082C1610124016101C101C122C101C1014E
:101D4000612202612102216122C23E000B00030ECA
:101D500006040E140E0600000D0016000001160108
:101D6000160202041205050E170E00E10BC20F87C2
:101D70000124610E610AC1016104C106C10261084A
:101D800061440127612561086101C10A610561267D
:101D90006101246108610561066103C1016101619E
:101DA0002B62066101614401614B6204C161210142
:101DB00061C104614105C1034162046121022461E2
:101DC000016141614761416202C1612106C1610156
:101DD0006141614103C10261416202612104214408
:101DE000016141614962016121052101C103614134
:101DF0006104C104632106246101614C620B61012D
:101E0000610C3C000F020201010A01071B001B01CB
:101E10001B041B051B081B091B0E02010B01080BF1
:101E2000140E0220000000000000002222222222C4
:101E30002020000000000000002006020000002218
:101E400044444411111300203202321113211111A4
:101E5000000600111220320232111320000111116C
:101E600010000000320232000011130000001111B6
:101E700030603202320600101112130000003111DE
:101E8000220232111310060011213000300002022C
:101E90003211131111100001112130000202320021
:101EA000001060123100000112113202326600117E
:101EB000100031122100600232023211131012118F
:101EC00030000111221232023211131000111211CE
:101ED0003000000232023201131031100061112271
:101EE000131232023200131031000000000003060A
:101EF000320030006016312111121111121122111D
:101F00002111110D0E0311010A09180B03150015FB
:101F100001170F10010909170B050E0001C11A2442
:101F20006119C101610A61266103C101286126614D
:101F300005270861066101C108C106C10261066189
:101F40002D61266103C102610D6103C10261466119
:101F500006C105216126610625612661086106C169
:101F60000461066101C106612361274823612503DD
:101F70006102C106C10861076129612603618761A9
:101F800008610A61106105C1013C000D0A030201EC
:101F900011040C0E041100110103021102040112BC
:101FA00004180D0D0E004F0449036106618305619D
:101FB00006C10144224521A121440161440161413E
:101FC0002141826107618461026103254102610749
:101FD000C10121C1216102610622C101A161076124
:101FE0000441216101422441214121A16187618590
:101FF00041618761412102A1076103C1614306611B
:102000002142A12104C3610461418402C1016241F2
:102010000A610461416105A121416123A122056199
:102020000461416101C10661216184016141234173
:1020300022A1426108612161C1032161086121611E
:1020400002412401612161418223610761416102F2
:102050002103410161216102234121610661016186
:10206000032142214325442E41230002020318028A
:1020700002051805071B001B011B021B031B041B89
:10208000051B061702010517050B06003D03730328
:102090002303610163046103620361032661016339
:1020A0000162016101620161016326036101630153
:1020B0006201610162016103610323036101630144
:1020C00062016101620161016303266103610461D0
:1020D00003620361257D01C1016101C1016101C18B
:1020E000026102C1016101C1016101C1017F03619E
:1020F00001610161016201610162016103610363C8
:1021000001610161016101610261016102610161BD
:1021100001630161016302620161016101610261A8
:102120000161026103610264016101610161016198
:102130000162016101620161016301610163016189
:102140000161036101620161016201610361016179
:10215000017E000F0E04100311050B091109040282
:10216000001A0002011A010F030F050709170902DF
:10217000000000000000000000000000000000005F
:1021800000000000000000000000000000311111FC
:1021900011111111111111111130003031100060A5
:1021A0000060006000113030003111311111111147
:1021B00011111131113000303030111060006011F8
:1021C00030303030001131113031111111303111F6
:1021D000311000303030303031113030303030306C
:1021E0000031113111303060303111311130603037
:1021F0003030303032223030303030361111311141
:102200003632322232363111311111303030323221
:102210003222323230303031113110323232322209
:1022200032323230113111303232323232223232E5
:1022300032323031113230303030300030303030E6
:1022400032311111111111113161311111111111AD
:102250001A0E0307041705170C03000010001B00DB
:1022600006041505160C070F00E101C107C10AC1DC
:1022700004C2612304612304612A6201C103C10114
:102280006105C1016101C104C103622361236103CE
:10229000254122412341236103610361038F01240E
:1022A00061266106C103C104610461066101412424
:1022B0004623610461450161014106C102C1036118
:1022C00021036102C1014101610141034901612111
:1022D000C243234101610141034102C101C10241E5
:1022E0000161234323410161014101C101410161B8
:1022F000246141016102C102C105610142A14201A3
:10230000610461410161290261014105610461418A
:10231000016102C101C1034102610141274501611F
:102320002661014424410A6124C121610B61290015
:1023300001020401041B040A0E110E030300100025
:1023400016000204000E090E100E000482C1019452
:10235000036101C121C1086181012101816102C4C0
:10236000016101C1210121C1066181012301816156
:1023700002C22201C1210321C10461810121032183
:1023800001816102C103A1022102210361810122B5
:10239000032201816102612202230243810321C3DE
:1023A00021038121620321032103C1036223066209
:1023B0000281012303C1610261226121076203815D
:1023C000012103C16103610261018762048103C1CC
:1023D0006103614461076143610283610461C10279
:1023E000C161018661036109612661066123612380
:1023F000610561C104C161018561076104614861D2
:10240000056107610461C106C16101846128452835
:1024100061056100D5F08D14A1C881CFD9F1AF203D
:10242000005717A38B2E2E47175D74D145175D7487
:10243000D145175D721F5D74D145175D74D1451785
:102440005D749129BAE8A28B2EBAE8A28B2EBAE865
:10245000A28B2EBAE8A28B2EB98F2EB4499D4EC7FF
:10246000A55C2A954AA5728A2E5795AA4A55E51C5D
:102470009772A9542A954A491449974DE71D9772B6
:1024800055A9AA5455EEA24AE52A9BAD5C2A2AE733
:1024900052A9543624DDD7575595AA2A3559AE2A64
:1024A0005595AACA392AA9F2CAA525977255A9AA8B
:1024B0005455AEA35485ACE8A28B2EBAE8A28B2E5D
:1024C000BAE8A28B2EBAE8A28B2EBAE8A28B2EBA5B
:1024D000E8A28B2EBAE8A28B2EBAE8A28B2EBAE81D
:1024E000A28B2EBAE8A28B2EBAE8A28B2E321B0743
:1024F000B22E954A653BAD5D369D7754D265D3F9D2
:10250000E894AB4A55A5AA721D977255A9AA5455CD
:10251000AE031007B22E954A65E3723EA77CCA91BE
:1025200029974AA552A99C220210079C72A9542AF5
:1025300095CA292EE9B2E9BCE352AE2A5595AACA3A
:1025400075591FA38B2EA764E7D29DDCE7D28E2E90
:10255000B66D7ABAD8B6E9E962DBA6A78B6D9B9E09
:102560002EBAE862DBA6A78B6D9B9E2E9B9E6D9B71
:10257000CFA6B7E9E972694717DB363D5D4EE96DD5
:102580003EBA6C7A9B8F2E7439974EC79C733A2E45
:10259000652B59C9CA756CD94A56B2728EAB9395E0
:1025A000AC64652353B69295AC5C872BE5D3E95CAC
:1025B000C7A57C3A9D53648E4B91392E2BD3E99C51
:1025C000E2CB391D97B295AC64E53A2EE5D3D9C874
:1025D00094AD64252BD7416FF7B5AB4AA952A9C971
:1025E0007255A9AA5455CE514995572E2DB994AB81
:1025F0004A55A5AA721D2C1B5D74D145175D74D177
:1026000045175D74D1C594EB742EBAE8A28B2EBA2F
:10261000E8A28B2EBAE8A28B2EBAE8A28B2EBAE8DB
:10262000A28B2EBAE8A28B2EBAE8A28B2EBAE8A211
:102630008B090A10000000000000000000000000EC
:102640000000000000000000EFEFE0EFEFEFEF0F01
:10265000EFEF01010101010101000101FFFFFFFF97
:10266000FFFFFFFFFF000101010101010101010066
:102670000000FF42424242FF000000000300000051
:102680000003000002020202020202020202000033
:102690000000000000000000EFAFE06FEFEFED0F73
:1026A000EBEF010101010101010001010000B0B0E7
:1026B00000B0B000000000000101000101000000B6
:1026C000EFEFE0EEEEEEEE0EEFEF010101010101A2
:1026D00001000101EEECE0E8E8EAE808ECEE0101B7
:1026E0000101010101000101ECE0C0C0888080000F
:1026F000E0EC01010101010101000101E0800000A5
:102700000800010086E00101010101010100010151
:1027100000000000000000000000000000000000B9
:1027200000000000E08080000000000080E0010167
:102730000101010101000101ECE0C0808080C000C6
:10274000E0EC01010101010101000101EFECE0E811
:10275000E8E8E80CECEF01010101010101000101D1
:10276000EFEFE0EEEEEEEE0FEFEF01010101010100
:10277000010001013F0FA5AA64656B2AA9AA52A90D
:10278000B83A5595AA4A755CCEA7538E4BBA7C369B
:102790002BA9A4AA4AA5E2562E95AA4A95E272AAA6
:1027A00092957554D2E5B359492555552A15D2A5A8
:1027B000AA64656B2AA9AA52A9B83A5595AA4A757E
:1027C0005CE9B454F13955C9CA3A2AA92A59D99AA7
:1027D0002A9D962A7EE552A9AA54292EA72A59593C
:1027E00047255D3E9B95545255A55221122C07EA70
:1027F0005455AA2AD571A5D352C5E754252BEBA869
:10280000A4AA64656BAA745AAAF8954BA5AA52A506
:10281000B89CAA64651D9554F9ACA492AA2A954A5D
:10282000010207A55336090000F4019C00A5000031
:1028300000A80093009C0000000900E9009C000033
:10284000000900A5009C0000000900F7009C0000A2
:10285000000900A500A5000000A800E900A50000EF
:1028600000A80083009C0000000900D0009C00002C
:1028700000090093009C0000000900E9009C000092
:1028800000090093009C00000009008B009C0000E0
:1028900000D00701800102040810204080080B00CE
:1028A00002020201000904000001020200000524E6
:1028B000001001052401010104240206052406007C
:1028C000010705810310004009040100020A00000D
:1028D00000070502024000000705830240000004D3
:1028E00003090412010002EF020140412336800077
:1028F000010102030141726475696E6F204C4C4303
:102900000041726475696E6F204C656F6E61726410
:102910006F0020066400000014002705640000001A
:10292000140017046400000028004B02640000003B
:102930001400DC036400000014008801640000003F
:1029400028000080E0061E0000000A00E0061E00CD
:102950000080C93511241FBECFEFDAE0DEBFCDBF46
:1029600011E0A0E0B1E0EAE5FEE602C005900D92BC
:10297000AE3AB107D9F727E0AEEAB1E001C01D9247
:10298000AC3FB207E1F714E1CAEAD4E104C02197F1
:10299000FE010E942037C93AD107C9F70E943031A1
:1029A0000C942B370C9400002F923F924F925F9221
:1029B0006F927F928F929F92AF92BF92CF92DF924F
:1029C000EF92FF920F931F93CF93DF93CDB7DEB7B4
:1029D0006A970FB6F894DEBF0FBECDBF8091D501C8
:1029E00090E02091DE053091DF05821B930B059668
:1029F0002AE030E0B9010E941736162F6C8B8091C7
:102A0000D60190E04091E0055091E105841B950BC3
:102A10000596B9010E9417367B016D8B80910001EC
:102A2000853091F080918A0790918B076CE070E07F
:102A30000E942B36892B09F02CC49091AE0181E0C5
:102A400089278093AE0125C4812F0E94B52B082FC2
:102A5000D0908C07C0908D07C094CD201092D701E4
:102A60001092E2058091DC018B3021F01092D801A8
:102A70001092E3056E2D812F0E94B52B863081F5D3
:102A80008091D9019091DA0149969093DA0180936F
:102A9000D90140E06E2D812F0E94362D8091C50610
:102AA000882319F081508093C5068091C50688233C
:102AB00029F08DE293E00E94732412C0B12C809122
:102AC000C606B816B0F7EB2DF0E0EE0FFF1FE85387
:102AD000F94F43E0618180810E94362DB394EFCF9E
:102AE0009091AF018D2D8C708C3061F59F5F90932C
:102AF000AF019531B0F19D3390F09D3391F5109277
:102B0000AF0183E884BD8FEF87BD81EF80938000A4
:102B10001092880010928A000E9469301FC320E43E
:102B200030E0A901491B5109CA01880F93E894BDFF
:102B30009FEF97BD91EF9093800010928800809353
:102B40008A000FC0992369F083E884BD8FEF87BDA9
:102B500081EF809380001092880010928A0010927A
:102B6000AF018C2D84709C2D9870C3FE2DC08111F7
:102B70002BC00E943926882309F454C08091D501C6
:102B800090E02091DE053091DF05821B930B0296C9
:102B90006AE070E00E941736162FBB24BA94B60E76
:102BA0006E2D8B2D0E94B52BA82ECC24C394CE0C59
:102BB0006C2D8B2D0E94B52B8130A1F58FEF8A0DE6
:102BC000823008F09BC22EC0882361F191112AC087
:102BD0000E943926882331F18091D50190E020911F
:102BE000DE053091DF05821B930B02966AE070E0F0
:102BF0000E941736162FBB24B394B60E6E2D8B2D64
:102C00000E94B52BA82ECC24C394CE0C6C2D8B2DFA
:102C10000E94B52B813031F48FEF8A0D823010F095
:102C20000C944C1FD6FEC5C06E2D812F0E94B52B73
:102C3000982E8091D50190E02091DE053091DF053E
:102C4000821B930B6AE070E00E94173601E0892B2B
:102C500019F000E0812F02C081E0810F6E2D0E94EB
:102C6000B52B382E882483948E0C002319F081E034
:102C7000810F01C0812F682D0E94B52B582E0111A4
:102C800003C08FEF810F01C0812F682D0E94B52BEB
:102C9000482E832D0E94CC30682E5701BB245FEF55
:102CA000A51AB50AC12ED12CA501B601842D0E940A
:102CB000342B782E0E9439269091DC019B3081F4D0
:102CC000882311F40C9436227110C0C064E03616CB
:102CD00019F096120C94362268E087E00C94B01F2D
:102CE0000E94952E882341F08DEF890D823010F0DF
:102CF0000C94671F0C94531F002319F081E0810F7F
:102D000001C0812F6E2D0E94B52B682E002319F073
:102D100081E0810F01C0812F682D0E94B52B582EB4
:102D200062E06E0D002319F081E0810F01C0812F58
:102D30000E94B52B782E852D0E94CC30582E862DE2
:102D40000E94CC30882311F40C94B31F552011F449
:102D50000C94B31F26019FEF491A590AA501B2012D
:102D6000872D0E94342B882311F40C94A51F64E056
:102D700081E00E944C261092DC018091E005AAE0DF
:102D8000EA9E800D11248093D6018091D5018C3369
:102D900010F482E0C4C02091DE053091DF052936B1
:102DA0003F4F24F01092D7018EEFC5C087FFF1CFBF
:102DB00098C1D5FEC6C06E2D812F0E94B52B982ECE
:102DC0002091D50130E08091DE059091DF05F90179
:102DD000E81BF90BCF016AE070E00E9417367724F8
:102DE0007394892B19F0712C812F02C08FEF810F02
:102DF0006E2D0E94B52B482E552453945E0C7110F5
:102E000003C081E0810F01C0812F652D0E94B52B89
:102E1000682E842D0E94CC30882E5701BB24FFEFF2
:102E2000AF1ABF0AC12ED12CA501B601862D0E9472
:102E3000342B082F0E9439269091DC019B30B1F48D
:102E4000882311F40C943622002331F01092DC0117
:102E50000E945B230C94482224E0421619F092123F
:102E60000C94362269EF86EF0C9424200E94952E54
:102E7000882341F08DEF890D823010F00C94D11F22
:102E80000C94DB1F772019F08FEF810F01C0812F89
:102E90006E2D0E94B52B982E772019F08FEF810FA1
:102EA00001C0812F652D0E94B52B082F62E06E0DA9
:102EB000772019F08FEF810F01C0812F0E94B52B71
:102EC000182F802F0E94CC30082F892D0E94CC30E3
:102ED000882311F40C944822002311F40C94482206
:102EE00041E0C41AD108A501B601812F0E94342BFC
:102EF000882311F40C9418206FEF8CEF0E944C265D
:102F00001092DC018091E0055AE0E59E800D1124CD
:102F10008093D6018091D5018D3320F08EEF809380
:102F2000D701DDC02091DE053091DF0537FF06C0F7
:102F30001092D70182E08093E205D3C08111EECFD9
:102F4000D0C0D7FE8CC08091D60190E02091E005E2
:102F50003091E105821B930B08966AE070E00E94B5
:102F600017366B01B62E0E943926F82E882319F0E9
:102F70006FEF6C0D01C06C2D812F0E94B52BE82ED8
:102F8000FF2019F0BB24B394BC0C6B2D812F0E9441
:102F9000B52B9091DC019530BCF097305CF09B3004
:102FA00099F4043011F00C943C20F1100C9438206A
:102FB0000C943C20FF2071F1033009F08CC08FEF9E
:102FC0008E0D823038F587C00E945B232091D50199
:102FD00030E08091DE059091DF05D901A81BB90B87
:102FE000CD01EAE0F0E0BF010E941736863020F004
:102FF0009F01281B3109C90105970CF06EC00330F1
:1030000009F06BC08FEF8E0D823008F466C085E04A
:103010008093DC018091DE053AE0139F800D11243E
:103020008093D5011092D7011092E2058091D601CC
:10303000883130F08EEF8093D8011092E3058EC076
:103040002091E0053091E10537FF06C01092D801CC
:1030500082E08093E30582C08111ECCF7FC0D4FE73
:1030600043C08091D60190E02091E0053091E105C8
:10307000DC01A21BB30BCD0108966AE070E00E9450
:1030800017367B01D62E0E943926C82E81110C944A
:1030900043206FEF6E0D812F0E94B52BB82ECC20F0
:1030A00019F0DD24D394DE0C6D2D812F0E94B52BF9
:1030B000D82E8091DC018B3009F035C7043009F43B
:1030C000D5C7CC2011F40C945C2084EF8B0D843098
:1030D00010F00C945C200E945B231092D701109298
:1030E000E2051092D801A9CF8091D801823009F46D
:1030F000B8CF8091E3058E3F89F5B3CF43E0A416A6
:1031000009F490CD84EF8093DC011092D7011092E6
:10311000E20547E06C2D8B2D0E94362D909186079D
:10312000943181F0E92FF0E09F01220F331FE20F6D
:10313000F31FE65BF84FB082C1828CED82839F5F04
:103140009093860780918C0780938D070E94952528
:1031500080938C078FE093E00E94732480918A070C
:1031600080FD60CC1092F5061092030710921107B3
:1031700010921F0710922D0710923B0754EF652EF7
:1031800056E0752E8FEF96E098878F836CEF462E72
:1031900066E0562EA1E0B7E0BB87AA87EDEFF6E028
:1031A000FD87EC87D3018C9184FF55C012968D91D9
:1031B0009C9113976AE070E00E942B36F62E6A8B82
:1031C000F301848195816AE070E00E942B36162F0E
:1031D0006B8B8F2D0E94B52BD82E01E0010F602F35
:1031E0008F2D0E94B52BB82EF6E0DF1205C0D2015C
:1031F0008C91882309F46DC7EF81F8858291F98B52
:10320000E88B8D3044F5D30112962D913C911397A4
:10321000C9016AE070E00E942B36892BE1F4F301CA
:1032200084809580C4016AE070E00E942B36892B6F
:1032300091F4AF81B885EC90EE2009F46AC7D20111
:103240008C9181115DC7F20131971082EF81F88571
:10325000808181508083EEE06E0E711C2F81388555
:10326000225F3F4F38872F833EE0430E511C4A8533
:103270005B85425F5F4F5B874A878C859D850E9695
:103280009D878C8798E4691697E0790609F08ACFC4
:10329000C9CB809100018850833060F58091000196
:1032A000982F9B7F933009F087C22091B701822F1E
:1032B000022E000C990B2195220F295C40E450E06E
:1032C000481B590B440FBC010E94312E4091B7019D
:1032D00060E880E00E94182E8091B70146E3481B09
:1032E00060E880E00E94182EE090B70100E010E056
:1032F000F12CEFC1812C912C712CA12CB12CE12C43
:10330000C090DE05D090DF05CA0CDB1C0091E00503
:103310001091E105C60109968938910508F5080D57
:10332000191DC801099689349105D0F4672D8E2D99
:103330000E94B52BF82E882339F0282F42E356E25D
:10334000B801C6010E94862429EF2F0D243040F4D5
:10335000B8016A5071094BE353E0C6010E9486240C
:10336000E394AAE0AA0EB11CBCE1EB12C9CF73949E
:10337000EAE08E0E911CF0E17F12BFCF8091000138
:10338000853021F08091AE018823F1F08091DC013D
:10339000082F001F0027001F082E000C990B97FF15
:1033A00003C0919581959109880F990BFC01E35E0B
:1033B000FE4F408151816091D60170E08091D5012E
:1033C00021E090E00E94DD2B84EF482E86E0582E0D
:1033D0009FEF292E96E0392E2EEFC22E26E0D22E18
:1033E0003AEF632E36E0732E5201D5018C9184FFA3
:1033F000BFC012962D913C9113974091DE055091DC
:10340000DF0558874F834A01820E931E14968D91D3
:103410009C911597E090E005F090E105E80EF91E0B
:10342000D101EC914E2F50E04331510508F098C086
:10343000FA01EA5AFF4F0C942037F6018081082FD9
:10344000001F0027001F082E000C990B97FF03C0D8
:10345000919581959109880F990BFC01E35EFE4FD0
:103460004081518180C0F1E08F1A910879C02FEF1F
:10347000821A920A75C032E0E31AF1089AC744E052
:10348000E41AF10807C056E0E51AF10892C768E0AF
:10349000E61AF10800E045E653E065C0AAE0EA1A42
:1034A000F108FC013A97D5011596FC93EE93149719
:1034B000D1011C92C9016AE070E00E942B36462FB0
:1034C000CF016AE070E00E942B36162F0FEF040F39
:1034D000802F298F3A8F488F0E94B52B782F51E08B
:1034E000510F652F802F5E8B7F8B0E94B52B082F8D
:1034F000488D4F5F612F842F488F0E94B52B982FE6
:103500005E89652F488D842F9E8B0E94B52B482F96
:10351000E091D501F0E0AF81B885EA1BFB0B298D66
:103520003A8D7F899E89E217F30764F4872F0E9402
:10353000B830882309F437C7802F0E94C130811129
:103540002BC731C7892F488F0E94B830488D8823F8
:1035500009F422C7842F0E94C130811124C71CC7DF
:1035600000E047E853E021E0B701C4010E94DD2BF1
:10357000BEE0AB0EB11CEEE02E0E311CFEE0CF0E15
:10358000D11C2EE0620E711C38E4A31637E0B3069E
:1035900009F02BCF8090D501912C8091DE05909180
:1035A000DF05881A990A6090D601712C8091E00598
:1035B0009091E105681A790AD2018C9184FF7FC04D
:1035C00012968D919C911397F401E81BF90B1496B8
:1035D0002D913C911597A301421B530B9A01C0906A
:1035E000D6014C2D50E0421B530BE090D501473FD4
:1035F0006FEF5607C4F42E2D30E02E1B3F0B2F3FEC
:10360000AFEF3A070CF4D9C62C3731050CF0DDC604
:10361000E394EE1A8E2D07EAA02E03E0B02E4DEDB6
:1036200053E090E03AC045335105C4F02E2D30E010
:103630002E1B3F0B2F3FBFEF3B070CF4CEC62C37A2
:1036400031050CF0D3C6E394EE1A8E2D18E9A12EA5
:1036500013E0B12E4CEC53E093E31FC0F12CEE1AB3
:10366000FF0AECEFEE16EFEFFE064CF49C2D921BDA
:10367000BAEBAB2EB3E0BB2E43EF53E0B5C6FCE78D
:10368000EF16F104E4F09C2D921BA6EBAA2EA3E00A
:10369000BA2E4EEE53E08CE702C08F3F81F0C92E68
:1036A000D12CE82EF12C00E020E0B601C7010E94E9
:1036B000DD2B21E0A501B601C7010E94DD2B2EE024
:1036C000420E511C38E4431637E0530609F074CF1C
:1036D000E5CD21E0A801B70187E897E00E949D258C
:1036E0000E5F1F4F02341105A1F78091B7010FE75C
:1036F000081BE12CF12C10E021E0A701B80187E8BC
:1037000097E00E949D2542E0E40EF11C52E4E5168C
:10371000F10491F780910001833031F51091B701E8
:103720001150EBE1EE2EF12CF0E4CF2ED12C17FD51
:1037300012C0812F012E000C990B9701281B390B09
:10374000220F2F5FA601481B590B440FBC010E949A
:10375000312E1150ECCF8091B70181508093B70189
:103760008F3F39F584E023C0D12C0BE110E070E4E9
:10377000E72EF12C8091B701D81694F48D2D0D2CE5
:10378000000C990B9801281B390B220F2F5FA70102
:10379000481B590B440FBC010E94312ED394EACF31
:1037A0008F5F8093B7018C3121F48091DD0180938C
:1037B0000001E12CF12C56C098EF980F9330C8F718
:1037C0008A3049F400E021E043E554E069E170E02B
:1037D0008AE290E03AC0883029F400E021E042E239
:1037E00054E02FC01091C406812F64E60E94143764
:1037F000082F282F4FEB54E069E170E088E490E057
:103800000E948624812F64E6069F801911246AE0B5
:103810000E941437192F282F4FEB54E069E170E014
:103820008DE490E00E948624212F4FEB54E069E163
:1038300070E082E590E00E94862400E021E048E00C
:1038400054E069E170E08BE290E00E94DD2B46E1FC
:1038500067E589E20E94182E40E267E589E20E944E
:10386000182EA7CF07E310E020E0A801B70187E8F2
:1038700097E00E949D250F5F1F4F00341105A1F7AF
:103880008FEFE81AF80A90E8E916F10459F748E3CF
:1038900060E880E00E94182E8091D9019091DA01B1
:1038A000FE01319626E0DF011D922A95E9F77F019E
:1038B0002AE030E046E04E0FB9010E942B3681939A
:1038C000CB014E13F9CF00E021E049EE54E06AE36A
:1038D00070E080E090E00E94DD2B06E310E0F7014D
:1038E00021917F014FEB54E06AE370E0C8010E9430
:1038F0008624055011090831110589F7F090DB0184
:1039000000E021E04CEA54E06AE370E080E490E0FB
:103910000E94DD2B1AE08F2D612F0E941437092F92
:10392000282F4FEB54E06AE370E082E590E00E94BC
:103930008624202F4FEB54E06AE370E087E590E0A7
:103940000E94862480910001853071F4F090C506B4
:1039500000E021E041E954E06AE370E080E690E0B5
:103960000E94DD2B8F2D1DC0F090C40600E021E0E9
:1039700041E854E06AE370E080E690E00E94DD2BCD
:1039800064E670E08F2D90E00E941736262F082FF6
:103990004FEB54E06AE370E081E790E00E948624F8
:1039A000802F612F0E941437192F282F4FEB54E0DE
:1039B0006AE370E086E790E00E948624212F4FEBB7
:1039C00054E06AE370E08BE790E00E9486248091E7
:1039D0000001853009F0DAC180918A0790918B0748
:1039E00080FD1CC02091D70121110CC02091D8016D
:1039F000211108C02091E205211104C02091E305A6
:103A0000222361F02091DC01ECE0E20FEC3120F4A4
:103A1000F0E0E45FFA4F24912093DC018370992752
:103A2000892B09F445C04091D7018091D501480FF9
:103A30004093D5011091D8018091D601180F1093B1
:103A4000D6018091E205E091DE05F091DF05E80FF7
:103A5000F11D87FDFA95F093DF05E093DE05809177
:103A6000E3052091E0053091E105280F311D87FD28
:103A70003A953093E1052093E005812F90E0821B79
:103A8000930B05962AE030E0B9010E941736062F05
:103A9000842F90E08E1B9F0B0596B9010E9417366C
:103AA000862F602F0E94B52B123008F056C020C020
:103AB000AEEFB6E02C91CD010A97FC01808184FF26
:103AC00011C011968C91119781110CC083EF820F58
:103AD000833008F094C4ECE0E20FF0E0E45FFA4FCA
:103AE000E491EC931E96F7E0A235BF0719F79BCF40
:103AF000833099F51091C4061F5F8091DB018A30F5
:103B000018F48F5F8093DB0186E0809300011093AF
:103B1000C406612F82EC90E00E942726113508F43C
:103B200088C481EC90E00E943726843008F07FC47E
:103B300011E0180F612F81EC90E00E942726612F81
:103B400086EC90E00E9427260E94852D8EE08093CF
:103B5000DD0188E295E00E94732480918A079091AC
:103B60008B077C0121E0E222FF2480FD76C004EF78
:103B700016E0D8018C9184FF50C0F701EC50F94F4A
:103B8000868112966D917C911397680F711D87FD48
:103B90007A9513967C936E931297878114964D9124
:103BA0005C911597480F511D87FD5A9515965C93AA
:103BB0004E9314972091D50130E08091DE059091CD
:103BC000DF05281B390B8091D601E091E005F091CB
:103BD000E1056901B2E0CB0ED11CDB011896CA16D3
:103BE000DB06DCF4285F3F4F6E5F7F4F6217730781
:103BF000A4F490E08E1B9F0BBC016E5F7F4F9A0177
:103C0000285F3F4F6217730744F408964E5F5F4F7B
:103C10004817590714F40E946930025F1F4FEEE005
:103C2000EE0EF11CF4E5EF16F10409F0A2CF00E06E
:103C300010E0602F812F0E94B52B99EF980F9430E0
:103C400030F441E0480F602F812F0E94362D1F5F16
:103C50001C3179F70F5F003159F78091860788236F
:103C600009F4FBC0F12C4DE0E42E80918607F81694
:103C700008F075C00F2D10E06801CC0CDD1CF601BA
:103C8000E00FF11FE65BF84F8281882309F462C0E0
:103C900081508283803189F038F4813081F088301E
:103CA00009F058C04FE052C0883129F0803209F045
:103CB00051C04CE04BC04DE049C04EE047C0A09120
:103CC000C706B0E0AA0FBB1FA451B94F84EF96E01E
:103CD00020E030E04F01BF016F5F7F4FFC0140816A
:103CE00044FF19C0F4014081FAE04F9FA001112464
:103CF000FC01A280B3804A155B0569F4FB01408199
:103D0000FAE04F9FA0011124FC01A480B5804A1560
:103D10005B0509F490C30E96225F3F4F24353105B1
:103D2000E9F6F601E00FF11FE65BF84F80812C8980
:103D3000821306C081813D89831302C00E946930CD
:103D40000C0D1D1DF801E65BF84F41E0618180819B
:103D50000E94362DF39489CF882309F47EC0809188
:103D60004C07813009F079C080918607815080939B
:103D70008607EAE4F7E090E0981770F72381348132
:103D800045812193319341939F5FF6CF20918C071A
:103D900090918D0790959223843009F03FC08091D7
:103DA000B00122FF32C08E3268F48932D0F083E84D
:103DB00084BD8FEF87BD81EF8093800080E4809386
:103DC00088000BC0833388F483E884BD8FEF87BD00
:103DD00081EF809380001092880010928A00809179
:103DE000B0018F5F8093B00138C08091C40697FF07
:103DF00004C0803510F48F5F05C094FF2EC08A3256
:103E000060F181508093C40628C0882349F0833331
:103E100048F0883218F082E0809300011092B001DF
:103E20009923D9F0809100018B3040F4893048F417
:103E3000873049F0883051F481E00DC08E3069F050
:103E400005C082E008C08091DD0105C010928D0799
:103E500010928C0785E0809300018091AF01811161
:103E600019C38091B001811115C38091C5068111DC
:103E700006C090910001953019F480E201C080E005
:103E800093E894BD809587BD81EF80938000109268
:103E9000880010928A00FEC253E0A51611F40C941B
:103EA00012168CE030C9662009F4F2C2772019F0AE
:103EB00064E081E005C084E0981206C06AE087E013
:103EC0000E944C260C94BD1666E085E0F9CF0023D5
:103ED00041F0A501B601842D0E945A2B81117FC0AB
:103EE000C7C2662051F0A501B6016F5F7F4F852DD7
:103EF0000E94342B8111DCCF02C07110C1C2B60107
:103F00006F5F7F4FA501852D0E945A2B8111D0CF65
:103F10001092D7011092E205882309F4E2C88BE0E1
:103F20008093DC010FC043E0D412B0C08091DE0565
:103F30005AE0159F800D11248093D5016BEF8AEF15
:103F40000E944C260E94552609C9002371F0A50144
:103F5000B201872D0E945A2B8823D1F266E085E0BA
:103F60000E944C261AC0011193C2682D812F0E9415
:103F7000B52B182F892D0E94CC30882309F488C2D4
:103F8000B6016F5F7F4FA501812F0E945A2B8823B6
:103F900009F4BECF8BE08093DC010E945B230C947C
:103FA000BD16772021F1A501B601862D0E945A2B5E
:103FB000811115C060C2882009F46AC2002319F07B
:103FC0006FEF8CEF05C034E0931206C069EF86EF07
:103FD0000E944C260C94821766E085E0F9CF8BE0B6
:103FE0008093DC018DEB91E00E9473243FC2882016
:103FF00009F449C2652D812F0E94B52B182F892DF8
:104000000E94CC30882349F0A501B60161507109A6
:10401000812F0E94342B8111D3CFB60161507109D9
:10402000A501812F0E945A2B882309F471CFC8CF94
:10403000772069F0A501B601812F0E945A2B8823B1
:1040400009F466CF66E085E00E944C260BC0A5010E
:10405000B601812F0E945A2B882309F459CF8BE097
:104060008093DC010E945B230C948217CC2021F109
:1040700087E08093DC012FC8A60155274F5F5F4F73
:10408000612F70E020C06E2D0C944B188D2D0E9476
:10409000CC30811103C01092DC011DC8D11003C0C7
:1040A0008BE08093DC018091DE056AE0169F800D35
:1040B00011248093D50146CFA70155274F5F5F4F4D
:1040C000612F70E08D2D0E94342B882309F43ACFA4
:1040D000E2CF0E948D360E948D362AE030E040E02B
:1040E00050E00E94B136DC01CB014496A11DB11D08
:1040F000F201808340E0612F8F2D0E94362D7CC815
:104100001150612F8F2D0E94B52B882309F43BC1DC
:104110009AC86FEF610F8F2D298F3A8F0E94B52BB0
:104120008E87612FCC24C394CF0C8C2D0E94B52B8D
:104130008987602F8C2D0E94B52B8F87602F0FEF02
:104140000F0D802F0E94B52B382E612F802F0E94DB
:10415000B52B282E4091D5018091DE059091DF0589
:10416000841B9109298D3A8D280F391F4091D60162
:104170008091E0059091E105841B9109880D991DBE
:10418000AC85BD854C914423F9F01F922F923F924C
:104190008B2CAF84C984EE840D2DEA85FB852081AC
:1041A000412F6F2DC3010E94FE2EAC85BD859C91D1
:1041B00091509C930F900F900F9081114CC8EA85FD
:1041C000FB853197308161C037FF1EC01816190674
:1041D0005CF431952195310982179307C4F12817B2
:1041E0003907BCF132E046C00097A9F1319521951D
:1041F00031099195819591092817390774F1821732
:1042000093076CF136E036C021153105C1F0181660
:10421000190644F48217930724F1281739071CF173
:104220003EE028C0009709F19195819591092817E2
:104230003907ECF082179307E4F03AE01BC0392FFE
:10424000331F3327331F330F330F330F13C033E0C4
:1042500011C031E00FC034E00DC037E00BC035E0D5
:1042600009C03DE007C03FE005C03CE003C039E0C5
:1042700001C03BE0EDEFE30FEC3020F4F0E0EF5E47
:10428000FE4FE080EA85FB85E082D2018C91882395
:1042900091F09FEF9B0D923070F4D1100CC08150C3
:1042A000F2018083811107C046E0612F8F2D3A8F84
:1042B0000E94362D3A8DF1E0FF932F923F928B2C86
:1042C000AF84C984EE840D2D232F412F6F2DC301A0
:1042D0003A8F0E94FE2E0F900F900F903A8D811111
:1042E0000C942B19132F48E0F42E332311F0315086
:1042F00001C03FE021E02F932F923F928B2CAF849F
:10430000C984EE840D2D232F4B896A89C3013A8F0E
:104310000E94FE2E0F900F900F903A8D882341F04F
:10432000A889B9898C918B3011F00C942B191FC07E
:104330001F3011F01F5F01C010E0B1E0BF932F925A
:104340003F928B2CAF84C984EE840D2D212F4B8995
:104350006A89C3013A8F0E94FE2E0F900F900F9032
:104360003A8D8111DDCFFA94F110BFCFD9CF8B2DCB
:104370000E94C130882311F40C942B19F20131975B
:1043800010820C942B19F201108246E0612F8F2DC0
:104390000E94362D0C942319EFEFD601EC93EEEF2B
:1043A000D301EC9306C081E0D6018C9322E0F301A7
:1043B000208300E046E753E0D6C83FEAA32E33E06F
:1043C000B32E46EE53E090E00FC025ECA22E23E082
:1043D000B22E40E054E090E010C090EAA92E93E0A5
:1043E000B92E45ED53E092E380E059C98EEBA82E3B
:1043F00083E0B82E48EF53E092E38BE750C9CD013C
:104400000497FC018081811107C0CD010397FC0155
:104410008081882309F466CB8CE0820F8C3128F4EC
:10442000E82FF0E0E45FFA4F24912C935BCB8FE010
:104430008ECB89E08CCBAC9011964C9111975AE0C1
:10444000A59E50011124FC01B382A282FAE04F9F85
:10445000A0011124FC0155834483A9014C50594FFC
:10446000FA01E28613861682178255CC81E050CD80
:1044700061101ECD03C08110A3CD08C0772041F08C
:104480001092DC0105C00111FBCFB4CD0111F8CFB2
:1044900080E03ECD6A960FB6F894DEBF0FBECDBF6A
:1044A000DF91CF911F910F91FF90EF90DF90CF9010
:1044B000BF90AF909F908F907F906F905F904F9044
:1044C0003F902F900895CF92DF92EF92FF920F933B
:1044D0001F93CF93DF936C017A018B01C0E0D0E092
:1044E000CE15DF0589F0D8016D918D01D601ED91D2
:1044F000FC910190F081E02DC6010995892B11F402
:104500007E0102C02196ECCFC701DF91CF911F91B0
:104510000F91FF90EF90DF90CF9008958091BF01B1
:10452000E091BD01F091BE01882349F0CF010296D0
:104530009093BE018093BD01859194910895CF0120
:1045400002969093BE018093BD0180819181089570
:104550008091B10108950895089580E090E0089554
:104560000E9426373FB7F8948091C7019091C80107
:10457000A091C901B091CA0126B5A89B05C02F3FE3
:1045800019F00196A11DB11D3FBFBA2FA92F982F79
:104590008827820F911DA11DB11DBC01CD0142E0F4
:1045A000660F771F881F991F4A95D1F708958F923C
:1045B0009F92AF92BF92CF92DF92EF92FF926B01E8
:1045C0007C010E94B2224B015C01C114D104E104C0
:1045D000F104F1F00E94B222DC01CB0188199909A3
:1045E000AA09BB09883E9340A105B10570F321E0FB
:1045F000C21AD108E108F10888EE880E83E0981EFF
:10460000A11CB11CC114D104E104F10419F7DDCFE0
:10461000FF90EF90DF90CF90BF90AF909F908F90E2
:1046200008951F920F920FB60F9211242F933F936C
:104630008F939F93AF93BF938091B2019091B301F9
:10464000A091B401B091B5013091C60123E0230FD0
:104650002D3720F40196A11DB11D05C026E8230FBA
:104660000296A11DB11D2093C6018093B2019093C3
:10467000B301A093B401B093B5018091C7019091AB
:10468000C801A091C901B091CA010196A11DB11D37
:104690008093C7019093C801A093C901B093CA0148
:1046A000BF91AF919F918F913F912F910F900FBE2E
:1046B0000F901F901895E1E7F0E080818D7F808357
:1046C00010929100469847981092B6010895CF92A3
:1046D000DF92EF92FF920F931F93CF93DF930E948D
:1046E0008E22811520E8920751F4DF91CF911F911E
:1046F0000F91FF90EF90DF90CF900C945B2321E01F
:104700002093B601813020E8920751F48091BB01DB
:104710009091BC019093BE018093BD010E948E22B6
:1047200097FD05C02091BA01222309F440C02091D1
:10473000B90121113CC021E02093C001EC01DF77D9
:10474000209769F481E08093C10146983FE9C32E28
:104750003FE0D32EE12CF12CCAEFD0E014C08E0143
:1047600020E030E060E472E48FE090E0A90198017D
:104770000E94B13669017A0181E0C81AD108E108C6
:10478000F1081092C101E0914807F091490709959D
:10479000811103C081E08093C1018091C001882311
:1047A00009F43FC08091C10181113BC003C0109248
:1047B000C001C4CF469935C0479A0E948E22009707
:1047C00071F09C01DE010E940537DC01CB0129E07C
:1047D000B595A795979587952A95D1F703C08FEF43
:1047E0009FEFDC01109290002AE020939100D0927C
:1047F0009900C09298008093C2019093C301A09346
:10480000C401B093C50180917100826080937100F2
:10481000DF91CF911F910F91FF90EF90DF90CF909C
:1048200008954798CACF1F920F920FB60F92112486
:104830002F933F934F935F936F937F938F939F93A8
:10484000AF93BF93EF93FF938091C2019091C30107
:10485000A091C401B091C501892B8A2B8B2B81F1CA
:104860008091C10181110BC098B180E4892788B97A
:104870008091C001882319F088B1805888B980914F
:10488000C2019091C301A091C401B091C501181655
:1048900019061A061B06B4F48091C2019091C30157
:1048A000A091C401B091C5010197A109B1098093FC
:1048B000C2019093C301A093C401B093C50102C08B
:1048C0000E946723FF91EF91BF91AF919F918F91CC
:1048D0007F916F915F914F913F912F910F900FBEFC
:1048E0000F901F9018959C01E1E7F0E090819D7F6B
:1048F000908381E08093BF013093BE012093BD017E
:104900003093BC012093BB010C9467234F925F92BC
:104910007F928F929F92AF92BF92CF92DF92EF924F
:10492000FF920F931F93CF93DF9300D000D0CDB7AA
:10493000DEB7DC014115510509F4DEC0FA01D4905F
:10494000319694914E5F5F4F4D2C512C2223E9F00C
:10495000E92FE695E695E695EE2EF12CE1E0F0E004
:10496000892F877011F4E0E0F0E0EE0DFF1D4E9E00
:1049700070014F9EF00C5E9EF00C11242E9DF001F4
:104980002F9DF00D11244E0F5F1F5D01A40CB51C6F
:104990001A141B040CF0B0C0A038B1050CF0ACC068
:1049A0009B01290F311D121613060CF0A5C06034AF
:1049B00071050CF0A1C04115510509F49DC0F62FF9
:1049C000F770EF2E9B0177FF02C0295F3F4F83E016
:1049D000359527958A95E1F7F22F77FF04C0EE20F1
:1049E00011F0FFEFF20FB7FF05C0662777276A1BAC
:1049F0007B0B02C060E070E000E8A016B10424F078
:104A000080E8F82EFA1A01C0FD2CF61A2F2F0F2E6F
:104A1000000C330BFF3F1CF4C22EC09401C0C12C0C
:104A2000E1E0892F877009F4E0E0969596959695D8
:104A30009E0F290F311D2930310514F098E09F1B7E
:104A40008C2D8F0F9D01182F00E81003200D311DB4
:104A50001124260F371FCD9C600D711D1124640F8A
:104A6000751F41E050E00E2C02C0440F551F0A9400
:104A7000E2F7EFEFE49FD001E59FB00D1124A09580
:104A8000B095BC83AB837C809F0F8917A9F1F90196
:104A9000E252FE4F6F01A12CB12CAF1438F5FB018F
:104AA000EA0DFB1DE491E49F4001E59F900C112469
:104AB0009A82898287FD07C0F6011081E12FEA23DF
:104AC0008E2AF6018082EE2051F0873044F4F60100
:104AD000E058FF4F908097208A8098289082FFEFBF
:104AE000AF1ABF0A0FEFC01AD00AD7CF8F5F640D7D
:104AF000751D20583F4FC9CF0F900F900F900F900A
:104B0000DF91CF911F910F91FF90EF90DF90CF90A9
:104B1000BF90AF909F908F907F905F904F9008953F
:104B2000BC0180E090E00C94D7228FB18095807F0B
:104B3000669B88601C9B8460089560387105D0F482
:104B400040345105B8F4E5E9F8E280E1849FD001F2
:104B5000A0781124A60F4770E40FF11D8491A25292
:104B6000BE4F222319F06C91862B03C080956C9167
:104B700086238C9308951F93CF93DF93DC0120E06D
:104B800030E040E050E011E0C1E0D0E02617370708
:104B900091F114968C911497811115C014961C9361
:104BA000149712968D919C911397ED91FC9111970A
:104BB000E80FF91FE4911596EC931597019613965B
:104BC0009C938E93129714969C91149715968C91A2
:104BD0001597892349F0FE01022E02C0EE0FFF1F38
:104BE0000A94E2F74E2B5F2B990F14969C9314971F
:104BF0002F5F3F4FCBCFCA01DF91CF911F91089517
:104C0000EF92FF920F931F93CF93DF9300D0CDB716
:104C1000DEB78C017B01FB0160819A838983CE0121
:104C200001960E94D530F70161810F5F1F4F1A83F3
:104C30000983CE0101960E94D530C7010F900F90D5
:104C4000DF91CF911F910F91FF90EF900895CF9337
:104C5000DF9300D0CDB7DEB79A838983CE0101966A
:104C60000E94D5300F900F90DF91CF9108950C9452
:104C70009B368091D60190E02091E0053091E105CE
:104C8000821B930B6AE070E00E9417369C0181E062
:104C9000232B09F080E008959091DC01981714F01F
:104CA000691714F48093DC0108951092D7011092D3
:104CB000E20582E08093D8011092E3058091D6014D
:104CC000873160F08091E0059091E10589399F4F2F
:104CD0002CF01092D8018EEF8093E3050895FC012B
:104CE0002285261714F0421714F4FC0162870895F8
:104CF000BF92CF92DF92EF92FF920F931F93CF93C9
:104D0000DF93FC0166834783842F880F880F840F0D
:104D100030E18302C0011124962F990F990F960F4D
:104D20009F70892B818367FF02C08CE003C06623DC
:104D300011F084E0848747FF02C0148604C0442336
:104D400011F088E08487222309F44CC08185811109
:104D500049C0EF018485811135C01D868A819B8100
:104D60002AE030E0B9010E942B36162F8C819D81FC
:104D7000B9010E942B3600E0FF24FA94F60ECC24F1
:104D8000CA94C10EBB24B394B10EDF2CD01A6D2D82
:104D9000812F0E94B52B833099F46D2D8C2D0E94AC
:104DA000B52BE82E6D2D8B2D0E94B52B982F0F5F04
:104DB0002DEF2E0D223020F08DEF890F823060F420
:104DC000098710C00E948D3626E030E040E050E0B8
:104DD0000E94B136698706C09111D7CF91509330A8
:104DE000A0F6EECFDF91CF911F910F91FF90EF9042
:104DF000DF90CF90BF900895CF93DF931F92CDB7F0
:104E0000DEB76983DC01ED91FC910280F381E02D36
:104E100041E050E0BE016F5F7F4F09950F90DF9139
:104E2000CF91089583E08093E9008091F200882378
:104E300019F08AE38093E8000895FC018485958544
:104E400097FD0BC09FB7F89482E08093E9008091B2
:104E5000F2009FBF90E0019608959FB7F89482E01A
:104E60008093E9008091F2009FBF90E008958F92B7
:104E70009F92AF92BF92CF92DF92EF92FF920F93E9
:104E80001F93CF93DF935C016B017A0180910C013A
:104E9000882309F45BC08091D401882309F456C0AB
:104EA0008091D10180FF05C08091E00082608093F5
:104EB000E000E70110E00AEF83E0882E9AE3992EE4
:104EC0002097D9F10E94D92E81110AC0015009F40E
:104ED0003DC061E070E080E090E00E94D722F0CF1A
:104EE000282F30E0C217D3070CF48C2F4FB7F8945B
:104EF0008092E9009091E80095FF1DC0282F30E0D6
:104F0000C21BD30BF601982F915020F08191809312
:104F1000F100FACFC20ED31E112319F09092E800CF
:104F200009C08091E80085FD06C09092E80011E07C
:104F3000209709F010E04FBFC3CF1111C3CF5D9888
:104F400084E68093D2011E141F0444F081E090E0B7
:104F5000F5019383828380E090E001C0C701DF9177
:104F6000CF911F910F91FF90EF90DF90CF90BF9066
:104F7000AF909F908F9008950E94D92E90E0089551
:104F80000F931F93CF93DF931F92CDB7DEB78C01A2
:104F9000FC018485958597FF0EC0CE0101960E9485
:104FA000AF2E019719F4298130E002C02FEF3FEFB7
:104FB000F80135872487F801848595850F90DF9166
:104FC000CF911F910F910895CF93DF931F92CDB78B
:104FD000DEB7FC018485958597FD05C02FEF3FEF77
:104FE000358724870BC0CE0101960E94AF2E019712
:104FF00019F4898190E002C08FEF9FEF0F90DF914D
:10500000CF910895DF92EF92FF920F931F93CF936A
:10501000DF93D82E8A017B01E40EF51EEB01CE153D
:10502000DF0571F0D7FE03C0FE01849101C08881C5
:105030000E94F53021968111F2CF8FEF9FEF01C0D2
:10504000C801DF91CF911F910F91FF90EF90DF90FA
:1050500008950F931F93CF93DF931F92CDB7DEB7C1
:1050600082E0898342E450E06DE978E280E80E94C2
:1050700002280E94EA2EDC0112960D911C911397D2
:105080000115110569F0D801ED91FC910280F381C1
:10509000E02DBE016F5F7F4FC801099597FF07C0E4
:1050A00089810F90DF91CF911F910F910895F801A1
:1050B00000851185E5CF1F920F920FB60F92112434
:1050C0008F939F938091E1009091E100937F909363
:1050D000E10083FF0FC01092E90091E09093EB0094
:1050E0001092EC0092E39093ED001092D40198E0BE
:1050F0009093F00082FF20C093E09093E90090919C
:10510000F200992319F09AE39093E8009091D2016C
:10511000992339F09091D20191509093D201992323
:1051200089F19091D301992339F09091D301915055
:105130009093D301992341F184FF10C08091E20044
:105140008E7E81608093E2008091E1008F7E80936B
:10515000E1008091D1018E7E806111C080FF16C078
:105160008091E2008E7E80618093E2008091E10078
:105170008E7E8093E1008091D1018E7E816080934C
:10518000D10104C05D9ACDCF289AD6CF9F918F913F
:105190000F900FBE0F901F9018951F920F920FB691
:1051A0000F921124CF92DF92EF92FF920F931F93F1
:1051B0002F933F934F935F936F937F938F939F931F
:1051C000AF93BF93EF93FF93CF93DF93CDB7DEB74A
:1051D0006C97DEBFCDBF1092E9008091E80083FF9D
:1051E000EDC168E0CE0145960E94233182EF8093A5
:1051F000E8008D8987FF05C09091E80090FFFCCF03
:1052000003C09EEF9093E800982F907609F0C6C0F7
:105210009E892F89188D91110CC0803829F48091B6
:10522000D0018093F10002C01092F1001092F100C1
:1052300048C1422F50E0512B913051F4811141C1AE
:105240004130510509F03DC18091D0018D7F0BC0E7
:10525000933061F4811135C14130510509F031C1FC
:105260008091D00182608093D0012BC1953041F4B0
:105270008091E80080FFFCCF20682093E30021C1EB
:10528000963009F05FC0EB8CFC8C1092E900109214
:10529000CE011092CD01123091F51092CC011092F6
:1052A000CB010E94292899E0BE016F5F7F4FDB018F
:1052B000E92F1D92EA95E9F799831A8391E09E837D
:1052C00090EA98879AEF99872091CD013091CE018D
:1052D000275F3F4F3C832B838D831092E900109210
:1052E000CE011092CD01F092CC01E092CB0149E0C9
:1052F00050E080E00E9402280E942928E2C0F0923B
:10530000CC01E092CB010E94EA2EDC011296ED90D6
:10531000FC901397E114F10409F4C0C0D701ED919A
:10532000FC910480F581E02DBE016B5E7F4FC701CB
:105330000995009719F00CF0C4C0C7C0F701E084CC
:10534000F184E8CF973009F4C0C0983021F481E0AF
:105350008093F100B6C0993009F0B3C0837009F0B2
:10536000B4C0E0E9F1E081E021E036E390819923E7
:1053700061F08093E9002093EB0091919093EC0011
:105380003093ED008F5F873089F78EE78093EA00D6
:105390001092EA008F898093D40193C08B8D9C8DED
:1053A0001092E9001092CE011092CD019093CC01A1
:1053B0008093CB01898D811156C08E899D89913A48
:1053C00059F4813209F081C047E050E065E071E0B6
:1053D00080E00E94022875C0913209F076C08332C5
:1053E00089F4888D90E0982F88272F89822BA0E060
:1053F000B0E08093010190930201A0930301B09368
:1054000004015FC0803269F48091E80082FFFCCF24
:1054100067E085E091E00E9423318BEF8093E80004
:1054200006C0823209F04DC08F8980930C018091B3
:10543000CF01882319F0EEEFFAE002C0E0E0F8E0D7
:105440008091050190910601A0910701B09108019A
:10545000803B9440A105B10509F07BC080910C010F
:1054600080FF93C076C00E94EA2EDC0112960D9157
:105470001C9113970115110541F1D801ED91FC9193
:105480000190F081E02DBE016B5E7F4FC801099550
:10549000811117C0F80100851185ECCF113009F496
:1054A0004EC0133091F48F89882309F445C08230AF
:1054B00081F440E860E181E099E20E948C35882324
:1054C00021F08EEF8093E80079C081E28093EB00B9
:1054D00075C0813029F440E86BE085EF98E2EDCFAC
:1054E000833099F70E94EA2EDC011296ED90FC9031
:1054F00013978E010F5F1F4F6801E114F10479F0DB
:10550000D701ED91FC910680F781E02DB801C7012C
:105510000995080F111DF701E084F184EECFD80141
:105520001C92F60101900020E9F73197BF016C1938
:105530007D0940E0C601C1CF6FED78E202C063EEA5
:1055400078E26115710509F2FB01449150E080E8B1
:1055500040CF0FB6F894A895809160008861809341
:105560006000109260000FBEA895EE3F2AE0F2079F
:1055700039F08091FE0A9091FF0A91838083A1CF38
:105580001092FF0A1092FE0A9CCFEE3F8AE0F807C5
:1055900031F0808191819093FF0A8093FE0A87E722
:1055A00097E7918380839BE088E10FB6F894A895F4
:1055B000809360000FBE9093600083CF6C960FB60F
:1055C000F894DEBF0FBECDBFDF91CF91FF91EF9179
:1055D000BF91AF919F918F917F916F915F914F910B
:1055E0003F912F911F910F91FF90EF90DF90CF90FF
:1055F0000F900FBE0F901F9018959C01240F311D26
:105600001216130684F5803891056CF5FC0197FF9E
:1056100002C0E0E0F0E02138310514F020E830E08D
:105620002E1BAB014770552781E090E001C0880F29
:105630004A95EAF7809577FF02C0695F7F4F93E054
:10564000759567959A95E1F77695762F6627779504
:105650006795E60FF71FE252FE4F215020F0908130
:1056600098239193FACF08958150833008F18AE00E
:10567000869F9001879F300D1124849FB001859FE4
:10568000700D1124E4EFF6E0808184FF0AC082816E
:1056900093818217930729F4848195818617970750
:1056A00039F03E9687E0E834F80771F780E0089516
:1056B00081E00895873028F4843038F5882329F173
:1056C00026C0803120F58AE0869F9001879F300DAB
:1056D0001124849FB001859F700D1124E4EFF6E042
:1056E000808184FF0DC082858B3051F4828193814B
:1056F0008217930729F4848195818617970739F0DB
:105700003E9687E0E834F80759F781E0089580E095
:105710000895853031F118F4882319F124C0875099
:10572000883008F58AE0869F9001879F300D11240C
:10573000849FB001859F700D1124E4EFF6E0808115
:1057400084FF0AC0828193818217930729F48481A0
:1057500095818617970739F03E9687E0E834F80779
:1057600071F781E0089580E008958C3100F56F3F76
:1057700001F1603100F570E0982F969520E180FDF1
:105780000BC0929FC001112482529A4FFC01E60F78
:10579000F71F8681829509C0929FC0011124825211
:1057A0009A4FFC01E60FF71F86818F70089581E004
:1057B000089580E0089582E008952F923F924F92DD
:1057C0005F926F927F928F929F92AF92BF92CF9291
:1057D000DF92EF92FF920F931F93CF93DF93CDB79A
:1057E000DEB761970FB6F894DEBF0FBECDBF4C0198
:1057F0007B012A875A8349831C821B821D821E8259
:1058000068E070E0CE0101960E94BB253C01AC012E
:105810004F5F5F4F5987488768E070E0CE0101967F
:105820000E94BB256C0161E070E0CE0101960E94F0
:10583000BB2528853985280D391D37FDFEC050E868
:10584000851691040CF0F9C096012F5F3F4FA70118
:10585000420F531F57FDF1C060E4E616F1040CF04F
:10586000ECC06701F7FE04C0CC24DD24CE18DF08AD
:1058700077E0C722DD24A701F7FE02C0495F5F4F32
:105880002A0153E0559447945A95E1F7F7FE09C071
:1058900091E0491A510848E050E0FA01EC19FD097D
:1058A0006F01A90137FF02C0495F5F4F1A0143E052
:1058B000359427944A95E1F727703327232B19F065
:1058C000FFEF2F1A3F0A002311F0730102C0E12CF1
:1058D000F12C8F8321E010E0A12CB12C88E090E026
:1058E000AC014C195D095C874B87A214B3040CF022
:1058F000A4C041E050E061E070E0CE0101962F8746
:105900004D875E870E94BB252F854D855E85892B3F
:1059100019F44E5F5F4FEFCFBA01CE0101960E949E
:10592000BB25DC01119640E050E02F854A175B074C
:1059300008F07AC06F816111122B220F09F071C03B
:10594000C2018A0D9B1D9C012F5F3F4F29303105FD
:1059500008F04AC09701280D391D2038310508F09C
:1059600043C0BC017695762F662777956795680DBD
:10597000791D6E0D7F1D8F3FEFEF9E0709F459C013
:10598000212F30E0F9010C2C02C0EE0FFF1F0A940A
:10599000E2F7F98BE88BFB01E252FE4F2A852223C6
:1059A00021F030812889232B04C02889209530815B
:1059B00023232083C114D104B9F00797A9F0812FC4
:1059C00090E00B8402C0959587950A94E2F7FB015D
:1059D000E25AFD4F2A85222319F01081812B03C042
:1059E0008095108181238083011110C06FEFE61A2A
:1059F000F60A88859985E816F9068CF09FEFA91AB2
:105A0000B90A21E010E0E12CF12C0BC0E1E0EE1A24
:105A1000F108F7FE04C0FFEFAF1ABF0A730121E0DF
:105A200010E04F5F5F4F82CF4F8151E045274F839A
:105A30005CCFC114D10419F6D7CF61960FB6F89494
:105A4000DEBF0FBECDBFDF91CF911F910F91FF90B1
:105A5000EF90DF90CF90BF90AF909F908F907F900E
:105A60006F905F904F903F902F900895E82FE695AC
:105A7000262F30E080FD0FC080E1E89FF001112467
:105A8000E252FA4FE20FF31F86818F7090E1499F37
:105A9000A00111240AC080E1E89FF0011124E25224
:105AA000FA4FE20FF31F8681807F482B46830895CB
:105AB0000F931F93CF93DF9300D0CDB7DEB71A8239
:105AC000198282EC90E00E9437268093C40683EC12
:105AD00090E00E94372605ED11E0F801868384EC02
