:100000000C9461120C9489120C9489120C9489122C
:100010000C9489120C9489120C9489120C948912F4
:100020000C9489120C9489120C94292A0C94982A05
:100030000C9489120C9489120C9489120C948912D4
:100040000C9489120C9489120C9489120C948912C4
:100050000C9489120C9489120C9489120C94CA2C59
:100060000C9489120C9489120C9489120C948912A4
:100070000C9489120C9489120C9489120C94891294
:100080000C94142D0C9489120C9489120C948912DE
:100090000C9489120C9489120C9489120C94891274
:1000A0000C9489120C9489120C948912090FE8D2CD
:1000B000D9ED76BB4EC7B7DD6EB7DBED7636090FEF
:1000C000E8D3E974FCDBED76BBDD6E6703090F1046
:1000D0009BCE6EB7DB753A36090FB8B2E9145FD71D
:1000E000ABCF85A2ED6CDB5901090FBC92EE55A98F
:1000F000A4D2AAAD53E4E9E8B6B303090FF8B6CA2F
:10010000F55FB9B5EBD436EEED6CDB5901090F386C
:10011000B39FEAB397770A4BDBD9B6B302090FBC9A
:10012000924EA5FAECE554CEC9D9D3F9EC367A094A
:100130000FB8B29F6AA2745FBB8E773B7B3A5A09B5
:100140000F38972ACA6B998E39BD1D5B090F5CA7C2
:100150003EF54D96DBF5B950B79D1D070E04020123
:1001600019011A0E010E0200001B000301020E19F4
:100170000E180100E18C428D611A62014121024199
:100180002103220326024121016201214102214172
:100190000224022602214101620141210241210182
:1001A000412102214104C122024121016201214178
:1001B000C22141012141C2412103C1220321410148
:1001C00062014122A14121014122A1214102C1221A
:1001D000044121016201214121A12141012141214B
:1001E000A1412101C1220521410162014121C241F8
:1001F00021014121C2214101220641210162012147
:10020000410221410121410241210122C405620133
:1002100041210241210141210221410126024121C6
:1002200001620121410221410121410241210126B6
:1002300002214101621A620686028705620C220CC5
:10024000613C00040F02060212020200001B0007BC
:1002500001110101021A0200E1870127018B6107E8
:10026000290A6206220722096205220127012208C3
:10027000620522A127A12208620522042104220886
:10028000620522C1022302C1220862042701270756
:100290006204260121012607620423A2012301A290
:1002A000230762052101C1012501C1012108620561
:1002B0002D0862042603260762042301C1210321BD
:1002C000C1012307620522022201220222086123C2
:1002D0006103622301236204612500020E030D0005
:1002E000030617060E010019000101190101021988
:1002F0000201031903010419040105190501061976
:10030000060B000F0000061A060004618516610442
:10031000290E610421C185C1210161820A61042184
:10032000416103614121016102820861042101618F
:100330000361012101610C6101C10221C185C1215B
:10034000016101C108C10161014102210243022191
:100350000161014102C202246104210721016103FC
:100360002401846104A101410441A10161038405C8
:100370006104214161410241012101610C61C1031C
:1003800021014105210161C10A24610121072101E7
:1003900024610B61012103A2022105610B6101248B
:1003A000A22305610B610F61042A472B00010E0295
:1003B0000C0210020A1B001B011B021B031B041B67
:1003C000051B061B071B081B090A0012000C0E1058
:1003D0000E000B27146524126207221021610241CE
:1003E000034102220F21610143014301220F2161D8
:1003F0000143014301220F21610143014301220F07
:1004000021610241034102220F216104C104221033
:10041000216103C103220861896205228862896221
:10042000012101210122886202C102C102C16201CF
:10043000210121012202C102C102620962012101DE
:100440002101220862096201610161012208614CF7
:10045000264A000D0F0208031303040900120009C5
:100460000112010703140305051605011F19C12513
:100470000A2608240C65052202622464022202294D
:100480006104622202240262022401C16402220485
:10049000C127022204244121412102620422412178
:1004A00041214121082241214121412108244121AA
:1004B0004121026204C1270222022401C1640224F4
:1004C0006222022402622202296102220262246460
:1004D00008650B240E260AC1251F13000E00050D0A
:1004E0000002080408170819080400000700140097
:1004F0001B00020404041704190400E1841285613E
:10050000042261C10AC161220462042261C10AC1DC
:1005100061220462052261C108C161220562C10134
:10052000C1022261C108C1612202C101C16224610C
:10053000012261C106C1612201612462C102C1615F
:10054000012261C106C161220161C102C16225614E
:10055000012261C104C1612201612562C103C1613F
:10056000012261C104C161220161C103C16226612E
:10057000012261C102C1612201612662C104C1611F
:10058000012261C102C161220161C104C16227610E
:10059000012261C2612201612762C105C161012896
:1005A0000161C105C1622861012241A122016128C6
:1005B00062C106C16101C221A1C20161C106C1615E
:1005C0002D4222012A000E0A050C041A0506080312
:1005D0000E180E020900120019040507020E190E6A
:1005E000001F0661220422611161220622610F614F
:1005F000220822610D6122C108C1226108C1826105
:10060000306182C1036121610322C108C1220361FB
:10061000216102622161032201C104C1012203613F
:10062000216202C16221610324022403612162C1AB
:1006300003C16221610323022303612162C105C159
:100640006221610322C1012203612162C107C162EB
:100650002161032403612162C109C1622161036236
:1006600003612162C10BC1622161026202612162E8
:10067000C10DC1612261016201612261C1073C00BB
:100680000E0E0409010A010F011001100C000D00EB
:100690000C010D010B020E020703120301041804E2
:1006A00001051805030D160D030E160E09000A00AC
:1006B0000F001000001F1F02C423C30CC64BC50649
:1006C000260A270562126306611261086112610839
:1006D00061126108611261086112610861126108AA
:1006E0006112611F1E412641244224412841000D10
:1006F000010401010A051405160905100010011076
:10070000021003100403010B011602170902000076
:100710000000000000000000000000000040000099
:100720000000400000000040000003030000000340
:1007300003000000030300033003300000300030EA
:1007400000003000300301630300030101030003D4
:100750000161034301130044430111034443013188
:100760000003211311511211211211511231511391
:100770001003005001006111006101305003144367
:10078000445441031444434444341443100300507C
:1007900001031001035301006003152312152113F7
:1007A000112112532112151305111100011311000B
:1007B00000531100051300034440441314404453F4
:1007C0001440441300131006001310060013000613
:1007D000001306131002001310020013100200137E
:1007E00015030512110301121103011215030B0069
:1007F00003070E0D0E180E03040011001B00050167
:10080000100116010A0E01300122C123C123C124A7
:100810000124C123C123C12201306E21810E210197
:100820002D0121012109C1220121012101210121E3
:100830000121012101230121012901230121012D90
:100840000121012D0121012D01210122012101217F
:1008500001210121C1220121012109C1220121011E
:100860002D0121810E226E21012701270124C1249F
:10087000C1250122C128C125012901230F21C12140
:10088000016221016221016221012101210121C1B5
:100890002101210121C121012101210121C12101C8
:1008A000210121C121012101210121012101210178
:1008B00021C12101210121C12101226221016221E5
:1008C00001622101622100190E04060016000309CD
:1008D0001909060A0012000B0111010C021002078F
:1008E00000170002081A08001F1F1F01C1236123FF
:1008F000C11321C121C161C121C1210BC10621C187
:1009000061016121610161C12104C101C103226151
:10091000216126610161266121612202C1210161FB
:1009200021610661016106612161C121022101622B
:10093000216801682162012101216101C102670171
:10094000672101C101612102236101216101C1020D
:1009500061016102C101612101612304C12261279A
:10096000612761220622016105C1016101C10561A2
:10097000012205210161226621662261012103C154
:100980000261236321652163236101C1013C0002EF
:100990000F0504050009120A060B090E08000004E1
:1009A00000080019000001040108011901150102E5
:1009B000031A03110A0200000000000000000000FA
:1009C0000000000000000444000000044400004057
:1009D00000443000300412222220001111022300B2
:1009E0003600360010002600000000000306113417
:1009F00022302300221205555110315106300630A5
:100A00002300260000000000300031143220233083
:100A1000221305000050300036003600203300233A
:100A20000016610030001134223020033023000111
:100A300013443060063006302000332300000300EA
:100A40001151311432202000032300000300000064
:100A5000360036002000002322222222306011348A
:100A600022302000002310060601315106300630E6
:100A700020000023131212113000311422202066AE
:100A8000310313060600300030000000111111225E
:100A900011212121212100010301071907050E025F
:100AA000080008011B010007060E180F02111111A2
:100AB0001101111111111111111111002002220047
:100AC0000023010003444444401300030232202366
:100AD0006132230000000063221302322003003041
:100AE0000000000000113003023001113234444490
:100AF00000006062311262311444323000000000A4
:100B000000003000023206203211000600111100F0
:100B100030060232111132030000000000221131B0
:100B200002320000344322222222223002310032DB
:100B300011111103000244444231003111320616F2
:100B400000111302030002320322023200100000DF
:100B50000300030002320320623000111111111151
:100B60001320023011102232111000000000030087
:100B70000230000000326023060000600300021112
:100B800011111112116322111122230062070B03AC
:100B90000A020D08150B070B00160016010B030BBC
:100BA000040B070B08000215021702120B008C122F
:100BB000C102C102C10261052103830F61840124C6
:100BC00001610130046124016101A123C207C384D2
:100BD0006124016101A125C105C122610521012214
:100BE000016101A1C224C103C12361840121012249
:100BF000016101A127C101C1250461210122016117
:100C000001A1C226C1260461210122016101A12E98
:100C10006126C221016101A1C2210B61052401618C
:100C200001A124012108610A6101A1C222012B61F5
:100C30002AA1240523C1236125C108210524C1223D
:100C40006122C101C1226105C12101C102C1250288
:100C500061022C00150B0204031703040C000D00A5
:100C60000E000F000A00110005031603008A088A0F
:100C70006109280962072C0762062E0662014430CA
:100C8000440162082A0862014161082409410161A6
:100C900043611543036102C102C102C102C102C125
:100CA00002C10261066114610661082408610661DF
:100CB0000523A423056106610223AA2302610661BC
:100CC00003AE0361066104AC0461066106A8066117
:100CD00003000B0F0508030D0313030C09100F0A83
:100CE0000A0011000A010B010C010D010E010F0198
:100CF000100111010600150000051B05010A660A16
:100D0000250B2103620A2103220A2102C122056563
:100D1000210362052A06210421036205210421031F
:100D200022052103C12102C124632104210362029F
:100D30002D03210221042103620221022104210347
:100D400022022101C12103C1A102C12202210221EB
:100D500004210362022D036321042103620521049F
:100D6000210322052103C12102C1220521042103FF
:100D700062052A06652103620A2103220A2102C1B3
:100D8000220A2103620A250B66000B050314050DD8
:100D900009060B05000010000001100100021900F7
:100DA0001A001B000E0400E112412405300241012B
:100DB000C1612101C1038B61022161824122612154
:100DC0000143C16121412105C1016182216103C14A
:100DD0000161210361416103220561022161024138
:100DE00022612102C16141612202C121046102210B
:100DF0006101C14102612161826301C12861022157
:100E000061024121612261026202230541610221E6
:100E1000610461026101C101610322054161022295
:100E20006103610261236203264161032361016161
:100E30000261034161238641226103236201612231
:100E40006121610C2141610322612103612161273C
:100E500061062141610361210361216122C1246195
:100E60002561234262230161216125C12161256140
:100E7000C102C1016221C1026121613361256100AA
:100E8000120A030A020207140F030D000D010D02DE
:100E90000B0203071907110F001F1F0AC1830988DE
:100EA000614421A1220261076108610A61076106AC
:100EB00026432705610621C10121032103210321C6
:100EC000056103C20121022102C12101C22101C227
:100ED0002101C103612702310161210221012505A0
:100EE000210B612101C12101C102210361C1012145
:100EF0000B612B41614127A125610C610A830161CE
:100F00000C610961046108C1036109610130610478
:100F1000C1046102C10100100E040D010F0103069E
:100F20001806020000000101011B0103051805005D
:100F3000E11FC103C103C103C103C103C1032E01EA
:100F40002D0E611A21612119C161C1182261220E81
:100F50006108C1016101C1076105216121062361A9
:100F6000230521612104C161C106C1026102C105DD
:100F7000C161C1032261220424612403226122028F
:100F8000C1016101C104C1036103C103C101610168
:100F9000C1012361230225612501236123C102616F
:100FA00002C102C1046104C101C1026102C1036145
:100FB0000A610961033C001A0F03150016001700AF
:100FC000091800180111020A0303040305040504AB
:100FD0000604071401150116011701001F0FC70EA3
:100FE000C72707C7470E271F1F0BC5172461172ADE
:100FF00061112F610C336108366105386103396175
:101000000239610200070C031103090F190F0307CE
:1010100000070107021B0100020A0F180F001F1F23
:10102000056150226223612361098721C121612169
:10103000012161210121612C02C1012101216121D4
:10104000C1216121C12164C164C163236121A16205
:1010500023612101216244624362036E4102C16245
:101060004102622261C16204610122016241018187
:1010700041624101C16221016121620123610121BB
:10108000C121624462436221610121620121C101E7
:101090006102226284016621610262012201610112
:1010A0002101216102C10365246304610122016100
:1010B0002702C16123C16844612165410122612386
:1010C000016205C1024261216101610161410122A8
:1010D0006101226126A10621610161C1614102C154
:1010E0006121026121001A0E0301000A03130601A7
:1010F0000000020009031206180800E10637610427
:10110000356124610432612761042F612501246166
:10111000042C612501276104296125012A61042627
:10112000612401C1012C610423612701C1012C61EB
:10113000046125012401C1012D6225012701C1019E
:101140002A622501296101C1012762250129612344
:10115000012662C103C103C103C10121612301262C
:10116000612E022407613C000D0E031701000209E5
:1011700002010D000001160103020A0201810E2185
:1011800081C22B01218102AB012181022B0121812E
:1011900001C12305A301218102A304C123012181EF
:1011A000022B012181026129022181C10261A70371
:1011B0002181026C2181022B01218101C1AB01211E
:1011C00081022B0122622305A3012181022304C194
:1011D0002301218101C12B0121810261A902218109
:1011E000C1026127032181026C218101C12B0121F0
:1011F0008102AB012181C22B0121810A23012181BE
:101200000A23012181C109A30121810A230121812E
:101210000A23012181C10D2100100E0310040E07C5
:10122000170A060100010101020103010401050C76
:10123000030E030607140700221923992307A1238D
:101240006123A1092304C1A121A1036103A12201FA
:10125000C1052302C1A121A1C561C201C221A121F1
:1012600001A103230122A121A1256126A121A12100
:1012700001C1012509610921A121A12305C4026140
:1012800002C40521A122046126A16127610522046F
:101290006107610761052203C16102C56101C101E6
:1012A000C46105220161A12961A1296102220161B4
:1012B0000A610A61022201610A610A610222016176
:1012C0000A610A61023D000A090407031103040DC3
:1012D000170D020C000C010101170104071707008C
:1012E0001C210921C3210921042183618521612158
:1012F000856183210621C1016105C161C1056102CA
:101300002108218161816183216121836181618162
:10131000210A21026102A1016101A10261022108E9
:1013200061832101610121826182210161012186A4
:1013300061026181610221612107216121056181D1
:10134000610461022161210721612105610461813C
:10135000610221612107216124026181610261042E
:1013600021612961240461026181610221612101FD
:10137000250121612201210261816103C1610221F4
:1013800061210122C122012161240261C103618125
:101390006102216121012501216121056181610233
:1013A000618401610181058101610187610261043C
:1013B000216121012501216121076101000107034C
:1013C0001902080511090104020E00020218021395
:1013D0000900611B61028206916109C16104C104B7
:1013E000610561230127618761016101614401A1F8
:1013F000096101C105610161016104436123046167
:1014000087610161014461036101C1012504C102D9
:10141000610161056103610125C1218761016101EC
:101420006144612101618F6101610161046127A152
:10143000250761014462C10224052103246105627C
:101440002D420126612461412C03266123C16141A3
:101450002C61410122C1236124614101C12A614102
:10146000076104610126A10561412C00080E0402F8
:10147000011A010F060F0B0403000D000E001800E7
:101480000000070014001B00001F610962096104CD
:1014900022612205226222052261220122C161C14C
:1014A00022032362230322C161C12302610522C1F9
:1014B000016201C122022102610322016102832231
:1014C000026206220161042261220322C10162013B
:1014D000C10522612203C161C1220323622206C128
:1014E00061C122036102210422622301820361029D
:1014F00023C161C12204C1016201C1220222C16172
:10150000C1220121A161A12107620222032261A15E
:101510002104610522C1016201C12205610D23621E
:10152000231522622218620D2D622D000C0E04106C
:10153000040B070B0C130E0200001B000400170025
:10154000040E170E00E18118826101380162012149
:10155000042102C102C121072102210162012101EE
:10156000C10224A1230721022101620121A1240536
:101570002101C102C1032101C12101620121032115
:10158000062D0162012103210621062104210162A9
:10159000012502C103210621042101620121032941
:1015A000052102C101210162012106210421C1049A
:1015B00022A1230162012101C102C10121042704EA
:1015C0002101620123A124042103210621016201DA
:1015D0002101C10121C104C10121C1022101C104B4
:1015E0002101620123A12AA126A12201621A613CE4
:1015F00000010E030D01040217020606001B00067F
:10160000011B0106021B02000114021A020703005B
:101610001F19830486256109612241230128C12AFB
:101620006222C1230141C1036121612203C103C1BF
:1016300001622601456141610387016208846101FD
:10164000610361076122A123610861036102210432
:10165000618303612601276126C10361220584217C
:101660000168820461210243610421C16801C161F2
:101670002402210343610121816801816105210266
:101680006124610121C16802610361210361246158
:101690000121816802610361216102612101C1218F
:1016A00061012B612F0C6100180E030F001B01025A
:1016B0000E040000050012001B0004001802010EB9
:1016C000150E01E16F0121012101210121012101FB
:1016D00021012101210121012101210121012101FA
:1016E0002101210121C121C121C121C121C121C16A
:1016F00021C12101210F226F012F0124C12A0122C2
:10170000C123C127C10128C123C12281C129C1240C
:10171000012F81C129C1240128C123C1220122C175
:1017200023C127C10124C12A012F01306F81028109
:1017300005810521018201C1820581C1012102C10A
:101740000281028101C10421038102C18101810161
:10175000810181012102810581028202210381C16F
:10176000820281038101210181C103C1810281C102
:1017700081022181028102810281038101226D01A6
:101780002100150E0210010E0E01130000001B00B7
:101790000F010C0E0004860E81042306618206618F
:1017A000240521C1066182012661240523058202E8
:1017B000A124A16121C2210923A104A124A16124A2
:1017C0000923A1012281A121C221A16104A1230534
:1017D00021C2A1012201A124A16104A1230523A109
:1017E0000A6104A1C221136104A12309A122A10657
:1017F0006108A123A104A1C2A10661A12304A12320
:10180000A104A122A10661A123012201A101C1011C
:10181000A10E61A1C221012201A123A10E61A12378
:101820001761083C00100C030E041709070B050094
:10183000001B0000011B0100021A010F0418090619
:101840000B00E11F19856105618661210521610693
:1018500061856106612101C103216101C104610546
:101860006103C1026125A121612301C1012162033C
:101870002DA121612701610CC1056125C1026122F1
:1018800003C121C10322056126C101612202C123D6
:10189000C10222056127C1612201C125C1012203C4
:1018A000C10161286122A12B614221612107610EE2
:1018B000610122612102C10222610E6101226128BF
:1018C0006184612461C1836101226121076102C1D8
:1018D000016122C1216121022161C12261326124A1
:1018E000612361001206020A031A090B0E000E01A1
:1018F000050705080509050A050B050C050D050E6C
:10190000050F0201190100061809001F8802850C45
:10191000610861810561016124610461870161865B
:10192000016121016181012161036107612102835C
:10193000016121026101C101A16102610661A10190
:101940002161036121036103C121026102820161FE
:1019500004216101810283618421610121630161AC
:1019600021C161220121610221082161210121623D
:101970000161276102240127A1230161210221C104
:1019800001216181610481046122A1230161270297
:1019900061240124612101C1012201612101C121D0
:1019A0000221610161210122012461260161276177
:1019B0000161240122C12161260161210221C102AC
:1019C0006101612104210361210322016127610179
:1019D0006122A123A122612101C1032161062161AC
:1019E0002161032102C10261000008030701020610
:1019F0001A0A0500000001000200030004020108A9
:101A00000113011B0100E11F0EC10B426144094497
:101A1000614603610421C1062104612101876185BA
:101A20002105218561416102C121C1026102C10319
:101A3000210321066121618202210261830121616A
:101A40000121012103C1036141036102210521013B
:101A50006102A1086121C102610321032102610920
:101A6000C101614101826142210121012103612102
:101A700001860121016121610721A1046101210188
:101A8000C104210261416103C16123056102210496
:101A90002101C1016124612161418761032102218A
:101AA000022261246101610DA205610461016114DA
:101AB0006104614726442447000F0F020B04100401
:101AC0000A070014000701140107021402070E148C
:101AD0000E070F140F00001B0009031203001C2641
:101AE000620D612963C20DC16323622363C10AC110
:101AF0006321A12162C16321A12163C106C16323C6
:101B00006303C1632363C102C16321A1216307C1D0
:101B10006321A1216623630BC163236223630FC189
:101B200063216221630FC163236223630BC16323BB
:101B30006621A1216307C16321A12163C102C163A1
:101B4000236303C1632363C106C16321A121630130
:101B50006221A12163C10AC16323622363C20DC153
:101B60006329620D61260020064B000000190075F4
:101B7000054B000000190027054B000000190097D5
:101B8000044B000000190017044B0000001900B8B6
:101B9000074B0000001900E0064B00000019001080
:101BA000034B0000001900BA024B0000001900931B
:101BB000024B00000019004B024B00000019000B03
:101BC000024B0000001900DC034B000000190070FC
:101BD000034B000000190088014B00000019005D54
:101BE000014B00000019004A014B000000190026BB
:101BF000014B000000190006014B0000001900EE27
:101C0000014B0000001900B8014B0000001900C48E
:101C1000004B0000001900AF004B0000001900A5A8
:101C2000004B000000190093004B000000190083D6
:101C3000004B0000001900F7004B0000001900DC09
:101C4000004B000000190062004B00000019005713
:101C5000004B000000190052004B00000019004921
:101C6000004B000000190041004B00000019007BF0
:101C7000004B00000019006E004B000000190031FD
:101C8000004B00000019002C004B00000019002937
:101C9000004B000000190025004B00000019002136
:101CA000004B00000019003E004B000000190037F7
:101CB000004B000000190000804B024B0000000F99
:101CC000004B024B0000000F004B024B0000000FC6
:101CD0000026014B000080E0060F0017040F0027CC
:101CE000050F0000800A08180060008000200040F6
:101CF0000000006000900020000000000000008054
:101D0000100020800000800000200000000040093A
:101D10000FA8D69D2BA2AC932A75BB08B3DBB106E6
:101D2000090F88769D7A995DCBDA756AD46DD7B143
:101D300001090FB8969F6AA274D7ABCFCDBC9D7531
:101D40003B2B0607A8D2E9743A2E0407723A9D8EFF
:101D50000A06077C3A9D4E470704079D4BA7A3033D
:101D6000030788E5030792CC0407B8D2E99C530423
:101D7000077C3A9D760E0607DE6EB7DBED7607042C
:101D800007A59276BB5D010607B7DBED76BBDD02EA
:101D90000407A5926ABBDD020307F8743A030775CE
:101DA0009A100407D476BB924A2A0407B7DBAD54D5
:101DB00052011507A54E472555552A1595F3D99C6F
:101DC0002293AA2A958A4AEA745C95032907522E1F
:101DD00095AA4A95E272AA9295755452E5B3924A31
:101DE000AAAA542A6EE552A9544E71399F4E392E33
:101DF000A9AA52A9A8A4AA64656B4A550A2907D3BF
:101E000069A9A293AA9295ADA9F64A4DEF54252B44
:101E1000EBB8944BA5AA52A5B89CAA64651D552A97
:101E200025552A2AE9F24949A94A010E07A54E4734
:101E3000E57C36A7C8A44EC75571011307522E95ED
:101E4000AA4A95E2522E954AE51497D4E9A8A44AE5
:101E5000A552394556390F07A5CB67B3924AAAAAAE
:101E6000542A2AE9F249C9553904050E11110E0008
:101E7000121F10121915120A11150A06051F041750
:101E80001515090E151508011905030A15150A126D
:101E90001509061907EA5455AA2AD59129974AA582
:101EA00072159972A9542AA7B8A4AA64656B2AA9C5
:101EB000AA52A9B82A2EF4F5F9F6F7F8FBFAFFFCB6
:101EC000FDFE0002030401060508090A070B0C0EBB
:101ED0000F008801640000001400DC0364000000AF
:101EE00014004B0264000000280017046400000086
:101EF00014002705640000001400200664000000A0
:101F000028000080200664000000140027056400FB
:101F10000000140017046400000028004B02640055
:101F200000001400DC036400000014008801640059
:101F3000000028000080E0061E0000000A00E00605
:101F40001E000080D5F08D14A1C881CFD9F1AF203B
:101F5000005717A38B2E2E47175D74D145175D745C
:101F6000D145175D721F5D74D145175D74D145175A
:101F70005D749129BAE8A28B2EBAE8A28B2EBAE83A
:101F8000A28B2EBAE8A28B2EB98F2EB4499D4EC7D4
:101F9000A55C2A954AA5728A2E5795AA4A55E51C32
:101FA0009772A9542A954A491449974DE71D97728B
:101FB00055A9AA5455EEA24AE52A9BAD5C2A2AE708
:101FC00052A9543624DDD7575595AA2A3559AE2A39
:101FD0005595AACA392AA9F2CAA525977255A9AA60
:101FE0005455AEA35485ACE8A28B2EBAE8A28B2E32
:101FF000BAE8A28B2EBAE8A28B2EBAE8A28B2EBA30
:10200000E8A28B2EBAE8A28B2EBAE8A28B2EBAE8F1
:10201000A28B2EBAE8A28B2EBAE8A28B2E32450FE5
:10202000A38B6DB9554E29BB73A76C3EBAE8A24B82
:10203000293FDB4A112593A5E8B2D94AA62B9B4F2D
:10204000395BC988625BA62B999F4CD96C25F393A9
:1020500029BAC8145D7429E7A38B2EBA58A3EB7470
:10206000AE93CA29ED6EC5145D74D145A77C4E911F
:10207000C594733A975F763AD7D9647ED9E95C45BF
:10208000A67CAED33945E6B8A28BEE93DD5DC96A76
:1020900049155DBE72D145175D74791B07B22E9547
:1020A0004A653BAD5D369D7754D265D3F9E894AB74
:1020B0004A55A5AA721D977255A9AA5455AE031088
:1020C00007B22E954A65E3723EA77CCA9129974ACA
:1020D000A552A99C220210079C72A9542A95CA29CC
:1020E0002EE9B2E9BCE352AE2A5595AACA75591F2A
:1020F000A38B2EA764E7D29DDCE7D28E2EB66D7A35
:10210000BAD8B6E9E962DBA6A78B6D9B9E2EBAE82A
:1021100062DBA6A78B6D9B9E2E9B9E6D9BCFA6B769
:10212000E9E972694717DB363D5D4EE96D3EBA6CF1
:102130007A9B8F2E7439974EC79C733A2E652B5914
:10214000C9CA756CD94A56B2728EAB9395AC6465A8
:102150002353B69295AC5C872BE5D3E95CC7A57C8D
:102160003A9D53648E4B91392E2BD3E99CE2CB39A7
:102170001D97B295AC64E53A2EE5D3D9C894AD6409
:10218000252BD7416FF7B5AB4AA952A9C97255A9FA
:10219000AA5455CE514995572E2DB994AB4A55A501
:1021A000AA721D2C1B5D74D145175D74D145175D56
:1021B00074D1C594EB742EBAE8A28B2EBAE8A28B28
:1021C0002EBAE8A28B2EBAE8A28B2EBAE8A28B2EEA
:1021D000BAE8A28B2EBAE8A28B2EBAE8A28B090A23
:1021E00010000000000000000000000000000000DF
:1021F0000000000000EFEFE0EFEFEFEF0FEFEF0177
:10220000010101010101000101FFFFFFFFFFFFFFCD
:10221000FFFF00010101010101010101000000FFB8
:1022200042424242FF0000000003000000000300A1
:10223000000202020202020202020200000000008A
:102240000000000000EFAFE06FEFEFED0FEBEF01EC
:102250000101010101010001010000B0B000B0B0B6
:1022600000000000000101000101000000EFEFE0AC
:10227000EEEEEEEE0EEFEF010101010101010001B2
:1022800001EEECE0E8E8EAE808ECEE01010101010A
:102290000101000101ECE0C0C088808000E0EC0199
:1022A000010101010101000101E0800000080001BD
:1022B0000086E001010101010101000101000000AF
:1022C000000000000000000000000000000000000E
:1022D00000E08080000000000080E00101010101B9
:1022E0000101000101ECE0C0808080C000E0EC0151
:1022F000010101010101000101EFECE0E8E8E8E87B
:102300000CECEF01010101010101000101EFEFE01F
:10231000EEEEEEEE0FEFEF01010101010101000110
:10232000013F0FA5AA64656B2AA9AA52A9B83A551C
:1023300095AA4A755CCEA7538E4BBA7C362BA9A4BE
:10234000AA4AA5E2562E95AA4A95E272AA929575D6
:1023500054D2E5B359492555552A15D2A5AA646525
:102360006B2AA9AA52A9B83A5595AA4A755CE9B44C
:1023700054F13955C9CA3A2AA92A59D99A2A9D9697
:102380002A7EE552A9AA54292EA72A595947255D24
:102390003E9B95545255A55221122C07EA5455AA3A
:1023A0002AD571A5D352C5E754252BEBA8A4AA645E
:1023B000656BAA745AAAF8954BA5AA52A5B89CAA0F
:1023C00064651D9554F9ACA492AA2A954A010207A6
:1023D000A55336090000F4019C00A5000000A800E8
:1023E00093009C0000000900E9009C000000090027
:1023F000A5009C0000000900F7009C0000000900F7
:10240000A500A5000000A800E900A5000000A800A4
:1024100083009C0000000900D0009C00000009001F
:1024200093009C0000000900E9009C0000000900E6
:1024300093009C00000009008B009C000000D00766
:102440000180080B000202020100090400000102E1
:1024500002000005240010010524010101042402EA
:102460000605240600010705810310004009040148
:1024700000020A0000000705020240000007058371
:10248000024000000403090412010002EF020140AF
:102490004123368000010102030141726475696EB7
:1024A0006F204C4C430041726475696E6F204C651F
:1024B0006F6E6172646F000102040810204080009A
:1024C000752D11241FBECFEFDAE0DEBFCDBF11E0C6
:1024D000A0E0B1E0E8E1F7E602C005900D92A43A71
:1024E000B107D9F727E0A4EAB1E001C01D92A23FED
:1024F000B207E1F712E1C1E6D2E104C02197FE0183
:102500000E948433C036D107C9F70E94C12D0C94B4
:102510008A330C9400008091B90108958150833072
:1025200008F18AE0869F9001879F300D1124849FD7
:10253000B001859F700D1124E6EFF2E0808184FFE9
:102540000AC0828193818217930729F4848195813F
:102550008617970739F03E9683E0EA34F80771F75B
:1025600080E0089581E00895873030F4843040F5AC
:10257000882331F180E008958031E0F78AE0869F7A
:102580009001879F300D1124849FB001859F700DAD
:102590001124E6EFF2E0808184FF0DC082858B304C
:1025A00051F4828193818217930729F48481958164
:1025B00086179707F9F23E9683E0EA34F80759F751
:1025C00081E00895853039F120F4882321F180E0FD
:1025D000089587508830D8F78AE0869F9001879FBA
:1025E000300D1124849FB001859F700D1124E6EFFA
:1025F000F2E0808184FF0AC0828193818217930771
:1026000029F4848195818617970709F33E9683E024
:10261000EA34F80771F781E00895982F8C3198F427
:102620006F3F99F0603198F4E82FE69580E1E89FDC
:10263000F0011124E052FE4FE60FF11D868190FF5C
:1026400082958F70089581E0089580E0089582E07A
:102650000895E82FE69590E1E99FF0011124E052FA
:10266000FE4FE60FF11D968180FD08C09F7080E14E
:10267000489FA0011124942B96830895907F492BA5
:10268000468308950F931F93CF93DF93EC01E6EFFA
:10269000F2E0062E000C770B042E000C550B808107
:1026A00084FF05C08F7098819F70891307C03E9684
:1026B00083E0EA34F80799F780E02BC02181822F6C
:1026C0008F70A281B3818A0F9B2F911DAA81BB813C
:1026D000A60FB71F8C01065F1F4FA017B1073CF76D
:1026E0001A968A179B071CF722952F708481958173
:1026F000280F392F311DAC81BD81A40FB51FC90131
:102700000A96A817B9079CF61A962A173B077CF673
:1027100081E0DF91CF911F910F910895803891054D
:10272000B0F46034710598F4E7EBF4E290E1969F21
:10273000D001A0781124A80F6770E60FF11D9491C5
:10274000A65BBC4F442321F08C91982B9C93089559
:1027500090958C919823FACF0F931F93CF93DF938B
:10276000C82FD62F042F10E041E0B8018C2F90E045
:102770000E948E13CE5FDC17B8F7DF91CF911F91C7
:102780000F910895480F592F511D1416150694F5F1
:10279000803891057CF597FF02C090E080E04138D9
:1027A000510514F040E850E0481BFB01E770FF279B
:1027B00021E030E001C0220FEA95EAF7209577FF8B
:1027C00002C0695F7F4FFB0133E0F595E7953A95CD
:1027D000E1F7F695FE2FEE27F795E795E80FF91F3D
:1027E000E65BFC4F415030F08191DF01119782236D
:1027F0008C93F8CF08958F929F92AF92BF92CF9211
:10280000DF92EF92FF920F931F93CF93DF935C01C0
:10281000EB01042FE22E6034710510F40E94C21304
:10282000EC0EFD2EF11CB701615071096034710589
:1028300020F4402FC5010E94C213D7FF02C0D0E090
:10284000C0E04E01670181E4E816F1041CF080E469
:10285000C82ED12C8C149D044CF440E0B401C50169
:102860000E948E138FEF881A980AECCF0A0D1B2D49
:10287000111D01501109CC15DD053CF440E0BE01ED
:10288000C8010E948E132196F6CFDF91CF911F9140
:102890000F91FF90EF90DF90CF90BF90AF909F90FF
:1028A0008F9008958091D80190E02091E2013091BD
:1028B000E301821B930B2AE030E0B9010E9405324C
:1028C000863020F0A901481B5109CA0121E0059773
:1028D0000CF020E0822F0895CF92DF92EF9280914A
:1028E000E607282F30E0F901EE0FFF1FE20FF31F7C
:1028F000E655F84F20813181428181508093E6076F
:10290000EAEAF7E090E0981740F4C380D480E580CD
:10291000C192D192E1929F5FF6CF842FB901EF90DF
:10292000DF90CF900895FC018091D601882311F1AA
:102930003FB7F89482E08093E9002091F200822F63
:1029400090E01816190614F481E090E0882339F01D
:10295000289844E64093D5014091F100408322231A
:1029600039F02091F200211103C02BE62093E800FA
:102970003FBF08958FEF9FEF08952FB7F89483E03E
:102980008093E9009091E800892F807295FF04C040
:102990009091F20080E4891B2FBF08958091CD01B2
:1029A00081110DC082E08093C90184E08093CA0147
:1029B0001092CC011092CB0181E08093CD0189EC83
:1029C00091E00895CF93DF931F92CDB7DEB769836F
:1029D000DC01ED91FC910280F381E02D41E050E0BB
:1029E000BE016F5F7F4F09950F90DF91CF910895E2
:1029F00083E08093E9008091F200882319F08AE354
:102A00008093E80008950E94BD1490E00895CF934C
:102A1000DF931F92CDB7DEB7FC018485958597FDC6
:102A200008C02FEF3FEF358724870F90DF91CF91BC
:102A30000895CE0101960E949314019719F489819B
:102A400090E0F3CF8FEF9FEFF0CF0F931F93CF93D3
:102A5000DF931F92CDB7DEB78C01FC01848595858D
:102A600097FF0BC0CE0101960E949314019771F459
:102A7000898190E0F80195878487F80184859585A0
:102A80000F90DF91CF911F910F9108958FEF9FEFDE
:102A9000F1CFFC018485958597FD0BC09FB7F89415
:102AA00082E08093E9008091F2009FBF90E0019660
:102AB00008959FB7F89482E08093E9008091F20036
:102AC0009FBF90E008954091C3015091C4012091AF
:102AD000C1013091C20142175307B4F49091E8004C
:102AE0009570E1F39091E80092FD19C08093F10098
:102AF0008091C3019091C40101968F739927892B0E
:102B000019F48EEF8093E8008091C3019091C40185
:102B100001969093C4018093C30181E0089580E001
:102B20000895EF92FF920F931F93CF93DF93F82EA8
:102B3000192FE62E042F81E0860F880F0E9463155F
:102B400083E00E946315CF2DD12FEC0EFD2EF11CDA
:102B5000CE15DF05B9F007FF13C0FE0184910E9476
:102B60006315182F80E00E9463158123219681113F
:102B7000EFCFDF91CF911F910F91FF90EF900895CC
:102B80008881EDCF81E0F5CFDF92EF92FF920F9336
:102B90001F93CF93DF93D82E8A01EB017B01E40EC4
:102BA000F51ECE15DF0559F0D7FE12C0FE01849147
:102BB0000E94631521968111F4CF0FEF1FEFC8011A
:102BC000DF91CF911F910F91FF90EF90DF900895CB
:102BD0008881EECF0F931F93CF93DF931F92CDB7D2
:102BE000DEB782E0898342E450E062E474E280E888
:102BF0000E94C4150E94CE14DC0112960D911C9106
:102C00000115110589F0D801ED91FC910280F38145
:102C1000E02DBE016F5F7F4FC801099597FD04C08D
:102C2000F80100851185ECCF89810F90DF91CF915C
:102C30001F910F910895615030F02091F100FC0137
:102C400020830196F8CF289884E68093D5010895D3
:102C50003FB7F8948091B5019091B601A091B7016A
:102C6000B091B80126B5A89B05C02F3F19F0019679
:102C7000A11DB11D3FBFBA2FA92F982F8827BC01D6
:102C8000CD01620F711D811D911D42E0660F771FFE
:102C9000881F991F4A95D1F708958F929F92AF92FE
:102CA000BF92CF92DF92EF92FF926B017C010E9464
:102CB00028164B015C01C114D104E104F104B9F000
:102CC0000E942816681979098A099B09683E734091
:102CD0008105910580F321E0C21AD108E108F108CD
:102CE00088EE880E83E0981EA11CB11CE4CFFF90F3
:102CF000EF90DF90CF90BF90AF909F908F9008950E
:102D00008F929F92AF92BF92CF92DF92EF92FF92FB
:102D10000F931F93CF93DF936C017B018A01809106
:102D20000C01882309F45CC08091D601882309F442
:102D300057C08091C80180FF05C08091E00082608B
:102D40008093E000E801B12C8AEFA82E93E0892E51
:102D50002AE3922E209711F4BB20D9F10E94BD14D2
:102D600081110AC0AA94AA20D9F161E070E080E044
:102D700090E00E944D16EECF8C171D0611F00CF05E
:102D80008C2F9FB7F8948092E9002091E80025FDF0
:102D900002C09FBFDFCF282F30E0C21BD30BF7014B
:102DA000815020F041914093F100FACFE20EF31EE2
:102DB000BB2021F09092E800B12CEBCF8091E8008D
:102DC00085FDE7CF9092E800BB24B394209709F3E8
:102DD000F3CF5D9884E68093C701101611063CF08E
:102DE00081E090E0F6019383828310E000E0C80167
:102DF000DF91CF911F910F91FF90EF90DF90CF90D7
:102E0000BF90AF909F908F9008952091AD01E09179
:102E1000AB01F091AC01CF0102969093AC0180938D
:102E2000AB01222319F085919491089580819181BD
:102E30000895E1E7F0E080818D7F8083109291001A
:102E4000469847981092BF010895CF92DF92EF9273
:102E5000FF92CF93DF930E940517811520E8920718
:102E600041F4DF91CF91FF90EF90DF90CF900C94E1
:102E7000191721E02093BF01813020E8920751F417
:102E80008091A9019091AA019093AC018093AB012C
:102E90000E94051797FD05C02091A801222309F47F
:102EA0005BC02091A701211157C021E02093AE0102
:102EB000EC01DF77209709F052C081E08093AF01E9
:102EC00046983FE9C32E3FE0D32EE12CF12CCAEF08
:102ED000D0E0E091A807F091A9070995811103C0FE
:102EE00081E08093AF018091AE01882329F0809129
:102EF000AF01882309F446C047980E940517009740
:102F000009F444C09C01DE010E946933DC01CB015D
:102F100029E0B595A795979587952A95D1F71092B1
:102F200090002AE020939100D0929900C0929800DE
:102F30008093B0019093B101A093B201B093B3011B
:102F400080917100826080937100DF91CF91FF903A
:102F5000EF90DF90CF9008951092AE01A9CF9E011F
:102F600050E040E060E472E48FE090E00E941533AE
:102F700069017A0181E0C81AD108E108F1081092CC
:102F8000AF01A7CF4699B8CF479AB7CF8FEF9FEF42
:102F9000DC01C5CF9C01E1E7F0E090819D7F90834B
:102FA00081E08093AD013093AC012093AB0130936D
:102FB000AA012093A9010C9425177F928F929F92CA
:102FC000AF92BF92CF92DF92EF92FF920F931F9337
:102FD000CF93DF93DC01FA01D490319694914E5F48
:102FE0005F4FCD2DD0E02223E1F001E010E0892FEA
:102FF000877011F410E000E0E92FE695E695E6957C
:10300000E00FF12FF11DEC9F8001ED9F100DFC9F53
:10301000100D1124209FF001219FF00D11244E0F5F
:103020005F1F7E01EA0EFB1E1E141F040CF0A6C0DB
:10303000A038B1050CF0A2C09B01290F311D12165A
:1030400013060CF09BC0603471050CF097C041155D
:10305000510509F493C0062F07709B0177FF02C04A
:10306000295F3F4F83E0359527958A95E1F7F22F49
:1030700077FF04C0002311F0FFEFF20F2227332760
:103080002A1B3B0BB7FD02C030E020E010E81A1B02
:10309000712E10E8E116F1040CF47D2C721A6F2FDA
:1030A0000F2E000C770BF62EF094FF3F0CF0F12C56
:1030B000E1E0892F877009F4E0E096959695969562
:1030C0009E0F690F711D6930710514F098E09F1B08
:1030D0009F2C9F0E692D70E8670350011124AA0DE3
:1030E000BB1DA20FB31FDF9C200D311D1124420F09
:1030F000531FC02E002E000CDD082FEF30E0002EF5
:1031000002C0220F331F0A94E2F720953095832ED8
:103110009F0F991599F1FD01E65BFC4F7F01B12CE2
:10312000A12CA71428F5FA01EA0DFB1D649170E0AB
:103130000C2C02C0660F771F0A94E2F797FC05C0BB
:10314000F70180818223862B8083002351F0F6E0F3
:10315000F9153CF0F701E058FF4F80818821872B5B
:1031600080831FEFA11AB10A6FEFE61AF60AD9CFD2
:1031700093944C0F5D1FA058BF4FCBCFDF91CF91E1
:103180001F910F91FF90EF90DF90CF90BF90AF9085
:103190009F908F907F900895BC0190E080E00C9408
:1031A0004D168FB18095807F669B88601C9B8460E4
:1031B000089508951F93CF93DF93DC0130E020E062
:1031C00050E040E011E0C1E0D0E02617370791F170
:1031D00014968C911497811115C014961C93149712
:1031E00012968D919C911397ED91FC911197E80F98
:1031F000F91FE4911596EC931597019613969C93FD
:103200008E93129714969C91149715968C911597FE
:10321000892349F0FE01022E02C0EE0FFF1F0A941F
:10322000E2F74E2B5F2B990F14969C9314972F5F08
:103230003F4FCBCFCA01DF91CF911F9108952F92BD
:103240003F924F925F926F927F928F929F92AF9236
:10325000BF92CF92DF92EF92FF920F931F93CF9383
:10326000DF93CDB7DEB72F970FB6F894DEBF0FBE52
:10327000CDBF4C017B012C870D875A8349831C826B
:103280001B821D821E8268E070E0CE0101960E94C2
:10329000DA181C019C012F5F3F4F3B872A8768E0AB
:1032A00070E0CE0101960E94DA188C0161E070E0B6
:1032B000CE0101960E94DA182A853B85280D391D1A
:1032C00037FDF5C030E8831691040CF0F0C00F5FB5
:1032D0001F4F98012E0D3F1D37FDE9C040E4E41655
:1032E000F1040CF0E4C06701F7FE04C0CC24DD2437
:1032F000CE18DF0857E0C522DD242701F7FE03C002
:1033000097E0490E511C73E0559447947A95E1F784
:10331000F7FE09C021E0421A510828E030E0A90177
:103320004C195D096A01980117FF02C0295F3F4FE0
:10333000A90163E0559547956A95E1F758874F8352
:1033400007701127012B21F04F5F5F4F58874F8384
:103350000D857101011102C0F12CE12C898701E07A
:1033600010E0B12CA12C88E090E09C012C193D09C3
:103370003F872E874F815885A416B5060CF097C05D
:1033800066246394712C61E070E0CE0101960E9486
:10339000DA18892B21F452E0650E711CF4CFB301C9
:1033A000CE0101960E94DA1801963C0170E060E0BF
:1033B0006615770508F071C089858111102BA02F43
:1033C000AA0F09F067C0A2014A0D5B1DCA01019650
:1033D0000997D0F5C4018E0D9F1D80389105A0F589
:1033E000CA019695982F882797958795880D991DDE
:1033F0008E0D9F1D4F3F540709F454C0212F0C2CF4
:1034000001C0220F0A94EAF7FC01E65BFC4FB08191
:103410000C85002371F12B2B2083C114D104A1F062
:103420004730510589F0212F30E00E8402C03595D8
:1034300027950A94E2F7FC01E653FC4F10814C8576
:103440004423D1F0212B20830D85011118C02FEFCB
:10345000E21AF20A4A855B85E416F506CCF05FEFC6
:10346000A51AB50A01E0F12CE12C6F5F7F4F1A2FEE
:103470009FCF20952B23D0CF20952123E4CF81E02F
:10348000E81AF108F7FE04C09FEFA91AB90A710102
:1034900001E0EBCF0A2FA12FE8CF298531E02327C8
:1034A000298768CFC114D10409F0BDCFCDCF2F96A5
:1034B0000FB6F894DEBF0FBECDBFDF91CF911F9145
:1034C0000F91FF90EF90DF90CF90BF90AF909F90C3
:1034D0008F907F906F905F904F903F902F900895C6
:1034E0008091D80190E02091E2013091E301821BAC
:1034F000930B6AE070E00E9405329C0181E0232B6F
:1035000009F080E008959091DE01981714F0691792
:1035100014F48093DE0108951092D9011092E40111
:1035200082E08093DA011092E5018091D801873121
:1035300060F08091E2019091E30189399F4F2CF076
:103540001092DA018EEF8093E5010895FC01228547
:10355000261714F0421714F4FC0162870895809135
:10356000DD0181508093DD0196E090930001882376
:1035700039F08AE08093DF0184E09FE10C94CA1760
:1035800088E0F8CF882329F083508D3010F080E058
:10359000089581E00895813028F0843028F0875024
:1035A000893010F080E0089581E00895CF93DF9393
:1035B00082EB90E00E94D1328093C60283EB90E0D0
:1035C0000E94D132C7EDD1E08E8384EB90E00E945F
:1035D000D9329D838C83DF91CF910895CF93DF9370
:1035E000D82F8FEA90E00E94D132C82F80EB90E074
:1035F0000E94D132D11104C0CC3411F4823539F19A
:103600006CE48FEA90E00E94DF3262E580EB90E0AC
:103610000E94DF3286EB90E00E94D132682F81EB6E
:1036200090E00E94DF3287EB90E00E94D132682F59
:1036300082EB90E00E94DF3288EB90E00E94D13272
:10364000682F83EB90E0DF91CF910C94DF32DF9114
:10365000CF9108951F93CF93DF93C091C6026C2F33
:1036600082EB90E00E94DF326C2F87EB90E00E94AB
:10367000DF32C7EDD1E01E81612F83EB90E00E9425
:10368000DF32612F88EB90E00E94DF320C80DD8119
:10369000C02DBE0184EB90E00E94F132BE0189EBA7
:1036A00090E0DF91CF911F910C94F132BF92CF92B5
:1036B000DF92EF92FF920F931F93CF93DF93EC0172
:1036C0006E834F83862F880F880F860F8F70A42FED
:1036D000AA0FAA0FA40F90E1A902D00111248A2BEE
:1036E00089838CE067FD03C0662311F084E08C873A
:1036F00047FF44C01C862223B9F11985111134C03B
:103700008C85811141C01D868A819B812AE030E031
:10371000B9010E941932062F8C819D81B9010E9446
:103720001932FF24FA94F60ECC24CA94C00EBB249E
:10373000B394B00EDF2CD11A6D2D802F0E940D1383
:10374000833089F46D2D8C2D0E940D13E82E6D2D84
:103750008B2D0E940D131F5F9DEF9E0D923018F070
:103760008350823038F71987DF91CF911F910F91E5
:10377000FF90EF90DF90CF90BF900895442309F41D
:10378000BACF88E08C87B7CF0E94793226E030E04C
:1037900040E050E00E9415336987E6CF4F925F9278
:1037A0006F927F928F929F92AF92BF92CF92DF9251
:1037B000EF92FF920F931F93CF93DF93CDB7DEB7B6
:1037C0003C01502E4B889C88BD88203108F0BDC03C
:1037D000082D9E2D842EE62EE22FF0E0EE50F44EC2
:1037E0000C948433021C021C021C1E1C1E1C1E1C7A
:1037F000A71CA71CA71CA71CA71CDA1CDA1CDA1C18
:10380000021C021C992321F0935010E0923008F41E
:1038100011E046EF60E0C3010E94421393E05912A9
:1038200094C01123E1F1811190C046E065E0C3012D
:103830000E94A61A2B2D4EEF60E02EC040E06AE0F9
:10384000C3010E94421311E01827912CEFEF8E1A4A
:103850009E0AF12CA401B701802F0E94E212D82EFB
:10386000B7016F5F7F4FA4018A2D0E94E212E82EFC
:103870008C2D0E94C21AF82E8A2D0E94CB1AF4E0D9
:10388000CF121FC01123E9F04AE067E0C3010E9494
:10389000A61A2B2D40E062E0C3010E94561B812F27
:1038A000DF91CF911F910F91FF90EF90DF90CF901C
:1038B000BF90AF909F908F907F906F905F904F9050
:1038C000089594E0591214C0FF20D9F0882309F418
:1038D000D1C0112309F4D5C044E061E0C3010E94C6
:1038E000A61A2B2D40E062E0C3010E94561B17C0B0
:1038F000E3E05E1206C0FF2021F046E065E0111112
:10390000C5CFDD20B1F08BE0F30182872B2D42E0A3
:1039100060E0C3010E94561B0750093010F011E00F
:10392000BECF8FE1F301838786E39FE10E94CA1730
:10393000F6CF882331F0FF2041F0112309F4AFCFF7
:10394000CBCFFF2011F0E110F8CF10E0A8CF4AE074
:1039500060E0C3010E94421311E01827482D50E097
:103960004F5F5F4F6E2D70E0802F0E94E212033098
:1039700059F4112309F493CF4BEF6AEFC3010E946E
:10398000A61A2B2D42E058CF8823F9F2112309F40F
:1039900086CF8BE0F30182872B2D42E060E0C301EC
:1039A0000E94561B0750093008F0B9CF8FE1F30190
:1039B000838775CF40E066EFC3010E94421311E098
:1039C0001827C82CD12CFFEFCF1ADF0AF12CA60143
:1039D000B701802F0E94E212A82EB7016150710931
:1039E000A601842D0E94E212E82E892D0E94C21A9F
:1039F000F82E842D0E94CB1A94E099120BC011234B
:103A000049F049EF66EFC3010E94A61A2B2D40E052
:103A10006EEF6ACFE4E05E1209C0FF20B9F08823A0
:103A200069F1112391F14FEF6CEFEDCFF3E05F12ED
:103A30000DC0FF2059F0112349F046E065E0C301B5
:103A40000E94A61A2B2D40E06EEF26CFA1105BCF6F
:103A5000882339F0FF2009F478CF112309F41FCF10
:103A6000E2CFFF2009F471CFEE2009F46ECF1111DF
:103A7000C8CF15CFDD2009F466CF45CFAA20A1F32A
:103A800042CFDD2009F40BCF3ECFAA2009F407CFA7
:103A90003ACF2F923F924F925F926F927F928F9286
:103AA0009F92AF92BF92CF92DF92EF92FF920F93CD
:103AB0001F93CF93DF93CDB7DEB72E970FB6F89451
:103AC000DEBF0FBECDBF8091D70190E02091E00115
:103AD0003091E101821B930B05962AE030E0B90199
:103AE0000E940532162F6E878091D80190E0409198
:103AF000E2015091E301841B950B0596B9010E94E8
:103B000005327B016D8780910001853009F077C116
:103B1000812F0E940D13082FC090EC07D090ED0765
:103B2000D094DC201092D9011092E4018091DE0142
:103B30008B3021F01092DA011092E5016E2D812F69
:103B40000E940D13863071F58091DB019091DC01AC
:103B500049969093DC018093DB0140E06E2D812F2C
:103B60000E9429138091C702882319F08150809305
:103B7000C702B090C702B11011C08091C802B81638
:103B800068F4EB2DF0E0EE0FFF1FE653FD4F43E02E
:103B9000618180810E942913B394EFCF87ED9CE16E
:103BA0000E94CA178091A5019C2D9C709C3009F041
:103BB000E4C18F5F8093A501853130F08D3308F427
:103BC00069C08D3309F479C08D2D8470D3FC02C097
:103BD0000C94CA2981110C94CD290E94701A882353
:103BE00011F40C94CD298091D70190E02091E0014F
:103BF0003091E101821B930B02966AE070E00E9413
:103C00000532162FDD24DA94D60E6E2D8D2D0E94EE
:103C10000D13A82EBB24B394BE0C6B2D8D2D0E94CA
:103C20000D13813011F00C94CD298FEF8A0D823065
:103C300010F40C94CD2953E0A51611F40C94CD2961
:103C400084EF8093DE011092D9011092E40147E0E5
:103C50006B2D8D2D0E9429138091E607843169F028
:103C600093E0899FF0011124E655F84FD082B1828C
:103C70009CED92838F5F8093E6078091EC078093A1
:103C8000ED070E94D1188093EC0789EB9CE10E941C
:103C9000CA1722C020E430E0A901481B5109CA011B
:103CA000880F93E894BD9FEF97BD91EF90938000AC
:103CB0001092880080938A0087CF1092A50183E834
:103CC00084BD8FEF87BD81EF8093800010928800C4
:103CD00010928A000E94AF1A8091EA0780FD8FC07F
:103CE0001092F70210920503109213031092210311
:103CF00010922F0310923D03E6EF6E2EE2E07E2E2F
:103D0000F301808184FF72C0828193816AE070E058
:103D10000E941932D62E6987848195816AE070E00D
:103D20000E941932F62E6A878D2D0E940D13B82E2F
:103D3000EE24E394EF0C6E2D8D2D0E940D13982E22
:103D4000F6E0BF121AC0D30118968C91811115C0EC
:103D50000E9479320E9479322AE030E040E050E05F
:103D60000E9415336C5E7F4F8F4F9F4FF30160872A
:103D700040E06F2D8D2D0E942913D3011A968C914E
:103D80001A978D309CF51296ED91FC91FC87EB878C
:103D9000CF016AE070E00E941932892B39F5D30116
:103DA00014960D911C91C8016AE070E00E941932CE
:103DB000892BE1F4F3018385882309F416C48085F7
:103DC000882379F0FA946F2D8D2D0E940D138111A7
:103DD00008C0D30118961C9246E06F2D8D2D0E94CD
:103DE0002913F3011782838581508387FEE06F0ECC
:103DF000711C2AE4621623E0720609F081CF8091DB
:103E0000EA079091EB076CE070E00E941932892B71
:103E100031F48091A40191E089278093A40110914D
:103E2000000188EF810F833010F40C94E827B12C47
:103E3000A12C712C912C812C612CC090E001D09090
:103E4000E101C80CD91CC60109968938910528F5ED
:103E5000E090E201F090E301EA0CFB1CC701099637
:103E600089349105D0F4672D862D0E940D13082FFB
:103E7000882339F0282F4FED51E2B701C6010E9487
:103E8000DD1729EF200F243040F4B7016A50710983
:103E900045EE5CE1C6010E94DD1763943AE0830EB3
:103EA000911C4CE16412C9CF73945AE0A50EB11C69
:103EB00080E17812BFCF153021F08091A4018823D2
:103EC000F1F08091DE01082F001F0027001F082E4F
:103ED000000C990B97FF03C0919581959109880F6C
:103EE000990BFC01E35EFE4F408151816091D80146
:103EF00070E08091D70121E090E00E941F1966EFE9
:103F0000262E62E0362E2101D2018C9184FFA9C4B5
:103F1000E091E001F091E101F887EF8312968D9036
:103F20009C9013976F01C80CD91C14962D913C914D
:103F30001597E090E201F090E301E20EF31E1B966C
:103F4000EC911B97E33108F058C5F0E0E655F04ED0
:103F50000C94843317241B251B251725172513259F
:103F600013250C250C2505250525FA24FA24012501
:103F70000125FA24FA2401250125882309F424CEF9
:103F800083E884BD8FEF87BD81EF8093800010921E
:103F9000880010928A001092A50116CE0E94701A15
:103FA000882311F40C94CD298091D70190E02091C1
:103FB000E0013091E101821B930B02966AE070E010
:103FC0000E940532162FDD24D394D60E6E2D8D2D32
:103FD0000E940D13B82EAA24A394AE0C6A2D8D2D29
:103FE0000E940D13813011F00C94CD298FEF8B0DB1
:103FF000823010F40C94CD29A3E0BA1611F40C947D
:10400000CD298CE08093DE011092D9011092E40159
:1040100047E06A2D8D2D0E9429138091E607843197
:1040200009F42BCEB3E08B9FF0011124E655F84F35
:10403000D082A1821DCEF4E02F1621F02F812430F2
:1040400009F0CDC168E087E00E94831A0E94191729
:1040500099C00E945214882309F455C08F8183505F
:10406000823010F18114910481F1011141C051108D
:1040700060C1892811F40C94262AB6016F5F7F4F26
:10408000A501862D0E94B412082F811111C0109233
:10409000D9011092E401002309F4A1C08BE08093C0
:1040A000DE010E948C1A18CE002389F3552029F0D6
:1040B00064E081E00E94831A65C03F816AE087E086
:1040C0003430C1F366E085E0F5CFA501B601832D5C
:1040D0000E94B412182F882311F40C94C5298BE088
:1040E0008093DE0187E69BE10E94CA17012FCFCFA4
:1040F000A501B6016F5F7F4F862D0E948E12882327
:1041000009F4BBCFD5CF62E06E0D872D0E940D1351
:10411000382E862D0E94C21A002311F40C94BA295D
:10412000882311F40C94B52936014FEF641A740AF0
:10413000A501B301832D0E948E1281111DC0892813
:1041400099F1642D812F0E940D13182F8F810E94E9
:10415000C21A082F882309F49ACFB6016F5F7F4FE8
:10416000A501812F0E94B412082F882309F48FCF54
:104170008BE08093DE016ACF64E081E00E94831AC5
:104180001092DE018091E2015AE0E59E800D11243B
:104190008093D8018091D7018C3390F482E0809392
:1041A000D9011092E4011BC0A501B301832D0E9427
:1041B000B412082F882309F46ACF66E085E044CF63
:1041C0002091E0013091E10129363F4F34F0109207
:1041D000D9018EEF8093E40102C087FFDFCF1092F8
:1041E000DA0181C1C5FEFDC06E2D812F0E940D1325
:1041F000782E8091D70190E02091E0013091E1018B
:10420000821B930B6AE070E00E9405324C0155243A
:104210005A94510E892B09F0512E6E2D852D0E9436
:104220000D13282E442443944E0C642D852D0E949A
:104230000D138F8381E0810F8114910409F4812F84
:10424000642D0E940D13382E822D0E94C21A082F51
:104250005701BB24AFEFAA1ABA0AC12ED12CA5016F
:10426000B601832D0E948E12682E0E94701A9091C2
:10427000DE019B3091F4882309F4AFC061100C94E7
:10428000222AB4E02B1611F07B12A9C069EF86EF49
:104290000E94831A0E9419177FC00E94521488231B
:1042A00009F44BC08DEF870D823020F18928A1F1F0
:1042B000011102C061103DC0642D812F0E940D13B9
:1042C000182F872D0E94C21AF1E0CF1AD108882337
:1042D00039F0A501B601812F0E948E1281110FC005
:1042E000A501B601812F0E94B412082F882309F47A
:1042F000CECE05C0002309F4CACE662029F06FEFA8
:104300008CEF0E94831A48C0E4E069EF86EF7E16C6
:10431000C1F366E085E0F5CFA501B601832D0E94CB
:10432000B412182F8111DBCE0111E9CF662009F4F8
:10433000AECE1092DE010C94262A62E06E0D852D21
:104340000E940D13182F8F810E94C21A002309F4B6
:104350009ECE882311F40C94262A21E0C21AD1089B
:10436000A501B601812F0E948E1281110FC0A501F7
:10437000B601812F0E94B412082F8928D9F0882312
:1043800009F485CE8BE08093DE0184CF6FEF8CEF54
:104390000E94831A1092DE018091E2013AE0E39ECE
:1043A000800D11248093D8018091D7018D3340F086
:1043B0008EEFF5CE882309F46ACE66E085E068CFFB
:1043C0002091E0013091E10137FF04C01092D90142
:1043D00082E000CF8111ECCF02CF01E058CE082F50
:1043E00056CEC7FE92C08091D80190E02091E201A4
:1043F0003091E301821B930B08966AE070E00E9403
:1044000005327B01B62E0E94701AC82E6FEF6E0D1A
:10441000811101C06E2D812F0E940D13D82ECC204A
:1044200019F0BB24B394BE0C6B2D812F0E940D1389
:104430009091DE0195301CF19730A4F09B30F9F497
:10444000043011F4C11099C0A70155274F5F5F4F89
:10445000612F70E00E948E12882309F422CE109200
:10446000DE0108C0CC2061F1033021F48FEF8D0D07
:10447000823030F50E9419171092D90192CE0E9415
:1044800019178091D70190E02091E0013091E1016E
:10449000821B930B2AE030E0B9010E94053286307E
:1044A00020F0A901481B5109CA0105972CF70330D8
:1044B00019F78FEF8D0D8230F8F285E08093DE01E1
:1044C0008091E0015AE0159F800D11248093D7015F
:1044D0001092D9011092E4018091D801883130F016
:1044E0008EEF8093DA011092E501F6CB2091E20184
:1044F0003091E30137FF06C01092DA0182E0809329
:10450000E501EACB8111ECCFE7CBC4FC09C0809177
:10451000DA01823029F08091E5018E3F09F0DCCB91
:104520008091D80190E02091E2013091E301821B5B
:10453000930B08966AE070E00E9405327B01B62E6C
:104540000E94701AD82E6FEF6E0D81116E2D812F83
:104550000E940D13C82EDD2019F0BB24B394BE0CAD
:104560006B2D812F0E940D13B82E8091DE018B30B0
:10457000C1F4043031F4DD2031F087E08093DE01B6
:1045800079CFD11008C0A70155274F5F5F4F612F2A
:1045900070E08B2D5FCF84EF8C0D843008F46ACFF0
:1045A000F2CF83E0B8120DC08091E0019AE0199F2C
:1045B000800D11248093D7016BEF8AEF0E94831A3C
:1045C00070CD8B2D0E94C21A882309F448CFB110F8
:1045D00003C08BE08093DE018091E001AAE01A9F86
:1045E000800D11248093D7015CCD6FEF6F0D8D2D61
:1045F0000E940D138F836F2DCC24C394CD0C8C2D72
:104600000E940D13582E6E2D8C2D0E940D13482ED6
:104610006E2DEE24EA94ED0C8E2D0E940D13382E93
:104620006F2D8E2D0E940D13282ED30119968C917B
:104630001997882309F46BC01F922F923F92892CFF
:10464000A42CC52CEF800B2D1D962C914F2D6D2D7C
:10465000C3010E94CE1BF3019185915091870F9069
:104660000F900F908111C2CB1485F30180858823B0
:1046700079F09FEF990D923058F4B11009C0815034
:104680008087811105C046E06F2D8D2D0E94291372
:10469000F1E0FF932F923F92892CA42CC52CEF8040
:1046A0000B2D212F4F2D6D2DC3010E94CE1B0F907E
:1046B0000F900F9081119ACBF12E78E0D72E112315
:1046C00009F49AC0115021E02F932F923F92892C28
:1046D000A42CC52CEF800B2D212F4A856985C301A1
:1046E0000E94CE1B0F900F900F90882309F448C6AC
:1046F000D3011A968C918B3009F078CB892D0E94CA
:10470000CB1A882309F472CBF30117826FCB809107
:10471000D70190E02091E0013091E101821B930BE1
:104720002B853C85281B390BC9012091D80130E02D
:104730004091E2015091E301241B350B021B130B46
:1047400097FF25C010161106BCF49195819591092B
:1047500008171907DCF180179107D4F511E0EDEF88
:10476000E10F80E0EC3020F4F0E0EF5EFE4F80815E
:10477000D3011D968C9379CF0115110559F10817B6
:10478000190754F1801791074CF515E0E8CF009711
:10479000C9F01016110644F4081719070CF1801718
:1047A000910704F51FE0DBCF01151105E9F0119524
:1047B0000195110980179107CCF008171907C4F467
:1047C0001BE0CDCF17FF16C018E0C9CF13E0C7CF4D
:1047D00012E0C5CF14E0C3CF17E0C1CF16E0BFCFC2
:1047E0001DE0BDCF1EE0BBCF1CE0B9CF19E0B7CFB5
:1047F0001AE0B5CF10E0B3CF1FE065CFF39431E0FE
:104800003F932F923F92892CA42CC52CEF800B2D27
:104810002F2D4A856985C3010E94CE1B0F900F90F2
:104820000F90811165CFDA94D11049CF61CF1A96DC
:104830008C91082F001F0027001F082E000C990BD9
:1048400097FF03C0919581959109880F990BFC0101
:10485000E35EFE4F4081518121E0B701C6010E9415
:104860001F19FEE04F0E511C2AE433E024153505D4
:1048700009F04ACB8090D701912C8091E001909172
:10488000E101881A990A6090D801712C8091E201A7
:104890009091E301681A790AD1018C9184FF34C0A8
:1048A00012968D919C911397A401481B590B149655
:1048B0008D919C91B301681B790BC090D8012C2D70
:1048C00030E0261B370BE090D7018E2D90E0841B43
:1048D000950B273FBFEF3B070CF00EC18F3FEFEF6B
:1048E0009E070CF44CC18C3791050CF050C1E39439
:1048F0008E2D841B51E5A52E5DE1B52E47E85DE1C7
:1049000090E08F3F09F02AC13EE0230E311C421493
:10491000530411F6812F8B7F833009F057C100912A
:10492000C001802F002E000C990B302F330F27E38E
:10493000231B40E450E0481B590B440FBC010E946C
:10494000FB13402F60E880E00E94AC1346E3401B5D
:1049500060E880E00E94AC13F12CE12CC02ED12C39
:1049600041E0B701C6010E948E1342E0E40EF11C43
:1049700052E4E516F104A1F7AFE7EA2EE01AD12CD4
:10498000C12CF12C41E0B601C7010E948E1382E0D8
:10499000C80ED11C92E4C916D104A1F7133009F056
:1049A000FBC20150E02E002E000CFF088BE190E0CE
:1049B0008E199F09880F20E430E02E193F09B22E8E
:1049C000BB0C902EA12CD12CC12C11E0180F97FC00
:1049D000F7C0C7018C199D09212F2A0D4B2D4A0DB7
:1049E000BC010E94FB139A94AFEFCA1ADA0AA3948F
:1049F000A394EDCFB1E0CB1AD10800E041E35DE133
:104A00002BCFEFEFCE1ADE0AF8CFF2E0EF1AF10863
:104A100000E040E25DE120CF24E0E21AF10800E08E
:104A20004FE05DE119CF36E0E31AF108F1CF48E03D
:104A3000E41AF108F4CF5AE0E51AF1082A503109D6
:104A400015963C932E9314971B961C92C4016AE012
:104A500070E00E941932062FC9016AE070E00E94DE
:104A60001932B62E77247A94700E872D0E940D137A
:104A7000682EAA24A394AB0C6A2D872D0E940D13D7
:104A8000782E0F5F6B2D802F0E940D13B82E6A2D8C
:104A9000802F0E940D13082F8091D70190E0EF81A5
:104AA000F8858E1B9F0B881599059CF4862D0E9416
:104AB000C21A8823C1F0872D0E94CB1A882399F04F
:104AC000EFEFD2011A96EC931A97FEEF1696FC932D
:104AD0009FCF8B2D0E94C21A882391F3802F0E94B2
:104AE000CB1A882369F381E0D2011A968C931A9726
:104AF000E2E01696EC938CCF25333105A4F08F3F7E
:104B0000FFEF9F070CF44CC08C3791050CF050C0A0
:104B1000E3948E2D841B42E4A42E4DE1B42E46E78F
:104B20005DE193E3EECE8C3F2FEF920754F49C2D82
:104B3000961B34E6A32E3DE1B32E4DE95DE180E006
:104B40000DC08C3791050CF4DFCE9C2D961B20E612
:104B5000A22E2DE1B22E48E95DE18CE7C92ED12CC1
:104B6000E82EF12C00E020E0B601C7010E941F19D9
:104B700021E0A501B601C7010E941F19C5CE99E524
:104B8000A92E9DE1B92E40E95DE190E0D8CF8FE6F6
:104B9000A82E8DE1B82E4AEA5DE190E08BE7DECFEA
:104BA0000AE4A02E0DE1B02E4FE75DE192E3C7CFFE
:104BB000B8E6AB2EBDE1BB2E42EA5DE192E3EECF5B
:104BC0000093C00184E00F3F09F4FFC110E000E052
:104BD000F7E3EF2EF12C40E0B701C8010E948E13DD
:104BE000FFEFEF1AFF0A20E4E216F104A1F70F5FCE
:104BF0001F4F0038110561F748E360E880E00E942C
:104C0000AC138091DB019091DC01FE01319626E02E
:104C1000DF011D922A95E9F77F019E01295F3F4F31
:104C20000AE010E0B8010E9419328193CB012E17DF
:104C30003F07C1F700E021E043E95EE16AE370E08D
:104C400090E080E00E941F1906E310E0F701219137
:104C50007F0149E65EE16AE370E0C8010E94DD176A
:104C6000055011090831110589F71091DD0100E0A7
:104C700021E046E55EE16AE370E080E490E00E94B6
:104C80001F19EAE0FE2E812F6F2D0E947833192F15
:104C9000282F49E65EE16AE370E082E590E00E9439
:104CA000DD17212F49E65EE16AE370E087E590E0D9
:104CB0000E94DD1710910001153009F0DAC1109142
:104CC000C70221E04BE35EE16AE370E080E690E03A
:104CD0000E941F19812F6F2D0E947833192F282FC2
:104CE00049E65EE16AE370E086E790E00E94DD1746
:104CF000212F49E65EE16AE370E08BE790E00E94D5
:104D0000DD174091EA075091EB078091D90170912E
:104D1000DA016091E4013091E50140FF02C2437085
:104D20005527452B01F5A6EFB2E04AE453E09C91EC
:104D300094FF15C01B969C911B97911110C01A9659
:104D4000EC911A9793EF9E0F933008F000C2E45F46
:104D5000F0E0EA54F14EE4911A96EC931A971E96FD
:104D60004A175B0721F72091D701280F2093D7011D
:104D70001091D801170F1093D801E090E001F09046
:104D8000E101E60EF11C67FDFA94F092E101E09278
:104D9000E0014091E2015091E301430F511D37FDC5
:104DA0005A955093E3014093E201812F90E0841BD8
:104DB000950B0596EAE0F0E0BF010E940532362F20
:104DC000822F90E08E199F090596BF010E9405323F
:104DD000862F632F0E940D131230A8F5833099F5AA
:104DE0001091C6021F5F8091DD018A3018F48F5F39
:104DF0008093DD0186E0809300011093C602612F4D
:104E000082EB90E00E94DF3289E01C39B0F081EB48
:104E100090E00E94D132843008F0ABC111E0180F4D
:104E2000612F81EB90E00E94DF32612F86EB90E0F2
:104E30000E94DF320E942A1B8EE08093DF0182ED08
:104E40009EE10E94CA178091EA0780FD75C006EFB7
:104E500012E07AE4E72E73E0F72ED8018C9184FFFC
:104E60004FC016968C91169712964D915C911397A0
:104E7000480F511D87FD5A9513965C934E931297D8
:104E800017968C91179714962D913C911597280F92
:104E9000311D87FD3A9515963C932E93149780917A
:104EA000D70190E06091E0017091E101861B970BC2
:104EB000FC013296BA01685F7F4FE617F70704F5E9
:104EC0004E5F5F4F089648175907D4F48091D80178
:104ED00090E04091E2015091E301841B950BBC01ED
:104EE0006E5F7F4FA901485F5F4F6417750744F4F9
:104EF0002E5F3F4F08962817390714F40E94AF1A07
:104F0000025F1F4FE016F10609F0A7CF10E000E0A6
:104F1000612F802F0E940D1399EF980F943030F479
:104F200041E0480F612F802F0E9429130F5F0C3141
:104F300079F71F5F103159F78091E607882309F44C
:104F400092C1F12C4DE0942E5AE4A52E53E0B52EDB
:104F50006AE0E62E8091E607F81608F07AC1CF2CB9
:104F6000D12C8601000F111FF801EC0DFD1DE65537
:104F7000F84F8281882371F081508283803109F457
:104F800007C108F0F8C0813009F404C14FE088304F
:104F900009F4F7C0F394DECF10E8F12CE12CE01611
:104FA00064F427EB210F412FB701C7010E94FB13C7
:104FB000BFEFEB1AFB0A1250F2CF0F5F0093C00154
:104FC0000C3109F003CE8091DF0180930001FECD0A
:104FD0001A30A9F400E021E04DEF5DE169E170E0F5
:104FE0008AE290E00E941F1946E167E589E20E948B
:104FF000AC1340E267E589E20E94AC13E7CD00E024
:1050000021E04CEC5DE1183079F11091C602812F5E
:1050100064E60E947833082F282F49E65EE169E1B3
:1050200070E088E490E00E94DD17812FECE90E9F8C
:10503000800D11246AE00E947833192F282F49E649
:105040005EE169E170E08DE490E00E94DD17212FC0
:1050500049E65EE169E170E082E590E00E94DD17DB
:1050600000E021E042EB5DE169E170E08BE290E07D
:10507000B9CFE090C60200E021E04BE25EE16AE3D6
:1050800070E080E690E00E941F1964E670E08E2DCB
:1050900090E00E940532262F082F49E65EE16AE380
:1050A00070E081E790E00E94DD17802F6F2D0E9455
:1050B0007833092F282F49E65EE16AE370E086E73E
:1050C00090E00E94DD17202F49E65EE16AE370E080
:1050D0008BE790E00E94DD172091EC078091ED07AF
:1050E00080958223143009F026C19091A60122FFF9
:1050F00010C19E3208F0ECC0993208F4F5C083E884
:1051000084BD8FEF87BD81EF8093800080E4809322
:10511000880010928A008091A6018F5F8093A6017B
:10512000A2C0811107C0711105C0611103C03323F2
:1051300009F4F5CD9091DE01ECE0E90FEC3120F4BB
:10514000F0E0EA54F14E94919093DE01E8CD16968A
:105150009C911697911106C017969C9117979923C9
:1051600009F4FDCD9CE09E0F9C3108F0F5CDE92FB0
:10517000EFCD8FE062CE883149F04CE0803209F00B
:1051800009CF618180810E94291304CF4DE0F9CFBE
:105190004EE0F7CF8091C90290E0880F991F8251AD
:1051A0009D4FA6EFB2E03F01AF014F5F5F4F2C91E3
:1051B00024FF35C0F30120812E9D90011124129609
:1051C0006D917C9113972617370749F5FA012081D5
:1051D0002E9D9001112414966D917C9115972617A0
:1051E0003707E9F4FC01218160816E9DB001112433
:1051F00013967C936E9312972E9D90011124159611
:105200003C932E9314971A969C921A971B961C9275
:105210001B9716961C92169717961C9217971E9618
:10522000AA16BB0621F6F801EC0DFD1DE655F84F58
:1052300080812E85821306C081813D85831302C043
:105240000E94AF1A0C0D1D1DF801E655F84F41E004
:1052500098CF8091AC07813031F40E946C1480911A
:10526000E6078111F6CF8091A501811118C08091C8
:10527000A601811114C08091C702811174C0909160
:105280000001953009F480E293E894BD809587BDD4
:1052900081EF809380001092880010928A002E96F1
:1052A0000FB6F894DEBF0FBECDBFDF91CF911F9137
:1052B0000F91FF90EF90DF90CF90BF90AF909F90B5
:1052C0008F907F906F905F904F903F902F900895B8
:1052D000933370F09091C60287FF14C09B3990F40D
:1052E0009F5F9093C602BFCF9F5F9093A601BBCFF5
:1052F00083E884BD8FEF87BD81EF8093800010929B
:10530000880007CF84FFAFCF9A3708F4ACCF915015
:10531000E8CF992391F0933340F092E0909300010D
:105320001092A601882309F49ECF1092ED071092E7
:10533000EC0785E011C01092A601882309F493CFF1
:105340001B3068F482E0193038F48091DF011730A7
:1053500019F081E0183049F78093000184CF1E30A6
:1053600009F481CFE2CF80E08FCF892811F00C942F
:10537000A1206CC0892811F40C9447200C94A12022
:105380004FE0F4123BCAF12C3ACA01110C94582098
:105390000C94372081110C94CE1FC6FC02C00C94D3
:1053A000F2206E2D812F0E940D138F838091D701E3
:1053B00090E02091E0013091E101821B930B6AE0C3
:1053C00070E00E9405324C0177247394710E892B92
:1053D00009F0712E6E2D872D0E940D13282E442466
:1053E00043944E0C642D872D0E940D13682E8FEF71
:1053F000810F8114910409F4812F642D0E940D13F3
:10540000382E822D0E94C21A082F5701BB24EFEFBD
:10541000AE1ABE0AC12ED12CA501B601832D0E9461
:105420008E12582E0E94701A9091DE019B3011F05E
:105430000C942920882311F40C94ED21552011F4AB
:105440000C941B201092DE010E94191700E00C94AE
:1054500047201F920F920FB60F9211248F939F93A4
:105460008091E1009091E100937F9093E10083FFB0
:105470000FC01092E90091E09093EB001092EC00C5
:1054800092E39093ED001092D60198E09093F00093
:1054900082FF22C093E09093E9009091F20099235B
:1054A00019F09AE39093E8009091C701992341F095
:1054B0009091C70191509093C701911101C05D9ADD
:1054C0009091D501992341F09091D50191509093FD
:1054D000D501911101C0289A84FF18C08091E20083
:1054E0008E7E81608093E2008091E1008F7E8093C8
:1054F000E1008091C8018E7E80618093C8019F91F8
:105500008F910F900FBE0F901F90189580FFF7CFCF
:105510008091E2008E7E80618093E2008091E100C4
:105520008E7E8093E1008091C8018E7E8160E5CF00
:105530001F920F920FB60F921124CF92DF92EF922B
:10554000FF920F931F932F933F934F935F936F930C
:105550007F938F939F93AF93BF93EF93FF93CF93DB
:10556000DF93CDB7DEB76C97DEBFCDBF1092E900F9
:105570008091E80083FF25C068E0CE0145960E9437
:105580001B1682EF8093E8008D8987FF39C09091C8
:10559000E80090FFFCCF982F907609F034C19E89E7
:1055A0004F89588D2F89F88C911131C0803861F561
:1055B0008091C6018093F1001092F1008EEF8093EC
:1055C000E8006C960FB6F894DEBF0FBECDBFDF913A
:1055D000CF91FF91EF91BF91AF919F918F917F916B
:1055E0006F915F914F913F912F911F910F91FF907C
:1055F000EF90DF90CF900F900FBE0F901F901895F7
:105600009EEF9093E800C7CF1092F100D5CF913074
:1056100059F48111D3CF4130510581F68091C601F3
:105620008D7F8093C601CACF933049F48111C6CFD4
:105630004130510519F68091C6018260F2CF953054
:1056400041F48091E80080FFFCCF20682093E300C4
:10565000B5CF963009F0A9C00B8D1C8D22E01092B9
:10566000E9001092C4011092C301F2122EC01092F0
:10567000C2011092C1010E94EA151F8299E099832C
:10568000FA8291E09E8390EA98879AEF9987209119
:10569000C3013091C401275F3F4F3C832B838D832F
:1056A0001092E9001092C4011092C3011093C2013C
:1056B0000093C10149E050E0BE016F5F7F4F80E081
:1056C0000E94C4150E94EA1579CF1093C20100937D
:1056D000C1010E94CE14DC0112960D911C9101159E
:1056E000110509F451C1D801ED91FC910480F581B7
:1056F000E02DBE016B5E7F4FC8010995009709F050
:105700003EC1F80100851185EACFF3E0FF120EC01B
:105710008F89882309F440C0823061F440E860E159
:1057200086EA94E20E949115811148CF81E280932C
:10573000EB0047CF813029F440E86BE08AE994E23E
:10574000F1CF833099F70E94CE14DC011296ED90D0
:10575000FC908E010F5F1F4F6801E114F10479F096
:10576000D701ED91FC910680F781E02DB801C701CA
:105770000995080F111DF701E084F184EECFD801DF
:105780001C92F60101900020E9F73197BF016C19D6
:105790007D0940E0C601C6CF64E874E2FB01449194
:1057A00050E080E80E94C41509CF973009F4BECFBD
:1057B000983021F481E08093F10000CF993009F016
:1057C000FDCE837009F0B2CFE6E8F1E081E031E090
:1057D00096E32191222371F08093E9003093EB004E
:1057E000DF0111972C912093EC009093ED008F5FD7
:1057F000873079F78EE78093EA001092EA008F896C
:105800008093D601DBCE8B8D9C8D1092E900109297
:10581000C4011092C3019093C2018093C101898D8C
:10582000811192C08E899D89913A49F4813209F0A3
:105830007DCF47E050E065E071E080E0B3CF91328A
:1058400009F074CF833269F48F89988DB0E0A0E0BD
:105850008093010190930201A0930301B09304018E
:10586000ADCE803269F48091E80082FFFCCF67E022
:1058700085E091E00E941B168BEF8093E8009ECE9E
:10588000823209F09BCE8F8980930C01EEEFFFE707
:10589000859194918B3F9C4D51F1E0E0F8E080912F
:1058A000050190910601A0910701B0910801803B8C
:1058B0009440A105B105F1F480910C0180FD1AC05E
:1058C000EE3F8AE0F80789F587E797E791838083C1
:1058D000809160008093C50188E19BE00FB6F89449
:1058E000A895809360000FBE9093600067CEEEEFA6
:1058F000FAE0D5CF808191818737974709F05ECE56
:10590000A895809160008861809360008091C501B6
:1059100080936000EE3F2AE0F20789F08091FE0A52
:105920009091FF0A9183808349CE8081918187374E
:10593000980751F29093FF0A8093FE0AC5CF109208
:10594000FF0A1092FE0A3ACE0E94CE14DC01129693
:105950000D911C910115110509F4E8CED801ED91C6
:10596000FC910190F081E02DBE016B5E7F4FC8017C
:105970000995811123CEF80100851185EBCF18160A
:1059800019060CF41BCED2CEF1E0FF12BECE68E8B1
:1059900074E204CF1F920F920FB60F9211242F932F
:1059A0003F938F939F93AF93BF938091BA01909150
:1059B000BB01A091BC01B091BD013091B40123E0C5
:1059C000230F2D3758F50196A11DB11D2093B40169
:1059D0008093BA019093BB01A093BC01B093BD0129
:1059E0008091B5019091B601A091B701B091B80135
:1059F0000196A11DB11D8093B5019093B601A093AE
:105A0000B701B093B801BF91AF919F918F913F9132
:105A10002F910F900FBE0F901F90189526E8230F1F
:105A20000296A11DB11DD2CF1F920F920FB60F92F9
:105A300011242F933F934F935F936F937F938F9393
:105A40009F93AF93BF93EF93FF938091B001909199
:105A5000B101A091B201B091B301892B8A2B8B2B9C
:105A600009F440C08091AF0181110BC088B190E46E
:105A7000892788B98091AE01882319F088B18058B0
:105A800088B98091B0019091B101A091B201B0911B
:105A9000B301181619061A061B069CF48091B00172
:105AA0009091B101A091B201B091B3010197A10908
:105AB000B1098093B0019093B101A093B201B0936A
:105AC000B301FF91EF91BF91AF919F918F917F9122
:105AD0006F915F914F913F912F910F900FBE0F905B
