:100000000C942F150C9457150C9457150C945715E8
:100010000C9457150C9457150C9457150C945715B0
:100020000C9457150C9457150C94A7280C94192967
:100030000C9457150C9457150C9457150C94571590
:100040000C9457150C9457150C9457150C94571580
:100050000C9457150C9457150C9457150C94962323
:100060000C9457150C9457150C9457150C94571560
:100070000C9457150C9457150C9457150C94571550
:100080000C9498240C9457150C9457150C945715F0
:100090000C9457150C9457150C9457150C94571530
:1000A0000C9457150C9457150C945715A21AD31A83
:1000B000D31ACC1ACC1AC81AC81AC41AC41AC01A2D
:1000C000C01AB81AB81ABC1ABC1AB81AB81ABC1A8C
:1000D000BC1A4233B73369356935693561356935DD
:1000E0006935673569356C356C356C358C354C2F19
:1000F0004C2F4C2F6D2F6D2F6D2FC72FC72FC72F54
:10010000C72FC72FFC2FFC2FFC2F4C2F4C2F090F74
:10011000E8D2D9ED76BB4EC7B7DD6EB7DBED7636EC
:10012000090FE8D3E974FCDBED76BBDD6E670309EC
:100130000F109BCE6EB7DB753A36090FB8B2E914D3
:100140005FD7ABCF85A2ED6CDB5901090FBC92EEF6
:1001500055A9A4D2AAAD53E4E9E8B6B303090FF850
:10016000B6CAF55FB9B5EBD436EEED6CDB590109D3
:100170000F38B39FEAB397770A4BDBD9B6B30209BE
:100180000FBC924EA5FAECE554CEC9D9D3F9EC36A2
:100190007A090FB8B29F6AA2745FBB8E773B7B3A35
:1001A0005A090F38972ACA6B998E39BD1D5B090F02
:1001B0005CA73EF54D96DBF5B950B79D1D20064B6B
:1001C000000000190075054B000000190027054BC1
:1001D000000000190097044B000000190017044BA1
:1001E0000000001900B8074B0000001900E0064BA2
:1001F000000000190010034B0000001900BA024B68
:10020000000000190093024B00000019004B024B44
:1002100000000019000B024B0000001900DC034B2A
:10022000000000190070034B000000190088014B0A
:1002300000000019005D014B00000019004A014B4D
:10024000000000190026014B000000190006014BB8
:100250000000001900EE014B0000001900B8014B2E
:100260000000001900C4004B0000001900AF004B53
:100270000000001900A5004B000000190093004B7E
:10028000000000190083004B0000001900F7004B2C
:100290000000001900DC004B000000190062004B58
:1002A000000000190057004B000000190052004BDD
:1002B000000000190049004B000000190041004BEC
:1002C00000000019007B004B00000019006E004B7D
:1002D000000000190031004B00000019002C004BF9
:1002E000000000190029004B000000190025004BF8
:1002F000000000190021004B00000019003E004BD7
:10030000000000190037004B000000190000804B6E
:10031000024B0000000F004B024B0000000F004B8F
:10032000024B0000000F0026014B000080E0060F8A
:100330000017040F0027050F0000800A081800604E
:1003400000800020004000000060009000200000BD
:1003500000000000008010002080000080000020CD
:100360000000000040090FA8D69D2BA2AC932A756F
:10037000BB08B3DBB106090F88769D7A995DCBDAAD
:10038000756AD46DD7B101090FB8969F6AA274D768
:10039000ABCFCDBC9D753B2B0607A8D2E9743A2E96
:1003A0000407723A9D8E0A06077C3A9D4E47070461
:1003B000079D4BA7A303030788E5030792CC040717
:1003C000B8D2E99C5304077C3A9D760E0607DE6E90
:1003D000B7DBED76070407A59276BB5D010607B78C
:1003E000DBED76BBDD020407A5926ABBDD020307E5
:1003F000F8743A0307759A100407D476BB924A2A18
:100400000407B7DBAD5452011507A54E47255555D6
:100410002A1595F3D99C2293AA2A958A4AEA745CF4
:1004200095032907522E95AA4A95E272AA929575CC
:100430005452E5B3924AAAAA542A6EE552A9544EE0
:1004400071399F4E392EA9AA52A9A8A4AA64656B36
:100450004A550A2907D369A9A293AA9295ADA9F68C
:100460004A4DEF54252BEBB8944BA5AA52A5B89C46
:10047000AA64651D552A25552A2AE9F24949A94A3F
:10048000010E07A54E47E57C36A7C8A44EC7557197
:10049000011307522E95AA4A95E2522E954AE51469
:1004A00097D4E9A8A44AA552394556390F07A5CBD8
:1004B00067B3924AAAAA542A2AE9F249C9553904CB
:1004C000050E11110E00121F10121915120A111526
:1004D0000A06051F04171515090E1515080119053B
:1004E000030A15150A121509061907EA5455AA2A0E
:1004F000D59129974AA572159972A9542AA7B8A42B
:10050000AA64656B2AA9AA52A9B82A2EF4F5F9F6AD
:10051000F7F8FBFAFFFCFDFE0002030401060508E4
:10052000090A070B0C0E0F0088016400000014007C
:10053000DC036400000014004B026400000028008B
:100540001704640000001400270564000000140074
:10055000200664000000280000800C0A0318040232
:1005600007010A030D000D010D0214040005060722
:10057000080A001F1F0361106104266103618C617A
:10058000042102C101216103610C61042104216184
:1005900003614622422243214221422142214261FB
:1005A000218521A123022101C102C105C1026121CE
:1005B000016103218201210228A12561210161211C
:1005C000C221C1216121C10121018C61210161246C
:1005D000A12161210221610C61210161C1038263BA
:1005E00022612C61266101C1026102610C61066118
:1005F000220264C12501C10123612201C1012161DF
:1006000021C18202622201C10125C101610125616E
:1006100022C1012261346102250003080312040A89
:100620000A160E0418001801180218030101140319
:100630000A04100E001FC11861412215426241C117
:100640002201C110C1E142620221C1230C276202D2
:100650002101210223C1052301C10562820221C1BA
:100660000121022102C10122C101440362022603C9
:1006700023A12106234162C10F2143612101C1024F
:10068000624489076123C10162034106C406610215
:10069000246101C10141C1024A036101C14102C19A
:1006A00061250F612242226184618609610B610F1D
:1006B000610B610333000E0B0311011706010801E2
:1006C000100000010A0113011B010090E110C10A92
:1006D000610FC308630EC308630DC209620DC20136
:1006E000C3056201630288C201C202C202620162E2
:1006F00002620B62096206650463086305C5016452
:1007000001620464016204650662096204C506624E
:1007100009620465012C612F0C611B610F3C00090B
:100720000604070115011607060E021B001B010136
:10073000011A0104061408000C2311C104C102436C
:1007400005C103C103612E612C618A0143611761F8
:1007500023610289028A614361C10A6201C1028484
:10076000032607C16126042161014605C1612302F8
:10077000810121042161012603C16127C161210496
:100780002161014601C16127C122612104216185E6
:1007900001C1612BC16121042161014301614BC190
:1007A00022612101C2012161012301610B22C1618A
:1007B00024A12161014301612A61C122610661C155
:1007C00023C16121C108612C43234A00010404169E
:1007D000020207090E190E0902001100170002019A
:1007E0001101170102021102170208021502040783
:1007F000190A0211012121212122101012011011C8
:1008000011110111111212232020210100003112B7
:100810000000000120030000060000003111151146
:100820003444444311511111111131000600363185
:100830002603020021200100311111131132120090
:1008400060200002044431002103203222122102E0
:1008500000444441316000030030014444444442B8
:100860000611311521130036221601260020011031
:10087000312502030062122160214443100031003F
:100880001003062066602600200300003034444335
:100890006203121002600013111111303002244360
:1008A000000000200603022222303121660344307A
:1008B0000301111300200130360611606634430035
:1008C0001123000061111111111111306361111117
:1008D0001111110408030A091A09020A021B001B5C
:1008E0000100000C0107081809001C880121610C97
:1008F000C102C1E103C121C1026121612141214144
:10090000214121412141A141214121412102C12116
:100910000121C10161216104C103C1028601C1211C
:100920000321C16122412141214121412141216114
:10093000072105A161214B610E618A6123A1236119
:10094000136121066102C102C10D612106622761A6
:1009500003C102C103612101C102C1016202C102DE
:10096000C1016121412141214121412141214221F6
:1009700041A1412162276126C10123076202C10111
:10098000C102612801220762276129012107620350
:10099000C101C101612A02C102C102613C000D0E08
:1009A00004020E060E160E1A0E0409001200090F9C
:1009B000120F00001B000A0E110E000782E10982CF
:1009C00004820226C18161286181C124C18102277C
:1009D000C1612861C126C102286128612802230162
:1009E0002461230561230322022302236123C3021E
:1009F0006123C382022302236126026126C1810290
:100A0000230223612602610126C1022302236126FB
:100A100002610226022301C123612305610523022D
:100A200023C1246123C56122C323022861286122D6
:100A3000A1250227016128610121A1240326026169
:100A4000286102A1230C6108610929E1236223E1E5
:100A500029001A020604030A031508180B040E13D2
:100A60000E040000000112060A0E05030C03160412
:100A7000170E00E11F182F6122196122A121476181
:100A8000C1026B01610B6121C10161026801610159
:100A9000C101C101C125610121C16102610861017A
:100AA00021E1210126610221610261C101C101C16F
:100AB00001C10261012108610321C1016121A1215C
:100AC000A121A121016106A101C101C1610421018E
:100AD00061096104216124610661016101610161B3
:100AE000026106610B61096105610C6101610161CF
:100AF000036106256108610161016103610A610901
:100B0000C1E12103610B613C000A040310010203EF
:100B10000A08031A0214091509080016010103093D
:100B200006001546618E0D620C614701612101616D
:100B3000E12161026141610761856101216101215A
:100B4000610245614161410A6102220221A1618481
:100B500061016121A123430122610122610221A1DE
:100B600061046101612101C12103C103610121010E
:100B7000612182A16106612102C12401426101C19A
:100B80006121C101C2610661210225036101216168
:100B900021032161A1C105210125C1014261E1E1DA
:100BA00061216123610121052101C12501C101618B
:100BB000022101612201610221042101260161411A
:100BC00061012361012261032103216101C121C16E
:100BD000012101610161022101612101C161042141
:100BE0000361260161416101210122012261072186
:100BF0000A610822432944214121432143000E0B6D
:100C000003020319030D0B030C000D000E00030378
:100C10000B0310031803001F08641A6219640C8B7D
:100C20006696668B018A668A048866880886668668
:100C30000D83668308C101C101C101C101C1026602
:100C400002C101C101C101C101C10B6202620B2BD2
:100C5000622262366222622B01C101C101C101C15F
:100C60000461026104C101C101C101C1013C000272
:100C7000060404010D09190A0B0E0A1400150018C8
:100C8000001B001B011B021B031B041B051B06038F
:100C9000010E09180A020E0006418702830322E1B1
:100CA00003C104C14186C12203622262032361227F
:100CB0004105C12203622262C10661024104C122D0
:100CC00003622262C10142E1C1026101C14103C16B
:100CD0002203622262C10142022361224102C12237
:100CE00003622262C101420661024101C122036224
:100CF0002262C1014201C2E1236101C141C122035B
:100D0000622262C101420161220123612241220368
:100D1000622262C101420261C20121C1216102411C
:100D200001C102620262C101420161240123610129
:100D3000C1412B61410261C102C101C12261224155
:100D40008B614101612501236101C141C101C102E2
:100D50006106410161C103C10121462302610124F1
:100D600001410161250D6122C222410161C103C11E
:100D7000012C4126410127001B060408001200082F
:100D80000E120E06000001000900110019001A00E1
:100D900002001800080C120C0200011111002220A0
:100DA0002220011111000232330603323333333271
:100DB0003306033233632313132301131103231365
:100DC000132361103233323010333010323332306B
:100DD0001301332323310300030133232331003173
:100DE000033333013011103103333301313130001B
:100DF000003131060131300000313031033333012D
:100E00003011103103333301310133232331030017
:100E1000030133232331005032333230103330108A
:100E2000323332301303231313236113116323135B
:100E30001323613233060332333333323306033242
:100E40003323011111032223222301111103222331
:100E5000030603032233322303060303222303136F
:100E60001303323332330313130322323233323259
:100E700033333332323332323300030314070E0A72
:100E8000060F0F1B001B010F021B020F031B030F9A
:100E9000041B040F051B050F061B060F070F081B7D
:100EA0000901030D030E0319030211111111111190
:100EB00000001111112211101444444444444444CC
:100EC0004444440110101031111111113000144428
:100ED0004434444000363666600030001600663008
:100EE000006011311111211130001113111513106F
:100EF00010333330200630001603444443001600FC
:100F00002630066130001203022203601111111510
:100F1000111130001603000663231006266020011D
:100F2000300011111131111310022220200134431D
:100F300016000030066010666066260136031260F7
:100F4000003011131311151111311111111131113B
:100F500011131344444444311104444434204443A1
:100F60001306006660300630606030236061113126
:100F7000132131115131121511111311063663006D
:100F8000300000300000000663660C0002010E1AFB
:100F90000E0200001B000102040217021A0200E107
:100FA00089078AE1610484012702840462048301C1
:100FB0002A018304620482012C01820462048101FB
:100FC00025C425018104620481012E01810462058A
:100FD0003005620522C424C422056205300562057D
:100FE00026C4260562062E06620481012E018104B4
:100FF0006204810221C422C42102810462048202AB
:101000002A0282046201C383C10226026183C301F2
:10101000612961C8612900120A030E03050A120C36
:10102000040C000C010C020C0302021503060A1941
:101030000B0222222222222200022200000002129F
:1010400011111112112200011200000001210006ED
:1010500000121212000212000000010032111510DD
:10106000000200001200000061063111100044442B
:101070003112125111113203310610444212310063
:1010800000521111310331114440021231444452D3
:101090001111321331144400000032000006011215
:1010A00031133144600011213100005112213113FC
:1010B000344014444444300044444011301300028E
:1010C0001000600235112000600031131151211011
:1010D000211235112212212000031151200000029B
:1010E0003500000060211111115124444444351190
:1010F000001111200601110000060002300000005E
:1011000000011111121111211300300311121111DC
:1011100011111401040E010609170B110C0F1B000D
:101120001B011B021B031B041B051B061B071B08C3
:101130001B091B0A1B0B1B0C1B0D1B0E03011101B2
:1011400019010508021111221111111111111111AA
:1011500011111010600200000600000000000000E5
:101160001013130215131111115111111110101335
:101170001130151331164444444460001013011318
:101180000511331160006006113010130011301189
:101190001331160000611031301330011301133385
:1011A0001160061100333013336013301313311004
:1011B00001100133101333300313031133151100E1
:1011C0001333101633330311331113351003336304
:1011D000101336003301130111350613333110118A
:1011E00013111160113011300133303310133333C8
:1011F00033300133033033360033101303306003D0
:101200000031333133111113101603131111300053
:10121000003336000003001111133336311111333E
:101220001111111111130E030C000505040E0F1BF3
:10123000001B011B021B031B041B051B061B071BBA
:10124000081B091B0A1B0B1B0C1B0D1B0E0F00158B
:10125000000201030E001F01C111C10761236104D7
:101260002261220461236104612101C10121622202
:101270006522622101C1012161022161256122678C
:101280002161266121E10964C1640A296929E1011A
:1012900022C122032167210222C1220523052165E3
:1012A000210423072107216321062111216121192E
:1012B00021612119216121192161211A610E3C004E
:1012C000050B05000B110B1B0B170F190F05170052
:1012D000180C180D180E180F000106010C01120150
:1012E0000097E106C104C105C105C10361042402E0
:1012F000240223A10222A121016109C104C106C166
:10130000056104210221A1220222A12102A12302BE
:1013100021016105C106C103C106C10361042402A4
:10132000240223A10222A121016108C105C105C136
:10133000066104210222A1210221A12202A123028D
:1013400021016106C105C105C104C1036104240274
:10135000240223A10222A12101611B610438E13B87
:10136000E13905370521000B0E030603040A1A0CA8
:10137000010D000101050310031A0300890B850C00
:1013800061046104610B866101C1036103610A614B
:1013900001C1042303610461096101240661018321
:1013A000026101C28203610A6103C1036101420556
:1013B000618403C101610441026106C10761012228
:1013C0000161066107210761056105432341220789
:1013D00061066101820DC101C1016107610941011D
:1013E000410224016184036103470141C108C20332
:1013F0006101C106C101C10142082202610221024C
:10140000290D610E254329432800030E0401020320
:10141000050E0E190E0200001B000E010302190238
:10142000010501E1622102632102632103210221FE
:1014300002210221022102C12101C12101C1210198
:10144000C121022103210221022102210221036381
:101450002102632102210F21016E210129C12501F1
:10146000C125C124C1230123C124C124C121012DCF
:10147000C121016E210381038103810321038103C3
:1014800081038103210381038103810321038103FC
:1014900081038103210381038103810321016E21E3
:1014A0000126C1280123C123C124C12201C128C1B1
:1014B000250122C128C123016E210F2103632102CE
:1014C00063210221032101C12101C1210221022145
:1014D00002C1210221022101C1210221E162210276
:1014E000632102632100150E05110013001500028F
:1014F0000812090217001B000E020A040606010862
:10150000001681E1136126016123610F612104212D
:10151000016123610B61260321016123610B6121BC
:1015200004210321016123610761260321C32101F5
:1015300061236107612104210325016123610361A6
:10154000260321C3210561236103612104210325B1
:1015500001612761260321C3210561210422612144
:1015600004210325016126032261210421C32105F1
:101570006121042103226121042501612501C32188
:10158000C3226121C42105612146214321436126F3
:101590000161250E610761340014060513010B0477
:1015A00005061806170F011B001001060616061384
:1015B0000F00028306C102C1048302410121E1221E
:1015C000022161046124610261032241026101225E
:1015D00001216103612A610122410121612202216D
:1015E0006125C122C125610121C1412261C122C100
:1015F00021610E6105216131A1296103C105C1117C
:101600006150612B018D0141610B610681066141D1
:10161000618A016105810181056141220122012266
:1016200001226204810121018104614C6203810174
:1016300023018103618C620281012501810261A184
:1016400021A121A121A121A121A121A1610181012A
:1016500022C32201810161410C6181012901816163
:10166000410C000E050314060708150E0A010001BF
:10167000010102010301040105010601070108013E
:1016800009040017060608140E0041E11942E1445E
:1016900001492149C142E104C103C1840388614277
:1016A000E1076122022505226142E105C1016107CE
:1016B000C121022101C121C16142E104236102C1B2
:1016C00004220221A122416142E102C1046125619B
:1016D0000221076142E1012303612103216102210B
:1016E00083612442E1076121C1022161022103617A
:1016F000830142E10361296123036102C1014223A5
:10170000016121C1012101C10221032103610123E2
:1017100042C10122612903210361012102422461A6
:1017200083C241C221C1022243614122420321619D
:10173000022341256121046102C14201C1012161ED
:1017400004C1066204612161014125612C61290007
:10175000160E02080F130F070D000E0013001400E1
:101760001500160017000A0211021A0200070108EC
:10177000C161260881C16125088101C161240881F8
:1017800002C16123088103C16122088104C1612172
:10179000088105C16108810F810F810562036B42D9
:1017A000026123C122C122C1230161234722032FE9
:1017B000E124472242816123A8210282612241C1A2
:1017C00042C142C12382016B42820C62E1610FC1BE
:1017D000610EC1610C61E101C1610B21E16E230168
:1017E000C16102C16102C16101C1236D2301C161F7
:1017F00002C16102C16101C1236D21001608040408
:10180000000D000805170E07000002000C001B0069
:10181000110C110D110E05000E001800090500E154
:1018200081E10524E103C1032404610161246124F1
:1018300061260127620161246102C1016123C12285
:101840000124C12262016121C221612B04246201B1
:101850002561058E6205216109C102C1076102216E
:101860006101216125A1276101C101C1026102213C
:1018700061012161850185614822012161012161A8
:1018800004C101C1046103C101C105C1610121613C
:1018900025A1256127612261420121618B610761D8
:1018A000226103C16104C105412661016122612EEB
:1018B000E14104C101610161C12161210E4125A104
:1018C00021016122612105C104C1034108613C007D
:1018D0001A080314030906010303020002010202AD
:1018E00000030B06130310030104A626044501267A
:1018F000E1E1E1620481016322048103C1816202AA
:10190000220481046202C1220481048103816204F1
:101910006603810581012AC1042C028101A20167AD
:1019200022028101228101C10522028101220123BB
:1019300001A12101220281022101240121C12103EF
:10194000810881026203690829072BC1038104C150
:101950000522038109C1A2042BC104290665C1091E
:10196000810481680281012301A1240122028101F5
:1019700024A1240122028101A202C12203220281A8
:101980000122032202C122026221096121000E0FFD
:101990000317040B060A0B080F000F010F020F03B9
:1019A0000F040F050F060F07020016040A060C0BA2
:1019B00002600111111111111011111111111131C8
:1019C00044400004000610100000000001316101D5
:1019D0001110111110131113111131316101001087
:1019E00000601013111311113131610166111111D1
:1019F0001013001300613131610111111111101127
:101A00001313111131316100600000000000131345
:101A1000111131316111113111160006131300003B
:101A200031316100003000111111131111113131E8
:101A3000613111611306000013000601313161317B
:101A400006001111111311111111313161303113CF
:101A500006000013000060013131611111111111F4
:101A600013111111113131316160010601060300BA
:101A700010006031313151313131313111111311D7
:101A800011113130603136313631006003006000B1
:101A9000310D050402011901070F140F040D000E8A
:101AA000000D010E0102001900060F150F011F04A1
:101AB0006203630823C1A26305654166046209628B
:101AC000036E02620A62026541690584096421624B
:101AD00008C121012101236206C12101210126063D
:101AE00021C1210123A2C1062101210123A2C10597
:101AF000C1210121C12605C1210121012362076401
:101B000021620C840865416901620A62026E026208
:101B10000962036541660623C1A263076203631F6E
:101B200006000D0E04160109051A0A000E09180018
:101B300018011802180318041805180618071808C1
:101B4000160001030904190A001F0CC10521012117
:101B5000E121086183612B0121E12102C10184613E
:101B6000042106C102210121E12102216109210490
:101B7000260121E121022261082104C10621E1217F
:101B800002236105C1012105850121E121022461B2
:101B9000018521C102C12104610646610426046158
:101BA00082E10961042604610125066104260461BD
:101BB0000121C109610426046101246106610E61ED
:101BC00005610482610E61056102C121026102C1E9
:101BD0000B6105612402612D0161022400120C03D6
:101BE0000A031203160C030E000E010E020A001265
:101BF00000070C150C001F1F178606612161068661
:101C00000661836121C1612161C121618361066136
:101C100021C10121610361276103612101C12161AA
:101C200001612404618161210121618161042461D8
:101C3000016222076123610722620261220761219A
:101C4000012161072261036122076123610722618B
:101C500003612207612101216107226103612207DB
:101C6000612361072261036122076121012161076C
:101C70002261036129612361296101C1016122039C
:101C8000C102216101C101612102C1032261C15C64
:101C900000100F030C03140E0D0F0316001601168F
:101CA0000203010E031A0E0C0F001F0582086109C2
:101CB000C10682016105826102C1E10524618203DE
:101CC00061048321A1226121610761024121A121D7
:101CD000610283C121C10261216103A2236102C1AA
:101CE00002618161420141266103A1C10361024198
:101CF0000461034401826104A1C1026106C1610162
:101D0000C10561410721C1016121A1226146612113
:101D1000A1416141076121C161046102C103610305
:101D20006141076101A16141036121A12461224157
:101D30006141076101816103C16102C10361024127
:101D4000614107614101C103416124A12161014158
:101D5000C161C14106610241046102C103610142E6
:101D600061420661076122A123610361062A6106BF
:101D7000612A0003020413020408120B150E12015B
:101D80000011011201130114011A021A031A041A94
:101D90000504061A0604071A07090A0A0A0B0A0CA0
:101DA0000A0D0A140204041407120E022012221251
:101DB0002112112212022122112123333332321235
:101DC0002102300003221111230006323066600028
:101DD000300003060001232121323121123132115A
:101DE0001311110123060032306660303061131187
:101DF0001201232123323011103030226361160189
:101E000023330062300000363001232122012300F9
:101E100001123006003230060344440123600302FD
:101E200030111032300123006211231111323001C0
:101E30000036300103011601230020323000003249
:101E4000300103000232230020344444444436016C
:101E5000032666312300263211113062311111112F
:101E60001111230021320001111121244444443175
:101E7000230600300600060000000006663121112E
:101E8000111212222222222222222231020F0314B4
:101E9000000808150E040000110016001B001300B6
:101EA0000B010708140E00E188211261082102C10C
:101EB00004612461012101216201A6012561410122
:101EC00061410361012101216201A60121046141F7
:101ED00001614161410161012101216201A60121EC
:101EE00061244101614161410161012101216201DE
:101EF000A2C2A201216101C102410161416141010E
:101F000061012101216201A6012561410161416157
:101F1000410161012101216201A6012102C101618A
:101F200041016141614101610121C12162082161D9
:101F30002441016141614101610122A162296101E4
:101F4000C102410161416141016104622D6141228F
:101F500041614126622902C1016144614423622238
:101F6000C22561244101C1016101C10141C1226257
:101F700028C16141214B23624A07C103C104620A9F
:101F8000613000000E030E0E130E1A0E0201000245
:101F900001100117010D0E140E001F1A61C104C1BA
:101FA0006106C16105C16105C1610461C10661C10C
:101FB0000561C10561C104C16106C16105C1610559
:101FC000C1610461C10661C10561C10561C104C18E
:101FD0006106C16105C16105C1610461C10661C1DC
:101FE0000561C10561C104C16106C16105C1610529
:101FF000C1610461C10661C10561C10561C104C15E
:102000006106C16105C16105C1610461C10661C1AB
:102010000561C10561C104C16106C16105C16105F8
:10202000C1610461C10661C10561C10561C104C12D
:102030006106C16105C161043C00070B02010E0A83
:102040000E0400001B0000011B011502020B0F0B08
:10205000090E00E11C9AE16218630221A122042307
:10206000A12202260262022102220321042102216E
:1020700004A1026202210322022107210762022138
:102080000421022107210762022103C12102210448
:10209000C10221076202210322022103220221043C
:1020A000C102620221C10122032103C1210221C117
:1020B00002C121026202240423A1220222A12302DE
:1020C000621A620161260226022161240262016114
:1020D0002103C12102266101216122C12102620185
:1020E00061210421022201C1226102612402613CBA
:1020F00000130E03130707040E000112000D000663
:1021000004150705010011C1E112C1022661210178
:10211000C10B23A124056125A12107210621056109
:10212000210521072102C103210561210521032881
:1021300001C10121C102216125C22103210623A180
:1021400025610421A1240121062107216102C10486
:102150008101210121062104612B0161210121035B
:10216000C101C12104612109C101612101210225AF
:1021700004612101C1026121610161240124032163
:1021800001C1216124026123A121072101C1012490
:1021900061032101C161210B250221610323A121DA
:1021A00013610F412141214121412141214121411F
:1021B0002141214121412141214121412141210050
:1021C0000F0E0400020C061508080A03160016017B
:1021D000160201020D061408070A001F1F02C12182
:1021E000C10C21C1032561286121612A61C103213C
:1021F0006101C10661216104210561236125612A14
:1022000061216125C1026105610A61216104C12169
:10221000612E612BC16122C1022106C1216106210B
:10222000C103296129612A61066123C1012202617A
:10223000022202C1236124612961236126C1016157
:1022400024612101C125C161236104246124612924
:10225000612661256103216105210361022103617A
:1022600002C13C0019000303050C090E0E0F1B00F0
:102270001B011B021B031B041B051B061B071B0862
:102280001B091B0A1B0B1B0C1B0D1B0E02050A074F
:102290000D080F0E0204444600000000000000007C
:1022A0006060100000013000000000000003111108
:1022B0001000000130000000000000351111100076
:1022C00000013000000000000315110010000001A3
:1022D00030000000000031151160100600013000D0
:1022E0000000000316151155101111001300000015
:1022F00000310315110010600016013000000310BA
:102300006315110010111301001130003111131564
:1023100011001060013016013603106063151100C2
:10232000101130130100113111111315110010603B
:1023300013013016013060600315110010130130D5
:102340001301013111110315115510013013013022
:1023500000000000031511000000300300300000F1
:1023600000000300000000111111111111111111D1
:1023700011111111110D090405081508090B110B94
:10238000090D000D010D020D030D040D050D060DC7
:10239000070D08080B0A0B100B120B004C034E889C
:1023A00061214181E181412161894206C1016121AF
:1023B00082E182216101C1074203C10222618203DD
:1023C00082612202C1044202C122A1816221412113
:1023D000E1214121628121A12101C1024201C122E9
:1023E00082618121A18161E16181A12181618223D9
:1023F000C10142C12282618561E16185618322C19F
:102400004121A183618661E161866184A1228361AA
:10241000018661E1618601618422036126A1610177
:1024200061A12661042201C101610723076102C184
:1024300001216103610721C12107610462836121D8
:10244000A12561016125A12161846201C1026106AA
:10245000610161066102C10262046102C10361019E
:102460006102C1036105613C000C0E020B03150300
:1024700002000000010A030C031403160300E11F0D
:102480001847610F614407610F610B6127432561A4
:10249000072103610F6106210282610F610621019C
:1024A000C101C16104C121C105C36106210121C16E
:1024B0002161820221012101C301236182032102E2
:1024C00021C12161C101C182C12101230121C12199
:1024D00061C101C181012102236121C12101C12109
:1024E000C101C301236121C1210221042161C12154
:1024F000C1012301230121C12161C121C1012105A4
:10250000216121C12109236121C121086181610D5E
:1025100061816109610F6104234329442900D5F0D9
:102520008D14A1C881CFD9F1AF20005717A38B2EEE
:102530002E47175D74D145175D74D145175D721F25
:102540005D74D145175D74D145175D749129BAE862
:10255000A28B2EBAE8A28B2EBAE8A28B2EBAE8A2E2
:102560008B2EB98F2EB4499D4EC7A55C2A954AA5DE
:10257000728A2E5795AA4A55E51C9772A9542A9536
:102580004A491449974DE71D977255A9AA5455EE2B
:10259000A24AE52A9BAD5C2A2AE752A9543624DDDB
:1025A000D7575595AA2A3559AE2A5595AACA392A18
:1025B000A9F2CAA525977255A9AA5455AEA3548568
:1025C000ACE8A28B2EBAE8A28B2EBAE8A28B2EBA68
:1025D000E8A28B2EBAE8A28B2EBAE8A28B2EBAE81C
:1025E000A28B2EBAE8A28B2EBAE8A28B2EBAE8A252
:1025F0008B2EBAE8A28B2E321B07B22E954A653B72
:10260000AD5D369D7754D265D3F9E894AB4A55A5B4
:10261000AA721D977255A9AA5455AE031007B22E7F
:10262000954A65E3723EA77CCA9129974AA552A9AB
:102630009C220210079C72A9542A95CA292EE9B23D
:10264000E9BCE352AE2A5595AACA75591FA38B2E31
:10265000A764E7D29DDCE7D28E2EB66D7ABAD8B6E3
:10266000E9E962DBA6A78B6D9B9E2EBAE862DBA62A
:10267000A78B6D9B9E2E9B9E6D9BCFA6B7E9E972A3
:10268000694717DB363D5D4EE96D3EBA6C7A9B8F2C
:102690002E7439974EC79C733A2E652B59C9CA754B
:1026A0006CD94A56B2728EAB9395AC64652353B61F
:1026B0009295AC5C872BE5D3E95CC7A57C3A9D532A
:1026C000648E4B91392E2BD3E99CE2CB391D97B206
:1026D00095AC64E53A2EE5D3D9C894AD64252BD7E3
:1026E000416FF7B5AB4AA952A9C97255A9AA545569
:1026F000CE514995572E2DB994AB4A55A5AA721DB6
:102700002C1B5D74D145175D74D145175D74D1C51F
:1027100094EB742EBAE8A28B2EBAE8A28B2EBAE8FC
:10272000A28B2EBAE8A28B2EBAE8A28B2EBAE8A210
:102730008B2EBAE8A28B2EBAE8A28B090A100000F1
:102740000000000000000000000000000000000089
:102750000000EFEFE0EFEFEFEF0FEFEF010101010E
:10276000010101000101FFFFFFFFFFFFFFFFFF006D
:10277000010101010101010101000000FF4242428B
:1027800042FF0000000003000000000300000202FE
:102790000202020202020202000000000000000029
:1027A0000000EFAFE06FEFEFED0FEBEF0101010184
:1027B0000101010001010000B0B000B0B000000054
:1027C00000000101000101000000EFEFE0EEEEEE7D
:1027D000EE0EEFEF01010101010101000101EEEC3C
:1027E000E0E8E8EAE808ECEE01010101010101007E
:1027F0000101ECE0C0C088808000E0EC0101010133
:10280000010101000101E08000000800010086E0F4
:1028100001010101010101000101000000000000AF
:102820000000000000000000000000000000E08048
:1028300080000000000080E00101010101010100B1
:102840000101ECE0C0808080C000E0EC01010101EA
:10285000010101000101EFECE0E8E8E8E80CECEF31
:1028600001010101010101000101EFEFE0EEEEEED7
:10287000EE0FEFEF010101010101010001013F0F26
:10288000A5AA64656B2AA9AA52A9B83A5595AA4A7D
:10289000755CCEA7538E4BBA7C362BA9A4AA4AA549
:1028A000E2562E95AA4A95E272AA92957554D2E5FF
:1028B000B359492555552A15D2A5AA64656B2AA98D
:1028C000AA52A9B83A5595AA4A755CE9B454F139A7
:1028D00055C9CA3A2AA92A59D99A2A9D962A7EE523
:1028E00052A9AA54292EA72A595947255D3E9B95DE
:1028F000545255A55221122C07EA5455AA2AD571D3
:10290000A5D352C5E754252BEBA8A4AA64656BAAEE
:10291000745AAAF8954BA5AA52A5B89CAA64651D3D
:102920009554F9ACA492AA2A954A010207A55336F8
:10293000090000F4019C00A5000000A80093009C81
:102940000000000900E9009C0000000900A5009CAF
:102950000000000900F7009C0000000900A500A588
:10296000000000A800E900A5000000A80083009C6A
:102970000000000900D0009C000000090093009CAA
:102980000000000900E9009C000000090093009C81
:1029900000000009008B009C000000D007018001AE
:1029A00002040810204080080B0002020201000906
:1029B00004000001020200000524001001052401AA
:1029C0000101042402060524060001070581031005
:1029D000004009040100020A00000007050202404D
:1029E00000000705830240000004030904120100EF
:1029F00002EF020140412336800001010203014140
:102A0000726475696E6F204C4C4300417264756945
:102A10006E6F204C656F6E6172646F0020066400FB
:102A2000000014002705640000001400170464006F
:102A3000000028004B02640000001400DC03640066
:102A40000000140088016400000028000080E006F7
:102A50001E0000000A00E0061E000080F63511246A
:102A60001FBECFEFDAE0DEBFCDBF11E0A0E0B1E0E6
:102A7000E0E1FFE602C005900D92AE3AB107D9F74A
:102A800027E0AEEAB1E001C01D92AC3FB207E1F72A
:102A900015E1CFE2D5E104C02197FE010E947B370A
:102AA000CE32D107C9F70E943C310C9486370C9482
:102AB00000002F923F924F925F926F927F928F927F
:102AC0009F92AF92BF92CF92DF92EF92FF920F93BD
:102AD0001F93CF93DF93CDB7DEB76A970FB6F89405
:102AE000DEBF0FBECDBF8091D50190E02091DE0505
:102AF0003091DF05821B930B05962AE030E0B90187
:102B00000E944436162F6C8B8091D60190E0409144
:102B1000E0055091E105841B950B0596B9010E94D3
:102B200044367B016D8B80910001853091F080915E
:102B30008A0790918B076CE070E00E945836892BD1
:102B400009F02CC49091AE0181E089278093AE01F9
:102B500025C4812F0E94012C082FD0908C07C09093
:102B60008D07C094CD201092D7011092E20580917C
:102B7000DC018B3021F01092D8011092E3056E2D0C
:102B8000812F0E94012C863081F58091D90190918E
:102B9000DA0149969093DA018093D90140E06E2DD5
:102BA000812F0E94822D8091C506882319F08150C3
:102BB0008093C5068091C506882329F08DE293E0B5
:102BC0000E94F82412C0B12C8091C606B816B0F746
:102BD000EB2DF0E0EE0FFF1FE853F94F43E061816A
:102BE00080810E94822DB394EFCF9091AF018D2D03
:102BF0008C708C3061F59F5F9093AF019531B0F18F
:102C00009D3390F09D3391F51092AF0183E884BD20
:102C10008FEF87BD81EF8093800010928800109223
:102C20008A000E948F301FC320E430E0A901491BB5
:102C30005109CA01880F93E894BD9FEF97BD91EFAA
:102C4000909380001092880080938A000FC099238F
:102C500069F083E884BD8FEF87BD81EF80938000AA
:102C60001092880010928A001092AF018C2D84700F
:102C70009C2D9870C3FE2DC081112BC00E9485260B
:102C8000882309F454C08091D50190E02091DE059D
:102C90003091DF05821B930B02966AE070E00E9480
:102CA0004436162FBB24BA94B60E6E2D8B2D0E947F
:102CB000012CA82ECC24C394CE0C6C2D8B2D0E94FD
:102CC000012C8130A1F58FEF8A0D823008F09BC274
:102CD0002EC0882361F191112AC00E948526882385
:102CE00031F18091D50190E02091DE053091DF0532
:102CF000821B930B02966AE070E00E944436162F06
:102D0000BB24B394B60E6E2D8B2D0E94012CA82EE1
:102D1000CC24C394CE0C6C2D8B2D0E94012C8130C1
:102D200031F48FEF8A0D823010F00C94D11FD6FE53
:102D3000C5C06E2D812F0E94012C982E8091D50147
:102D400090E02091DE053091DF05821B930B6AE055
:102D500070E00E94443601E0892B19F000E0812FD9
:102D600002C081E0810F6E2D0E94012C382E882434
:102D700083948E0C002319F081E0810F01C0812F14
:102D8000682D0E94012C582E011103C08FEF810F76
:102D900001C0812F682D0E94012C482E832D0E9496
:102DA000F830682E5701BB245FEFA51AB50AC12E73
:102DB000D12CA501B601842D0E94802B782E0E9473
:102DC00085269091DC019B3081F4882311F40C94CA
:102DD000BB227110C0C064E0361619F096120C9434
:102DE000BB2268E087E00C9435200E94BB2E88232C
:102DF00041F08DEF890D823010F00C94EC1F0C9493
:102E0000D81F002319F081E0810F01C0812F6E2DA2
:102E10000E94012C682E002319F081E0810F01C06F
:102E2000812F682D0E94012C582E62E06E0D002328
:102E300019F081E0810F01C0812F0E94012C782EB2
:102E4000852D0E94F830582E862D0E94F830882358
:102E500011F40C943820552011F40C9438202601DC
:102E60009FEF491A590AA501B201872D0E94802BB4
:102E7000882311F40C942A2064E081E00E949826B3
:102E80001092DC018091E005AAE0EA9E800D1124F9
:102E90008093D6018091D5018C3310F482E0C4C0B8
:102EA0002091DE053091DF0529363F4F24F0109246
:102EB000D7018EEFC5C087FFF1CF98C1D5FEC6C040
:102EC0006E2D812F0E94012C982E2091D50130E08B
:102ED0008091DE059091DF05F901E81BF90BCF0128
:102EE0006AE070E00E94443677247394892B19F0CD
:102EF000712C812F02C08FEF810F6E2D0E94012C4B
:102F0000482E552453945E0C711003C081E0810F4C
:102F100001C0812F652D0E94012C682E842D0E94F6
:102F2000F830882E5701BB24FFEFAF1ABF0AC12E1D
:102F3000D12CA501B601862D0E94802B082F0E945E
:102F400085269091DC019B30B1F4882311F40C9418
:102F5000BB22002331F01092DC010E94E0230C948C
:102F6000CD2224E0421619F092120C94BB2269EF94
:102F700086EF0C94A9200E94BB2E882341F08DEF90
:102F8000890D823010F00C9456200C94602077202C
:102F900019F08FEF810F01C0812F6E2D0E94012C3F
:102FA000982E772019F08FEF810F01C0812F652DAA
:102FB0000E94012C082F62E06E0D772019F08FEF30
:102FC000810F01C0812F0E94012C182F802F0E9499
:102FD000F830082F892D0E94F830882311F40C94C2
:102FE000CD22002311F40C94CD2241E0C41AD10863
:102FF000A501B601812F0E94802B882311F40C9427
:103000009D206FEF8CEF0E9498261092DC0180913A
:10301000E0055AE0E59E800D11248093D601809151
:10302000D5018D3320F08EEF8093D701DDC0209144
:10303000DE053091DF0537FF06C01092D70182E030
:103040008093E205D3C08111EECFD0C0D7FE8CC0F3
:103050008091D60190E02091E0053091E105821B3E
:10306000930B08966AE070E00E9444366B01B62E1E
:103070000E948526F82E882319F06FEF6C0D01C091
:103080006C2D812F0E94012CE82EFF2019F0BB240B
:10309000B394BC0C6B2D812F0E94012C9091DC010C
:1030A0009530BCF097305CF09B3099F4043011F00F
:1030B0000C94C120F1100C94BD200C94C120FF2071
:1030C00071F1033009F08CC08FEF8E0D823038F52E
:1030D00087C00E94E0232091D50130E08091DE0579
:1030E0009091DF05D901A81BB90BCD01EAE0F0E012
:1030F000BF010E944436863020F09F01281B310911
:10310000C90105970CF06EC0033009F06BC08FEF5A
:103110008E0D823008F466C085E08093DC018091DA
:10312000DE053AE0139F800D11248093D5011092A3
:10313000D7011092E2058091D601883130F08EEFF0
:103140008093D8011092E3058EC02091E005309164
:10315000E10537FF06C01092D80182E08093E305B5
:1031600082C08111ECCF7FC0D4FE43C08091D601D4
:1031700090E02091E0053091E105DC01A21BB30B4A
:10318000CD0108966AE070E00E9444367B01D62E9D
:103190000E948526C82E81110C94C8206FEF6E0DF9
:1031A000812F0E94012CB82ECC2019F0DD24D3945D
:1031B000DE0C6D2D812F0E94012CD82E8091DC0118
:1031C0008B3009F035C7043009F4D5C7CC2011F491
:1031D0000C94E12084EF8B0D843010F00C94E120EE
:1031E0000E94E0231092D7011092E2051092D801BC
:1031F000A9CF8091D801823009F4B8CF8091E3053E
:103200008E3F89F5B3CF43E0A41609F490CD84EF47
:103210008093DC011092D7011092E20547E06C2DFB
:103220008B2D0E94822D90918607943181F0E92F99
:10323000F0E09F01220F331FE20FF31FE65BF84F10
:10324000B082C1828CED82839F5F909386078091CC
:103250008C0780938D070E941A2680938C078FE03D
:1032600093E00E94F82480918A0780FD60CC109240
:10327000F506109203071092110710921F07109283
:103280002D0710923B0754EF652E56E0752E8FEFF9
:1032900096E098878F836CEF462E66E0562EA1E06D
:1032A000B7E0BB87AA87EDEFF6E0FD87EC87D30197
:1032B0008C9184FF55C012968D919C9113976AE072
:1032C00070E00E945836F62E6A8BF3018481958156
:1032D0006AE070E00E945836162F6B8B8F2D0E948B
:1032E000012CD82E01E0010F602F8F2D0E94012CA0
:1032F000B82EF6E0DF1205C0D2018C91882309F4C4
:103300006DC7EF81F8858291F98BE88B8D3044F59C
:10331000D30112962D913C911397C9016AE070E098
:103320000E945836892BE1F4F30184809580C40112
:103330006AE070E00E945836892B91F4AF81B8851D
:10334000EC90EE2009F46AC7D2018C9181115DC71F
:10335000F20131971082EF81F8858081815080835E
:10336000EEE06E0E711C2F813885225F3F4F38874B
:103370002F833EE0430E511C4A855B85425F5F4FC1
:103380005B874A878C859D850E969D878C8798E400
:10339000691697E0790609F08ACFC9CB80910001C0
:1033A0008850833060F580910001982F9B7F933087
:1033B00009F087C22091B701822F022E000C990BD1
:1033C0002195220F295C40E450E0481B590B440F23
:1033D000BC010E94572E4091B70160E880E00E9436
:1033E0003E2E8091B70146E3481B60E880E00E94D2
:1033F0003E2EE090B70100E010E0F12CEFC1812CEF
:10340000912C712CA12CB12CE12CC090DE05D09018
:10341000DF05CA0CDB1C0091E0051091E105C60137
:1034200009968938910508F5080D191DC8010996F6
:1034300089349105D0F4672D8E2D0E94012CF82E31
:10344000882339F0282F4CE357E2B801C6010E94C7
:103450000B2529EF2F0D243040F4B8016A50710973
:103460004BE353E0C6010E940B25E394AAE0AA0EA9
:10347000B11CBCE1EB12C9CF7394EAE08E0E911C33
:10348000F0E17F12BFCF80910001853021F0809163
:10349000AE018823F1F08091DC01082F001F002786
:1034A000001F082E000C990B97FF03C09195819582
:1034B0009109880F990BFC01E35EFE4F4081518119
:1034C0006091D60170E08091D50121E090E00E94EA
:1034D000292C84EF482E86E0582E9FEF292E96E067
:1034E000392E2EEFC22E26E0D22E3AEF632E36E092
:1034F000732E5201D5018C9184FFBFC012962D917D
:103500003C9113974091DE055091DF0558874F831A
:103510004A01820E931E14968D919C911597E0900E
:10352000E005F090E105E80EF91ED101EC914E2F77
:1035300050E04331510508F098C0FA01EA5AFF4FB4
:103540000C947B37F6018081082F001F0027001F95
:10355000082E000C990B97FF03C091958195910956
:10356000880F990BFC01E35EFE4F4081518180C0C2
:10357000F1E08F1A910879C02FEF821A920A75C074
:1035800032E0E31AF1089AC744E0E41AF10807C0F0
:1035900056E0E51AF10892C768E0E61AF10800E083
:1035A00045E653E065C0AAE0EA1AF108FC013A9743
:1035B000D5011596FC93EE931497D1011C92C90185
:1035C0006AE070E00E945836462FCF016AE070E052
:1035D0000E945836162F0FEF040F802F298F3A8F35
:1035E000488F0E94012C782F51E0510F652F802FBA
:1035F0005E8B7F8B0E94012C082F488D4F5F612FBF
:10360000842F488F0E94012C982F5E89652F488D4A
:10361000842F9E8B0E94012C482FE091D501F0E071
:10362000AF81B885EA1BFB0B298D3A8D7F899E8976
:10363000E217F30764F4872F0E94E430882309F42B
:1036400037C7802F0E94ED3081112BC731C7892FDA
:10365000488F0E94E430488D882309F422C7842FC4
:103660000E94ED30811124C71CC700E047E853E0F9
:1036700021E0B701C4010E94292CBEE0AB0EB11CB1
:10368000EEE02E0E311CFEE0CF0ED11C2EE0620EBD
:10369000711C38E4A31637E0B30609F02BCF8090F5
:1036A000D501912C8091DE059091DF05881A990A49
:1036B0006090D601712C8091E0059091E105681A27
:1036C000790AD2018C9184FF7FC012968D919C91D2
:1036D0001397F401E81BF90B14962D913C91159763
:1036E000A301421B530B9A01C090D6014C2D50E010
:1036F000421B530BE090D501473F6FEF5607C4F4D0
:103700002E2D30E02E1B3F0B2F3FAFEF3A070CF46E
:10371000D9C62C3731050CF0DDC6E394EE1A8E2D98
:1037200007EAA02E03E0B02E4DED53E090E03AC042
:1037300045335105C4F02E2D30E02E1B3F0B2F3F9B
:10374000BFEF3B070CF4CEC62C3731050CF0D3C6C7
:10375000E394EE1A8E2D18E9A12E13E0B12E4CEC55
:1037600053E093E31FC0F12CEE1AFF0AECEFEE16C4
:10377000EFEFFE064CF49C2D921BBAEBAB2EB3E0A0
:10378000BB2E43EF53E0B5C6FCE7EF16F104E4F0BF
:103790009C2D921BA6EBAA2EA3E0BA2E4EEE53E070
:1037A0008CE702C08F3F81F0C92ED12CE82EF12C7E
:1037B00000E020E0B601C7010E94292C21E0A5010C
:1037C000B601C7010E94292C2EE0420E511C38E49C
:1037D000431637E0530609F074CFE5CD21E0A80188
:1037E000B70187E897E00E9422260E5F1F4F023440
:1037F0001105A1F78091B7010FE7081BE12CF12C0F
:1038000010E021E0A701B80187E897E00E94222696
:1038100042E0E40EF11C52E4E516F10491F78091C8
:103820000001833031F51091B7011150EBE1EE2E1C
:10383000F12CF0E4CF2ED12C17FD12C0812F012ED8
:10384000000C990B9701281B390B220F2F5FA60143
:10385000481B590B440FBC010E94572E1150ECCF4E
:103860008091B70181508093B7018F3F39F584E093
:1038700023C0D12C0BE110E070E4E72EF12C8091F5
:10388000B701D81694F48D2D0D2C000C990B9801CE
:10389000281B390B220F2F5FA701481B590B440F20
:1038A000BC010E94572ED394EACF8F5F8093B7015B
:1038B0008C3121F48091DD0180930001E12CF12C09
:1038C00056C098EF980F9330C8F78A3049F400E05B
:1038D00021E043E554E069E170E08AE290E03AC01B
:1038E000883029F400E021E042E254E02FC010913A
:1038F000C406812F64E60E946F37082F282F4FEBF4
:1039000054E069E170E088E490E00E940B25812F8B
:1039100064E6069F801911246AE00E946F37192F10
:10392000282F4FEB54E069E170E08DE490E00E94B5
:103930000B25212F4FEB54E069E170E082E590E028
:103940000E940B2500E021E048E054E069E170E0CE
:103950008BE290E00E94292C46E167E589E20E9413
:103960003E2E40E267E589E20E943E2EA7CF07E3A4
:1039700010E020E0A801B70187E897E00E94222626
:103980000F5F1F4F00341105A1F78FEFE81AF80AF7
:1039900090E8E916F10459F748E360E880E00E94F6
:1039A0003E2E8091D9019091DA01FE01319626E0F8
:1039B000DF011D922A95E9F77F012AE030E046E019
:1039C0004E0FB9010E9458368193CB014E13F9CFA7
:1039D00000E021E049EE54E06AE370E080E090E02E
:1039E0000E94292C06E310E0F70121917F014FEBA3
:1039F00054E06AE370E0C8010E940B2505501109EC
:103A00000831110589F7F090DB0100E021E04CEA74
:103A100054E06AE370E080E490E00E94292C1AE010
:103A20008F2D612F0E946F37092F282F4FEB54E005
:103A30006AE370E082E590E00E940B25202F4FEBB7
:103A400054E06AE370E087E590E00E940B258091E6
:103A50000001853071F4F090C50600E021E041E9F5
:103A600054E06AE370E080E690E00E94292C8F2DFC
:103A70001DC0F090C40600E021E041E854E06AE394
:103A800070E080E690E00E94292C64E670E08F2DC3
:103A900090E00E944436262F082F4FEB54E06AE353
:103AA00070E081E790E00E940B25802F612F0E943B
:103AB0006F37192F282F4FEB54E06AE370E086E749
:103AC00090E00E940B25212F4FEB54E06AE370E059
:103AD0008BE790E00E940B2580910001853009F072
:103AE000DAC180918A0790918B0780FD1CC02091DC
:103AF000D70121110CC02091D801211108C02091BB
:103B0000E205211104C02091E305222361F02091F8
:103B1000DC01ECE0E20FEC3120F4F0E0E45FFA4F7E
:103B200024912093DC0183709927892B09F445C0E7
:103B30004091D7018091D501480F4093D501109154
:103B4000D8018091D601180F1093D6018091E2051B
:103B5000E091DE05F091DF05E80FF11D87FDFA9594
:103B6000F093DF05E093DE058091E3052091E00509
:103B70003091E105280F311D87FD3A953093E1051D
:103B80002093E005812F90E0821B930B05962AE09D
:103B900030E0B9010E944436062F842F90E08E1B3E
:103BA0009F0B0596B9010E944436862F602F0E9414
:103BB000012C123008F056C020C0AEEFB6E02C91B8
:103BC000CD010A97FC01808184FF11C011968C9170
:103BD000119781110CC083EF820F833008F094C4D9
:103BE000ECE0E20FF0E0E45FFA4FE491EC931E9614
:103BF000F7E0A235BF0719F79BCF833099F51091F5
:103C0000C4061F5F8091DB018A3018F48F5F8093B8
:103C1000DB0186E0809300011093C406612F82EBE4
:103C200090E00E94D636193708F488C481EB90E002
:103C30000E94C836843008F07FC411E0180F612F4D
:103C400081EB90E00E94D636612F85EB90E00E94D8
:103C5000D6360E94BC2D8EE08093DD0188E295E08F
:103C60000E94F82480918A0790918B077C0121E0C3
:103C7000E222FF2480FD76C004EF16E0D8018C918B
:103C800084FF50C0F701EC50F94F868112966D9178
:103C90007C911397680F711D87FD7A9513967C931D
:103CA0006E931297878114964D915C911597480FEA
:103CB000511D87FD5A9515965C934E93149720914C
:103CC000D50130E08091DE059091DF05281B390B8E
:103CD0008091D601E091E005F091E1056901B2E043
:103CE000CB0ED11CDB011896CA16DB06DCF4285F6C
:103CF0003F4F6E5F7F4F62177307A4F490E08E1BF7
:103D00009F0BBC016E5F7F4F9A01285F3F4F621788
:103D1000730744F408964E5F5F4F4817590714F431
:103D20000E948F30025F1F4FEEE0EE0EF11CF4E5B3
:103D3000EF16F10409F0A2CF00E010E0602F812F10
:103D40000E94012C99EF980F943030F441E0480F15
:103D5000602F812F0E94822D1F5F1C3179F70F5F2A
:103D6000003159F780918607882309F4FBC0F12CB4
:103D70004DE0E42E80918607F81608F075C00F2DEF
:103D800010E06801CC0CDD1CF601E00FF11FE65BD2
:103D9000F84F8281882309F462C081508283803188
:103DA00089F038F4813081F0883009F058C04FE054
:103DB00052C0883129F0803209F051C04CE04BC02C
:103DC0004DE049C04EE047C0A091C706B0E0AA0F41
:103DD000BB1FA451B94F84EF96E020E030E04F01C3
:103DE000BF016F5F7F4FFC01408144FF19C0F401A8
:103DF0004081FAE04F9FA0011124FC01A280B38012
:103E00004A155B0569F4FB014081FAE04F9FA00170
:103E10001124FC01A480B5804A155B0509F490C308
:103E20000E96225F3F4F24353105E9F6F601E00F8B
:103E3000F11FE65BF84F80812C89821306C08181D7
:103E40003D89831302C00E948F300C0D1D1DF801A7
:103E5000E65BF84F41E0618180810E94822DF394FE
:103E600089CF882309F47EC080914C07813009F006
:103E700079C080918607815080938607EAE4F7E055
:103E800090E0981770F72381348145812193319315
:103E900041939F5FF6CF20918C0790918D0790956D
:103EA0009223843009F03FC08091B00122FF32C0DC
:103EB0008E3268F48932D0F083E884BD8FEF87BDFD
:103EC00081EF8093800080E4809388000BC083336F
:103ED00088F483E884BD8FEF87BD81EF80938000F5
:103EE0001092880010928A008091B0018F5F8093B9
:103EF000B00138C08091C40697FF04C0883710F421
:103F00008F5F05C094FF2EC0823560F18150809391
:103F1000C40628C0882349F0833348F0883218F05B
:103F200082E0809300011092B0019923D9F0809132
:103F300000018B3040F4893048F4873049F08830F4
:103F400051F481E00DC08E3069F005C082E008C0F8
:103F50008091DD0105C010928D0710928C0785E0DD
:103F6000809300018091AF01811119C38091B0014C
:103F7000811115C38091C506811106C09091000181
:103F8000953019F480E201C080E093E894BD8095FB
:103F900087BD81EF809380001092880010928A0084
:103FA000FEC253E0A51611F40C9497168CE030C9AC
:103FB000662009F4F2C2772019F064E081E005C0C0
:103FC00084E0981206C06AE087E00E9498260C946C
:103FD000421766E085E0F9CF002341F0A501B60164
:103FE000842D0E94A62B81117FC0C7C2662051F08C
:103FF000A501B6016F5F7F4F852D0E94802B811137
:10400000DCCF02C07110C1C2B6016F5F7F4FA50146
:10401000852D0E94A62B8111D0CF1092D70110922E
:10402000E205882309F4E2C88BE08093DC010FC02D
:1040300043E0D412B0C08091DE055AE0159F800D98
:1040400011248093D5016BEF8AEF0E9498260E947D
:10405000A12609C9002371F0A501B201872D0E9494
:10406000A62B8823D1F266E085E00E9498261AC02C
:10407000011193C2682D812F0E94012C182F892DC8
:104080000E94F830882309F488C2B6016F5F7F4F21
:10409000A501812F0E94A62B882309F4BECF8BE0B7
:1040A0008093DC010E94E0230C944217772021F1D9
:1040B000A501B601862D0E94A62B811115C060C2F4
:1040C000882009F46AC2002319F06FEF8CEF05C055
:1040D00034E0931206C069EF86EF0E9498260C9494
:1040E000071866E085E0F9CF8BE08093DC018DEB6B
:1040F00091E00E94F8243FC2882009F449C2652D4E
:10410000812F0E94012C182F892D0E94F8308823BE
:1041100049F0A501B60161507109812F0E94802BE1
:104120008111D3CFB60161507109A501812F0E9481
:10413000A62B882309F471CFC8CF772069F0A50199
:10414000B601812F0E94A62B882309F466CF66E072
:1041500085E00E9498260BC0A501B601812F0E9420
:10416000A62B882309F459CF8BE08093DC010E94B1
:10417000E0230C940718CC2021F187E08093DC0128
:104180002FC8A60155274F5F5F4F612F70E020C0F9
:104190006E2D0C94D0188D2D0E94F830811103C023
:1041A0001092DC011DC8D11003C08BE08093DC01AC
:1041B0008091DE056AE0169F800D11248093D50161
:1041C00046CFA70155274F5F5F4F612F70E08D2DC0
:1041D0000E94802B882309F43ACFE2CF0E94BA369E
:1041E0000E94BA362AE030E040E050E00E940C37EE
:1041F000DC01CB014496A11DB11DF201808340E09A
:10420000612F8F2D0E94822D7CC81150612F8F2D20
:104210000E94012C882309F43BC19AC86FEF610FFB
:104220008F2D298F3A8F0E94012C8E87612FCC24ED
:10423000C394CF0C8C2D0E94012C8987602F8C2D6C
:104240000E94012C8F87602F0FEF0F0D802F0E948F
:10425000012C382E612F802F0E94012C282E409196
:10426000D5018091DE059091DF05841B9109298D90
:104270003A8D280F391F4091D6018091E005909129
:10428000E105841B9109880D991DAC85BD854C9174
:104290004423F9F01F922F923F928B2CAF84C98454
:1042A000EE840D2DEA85FB852081412F6F2DC30102
:1042B0000E94242FAC85BD859C9191509C930F90BA
:1042C0000F900F9081114CC8EA85FB8531973081A2
:1042D00061C037FF1EC0181619065CF43195219590
:1042E000310982179307C4F128173907BCF132E06E
:1042F00046C00097A9F13195219531099195819595
:1043000091092817390774F1821793076CF136E089
:1043100036C021153105C1F01816190644F482176C
:10432000930724F1281739071CF13EE028C00097B5
:1043300009F191958195910928173907ECF08217B9
:104340009307E4F03AE01BC0392F331F3327331FA4
:10435000330F330F330F13C033E011C031E00FC000
:1043600034E00DC037E00BC035E009C03DE007C0C8
:104370003FE005C03CE003C039E001C03BE0EDEFA9
:10438000E30FEC3020F4F0E0EF5EFE4FE080EA85D2
:10439000FB85E082D2018C91882391F09FEF9B0DE9
:1043A000923070F4D1100CC08150F20180838111E1
:1043B00007C046E0612F8F2D3A8F0E94822D3A8DE3
:1043C000F1E0FF932F923F928B2CAF84C984EE844F
:1043D0000D2D232F412F6F2DC3013A8F0E94242FC3
:1043E0000F900F900F903A8D81110C94B019132FEC
:1043F00048E0F42E332311F0315001C03FE021E0BA
:104400002F932F923F928B2CAF84C984EE840D2D75
:10441000232F4B896A89C3013A8F0E94242F0F9062
:104420000F900F903A8D882341F0A889B9898C911B
:104430008B3011F00C94B0191FC01F3011F01F5FAA
:1044400001C010E0B1E0BF932F923F928B2CAF845C
:10445000C984EE840D2D212F4B896A89C3013A8FBF
:104460000E94242F0F900F900F903A8D8111DDCF75
:10447000FA94F110BFCFD9CF8B2D0E94ED30882355
:1044800011F40C94B019F201319710820C94B01908
:10449000F201108246E0612F8F2D0E94822D0C9434
:1044A000A819EFEFD601EC93EEEFD301EC9306C021
:1044B00081E0D6018C9322E0F301208300E046E7FF
:1044C00053E0D6C83FEAA32E33E0B32E46EE53E0C6
:1044D00090E00FC025ECA22E23E0B22E40E054E085
:1044E00090E010C090EAA92E93E0B92E45ED53E07C
:1044F00092E380E059C98EEBA82E83E0B82E48EFF6
:1045000053E092E38BE750C9CD010497FC01808111
:10451000811107C0CD010397FC018081882309F434
:1045200066CB8CE0820F8C3128F4E82FF0E0E45F5A
:10453000FA4F24912C935BCB8FE08ECB89E08CCB10
:10454000AC9011964C9111975AE0A59E5001112400
:10455000FC01B382A282FAE04F9FA0011124FC016A
:1045600055834483A9014C50594FFA01E2861386C2
:104570001682178255CC81E050CD61101ECD03C04C
:104580008110A3CD08C0772041F01092DC0105C056
:104590000111FBCFB4CD0111F8CF80E03ECD6A967A
:1045A0000FB6F894DEBF0FBECDBFDF91CF911F9144
:1045B0000F91FF90EF90DF90CF90BF90AF909F90C2
:1045C0008F907F906F905F904F903F902F900895C5
:1045D000CF92DF92EF92FF920F931F93CF93DF93CF
:1045E0006C017A018B01C0E0D0E0CE15DF0589F0C7
:1045F000D8016D918D01D601ED91FC910190F08172
:10460000E02DC6010995892B11F47E0102C0219687
:10461000ECCFC701DF91CF911F910F91FF90EF90E9
:10462000DF90CF9008958091BF01E091BD01F0919E
:10463000BE01882349F0CF0102969093BE0180937A
:10464000BD01859194910895CF0102969093BE018A
:104650008093BD018081918108958091B101089579
:104660000895089580E090E008950E9481373FB753
:10467000F8948091C7019091C801A091C901B091AF
:10468000CA0126B5A89B05C02F3F19F00196A11DB0
:10469000B11D3FBFBA2FA92F982F8827820F911DD8
:1046A000A11DB11DBC01CD0142E0660F771F881F1F
:1046B000991F4A95D1F708958F929F92AF92BF921A
:1046C000CF92DF92EF92FF926B017C010E94372321
:1046D0004B015C01C114D104E104F104F1F00E942A
:1046E0003723DC01CB0188199909AA09BB09883E47
:1046F0009340A105B10570F321E0C21AD108E10889
:10470000F10888EE880E83E0981EA11CB11CC1142C
:10471000D104E104F10419F7DDCFFF90EF90DF90B1
:10472000CF90BF90AF909F908F9008951F920F925F
:104730000FB60F9211242F933F938F939F93AF93B4
:10474000BF938091B2019091B301A091B401B09157
:10475000B5013091C60123E0230F2D3720F40196D7
:10476000A11DB11D05C026E8230F0296A11DB11D94
:104770002093C6018093B2019093B301A093B4013A
:10478000B093B5018091C7019091C801A091C90172
:10479000B091CA010196A11DB11D8093C7019093EC
:1047A000C801A093C901B093CA01BF91AF919F9175
:1047B0008F913F912F910F900FBE0F901F901895E2
:1047C000E1E7F0E080818D7F808310929100469830
:1047D00047981092B6010895CF92DF92EF92FF9220
:1047E0000F931F93CF93DF930E941323811520E82B
:1047F000920751F4DF91CF911F910F91FF90EF90AD
:10480000DF90CF900C94E02321E02093B60181301B
:1048100020E8920751F48091BB019091BC019093E4
:10482000BE018093BD010E94132397FD05C0209116
:10483000BA01222309F440C02091B90121113CC0E2
:1048400021E02093C001EC01DF77209769F481E03B
:104850008093C10146983FE9C32E3FE0D32EE12C5F
:10486000F12CCAEFD0E014C08E0120E030E060E40B
:1048700072E48FE090E0A90198010E940C37690171
:104880007A0181E0C81AD108E108F1081092C1014B
:10489000E0914807F09149070995811103C081E033
:1048A0008093C1018091C001882309F43FC08091A9
:1048B000C10181113BC003C01092C001C4CF469911
:1048C00035C0479A0E941323009771F09C01DE01C6
:1048D0000E946037DC01CB0129E0B595A79597953B
:1048E00087952A95D1F703C08FEF9FEFDC011092D7
:1048F00090002AE020939100D0929900C0929800F5
:104900008093C2019093C301A093C401B093C501E9
:1049100080917100826080937100DF91CF911F912F
:104920000F91FF90EF90DF90CF9008954798CACFF6
:104930001F920F920FB60F9211242F933F934F9314
:104940005F936F937F938F939F93AF93BF93EF93F7
:10495000FF938091C2019091C301A091C401B091D5
:10496000C501892B8A2B8B2B81F18091C10181118B
:104970000BC098B180E4892788B98091C001882351
:1049800019F088B1805888B98091C2019091C30113
:10499000A091C401B091C501181619061A061B068C
:1049A000B4F48091C2019091C301A091C401B0916F
:1049B000C5010197A109B1098093C2019093C30178
:1049C000A093C401B093C50102C00E94EC23FF91E3
:1049D000EF91BF91AF919F918F917F916F915F9177
:1049E0004F913F912F910F900FBE0F901F901895F0
:1049F0009C01E1E7F0E090819D7F908381E08093CE
:104A0000BF013093BE012093BD013093BC012093C0
:104A1000BB010C94EC234F925F927F928F929F92F6
:104A2000AF92BF92CF92DF92EF92FF920F931F93BC
:104A3000CF93DF9300D000D0CDB7DEB7DC014115B6
:104A4000510509F4DEC0FA01D490319694914E5F7D
:104A50005F4F4D2C512C2223E9F0E92FE695E69586
:104A6000E695EE2EF12CE1E0F0E0892F877011F44D
:104A7000E0E0F0E0EE0DFF1D4E9E70014F9EF00C49
:104A80005E9EF00C11242E9DF0012F9DF00D11243F
:104A90004E0F5F1F5D01A40CB51C1A141B040CF013
:104AA000B0C0A038B1050CF0ACC09B01290F311D7E
:104AB000121613060CF0A5C0603471050CF0A1C0ED
:104AC0004115510509F49DC0F62FF770EF2E9B019B
:104AD00077FF02C0295F3F4F83E0359527958A9580
:104AE000E1F7F22F77FF04C0EE2011F0FFEFF20F95
:104AF000B7FF05C0662777276A1B7B0B02C060E003
:104B000070E000E8A016B10424F080E8F82EFA1A4C
:104B100001C0FD2CF61A2F2F0F2E000C330BFF3F78
:104B20001CF4C22EC09401C0C12CE1E0892F877013
:104B300009F4E0E09695969596959E0F290F311D04
:104B40002930310514F098E09F1B8C2D8F0F9D01AB
:104B5000182F00E81003200D311D1124260F371FD8
:104B6000CD9C600D711D1124640F751F41E050E054
:104B70000E2C02C0440F551F0A94E2F7EFEFE49F9A
:104B8000D001E59FB00D1124A095B095BC83AB83F7
:104B90007C809F0F8917A9F1F901E252FE4F6F0146
:104BA000A12CB12CAF1438F5FB01EA0DFB1DE491EB
:104BB000E49F4001E59F900C11249A82898287FD31
:104BC00007C0F6011081E12FEA238E2AF6018082C8
:104BD000EE2051F0873044F4F601E058FF4F90800A
:104BE00097208A8098289082FFEFAF1ABF0A0FEFB4
:104BF000C01AD00AD7CF8F5F640D751D20583F4F64
:104C0000C9CF0F900F900F900F90DF91CF911F9110
:104C10000F91FF90EF90DF90CF90BF90AF909F905B
:104C20008F907F905F904F900895BC0180E090E05E
:104C30000C945C238FB18095807F669B88601C9B61
:104C40008460089560387105D0F440345105B8F49B
:104C5000EFE9F9E280E1849FD001A0781124A60F4A
:104C60004770E40FF11D8491A252BE4F222319F028
:104C70006C91862B03C080956C9186238C9308954C
:104C80001F93CF93DF93DC0120E030E040E050E061
:104C900011E0C1E0D0E02617370791F114968C910E
:104CA0001497811115C014961C93149712968D9128
:104CB0009C911397ED91FC911197E80FF91FE491E6
:104CC0001596EC931597019613969C938E931297D5
:104CD00014969C91149715968C911597892349F0F9
:104CE000FE01022E02C0EE0FFF1F0A94E2F74E2BC8
:104CF0005F2B990F14969C9314972F5F3F4FCBCF48
:104D0000CA01DF91CF911F9108958091D60190E063
:104D10002091E0053091E105821B930B6AE070E081
:104D20000E9444369C0181E0232B09F080E0089525
:104D30009091DC01981714F0691714F48093DC014A
:104D400008951092D7011092E20582E08093D80175
:104D50001092E3058091D601873160F08091E005E3
:104D60009091E10589399F4F2CF01092D8018EEF78
:104D70008093E3050895FC012285261714F042175D
:104D800014F4FC0162870895BF92CF92DF92EF92F4
:104D9000FF920F931F93CF93DF93FC0166834783AA
:104DA000842F880F880F840F30E18302C001112403
:104DB000962F990F990F960F9F70892B818367FF0C
:104DC00002C08CE003C0662311F084E0848747FFB3
:104DD00002C0148604C0442311F088E08487222393
:104DE00009F44CC08185811149C0EF01848581118E
:104DF00035C01D868A819B812AE030E0B9010E947E
:104E00005836162F8C819D81B9010E94583600E0DA
:104E1000FF24FA94F60ECC24CA94C10EBB24B3949A
:104E2000B10EDF2CD01A6D2D812F0E94012C833002
:104E300099F46D2D8C2D0E94012CE82E6D2D8B2D5B
:104E40000E94012C982F0F5F2DEF2E0D223020F0A5
:104E50008DEF890F823060F4098710C00E94BA3646
:104E600026E030E040E050E00E940C37698706C041
:104E70009111D7CF91509330A0F6EECFDF91CF9123
:104E80001F910F91FF90EF90DF90CF90BF9008950A
:104E9000CF93DF931F92CDB7DEB76983DC01ED912D
:104EA000FC910280F381E02D41E050E0BE016F5F94
:104EB0007F4F09950F90DF91CF91089583E0809304
:104EC000E9008091F200882319F08AE38093E800DA
:104ED0000895FC018485958597FD0BC09FB7F894D4
:104EE00082E08093E9008091F2009FBF90E00196FC
:104EF00008959FB7F89482E08093E9008091F200D2
:104F00009FBF90E008958F929F92AF92BF92CF92F1
:104F1000DF92EF92FF920F931F93CF93DF935C0189
:104F20006B017A0180910C01882309F45BC08091A8
:104F3000D401882309F456C08091D10180FF05C0B7
:104F40008091E00082608093E000E70110E00AEFCA
:104F500083E0882E9AE3992E2097D9F10E94FF2EA4
:104F600081110AC0015009F43DC061E070E080E0A9
:104F700090E00E945C23F0CF282F30E0C217D307C7
:104F80000CF48C2F4FB7F8948092E9009091E800D0
:104F900095FF1DC0282F30E0C21BD30BF601982FC0
:104FA000915020F081918093F100FACFC20ED31E70
:104FB000112319F09092E80009C08091E80085FD66
:104FC00006C09092E80011E0209709F010E04FBF72
:104FD000C3CF1111C3CF5D9884E68093D2011E1414
:104FE0001F0444F081E090E0F5019383828380E028
:104FF00090E001C0C701DF91CF911F910F91FF9009
:10500000EF90DF90CF90BF90AF909F908F900895DA
:105010000E94FF2E90E00895CF93DF931F92CDB7AB
:10502000DEB7FC018485958597FD05C02FEF3FEF26
:10503000358724870BC0CE0101960E94D52E01979B
:1050400019F4898190E002C08FEF9FEF0F90DF91FC
:10505000CF9108950F931F93CF93DF931F92CDB7F6
:10506000DEB78C01FC018485958597FF0EC0CE01CB
:1050700001960E94D52E019719F4298130E002C0D3
:105080002FEF3FEFF80135872487F8018485958558
:105090000F90DF91CF911F910F910895DF92EF92C2
:1050A000FF920F931F93CF93DF93D82E8A017B013A
:1050B000E40EF51EEB01CE15DF0571F0D7FE03C03F
:1050C000FE01849101C088810E94013121968111E5
:1050D000F2CF8FEF9FEF01C0C801DF91CF911F91F9
:1050E0000F91FF90EF90DF9008950F931F93CF9350
:1050F000DF931F92CDB7DEB782E0898342E450E0B0
:1051000067EA79E280E80E944E280E94102FDC01B5
:1051100012960D911C9113970115110569F0D80194
:10512000ED91FC910280F381E02DBE016F5F7F4F16
:10513000C801099597FF07C089810F90DF91CF9132
:105140001F910F910895F80100851185E5CF1F92F9
:105150000F920FB60F9211248F939F938091E100CD
:105160009091E100937F9093E10083FF0FC0109234
:10517000E90091E09093EB001092EC0092E39093A1
:10518000ED001092D40198E09093F00082FF20C0CF
:1051900093E09093E9009091F200992319F09AE33B
:1051A0009093E8009091D201992339F09091D20127
:1051B00091509093D201992389F19091D301992331
:1051C00039F09091D30191509093D301992341F1FB
:1051D00084FF10C08091E2008E7E81608093E200A7
:1051E0008091E1008F7E8093E1008091D1018E7EDD
:1051F000806111C080FF16C08091E2008E7E8061C8
:105200008093E2008091E1008E7E8093E1008091A6
:10521000D1018E7E81608093D10104C05D9ACDCF93
:10522000289AD6CF9F918F910F900FBE0F901F900D
:1052300018951F920F920FB60F921124CF92DF9202
:10524000EF92FF920F931F932F933F934F935F9390
:105250006F937F938F939F93AF93BF93EF93FF933E
:10526000CF93DF93CDB7DEB76C97DEBFCDBF109283
:10527000E9008091E80083FFEDC168E0CE0145962A
:105280000E942F3182EF8093E8008D8987FF05C04F
:105290009091E80090FFFCCF03C09EEF9093E80050
:1052A000982F907609F0C6C09E892F89188D91118C
:1052B0000CC0803829F48091D0018093F10002C0A5
:1052C0001092F1001092F10048C1422F50E0512B92
:1052D000913051F4811141C14130510509F03DC176
:1052E0008091D0018D7F0BC0933061F4811135C165
:1052F0004130510509F031C18091D0018260809325
:10530000D0012BC1953041F48091E80080FFFCCFA3
:1053100020682093E30021C1963009F05FC0EB8C38
:10532000FC8C1092E9001092CE011092CD01123047
:1053300091F51092CC011092CB010E94752899E052
:10534000BE016F5F7F4FDB01E92F1D92EA95E9F700
:1053500099831A8391E09E8390EA98879AEF9987C0
:105360002091CD013091CE01275F3F4F3C832B83AD
:105370008D831092E9001092CE011092CD01F0922F
:10538000CC01E092CB0149E050E080E00E944E2841
:105390000E947528E2C0F092CC01E092CB010E94FD
:1053A000102FDC011296ED90FC901397E114F1049C
:1053B00009F4C0C0D701ED91FC910480F581E02D86
:1053C000BE016B5E7F4FC7010995009719F00CF085
:1053D000C4C0C7C0F701E084F184E8CF973009F476
:1053E000C0C0983021F481E08093F100B6C09930BC
:1053F00009F0B3C0837009F0B4C0E0E9F1E081E0E6
:1054000021E036E39081992361F08093E9002093B5
:10541000EB0091919093EC003093ED008F5F87301B
:1054200089F78EE78093EA001092EA008F898093D3
:10543000D40193C08B8D9C8D1092E9001092CE0107
:105440001092CD019093CC018093CB01898D811175
:1054500056C08E899D89913A59F4813209F081C0F4
:1054600047E050E065E071E080E00E944E2875C0A2
:10547000913209F076C0833289F4888D90E0982FBC
:1054800088272F89822BA0E0B0E0809301019093C0
:105490000201A0930301B09304015FC0803269F45C
:1054A0008091E80082FFFCCF67E085E091E00E94F8
:1054B0002F318BEF8093E80006C0823209F04DC097
:1054C0008F8980930C018091CF01882319F0EEEF32
:1054D000FAE002C0E0E0F8E0809105019091060159
:1054E000A0910701B0910801803B9440A105B1054E
:1054F00009F07BC080910C0180FF93C076C00E94B0
:10550000102FDC0112960D911C91139701151105B6
:1055100041F1D801ED91FC910190F081E02DBE01A7
:105520006B5E7F4FC8010995811117C0F801008596
:105530001185ECCF113009F44EC0133091F48F89EE
:10554000882309F445C0823081F440E860E18BE0B3
:105550009AE20E94B935882321F08EEF8093E8000B
:1055600079C081E28093EB0075C0813029F440E876
:105570006BE08FEF99E2EDCF833099F70E94102F07
:10558000DC011296ED90FC9013978E010F5F1F4F78
:105590006801E114F10479F0D701ED91FC910680E6
:1055A000F781E02DB801C7010995080F111DF7011A
:1055B000E084F184EECFD8011C92F6010190002026
:1055C000E9F73197BF016C197D0940E0C601C1CFF1
:1055D00069EE79E202C06DEE79E26115710509F2BA
:1055E000FB01449150E080E840CF0FB6F894A895B5
:1055F00080916000886180936000109260000FBE0F
:10560000A895EE3F2AE0F20739F08091FE0A9091CA
:10561000FF0A91838083A1CF1092FF0A1092FE0AA5
:105620009CCFEE3F8AE0F80731F080819181909322
:10563000FF0A8093FE0A87E797E7918380839BE0C8
:1056400088E10FB6F894A895809360000FBE909300
:10565000600083CF6C960FB6F894DEBF0FBECDBF4F
:10566000DF91CF91FF91EF91BF91AF919F918F917A
:105670007F916F915F914F913F912F911F910F916A
:10568000FF90EF90DF90CF900F900FBE0F901F9084
:1056900018959C01240F311D1216130684F58038CD
:1056A00091056CF5FC0197FF02C0E0E0F0E02138C5
:1056B000310514F020E830E02E1BAB014770552770
:1056C00081E090E001C0880F4A95EAF7809577FF66
:1056D00002C0695F7F4F93E0759567959A95E1F7F2
:1056E0007695762F662777956795E60FF71FE25236
:1056F000FE4F215020F0908198239193FACF089586
:105700008150833008F18AE0869F9001879F300D99
:105710001124849FB001859F700D1124E4EFF6E001
:10572000808184FF0AC0828193818217930729F4C4
:10573000848195818617970739F03E9687E0E83493
:10574000F80771F780E0089581E00895873028F424
:10575000843038F5882329F126C0803120F58AE08D
:10576000869F9001879F300D1124849FB001859FF3
:10577000700D1124E4EFF6E0808184FF0DC0828576
:105780008B3051F4828193818217930729F48481AD
:1057900095818617970739F03E9687E0E834F80739
:1057A00059F781E0089580E00895853031F118F4CB
:1057B000882319F124C08750883008F58AE0869F35
:1057C0009001879F300D1124849FB001859F700D3B
:1057D0001124E4EFF6E0808184FF0AC08281938186
:1057E0008217930729F4848195818617970739F0EA
:1057F0003E9687E0E834F80771F781E0089580E08D
:1058000008958C3100F56F3F01F1603100F570E0D3
:10581000982F969520E180FD0BC0929FC001112426
:1058200082529A4FFC01E60FF71F8681829509C0CC
:10583000929FC001112482529A4FFC01E60FF71F7C
:1058400086818F70089581E0089580E0089582E058
:1058500008952F923F924F925F926F927F928F9214
:105860009F92AF92BF92CF92DF92EF92FF920F93EF
:105870001F93CF93DF93CDB7DEB761970FB6F89440
:10588000DEBF0FBECDBF4C017B012A875A834983FF
:105890001C821B821D821E8268E070E0CE01019690
:1058A0000E9440263C01AC014F5F5F4F59874887FB
:1058B00068E070E0CE0101960E9440266C0161E034
:1058C00070E0CE0101960E94402628853985280D7A
:1058D000391D37FDFEC050E8851691040CF0F9C063
:1058E00096012F5F3F4FA701420F531F57FDF1C095
:1058F00060E4E616F1040CF0ECC06701F7FE04C0AA
:10590000CC24DD24CE18DF0877E0C722DD24A701F0
:10591000F7FE02C0495F5F4F2A0153E05594479458
:105920005A95E1F7F7FE09C091E0491A510848E09D
:1059300050E0FA01EC19FD096F01A90137FF02C01F
:10594000495F5F4F1A0143E0359427944A95E1F788
:1059500027703327232B19F0FFEF2F1A3F0A00235C
:1059600011F0730102C0E12CF12C8F8321E010E0D3
:10597000A12CB12C88E090E0AC014C195D095C874A
:105980004B87A214B3040CF0A4C041E050E061E0E6
:1059900070E0CE0101962F874D875E870E944026DA
:1059A0002F854D855E85892B19F44E5F5F4FEFCFB4
:1059B000BA01CE0101960E944026DC01119640E01A
:1059C00050E02F854A175B0708F07AC06F8161119C
:1059D000122B220F09F071C0C2018A0D9B1D9C0180
:1059E0002F5F3F4F2930310508F04AC09701280D3D
:1059F000391D2038310508F043C0BC017695762F5B
:105A0000662777956795680D791D6E0D7F1D8F3F11
:105A1000EFEF9E0709F459C0212F30E0F9010C2C5B
:105A200002C0EE0FFF1F0A94E2F7F98BE88BFB012F
:105A3000E252FE4F2A85222321F030812889232B30
:105A400004C028892095308123232083C114D104E8
:105A5000B9F00797A9F0812F90E00B8402C09595CB
:105A600087950A94E2F7FB01E25AFD4F2A8522232B
:105A700019F01081812B03C08095108181238083D0
:105A8000011110C06FEFE61AF60A88859985E816AD
:105A9000F9068CF09FEFA91AB90A21E010E0E12C79
:105AA000F12C0BC0E1E0EE1AF108F7FE04C0FFEFA5
:105AB000AF1ABF0A730121E010E04F5F5F4F82CF42
:105AC0004F8151E045274F835CCFC114D10419F6B3
:105AD000D7CF61960FB6F894DEBF0FBECDBFDF9172
