:100000000C94D8130C9400140C9400140C94001449
:100010000C9400140C9400140C9400140C94001410
:100020000C9400140C9400140C948A270C94FC2754
:100030000C9400140C9400140C9400140C940014F0
:100040000C9400140C9400140C9400140C940014E0
:100050000C9400140C9400140C9400140C94402282
:100060000C9400140C9400140C9400140C940014C0
:100070000C9400140C9400140C9400140C940014B0
:100080000C9442230C9400140C9400140C9400144F
:100090000C9400140C9400140C9400140C94001490
:1000A0000C9400140C9400140C9400144B197C193B
:1000B0007C1975197519711971196D196D196919ED
:1000C000691961196119651965196119611965194C
:1000D000651968328432F132983498349834903407
:1000E00098349834963498349B349B349B34BA3487
:1000F000552E552E552E762E762E762ED02ED02E8F
:10010000D02ED02ED02E052F052F052F552E552E53
:10011000090FE8D2D9ED76BB4EC7B7DD6EB7DBED80
:100120007636090FE8D3E974FCDBED76BBDD6E674C
:1001300003090F109BCE6EB7DB753A36090FB8B2C4
:10014000E9145FD7ABCF85A2ED6CDB5901090FBC79
:1001500092EE55A9A4D2AAAD53E4E9E8B6B30309D7
:100160000FF8B6CAF55FB9B5EBD436EEED6CDB59D6
:1001700001090F38B39FEAB397770A4BDBD9B6B3BF
:1001800002090FBC924EA5FAECE554CEC9D9D3F9B9
:10019000EC367A090FB8B29F6AA2745FBB8E773BC8
:1001A0007B3A5A090F38972ACA6B998E39BD1D5B65
:1001B000090F5CA73EF54D96DBF5B950B79D1D20A4
:1001C000064B000000190075054B000000190027C0
:1001D000054B000000190097044B000000190017A0
:1001E000044B0000001900B8074B0000001900E0A4
:1001F000064B000000190010034B0000001900BA64
:10020000024B000000190093024B00000019004B44
:10021000024B00000019000B024B0000001900DC2B
:10022000034B000000190070034B00000019008808
:10023000014B00000019005D014B00000019004A4D
:10024000014B000000190026014B000000190006B8
:10025000014B0000001900EE014B0000001900B82E
:10026000014B0000001900C4004B0000001900AF52
:10027000004B0000001900A5004B0000001900937E
:10028000004B000000190083004B0000001900F72C
:10029000004B0000001900DC004B00000019006258
:1002A000004B000000190057004B000000190052DD
:1002B000004B000000190049004B000000190041EC
:1002C000004B00000019007B004B00000019006E7D
:1002D000004B000000190031004B00000019002CF9
:1002E000004B000000190029004B000000190025F8
:1002F000004B000000190021004B00000019003ED7
:10030000004B000000190037004B000000190000EE
:10031000804B024B0000000F004B024B0000000F0F
:10032000004B024B0000000F0026014B000080E054
:10033000060F0017040F0027050F0000800A081899
:10034000006000800020004000000060009000205D
:1003500000000000000000801000208000008000ED
:1003600000200000000040090FA8D69D2BA2AC93EE
:100370002A75BB08B3DBB106090F88769D7A995DB3
:10038000CBDA756AD46DD7B101090FB8969F6AA20E
:1003900074D7ABCFCDBC9D753B2B0607A8D2E974B3
:1003A0003A2E0407723A9D8E0A06077C3A9D4E4704
:1003B0000704079D4BA7A303030788E5030792CC17
:1003C0000407B8D2E99C5304077C3A9D760E0607D1
:1003D000DE6EB7DBED76070407A59276BB5D0106FE
:1003E00007B7DBED76BBDD020407A5926ABBDD0231
:1003F0000307F8743A0307759A100407D476BB9282
:100400004A2A0407B7DBAD5452011507A54E47250C
:1004100055552A1595F3D99C2293AA2A958A4AEA1A
:10042000745C95032907522E95AA4A95E272AA9206
:1004300095755452E5B3924AAAAA542A6EE552A978
:10044000544E71399F4E392EA9AA52A9A8A4AA6464
:10045000656B4A550A2907D369A9A293AA9295AD5B
:10046000A9F64A4DEF54252BEBB8944BA5AA52A5FB
:10047000B89CAA64651D552A25552A2AE9F24949DE
:10048000A94A010E07A54E47E57C36A7C8A44EC76A
:100490005571011307522E95AA4A95E2522E954A9C
:1004A000E51497D4E9A8A44AA552394556390F074F
:1004B000A5CB67B3924AAAAA542A2AE9F249C95598
:1004C0003904050E11110E00121F10121915120A0F
:1004D00011150A06051F04171515090E1515080133
:1004E0001905030A15150A121509061907EA5455C4
:1004F000AA2AD59129974AA572159972A9542AA7B3
:10050000B8A4AA64656B2AA9AA52A9B82A2EF4F540
:10051000F9F6F7F8FBFAFFFCFDFE00020304010602
:100520000508090A070B0C0E0F0088016400000083
:100530001400DC036400000014004B02640000009F
:100540002800170464000000140027056400000060
:100550001400200664000000280000800C0E030533
:10056000061706040E03000000010002040616062A
:10057000190D050E000B310B284101862105C10321
:10058000612104C1034161012101C1022A614127A6
:10059000014161012604C104614104C103416101BB
:1005A000266129410122A12301416101266105C182
:1005B000034106C1014161072961410122A32101D3
:1005C000286101C107614104C10B6229410122A1D7
:1005D00023096202C1064106C10961296141012264
:1005E000A3210225026108C1614106C1022102C1A5
:1005F00021026229410122A12304612202621561C4
:100600002101C101613C001A04030B011101020424
:100610000405001600050116010A01100101041964
:1006200004002304220422042204270224022402B8
:10063000240224610222612102226121022161221D
:10064000022161220262032161826101216103C1F1
:100650006121016182612103620224C1612462245B
:1006600061C124026223022261210221612202214E
:10067000612202236222042161C103612103C1615D
:1006800021042262230224622462240223620222C1
:100690006121022261210221612202216122026282
:1006A00003216104216103C161210461210362020C
:1006B0002462246224622402622302226121022134
:1006C000612202216122022362220421610461214C
:1006D0000461210422622302246224622402236230
:1006E00004C1046201C1026204C104623A610017DC
:1006F0000F040C020E02020919090400001B00007D
:10070000011B010A01100103091809001F192661C4
:100710002461036124612701810461046141614115
:10072000610461058101610125066103C1022601A1
:1007300062012502216721022601620122C10121F5
:100740000221614561210222C123016201250221AA
:1007500067210226016209870A6205610641066176
:100760000662456104C143C10461466205610445F6
:10077000046106622561034703612662056101C1C8
:1007800049C1016106624561014B01614661C105D4
:10079000614D6106C100070A03070117060A0E032F
:1007A00000000001000208010D041806090E001FD8
:1007B0001A2A462144214461C1156104612209417C
:1007C00003C104C183C102612562216228022103A1
:1007D0002102610421620162210142240961042194
:1007E00062C16221014101240123612461042701C6
:1007F00041C12305610461166104610F2161256116
:1008000044612261286123016101C2026104610225
:1008100061086104610142052261026122C1210473
:100820006102230142260161026124046103C102C5
:100830004207613242234461000E0E031700040791
:1008400016080200001B00050718080004C104C1B7
:1008500005C108C1036126612301256123012562C9
:100860000661096109610161066102810461096132
:100870000161066102810181046109610161066112
:1008800081038102610188610161866106810261E3
:1008900009610861810581610961012601610281A7
:1008A0000381026105C101C10161220123026102CC
:1008B00081018102610481234301C103C1016104FB
:1008C0008104610381234322A1230261028101810A
:1008D00002610481234322A12101210161028103DC
:1008E000810261038122C24202C101C1036181050B
:1008F000816104814626016104C1046101C102468F
:100900003C000D0E04050807081408160806000030
:100910001B0000011B0100021B0206080908120847
:100920001508020000000000000110000000000097
:100930000000000000000002200000000000000095
:100940006000000060011006000000060021212167
:100950002121213223121212121212000600000667
:1009600000311300600000600032121212121212E5
:10097000212121212121233000600060000110008D
:100980000600060003212121212121322312121207
:100990001212120000600060003113000600060011
:1009A0000032121212121212212121212121233090
:1009B00006000006000110006000006003212121F4
:1009C00021212132231212121212120060000000A3
:1009D00060311306000000060032121212121212C9
:1009E00021212121212123300000000000000000EE
:1009F000000000000312121212121212121212122E
:100A0000121212010E02080E130E0200001B000744
:100A10000E090E120E140E000188C226C288016152
:100A200007C1236423C1076206C12263026322C196
:100A30000662062262066222066205C1216208621F
:100A400021C10562052261C108C16122056205213B
:100A500062C108C162210562052161C208C261212B
:100A60000562052162C108C162210562052261C1DA
:100A700008C161220562062162C106C162210662C7
:100A80000621A162C202C262A121066207A12163FE
:100A9000C26321A107620823642308620A260A614F
:100AA00029610861286100010F0319020706150F6B
:100AB00007050005010002030205020003010418F6
:100AC0000204040C07130F00250136042101210143
:100AD000870C21012203210121C1032161210B2166
:100AE000022501266125C10121612505C1832461FB
:100AF00028612101290321022161230124612101AF
:100B0000220D216123012201216121C101216127DF
:100B1000612161C101216123012201216124610759
:100B200061256123C1012101216122012161092483
:100B3000612601216122C12161072105610861034C
:100B40002161236124612141214121412141214130
:100B50002141216121412141612361246126022536
:100B60006121412141610361046127022461046123
:100B7000286128C1012762086101C10126086100BE
:100B800002070218010902030000030103020A021E
:100B90001A03080E170E001C23012409860A820F6F
:100BA000456103612102256126830321016224023C
:100BB00021C183618521032461216106240323610E
:100BC000210321C102610161062184618461210345
:100BD0002181026101610221032161C121C161C141
:100BE0002161C1612103210361C1216122032C0420
:100BF000216123016104C12105C104210561046152
:100C0000042203236103210561046102C121012142
:100C100006610321C102612501610221022103C194
:100C20000261032202610661C12103210161266183
:100C300001210121C16106612102C101210161215E
:100C400002C1012161042161053C000D0E03050470
:100C50001507040F050E000E010E020F020F03020E
:100C6000031903050F170F001F19C11AC1216101D4
:100C7000618B0188610161236212C10162256101FA
:100C800061860189610161276201C10E6228A1614B
:100C90000161870184610161A128A121620AC1016A
:100CA0006221A128A1226101618301846101612285
:100CB000A128A1236201C1066223A128A124610108
:100CC0006182018161016124A128A125620462255C
:100CD000A128A12662026226A128A1276101C16183
:100CE00027A128086122610824001501050A010CCA
:100CF000010E01080E110E021B001B0103010B0166
:100D00000D01190100411B4105C412412AA12F61A7
:100D10001B61044101C102C107C106C14101610457
:100D20004127A127A1244101611B61064102C104A1
:100D3000C105C102410361064123A126A12541034A
:100D4000611B61074102C105C104C1410461064242
:100D50002E4104611B611B61C414614101612A467B
:100D600028420161000E0B03020015000F0202066B
:100D7000001600010014000E02150F0101240423C7
:100D80000522C1210421C1210522C12104230524FA
:100D90000382032201810581062201810624066562
:100DA0000122C121058104810122C1210722018183
:100DB0000124072201810B810181026A02810681DF
:100DC00009260181082603230424C1210321C1A18E
:100DD0000424C12103230424C1210181082681099F
:100DE0002601660281068107220166072281062408
:100DF00003640522C12106230322C1210621C1214A
:100E0000032406231F0A000A0E0318051207030A0B
:100E1000030D000D010D0204021A051307040A0058
:100E20001C8B13C104C101416104C10C294761023B
:100E3000C1614161052141214121412145034761B2
:100E40000F4202C106416102C1028861014225616F
:100E500003422461086101420561052461086101C2
:100E60004201286101246101C104C1016101420103
:100E70002106216101246123032101610142012135
:100E800003C10221610122C12161270161014201E7
:100E9000286101220121610861042102C10321614D
:100EA0000421612E016122610127610F6101C1618D
:100EB00008613C00070104140104090A09180B0A1F
:100EC00000031B0300041B04000501051A051B0594
:100ED00001061A06130103090B09170B0230000063
:100EE00000000000000000000000033000000000CF
:100EF00000000000000000000330002131244444C1
:100F00004444421312000300002630206000000613
:100F10000203020000002110301120000002110322
:100F20006112000026003006206000020603016204
:100F300000201110300011200211111301010220B4
:100F40000000300000206260000301006220000009
:100F50003111112312110003011012206000300022
:100F600000030000000300000223111130002113D0
:100F7000111200030001320320603000100306014B
:100F8000000300023003211030111003000111038F
:100F900001123003062030200003000062030260CB
:100FA0003003000111000003000000111000301197
:100FB000111111111111111111111111110D0E0336
:100FC00005010D021605031A001A011A0204010C8C
:100FD0000216021505001F19612A6104C106C10429
:100FE000610A612461042361236101C106C10161B9
:100FF000034161076103610121022301210161C2F3
:101000000141610761036101210123022101614264
:1010100001412A42610121022301210161420C4167
:10102000C1610121012302210161418802C1024104
:10103000620121C101230121016141C107246141F4
:1010400062012502210161420B61016201280161F7
:101050004204C1066122610A6142014604610261E3
:101060004821440B6102611861023C00070502102F
:10107000030F0F041A001A011A021A0312010E02BA
:101080000105100F020000200000200000200000D9
:10109000000002000020000020000020006000008E
:1010A0000200002511112000002111100111021170
:1010B00010000000001113000600000602111111BB
:1010C0001111130003111111110132000000000071
:1010D00003011310006000013213111111111306E6
:1010E000131011111301321444444441130113101D
:1010F00010000301321001001061130003301011C1
:1011000013013210010010013311113116111301B6
:1011100032100106100131000000101113003210CE
:1011200001111001310111101000031332131100CD
:101130001133310161101111111302130002213317
:10114000110001001160000312130002000311518D
:1011500011151111111312131110000300000000DA
:1011600000000003021A0E0312080509020E0A10FD
:10117000000F0110010E020F020D030E030C040DEF
:10118000040C050E0607070108180A001F1F1F1F81
:101190001F1761226118612261C1146127610D214D
:1011A0006104612101C101C101216101216121614C
:1011B0000923612C612361082201C1022401C103BA
:1011C00061C102226107246102C101236101612220
:1011D000610121610821C12161236101C101610116
:1011E00061C12161C12161093261035C000907030A
:1011F00008021403190C041700170117021703093A
:101200000213031708040E000349124109410C425E
:10121000024103C20621610A420142226128426161
:1012200008C142014123612B6122432161452263B0
:10123000218721632184618361412261016121024F
:10124000C10421610161210861412261016121071D
:10125000216101612101C104C10161412261C161BA
:1012600024612461C16121410641614129613061EC
:10127000410622632202C104C103C10161418621EA
:101280006201628E614101C104216103610E61410D
:1012900007610361022B01614404610361012301C1
:1012A000C12202C101226141264161C101C1610225
:1012B0002D000D0F03060508090D090812001B007B
:1012C0001B011B021B031B041B051B061603050544
:1012D00009090E090007C104C10FC2306109220AC1
:1012E000C102C102611261286102C103C10B610820
:1012F000612805C102C10161156126610BC1086148
:1013000006610661296101C1016106610661096129
:101310002361066104C1016107C1016106612361A6
:10132000266104612506618804C1026109C1016169
:10133000C10761266103C1012761076106612507B5
:10134000610761136102C1046106C10500040E0357
:101350000D0217090B0E051A00180119011A0118C0
:10136000020E0208061809130C005A012161966149
:1013700003216108220C6101C10121610261013573
:101380006121610261012312612161026103210176
:101390003361026102612103C1022101C101210106
:1013A000C1012101C1022161026102612261326138
:1013B00002618261026125012506216102610261EB
:1013C0000261042101C121092161026102610261FE
:1013D000826101246182276102610261026102610E
:1013E000056102276102610261026102618261029C
:1013F00061022761026102610261026102610121F1
:10140000612301C301216102610261026102610283
:101410006102612361376101C26125000B0E040D79
:10142000001701070207080113000F001801060248
:101430000808000EC118286105C10BC109612161AE
:10144000256105C1256107610161056123A12304AF
:101450006187610161C104610B610761012701C1FD
:10146000096107610823612761076188C10261077B
:101470006104C1026107C129022861042407C10374
:10148000C1076108256123A1236102C1026103C173
:101490000961072E6105611561056101C10AC10875
:1014A000613C000D0E040A01110106051505020C30
:1014B000000F000902120205061606000D2218C1CF
:1014C000612261C11561266113C1612661C111618B
:1014D0002A610FC1612A61C10D612E610BC16103D7
:1014E000C80361C10961326107C1613261C105612F
:1014F000366104613661046116610461166104613C
:101500001661023C000B0E0303041A0A130B0203BC
:101510000003011A0105020F02100B001F07C10989
:10152000C106C161A12161046123610561236121BB
:10153000022162022603612561036102C10162C1C9
:101540000A61056103240162A12409236121076264
:10155000014124072208612101620141250522077A
:10156000612161026201412B04C103610322610117
:10157000412B03230261056101410423012308611A
:1015800004C161014102C1012201C10122086103BC
:1015900022610141612B61266103226102610B61BD
:1015A000066103226102611261033E00040A030A1C
:1015B000020F0618060600001B0000011B010002B6
:1015C0001B0202020F0218020E06001F1F166123E3
:1015D000A1366223A1366207228822076203C10373
:1015E000C1216106C122076207226101280225622A
:1015F000022302226107220222C122620221C121AA
:101600000222610722022562072862220222C122E9
:10161000620223022862220225620223022206615C
:10162000012207620223022205C161012204C102D4
:10163000612A6129612E02C1612601C10161270071
:10164000140102070C140C0F19001A011B021A03D3
:10165000190418051706160717081809190A1A0B8E
:101660001B0C1B0D1B0E060C080C130C150C001F7D
:101670001CA1246226651061032102610FC105616E
:1016800001612102610F21C105622102610E23C1A6
:1016900005612102610D25C104612102610B28044D
:1016A000612102610CC12505612102610E230661E1
:1016B0002102610F21076121026117612102610C82
:1016C000612EA129032F096121013003C661220087
:1016D0000E0A0408011401030518050B00001B0085
:1016E00000011B01000201020202030219021A0298
:1016F0001B020701130104051905001F03C104C1E2
:1017000005C104C10928610361280F6103611261E9
:101710002D6106C105C16105C101C10561C104C1D9
:10172000276101C101C125C101C101612607610114
:1017300024032401610AC1026106C1066101C106D8
:1017400061366104611661046101C104C1612761F0
:101750000661022A610761290A6107610BC10761FD
:10176000076106C10221412141214121412141213D
:101770004121412141214121412141214121412159
:101780004100100F0306000F0006090302001100BC
:10179000160005000E00140A040F020000000000ED
:1017A00004000040000004000604300043400040F4
:1017B00004034000304003403004030400004003B1
:1017C000040030040360304003004004000300467E
:1017D0003000430034004300044000036004300044
:1017E0000334000403400440040344444404003030
:1017F0004000430046040003000000304034040071
:1018000003644300400300000030043040400344C0
:101810000300040300000030043406040340030402
:101820000043400000300430430040000300040047
:101830000400003004340300040003004040004072
:10184000003004304304004003640004000400300E
:10185000643403000404034040064000403040303C
:10186000430040004300000404040434000003006B
:101870000006000006000000003000090E040C0005
:1018800017000C0C140C0F1B001B011B021B031B6D
:10189000041B051B061B071B081B091B0A1B0B1B34
:1018A0000C1B0D1B0E03001500060C180C0200008B
:1018B00000000000000000000000000053535353DC
:1018C00053535353535353535350535353535353EB
:1018D000535353535353535063130313631303135B
:1018E00063130313631053135313531353135313FB
:1018F00053135310531353135313531353135313BB
:1019000053105313531353135313531353135310AD
:10191000031303130313631303136313031053130A
:10192000531353135313531353135310531353138A
:10193000531353135313531353106303030303033A
:1019400003030303030303003111111111111111DA
:1019500011111111111030000000006000600060D2
:1019600000000000322222222222222222222222CF
:10197000222036000000000000000000000000608F
:101980001111111111111111111111111111110E4A
:10199000030E061606040A01180003000E001906BD
:1019A000070A0006C105C10F613161056103610DC0
:1019B000C10361056102C129612905612B620E61C4
:1019C000032762876107610321C101C122620861A7
:1019D00002C1046102C1256205612443246123051B
:1019E0006106610B61086106610B61086103C10258
:1019F000610B6102C1612B6102C105C102612361FA
:101A00000B610129016103610B610B61036106C177
:101A1000046106C10461033C00080E0401011A01BF
:101A200003021802010C0303001800030F180F0033
:101A3000076116C1046111C102612201C102610F77
:101A4000C101226202220261240161256103220296
:101A5000620B62C1046107620BC162046107620B21
:101A600062C10C620BC1620C620B62C10C620BC1E1
:101A7000620C620B62C10C620BC1620C620B62C130
:101A80000C620BC1620C620B62C10C6204613061BA
:101A9000046100090E020005130607190019011957
:101AA0000219031104110511060D0001050F061995
:101AB00006000AC119612702C10DC103610626078C
:101AC0002A6109C1116126012561220C610C6104A2
:101AD0002A610C6103C12A61274203612E610C61F6
:101AE000042A6107C10183610422062261072203DF
:101AF00061042202C202226105C10661042B612732
:101B00006103610F6107286104C106610F613C0038
:101B1000070F05030208050D051405130F04000047
:101B20000001010D070D0402060217021902001D33
:101B30009B612105210D2105216101250F250161F1
:101B4000012101230F21C123016101250F2501611D
:101B500001230121A131012101610125A12301C13D
:101B60002201C128612101610125A13161210161A9
:101B70000125A131612101610125A12404296121EF
:101B800001610125A1240429612101610125A1240C
:101B900003C161286121016101850184246188619B
:101BA00002610A450C6109450D000E0E060502167C
:101BB00002020B0F0B190B080E040B0010000B0197
:101BC0001001020219020D08040B01036C21032A03
:101BD0000221032103210421022102C12102C1218A
:101BE00003C1A102210321032104210221032A02AE
:101BF00021036703A101210381058104A121038140
:101C000005810521026205816521022B0221026AFC
:101C1000A10221092102A10221092102A102210917
:101C20002101C1A10221092102A10221026AA1020E
:101C300021022B02210262058165210381058105B4
:101C4000210381058104A121036703A10121032A46
:101C50000221032103210421022102C12102C12109
:101C600003C1A102210321032104210221032A022D
:101C700021036C2100090E040D0213030205170E47
:101C8000030200020102020B0216030705180E00F0
:101C90001F118814610661256121042161230461FB
:101CA00004C101610561066104236127056103C167
:101CB0000261076107256124026107610C61066109
:101CC000076109C1026103C1026107610722612C3A
:101CD0006104610124016102610C6101C1026101C1
:101CE000240161026102C109618461012101C121F4
:101CF000016127610C6101256107610C61066107C3
:101D0000610AC1016106613C000D0B0515010A0461
:101D10001308020E140E031200120112020401181D
:101D2000010B040E080032012A01C1102103C10376
:101D300022A12361246108276122A123612E0123AE
:101D4000026122046102C107240123026122612988
:101D5000612801230261226103266125C22101233A
:101D6000C1016122610326612E612261032104C148
:101D70006104C106C101216122610323612761273A
:101D8000612161226102C123610761276121612212
:101D90006122A121026107610222036121612261A6
:101DA00022A12161256128C201612161226122A154
:101DB0002161256126C126612261046122C122615F
:101DC00004C108613D000F0E041801010504080F4D
:101DD0000B0809000901090209030904090509069C
:101DE00009070001120104030E03001F0EC10A239C
:101DF0000D24612702220B2203610A2209220461B9
:101E000007C1022306C123046103C1032261240523
:101E1000246123612702610322032203610D61C152
:101E200003226122046105C105612361046105216A
:101E300061226123056103610E610861036104C1D0
:101E400009610861036127612661256122610B61D7
:101E50000C6102610B610C61023C00120E0306066C
:101E600016060E0A02000000010D02030E0D0E18E8
:101E70000E001D8B10610561052101C10121056165
:101E8000056101C1026302C1012501C1026302C1F2
:101E90000161016202610262076202610262016124
:101EA0000161016501610761016501610161016114
:101EB00002C101C102610361036102C101C102618A
:101EC00001610261256103630361256102610365AC
:101ED00001620261026201650361096101650161DC
:101EE000096104C1046102C101C1026105C103614C
:101EF0002661036125610261276106610465036152
:101F0000076106610C610761066107C10461073C56
:101F1000000A0E0307040F071309031B001B011B14
:101F2000020C0113010102190B001C8A05C10C618E
:101F300001C106612A6107256103610A61470561E4
:101F4000036106C103610C61266125612209C1029A
:101F50006106610561028205246121066105610453
:101F600082076104612661220682C10461846106E0
:101F7000610A21046107612961096107612961051D
:101F800023612A03C103256124612A0161236101C0
:101F900025612103610B61236102C10361013C00E2
:101FA0000C0E03040314050408021B041B05130193
:101FB0001902010309080003C11762422142610BA3
:101FC000C1086205610461296101C1036201C103A5
:101FD000610461096124A1622141214121610461FF
:101FE000096106610561846186036106610561041A
:101FF0006105612346620561046102C102610962F3
:10200000056101C10261256109614123412241222B
:102010004161096123612241234106610961036134
:102020000241C102410661038661036101C1286169
:1020300023440561022408610C610E610C61063CB9
:10204000000E0E03050617060E09041200120112F7
:102050000212030101090110061B06001F01C1172E
:1020600027612714618A05C10B610422610327617E
:102070002207610422610A61096104226107C10229
:102080006102226125042861270261116109611141
:10209000610729612A6110610A610EC101618A61CB
:1020A00003C107612609276104610CC109613C0075
:1020B000D5F08D14A1C881CFD9F1AF20005717A357
:1020C0008B2E2E47175D74D145175D74D145175D72
:1020D000721F5D74D145175D74D145175D749129E8
:1020E000BAE8A28B2EBAE8A28B2EBAE8A28B2EBA3F
:1020F000E8A28B2EB98F2EB4499D4EC7A55C2A95B8
:102100004AA5728A2E5795AA4A55E51C9772A9547A
:102110002A954A491449974DE71D977255A9AA5423
:1021200055EEA24AE52A9BAD5C2A2AE752A954360D
:1021300024DDD7575595AA2A3559AE2A5595AACAEE
:10214000392AA9F2CAA525977255A9AA5455AEA352
:102150005485ACE8A28B2EBAE8A28B2EBAE8A28BEB
:102160002EBAE8A28B2EBAE8A28B2EBAE8A28B2E4A
:10217000BAE8A28B2EBAE8A28B2EBAE8A28B2EBAAE
:10218000E8A28B2EBAE8A28B2E321B07B22E954AFC
:10219000653BAD5D369D7754D265D3F9E894AB4A83
:1021A00055A5AA721D977255A9AA5455AE031007DA
:1021B000B22E954A65E3723EA77CCA9129974AA53B
:1021C00052A99C220210079C72A9542A95CA292E52
:1021D000E9B2E9BCE352AE2A5595AACA75591FA3C4
:1021E0008B2EA764E7D29DDCE7D28E2EB66D7ABA2D
:1021F000D8B6E9E962DBA6A78B6D9B9E2EBAE86292
:10220000DBA6A78B6D9B9E2E9B9E6D9BCFA6B7E9F1
:10221000E972694717DB363D5D4EE96D3EBA6C7A6F
:102220009B8F2E7439974EC79C733A2E652B59C9D4
:10223000CA756CD94A56B2728EAB9395AC6465235D
:1022400053B69295AC5C872BE5D3E95CC7A57C3A85
:102250009D53648E4B91392E2BD3E99CE2CB391DD3
:1022600097B295AC64E53A2EE5D3D9C894AD642510
:102270002BD7416FF7B5AB4AA952A9C97255A9AA84
:102280005455CE514995572E2DB994AB4A55A5AA10
:10229000721D2C1B5D74D145175D74D145175D749B
:1022A000D1C594EB742EBAE8A28B2EBAE8A28B2E7D
:1022B000BAE8A28B2EBAE8A28B2EBAE8A28B2EBA6D
:1022C000E8A28B2EBAE8A28B2EBAE8A28B090A10DC
:1022D00000000000000000000000000000000000FE
:1022E00000000000EFEFE0EFEFEFEF0FEFEF010185
:1022F0000101010101000101FFFFFFFFFFFFFFFFDF
:10230000FF00010101010101010101000000FF4284
:10231000424242FF000000000300000000030000F2
:102320000202020202020202020200000000000099
:1023300000000000EFAFE06FEFEFED0FEBEF0101FA
:1023400001010101010001010000B0B000B0B000C6
:10235000000000000101000101000000EFEFE0EECD
:10236000EEEEEE0EEFEF01010101010101000101AE
:10237000EEECE0E8E8EAE808ECEE01010101010119
:1023800001000101ECE0C0C088808000E0EC0101A8
:102390000101010101000101E080000008000100CD
:1023A00086E00101010101010100010100000000BE
:1023B000000000000000000000000000000000001D
:1023C000E08080000000000080E0010101010101C7
:1023D00001000101ECE0C0808080C000E0EC010160
:1023E0000101010101000101EFECE0E8E8E8E80C7F
:1023F000ECEF01010101010101000101EFEFE0EE4D
:10240000EEEEEE0FEFEF010101010101010001010C
:102410003F0FA5AA64656B2AA9AA52A9B83A559597
:10242000AA4A755CCEA7538E4BBA7C362BA9A4AAB8
:102430004AA5E2562E95AA4A95E272AA929575543B
:10244000D2E5B359492555552A15D2A5AA64656B1D
:102450002AA9AA52A9B83A5595AA4A755CE9B45472
:10246000F13955C9CA3A2AA92A59D99A2A9D962AD0
:102470007EE552A9AA54292EA72A595947255D3E1F
:102480009B95545255A55221122C07EA5455AA2A5D
:10249000D571A5D352C5E754252BEBA8A4AA646532
:1024A0006BAA745AAAF8954BA5AA52A5B89CAA641F
:1024B000651D9554F9ACA492AA2A954A010207A574
:1024C0005336097F37E0C3142E53284C67B7DBED32
:1024D00076BBDD6EB7DBED3A74A5B3DBED76BB55AD
:1024E0000E916AEE7476BBDD6EB7DBED76BB0ED275
:1024F00056A1127D98534A2AA914D6A85232A4ADE7
:10250000A4926A2472AE64285B2AA9E47882A3119B
:10251000BA73CE39E79C5352C58538E59C736E9CDF
:102520001D17EE9473CEE191147F5B2595545249AB
:1025300025B73B082F89C7ED763B7F3ABDE3AF9DBA
:10254000545249259554524925A552A594545249AF
:10255000E5DC76BB557AAB945452492595545249E3
:1025600025A5525249E59C92DBAD924E3AA9A49220
:102570004A49E59C924A3A2795944A4925955452EE
:10258000DDEA53EB7C7AABA492CA39E79454524902
:102590002595545239A7E4761D6B3ABDDD6EB7DB45
:1025A000ED3ABAEC763B5A0B8D4A2AA9E4385A2AFE
:1025B000E74616DE52848853712270E79C42221F40
:1025C000E676CE29EC11AE64285B2AA9E478E253C2
:1025D000216FE79C734E4925C3660A934A493BBE67
:1025E000B6CED9A5728AEEB1E79CC3DC8AF2919788
:1025F000E24A21D045F6385B71A5504789BFAD92BC
:102600004A2AA9A492DB1DDDE3EEB1BF555249254C
:10261000955452492595543AD2F456492595545229
:10262000C9EDEC5B259554524925955472ABA492A3
:102630004A2AA9A4924A2A9D8E6CABA4924A2AA93E
:10264000A4924A47B6555249259554524925958E2C
:102650006CABA4924A2AA9A4D2916D9554524925F3
:10266000955452E948D35B259554524925955452C7
:1026700049259554721BED56492595545249259587
:102680004E87640000F4019C00A5000000A80093A0
:10269000009C0000000900E9009C0000000900A562
:1026A000009C0000000900F7009C0000000900A544
:1026B00000A5000000A800E900A5000000A8008314
:1026C000009C0000000900D0009C0000000900935D
:1026D000009C0000000900E9009C00000009009334
:1026E000009C00000009008B009C000000D0070146
:1026F000800102040810204080080B000202020141
:102700000009040000010202000005240010010578
:1027100024010101042402060524060001070581A5
:102720000310004009040100020A0000000705022E
:102730000240000007058302400000040309041260
:10274000010002EF02014041233680000101020333
:102750000141726475696E6F204C4C430041726494
:1027600075696E6F204C656F6E6172646F00200634
:102770006400000014002705640000001400170422
:102780006400000028004B02640000001400DC0319
:10279000640000001400880164000000280000802C
:1027A000E0061E0000000A00E0061E000080223540
:1027B00011241FBECFEFDAE0DEBFCDBF11E0A0E0F5
:1027C000B1E0ECE0FDE602C005900D92AE3AB10733
:1027D000D9F727E0AEEAB1E001C01D92AD3FB207E4
:1027E000E1F713E1C8EDD3E104C02197FE010E9497
:1027F0007936C73DD107C9F70E947C300C948436E6
:102800000C9400002F923F924F925F926F927F92B2
:102810008F929F92AF92BF92CF92DF92EF92FF92F0
:102820000F931F93CF93DF93CDB7DEB76A970FB6A1
:10283000F894DEBF0FBECDBF8091D60190E020910D
:10284000DF053091E005821B930B05962AE030E00E
:10285000B9010E947035162F6C8B8091D70190E0E2
:102860004091E1055091E205841B950B0596B90155
:102870000E9470357B016D8B8091B801853091F09D
:1028800080918B0790918C076CE070E00E948435FA
:10289000892B09F02CC49091AE0181E089278093A7
:1028A000AE0125C4812F0E94E42A082FD0908D0705
:1028B000C0908E07C094CD201092D8011092E305ED
:1028C0008091DD018B3021F01092D9011092E40546
:1028D0006E2D812F0E94E42A863081F58091DA01E5
:1028E0009091DB0149969093DB018093DA0140E0FF
:1028F0006E2D812F0E94652C8091C606882319F0C9
:1029000081508093C6068091C606882329F08FE205
:1029100093E00E94A22312C0B12C8091C706B81682
:10292000B0F7EB2DF0E0EE0FFF1FE753F94F43E058
:10293000618180810E94652CB394EFCF9091AF01AB
:102940008D2D8C708C3061F59F5F9093AF01953128
:10295000B0F19D3390F09D3391F51092AF0183E873
:1029600084BD8FEF87BD81EF809380001092880037
:1029700010928A000E94982F1FC320E430E0A90122
:10298000491B5109CA01880F93E894BD9FEF97BD79
:1029900091EF909380001092880080938A000FC07E
:1029A000992369F083E884BD8FEF87BD81EF809321
:1029B00080001092880010928A001092AF018C2D36
:1029C00084709C2D9870C3FE2DC081112BC00E9475
:1029D0006825882309F454C08091D60190E02091A5
:1029E000DF053091E005821B930B02966AE070E0F0
:1029F0000E947035162FBB24BA94B60E6E2D8B2D07
:102A00000E94E42AA82ECC24C394CE0C6C2D8B2DCE
:102A10000E94E42A8130A1F58FEF8A0D823008F000
:102A20009BC22EC0882361F191112AC00E946825A3
:102A3000882331F18091D60190E02091DF0530911B
:102A4000E005821B930B02966AE070E00E947035ED
:102A5000162FBB24B394B60E6E2D8B2D0E94E42A44
:102A6000A82ECC24C394CE0C6C2D8B2D0E94E42A6E
:102A7000813031F48FEF8A0D823010F00C947B1E80
:102A8000D6FEC5C06E2D812F0E94E42A982E80911B
:102A9000D60190E02091DF053091E005821B930B79
:102AA0006AE070E00E94703501E0892B19F000E0C7
:102AB000812F02C081E0810F6E2D0E94E42A382E02
:102AC000882483948E0C002319F081E0810F01C0CB
:102AD000812F682D0E94E42A582E011103C08FEF28
:102AE000810F01C0812F682D0E94E42A482E832D7A
:102AF0000E941830682E5701BB245FEFA51AB50A53
:102B0000C12ED12CA501B601842D0E94632A782EF6
:102B10000E9468259091DD019B3081F4882311F497
:102B20000C9465217110C0C064E0361619F096123D
:102B30000C94652168E087E00C94DF1E0E94C42D90
:102B4000882341F08DEF890D823010F00C94961E91
:102B50000C94821E002319F081E0810F01C0812FA7
:102B60006E2D0E94E42A682E002319F081E0810F67
:102B700001C0812F682D0E94E42A582E62E06E0D5C
:102B8000002319F081E0810F01C0812F0E94E42A07
:102B9000782E852D0E941830582E862D0E941830D0
:102BA000882311F40C94E21E552011F40C94E21EBB
:102BB00026019FEF491A590AA501B201872D0E94EB
:102BC000632A882311F40C94D41E64E081E00E94EF
:102BD0007B251092DD018091E105AAE0EA9E800D3F
:102BE00011248093D7018091D6018C3310F482E0B8
:102BF000C4C02091DF053091E00529363F4F24F015
:102C00001092D8018EEFC5C087FFF1CF98C1D5FED5
:102C1000C6C06E2D812F0E94E42A982E2091D601E5
:102C200030E08091DF059091E005F901E81BF90B98
:102C3000CF016AE070E00E94703577247394892B8D
:102C400019F0712C812F02C08FEF810F6E2D0E9421
:102C5000E42A482E552453945E0C711003C081E081
:102C6000810F01C0812F652D0E94E42A682E842DDA
:102C70000E941830882E5701BB24FFEFAF1ABF0AFD
:102C8000C12ED12CA501B601862D0E94632A082FE2
:102C90000E9468259091DD019B30B1F4882311F4E6
:102CA0000C946521002331F01092DD010E948A22EC
:102CB0000C94772124E0421619F092120C946521AD
:102CC00069EF86EF0C94531F0E94C42D882341F0B6
:102CD0008DEF890D823010F00C94001F0C940A1FA8
:102CE000772019F08FEF810F01C0812F6E2D0E9488
:102CF000E42A982E772019F08FEF810F01C0812FE1
:102D0000652D0E94E42A082F62E06E0D772019F0ED
:102D10008FEF810F01C0812F0E94E42A182F802F8E
:102D20000E941830082F892D0E941830882311F432
:102D30000C947721002311F40C94772141E0C41AFC
:102D4000D108A501B601812F0E94632A882311F4BE
:102D50000C94471F6FEF8CEF0E947B251092DD01D2
:102D60008091E1055AE0E59E800D11248093D70102
:102D70008091D6018D3320F08EEF8093D801DDC095
:102D80002091DF053091E00537FF06C01092D80191
:102D900082E08093E305D3C08111EECFD0C0D7FE8F
:102DA0008CC08091D70190E02091E1053091E2053F
:102DB000821B930B08966AE070E00E9470356B01ED
:102DC000B62E0E946825F82E882319F06FEF6C0D3F
:102DD00001C06C2D812F0E94E42AE82EFF2019F0FB
:102DE000BB24B394BC0C6B2D812F0E94E42A9091DC
:102DF000DD019530BCF097305CF09B3099F40430E5
:102E000011F00C946B1FF1100C94671F0C946B1F46
:102E1000FF2071F1033009F08CC08FEF8E0D8230EE
:102E200038F587C00E948A222091D60130E0809137
:102E3000DF059091E005D901A81BB90BCD01EAE0AF
:102E4000F0E0BF010E947035863020F09F01281B02
:102E50003109C90105970CF06EC0033009F06BC051
:102E60008FEF8E0D823008F466C085E08093DD011F
:102E70008091DF053AE0139F800D11248093D601E5
:102E80001092D8011092E3058091D701883130F07B
:102E90008EEF8093D9011092E4058EC02091E10558
:102EA0003091E20537FF06C01092D90182E080938D
:102EB000E40582C08111ECCF7FC0D4FE43C0809175
:102EC000D70190E02091E1053091E205DC01A21BE1
:102ED000B30BCD0108966AE070E00E9470357B016B
:102EE000D62E0E946825C82E81110C94721F6FEF98
:102EF0006E0D812F0E94E42AB82ECC2019F0DD241B
:102F0000D394DE0C6D2D812F0E94E42AD82E80915F
:102F1000DD018B3009F036C7043009F4D6C7CC2068
:102F200011F40C948B1F84EF8B0D843010F00C94F3
:102F30008B1F0E948A221092D8011092E3051092F2
:102F4000D901A9CF8091D901823009F4B8CF8091FD
:102F5000E4058E3F89F5B3CF43E0A41609F490CD84
:102F600084EF8093DD011092D8011092E30547E0D1
:102F70006C2D8B2D0E94652C90918707943181F0E8
:102F8000E92FF0E09F01220F331FE20FF31FE55BF3
:102F9000F84FB082C1828CED82839F5F9093870748
:102FA00080918D0780938E070E94C42480938D07A3
:102FB00081E193E00E94A22380918B0780FD60CC89
:102FC0001092F60610920407109212071092200732
:102FD00010922E0710923C0755EF652E56E0752E85
:102FE00080E097E098878F836DEF462E66E0562E3F
:102FF000A2E0B7E0BB87AA87EEEFF6E0FD87EC879B
:10300000D3018C9184FF55C012968D919C9113979A
:103010006AE070E00E948435F62E6A8BF3018481A9
:1030200095816AE070E00E948435162F6B8B8F2D9E
:103030000E94E42AD82E01E0010F602F8F2D0E94FC
:10304000E42AB82EF6E0DF1205C0D2018C91882365
:1030500009F46EC7EF81F8858291F98BE88B8D308A
:1030600044F5D30112962D913C911397C9016AE062
:1030700070E00E948435892BE1F4F301848095800F
:10308000C4016AE070E00E948435892B91F4AF811D
:10309000B885EC90EE2009F46BC7D2018C918111B8
:1030A0005EC7F20131971082EF81F88580818150EF
:1030B0008083EEE06E0E711C2F813885225F3F4FBA
:1030C00038872F833EE0430E511C4A855B85425F63
:1030D0005F4F5B874A878C859D850E969D878C8781
:1030E00099E4691697E0790609F08ACFC9CB8091F7
:1030F000B8018850833060F58091B801982F9B7F8C
:10310000933009F087C22091B701822F022E000C64
:10311000990B2195220F295C40E450E0481B590B84
:10312000440FBC010E94602D4091B70160E880E02F
:103130000E94472D8091B70146E3481B60E880E07C
:103140000E94472DE090B70100E010E0F12CEFC1A4
:10315000812C912C712CA12CB12CE12CC090DF057D
:10316000D090E005CA0CDB1C0091E1051091E2054E
:10317000C60109968938910508F5080D191DC80181
:10318000099689349105D0F4672D8E2D0E94E42A8A
:10319000F82E882339F0282F4EEC52E2B801C601F0
:1031A0000E94B52329EF2F0D243040F4B8016A5056
:1031B00071094DE353E0C6010E94B523E394AAE0F0
:1031C000AA0EB11CBCE1EB12C9CF7394EAE08E0EDB
:1031D000911CF0E17F12BFCF8091B801853021F0C2
:1031E0008091AE018823F1F08091DD01082F001F4E
:1031F0000027001F082E000C990B97FF03C0919524
:1032000081959109880F990BFC01E45EFE4F408186
:1032100051816091D70170E08091D60121E090E06A
:103220000E940C2B85EF482E86E0582E90E0292E28
:1032300097E0392E2FEFC22E26E0D22E3BEF632EE1
:1032400036E0732E5201D5018C9184FFBFC01296D7
:103250002D913C9113974091DF055091E0055887DF
:103260004F834A01820E931E14968D919C9115975F
:10327000E090E105F090E205E80EF91ED101EC9135
:103280004E2F50E04331510508F098C0FA01EA5A38
:10329000FF4F0C947936F6018081082F001F00271C
:1032A000001F082E000C990B97FF03C09195819584
:1032B0009109880F990BFC01E45EFE4F408151811A
:1032C00080C0F1E08F1A910879C02FEF821A920A1C
:1032D00075C032E0E31AF1089BC744E0E41AF10834
:1032E00007C056E0E51AF10893C768E0E61AF1084E
:1032F00000E047E653E065C0AAE0EA1AF108FC01E5
:103300003A97D5011596FC93EE931497D1011C9230
:10331000C9016AE070E00E948435462FCF016AE05F
:1033200070E00E948435162F0FEF040F802F298F35
:103330003A8F488F0E94E42A782F51E0510F652F71
:10334000802F5E8B7F8B0E94E42A082F488D4F5F71
:10335000612F842F488F0E94E42A982F5E89652F61
:10336000488D842F9E8B0E94E42A482FE091D6013D
:10337000F0E0AF81B885EA1BFB0B298D3A8D7F8980
:103380009E89E217F30764F4872F0E940430882394
:1033900009F438C7802F0E940D3081112CC732C725
:1033A000892F488F0E940430488D882309F423C751
:1033B000842F0E940D30811125C71DC700E049E808
:1033C00053E021E0B701C4010E940C2BBEE0AB0E1C
:1033D000B11CEEE02E0E311CFEE0CF0ED11C2EE013
:1033E000620E711C39E4A31637E0B30609F02BCF47
:1033F0008090D601912C8091DF059091E005881A8C
:10340000990A6090D701712C8091E1059091E205B5
:10341000681A790AD2018C9184FF7FC012968D912F
:103420009C911397F401E81BF90B14962D913C9194
:103430001597A301421B530B9A01C090D7014C2D45
:1034400050E0421B530BE090D601473F6FEF560709
:10345000C4F42E2D30E02E1B3F0B2F3FAFEF3A0769
:103460000CF4DAC62C3731050CF0DEC6E394EE1A04
:103470008E2D09EAA02E03E0B02E4FED53E090E030
:103480003AC045335105C4F02E2D30E02E1B3F0BC2
:103490002F3FBFEF3B070CF4CFC62C3731050CF0A4
:1034A000D4C6E394EE1A8E2D1AE9A12E13E0B12EA4
:1034B0004EEC53E093E31FC0F12CEE1AFF0AECEF41
:1034C000EE16EFEFFE064CF49C2D921BBCEBAB2EE0
:1034D000B3E0BB2E45EF53E0B6C6FCE7EF16F104B0
:1034E000E4F09C2D921BA8EBAA2EA3E0BA2E40EF8D
:1034F00053E08CE702C08F3F81F0C92ED12CE82E1B
:10350000F12C00E020E0B601C7010E940C2B21E065
:10351000A501B601C7010E940C2B2EE0420E511CE2
:1035200039E4431637E0530609F074CFE5CD21E0C6
:10353000A801B70188E897E00E94CC240E5F1F4FD6
:1035400002341105A1F78091B7010FE7081BE12CA8
:10355000F12C10E021E0A701B80188E897E00E9473
:10356000CC2442E0E40EF11C52E4E516F10491F79C
:103570008091B801833031F51091B7011150EBE122
:10358000EE2EF12CF0E4CF2ED12C17FD12C0812F9E
:10359000012E000C990B9701281B390B220F2F5F6E
:1035A000A601481B590B440FBC010E94602D11500D
:1035B000ECCF8091B70181508093B7018F3F39F5EF
:1035C00084E023C0D12C0BE110E070E4E72EF12C55
:1035D0008091B701D81694F48D2D0D2C000C990B09
:1035E0009801281B390B220F2F5FA701481B590B8D
:1035F000440FBC010E94602DD394EACF8F5F80936B
:10360000B7018C3121F48091DE018093B801E12C67
:10361000F12C56C098EF980F9330C8F78A3049F4D0
:1036200000E021E045E554E069E170E08AE290E0E5
:103630003AC0883029F400E021E044E254E02FC091
:103640001091C506812F64E60E946D36082F282F41
:1036500041EC54E069E170E088E490E00E94B52319
:10366000812F64E6069F801911246AE00E946D365E
:10367000192F282F41EC54E069E170E08DE490E0CF
:103680000E94B523212F41EC54E069E170E082E50E
:1036900090E00E94B52300E021E04AE054E069E1B7
:1036A00070E08BE290E00E940C2B46E167E589E236
:1036B0000E94472D40E267E589E20E94472DA7CF8F
:1036C00007E310E020E0A801B70188E897E00E9436
:1036D000CC240F5F1F4F00341105A1F78FEFE81ABC
:1036E000F80A90E8E916F10459F748E360E880E049
:1036F0000E94472D8091DA019091DB01FE01319605
:1037000026E0DF011D922A95E9F77F012AE030E0EB
:1037100046E04E0FB9010E9484358193CB014E13D0
:10372000F9CF00E021E04BEE54E06AE370E080E086
:1037300090E00E940C2B06E310E0F70121917F013D
:1037400041EC54E06AE370E0C8010E94B5230550E3
:1037500011090831110589F7F090DC0100E021E042
:103760004EEA54E06AE370E080E490E00E940C2BA3
:103770001AE08F2D612F0E946D36092F282F41EC02
:1037800054E06AE370E082E590E00E94B523202FC8
:1037900041EC54E06AE370E087E590E00E94B523D5
:1037A0008091B801853071F4F090C60600E021E008
:1037B00043E954E06AE370E080E690E00E940C2B5D
:1037C0008F2D1DC0F090C50600E021E043E854E0D5
:1037D0006AE370E080E690E00E940C2B64E670E003
:1037E0008F2D90E00E947035262F082F41EC54E079
:1037F0006AE370E081E790E00E94B523802F612F9B
:103800000E946D36192F282F41EC54E06AE370E0D6
:1038100086E790E00E94B523212F41EC54E06AE353
:1038200070E08BE790E00E94B5238091B80185306D
:1038300009F0DAC180918B0790918C0780FD1CC044
:103840002091D80121110CC02091D901211108C06B
:103850002091E305211104C02091E405222361F0A9
:103860002091DD01ECE0E20FEC3120F4F0E0E25FCA
:10387000FA4F24912093DD0183709927892B09F455
:1038800045C04091D8018091D601480F4093D601A0
:103890001091D9018091D701180F1093D701809111
:1038A000E305E091DF05F091E005E80FF11D87FDEC
:1038B000FA95F093E005E093DF058091E40520910F
:1038C000E1053091E205280F311D87FD3A953093CF
:1038D000E2052093E105812F90E0821B930B059672
:1038E0002AE030E0B9010E947035062F842F90E065
:1038F0008E1B9F0B0596B9010E947035862F602F95
:103900000E94E42A123008F056C020C0AFEFB6E0A3
:103910002C91CD010A97FC01808184FF11C0119682
:103920008C91119781110CC083EF820F833008F0C6
:1039300095C4ECE0E20FF0E0E25FFA4FE491EC9323
:103940001E96F7E0A335BF0719F79BCF833099F593
:103950001091C5061F5F8091DC018A3018F48F5FDB
:103960008093DC0186E08093B8011093C506612F37
:1039700082EC90E00E945625193208F489C481EC4B
:1039800090E00E946625843008F080C411E0180F92
:10399000612F81EC90E00E945625612F86EC90E02B
:1039A0000E9456250E94B42C8EE08093DE018AE2AC
:1039B00095E00E94A22380918B0790918C077C0157
:1039C00021E0E222FF2480FD76C005EF16E0D80159
:1039D0008C9184FF50C0F701EB50F94F868112960D
:1039E0006D917C911397680F711D87FD7A951396E1
:1039F0007C936E931297878114964D915C911597E5
:103A0000480F511D87FD5A9515965C934E93149758
:103A10002091D60130E08091DF059091E005281BD0
:103A2000390B8091D701E091E105F091E205690140
:103A3000B2E0CB0ED11CDB011896CA16DB06DCF413
:103A4000285F3F4F6E5F7F4F62177307A4F490E0CB
:103A50008E1B9F0BBC016E5F7F4F9A01285F3F4F0B
:103A60006217730744F408964E5F5F4F4817590773
:103A700014F40E94982F025F1F4FEEE0EE0EF11C2F
:103A8000F4E5EF16F10409F0A2CF00E010E0602F9A
:103A9000812F0E94E42A99EF980F943030F441E08E
:103AA000480F602F812F0E94652C1F5F1C3179F712
:103AB0000F5F003159F780918707882309F4FCC014
:103AC000F12C4DE0E42E80918707F81608F075C0C0
:103AD0000F2D10E06801CC0CDD1CF601E00FF11F8A
:103AE000E55BF84F8281882309F462C081508283AC
:103AF000803189F038F4813081F0883009F058C085
:103B00004FE052C0883129F0803209F051C04CE0BA
:103B10004BC04DE049C04EE047C0A091C806B0E0A0
:103B2000AA0FBB1FA351B94F85EF96E020E030E00C
:103B30004F01BF016F5F7F4FFC01408144FF19C0FF
:103B4000F4014081FAE04F9FA0011124FC01A28002
:103B5000B3804A155B0569F4FB014081FAE04F9F91
:103B6000A0011124FC01A480B5804A155B0509F46D
:103B700091C30E96225F3F4F24353105E9F6F601D9
:103B8000E00FF11FE55BF84F80812C89821306C09E
:103B900081813D89831302C00E94982F0C0D1D1D49
:103BA000F801E55BF84F41E0618180810E94652C5E
:103BB000F39489CF882309F47FC080914D07813029
:103BC00009F07AC080918707815080938707EBE4E2
:103BD000F7E090E0981770F72381348145812193B5
:103BE000319341939F5FF6CF20918D0790918E077F
:103BF00090959223843009F03FC08091B00122FF5C
:103C000032C08E3268F48932D0F083E884BD8FEF01
:103C100087BD81EF8093800080E4809388000BC093
:103C2000833388F483E884BD8FEF87BD81EF809371
:103C300080001092880010928A008091B0018F5FFE
:103C40008093B00139C08091C50697FF04C08832C7
:103C500010F48F5F05C094FF2FC0823068F181504F
:103C60008093C50629C0882349F0833348F0883201
:103C700018F082E08093B8011092B0019923E1F02E
:103C80008091B8018B3048F4893050F4873051F07E
:103C9000883059F41092B8010FC08E3069F005C019
:103CA00082E008C08091DE0105C010928E0710925C
:103CB0008D0785E08093B8018091AF01811119C310
:103CC0008091B001811115C38091C606811106C093
:103CD0009091B801953019F480E201C080E093E83A
:103CE00094BD809587BD81EF8093800010928800FD
:103CF00010928A00FEC253E0A51611F40C944015F0
:103D00008CE02FC9662009F4F2C2772019F064E034
:103D100081E005C084E0981206C06AE087E00E9456
:103D20007B250C94EB1566E085E0F9CF002341F08C
:103D3000A501B601842D0E94892A81117FC0C7C2C6
:103D4000662051F0A501B6016F5F7F4F852D0E945F
:103D5000632A8111DCCF02C07110C1C2B6016F5F4E
:103D60007F4FA501852D0E94892A8111D0CF109205
:103D7000D8011092E305882309F4E1C88BE0809311
:103D8000DD010FC043E0D412B0C08091DF055AE0DE
:103D9000159F800D11248093D6016BEF8AEF0E944E
:103DA0007B250E94842508C9002371F0A501B2017A
:103DB000872D0E94892A8823D1F266E085E00E943F
:103DC0007B251AC0011193C2682D812F0E94E42A1D
:103DD000182F892D0E941830882309F488C2B60153
:103DE0006F5F7F4FA501812F0E94892A882309F4E4
:103DF000BECF8BE08093DD010E948A220C94EB15EC
:103E0000772021F1A501B601862D0E94892A811112
:103E100015C060C2882009F46AC2002319F06FEF50
:103E20008CEF05C034E0931206C069EF86EF0E9464
:103E30007B250C94B01666E085E0F9CF8BE080938B
:103E4000DD018FEB91E00E94A2233FC2882009F49C
:103E500049C2652D812F0E94E42A182F892D0E94C6
:103E60001830882349F0A501B60161507109812FEE
:103E70000E94632A8111D3CFB60161507109A50157
:103E8000812F0E94892A882309F471CFC8CF772017
:103E900069F0A501B601812F0E94892A882309F4BF
:103EA00066CF66E085E00E947B250BC0A501B601C8
:103EB000812F0E94892A882309F459CF8BE08093AF
:103EC000DD010E948A220C94B016CC2021F187E0FB
:103ED0008093DD012EC8A60155274F5F5F4F612FEC
:103EE00070E020C06E2D0C9479178D2D0E94183033
:103EF000811103C01092DD011CC8D11003C08BE0FA
:103F00008093DD018091DF056AE0169F800D11240A
:103F10008093D60146CFA70155274F5F5F4F612F92
:103F200070E08D2D0E94632A882309F43ACFE2CFF6
:103F30000E94E6350E94E6352AE030E040E050E09D
:103F40000E940A36DC01CB014496A11DB11DF2018D
:103F5000808340E0612F8F2D0E94652C7BC811501B
:103F6000612F8F2D0E94E42A882309F43BC199C850
:103F70006FEF610F8F2D298F3A8F0E94E42A8E8771
:103F8000612FCC24C394CF0C8C2D0E94E42A898706
:103F9000602F8C2D0E94E42A8F87602F0FEF0F0D6A
:103FA000802F0E94E42A382E612F802F0E94E42A5D
:103FB000282E4091D6018091DF059091E005841B69
:103FC0009109298D3A8D280F391F4091D701809191
:103FD000E1059091E205841B9109880D991DAC853E
:103FE000BD854C914423F9F01F922F923F928B2C68
:103FF000AF84C984EE840D2DEA85FB852081412F95
:104000006F2DC3010E942D2EAC85BD859C919150D2
:104010009C930F900F900F9081114BC8EA85FB8500
:104020003197308161C037FF1EC0181619065CF445
:1040300031952195310982179307C4F12817390763
:10404000BCF132E046C00097A9F1319521953109C4
:104050009195819591092817390774F18217930773
:104060006CF136E036C021153105C1F0181619067D
:1040700044F48217930724F1281739071CF13EE016
:1040800028C0009709F19195819591092817390762
:10409000ECF082179307E4F03AE01BC0392F331F8E
:1040A0003327331F330F330F330F13C033E011C0E7
:1040B00031E00FC034E00DC037E00BC035E009C07F
:1040C0003DE007C03FE005C03CE003C039E001C06F
:1040D0003BE0EDEFE30FEC3020F4F0E0E05FFE4F6B
:1040E000E080EA85FB85E082D2018C91882391F003
:1040F0009FEF9B0D923070F4D1100CC08150F201F3
:104100008083811107C046E0612F8F2D3A8F0E9476
:10411000652C3A8DF1E0FF932F923F928B2CAF8468
:10412000C984EE840D2D232F412F6F2DC3013A8FAB
:104130000E942D2E0F900F900F903A8D81110C94AC
:104140005918132F48E0F42E332311F0315001C0D9
:104150003FE021E02F932F923F928B2CAF84C984B4
:10416000EE840D2D232F4B896A89C3013A8F0E945B
:104170002D2E0F900F900F903A8D882341F0A88933
:10418000B9898C918B3011F00C9459181FC01F30D5
:1041900011F01F5F01C010E0B1E0BF932F923F927A
:1041A0008B2CAF84C984EE840D2D212F4B896A8915
:1041B000C3013A8F0E942D2E0F900F900F903A8DD1
:1041C0008111DDCFFA94F110BFCFD9CF8B2D0E9492
:1041D0000D30882311F40C945918F2013197108294
:1041E0000C945918F201108246E0612F8F2D0E9425
:1041F000652C0C945118EFEFD601EC93EEEFD30140
:10420000EC9306C081E0D6018C9322E0F301208379
:1042100000E048E753E0D5C831EBA32E33E0B32EDE
:1042200048EE53E090E00FC027ECA22E23E0B22E20
:1042300042E054E090E010C092EAA92E93E0B92E3B
:1042400047ED53E092E380E058C980ECA82E83E06C
:10425000B82E4AEF53E092E38BE74FC9CD010497A4
:10426000FC018081811107C0CD010397FC01808191
:10427000882309F465CB8CE0820F8C3128F4E82F79
:10428000F0E0E25FFA4F24912C935ACB8FE08DCB74
:1042900089E08BCBAC9011964C9111975AE0A59E7A
:1042A00050011124FC01B382A282FAE04F9FA001C9
:1042B0001124FC0155834483A9014B50594FFA0145
:1042C000E28613861682178254CC81E050CD6110AD
:1042D0001ECD03C08110A3CD08C0772041F01092FD
:1042E000DD0105C00111FBCFB4CD0111F8CF80E095
:1042F0003ECD6A960FB6F894DEBF0FBECDBFDF91FC
:10430000CF911F910F91FF90EF90DF90CF90BF90D2
:10431000AF909F908F907F906F905F904F903F9065
:104320002F900895CF92DF92EF92FF920F931F93F9
:10433000CF93DF936C017A018B01C0E0D0E0CE1502
:10434000DF0589F0D8016D918D01D601ED91FC91C9
:104350000190F081E02DC6010995892B11F47E01B1
:1043600002C02196ECCFC701DF91CF911F910F9131
:10437000FF90EF90DF90CF9008958091C001E09181
:10438000BE01F091BF01882349F0CF0102969093BE
:10439000BF018093BE01859194910895CF0102964B
:1043A0009093BF018093BE01808191810895809197
:1043B000B10108950895089580E090E008950E9465
:1043C0007F363FB7F8948091C8019091C901A091C0
:1043D000CA01B091CB0126B5A89B05C02F3F19F0AB
:1043E0000196A11DB11D3FBFBA2FA92F982F882775
:1043F000820F911DA11DB11DBC01CD0142E0660FD0
:10440000771F881F991F4A95D1F708958F929F9221
:10441000AF92BF92CF92DF92EF92FF926B017C013D
:104420000E94E1214B015C01C114D104E104F104BB
:10443000F1F00E94E121DC01CB0188199909AA0958
:10444000BB09883E9340A105B10570F321E0C21A73
:10445000D108E108F10888EE880E83E0981EA11CBF
:10446000B11CC114D104E104F10419F7DDCFFF90B0
:10447000EF90DF90CF90BF90AF909F908F90089576
:104480001F920F920FB60F9211242F933F938F9389
:104490009F93AF93BF938091B2019091B301A0918C
:1044A000B401B091B5013091C70123E0230F2D373E
:1044B00020F40196A11DB11D05C026E8230F029628
:1044C000A11DB11D2093C7018093B2019093B30148
:1044D000A093B401B093B5018091C8019091C90136
:1044E000A091CA01B091CB010196A11DB11D80938D
:1044F000C8019093C901A093CA01B093CB01BF91A9
:10450000AF919F918F913F912F910F900FBE0F9080
:104510001F901895E1E7F0E080818D7F80831092F5
:104520009100469847981092B6010895CF92DF9275
:10453000EF92FF920F931F93CF93DF930E94BD21C1
:10454000811520E8920751F4DF91CF911F910F91CF
:10455000FF90EF90DF90CF900C948A2221E020937F
:10456000B601813020E8920751F48091BC0190910E
:10457000BD019093BF018093BE010E94BD2197FDB4
:1045800005C02091BB01222309F440C02091BA014B
:1045900021113CC021E02093C101EC01DF7720977D
:1045A00069F481E08093C20146983FE9C32E3FE061
:1045B000D32EE12CF12CCAEFD0E014C08E0120E004
:1045C00030E060E472E48FE090E0A90198010E947D
:1045D0000A3669017A0181E0C81AD108E108F108B8
:1045E0001092C201E0914907F0914A0709958111A3
:1045F00003C081E08093C2018091C101882309F446
:104600003FC08091C20181113BC003C01092C10123
:10461000C4CF469935C0479A0E94BD21009771F0DA
:104620009C01DE010E945E36DC01CB0129E0B595DC
:10463000A795979587952A95D1F703C08FEF9FEFA0
:10464000DC01109290002AE020939100D092990012
:10465000C09298008093C3019093C401A093C501B8
:10466000B093C60180917100826080937100DF91E8
:10467000CF911F910F91FF90EF90DF90CF90089511
:104680004798CACF1F920F920FB60F9211242F9303
:104690003F934F935F936F937F938F939F93AF93CA
:1046A000BF93EF93FF938091C3019091C401A091B8
:1046B000C501B091C601892B8A2B8B2B81F180918A
:1046C000C20181110BC098B180E4892788B980911B
:1046D000C101882319F088B1805888B98091C3013D
:1046E0009091C401A091C501B091C6011816190698
:1046F0001A061B06B4F48091C3019091C401A091E5
:10470000C501B091C6010197A109B1098093C30108
:104710009093C401A093C501B093C60102C00E944A
:104720009622FF91EF91BF91AF919F918F917F91D1
:104730006F915F914F913F912F910F900FBE0F900E
:104740001F9018959C01E1E7F0E090819D7F908398
:1047500081E08093C0013093BF012093BE0130936C
:10476000BD012093BC010C9496224F925F927F92E0
:104770008F929F92AF92BF92CF92DF92EF92FF9271
:104780000F931F93CF93DF9300D000D0CDB7DEB748
:10479000DC014115510509F4DEC0FA01D4903196CF
:1047A00094914E5F5F4F4D2C512C2223E9F0E92F5D
:1047B000E695E695E695EE2EF12CE1E0F0E0892F06
:1047C000877011F4E0E0F0E0EE0DFF1D4E9E7001E9
:1047D0004F9EF00C5E9EF00C11242E9DF0012F9D3B
:1047E000F00D11244E0F5F1F5D01A40CB51C1A14AF
:1047F0001B040CF0B0C0A038B1050CF0ACC09B019C
:10480000290F311D121613060CF0A5C06034710576
:104810000CF0A1C04115510509F49DC0F62FF770A9
:10482000EF2E9B0177FF02C0295F3F4F83E0359554
:1048300027958A95E1F7F22F77FF04C0EE2011F05B
:10484000FFEFF20FB7FF05C0662777276A1B7B0BC8
:1048500002C060E070E000E8A016B10424F080E837
:10486000F82EFA1A01C0FD2CF61A2F2F0F2E000C6D
:10487000330BFF3F1CF4C22EC09401C0C12CE1E0F9
:10488000892F877009F4E0E09695969596959E0F8E
:10489000290F311D2930310514F098E09F1B8C2D14
:1048A0008F0F9D01182F00E81003200D311D1124DA
:1048B000260F371FCD9C600D711D1124640F751FCD
:1048C00041E050E00E2C02C0440F551F0A94E2F75D
:1048D000EFEFE49FD001E59FB00D1124A095B095B6
:1048E000BC83AB837C809F0F8917A9F1F901E1524A
:1048F000FE4F6F01A12CB12CAF1438F5FB01EA0D6E
:10490000FB1DE491E49F4001E59F900C11249A82E5
:10491000898287FD07C0F6011081E12FEA238E2AE4
:10492000F6018082EE2051F0873044F4F601E05821
:10493000FF4F908097208A8098289082FFEFAF1ACF
:10494000BF0A0FEFC01AD00AD7CF8F5F640D751D55
:1049500020583F4FC9CF0F900F900F900F90DF91CD
:10496000CF911F910F91FF90EF90DF90CF90BF906C
:10497000AF909F908F907F905F904F900895BC0173
:1049800080E090E00C9406228FB18095807F669B3A
:1049900088601C9B8460089560387105D0F44034B1
:1049A0005105B8F4E1EFF6E280E1849FD001A078F0
:1049B0001124A60F4770E40FF11D8491A152BE4F40
:1049C000222319F06C91862B03C080956C9186236D
:1049D0008C9308951F93CF93DF93DC0120E030E0A8
:1049E00040E050E011E0C1E0D0E02617370791F138
:1049F00014968C911497811115C014961C931497DA
:104A000012968D919C911397ED91FC911197E80F5F
:104A1000F91FE4911596EC931597019613969C93C4
:104A20008E93129714969C91149715968C911597C6
:104A3000892349F0FE01022E02C0EE0FFF1F0A94E7
:104A4000E2F74E2B5F2B990F14969C9314972F5FD0
:104A50003F4FCBCFCA01DF91CF911F910895EF92C5
:104A6000FF920F931F93CF93DF9300D0CDB7DEB7A4
:104A70008C017B01FB0160819A838983CE010196C1
:104A80000E942130F70161810F5F1F4F1A83098354
:104A9000CE0101960E942130C7010F900F90DF9147
:104AA000CF911F910F91FF90EF900895CF93DF93D7
:104AB00000D0CDB7DEB79A838983CE0101960E94DC
:104AC00021300F900F90DF91CF9108950C94F43521
:104AD0008091D70190E02091E1053091E205821BA1
:104AE000930B6AE070E00E9470359C0181E0232BFB
:104AF00009F080E008959091DD01981714F069178E
:104B000014F48093DD0108951092D8011092E3050A
:104B100082E08093D9011092E4058091D70187311A
:104B200060F08091E1059091E20589399F4F2CF06A
:104B30001092D9018EEF8093E4050895FC0122853F
:104B4000261714F0421714F4FC0162870895BF92EF
:104B5000CF92DF92EF92FF920F931F93CF93DF9349
:104B6000FC0166834783842F880F880F840F30E110
:104B70008302C0011124962F990F990F960F9F70F1
:104B8000892B818367FF02C08CE003C0662311F08C
:104B900084E0848747FF02C0148604C0442311F0D8
:104BA00088E08487222309F44CC08185811149C0A3
:104BB000EF018485811135C01D868A819B812AE0A1
:104BC00030E0B9010E948435162F8C819D81B90196
:104BD0000E94843500E0FF24FA94F60ECC24CA9497
:104BE000C10EBB24B394B10EDF2CD01A6D2D812FD2
:104BF0000E94E42A833099F46D2D8C2D0E94E42AC2
:104C0000E82E6D2D8B2D0E94E42A982F0F5F2DEF3B
:104C10002E0D223020F08DEF890F823060F409874D
:104C200010C00E94E63526E030E040E050E00E94EF
:104C30000A36698706C09111D7CF91509330A0F6FC
:104C4000EECFDF91CF911F910F91FF90EF90DF900A
:104C5000CF90BF900895CF93DF931F92CDB7DEB76B
:104C60006983DC01ED91FC910280F381E02D41E04C
:104C700050E0BE016F5F7F4F09950F90DF91CF919C
:104C8000089583E08093E9008091F200882319F071
:104C90008AE38093E8000895FC018485958597FD5B
:104CA0000BC09FB7F89482E08093E9008091F200F6
:104CB0009FBF90E0019608959FB7F89482E080939B
:104CC000E9008091F2009FBF90E008958F929F923B
:104CD000AF92BF92CF92DF92EF92FF920F931F930A
:104CE000CF93DF935C016B017A0180910B018823E4
:104CF00009F45BC08091D501882309F456C08091E6
:104D0000D20180FF05C08091E00082608093E000C6
:104D1000E70110E00AEF83E0882E9AE3992E2097AE
:104D2000D9F10E94082E81110AC0015009F43DC03A
:104D300061E070E080E090E00E940622F0CF282F32
:104D400030E0C217D3070CF48C2F4FB7F894809241
:104D5000E9009091E80095FF1DC0282F30E0C21BAC
:104D6000D30BF601982F915020F081918093F100A0
:104D7000FACFC20ED31E112319F09092E80009C099
:104D80008091E80085FD06C09092E80011E0209730
:104D900009F010E04FBFC3CF1111C3CF5D9884E677
:104DA0008093D3011E141F0444F081E090E0F501CC
:104DB0009383828380E090E001C0C701DF91CF91AF
:104DC0001F910F91FF90EF90DF90CF90BF90AF9029
:104DD0009F908F9008950E94082E90E00895CF93A1
:104DE000DF931F92CDB7DEB7FC018485958597FDD3
:104DF00005C02FEF3FEF358724870BC0CE0101960A
:104E00000E94DE2D019719F4898190E002C08FEF96
:104E10009FEF0F90DF91CF9108950F931F93CF9342
:104E2000DF931F92CDB7DEB78C01FC018485958599
:104E300097FF0EC0CE0101960E94DE2D019719F456
:104E4000298130E002C02FEF3FEFF801358724873A
:104E5000F801848595850F90DF91CF911F910F9177
:104E60000895DF92EF92FF920F931F93CF93DF93FA
:104E7000D82E8A017B01E40EF51EEB01CE15DF056D
:104E800071F0D7FE03C0FE01849101C088810E94A9
:104E9000413021968111F2CF8FEF9FEF01C0C80101
:104EA000DF91CF911F910F91FF90EF90DF900895C8
:104EB0000F931F93CF93DF931F92CDB7DEB782E09E
:104EC000898342E450E069EF76E280E80E9431276E
:104ED0000E94192EDC0112960D911C911397011559
:104EE000110569F0D801ED91FC910280F381E02D6C
:104EF000BE016F5F7F4FC801099597FF07C0898189
:104F00000F90DF91CF911F910F910895F8010085C7
:104F10001185E5CF1F920F920FB60F9211248F9338
:104F20009F938091E1009091E100937F9093E10045
:104F300083FF0FC01092E90091E09093EB00109274
:104F4000EC0092E39093ED001092D50198E09093DD
:104F5000F00082FF20C093E09093E9009091F2006E
:104F6000992319F09AE39093E8009091D301992343
:104F700039F09091D30191509093D301992389F105
:104F80009091D401992339F09091D401915090934C
:104F9000D401992341F184FF10C08091E2008E7EFC
:104FA00081608093E2008091E1008F7E8093E10038
:104FB0008091D2018E7E806111C080FF16C08091E9
:104FC000E2008E7E80618093E2008091E1008E7E1F
:104FD0008093E1008091D2018E7E81608093D20126
:104FE00004C05D9ACDCF289AD6CF9F918F910F9014
:104FF0000FBE0F901F9018951F920F920FB60F9231
:105000001124CF92DF92EF92FF920F931F932F9371
:105010003F934F935F936F937F938F939F93AF9340
:10502000BF93EF93FF93CF93DF93CDB7DEB76C972A
:10503000DEBFCDBF1092E9008091E80083FFEDC193
:1050400068E0CE0145960E946F3082EF8093E800C1
:105050008D8987FF05C09091E80090FFFCCF03C0C9
:105060009EEF9093E800982F907609F0C6C09E8935
:105070002F89188D91110CC0803829F48091D101AD
:105080008093F10002C01092F1001092F10048C12B
:10509000422F50E0512B913051F4811141C14130E8
:1050A000510509F03DC18091D1018D7F0BC0933036
:1050B00061F4811135C14130510509F031C1809150
:1050C000D10182608093D1012BC1953041F4809150
:1050D000E80080FFFCCF20682093E30021C19630D8
:1050E00009F05FC0EB8CFC8C1092E9001092CF01AC
:1050F0001092CE01123091F51092CD011092CC0198
:105100000E94582799E0BE016F5F7F4FDB01E92FB6
:105110001D92EA95E9F799831A8391E09E8390EABC
:1051200098879AEF99872091CE013091CF01275F20
:105130003F4F3C832B838D831092E9001092CF0167
:105140001092CE01F092CD01E092CC0149E050E006
:1051500080E00E9431270E945827E2C0F092CD01E2
:10516000E092CC010E94192EDC011296ED90FC9089
:105170001397E114F10409F4C0C0D701ED91FC913B
:105180000480F581E02DBE016B5E7F4FC70109955C
:10519000009719F00CF0C4C0C7C0F701E084F18497
:1051A000E8CF973009F4C0C0983021F481E08093B3
:1051B000F100B6C0993009F0B3C0837009F0B4C0F3
:1051C000EFE8F1E081E021E036E39081992361F09E
:1051D0008093E9002093EB0091919093EC00309341
:1051E000ED008F5F873089F78EE78093EA00109299
:1051F000EA008F898093D50193C08B8D9C8D10928E
:10520000E9001092CF011092CE019093CD018093CE
:10521000CC01898D811156C08E899D89913A59F4AE
:10522000813209F081C047E050E064E071E080E045
:105230000E94312775C0913209F076C0833289F41B
:10524000888D90E0982F88272F89822BA0E0B0E0EE
:105250008093000190930101A0930201B093030198
:105260005FC0803269F48091E80082FFFCCF67E084
:1052700084E091E00E946F308BEF8093E80006C0DD
:10528000823209F04DC08F8980930B018091D0014B
:10529000882319F0EEEFFAE002C0E0E0F8E0809138
:1052A000040190910501A0910601B0910701803B96
:1052B0009440A105B10509F07BC080910B0180FFEE
:1052C00093C076C00E94192EDC0112960D911C919C
:1052D00013970115110541F1D801ED91FC91019051
:1052E000F081E02DBE016B5E7F4FC80109958111F1
:1052F00017C0F80100851185ECCF113009F44EC0BC
:10530000133091F48F89882309F445C0823081F4E9
:1053100040E860E18DE597E20E94E534882321F0C2
:105320008EEF8093E80079C081E28093EB0075C036
:10533000813029F440E86BE081E597E2EDCF8330DE
:1053400099F70E94192EDC011296ED90FC901397AC
:105350008E010F5F1F4F6801E114F10479F0D7014E
:10536000ED91FC910680F781E02DB801C701099508
:10537000080F111DF701E084F184EECFD8011C92D3
:10538000F60101900020E9F73197BF016C197D0902
:1053900040E0C601C1CF6BE377E202C06FE377E282
:1053A0006115710509F2FB01449150E080E840CF9E
:1053B0000FB6F894A8958091600088618093600092
:1053C000109260000FBEA895EE3F2AE0F20739F078
:1053D0008091FE0A9091FF0A91838083A1CF109261
:1053E000FF0A1092FE0A9CCFEE3F8AE0F80731F0E8
:1053F000808191819093FF0A8093FE0A87E797E767
:10540000918380839BE088E10FB6F894A895809300
:1054100060000FBE9093600083CF6C960FB6F89437
:10542000DEBF0FBECDBFDF91CF91FF91EF91BF9156
:10543000AF919F918F917F916F915F914F913F912C
:105440002F911F910F91FF90EF90DF90CF900F90D1
:105450000FBE0F901F9018959C01240F311D12163E
:10546000130684F5803891056CF5FC0197FF02C0A6
:10547000E0E0F0E02138310514F020E830E02E1BA8
:10548000AB014770552781E090E001C0880F4A9535
:10549000EAF7809577FF02C0695F7F4F93E07595CB
:1054A00067959A95E1F77695762F662777956795B4
:1054B000E60FF71FE152FE4F215020F09081982314
:1054C0009193FACF08958150833008F18AE0869F46
:1054D0009001879F300D1124849FB001859F700D2E
:1054E0001124E5EFF6E0808184FF0AC08281938178
:1054F0008217930729F4848195818617970739F0DD
:105500003E9687E0E934F80771F780E0089581E07E
:105510000895873028F4843038F5882329F126C08F
:10552000803120F58AE0869F9001879F300D1124FD
:10553000849FB001859F700D1124E5EFF6E0808116
:1055400084FF0DC082858B3051F482819381821754
:10555000930729F4848195818617970739F03E9641
:1055600087E0E934F80759F781E0089580E008956D
:10557000853031F118F4882319F124C08750883020
:1055800008F58AE0869F9001879F300D1124849F43
:10559000B001859F700D1124E5EFF6E0808184FF56
:1055A0000AC0828193818217930729F484819581AF
:1055B0008617970739F03E9687E0E934F80771F7C8
:1055C00081E0089580E008958C3100F56F3F01F18E
:1055D000603100F570E0982F969520E180FD0BC0BA
:1055E000929FC001112481529A4FFC01E60FF71FD0
:1055F0008681829509C0929FC001112481529A4FE1
:10560000FC01E60FF71F86818F70089581E00895F1
:1056100080E0089582E008952F923F924F925F922A
:105620006F927F928F929F92AF92BF92CF92DF92B2
:10563000EF92FF920F931F93CF93DF93CDB7DEB717
:1056400061970FB6F894DEBF0FBECDBF4C017B0152
:105650002A875A8349831C821B821D821E8268E02E
:1056600070E0CE0101960E94EA243C01AC014F5F3C
:105670005F4F5987488768E070E0CE0101960E942D
:10568000EA246C0161E070E0CE0101960E94EA24F8
:1056900028853985280D391D37FDFEC050E885164F
:1056A00091040CF0F9C096012F5F3F4FA701420F04
:1056B000531F57FDF1C060E4E616F1040CF0ECC096
:1056C0006701F7FE04C0CC24DD24CE18DF0877E0A4
:1056D000C722DD24A701F7FE02C0495F5F4F2A0100
:1056E00053E0559447945A95E1F7F7FE09C091E0CD
:1056F000491A510848E050E0FA01EC19FD096F0120
:10570000A90137FF02C0495F5F4F1A0143E035949A
:1057100027944A95E1F727703327232B19F0FFEFE1
:105720002F1A3F0A002311F0730102C0E12CF12C63
:105730008F8321E010E0A12CB12C88E090E0AC0137
:105740004C195D095C874B87A214B3040CF0A4C00C
:1057500041E050E061E070E0CE0101962F874D8777
:105760005E870E94EA242F854D855E85892B19F47A
:105770004E5F5F4FEFCFBA01CE0101960E94EA243F
:10578000DC01119640E050E02F854A175B0708F0D6
:105790007AC06F816111122B220F09F071C0C20112
:1057A0008A0D9B1D9C012F5F3F4F2930310508F06A
:1057B0004AC09701280D391D2038310508F043C033
:1057C000BC017695762F662777956795680D791DCC
:1057D0006E0D7F1D8F3FEFEF9E0709F459C0212FFB
:1057E00030E0F9010C2C02C0EE0FFF1F0A94E2F723
:1057F000F98BE88BFB01E152FE4F2A85222321F031
:1058000030812889232B04C02889209530812323C7
:105810002083C114D104B9F00797A9F0812F90E03B
:105820000B8402C0959587950A94E2F7FB01E15A33
:10583000FD4F2A85222319F01081812B03C080950A
:10584000108181238083011110C06FEFE61AF60AE0
:1058500088859985E816F9068CF09FEFA91AB90A90
:1058600021E010E0E12CF12C0BC0E1E0EE1AF10890
:10587000F7FE04C0FFEFAF1ABF0A730121E010E08A
:105880004F5F5F4F82CF4F8151E045274F835CCF01
:10589000C114D10419F6D7CF61960FB6F894DEBFC4
:1058A0000FBECDBFDF91CF911F910F91FF90EF9071
:1058B000DF90CF90BF90AF909F908F907F906F9030
:1058C0005F904F903F902F900895E82FE695262FF8
:1058D00030E080FD0FC080E1E89FF0011124E1522B
:1058E000FA4FE20FF31F86818F7090E1499FA0016C
:1058F00011240AC080E1E89FF0011124E152FA4F1F
:10590000E20FF31F8681807F482B468308950F9313
:105910001F93CF93DF9300D0CDB7DEB71A821982E1
:1059200082EC90E00E9466258093C50683EC90E0AF
:105930000E94662506ED11E0F801868384EC90E074
:105940000E94F435898385EC90E00E94F4358A83C7
:1059500089819A81F801958384830F900F90DF915C
:10596000CF911F910F910895FF920F931F93CF93A3
:10597000DF9300D0CDB7DEB71091C506612F82EC62
:1059800090E00E945625612F87EC90E00E945625FA
:1059900006ED11E0F801F6806F2D83EC90E00E9497
:1059A00056256F2D88EC90E00E945625F8018481E1
:1059B00095819A838983BE016F5F7F4F84EC90E06D
:1059C0000E942F25BE016F5F7F4F89EC90E00E94FF
:1059D0002F250F900F90DF91CF911F910F91FF9086
:1059E0000895CF92DF92EF92FF920F931F93CF9380
:1059F000DF93EC01E5EFF6E0062E000C770B042EAA
:105A0000000C550B808184FF20C08F7098819F709F
:105A10008917D9F09181892F8F70A281B381A80F46
:105A2000B11D048115812A813B81260F371FEC802F
:105A3000FD806D018AE0C80ED11C2C153D052CF4AB
:105A4000265F3F4FA217B3073CF03E9687E0E9344C
:105A5000F807C1F680E012C092959F70090F111DE2
:105A60009701240F351FC8010A96281739076CF7CC
:105A7000265F3F4F0217130744F781E0DF91CF9174
:105A80001F910F91FF90EF90DF90CF9008950F93AB
:105A90001F93CF93DF93C82FD62F042F10E0DC176E
:105AA00050F06C2F70E021E0A80188E897E00E9498
:105AB000CC24CE5FF4CFDF91CF911F910F91089549
:105AC0006F927F929F92AF92BF92CF92DF92EF92AE
:105AD000FF920F931F93CF93DF931F92CDB7DEB743
