:100000000C9491140C94B9140C94B9140C94B91464
:100010000C94B9140C94B9140C94B9140C94B9142C
:100020000C94B9140C94B9140C94FE2D0C94702EED
:100030000C94B9140C94B9140C94B9140C94B9140C
:100040000C94B9140C94B9140C94B9140C94B914FC
:100050000C94B9140C94B9140C94B9140C94A023F6
:100060000C94B9140C94B9140C94B9140C94B914DC
:100070000C94B9140C94B9140C94B9140C94B914CC
:100080000C94A2240C94B9140C94B9140C94B914C3
:100090000C94B9140C94B9140C94B9140C94B914AC
:1000A0000C94B9140C94B9140C94B914061A371A98
:1000B000371A301A301A2C1A2C1A281A281A241A0D
:1000C000241A1C1A1C1A201A201A1C1A1C1A201A6C
:1000D000201A8C33B133C9336D356D356D356535C7
:1000E0006D356D356B356D357035723574357835E8
:1000F000262726272627472747274727A127A1273F
:10010000A127A127A127D627D627D6272627262706
:10011000090FE8D2D9ED76BB4EC7B7DD6EB7DBED80
:100120007636090FE8D3E974FCDBED76BBDD6E674C
:1001300003090F109BCE6EB7DB753A36090FB8B2C4
:10014000E9145FD7ABCF85A2ED6CDB5901090FBC79
:1001500092EE55A9A4D2AAAD53E4E9E8B6B30309D7
:100160000FF8B6CAF55FB9B5EBD436EEED6CDB59D6
:1001700001090F38B39FEAB397770A4BDBD9B6B3BF
:1001800002090FBC924EA5FAECE554CEC9D9D3F9B9
:10019000EC367A090FB8B29F6AA2745FBB8E773BC8
:1001A0007B3A5A090F38972ACA6B998E39BD1D5B65
:1001B000090F5CA73EF54D96DBF5B950B79D1DF4D0
:1001C000F5F9F6F7F8FBFAFFFCFDFE000203040167
:1001D000060508090A070B0C0E0F000A0818006034
:1001E000008000200040000000600090002000001F
:1001F000000000000080100020800000800000202F
:100200000000000040090FA8D69D2BA2AC932A75D0
:10021000BB08B3DBB106090F88769D7A995DCBDA0E
:10022000756AD46DD7B101090FB8969F6AA274D7C9
:10023000ABCFCDBC9D753B2B0607A8D2E9743A2EF7
:100240000407723A9D8E0A06077C3A9D4E470704C2
:10025000079D4BA7A303030788E5030792CC040778
:10026000B8D2E99C5304077C3A9D760E0607DE6EF1
:10027000B7DBED76070407A59276BB5D010607B7ED
:10028000DBED76BBDD020407A5926ABBDD02030746
:10029000F8743A0307759A100407D476BB924A2A79
:1002A0000407B7DBAD5452011507A54E4725555538
:1002B0002A1595F3D99C2293AA2A958A4AEA745C56
:1002C00095032907522E95AA4A95E272AA9295752E
:1002D0005452E5B3924AAAAA542A6EE552A9544E42
:1002E00071399F4E392EA9AA52A9A8A4AA64656B98
:1002F0004A550A2907D369A9A293AA9295ADA9F6EE
:100300004A4DEF54252BEBB8944BA5AA52A5B89CA7
:10031000AA64651D552A25552A2AE9F24949A94AA0
:10032000010E07A54E47E57C36A7C8A44EC75571F8
:10033000011307522E95AA4A95E2522E954AE514CA
:1003400097D4E9A8A44AA552394556390F07A5CB39
:1003500067B3924AAAAA542A2AE9F249C95539042C
:10036000050E11110E00121F10121915120A111587
:100370000A06051F04171515090E1515080119059C
:10038000030A15150A121509061907EA5455AA2A6F
:10039000D59129974AA572159972A9542AA7B8A48C
:1003A000AA64656B2AA9AA52A9B82A2E20064B0076
:1003B0000000190075054B000000190027054B00CF
:1003C0000000190097044B000000190017044B00AF
:1003D00000001900B8074B0000001900E0064B00B0
:1003E0000000190010034B0000001900BA024B0076
:1003F0000000190093024B00000019004B024B0053
:10040000000019000B024B0000001900DC034B0038
:100410000000190070034B000000190088014B0018
:10042000000019005D014B00000019004A014B005B
:100430000000190026014B000000190006014B00C6
:1004400000001900EE014B0000001900B8014B003C
:1004500000001900C4004B0000001900AF004B0061
:1004600000001900A5004B000000190093004B008C
:100470000000190083004B0000001900F7004B003A
:1004800000001900DC004B000000190062004B0066
:100490000000190057004B000000190052004B00EB
:1004A0000000190049004B000000190041004B00FA
:1004B000000019007B004B00000019006E004B008B
:1004C0000000190031004B00000019002C004B0007
:1004D0000000190029004B000000190025004B0006
:1004E0000000190021004B00000019003E004B00E5
:1004F0000000190037004B000000190000804B027B
:100500004B0000000F004B024B0000000F004B029D
:100510004B0000000F0026014B000080E0060F009A
:1005200017040F0027050F000080880164000000F9
:100530001400DC036400000014004B02640000009F
:100540002800170464000000140027056400000060
:100550001400200664000000280000800408030A3C
:10056000091A09020A021B001B0100000C010708FE
:100570001809001C880121610CC102C104C121C1FC
:100580000261216121412141214121412141A141BA
:10059000214121412102C1210121C10161216104C7
:1005A000C103C109C1210321C1612241214121416E
:1005B000214121412161072105A161214B610E618A
:1005C0008A6123A12361136121066102C102C10D69
:1005D00061210662276103C102C103612101C102D9
:1005E000C1016202C102C1016121412141214121B8
:1005F00041214121422141A1412162276126C101BE
:1006000023076202C101C10261280122076227613A
:10061000290121076203C101C101612A02C102C18E
:1006200002613C000D0E04020E060E160E1A0E029A
:100630000900120000001B000A0E110E0007820ABA
:100640008204820226C18161286181C124C18102A4
:1006500027C1612861C126C10228612861280223BF
:10066000012461230561230322022302236123C3A2
:10067000026123C382022302236126026126C18113
:1006800002230223612602610126C10223022361A3
:100690002602610226022301C1236123056105238D
:1006A0000223C1246123C56122C32302286128617A
:1006B00022A1250227016128610121A1240326022C
:1006C00061286102A1230C610861092901236223C9
:1006D0000129001A020604030A031508180B040E68
:1006E000130E040000000112060A0E05030C031687
:1006F00004170E001F192F6122196122A1214761E1
:10070000C1026B01610B6121C101610268016101DC
:10071000C101C101C125610121C1610261086101FD
:100720002101210126610221610261C101C101C1D2
:1007300001C10261012108610321C1016121A121DF
:10074000A121A121016106A101C101C16104210111
:100750006109610421612461066101610161016136
:10076000026106610B61096105610C610161016152
:10077000036106256108610161016103610A610984
:10078000C1012103610B613C000A04031001020353
:100790000A08031A021409150908001601010309C1
:1007A00006020000000000000000000002222223D8
:1007B000444444444444440000000000000330002A
:1007C0000000000003222222203103013003230015
:1007D000000003444443013013002222232320005D
:1007E00000000003001100153444430315111222C8
:1007F000011301130015300003031061000600030C
:1008000001031445300000031006111102230631C4
:100810006066300000031001111100030131000176
:100820003560000010111116022300313111301013
:10083000000010611111060300103110300100009A
:100840001011111103230111301130001000130693
:1008500016010303001031063000010003111111CD
:1008600003230101101130000000100000000003FC
:100870000000000011222111111111222212122256
:1008800012220E0B03020319030D0B030C000D00C3
:100890000E0003030B0310031803001F08641A6201
:1008A00019640C8B6696668B018A668A0488668852
:1008B000088666860D83668308C101C101C101C136
:1008C00001C1026602C101C101C101C101C10B62C6
:1008D00002620B2B622262366222622B01C101C1CD
:1008E00001C101C10461026104C101C101C101C1B1
:1008F000013C0002060404010D09190A0B0E0A143A
:1009000000150018001B001B011B021B031B041B0E
:10091000051B0603010E09180A020E02000000243E
:100920004444440044400011000060000624444454
:100930004611000331133000111311200000611023
:100940000033113360000003002000061100033162
:10095000133602206003062000611000331133605B
:10096000220011131120061100033113360220005A
:100970000003002061100033113360220660111360
:1009800006261100033113360220311011131121F4
:10099000100033113360220036601613002060030C
:1009A00030033602203111101113062111111111DB
:1009B000113200360060611311244444444444322F
:1009C0000311111011130626060030000002036007
:1009D00000601222222111003011110203111110A6
:1009E0000000000000003116611203600060111168
:1009F0001111111121111112011111111B060408FD
:100A0000001200080E120E0600000100090011007D
:100A100019001A0002001800080C120C0200011143
:100A2000110022202220011111000232330603326C
:100A30003333333233060332336323131323011367
:100A4000110323131323611032333230103330106B
:100A500032333230130133232331030003013323B4
:100A600023310031033333013011103103333301AB
:100A70003131300000313106013130000031303188
:100A80000333330130111031033333013101332388
:100A9000233103000301332323310050323332303A
:100AA0001033301032333230130323131323611306
:100AB000116323131323613233060332333333328A
:100AC00033060332332301111103222322230111A0
:100AD00011032223030603032233322303060303F5
:100AE000222303131303323332330313130322324B
:100AF0003233323233333332323332323300030360
:100B000014070E0A060F0F1B001B010F021B020F1A
:100B1000031B030F041B040F051B050F061B060F09
:100B2000070F081B0901030D030E0319030211111E
:100B3000111111110000111111221110144444441B
:100B40004444444444444401101010311111111123
:100B500030001444443444400036366660003000AF
:100B6000160066300060113111112111300011138F
:100B7000111513101033333020063000160344448F
:100B80004300160026300661300012030222036083
:100B90001111111511113000160300066323100600
:100BA0002660200130001111113111131002222092
:100BB000200134431600003006601066606626018E
:100BC0003603126000301113131115111131111178
:100BD000111131111113134444444431110444449C
:100BE00034204443130600666030063060603023D2
:100BF000606111311321311151311215111113118D
:100C000006366300300000300000000663660C000A
:100C100002010E1A0E0200001B000102040217025C
:100C20001A02000189078A016104840127028404F1
:100C3000620483012A018304620482012C0182047C
:100C40006204810125C425018104620481012E0111
:100C5000810462053005620522C424C422056205B0
:100C60003005620526C4260562062E06620481014F
:100C70002E0181046204810221C422C42102810464
:100C8000620482022A0282046201C383C102260234
:100C90006183C301612961C8612900120A030E033F
:100CA000050A120C040C000C010C020C03020215C4
:100CB00003060A190B02222222222222000222000B
:100CC0000000021211111112112200011200000085
:100CD00001210006001212120002120000000100A1
:100CE00032111510000200001200000061063111DF
:100CF000100000003112125111113203310610445C
:100D000042123100005211113103311144400212DC
:100D100031444452111132133114440000003200A6
:100D200000060112311331446000112131000051DD
:100D300012213113344014444444300000000011A7
:100D400030130002100060023511200060003113E2
:100D500011512110211235112212212000031151AD
:100D600020000002350000006021111111512444BF
:100D70004444351100111120060111000006000243
:100D80003000000000011111121111211300300375
:100D90001112111111111401040E010609170B1182
:100DA0000C0F1B001B011B021B031B041B051B0656
:100DB0001B071B081B091B0A1B0B1B0C1B0D1B0E07
:100DC000030111011901050802111122111111115C
:100DD0001111111111111010600200000600000025
:100DE00000000000101313021513111111511111FD
:100DF000111010131130151331164444444460008F
:100E00001013011305113311600000061130101387
:100E10000011301113311600006110313013300110
:100E20001301133311600611003330133360133094
:100E30001313311001100133101333300313031156
:100E400033151100133310163333031133111335D7
:100E500010033363101336003301130111350613E9
:100E6000333110111311116011301130013330334F
:100E70001013333333300133033033360033101360
:100E80000330600300313331331111131016031393
:100E900011113000003336000003001111133336F6
:100EA000311111331111111111130E030C0005052D
:100EB000040E0F1B001B011B021B031B041B051B45
:100EC000061B071B081B091B0A1B0B1B0C1B0D1BFE
:100ED0000E0F0015000201030E001F01C111C10712
:100EE000612361042261220461236104612101C143
:100EF000012162226522622101C101216102216179
:100F00002561226721612661210A64C1640A296979
:100F1000290222C122032167210222C122052305C1
:100F20002165210423072107216321062111216165
:100F3000211921612119216121192161211A610ED3
:100F40003C00050B05000B110B1B0B170F190F05B0
:100F50001700180C180D180E180F000106010C01CF
:100F60001201009707C104C105C105C10361042432
:100F700002240223A10222A121016109C104C106A8
:100F8000C1056104210221A1220222A12102A12383
:100F90000221016105C106C103C106C10361042428
:100FA00002240223A10222A121016108C105C10579
:100FB000C1066104210222A1210221A12202A12352
:100FC0000221016106C105C105C104C103610424F8
:100FD00002240223A10222A12101611B6104380124
:100FE0003B013905370521000B0E030603040A1ADD
:100FF0000C010D000101050310031A0300890B8584
:101000000C61046104610B866101C1036103610A23
:101010006101C104230361046109610124066101C6
:1010200083026101C28203610A6103C1036101425B
:1010300005618403C101610441026106C1076101C8
:1010400022016106610721076105610543234122F1
:101050000761066101820DC101C10161076109419A
:1010600001410224016184036103470141C108C2B7
:10107000036101C106C101C10142082202610221CE
:1010800002290D610E254329432800030E040102A5
:1010900003050E0E190E0200001B000E01030219BB
:1010A0000201050101622102632102632103210281
:1010B0002102210221022102C12101C12101C121FC
:1010C00001C1210221032102210221022102210367
:1010D000632102632102210F21016E210129C12513
:1010E00001C125C124C1230123C124C124C121017F
:1010F0002DC121016E21038103810381032103811D
:10110000038103810321038103810381032103817F
:101110000381038103210381038103810321016E84
:10112000210126C1280123C123C124C12201C128D4
:10113000C1250122C128C123016E210F2103632192
:101140000263210221032101C12101C121022102E7
:101150002102C1210221022101C1210221016221BA
:1011600002632102632100150E0511001300150012
:10117000020812090217001B000E020A04060601EB
:1011800008001681146126016123610F6121042189
:10119000016123610B61260321016123610B612140
:1011A00004210321016123610761260321C3210179
:1011B000612361076121042103250161236103612A
:1011C000260321C321056123610361210421032535
:1011D00001612761260321C32105612104226121C8
:1011E00004210325016126032261210421C3210575
:1011F0006121042103226121042501612501C3210C
:10120000C3226121C4210561214621432143612676
:101210000161250E610761340014060513010B04FA
:1012200005061806170F011B001001060616061307
:101230000F00028306C102C1048302410121012281
:1012400002216104612461026103224102610122E1
:1012500001216103612A61012241012161220221F0
:101260006125C122C125610121C1412261C122C183
:1012700021610E6105216131A1296103C105C111FF
:101280006150612B018D0141610B61068106614155
:10129000610B610581018105614122012201220169
:1012A000226204810121018104614C6203810123D6
:1012B000018103618C620281012501810261A1210A
:1012C000A121A121A121A121A121A16101810122AD
:1012D000C32201810161410C6181012901816141C8
:1012E0000C000E050314060708150E0A0100010183
:1012F00001020103010401050106010701080109BA
:10130000040017060608140E00411A420144014960
:101310002149C14205C103C1840388614208612299
:1013200002250522614206C1016107C12102210196
:10133000C121C1614205236102C104220221A1220F
:1013400041614203C1046125610221076142022318
:10135000036121032161022183612442086121C1CB
:101360000221610221036183014204612961230397
:101370006102C1014223016121C1012101C1022198
:1013800003210361012342C1012261290321036179
:1013900001210242246183C241C221C10222436170
:1013A000412242032161022341256121046102C1DE
:1013B0004201C101216104C1066204612161014150
:1013C00025612C612900160E02080F130F070D006E
:1013D0000E00130014001500160017000A02110277
:1013E0001A0200070108C1612609C161250AC1610D
:1013F000240BC161230CC161220DC161210EC161A9
:101400001F0F62036B42026123C122C122C123016B
:1014100061234722032F0124472242816123A8210F
:101420000282612241C142C142C12382016B4282D8
:101430000C6201610FC1610EC1610C6102C1610BDF
:1014400021016E2301C16102C16102C16101C12399
:101450006D2301C16102C16102C16101C1236D211E
:101460000016080404000D000805170E070000020E
:10147000000C001B00110C110D110E05000E0018C0
:10148000000905000181062404C1032404610161EF
:1014900024612461260127620161246102C1016186
:1014A00023C1220124C12262016121C221612B04D6
:1014B0002462012561058E6205216109C102C1070F
:1014C0006102216101216125A1276101C101C102E0
:1014D000610221610121618501856148220121614B
:1014E00001216104C101C1046103C101C105C161E0
:1014F00001216125A1256127612261420121610B42
:10150000610761226103C16104C105412661016176
:1015100022612E014104C101610161C12161210EDD
:101520004125A121016122612105C104C1034108B6
:10153000613C001A080401030903140309060302AD
:1015400000020102020102130318030104A626048B
:1015500025012603620481016322048103C18162A3
:1015600002220481046202C1220481048103816297
:10157000046603810581012AC1042C028101A201B4
:101580006722028101228101C1052202810122011B
:101590002301A12101220281022101240121C12173
:1015A00003810881026203690829072BC1038104B2
:1015B000C10522038109C1A2042BC104290665C10A
:1015C00009810481680281012301A1240122028191
:1015D0000124A1240122028101A202C122032202CC
:1015E000810122032202C122026221096121000E2F
:1015F0000F0317040B060A0B080F000F010F020F51
:10160000030F040F050F060F07020016040A060C4D
:101610000B02600111111111111011111111111191
:101620003144400004000610100000000001316148
:101630000111101111101311131111313161010039
:101640001000601013111311113131610166111175
:1016500011101300130061313161011111111110CA
:1016600011131311113131610060000000000013EB
:1016700013111131316111113111160006131300CC
:1016800000313161000030001111111311111131BD
:10169000316131116113060000130006013131611F
:1016A0003106001111111311111111313161303155
:1016B0001306000013000060013131611111111196
:1016C000111311111111313131616001060106034D
:1016D000001000603131315131313131311111138C
:1016E0001111113130603136313631006003006044
:1016F00000310D050402011901070F140F040D003C
:101700000E000D010E0102001900060F150F011F3A
:10171000046203630823C1A263056541660462098C
:1017200062036E02620A62026541690584096421EE
:101730006208C121012101236206C1210121012684
:101740000621C1210123A2C1062101210123A2C139
:1017500005C1210121C12605C12101210123620703
:101760006421620C840865416901620A62026E02AA
:10177000620962036541660623C1A26307620363CF
:101780001F06000D0E04160109051A0A000E09189D
:10179000001801180218031804180518061807186D
:1017A00008160001030904190A001F0CC1052101D4
:1017B000210121086183612B0121012102C10184E2
:1017C00061042106C10221012101210221610921B7
:1017D000042601210121022261082104C106210100
:1017E0002102236105C10121058501210121022476
:1017F00061018521C102C1210461064661042604FC
:1018000061820A61042604610125066104260461DF
:101810000121C109610426046101246106610E6190
:1018200005610482610E61056102C12102610E61E0
:10183000056124026122C12A0161022400120C0305
:101840000A031203160C030E000E010E020A001208
:1018500000070C150C001F1F178606612161068604
:101860000661836121C1612161C1216183610661DA
:1018700021C10121610361276103612101C121614E
:10188000016124046181612101216181610424617C
:10189000016222076123610722620261220761213E
:1018A000012161072261036122076123610722612F
:1018B000036122076121012161072261036122077F
:1018C0006123610722610361220761210121610710
:1018D0002261036129612361296101C10161220340
:1018E000C101216201C101612101C1032261024FD5
:1018F000614C00100F030C03140E0D0F031600169D
:1019000001160203010E031A0E0C0F001F058208B8
:101910006109C10682016105826102C106246182FA
:101920000361048321A1226121610761024121A198
:1019300021610283C121C10261216103A2236102ED
:10194000C102618161420141266103A1C1036102BB
:10195000410461034401826104A1C1026106C161C5
:1019600001C10561410721C1016121A122614661D7
:1019700021A1416141076121C161046102C103618B
:10198000036141076101A16141036121A124612239
:10199000416141076101816103C16102C1036102CB
:1019A00041614107614101C103416124A1216101FC
:1019B00041C161C14106610241046102C10361018B
:1019C0004261420661076122A123610361062A6127
:1019D00006612A0003020413020408120B150E12FA
:1019E000010011011201130114011A021A031A0451
:1019F0001A0504061A0604071A07090A0A0A0B0A36
:101A00000C0A0D0A140204041407120E02201222FA
:101A100012211211221202212211212333333232D8
:101A200012210230000322111123000632306660B9
:101A3000003000030600012321213231211231320E
:101A4000111311110123060032306660303061132A
:101A5000111201232123323011103030226361161C
:101A6000012333006230000036300123212201239C
:101A7000000112300600323006030000012360032B
:101A80000230111032300123006211231111323063
:101A9000010036300103011601230020323000001E
:101AA00032300103000232230020344444444436DF
:101AB00001032666312300263211113062311111E3
:101AC0001111112300213200011111212000000009
:101AD00031230600300600060000000006663121B2
:101AE00011111212222222222222222231020F035B
:101AF00014000808150E040000110016001B001346
:101B0000000B010708140E02044444444100000085
:101B10000000000000003000000001006000031120
:101B2000113010133055555501111132032000307A
:101B30001013305555550100003203232030101387
:101B400030555555013111120323203010133055F3
:101B5000665501306002032320301013305555556F
:101B60000111113203232030101330555555010057
:101B700060320323203016133000000001311112AF
:101B8000032320301153311111111130600203234E
:101B900020300003311111111111113211232111C3
:101BA000111331111111110060322223222211135D
:101BB0003116611111311112060306026113311140
:101BC0001111163212222222222211133222222233
:101BD00022200000006000600003300000000003CD
:101BE0001111111111111111000E030E0E130E1A05
:101BF0000E0201000201100117010D0E140E010F5B
:101C0000210221C121C121C121C121C121C1220241
:101C1000C121C121C121C121C121C121C1210F2166
:101C20000F210F210F2102C121C121C121C121C1D9
:101C300021C121C1210221C121C121C121C121C153
:101C400021C1220F210F210F210F210F210F21026E
:101C5000C121C121C121C121C121C121C121022133
:101C6000C121C121C121C121C121C1220F210F21C7
:101C70000F210F210F2102C121C121C121C121C189
:101C800021C121C1210221C121C121C121C121C103
:101C900021C1220F210F210F210F2100070B02016B
:101CA0000E0A0E0400001B0000011B011502020BAE
:101CB0000F0B090E001D9A016218630221A1220474
:101CC00023A1220226026202210222032104210210
:101CD0002104A102620221032202210721076202DC
:101CE000210421022107210762022103C1210221CF
:101CF00004C10221076202210322022103220221E0
:101D000004C102620221C10122032103C121022177
:101D1000C102C121026202240423A1220222A123C2
:101D200002621A6201612602260221612402620116
:101D3000612103C12102266101216122C1210262C8
:101D40000161210421022201C12261026124026198
:101D50003C00130E030E00070413070112000F00CE
:101D6000060412070011C113C10226612101C10B33
:101D700023A124056125A121072106210561210553
:101D800021072102C103210561210521032801C189
:101D90000121C102216125C22103210623A1256160
:101DA0000421A1240121062105C101216102C104F0
:101DB0008101210121062104612B016121012103FF
:101DC000C101C12104612109C10161210121022553
:101DD00004612101C1026121610161240124032107
:101DE00002216124026123A121072101C101246193
:101DF000032101C161210B250221610323A12113CC
:101E0000610F4121412141214121412141214121B4
:101E10004121412141214121412141214121000F05
:101E20000E0400020C061508080A03160016011617
:101E30000201020D061408070A001F1F02C121C17A
:101E40000C21C1032561286121612A61C10321613F
:101E500001C10661216104210561236125612A61B7
:101E6000216125C1026105610A61216104C121610D
:101E70002E612BC16122C1022106C121610621C14F
:101E800003296129612A61066123C10122026102DD
:101E90002202C1236124612961236126C1016124D9
:101EA000612101C125C1612361042461246129618B
:101EB000266125610321610521036102210361027D
:101EC000C13C0019000303050C090E0E0F1B001B7B
:101ED000011B021B031B041B051B061B071B081B06
:101EE000091B0A1B0B1B0C1B0D1B0E02050A070D01
:101EF000080F0E02044446000000000000000060CD
:101F000060100000013000000000000003111110FB
:101F10000000013000000000000035111110000029
:101F20000130000000000003151100100000013016
:101F300000000000003115116010060001300000A3
:101F400000000316151155101111001300000000B8
:101F500031031511001060001601300000031063FA
:101F6000151100101113010011300031111315115A
:101F70000010600130160136031060631511001067
:101F800011301301001131111113151100106013DC
:101F90000130160130606003151100101301301379
:101FA00001013111110315115510013013013000D9
:101FB0000000000315110000003003003000000095
:101FC0000003000000001111111111111111111164
:101FD000111111110D090405081508090B110B0940
:101FE0000D000D010D020D030D040D050D060D076D
:101FF0000D08080B0A0B100B120B004C034E8861E6
:102000002141810181412161894206C10161218211
:102010000182216101C1074203C102226182038260
:10202000612202C1044202C122A181622141210137
:10203000214121628121A12101C1024201C12282EB
:10204000618121A18161016181A12181618223C11D
:102050000142C12282618561016185618322C141A2
:1020600021A1836186610161866184A1228361016E
:10207000866101618601618422036126A16101619B
:10208000A12661042201C101610723076102C10188
:10209000216103610721C12107610462836121A1DC
:1020A0002561016125A12161846201C1026106618E
:1020B0000161066102C10262046102C10361016142
:1020C00002C1036105613C000C0E020B0315030203
:1020D000000000010A030C0314031603001F194734
:1020E000610F614407610F610B612743256107217F
:1020F00003610F6106210282610F61062101C101A6
:10210000C16104C121C105C36106210121C1216151
:10211000820221012101C30123618203210221C125
:102120002161C101C182C12101230121C12161C1FC
:1021300001C181012102236121C12101C121C1010C
:10214000C301236121C1210221042161C121C101F7
:102150002301230121C12161C121C1012105216187
:1021600021C12109236121C121086181610D6181A2
:102170006109610F6104234329442900120E0613EB
:10218000031705150606080B080F0E0119001403A6
:10219000140607080C0800068CC109460322062114
:1021A00046216102418602C2062106216102416187
:1021B0000623A1052105C12161024161C204C102BA
:1021C000C10526A121610244610321A1420C6206DE
:1021D0006107C104C104820161066105214A2182AF
:1021E00001610661C102C1012107C102210361062B
:1021F00061246127A124036107210221610F610786
:10220000210221610F610721C221610F610722A113
:1022100021610F610B610F61022345234523432395
:102220004300D5F08D14A1C881CFD9F1AF20007F34
:1022300037E0C3142E53284C67B7DBED76BBDD6E59
:10224000B7DBED3A74A5B3DBED76BB550E916AEEC4
:102250007476BBDD6EB7DBED76BB0ED256A1127D78
:1022600098534A2AA914D6A85232A4ADA4926A243B
:1022700072AE64285B2AA9E47882A311BA73CE39BE
:10228000E79C5352C58538E59C736E9C1D17EE94F0
:1022900073CEE191147F5B259554524925B73B08D5
:1022A0002F89C7ED763B7F3ABDE3AF9D5452492558
:1022B0009554524925A552A594545249E5DC76BB64
:1022C000557AAB94545249259554524925A55252FA
:1022D00049E59C92DBAD924E3AA9A4924A49E59C0D
:1022E000924A3A2795944A4925955452DDEA53EB90
:1022F0007C7AABA492CA39E794545249259554523A
:1023000039A7E4761D6B3ABDDD6EB7DBED3ABAEC6A
:10231000763B5A0B8D4A2AA9E4385A2AE74616DE3C
:1023200052848853712270E79C42221FE676CE29A0
:10233000EC11AE64285B2AA9E478E253216FE79C94
:10234000734E4925C3660A934A493BBEB6CED9A50A
:10235000728AEEB1E79CC3DC8AF29197E24A21D0FF
:1023600045F6385B71A5504789BFAD924A2AA9A4AA
:1023700092DB1DDDE3EEB1BF55524925955452491C
:102380002595543AD2F4564925955452C9EDEC5B43
:10239000259554524925955472ABA4924A2AA9A472
:1023A000924A2A9D8E6CABA4924A2AA9A4924A47CB
:1023B000B6555249259554524925958E6CABA49239
:1023C0004A2AA9A4D2916D9554524925955452E9AF
:1023D00048D35B2595545249259554524925955427
:1023E000721BED5649259554524925954E87640A2E
:1023F00010000000000000000000000000000000CD
:102400000000000000EFEFE0EFEFEFEF0FEFEF0164
:10241000010101010101000101FFFFFFFFFFFFFFBB
:10242000FFFF00010101010101010101000000FFA6
:1024300042424242FF00000000030000000003008F
:102440000002020202020202020202000000000078
:102450000000000000EFAFE06FEFEFED0FEBEF01DA
:102460000101010101010001010000B0B000B0B0A4
:1024700000000000000101000101000000EFEFE09A
:10248000EEEEEEEE0EEFEF010101010101010001A0
:1024900001EEECE0E8E8EAE808ECEE0101010101F8
:1024A0000101000101ECE0C0C088808000E0EC0187
:1024B000010101010101000101E0800000080001AB
:1024C0000086E0010101010101010001010000009D
:1024D00000000000000000000000000000000000FC
:1024E00000E08080000000000080E00101010101A7
:1024F0000101000101ECE0C0808080C000E0EC013F
:10250000010101010101000101EFECE0E8E8E8E868
:102510000CECEF01010101010101000101EFEFE00D
:10252000EEEEEEEE0FEFEF010101010101010001FE
:10253000013F0FA5AA64656B2AA9AA52A9B83A550A
:1025400095AA4A755CCEA7538E4BBA7C362BA9A4AC
:10255000AA4AA5E2562E95AA4A95E272AA929575C4
:1025600054D2E5B359492555552A15D2A5AA646513
:102570006B2AA9AA52A9B83A5595AA4A755CE9B43A
:1025800054F13955C9CA3A2AA92A59D99A2A9D9685
:102590002A7EE552A9AA54292EA72A595947255D12
:1025A0003E9B95545255A55221122C07EA5455AA28
:1025B0002AD571A5D352C5E754252BEBA8A4AA644C
:1025C000656BAA745AAAF8954BA5AA52A5B89CAAFD
:1025D00064651D9554F9ACA492AA2A954A01020794
:1025E000A55336095717A38B2E2E47175D74D14577
:1025F000175D74D145175D721F5D74D145175D7409
:10260000D145175D749129BAE8A28B2EBAE8A28B46
:102610002EBAE8A28B2EBAE8A28B2EB98F2EB4491F
:102620009D4EC7A55C2A954AA5728A2E5795AA4A3F
:1026300055E51C9772A9542A954A491449974DE7C4
:102640001D977255A9AA5455EEA24AE52A9BAD5C86
:102650002A2AE752A9543624DDD7575595AA2A3598
:1026600059AE2A5595AACA392AA9F2CAA525977240
:1026700055A9AA5455AEA35485ACE8A28B2EBAE84E
:10268000A28B2EBAE8A28B2EBAE8A28B2EBAE8A2B1
:102690008B2EBAE8A28B2EBAE8A28B2EBAE8A28BB8
:1026A0002EBAE8A28B2EBAE8A28B2EBAE8A28B2E05
:1026B000320000F4019C00A5000000A80093009CDB
:1026C0000000000900E9009C0000000900A5009C32
:1026D0000000000900F7009C0000000900A500A50B
:1026E000000000A800E900A5000000A80083009CED
:1026F0000000000900D0009C000000090093009C2D
:102700000000000900E9009C000000090093009C03
:1027100000000009008B009C000000D0070180E051
:10272000061E0000000A00E0061E000080010204F0
:102730000810204080080B0002020201000904007A
:10274000000102020000052400100105240101011E
:102750000424020605240600010705810310004039
:1027600009040100020A00000007050202400000FF
:10277000070583024000000403090412010002EF70
:1027800002014041233680000101020301417264CD
:1027900075696E6F204C4C430041726475696E6FB1
:1027A000204C656F6E6172646F002006640000004B
:1027B00014002705640000001400170464000000E2
:1027C00028004B02640000001400DC0364000000D9
:1027D0001400880164000000280000801B07B22E4E
:1027E000954A653BAD5D369D7754D265D3F9E89443
:1027F000AB4A55A5AA721D977255A9AA5455AE03A6
:102800001007B22E954A65E3723EA77CCA912997BC
:102810004AA552A99C220210079C72A9542A95CA63
:10282000292EE9B2E9BCE352AE2A5595AACA7559D8
:102830001FA38B2EA764E7D29DDCE7D28E2EB66D48
:102840007ABAD8B6E9E962DBA6A78B6D9B9E2EBA51
:10285000E862DBA6A78B6D9B9E2E9B9E6D9BCFA6F1
:10286000B7E9E972694717DB363D5D4EE96D3EBA5F
:102870006C7A9B8F2E7439974EC79C733A2E652BBA
:1028800059C9CA756CD94A56B2728EAB9395AC646D
:10289000652353B69295AC5C872BE5D3E95CC7A55D
:1028A0007C3A9D53648E4B91392E2BD3E99CE2CB1D
:1028B000391D97B295AC64E53A2EE5D3D9C894ADED
:1028C00064252BD7416FF7B5AB4AA952A9C97255F8
:1028D000A9AA5455CE514995572E2DB994AB4A55B6
:1028E000A5AA721D2C1B5D74D145175D74D14517C7
:1028F0005D74D1C594EB742EBAE8A28B2EBAE8A20F
:102900008B2EBAE8A28B2EBAE8A28B2EBAE8A28B45
:102910002EBAE8A28B2EBAE8A28B2EBAE8A28B09B7
:10292000F53511241FBECFEFDAE0DEBFCDBF11E0D9
:10293000A0E0B1E0ECE2FFE602C005900D92A63AFD
:10294000B107D9F727E0A6EAB1E001C01D92A53F83
:10295000B207E1F714E1C1E9D4E104C02197FE0117
:102960000E948937C039D107C9F70E94D2310C942F
:1029700094370C9400002F923F924F925F926F9287
:102980007F928F929F92AF92BF92CF92DF92EF92FF
:10299000FF920F931F93CF93DF93CDB7DEB76A9764
:1029A0000FB6F894DEBF0FBECDBF0E94BE2A8823AB
:1029B00011F40C944C220E9449298091C20190E0AC
:1029C0002091CF053091D005821B930B05962AE00C
:1029D00030E0B9010E948036162F6C8B8091C301C4
:1029E00090E04091D1055091D205841B950B05963E
:1029F000B9010E9480367B016D8B8091AC018530DE
:102A000091F080917B0790917C076CE070E00E94D0
:102A10009436892B09F026C49091A60181E089277C
:102A20008093A6011FC4812F0E942129082FD090D6
:102A30007D07C0907E07C094CD201092C4011092F3
:102A4000D3058091C9018B3021F01092C5011092FD
:102A5000D4056E2D812F0E942129863081F5809129
:102A6000C6019091C70149969093C7018093C60112
:102A700040E06E2D812F0E94F32A8091B6068823B4
:102A800019F081508093B6068091B606882329F00C
:102A90008CE195E00E94022512C0B12C8091B7060E
:102AA000B816B0F7EB2DF0E0EE0FFF1FE754F94F2B
:102AB00043E0618180810E94F32AB394EFCF90912B
:102AC000A7018D2D8C708C3061F59F5F9093A701CD
:102AD0009531B0F19D3390F09D3391F51092A7019F
:102AE00083E884BD8FEF87BD81EF809380001092D3
:102AF000880010928A000E94BF3119C320E430E0A0
:102B0000A901491B5109CA01880F93E894BD9FEFA1
:102B100097BD91EF909380001092880080938A0077
:102B20000FC0992369F083E884BD8FEF87BD81EFE3
:102B3000809380001092880010928A001092A70162
:102B40008C2D84709C2D9870C3FE2DC081112BC0DC
:102B50000E94C826882309F454C08091C20190E0E5
:102B60002091CF053091D005821B930B02966AE02D
:102B700070E00E948036162FBB24BA94B60E6E2DDC
:102B80008B2D0E942129A82ECC24C394CE0C6C2D11
:102B90008B2D0E9421298130A1F58FEF8A0D823083
:102BA00008F09BC22EC0882361F191112AC00E94B7
:102BB000C826882331F18091C20190E02091CF0591
:102BC0003091D005821B930B02966AE070E00E9460
:102BD0008036162FBB24B394B60E6E2D8B2D0E941B
:102BE0002129A82ECC24C394CE0C6C2D8B2D0E94B1
:102BF0002129813031F48FEF8A0D823010F00C944E
:102C00004D1FD6FEC5C06E2D812F0E942129982E02
:102C10008091C20190E02091CF053091D005821BB8
:102C2000930B6AE070E00E94803601E0892B19F076
:102C300000E0812F02C081E0810F6E2D0E942129CA
:102C4000382E882483948E0C002319F081E0810FA4
:102C500001C0812F682D0E942129582E011103C027
:102C60008FEF810F01C0812F682D0E942129482EEE
:102C7000832D0E940A31682E5701BB245FEFA51AED
:102C8000B50AC12ED12CA501B601842D0E94A02821
:102C9000782E0E94C8269091C9019B3081F4882328
:102CA00011F40C9438227110C0C064E0361619F08B
:102CB00096120C94382268E087E00C94B11F0E94B1
:102CC0005D2C882341F08DEF890D823010F00C943B
:102CD000541F0C945E1F002319F081E0810F01C086
:102CE000812F6E2D0E942129682E002319F081E08A
:102CF000810F01C0812F682D0E942129582E62E08A
:102D00006E0D002319F081E0810F01C0812F0E9418
:102D10002129782E852D0E940A31582E862D0E9459
:102D20000A31882311F40C94B41F552011F40C942B
:102D3000B41F26019FEF491A590AA501B201872D38
:102D40000E94A028882311F40C94A61F64E081E05F
:102D50000E94DB261092C9018091D105AAE0EA9E6B
:102D6000800D11248093C3018091C2018C3310F433
:102D700082E0C4C02091CF053091D00529363F4F65
:102D800024F01092C4018EEFC5C087FFF1CF96C129
:102D9000D5FEC6C06E2D812F0E942129982E20912C
:102DA000C20130E08091CF059091D005F901E81B78
:102DB000F90BCF016AE070E00E94803677247394AB
:102DC000892B19F0712C812F02C08FEF810F6E2D8E
:102DD0000E942129482E552453945E0C711003C083
:102DE00081E0810F01C0812F652D0E942129682E6D
:102DF000842D0E940A31882E5701BB24FFEFAF1AA1
:102E0000BF0AC12ED12CA501B601862D0E94A02893
:102E1000082F0E94C8269091C9019B30B1F48823E5
:102E200011F40C943822002331F01092C9010E9451
:102E3000EA230C944A2224E0421619F092120C94D0
:102E4000382269EF86EF0C9425200E945D2C8823A0
:102E500041F08DEF890D823010F00C94D21F0C944C
:102E6000DC1F772019F08FEF810F01C0812F6E2DAD
:102E70000E942129982E772019F08FEF810F01C031
:102E8000812F652D0E942129082F62E06E0D772089
:102E900019F08FEF810F01C0812F0E942129182F77
:102EA000802F0E940A31082F892D0E940A31882321
:102EB00011F40C944A22002311F40C944A2241E0AC
:102EC000C41AD108A501B601812F0E94A028882329
:102ED00011F40C9419206FEF8CEF0E94DB261092F6
:102EE000C9018091D1055AE0E59E800D112480939F
:102EF000C3018091C2018D3320F08EEF8093C40115
:102F0000DBC02091CF053091D00537FF06C010926D
:102F1000C40182E08093D305D1C08111EECFCEC031
:102F2000D7FE8AC08091C30190E02091D1053091F5
:102F3000D205821B930B08966AE070E00E948036EF
:102F40006B01B62E0E94C826F82E882319F06FEF69
:102F50006C0D01C06C2D812F0E942129E82EFF20CD
:102F600019F0BB24B394BC0C6B2D812F0E94212936
:102F70009091C9019530BCF097305CF09B3099F48A
:102F8000043011F00C943D20F1100C9439200C9475
:102F90003D20FF2071F1033009F08AC08FEF8E0DC4
:102FA000823038F585C00E94EA232091C20130E0CA
:102FB0008091CF059091D005D901A81BB90BCD0107
:102FC000EAE0F0E0BF010E948036863020F09F01E9
:102FD000281B3109C90105970CF06CC0033009F0BA
:102FE00069C08FEF8E0D823008F464C085E0809355
:102FF000C9018091CF053AE0139F800D1124809381
:10300000C2011092C4011092D3058091C30188318E
:1030100020F08EEF8093C50153C02091D1053091EF
:10302000D20537FF06C01092C50182E08093D40517
:103030007EC08111EECF7BC0D4FE45C08091C3011C
:1030400090E02091D1053091D205DC01A21BB30B99
:10305000CD0108966AE070E00E9480367B01D62E92
:103060000E94C826C82E81110C9444206FEF6E0D6B
:10307000812F0E942129B82ECC2019F0DD24D39471
:10308000DE0C6D2D812F0E942129D82E8091C9013F
:103090008B3009F049C7043009F4E9C7CC2011F49A
:1030A0000C945E2084EF8B0D843010F00C945E2025
:1030B0000E94EA231092C4011092D3051092C50118
:1030C0001092D40534C08091C501823009F4B6CF86
:1030D0008091D4058E3F59F5B1CF43E0A41609F491
:1030E00090CD84EF8093C9011092C4011092D30552
:1030F00047E06C2D8B2D0E94F32A90917707943135
:1031000081F0E92FF0E09F01220F331FE20FF31F40
:10311000E55CF84FB082C1828CED82839F5F909313
:1031200077070E9449298EEF94E00E940225809142
:103130007B0780FD66CC1092E6061092F406109292
:1031400002071092100710921E0710922C0755EEDE
:10315000652E56E0752E80EF96E098878F836DEE92
:10316000462E66E0562EA2EFB6E0BB87AA87EEEEAB
:10317000F6E0FD87EC87D3018C9184FF55C0129651
:103180008D919C9113976AE070E00E949436F62E20
:103190006A8BF301848195816AE070E00E94943625
:1031A000162F6B8B8F2D0E942129D82E01E0010F45
:1031B000602F8F2D0E942129B82EF6E0DF1205C066
:1031C000D2018C91882309F486C7EF81F88582911A
:1031D000F98BE88B8D3044F5D30112962D913C91FB
:1031E0001397C9016AE070E00E949436892BE1F4DC
:1031F000F30184809580C4016AE070E00E949436F7
:10320000892B91F4AF81B885EC90EE2009F483C747
:10321000D2018C91811176C7F20131971082EF8132
:10322000F885808181508083EEE06E0E711C2F81C5
:103230003885225F3F4F38872F833EE0430E511C75
:103240004A855B85425F5F4F5B874A878C859D859A
:103250000E969D878C8799E3691697E0790609F0A9
:103260008ACFCFCB8091AC018850833060F58091BC
:10327000AC01982F9B7F933009F087C22091AB015E
:10328000822F022E000C990B2195220F295C40E41D
:1032900050E0481B590B440FBC010E94F92B409190
:1032A000AB0160E880E00E94E02B8091AB0146E337
:1032B000481B60E880E00E94E02BE090AB0100E05A
:1032C00010E0F12CEFC1812C912C712CA12CB12C90
:1032D000E12CC090CF05D090D005CA0CDB1C00912A
:1032E000D1051091D205C60109968938910508F5D6
:1032F000080D191DC801099689349105D0F4672D70
:103300008E2D0E942129F82E882339F0282F4FEE88
:1033100053E2B801C6010E94152529EF2F0D243074
:1033200040F4B8016A5071094BED51E0C6010E94AA
:103330001525E394AAE0AA0EB11CBCE1EB12C9CF9B
:103340007394EAE08E0E911CF0E17F12BFCF809162
:10335000AC01853021F08091A6018823F1F08091A5
:10336000C901082F001F0027001F082E000C990B11
:1033700097FF03C0919581959109880F990BFC01E6
:10338000E05FFE4F408151816091C30170E0809108
:10339000C20121E090E00E94552985EE482E86E08A
:1033A000582E90EF292E96E0392E2FEEC22E26E0D1
:1033B000D22E3BEE632E36E0732E5201D5018C9156
:1033C00084FFBFC012962D913C9113974091CF0579
:1033D0005091D00558874F834A01820E931E149650
:1033E0008D919C911597E090D105F090D205E80E53
:1033F000F91ED101EC914E2F50E04331510508F0F8
:1034000098C0FA01EA5AFF4F0C948937F60180817F
:10341000082F001F0027001F082E000C990B97FF94
:1034200003C0919581959109880F990BFC01E05F8C
:10343000FE4F4081518180C0F1E08F1A910879C020
:103440002FEF821A920A75C032E0E31AF108B3C76F
:1034500044E0E41AF10807C056E0E51AF108ABC7EA
:1034600068E0E61AF10800E045E052E065C0AAE035
:10347000EA1AF108FC013A97D5011596FC93EE93F0
:103480001497D1011C92C9016AE070E00E94943641
:10349000462FCF016AE070E00E949436162F0FEF9E
:1034A000040F802F298F3A8F488F0E942129782F6F
:1034B00051E0510F652F802F5E8B7F8B0E94212959
:1034C000082F488D4F5F612F842F488F0E9421293C
:1034D000982F5E89652F488D842F9E8B0E9421290D
:1034E000482FE091C201F0E0AF81B885EA1BFB0BE9
:1034F000298D3A8D7F899E89E217F30764F4872F1F
:103500000E94F630882309F449C7802F0E94FF30BB
:1035100081114BC743C7892F488F0E94F630488DD1
:10352000882309F442C7842F0E94FF30811136C7D7
:103530003CC700E047E252E021E0B701C4010E942D
:103540005529BEE0AB0EB11CEEE02E0E311CFEE0A4
:10355000CF0ED11C2EE0620E711C39E3A31637E0AA
:10356000B30609F02BCF8090C201912C8091CF053A
:103570009091D005881A990A6090C301712C8091AE
:10358000D1059091D205681A790AD2018C9184FFF5
:103590007FC012968D919C911397F401E81BF90B53
:1035A00014962D913C911597A301421B530B9A0140
:1035B000C090C3014C2D50E0421B530BE090C20160
:1035C000473F6FEF5607C4F42E2D30E02E1B3F0B04
:1035D0002F3FAFEF3A070CF4F2C62C3731050CF051
:1035E000F6C6E394EE1A8E2D07E4A02E02E0B02E6C
:1035F0004DE752E090E03AC045335105C4F02E2D1E
:1036000030E02E1B3F0B2F3FBFEF3B070CF4E7C60C
:103610002C3731050CF0ECC6E394EE1A8E2D18E32E
:10362000A12E12E0B12E4CE652E093E31FC0F12C24
:10363000EE1AFF0AECEFEE16EFEFFE064CF49C2DAF
:10364000921BBAE5AB2EB2E0BB2E43E952E0CEC6E8
:10365000FCE7EF16F104E4F09C2D921BA6E5AA2EE0
:10366000A2E0BA2E4EE852E08CE702C08F3F81F014
:10367000C92ED12CE82EF12C00E020E0B601C701C4
:103680000E94552921E0A501B601C7010E945529D4
:103690002EE0420E511C39E3431637E0530609F081
:1036A00074CFE5CD21E0A801B70188E797E00E943B
:1036B0002C260E5F1F4F02341105A1F78091AB013C
:1036C0000FE7081BE12CF12C10E021E0A701B80165
:1036D00088E797E00E942C2642E0E40EF11C52E4B9
:1036E000E516F10491F78091AC01833031F510912A
:1036F000AB011150EBE1EE2EF12CF0E4CF2ED12CEA
:1037000017FD12C0812F012E000C990B9701281B69
:10371000390B220F2F5FA601481B590B440FBC0128
:103720000E94F92B1150ECCF8091AB018150809316
:10373000AB018F3F39F584E023C0D12C0BE110E0C1
:1037400070E4E72EF12C8091AB01D81694F48D2D06
:103750000D2C000C990B9801281B390B220F2F5FA1
:10376000A701481B590B440FBC010E94F92BD394AD
:10377000EACF8F5F8093AB018C3121F48091CA0135
:103780008093AC01E12CF12C56C098EF980F933048
:10379000C8F78A3049F400E021E043EF52E069E1E4
:1037A00070E08AE290E03AC0883029F400E021E03D
:1037B00042EC52E02FC01091B506812F64E60E94C2
:1037C0007D37082F282F4FE553E069E170E088E44A
:1037D00090E00E941525812F64E6069F8019112430
:1037E0006AE00E947D37192F282F4FE553E069E1E9
:1037F00070E08DE490E00E941525212F4FE553E005
:1038000069E170E082E590E00E94152500E021E08A
:1038100048EA52E069E170E08BE290E00E945529AD
:1038200046E167E589E20E94E02B40E267E589E234
:103830000E94E02BA7CF07E310E020E0A801B7012A
:1038400088E797E00E942C260F5F1F4F0034110578
:10385000A1F78FEFE81AF80A90E8E916F10459F792
:1038600048E360E880E00E94E02B8091C6019091DF
:10387000C701FE01319626E0DF011D922A95E9F786
:103880007F012AE030E046E04E0FB9010E949436F5
:103890008193CB014E13F9CF00E021E049E853E0DA
:1038A0006AE370E080E090E00E94552906E310E0B2
:1038B000F70121917F014FE553E06AE370E0C80111
:1038C0000E941525055011090831110589F7F0905E
:1038D000C80100E021E04CE453E06AE370E080E4DA
:1038E00090E00E9455291AE08F2D612F0E947D37AC
:1038F000092F282F4FE553E06AE370E082E590E05E
:103900000E941525202F4FE553E06AE370E087E51C
:1039100090E00E9415258091AC01853071F4F09003
:10392000B60600E021E041E353E06AE370E080E6A0
:1039300090E00E9455298F2D1DC0F090B50600E043
:1039400021E041E253E06AE370E080E690E00E940B
:10395000552964E670E08F2D90E00E948036262F76
:10396000082F4FE553E06AE370E081E790E00E94A2
:103970001525802F612F0E947D37192F282F4FE5A5
:1039800053E06AE370E086E790E00E941525212F5E
:103990004FE553E06AE370E08BE790E00E94152565
:1039A0008091AC01853009F0DAC180917B0790915C
:1039B0007C0780FD1CC02091C40121110CC0209106
:1039C000C501211108C02091D305211104C0209107
:1039D000D405222361F02091C901ECE0E20FEC3123
:1039E00020F4F0E0E154FE4F24912093C90183704C
:1039F0009927892B09F445C04091C4018091C201E7
:103A0000480F4093C2011091C5018091C301180F66
:103A10001093C3018091D305E091CF05F091D005BB
:103A2000E80FF11D87FDFA95F093D005E093CF05DF
:103A30008091D4052091D1053091D205280F311DF8
:103A400087FD3A953093D2052093D105812F90E0E0
:103A5000821B930B05962AE030E0B9010E94803664
:103A6000062F842F90E08E1B9F0B0596B9010E94B4
:103A70008036862F602F0E942129123008F056C010
:103A800020C0AFEEB6E02C91CD010A97FC018081F9
:103A900084FF11C011968C91119781110CC083EF96
:103AA000820F833008F0ADC4ECE0E20FF0E0E154A7
:103AB000FE4FE491EC931E96F7E0A334BF0719F78D
:103AC0009BCF833099F51091B5061F5F8091C80197
:103AD0008A3018F48F5F8093C80186E08093AC0130
:103AE0001093B506612F82EC90E00E94B626143741
:103AF00008F4A1C481EC90E00E94C626843008F04E
:103B000098C411E0180F612F81EC90E00E94B62656
:103B1000612F86EC90E00E94B6260E94422B8EE038
:103B20008093CA018AE295E00E94022580917B077A
:103B300090917C077C0121E0E222FF2480FD76C089
:103B400005EE16E0D8018C9184FF50C0F701EB51CF
:103B5000F94F868112966D917C911397680F711DB4
:103B600087FD7A9513967C936E93129787811496AE
:103B70004D915C911597480F511D87FD5A951596EB
:103B80005C934E9314972091C20130E08091CF0551
:103B90009091D005281B390B8091C301E091D1058C
:103BA000F091D2056901B2E0CB0ED11CDB01189671
:103BB000CA16DB06DCF4285F3F4F6E5F7F4F62174B
:103BC0007307A4F490E08E1B9F0BBC016E5F7F4FC8
:103BD0009A01285F3F4F6217730744F408964E5FBF
:103BE0005F4F4817590714F40E94BF31025F1F4FFF
:103BF000EEE0EE0EF11CF4E5EF16F10409F0A2CFB1
:103C000000E010E0602F812F0E94212999EF980F8A
:103C1000943030F441E0480F602F812F0E94F32A46
:103C20001F5F1C3179F70F5F003159F780917707DB
:103C3000882309F4FCC0F12C4DE0E42E8091770735
:103C4000F81608F075C00F2D10E06801CC0CDD1CD3
:103C5000F601E00FF11FE55CF84F8281882309F43B
:103C600062C081508283803189F038F4813081F0E4
:103C7000883009F058C04FE052C0883129F08032B6
:103C800009F051C04CE04BC04DE049C04EE047C088
:103C9000A091B806B0E0AA0FBB1FA352B94F85EEA2
:103CA00096E020E030E04F01BF016F5F7F4FFC01E5
:103CB000408144FF19C0F4014081FAE04F9FA00108
:103CC0001124FC01A280B3804A155B0569F4FB0155
:103CD0004081FAE04F9FA0011124FC01A480B5802F
:103CE0004A155B0509F4A9C30E96225F3F4F2435A0
:103CF0003105E9F6F601E00FF11FE55CF84F808130
:103D00002C89821306C081813D89831302C00E94E1
:103D1000BF310C0D1D1DF801E55CF84F41E06181DC
:103D200080810E94F32AF39489CF882309F47FC00D
:103D300080913D07813009F07AC0809177078150EA
:103D400080937707EBE3F7E090E0981770F7238113
:103D5000348145812193319341939F5FF6CF209128
:103D60007D0790917E0790959223843009F03FC0A3
:103D70008091A80122FF32C08E3268F48932D0F0DF
:103D800083E884BD8FEF87BD81EF8093800080E45E
:103D9000809388000BC0833388F483E884BD8FEF61
:103DA00087BD81EF809380001092880010928A0076
:103DB0008091A8018F5F8093A80139C08091B506DA
:103DC00097FF04C0833710F48F5F05C094FF2FC0A6
:103DD000813568F181508093B50629C0882349F068
:103DE000833348F0883218F082E08093AC0110925F
:103DF000A8019923E1F08091AC018B3048F489301F
:103E000050F4873051F0883059F41092AC010FC053
:103E10008E3069F005C082E008C08091CA0105C0FB
:103E200010927E0710927D0785E08093AC0180910F
:103E3000A701811118C08091A801811114C090912F
:103E4000B606911105C09091AC01953009F480E25D
:103E500093E894BD809587BD81EF80938000109298
:103E6000880010928A006A960FB6F894DEBF0FBEE3
:103E7000CDBFDF91CF911F910F91FF90EF90DF9019
:103E8000CF90BF90AF909F908F907F906F905F90FA
:103E90004F903F902F900C94AE2A53E0A51611F44A
:103EA0000C9401168CE01EC90023E1F0A501B601B7
:103EB000842D0E94C628811193C0DCC2662009F4BB
:103EC000E9C2772019F064E081E005C084E098122F
:103ED00006C06AE087E00E94DB260C94AC1666E020
:103EE00085E0F9CF662051F0A501B6016F5F7F4FE5
:103EF000852D0E94A0288111E6CF02C07110C2C298
:103F0000B6016F5F7F4FA501852D0E94C6288111E4
:103F1000DACF1092C4011092D305882309F4CEC8D9
:103F20008BE08093C9010FC043E0D412B0C08091F0
:103F3000CF055AE0159F800D11248093C2016BEFCD
:103F40008AEF0E94DB260E94E426F1C8002371F06C
:103F5000A501B201872D0E94C6288823D1F266E010
:103F600085E00E94DB261AC0011194C2682D812FC2
:103F70000E942129182F892D0E940A31882309F4D3
:103F800089C2B6016F5F7F4FA501812F0E94C628AD
:103F9000882309F4BECF8BE08093C9010E94EA23F5
:103FA0000C94AC16772021F1A501B601862D0E9454
:103FB000C628811115C061C2882009F46BC2002394
:103FC00019F06FEF8CEF05C034E0931206C069EF73
:103FD00086EF0E94DB260C94711766E085E0F9CF2E
:103FE0008BE08093C9018CEA93E00E94022540C2D5
:103FF000882009F44AC2652D812F0E942129182F9B
:10400000892D0E940A31882349F0A501B60161502B
:104010007109812F0E94A0288111D3CFB601615070
:104020007109A501812F0E94C628882309F471CF48
:10403000C8CF772069F0A501B601812F0E94C6285C
:10404000882309F466CF66E085E00E94DB260BC07A
:10405000A501B601812F0E94C628882309F459CFF3
:104060008BE08093C9010E94EA230C947117CC2045
:1040700029F187E08093C9011BC8A60155274F5F2E
:104080005F4F612F70E021C06E2D0C9438188D2D7C
:104090000E940A31811104C01092C9010C94581871
:1040A000D11003C08BE08093C9018091CF056AE0F5
:1040B000169F800D11248093C20145CFA70155277B
:1040C0004F5F5F4F612F70E08D2D0E94A0288823E5
:1040D00009F439CFE1CF0E94F6360E94F6362AE085
:1040E00030E040E050E00E941A37DC01CB014496FA
:1040F000A11DB11DF201808340E0612F8F2D0E9430
:10410000F32A63C81150612F8F2D0E942129882323
:1041100009F43BC181C86FEF610F8F2D298F3A8F52
:104120000E9421298E87612FCC24C394CF0C8C2D23
:104130000E9421298987602F8C2D0E9421298F8739
:10414000602F0FEF0F0D802F0E942129382E612F35
:10415000802F0E942129282E4091C2018091CF05F5
:104160009091D005841B9109298D3A8D280F391F14
:104170004091C3018091D1059091D205841B910992
:10418000880D991DAC85BD854C914423F9F01F9293
:104190002F923F928B2CAF84C984EE840D2DEA853B
:1041A000FB852081412F6F2DC3010E94FE26AC8527
:1041B000BD859C9191509C930F900F900F90811111
:1041C00033C8EA85FB853197308161C037FF1EC057
:1041D000181619065CF43195219531098217930759
:1041E000C4F128173907BCF132E046C00097A9F1A5
:1041F00031952195310991958195910928173907B4
:1042000074F1821793076CF136E036C02115310541
:10421000C1F01816190644F48217930724F12817E1
:1042200039071CF13EE028C0009709F1919581956E
:10423000910928173907ECF082179307E4F03AE068
:104240001BC0392F331F3327331F330F330F330F67
:1042500013C033E011C031E00FC034E00DC037E0CF
:104260000BC035E009C03DE007C03FE005C03CE0C1
:1042700003C039E001C03BE0EDEFE30FEC3020F488
:10428000F0E0E05DFE4FE080EA85FB85E082D20150
:104290008C91882391F09FEF9B0D923070F4D11098
:1042A0000CC08150F2018083811107C046E0612F6C
:1042B0008F2D3A8F0E94F32A3A8DF1E0FF932F92CF
:1042C0003F928B2CAF84C984EE840D2D232F412F78
:1042D0006F2DC3013A8F0E94FE260F900F900F9012
:1042E0003A8D81110C941419132F48E0F42E3323C6
:1042F00011F0315001C03FE021E02F932F923F9207
:104300008B2CAF84C984EE840D2D232F4B896A89B1
:10431000C3013A8F0E94FE260F900F900F903A8DA6
:10432000882341F0A889B9898C918B3011F00C94C5
:1043300014191FC01F3011F01F5F01C010E0B1E061
:10434000BF932F923F928B2CAF84C984EE840D2DA6
:10435000212F4B896A89C3013A8F0E94FE260F9054
:104360000F900F903A8D8111DDCFFA94F110BFCFED
:10437000D9CF8B2D0E94FF30882311F40C9414198F
:10438000F201319710820C941419F201108246E068
:10439000612F8F2D0E94F32A0C940C1981E0D60115
:1043A0008C9322E0F301208306C0EFEFD601EC935B
:1043B000EEEFD301EC9300E046E152E0BDC83FE4EC
:1043C000A32E32E0B32E46E852E090E00FC025E67F
:1043D000A22E22E0B22E40EA52E090E010C090E41B
:1043E000A92E92E0B92E45E752E092E380E040C961
:1043F0008EE5A82E82E0B82E48E952E092E38BE7E2
:1044000037C9CD010497FC018081811107C0CD011E
:104410000397FC018081882309F44DCB8CE0820F47
:104420008C3128F4E82FF0E0E154FE4F24912C93D6
:1044300042CB8FE075CB89E073CBAC9011964C9159
:104440001197FAE0AF9E50011124FC01B382A282C1
:10445000FAE04F9FA0011124FC0155834483A90178
:104460004B51594FFA01E2861386168217823CCCD3
:1044700081E04FCD611027CD03C08110A2CD08C0CF
:10448000772041F01092C90105C00111FBCFB3CDD7
:104490000111F8CF80E03DCD6A960FB6F894DEBFEB
:1044A0000FBECDBFDF91CF911F910F91FF90EF9085
:1044B000DF90CF90BF90AF909F908F907F906F9044
:1044C0005F904F903F902F900895CF92DF92EF92A0
:1044D000FF920F931F93CF93DF936C017A018B01AF
:1044E000C0E0D0E0CE15DF0589F0D8016D918D01D7
:1044F000D601ED91FC910190F081E02DC601099566
:10450000892B11F47E0102C02196ECCFC701DF9107
:10451000CF911F910F91FF90EF90DF90CF90089572
:104520008091B401E091B201F091B301882349F088
:10453000CF0102969093B3018093B201859194913B
:104540000895CF0102969093B3018093B2018081C8
:10455000918108958091A90108950895089580E0BA
:1045600090E00895FC012285261714F0421714F4F8
:10457000FC01628708950E948F37BF92CF92DF922D
:10458000EF92FF920F931F93CF93DF93FC0166830B
:104590004783842F880F880F840F30E18302C00186
:1045A0001124962F990F990F960F9F70892B818355
:1045B00067FF02C08CE003C0662311F084E08487AB
:1045C00047FF02C0148604C0442311F088E08487AA
:1045D000222309F44CC08185811149C0EF018485F3
:1045E000811135C01D868A819B812AE030E0B901A6
:1045F0000E949436162F8C819D81B9010E949436B9
:1046000000E0FF24FA94F60ECC24CA94C10EBB2419
:10461000B394B10EDF2CD01A6D2D812F0E94212969
:10462000833099F46D2D8C2D0E942129E82E6D2D5B
:104630008B2D0E942129982F0F5F2DEF2E0D2230F8
:1046400020F08DEF890F823060F4098710C00E943E
:10465000F63626E030E040E050E00E941A376987E5
:1046600006C09111D7CF91509330A0F6EECFDF91D5
:10467000CF911F910F91FF90EF90DF90CF90BF905F
:1046800008953FB7F8948091BC019091BD01A0912D
:10469000BE01B091BF0126B5A89B05C02F3F19F000
:1046A0000196A11DB11D3FBFBA2FA92F982F8827B2
:1046B000820F911DA11DB11DBC01CD0142E0660F0D
:1046C000771F881F991F4A95D1F708958F929F925F
:1046D000AF92BF92CF92DF92EF92FF926B017C017B
:1046E0000E9441234B015C01C114D104E104F10497
:1046F000F1F00E944123DC01CB0188199909AA0934
:10470000BB09883E9340A105B10570F321E0C21AB0
:10471000D108E108F10888EE880E83E0981EA11CFC
:10472000B11CC114D104E104F10419F7DDCFFF90ED
:10473000EF90DF90CF90BF90AF909F908F900895B3
:104740001F920F920FB60F9211242F933F938F93C6
:104750009F93AF93BF938091CB019091CC01A09197
:10476000CD01B091CE013091BB0123E0230F2D3755
:1047700020F40196A11DB11D05C026E8230F029665
:10478000A11DB11D2093BB018093CB019093CC015F
:10479000A093CD01B093CE018091BC019091BD0159
:1047A000A091BE01B091BF010196A11DB11D8093E2
:1047B000BC019093BD01A093BE01B093BF01BF9116
:1047C000AF919F918F913F912F910F900FBE0F90BE
:1047D0001F901895E1E7F0E080818D7F8083109233
:1047E0009100469847981092AA010895CF92DF92BF
:1047F000EF92FF920F931F93CF93DF930E9490222B
:10480000811520E8920751F4DF91CF911F910F910C
:10481000FF90EF90DF90CF900C94EA2321E020935B
:10482000AA01813020E8920751F48091B001909163
:10483000B1019093B3018093B2010E94902297FD41
:1048400005C02091AF01222309F440C02091AE01A0
:1048500021113CC021E02093B501EC01DF772097C6
:1048600069F481E08093B60146983FE9C32E3FE0AA
:10487000D32EE12CF12CCAEFD0E014C08E0120E041
:1048800030E060E472E48FE090E0A90198010E94BA
:104890001A3769017A0181E0C81AD108E108F108E4
:1048A0001092B601E0913907F0913A07099581110C
:1048B00003C081E08093B6018091B501882309F49B
:1048C0003FC08091B60181113BC003C01092B50179
:1048D000C4CF469935C0479A0E949022009771F044
:1048E0009C01DE010E946E37DC01CB0129E0B59509
:1048F000A795979587952A95D1F703C08FEF9FEFDE
:10490000DC01109290002AE020939100D09299004F
:10491000C09298008093B7019093B801A093B90119
:10492000B093BA0180917100826080937100DF9131
:10493000CF911F910F91FF90EF90DF90CF9008954E
:104940004798CACF1F920F920FB60F9211242F9340
:104950003F934F935F936F937F938F939F93AF9307
:10496000BF93EF93FF938091B7019091B801A0910D
:10497000B901B091BA01892B8A2B8B2B81F18091DF
:10498000B60181110BC098B180E4892788B9809164
:10499000B501882319F088B1805888B98091B70192
:1049A0009091B801A091B901B091BA0118161906F9
:1049B0001A061B06B4F48091B7019091B801A0913A
:1049C000B901B091BA010197A109B1098093B7016A
:1049D0009093B801A093B901B093BA0102C00E94AC
:1049E000F623FF91EF91BF91AF919F918F917F91AE
:1049F0006F915F914F913F912F910F900FBE0F904C
:104A00001F9018959C01E1E7F0E090819D7F9083D5
:104A100081E08093B4013093B3012093B2013093CD
:104A2000B1012093B0010C94F6234F925F927F92D4
:104A30008F929F92AF92BF92CF92DF92EF92FF92AE
:104A40000F931F93CF93DF9300D000D0CDB7DEB785
:104A5000DC014115510509F4DEC0FA01D49031960C
:104A600094914E5F5F4F4D2C512C2223E9F0E92F9A
:104A7000E695E695E695EE2EF12CE1E0F0E0892F43
:104A8000877011F4E0E0F0E0EE0DFF1D4E9E700126
:104A90004F9EF00C5E9EF00C11242E9DF0012F9D78
:104AA000F00D11244E0F5F1F5D01A40CB51C1A14EC
:104AB0001B040CF0B0C0A038B1050CF0ACC09B01D9
:104AC000290F311D121613060CF0A5C060347105B4
:104AD0000CF0A1C04115510509F49DC0F62FF770E7
:104AE000EF2E9B0177FF02C0295F3F4F83E0359592
:104AF00027958A95E1F7F22F77FF04C0EE2011F099
:104B0000FFEFF20FB7FF05C0662777276A1B7B0B05
:104B100002C060E070E000E8A016B10424F080E874
:104B2000F82EFA1A01C0FD2CF61A2F2F0F2E000CAA
:104B3000330BFF3F1CF4C22EC09401C0C12CE1E036
:104B4000892F877009F4E0E09695969596959E0FCB
:104B5000290F311D2930310514F098E09F1B8C2D51
:104B60008F0F9D01182F00E81003200D311D112417
:104B7000260F371FCD9C600D711D1124640F751F0A
:104B800041E050E00E2C02C0440F551F0A94E2F79A
:104B9000EFEFE49FD001E59FB00D1124A095B095F3
:104BA000BC83AB837C809F0F8917A9F1F901E15386
:104BB000FE4F6F01A12CB12CAF1438F5FB01EA0DAB
:104BC000FB1DE491E49F4001E59F900C11249A8223
:104BD000898287FD07C0F6011081E12FEA238E2A22
:104BE000F6018082EE2051F0873044F4F601E0585F
:104BF000FF4F908097208A8098289082FFEFAF1A0D
:104C0000BF0A0FEFC01AD00AD7CF8F5F640D751D92
:104C100020583F4FC9CF0F900F900F900F90DF910A
:104C2000CF911F910F91FF90EF90DF90CF90BF90A9
:104C3000AF909F908F907F905F904F900895BC01B0
:104C400080E090E00C9466238FB18095807F669B16
:104C500088601C9B8460089560387105D0F44034EE
:104C60005105B8F4EDE2F7E280E1849FD001A0782D
:104C70001124A60F4770E40FF11D8491A153BE4F7C
:104C8000222319F06C91862B03C080956C918623AA
:104C90008C9308951F93CF93DF93DC0120E030E0E5
:104CA00040E050E011E0C1E0D0E02617370791F175
:104CB00014968C911497811115C014961C93149717
:104CC00012968D919C911397ED91FC911197E80F9D
:104CD000F91FE4911596EC931597019613969C9302
:104CE0008E93129714969C91149715968C91159704
:104CF000892349F0FE01022E02C0EE0FFF1F0A9425
:104D0000E2F74E2B5F2B990F14969C9314972F5F0D
:104D10003F4FCBCFCA01DF91CF911F910895EF9202
:104D2000FF920F931F93CF93DF9300D0CDB7DEB7E1
:104D30008C017B01FB0160819A838983CE010196FE
:104D40000E941331F70161810F5F1F4F1A8309839E
:104D5000CE0101960E941331C7010F900F90DF9191
:104D6000CF911F910F91FF90EF900895CF93DF9314
:104D700000D0CDB7DEB79A838983CE0101960E9419
:104D800013310F900F90DF91CF9108950C94043759
:104D90008091C30190E02091D1053091D205821B12
:104DA000930B6AE070E00E9480369C0181E0232B27
:104DB00009F080E008959091C901981714F06917DF
:104DC00014F48093C90108951092C4011092D30580
:104DD00082E08093C5011092D4058091C301873190
:104DE00060F08091D1059091D20589399F4F2CF0C8
:104DF0001092C5018EEF8093D40508953F924F9293
:104E00005F926F927F928F929F92AF92BF92CF925A
:104E1000DF92EF92FF920F931F93CF93DF93CDB763
:104E2000DEB7142FF02F3C885D889E8830E020315B
:104E3000310508F036C1082DBA2C7E2D8F2E462E56
:104E40003C01F901E858FF4F0C948937EE2029F016
:104E50007350723010F010E001C011E046EF60E0D6
:104E6000C3010E948A2B93E089121BC1112309F40C
:104E70001DC1811116C146E065E0C3010E94B22246
:104E8000292D4EEF60E0C3010E94BD220FC140E01A
:104E90006AE00E948A2B91E0D82ED926E12EF12CCF
:104EA000EFEFEE1AFE0A512CA701B201802F0E94EB
:104EB000F528A82EB2016F5F7F4FA7018B2D0E94AE
:104EC000F528F82E8C2D0E94F630182F8B2D0E947D
:104ED000FF30F4E0CF1205C0DD2019F04AE067E0B2
:104EE0000DC094E0891211C01123C9F0882309F480
:104EF000CFC0DD2009F4D0C044E061E0C3010E94CE
:104F0000B222292D40E062E099C0E3E08E1207C092
:104F1000112329F0DD2019F046E065E0EFCFA11064
:104F200093C0882321F0112309F4BBC006C01123CC
:104F300009F4B7C0FF2009F4B4C0DD2009F4B1C002
:104F4000DBCF4AE060E00E948A2B91E0F82EF92640
:104F5000412F50E04F5F5F4F642D70E0802F0E9423
:104F6000F528033061F4FF2009F49BC04BEF6AEF92
:104F7000C3010E94B222292D42E060E05FC0882375
:104F800009F48FC0FF2009F48CC08BE0F301828705
:104F9000292D42E060E0C3010E94BD220750093084
:104FA00008F074C08FE1F301838770C040E066EFC2
:104FB0000E948A2B91E0D82ED926E12EF12CFFEF0A
:104FC000EF1AFF0AA42CB12CA701B501802F0E9473
:104FD000F528C82EB50161507109A701832D0E94E3
:104FE000F528F82E852D0E94F630182F832D0E946B
:104FF000FF3094E0591205C0DD2019F049EF66EF4B
:1050000017C0E4E08E120BC01123E1F0882309F4ED
:105010004AC0DD2009F443C04FEF6CEF09C0F3E054
:105020008F1210C0112371F0DD2061F046E065E0C1
:10503000C3010E94B222292D40E06EEFC3010E94FD
:10504000BD2224C0CC20A1F08BE0F3018287292D62
:1050500042E060E0C3010E94BD2207500930B0F475
:105060008FE1F30183878FE197E20E9402250EC052
:10507000882329F01123A9F0DD2099F0CDCF112349
:1050800081F0FF2071F0DD2061F0B8CF11E00EC09B
:10509000AA2009F44FCFD8CFAA2019F0D5CFC1103C
:1050A000D3CF10E003C0CC2061F3CECF812FDF91AE
:1050B000CF911F910F91FF90EF90DF90CF90BF9015
:1050C000AF909F908F907F906F905F904F903F90A8
:1050D00008959C01240F311D1216130684F58038A3
:1050E00091056CF5FC0197FF02C0E0E0F0E021388B
:1050F000310514F020E830E02E1BAB014770552736
:1051000081E090E001C0880F4A95EAF7809577FF2B
:1051100002C0695F7F4F93E0759567959A95E1F7B7
:105120007695762F662777956795E60FF71FE153FB
:10513000FE4F215020F0908198239193FACF08954B
:105140008150833008F18AE0869F9001879F300D5F
:105150001124849FB001859F700D1124E5EEF6E0C7
:10516000808184FF0AC0828193818217930729F48A
:10517000848195818617970739F03E9687E0E93359
:10518000F80771F780E0089581E00895873028F4EA
:10519000843038F5882329F126C0803120F58AE053
:1051A000869F9001879F300D1124849FB001859FB9
:1051B000700D1124E5EEF6E0808184FF0DC082853C
:1051C0008B3051F4828193818217930729F4848173
:1051D00095818617970739F03E9687E0E933F807FF
:1051E00059F781E0089580E00895853031F118F491
:1051F000882319F124C08750883008F58AE0869FFB
:105200009001879F300D1124849FB001859F700D00
:105210001124E5EEF6E0808184FF0AC0828193814B
:105220008217930729F4848195818617970739F0AF
:105230003E9687E0E933F80771F781E0089580E052
:1052400008958C3100F56F3F01F1603100F570E099
:10525000982F969520E180FD0BC0929FC0011124EC
:1052600081539A4FFC01E60FF71F8681829509C092
:10527000929FC001112481539A4FFC01E60FF71F42
:1052800086818F70089581E0089580E0089582E01E
:105290000895CF93DF93C8E7D7E08D818E830E9476
:1052A00024268D83DF91CF9108952F923F924F92C4
:1052B0005F926F927F928F929F92AF92BF92CF92A6
:1052C000DF92EF92FF920F931F93CF93DF93CDB7AF
:1052D000DEB761970FB6F894DEBF0FBECDBF4C01AD
:1052E0007B012A875A8349831C821B821D821E826E
:1052F00068E070E0CE0101960E944A263C01AC01B4
:105300004F5F5F4F5987488768E070E0CE01019694
:105310000E944A266C0161E070E0CE0101960E9475
:105320004A2628853985280D391D37FDFEC050E8ED
:10533000851691040CF0F9C096012F5F3F4FA7012D
:10534000420F531F57FDF1C060E4E616F1040CF064
:10535000ECC06701F7FE04C0CC24DD24CE18DF08C2
:1053600077E0C722DD24A701F7FE02C0495F5F4F47
:105370002A0153E0559447945A95E1F7F7FE09C086
:1053800091E0491A510848E050E0FA01EC19FD0992
:105390006F01A90137FF02C0495F5F4F1A0143E067
:1053A000359427944A95E1F727703327232B19F07A
:1053B000FFEF2F1A3F0A002311F0730102C0E12C06
:1053C000F12C8F8321E010E0A12CB12C88E090E03B
:1053D000AC014C195D095C874B87A214B3040CF037
:1053E000A4C041E050E061E070E0CE0101962F875B
:1053F0004D875E870E944A262F854D855E85892BC5
:1054000019F44E5F5F4FEFCFBA01CE0101960E94B3
:105410004A26DC01119640E050E02F854A175B07D1
:1054200008F07AC06F816111122B220F09F071C050
:10543000C2018A0D9B1D9C012F5F3F4F2930310512
:1054400008F04AC09701280D391D2038310508F0B1
:1054500043C0BC017695762F662777956795680DD2
:10546000791D6E0D7F1D8F3FEFEF9E0709F459C028
:10547000212F30E0F9010C2C02C0EE0FFF1F0A941F
:10548000E2F7F98BE88BFB01E153FE4F2A852223DB
:1054900021F030812889232B04C028892095308170
:1054A00023232083C114D104B9F00797A9F0812FD9
:1054B00090E00B8402C0959587950A94E2F7FB0172
:1054C000E15BFD4F2A85222319F01081812B03C057
:1054D0008095108181238083011110C06FEFE61A3F
:1054E000F60A88859985E816F9068CF09FEFA91AC7
:1054F000B90A21E010E0E12CF12C0BC0E1E0EE1A3A
:10550000F108F7FE04C0FFEFAF1ABF0A730121E0F4
:1055100010E04F5F5F4F82CF4F8151E045274F83AF
:105520005CCFC114D10419F6D7CF61960FB6F894A9
:10553000DEBF0FBECDBFDF91CF911F910F91FF90C6
:10554000EF90DF90CF90BF90AF909F908F907F9023
:105550006F905F904F903F902F900895EFECF1E0A7
:1055600081E0A0E0B8E000800EBC8111012C119711
:10557000A0FDFDCF0192B9F70DB408958FB7F8944F
:105580004091CB015091CC016091CD017091CE0141
:105590008FBF80918007942F981B8091810788236B
:1055A00031F0909382071092810780E00895209156
:1055B0007F07921740F49F5F9217A0F491E093BF8A
:1055C000889513BE089581E08093810740938007FA
:1055D00080917B0790917C07019690937C07809344
:1055E0007B0781E00895E82FE695262F30E080FDC7
:1055F0000FC080E1E89FF0011124E153FA4FE20F60
:10560000F31F86818F7090E1499FA00111240AC089
:1056100080E1E89FF0011124E153FA4FE20FF31FFC
:105620008681807F482B468308950F931F93CF93E5
:10563000DF9300D0CDB7DEB71A82198282EC90E0FA
:105640000E94C6268093B50683EC90E00E94C62691
:1056500002EC11E0F801868384EC90E00E940437AC
:10566000898385EC90E00E9404378A8389819A813E
:10567000F801958384830F900F90DF91CF911F9154
:105680000F910895EF92FF920F931F93CF93DF93A3
:1056900000D0CDB7DEB785EBE82E86E0F82EF70117
:1056A000608182EC90E00E94B62602EC11E0F801E5
:1056B000668183EC90E00E94B626F8018481958192
:1056C0009A838983BE016F5F7F4F84EC90E00E94D4
:1056D0008F26F701608187EC90E00E94B626F801E2
:1056E000668188EC90E00E94B626F801848195815D
:1056F0009A838983BE016F5F7F4F89EC90E00E949F
:105700008F260F900F90DF91CF911F910F91FF90F7
:10571000EF900895CF92DF92EF92FF920F931F9335
:10572000CF93DF93EC01E5EEF6E0062E000C770B4D
:10573000042E000C550B808184FF20C08F7098814F
:105740009F708917D9F09181892F8F70A281B381C1
:10575000A80FB11D048115812A813B81260F371FB7
:10576000EC80FD806D018AE0C80ED11C2C153D0532
:105770002CF4265F3F4FA217B3073CF03E9687E01C
:10578000E933F807C1F680E012C092959F70090FC7
:10579000111D9701240F351FC8010A9628173907D4
:1057A0006CF7265F3F4F0217130744F781E0DF9144
:1057B000CF911F910F91FF90EF90DF90CF900895C0
:1057C0000F931F93CF93DF93C82FD62F042F10E092
:1057D000DC1750F06C2F70E021E0A80188E797E01B
:1057E0000E942C26CE5FF4CFDF91CF911F910F91B5
:1057F00008956F927F929F92AF92BF92CF92DF9265
:10580000EF92FF920F931F93CF93DF931F92CDB729
:10581000DEB78C013B01942E6034710528F4C80179
:1058200029830E94692829815301A20EB11CB50168
:10583000615071096034710520F4492DC8010E943E
:10584000692877FE02C0612C712C7301650181E427
:10585000A816B1041CF080E4C82ED12CEC14FD0471
:105860005CF420E0A701B80188E797E00E942C26AD
:105870008FEFE81AF80AEACF090D111D015011093E
:105880006C147D045CF420E0A301B80188E797E084
:105890000E942C268FEF681A780AF2CF0F90DF91C2
:1058A000CF911F910F91FF90EF90DF90CF90BF901D
:1058B000AF909F907F906F9008958091C30190E08A
:1058C0002091D1053091D205821B930B2AE030E064
:1058D000B9010E948036863020F0A901481B510989
:1058E000CA0121E005970CF020E0822F0895FC0109
:1058F0008091C101811103C08FEF9FEF08959FB781
:10590000F89482E08093E9002091F20030E01216D2
:10591000130614F421E030E02115310559F02898E0
:1059200084E68093C0018091F10080838091F20031
:10593000882319F09FBFC90108958BE68093E80082
:10594000F9CF2FB7F89483E08093E9009091E800B5
:10595000892F807295FF04C09091F20080E4891B2A
:105960002FBF08958091870781110DC082E0809339
:10597000830784E08093840710928607109285073E
:1059800081E08093870783E897E00895CF93DF93C2
:105990001F92CDB7DEB76983DC01ED91FC910280E7
:1059A000F381E02D41E050E0BE016F5F7F4F09952C
:1059B0000F90DF91CF91089583E08093E90080916B
:1059C000F200882319F08AE38093E8000895FC012F
:1059D0008485958597FD0BC09FB7F89482E08093EE
:1059E000E9008091F2009FBF90E0019608959FB773
:1059F000F89482E08093E9008091F2009FBF90E0EC
:105A000008958F929F92AF92BF92CF92DF92EF92C2
:105A1000FF920F931F93CF93DF935C016B017A0189
:105A200080910B01882309F45BC08091C101882318
:105A300009F456C08091F30780FF05C08091E00013
:105A400082608093E000E70110E00AEF83E0882E97
:105A50009AE3992E2097D9F10E94A12C81110AC0B6
:105A6000015009F43DC061E070E080E090E00E94E8
:105A70006623F0CF282F30E0C217D3070CF48C2F09
:105A80004FB7F8948092E9009091E80095FF1DC00F
:105A9000282F30E0C21BD30BF601982F915020F035
:105AA00081918093F100FACFC20ED31E112319F019
:105AB0009092E80009C08091E80085FD06C09092B0
:105AC000E80011E0209709F010E04FBFC3CF11119B
:105AD000C3CF5D9884E68093F4071E141F0444F03E
